{
  "_format": "hh-sol-artifact-1",
  "contractName": "LargeSettlement",
  "sourceName": "contracts/L2/LargeSettlement.sol",
  "abi": [
    {
      "inputs": [
        {
          "internalType": "address",
          "name": "lzEndpoint_",
          "type": "address"
        },
        {
          "internalType": "uint16",
          "name": "dstChainId_",
          "type": "uint16"
        },
        {
          "internalType": "address",
          "name": "_smallSettlement",
          "type": "address"
        },
        {
          "internalType": "uint256",
          "name": "withdrawalTime_",
          "type": "uint256"
        },
        {
          "internalType": "address",
          "name": "usdt_",
          "type": "address"
        }
      ],
      "stateMutability": "nonpayable",
      "type": "constructor"
    },
    {
      "anonymous": false,
      "inputs": [
        {
          "indexed": false,
          "internalType": "address",
          "name": "user",
          "type": "address"
        },
        {
          "indexed": false,
          "internalType": "address[]",
          "name": "coins",
          "type": "address[]"
        },
        {
          "indexed": false,
          "internalType": "uint256[]",
          "name": "amounts",
          "type": "uint256[]"
        }
      ],
      "name": "CheckOutFee",
      "type": "event"
    },
    {
      "anonymous": false,
      "inputs": [
        {
          "indexed": false,
          "internalType": "uint256",
          "name": "totalValue",
          "type": "uint256"
        },
        {
          "indexed": false,
          "internalType": "uint256",
          "name": "totalPrincipal",
          "type": "uint256"
        },
        {
          "indexed": false,
          "internalType": "uint256",
          "name": "userPrincipal",
          "type": "uint256"
        }
      ],
      "name": "CheckOutFeeAfter",
      "type": "event"
    },
    {
      "anonymous": false,
      "inputs": [
        {
          "indexed": false,
          "internalType": "uint256",
          "name": "totalValue",
          "type": "uint256"
        },
        {
          "indexed": false,
          "internalType": "uint256",
          "name": "totalPrincipal",
          "type": "uint256"
        },
        {
          "indexed": false,
          "internalType": "uint256",
          "name": "userPrincipal",
          "type": "uint256"
        }
      ],
      "name": "CheckOutFeeBefore",
      "type": "event"
    },
    {
      "anonymous": false,
      "inputs": [
        {
          "indexed": false,
          "internalType": "uint256",
          "name": "totalValue",
          "type": "uint256"
        },
        {
          "indexed": false,
          "internalType": "uint256",
          "name": "totalPrincipal",
          "type": "uint256"
        },
        {
          "indexed": false,
          "internalType": "uint256",
          "name": "userPrincipal",
          "type": "uint256"
        }
      ],
      "name": "DepostAfter",
      "type": "event"
    },
    {
      "anonymous": false,
      "inputs": [
        {
          "indexed": false,
          "internalType": "uint256",
          "name": "totalValue",
          "type": "uint256"
        },
        {
          "indexed": false,
          "internalType": "uint256",
          "name": "totalPrincipal",
          "type": "uint256"
        },
        {
          "indexed": false,
          "internalType": "uint256",
          "name": "userPrincipal",
          "type": "uint256"
        }
      ],
      "name": "DepostBefore",
      "type": "event"
    },
    {
      "anonymous": false,
      "inputs": [
        {
          "indexed": false,
          "internalType": "uint16",
          "name": "_srcChainId",
          "type": "uint16"
        },
        {
          "indexed": false,
          "internalType": "bytes",
          "name": "_srcAddress",
          "type": "bytes"
        },
        {
          "indexed": false,
          "internalType": "uint64",
          "name": "_nonce",
          "type": "uint64"
        },
        {
          "indexed": false,
          "internalType": "bytes",
          "name": "_payload",
          "type": "bytes"
        },
        {
          "indexed": false,
          "internalType": "bytes",
          "name": "_reason",
          "type": "bytes"
        }
      ],
      "name": "MessageFailed",
      "type": "event"
    },
    {
      "anonymous": false,
      "inputs": [
        {
          "indexed": true,
          "internalType": "address",
          "name": "previousOwner",
          "type": "address"
        },
        {
          "indexed": true,
          "internalType": "address",
          "name": "newOwner",
          "type": "address"
        }
      ],
      "name": "OwnershipTransferStarted",
      "type": "event"
    },
    {
      "anonymous": false,
      "inputs": [
        {
          "indexed": true,
          "internalType": "address",
          "name": "previousOwner",
          "type": "address"
        },
        {
          "indexed": true,
          "internalType": "address",
          "name": "newOwner",
          "type": "address"
        }
      ],
      "name": "OwnershipTransferred",
      "type": "event"
    },
    {
      "anonymous": false,
      "inputs": [
        {
          "indexed": false,
          "internalType": "uint16",
          "name": "_srcChainId",
          "type": "uint16"
        },
        {
          "indexed": false,
          "internalType": "bytes",
          "name": "_srcAddress",
          "type": "bytes"
        },
        {
          "indexed": false,
          "internalType": "uint64",
          "name": "_nonce",
          "type": "uint64"
        },
        {
          "indexed": false,
          "internalType": "bytes32",
          "name": "_payloadHash",
          "type": "bytes32"
        }
      ],
      "name": "RetryMessageSuccess",
      "type": "event"
    },
    {
      "anonymous": false,
      "inputs": [
        {
          "indexed": false,
          "internalType": "uint16",
          "name": "_dstChainId",
          "type": "uint16"
        },
        {
          "indexed": false,
          "internalType": "uint16",
          "name": "_type",
          "type": "uint16"
        },
        {
          "indexed": false,
          "internalType": "uint256",
          "name": "_minDstGas",
          "type": "uint256"
        }
      ],
      "name": "SetMinDstGas",
      "type": "event"
    },
    {
      "anonymous": false,
      "inputs": [
        {
          "indexed": false,
          "internalType": "address",
          "name": "precrime",
          "type": "address"
        }
      ],
      "name": "SetPrecrime",
      "type": "event"
    },
    {
      "anonymous": false,
      "inputs": [
        {
          "indexed": false,
          "internalType": "uint16",
          "name": "_remoteChainId",
          "type": "uint16"
        },
        {
          "indexed": false,
          "internalType": "bytes",
          "name": "_path",
          "type": "bytes"
        }
      ],
      "name": "SetTrustedRemote",
      "type": "event"
    },
    {
      "anonymous": false,
      "inputs": [
        {
          "indexed": false,
          "internalType": "uint16",
          "name": "_remoteChainId",
          "type": "uint16"
        },
        {
          "indexed": false,
          "internalType": "bytes",
          "name": "_remoteAddress",
          "type": "bytes"
        }
      ],
      "name": "SetTrustedRemoteAddress",
      "type": "event"
    },
    {
      "anonymous": false,
      "inputs": [
        {
          "indexed": false,
          "internalType": "uint256",
          "name": "totalValue",
          "type": "uint256"
        },
        {
          "indexed": false,
          "internalType": "uint256",
          "name": "totalPrincipal",
          "type": "uint256"
        },
        {
          "indexed": false,
          "internalType": "uint256",
          "name": "userPrincipal",
          "type": "uint256"
        }
      ],
      "name": "WithdrawAfter",
      "type": "event"
    },
    {
      "anonymous": false,
      "inputs": [
        {
          "indexed": false,
          "internalType": "uint256",
          "name": "totalValue",
          "type": "uint256"
        },
        {
          "indexed": false,
          "internalType": "uint256",
          "name": "totalPrincipal",
          "type": "uint256"
        },
        {
          "indexed": false,
          "internalType": "uint256",
          "name": "userPrincipal",
          "type": "uint256"
        }
      ],
      "name": "WithdrawBefore",
      "type": "event"
    },
    {
      "anonymous": false,
      "inputs": [
        {
          "indexed": false,
          "internalType": "uint256",
          "name": "totalValue",
          "type": "uint256"
        },
        {
          "indexed": false,
          "internalType": "uint256",
          "name": "totalPrincipal",
          "type": "uint256"
        },
        {
          "indexed": false,
          "internalType": "uint256",
          "name": "userPrincipal",
          "type": "uint256"
        }
      ],
      "name": "WithdrawInterestAfter",
      "type": "event"
    },
    {
      "anonymous": false,
      "inputs": [
        {
          "indexed": false,
          "internalType": "uint256",
          "name": "totalValue",
          "type": "uint256"
        },
        {
          "indexed": false,
          "internalType": "uint256",
          "name": "totalPrincipal",
          "type": "uint256"
        },
        {
          "indexed": false,
          "internalType": "uint256",
          "name": "userPrincipal",
          "type": "uint256"
        }
      ],
      "name": "WithdrawInterestBefore",
      "type": "event"
    },
    {
      "anonymous": false,
      "inputs": [
        {
          "indexed": false,
          "internalType": "uint256",
          "name": "checkOutType",
          "type": "uint256"
        }
      ],
      "name": "eventCheckOut",
      "type": "event"
    },
    {
      "anonymous": false,
      "inputs": [
        {
          "indexed": false,
          "internalType": "address",
          "name": "",
          "type": "address"
        },
        {
          "indexed": false,
          "internalType": "uint256",
          "name": "",
          "type": "uint256"
        },
        {
          "indexed": false,
          "internalType": "address",
          "name": "",
          "type": "address"
        },
        {
          "indexed": false,
          "internalType": "enum LargeSettlementData.OperateType",
          "name": "",
          "type": "uint8"
        }
      ],
      "name": "eventReceive",
      "type": "event"
    },
    {
      "inputs": [],
      "name": "NODE_ROLE",
      "outputs": [
        {
          "internalType": "bytes32",
          "name": "",
          "type": "bytes32"
        }
      ],
      "stateMutability": "view",
      "type": "function"
    },
    {
      "inputs": [],
      "name": "acceptOwnership",
      "outputs": [],
      "stateMutability": "nonpayable",
      "type": "function"
    },
    {
      "inputs": [],
      "name": "adapterParams",
      "outputs": [
        {
          "internalType": "bytes",
          "name": "",
          "type": "bytes"
        }
      ],
      "stateMutability": "view",
      "type": "function"
    },
    {
      "inputs": [],
      "name": "apy",
      "outputs": [
        {
          "internalType": "uint256",
          "name": "",
          "type": "uint256"
        }
      ],
      "stateMutability": "view",
      "type": "function"
    },
    {
      "inputs": [
        {
          "internalType": "address",
          "name": "user_",
          "type": "address"
        },
        {
          "components": [
            {
              "internalType": "address",
              "name": "user",
              "type": "address"
            },
            {
              "internalType": "bytes32",
              "name": "capitaMerkleRoot",
              "type": "bytes32"
            },
            {
              "internalType": "address[]",
              "name": "coinList",
              "type": "address[]"
            },
            {
              "internalType": "uint256[]",
              "name": "withdrawnValues",
              "type": "uint256[]"
            },
            {
              "internalType": "uint256",
              "name": "nativeFee",
              "type": "uint256"
            },
            {
              "internalType": "uint8",
              "name": "checkOutType",
              "type": "uint8"
            },
            {
              "internalType": "bytes32",
              "name": "messageHash",
              "type": "bytes32"
            },
            {
              "internalType": "bytes",
              "name": "signature",
              "type": "bytes"
            }
          ],
          "internalType": "struct LargeSettlementData.Data",
          "name": "data_",
          "type": "tuple"
        },
        {
          "internalType": "address",
          "name": "usdt_",
          "type": "address"
        }
      ],
      "name": "checkOut",
      "outputs": [],
      "stateMutability": "payable",
      "type": "function"
    },
    {
      "inputs": [],
      "name": "checkOutFee",
      "outputs": [],
      "stateMutability": "payable",
      "type": "function"
    },
    {
      "inputs": [],
      "name": "checkOutForUser",
      "outputs": [],
      "stateMutability": "payable",
      "type": "function"
    },
    {
      "inputs": [
        {
          "internalType": "address",
          "name": "user",
          "type": "address"
        },
        {
          "internalType": "address",
          "name": "coinType",
          "type": "address"
        }
      ],
      "name": "deAmountL1",
      "outputs": [
        {
          "internalType": "uint256",
          "name": "",
          "type": "uint256"
        }
      ],
      "stateMutability": "view",
      "type": "function"
    },
    {
      "inputs": [],
      "name": "dstChainId",
      "outputs": [
        {
          "internalType": "uint16",
          "name": "",
          "type": "uint16"
        }
      ],
      "stateMutability": "view",
      "type": "function"
    },
    {
      "inputs": [
        {
          "internalType": "address",
          "name": "user",
          "type": "address"
        }
      ],
      "name": "estimateFee",
      "outputs": [
        {
          "internalType": "uint256",
          "name": "nativeFee",
          "type": "uint256"
        },
        {
          "internalType": "uint256",
          "name": "zroFee",
          "type": "uint256"
        }
      ],
      "stateMutability": "view",
      "type": "function"
    },
    {
      "inputs": [
        {
          "internalType": "uint16",
          "name": "",
          "type": "uint16"
        },
        {
          "internalType": "bytes",
          "name": "",
          "type": "bytes"
        },
        {
          "internalType": "uint64",
          "name": "",
          "type": "uint64"
        }
      ],
      "name": "failedMessages",
      "outputs": [
        {
          "internalType": "bytes32",
          "name": "",
          "type": "bytes32"
        }
      ],
      "stateMutability": "view",
      "type": "function"
    },
    {
      "inputs": [
        {
          "internalType": "uint16",
          "name": "_srcChainId",
          "type": "uint16"
        },
        {
          "internalType": "bytes",
          "name": "_srcAddress",
          "type": "bytes"
        }
      ],
      "name": "forceResumeReceive",
      "outputs": [],
      "stateMutability": "nonpayable",
      "type": "function"
    },
    {
      "inputs": [
        {
          "internalType": "uint16",
          "name": "_version",
          "type": "uint16"
        },
        {
          "internalType": "uint16",
          "name": "_chainId",
          "type": "uint16"
        },
        {
          "internalType": "address",
          "name": "",
          "type": "address"
        },
        {
          "internalType": "uint256",
          "name": "_configType",
          "type": "uint256"
        }
      ],
      "name": "getConfig",
      "outputs": [
        {
          "internalType": "bytes",
          "name": "",
          "type": "bytes"
        }
      ],
      "stateMutability": "view",
      "type": "function"
    },
    {
      "inputs": [
        {
          "internalType": "uint16",
          "name": "remoteChainId",
          "type": "uint16"
        }
      ],
      "name": "getOracle",
      "outputs": [
        {
          "internalType": "address",
          "name": "_oracle",
          "type": "address"
        }
      ],
      "stateMutability": "view",
      "type": "function"
    },
    {
      "inputs": [
        {
          "internalType": "address",
          "name": "user_",
          "type": "address"
        }
      ],
      "name": "getSize",
      "outputs": [
        {
          "internalType": "bytes",
          "name": "",
          "type": "bytes"
        }
      ],
      "stateMutability": "view",
      "type": "function"
    },
    {
      "inputs": [],
      "name": "getTotalValue",
      "outputs": [
        {
          "internalType": "uint256",
          "name": "",
          "type": "uint256"
        }
      ],
      "stateMutability": "view",
      "type": "function"
    },
    {
      "inputs": [
        {
          "internalType": "uint16",
          "name": "_remoteChainId",
          "type": "uint16"
        }
      ],
      "name": "getTrustedRemoteAddress",
      "outputs": [
        {
          "internalType": "bytes",
          "name": "",
          "type": "bytes"
        }
      ],
      "stateMutability": "view",
      "type": "function"
    },
    {
      "inputs": [
        {
          "internalType": "uint16",
          "name": "_srcChainId",
          "type": "uint16"
        },
        {
          "internalType": "bytes",
          "name": "_srcAddress",
          "type": "bytes"
        }
      ],
      "name": "hasStoredPayload",
      "outputs": [],
      "stateMutability": "nonpayable",
      "type": "function"
    },
    {
      "inputs": [],
      "name": "interests",
      "outputs": [
        {
          "internalType": "address",
          "name": "",
          "type": "address"
        }
      ],
      "stateMutability": "view",
      "type": "function"
    },
    {
      "inputs": [
        {
          "internalType": "uint16",
          "name": "_srcChainId",
          "type": "uint16"
        },
        {
          "internalType": "bytes",
          "name": "_srcAddress",
          "type": "bytes"
        }
      ],
      "name": "isTrustedRemote",
      "outputs": [
        {
          "internalType": "bool",
          "name": "",
          "type": "bool"
        }
      ],
      "stateMutability": "view",
      "type": "function"
    },
    {
      "inputs": [],
      "name": "lastSmallsettlement",
      "outputs": [
        {
          "internalType": "uint256",
          "name": "",
          "type": "uint256"
        }
      ],
      "stateMutability": "view",
      "type": "function"
    },
    {
      "inputs": [],
      "name": "lzEndpoint",
      "outputs": [
        {
          "internalType": "contract ILayerZeroEndpoint",
          "name": "",
          "type": "address"
        }
      ],
      "stateMutability": "view",
      "type": "function"
    },
    {
      "inputs": [
        {
          "internalType": "uint16",
          "name": "_srcChainId",
          "type": "uint16"
        },
        {
          "internalType": "bytes",
          "name": "_srcAddress",
          "type": "bytes"
        },
        {
          "internalType": "uint64",
          "name": "_nonce",
          "type": "uint64"
        },
        {
          "internalType": "bytes",
          "name": "_payload",
          "type": "bytes"
        }
      ],
      "name": "lzReceive",
      "outputs": [],
      "stateMutability": "nonpayable",
      "type": "function"
    },
    {
      "inputs": [
        {
          "internalType": "uint16",
          "name": "",
          "type": "uint16"
        },
        {
          "internalType": "uint16",
          "name": "",
          "type": "uint16"
        }
      ],
      "name": "minDstGasLookup",
      "outputs": [
        {
          "internalType": "uint256",
          "name": "",
          "type": "uint256"
        }
      ],
      "stateMutability": "view",
      "type": "function"
    },
    {
      "inputs": [
        {
          "internalType": "uint16",
          "name": "_srcChainId",
          "type": "uint16"
        },
        {
          "internalType": "bytes",
          "name": "_srcAddress",
          "type": "bytes"
        },
        {
          "internalType": "uint64",
          "name": "_nonce",
          "type": "uint64"
        },
        {
          "internalType": "bytes",
          "name": "_payload",
          "type": "bytes"
        }
      ],
      "name": "nonblockingLzReceive",
      "outputs": [],
      "stateMutability": "nonpayable",
      "type": "function"
    },
    {
      "inputs": [],
      "name": "owner",
      "outputs": [
        {
          "internalType": "address",
          "name": "",
          "type": "address"
        }
      ],
      "stateMutability": "view",
      "type": "function"
    },
    {
      "inputs": [],
      "name": "pendingOwner",
      "outputs": [
        {
          "internalType": "address",
          "name": "",
          "type": "address"
        }
      ],
      "stateMutability": "view",
      "type": "function"
    },
    {
      "inputs": [],
      "name": "precrime",
      "outputs": [
        {
          "internalType": "address",
          "name": "",
          "type": "address"
        }
      ],
      "stateMutability": "view",
      "type": "function"
    },
    {
      "inputs": [],
      "name": "renounceOwnership",
      "outputs": [],
      "stateMutability": "nonpayable",
      "type": "function"
    },
    {
      "inputs": [
        {
          "internalType": "uint16",
          "name": "_srcChainId",
          "type": "uint16"
        },
        {
          "internalType": "bytes",
          "name": "_srcAddress",
          "type": "bytes"
        },
        {
          "internalType": "uint64",
          "name": "_nonce",
          "type": "uint64"
        },
        {
          "internalType": "bytes",
          "name": "_payload",
          "type": "bytes"
        }
      ],
      "name": "retryMessage",
      "outputs": [],
      "stateMutability": "payable",
      "type": "function"
    },
    {
      "inputs": [
        {
          "internalType": "uint16",
          "name": "_srcChainId",
          "type": "uint16"
        },
        {
          "internalType": "bytes",
          "name": "_srcAddress",
          "type": "bytes"
        },
        {
          "internalType": "bytes",
          "name": "_payload",
          "type": "bytes"
        }
      ],
      "name": "retryPayload",
      "outputs": [],
      "stateMutability": "nonpayable",
      "type": "function"
    },
    {
      "inputs": [
        {
          "internalType": "uint16",
          "name": "version",
          "type": "uint16"
        },
        {
          "internalType": "uint256",
          "name": "gasForDestinationLzReceive",
          "type": "uint256"
        }
      ],
      "name": "setAdapterParams",
      "outputs": [],
      "stateMutability": "nonpayable",
      "type": "function"
    },
    {
      "inputs": [
        {
          "internalType": "uint256",
          "name": "_apy",
          "type": "uint256"
        }
      ],
      "name": "setApy",
      "outputs": [],
      "stateMutability": "nonpayable",
      "type": "function"
    },
    {
      "inputs": [
        {
          "internalType": "uint16",
          "name": "_version",
          "type": "uint16"
        },
        {
          "internalType": "uint16",
          "name": "_chainId",
          "type": "uint16"
        },
        {
          "internalType": "uint256",
          "name": "_configType",
          "type": "uint256"
        },
        {
          "internalType": "bytes",
          "name": "_config",
          "type": "bytes"
        }
      ],
      "name": "setConfig",
      "outputs": [],
      "stateMutability": "nonpayable",
      "type": "function"
    },
    {
      "inputs": [
        {
          "internalType": "address",
          "name": "_interests",
          "type": "address"
        }
      ],
      "name": "setInterests",
      "outputs": [],
      "stateMutability": "nonpayable",
      "type": "function"
    },
    {
      "inputs": [
        {
          "internalType": "address",
          "name": "user_",
          "type": "address"
        },
        {
          "internalType": "address",
          "name": "coin_",
          "type": "address"
        },
        {
          "internalType": "uint256",
          "name": "amount_",
          "type": "uint256"
        },
        {
          "internalType": "bool",
          "name": "isFlag",
          "type": "bool"
        }
      ],
      "name": "setL1Amount",
      "outputs": [],
      "stateMutability": "nonpayable",
      "type": "function"
    },
    {
      "inputs": [],
      "name": "setLastSmallsettlement",
      "outputs": [],
      "stateMutability": "nonpayable",
      "type": "function"
    },
    {
      "inputs": [
        {
          "internalType": "uint16",
          "name": "_dstChainId",
          "type": "uint16"
        },
        {
          "internalType": "uint16",
          "name": "_packetType",
          "type": "uint16"
        },
        {
          "internalType": "uint256",
          "name": "_minGas",
          "type": "uint256"
        }
      ],
      "name": "setMinDstGas",
      "outputs": [],
      "stateMutability": "nonpayable",
      "type": "function"
    },
    {
      "inputs": [
        {
          "internalType": "uint16",
          "name": "dstChainId",
          "type": "uint16"
        },
        {
          "internalType": "address",
          "name": "oracle",
          "type": "address"
        }
      ],
      "name": "setOracle",
      "outputs": [],
      "stateMutability": "nonpayable",
      "type": "function"
    },
    {
      "inputs": [
        {
          "internalType": "address",
          "name": "_precrime",
          "type": "address"
        }
      ],
      "name": "setPrecrime",
      "outputs": [],
      "stateMutability": "nonpayable",
      "type": "function"
    },
    {
      "inputs": [
        {
          "internalType": "uint16",
          "name": "_version",
          "type": "uint16"
        }
      ],
      "name": "setReceiveVersion",
      "outputs": [],
      "stateMutability": "nonpayable",
      "type": "function"
    },
    {
      "inputs": [
        {
          "internalType": "uint16",
          "name": "_version",
          "type": "uint16"
        }
      ],
      "name": "setSendVersion",
      "outputs": [],
      "stateMutability": "nonpayable",
      "type": "function"
    },
    {
      "inputs": [
        {
          "internalType": "address",
          "name": "_smallSettlement",
          "type": "address"
        }
      ],
      "name": "setSmallSettlement",
      "outputs": [],
      "stateMutability": "nonpayable",
      "type": "function"
    },
    {
      "inputs": [
        {
          "internalType": "address",
          "name": "user_",
          "type": "address"
        },
        {
          "internalType": "uint256",
          "name": "amount_",
          "type": "uint256"
        },
        {
          "internalType": "bool",
          "name": "re_",
          "type": "bool"
        }
      ],
      "name": "setTotalUsdt",
      "outputs": [],
      "stateMutability": "nonpayable",
      "type": "function"
    },
    {
      "inputs": [
        {
          "internalType": "uint16",
          "name": "_srcChainId",
          "type": "uint16"
        },
        {
          "internalType": "bytes",
          "name": "_path",
          "type": "bytes"
        }
      ],
      "name": "setTrustedRemote",
      "outputs": [],
      "stateMutability": "nonpayable",
      "type": "function"
    },
    {
      "inputs": [
        {
          "internalType": "uint16",
          "name": "_remoteChainId",
          "type": "uint16"
        },
        {
          "internalType": "bytes",
          "name": "_remoteAddress",
          "type": "bytes"
        }
      ],
      "name": "setTrustedRemoteAddress",
      "outputs": [],
      "stateMutability": "nonpayable",
      "type": "function"
    },
    {
      "inputs": [
        {
          "internalType": "uint256",
          "name": "time_",
          "type": "uint256"
        }
      ],
      "name": "setWithdrawalTim",
      "outputs": [],
      "stateMutability": "nonpayable",
      "type": "function"
    },
    {
      "inputs": [],
      "name": "smallSettlement",
      "outputs": [
        {
          "internalType": "address",
          "name": "",
          "type": "address"
        }
      ],
      "stateMutability": "view",
      "type": "function"
    },
    {
      "inputs": [],
      "name": "timeLock",
      "outputs": [
        {
          "internalType": "bool",
          "name": "",
          "type": "bool"
        }
      ],
      "stateMutability": "view",
      "type": "function"
    },
    {
      "inputs": [],
      "name": "totalPrincipal",
      "outputs": [
        {
          "internalType": "uint256",
          "name": "",
          "type": "uint256"
        }
      ],
      "stateMutability": "view",
      "type": "function"
    },
    {
      "inputs": [],
      "name": "totalPrincipalBefore",
      "outputs": [
        {
          "internalType": "uint256",
          "name": "",
          "type": "uint256"
        }
      ],
      "stateMutability": "view",
      "type": "function"
    },
    {
      "inputs": [
        {
          "internalType": "address",
          "name": "",
          "type": "address"
        }
      ],
      "name": "totalUsdt",
      "outputs": [
        {
          "internalType": "uint256",
          "name": "",
          "type": "uint256"
        }
      ],
      "stateMutability": "view",
      "type": "function"
    },
    {
      "inputs": [],
      "name": "totalValue",
      "outputs": [
        {
          "internalType": "uint256",
          "name": "",
          "type": "uint256"
        }
      ],
      "stateMutability": "view",
      "type": "function"
    },
    {
      "inputs": [],
      "name": "totalValueBefore",
      "outputs": [
        {
          "internalType": "uint256",
          "name": "",
          "type": "uint256"
        }
      ],
      "stateMutability": "view",
      "type": "function"
    },
    {
      "inputs": [
        {
          "internalType": "address",
          "name": "newOwner",
          "type": "address"
        }
      ],
      "name": "transferOwnership",
      "outputs": [],
      "stateMutability": "nonpayable",
      "type": "function"
    },
    {
      "inputs": [
        {
          "internalType": "uint16",
          "name": "",
          "type": "uint16"
        }
      ],
      "name": "trustedRemoteLookup",
      "outputs": [
        {
          "internalType": "bytes",
          "name": "",
          "type": "bytes"
        }
      ],
      "stateMutability": "view",
      "type": "function"
    },
    {
      "inputs": [],
      "name": "usdt",
      "outputs": [
        {
          "internalType": "address",
          "name": "",
          "type": "address"
        }
      ],
      "stateMutability": "view",
      "type": "function"
    },
    {
      "inputs": [],
      "name": "withdrawalTime",
      "outputs": [
        {
          "internalType": "uint256",
          "name": "",
          "type": "uint256"
        }
      ],
      "stateMutability": "view",
      "type": "function"
    }
  ],
  "bytecode": "0x60a06040523480156200001157600080fd5b50604051620055cc380380620055cc833981016040819052620000349162000135565b848062000041336200009e565b6001600160a01b039081166080526006805495821662010000026001600160b01b031990961661ffff9097169690961794909417909455600c91909155600b8054919092166001600160a01b031990911617905550620001a49050565b600180546001600160a01b0319169055620000c581620000c8602090811b6200365817901c565b50565b600080546001600160a01b038381166001600160a01b0319831681178455604051919092169283917f8be0079c531659141344cd1fd0a4f28419497f9722a3daafe3b4186f6b6457e09190a35050565b80516001600160a01b03811681146200013057600080fd5b919050565b600080600080600060a086880312156200014e57600080fd5b620001598662000118565b9450602086015161ffff811681146200017157600080fd5b9350620001816040870162000118565b925060608601519150620001986080870162000118565b90509295509295909350565b6080516153b16200021b6000396000818161077f015281816109cb01528181610c1a01528181610d2701528181610dc8015281816112960152818161131f015281816117c101528181612f1a0152818161304c01528181613383015281816133b2015281816135990152613e1101526153b16000f3fe6080604052600436106102905760003560e01c80621d35671461029557806307e0db17146102b7578063083118d5146102d75780630eaf6ea61461030257806310ddb1371461032257806314a3db2d14610342578063231fccdf1461036f578063242a700e146103955780632f48ab7d1461039d57806330c593f7146103bd578063389eb9f9146103eb5780633b3f5e361461040f5780633bcfc4b81461042f5780633d8b38f61461044557806342d65a8d14610475578063492e527e146104955780634b1533b2146104b55780634d025bd5146104cb578063504f1671146104eb57806357463d351461050b5780635b8c41e61461054057806363e137c41461058f5780636638ddba146105a557806366ad5c8a146105c55780636d1daa28146105e5578063715018a6146106055780637533d7881461061a57806376e831281461063a57806379ba50971461064d5780638cfd8f5c146106625780638da5cb5b1461069a578063950c8a74146106af5780639f38369a146106cf578063a69e5862146106ef578063a6c3d1651461070f578063a86fc4721461072f578063aaff5f1614610737578063b3318e9f14610757578063b353aaa71461076d578063b3d03e22146107a1578063baf3292d146107c1578063bd40ecab146107e1578063c26a7be1146107f7578063caa648b414610817578063cbed8b9c1461082c578063d085835a1461084c578063d1deba1f14610866578063d4c3eea014610879578063d607a1391461088f578063de45e98d146108bc578063df2a5b3b146108dc578063e2f28824146108fc578063e30c39781461091c578063eb8d72b714610931578063f2fde38b14610951578063f5ecbdbc14610971578063fb89573314610991578063fe4388a8146109b3575b600080fd5b3480156102a157600080fd5b506102b56102b0366004613f01565b6109c8565b005b3480156102c357600080fd5b506102b56102d2366004613f96565b610bf9565b3480156102e357600080fd5b506102ec610c82565b6040516102f99190614003565b60405180910390f35b34801561030e57600080fd5b506102b561031d366004614016565b610d10565b34801561032e57600080fd5b506102b561033d366004613f96565b610da7565b34801561034e57600080fd5b50600754610362906001600160a01b031681565b6040516102f9919061406a565b34801561037b57600080fd5b50600654610362906201000090046001600160a01b031681565b6102b5610dff565b3480156103a957600080fd5b50600b54610362906001600160a01b031681565b3480156103c957600080fd5b506006546103d89061ffff1681565b60405161ffff90911681526020016102f9565b3480156103f757600080fd5b50610401600c5481565b6040519081526020016102f9565b34801561041b57600080fd5b506102b561042a36600461407e565b611190565b34801561043b57600080fd5b50610401600e5481565b34801561045157600080fd5b50610465610460366004614016565b6111ab565b60405190151581526020016102f9565b34801561048157600080fd5b506102b5610490366004614016565b611277565b3480156104a157600080fd5b506102b56104b03660046140b7565b6112fd565b3480156104c157600080fd5b5061040160115481565b3480156104d757600080fd5b506102b56104e63660046140fe565b6113de565b3480156104f757600080fd5b506102ec610506366004614140565b61147a565b34801561051757600080fd5b5061052b610526366004614140565b6117af565b604080519283526020830191909152016102f9565b34801561054c57600080fd5b5061040161055b366004614249565b6005602090815260009384526040808520845180860184018051928152908401958401959095209452929052825290205481565b34801561059b57600080fd5b5061040160125481565b3480156105b157600080fd5b506102b56105c03660046142a8565b611863565b3480156105d157600080fd5b506102b56105e0366004613f01565b61191d565b3480156105f157600080fd5b506102b56106003660046142fb565b6119f9565b34801561061157600080fd5b506102b5611a3f565b34801561062657600080fd5b506102ec610635366004613f96565b611a53565b6102b5610648366004614425565b611a6c565b34801561065957600080fd5b506102b5612551565b34801561066e57600080fd5b5061040161067d366004614535565b600360209081526000928352604080842090915290825290205481565b3480156106a657600080fd5b506103626125cf565b3480156106bb57600080fd5b50600454610362906001600160a01b031681565b3480156106db57600080fd5b506102ec6106ea366004613f96565b6125de565b3480156106fb57600080fd5b506102b561070a366004614140565b6126f4565b34801561071b57600080fd5b506102b561072a366004614016565b61271e565b6102b561279a565b34801561074357600080fd5b506102b5610752366004614563565b612f03565b34801561076357600080fd5b5061040160135481565b34801561077957600080fd5b506103627f000000000000000000000000000000000000000000000000000000000000000081565b3480156107ad57600080fd5b506102b56107bc36600461407e565b612f90565b3480156107cd57600080fd5b506102b56107dc366004614140565b612f9d565b3480156107ed57600080fd5b50610401600d5481565b34801561080357600080fd5b506102b5610812366004614140565b612ffb565b34801561082357600080fd5b50600a54610401565b34801561083857600080fd5b506102b56108473660046145e5565b61302d565b34801561085857600080fd5b506010546104659060ff1681565b6102b5610874366004613f01565b613089565b34801561088557600080fd5b50610401600a5481565b34801561089b57600080fd5b506104016108aa366004614140565b600f6020526000908152604090205481565b3480156108c857600080fd5b506104016108d7366004614646565b61329f565b3480156108e857600080fd5b506102b56108f7366004614664565b6132cc565b34801561090857600080fd5b50610362610917366004613f96565b61337e565b34801561092857600080fd5b506103626134b0565b34801561093d57600080fd5b506102b561094c366004614016565b6134bf565b34801561095d57600080fd5b506102b561096c366004614140565b613519565b34801561097d57600080fd5b506102ec61098c3660046146a5565b61357f565b34801561099d57600080fd5b5061040160008051602061535c83398151915281565b3480156109bf57600080fd5b506102b5613622565b337f00000000000000000000000000000000000000000000000000000000000000006001600160a01b031614610a455760405162461bcd60e51b815260206004820152601e60248201527f4c7a4170703a20696e76616c696420656e64706f696e742063616c6c6572000060448201526064015b60405180910390fd5b61ffff861660009081526002602052604081208054610a63906146f6565b80601f0160208091040260200160405190810160405280929190818152602001828054610a8f906146f6565b8015610adc5780601f10610ab157610100808354040283529160200191610adc565b820191906000526020600020905b815481529060010190602001808311610abf57829003601f168201915b50505050509050805186869050148015610af7575060008151115b8015610b1f575080516020820120604051610b159088908890614730565b6040518091039020145b610b7a5760405162461bcd60e51b815260206004820152602660248201527f4c7a4170703a20696e76616c696420736f757263652073656e64696e6720636f6044820152651b9d1c9858dd60d21b6064820152608401610a3c565b610bf08787878080601f01602080910402602001604051908101604052809392919081815260200183838082843760009201919091525050604080516020601f8a018190048102820181019092528881528a9350915088908890819084018382808284376000920191909152506136a892505050565b50505050505050565b610c01613721565b6040516307e0db1760e01b815261ffff821660048201527f00000000000000000000000000000000000000000000000000000000000000006001600160a01b0316906307e0db17906024015b600060405180830381600087803b158015610c6757600080fd5b505af1158015610c7b573d6000803e3d6000fd5b5050505050565b60088054610c8f906146f6565b80601f0160208091040260200160405190810160405280929190818152602001828054610cbb906146f6565b8015610d085780601f10610cdd57610100808354040283529160200191610d08565b820191906000526020600020905b815481529060010190602001808311610ceb57829003601f168201915b505050505081565b604051630757b75360e11b81526001600160a01b037f00000000000000000000000000000000000000000000000000000000000000001690630eaf6ea690610d6090869086908690600401614769565b602060405180830381865afa158015610d7d573d6000803e3d6000fd5b505050506040513d601f19601f82011682018060405250810190610da19190614787565b50505050565b610daf613721565b6040516310ddb13760e01b815261ffff821660048201527f00000000000000000000000000000000000000000000000000000000000000006001600160a01b0316906310ddb13790602401610c4d565b6000600660029054906101000a90046001600160a01b03166001600160a01b03166331c329e66040518163ffffffff1660e01b8152600401600060405180830381865afa158015610e54573d6000803e3d6000fd5b505050506040513d6000823e601f3d908101601f19168201604052610e7c91908101906147a4565b9050600081516001600160401b03811115610e9957610e9961415d565b604051908082528060200260200182016040528015610ec2578160200160208202803683370190505b50905060005b825181101561111357600660029054906101000a90046001600160a01b03166001600160a01b0316638c232838848381518110610f0757610f0761483d565b60200260200101516040518263ffffffff1660e01b8152600401610f2b919061406a565b602060405180830381865afa158015610f48573d6000803e3d6000fd5b505050506040513d601f19601f82011682018060405250810190610f6c9190614853565b828281518110610f7e57610f7e61483d565b6020908102919091010152600b5483516001600160a01b0390911690849083908110610fac57610fac61483d565b60200260200101516001600160a01b031603611074577f1ce2463c5417ce71f37e02abb72c011ab39589905e499ca06d134682568b5240600a546011546000604051610ffa9392919061486c565b60405180910390a18181815181106110145761101461483d565b6020026020010151600a600082825461102d9190614898565b9091555050600a546011546040517f750bc5f79d9d5a99463e52026090525b4c42d5a0d16c62c5980fbaaa46391bd39261106b92909160009061486c565b60405180910390a15b600660029054906101000a90046001600160a01b03166001600160a01b031663bbb923378483815181106110aa576110aa61483d565b60200260200101516040518263ffffffff1660e01b81526004016110ce919061406a565b600060405180830381600087803b1580156110e857600080fd5b505af11580156110fc573d6000803e3d6000fd5b50505050808061110b906148ab565b915050610ec8565b5060006003838360405160200161112c93929190614938565b60408051601f198184030181529190526006549091506111509061ffff1682613780565b7fd51a4862402dc551924bee41eda320beee768ee1944ce78ffd25e2a1cf29cc2c33848460405161118393929190614970565b60405180910390a1505050565b611198613721565b6111a5620186a082614994565b600e5550565b61ffff8316600090815260026020526040812080548291906111cc906146f6565b80601f01602080910402602001604051908101604052809291908181526020018280546111f8906146f6565b80156112455780601f1061121a57610100808354040283529160200191611245565b820191906000526020600020905b81548152906001019060200180831161122857829003601f168201915b50505050509050838360405161125c929190614730565b60405180910390208180519060200120149150509392505050565b61127f613721565b6040516342d65a8d60e01b81526001600160a01b037f000000000000000000000000000000000000000000000000000000000000000016906342d65a8d906112cf90869086908690600401614769565b600060405180830381600087803b1580156112e957600080fd5b505af1158015610bf0573d6000803e3d6000fd5b611305613721565b6040516304b2b47b60e11b81526006906001600160a01b037f0000000000000000000000000000000000000000000000000000000000000000169063cbed8b9c90829063096568f69061135c90309060040161406a565b602060405180830381865afa158015611379573d6000803e3d6000fd5b505050506040513d601f19601f8201168201806040525081019061139d91906149ab565b8584866040516020016113b0919061406a565b6040516020818303038152906040526040518563ffffffff1660e01b81526004016112cf94939291906149c8565b6006546201000090046001600160a01b0316331461140e5760405162461bcd60e51b8152600401610a3c906149f5565b8015611447576001600160a01b0383166000908152600f60205260408120805484929061143c908490614a21565b909155506114759050565b6001600160a01b0383166000908152600f60205260408120805484929061146f908490614898565b90915550505b505050565b60606000600660029054906101000a90046001600160a01b03166001600160a01b03166331c329e66040518163ffffffff1660e01b8152600401600060405180830381865afa1580156114d1573d6000803e3d6000fd5b505050506040513d6000823e601f3d908101601f191682016040526114f991908101906147a4565b9050600081516001600160401b038111156115165761151661415d565b60405190808252806020026020018201604052801561153f578160200160208202803683370190505b50905060005b825181101561161857600660029054906101000a90046001600160a01b03166001600160a01b0316638c2328388483815181106115845761158461483d565b60200260200101516040518263ffffffff1660e01b81526004016115a8919061406a565b602060405180830381865afa1580156115c5573d6000803e3d6000fd5b505050506040513d601f19601f820116820180604052508101906115e99190614853565b8282815181106115fb576115fb61483d565b602090810291909101015280611610816148ab565b915050611545565b5083600660029054906101000a90046001600160a01b03166001600160a01b0316638dfad5976040518163ffffffff1660e01b8152600401600060405180830381865afa15801561166d573d6000803e3d6000fd5b505050506040513d6000823e601f3d908101601f1916820160405261169591908101906147a4565b600760009054906101000a90046001600160a01b03166001600160a01b0316633a98ef396040518163ffffffff1660e01b8152600401602060405180830381865afa1580156116e8573d6000803e3d6000fd5b505050506040513d601f19601f8201168201806040525081019061170c9190614853565b60075460405163673e156160e11b81526001600160a01b039091169063ce7c2ac29061173c908a9060040161406a565b602060405180830381865afa158015611759573d6000803e3d6000fd5b505050506040513d601f19601f8201168201806040525081019061177d9190614853565b600186866040516020016117979796959493929190614a34565b60405160208183030381529060405292505050919050565b60065460009081906001600160a01b037f000000000000000000000000000000000000000000000000000000000000000016906340a7bb109061ffff16306117f68761147a565b600060086040518663ffffffff1660e01b815260040161181a959493929190614aa1565b6040805180830381865afa158015611836573d6000803e3d6000fd5b505050506040513d601f19601f8201168201806040525081019061185a9190614b5f565b91509150915091565b6006546201000090046001600160a01b031633146118935760405162461bcd60e51b8152600401610a3c906149f5565b80156118db576001600160a01b038085166000908152600960209081526040808320938716835292905290812080548492906118d0908490614a21565b90915550610da19050565b6001600160a01b03808516600090815260096020908152604080832093871683529290529081208054849290611912908490614898565b909155505050505050565b33301461197b5760405162461bcd60e51b815260206004820152602660248201527f4e6f6e626c6f636b696e674c7a4170703a2063616c6c6572206d7573742062656044820152650204c7a4170760d41b6064820152608401610a3c565b6119f18686868080601f01602080910402602001604051908101604052809392919081815260200183838082843760009201919091525050604080516020601f89018190048102820181019092528781528993509150879087908190840183828082843760009201919091525061381d92505050565b505050505050565b611a01613721565b6040516001600160f01b031960f084901b16602082015260228101829052604201604051602081830303815290604052600890816114759190614bde565b611a47613721565b611a516000613aa6565b565b60026020526000908152604090208054610c8f906146f6565b600654604051632474521560e21b8152620100009091046001600160a01b0316906391d1485490611ab19060008051602061535c833981519152903390600401614c97565b602060405180830381865afa158015611ace573d6000803e3d6000fd5b505050506040513d601f19601f82011682018060405250810190611af29190614787565b611b395760405162461bcd60e51b815260206004820152601860248201527727b7363c903737b2329031b0b71031b0b636103a3434b99760411b6044820152606401610a3c565b60065460c083015160e084015160405163b273f20760e01b8152620100009093046001600160a01b0316926391d148549260008051602061535c83398151915292859263b273f20792611b90929091600401614cae565b602060405180830381865afa158015611bad573d6000803e3d6000fd5b505050506040513d601f19601f82011682018060405250810190611bd19190614ccf565b6040518363ffffffff1660e01b8152600401611bee929190614c97565b602060405180830381865afa158015611c0b573d6000803e3d6000fd5b505050506040513d601f19601f82011682018060405250810190611c2f9190614787565b611c765760405162461bcd60e51b8152602060048201526018602482015277546865207369676e6572206973206e6f742061206e6f646560401b6044820152606401610a3c565b8160c00151826000015183602001518460400151856060015186608001518760a00151604051602001611cae96959493929190614cec565b6040516020818303038152906040528051906020012014611d025760405162461bcd60e51b815260206004820152600e60248201526d496e636f7272656374206461746160901b6044820152606401610a3c565b600660029054906101000a90046001600160a01b03166001600160a01b03166347535d7b6040518163ffffffff1660e01b8152600401602060405180830381865afa158015611d55573d6000803e3d6000fd5b505050506040513d601f19601f82011682018060405250810190611d799190614787565b1515600114611db45760405162461bcd60e51b8152602060048201526007602482015266436c6f73696e6760c81b6044820152606401610a3c565b60608260a0015160ff1660010361221c5760005b8360400151518110156121f1576000600660029054906101000a90046001600160a01b03166001600160a01b031663fd5908478787604001518581518110611e1257611e1261483d565b60200260200101516040518363ffffffff1660e01b8152600401611e37929190614d91565b60c060405180830381865afa158015611e54573d6000803e3d6000fd5b505050506040513d601f19601f82011682018060405250810190611e789190614dab565b5050935050505084606001518281518110611e9557611e9561483d565b6020026020010151811015611ee35760405162461bcd60e51b81526020600482015260146024820152734e6f742073756666696369656e742066756e647360601b6044820152606401610a3c565b600b54604086015180516001600160a01b039092169184908110611f0957611f0961483d565b60200260200101516001600160a01b03160361212757600a546011546001600160a01b0388166000908152600f6020526040908190205490517f89967882fcc50e26214fb7273897530ea8f325c86859535ea3610fdcf4963e2293611f71939092909161486c565b60405180910390a1600754606086015180516001600160a01b039092169163c195898a919085908110611fa657611fa661483d565b6020026020010151886040518363ffffffff1660e01b8152600401611fcc929190614c97565b600060405180830381600087803b158015611fe657600080fd5b505af1158015611ffa573d6000803e3d6000fd5b50506011546013555050600a5460125560608501518051839081106120215761202161483d565b6020026020010151600a600082825461203a9190614898565b909155505060608501518051839081106120565761205661483d565b6020026020010151600f6000886001600160a01b03166001600160a01b0316815260200190815260200160002060008282546120929190614898565b909155505060608501518051839081106120ae576120ae61483d565b6020026020010151601160008282546120c79190614898565b9091555050600a546011546001600160a01b0388166000908152600f6020526040908190205490517f3e69ef5705bc4f45ed73031c683f449ae27d43105c7a0021fd25ff5743d22b1d9361211e939092909161486c565b60405180910390a15b600660029054906101000a90046001600160a01b03166001600160a01b03166398ea1f1f87876040015185815181106121625761216261483d565b6020026020010151886060015186815181106121805761218061483d565b60200260200101516000806040518663ffffffff1660e01b81526004016121ab959493929190614dfe565b600060405180830381600087803b1580156121c557600080fd5b505af11580156121d9573d6000803e3d6000fd5b505050505080806121e9906148ab565b915050611dc8565b50600183604051602001612206929190614e2f565b60405160208183030381529060405290506124fe565b601154600a54111561237e576013546012546122389190614898565b6000036122bb57600e54601154620186a0601154600a546122599190614898565b6122639190614994565b61226d9190614ee1565b11156122b65760405162461bcd60e51b81526020600482015260186024820152770746f74616c76616c756520657863657074696f6e616c5f360441b6044820152606401610a3c565b61237e565b6013546012546122cb9190614898565b601154600a546122db9190614898565b1061237e57600e546013546012546122f39190614898565b620186a06013546012546123079190614898565b601154600a546123179190614898565b6123219190614898565b61232b9190614994565b6123359190614ee1565b111561237e5760405162461bcd60e51b8152602060048201526018602482015277746f74616c76616c756520657863657074696f6e616c5f5f60401b6044820152606401610a3c565b600a546011546001600160a01b0386166000908152600f6020526040908190205490517f866ff24f51a1b4d163fc17880bc8e9184b00571d092afdb0d62737391f5c9ef6936123d0939092909161486c565b60405180910390a16007546040516357a2f99160e11b81526000916001600160a01b03169063af45f3229061240990889060040161406a565b6020604051808303816000875af1158015612428573d6000803e3d6000fd5b505050506040513d601f19601f8201168201806040525081019061244c9190614853565b9050600a5460128190555080600a60008282546124699190614898565b9091555050600a546011546001600160a01b0387166000908152600f6020526040908190205490517f9052afbf61d703e8b67c0ebb0670585a2982b56b2aba756bece0acf0962aba83936124c0939092909161486c565b60405180910390a160408051600260208201529081018290526001600160a01b03861660608201526080016040516020818303038152906040529150505b60065461250f9061ffff1682613780565b60a083015160405160ff90911681527f8df7113462e2c7b790883e3b62af36846fb8c60793fff3c74349cc8cabad9d849060200160405180910390a150505050565b338061255b6134b0565b6001600160a01b0316146125c35760405162461bcd60e51b815260206004820152602960248201527f4f776e61626c6532537465703a2063616c6c6572206973206e6f7420746865206044820152683732bb9037bbb732b960b91b6064820152608401610a3c565b6125cc81613aa6565b50565b6000546001600160a01b031690565b61ffff8116600090815260026020526040812080546060929190612601906146f6565b80601f016020809104026020016040519081016040528092919081815260200182805461262d906146f6565b801561267a5780601f1061264f5761010080835404028352916020019161267a565b820191906000526020600020905b81548152906001019060200180831161265d57829003601f168201915b5050505050905080516000036126d25760405162461bcd60e51b815260206004820152601d60248201527f4c7a4170703a206e6f20747275737465642070617468207265636f72640000006044820152606401610a3c565b6126ed6000601483516126e59190614898565b839190613abf565b9392505050565b6126fc613721565b600780546001600160a01b0319166001600160a01b0392909216919091179055565b612726613721565b81813060405160200161273b93929190614f03565b60408051601f1981840301815291815261ffff85166000908152600260205220906127669082614bde565b507f8c0400cfe2d1199b1a725c78960bcc2a344d869b80590d0f2bd005db15a572ce83838360405161118393929190614769565b600080600c54600d54426127ae9190614898565b10156127ed5760405162461bcd60e51b815260206004820152600e60248201526d054696d65206973206e6f742075760941b6044820152606401610a3c565b6000600660029054906101000a90046001600160a01b03166001600160a01b0316638dfad5976040518163ffffffff1660e01b8152600401600060405180830381865afa158015612842573d6000803e3d6000fd5b505050506040513d6000823e601f3d908101601f1916820160405261286a91908101906147a4565b9050600081516001600160401b038111156128875761288761415d565b6040519080825280602002602001820160405280156128b0578160200160208202803683370190505b506007546040516357a2f99160e11b81529192506000916001600160a01b039091169063af45f322906128e790339060040161406a565b6020604051808303816000875af1158015612906573d6000803e3d6000fd5b505050506040513d601f19601f8201168201806040525081019061292a9190614853565b905080600a600082825461293e9190614898565b925050819055506000600660029054906101000a90046001600160a01b03166001600160a01b03166331c329e66040518163ffffffff1660e01b8152600401600060405180830381865afa15801561299a573d6000803e3d6000fd5b505050506040513d6000823e601f3d908101601f191682016040526129c291908101906147a4565b9050600081516001600160401b038111156129df576129df61415d565b604051908082528060200260200182016040528015612a08578160200160208202803683370190505b50905060005b8251811015612c3957600660029054906101000a90046001600160a01b03166001600160a01b0316638c232838848381518110612a4d57612a4d61483d565b60200260200101516040518263ffffffff1660e01b8152600401612a71919061406a565b602060405180830381865afa158015612a8e573d6000803e3d6000fd5b505050506040513d601f19601f82011682018060405250810190612ab29190614853565b828281518110612ac457612ac461483d565b6020908102919091010152600b5483516001600160a01b0390911690849083908110612af257612af261483d565b60200260200101516001600160a01b031603612b9a57600654600b54604051631184650760e31b81526001600160a01b0362010000909304831692638c23283892612b429291169060040161406a565b602060405180830381865afa158015612b5f573d6000803e3d6000fd5b505050506040513d601f19601f82011682018060405250810190612b839190614853565b600a6000828254612b949190614898565b90915550505b600660029054906101000a90046001600160a01b03166001600160a01b031663bbb92337848381518110612bd057612bd061483d565b60200260200101516040518263ffffffff1660e01b8152600401612bf4919061406a565b600060405180830381600087803b158015612c0e57600080fd5b505af1158015612c22573d6000803e3d6000fd5b505050508080612c31906148ab565b915050612a0e565b5060005b8551811015612eab57600660029054906101000a90046001600160a01b03166001600160a01b031663fd59084733888481518110612c7d57612c7d61483d565b60200260200101516040518363ffffffff1660e01b8152600401612ca2929190614d91565b60c060405180830381865afa158015612cbf573d6000803e3d6000fd5b505050506040513d601f19601f82011682018060405250810190612ce39190614dab565b6006548c51939e50909c506201000090046001600160a01b031694506398ea1f1f93503392508a918691508110612d1c57612d1c61483d565b60200260200101518b8b60016040518663ffffffff1660e01b8152600401612d48959493929190614dfe565b600060405180830381600087803b158015612d6257600080fd5b505af1158015612d76573d6000803e3d6000fd5b505050508688612d869190614a21565b858281518110612d9857612d9861483d565b6020908102919091010152600b5486516001600160a01b0390911690879083908110612dc657612dc661483d565b60200260200101516001600160a01b031603612e99576007546001600160a01b031663c195898a612df7898b614a21565b336040518363ffffffff1660e01b8152600401612e15929190614c97565b600060405180830381600087803b158015612e2f57600080fd5b505af1158015612e43573d6000803e3d6000fd5b505050508688612e539190614a21565b600a6000828254612e649190614898565b90915550612e7490508789614a21565b336000908152600f602052604081208054909190612e93908490614898565b90915550505b80612ea3816148ab565b915050612c3d565b506000600433878787604051602001612ec8959493929190614f24565b60408051601f19818403018152919052600654909150612eec9061ffff1682613780565b50506010805460ff19166001179055505050505050565b60405163557faf8b60e11b81526001600160a01b037f0000000000000000000000000000000000000000000000000000000000000000169063aaff5f1690612f579088908890889088908890600401614f76565b600060405180830381600087803b158015612f7157600080fd5b505af1158015612f85573d6000803e3d6000fd5b505050505050505050565b612f98613721565b600c55565b612fa5613721565b600480546001600160a01b0319166001600160a01b0383161790556040517f5db758e995a17ec1ad84bdef7e8c3293a0bd6179bcce400dff5d4c3d87db726b90612ff090839061406a565b60405180910390a150565b613003613721565b600680546001600160a01b03909216620100000262010000600160b01b0319909216919091179055565b613035613721565b6040516332fb62e760e21b81526001600160a01b037f0000000000000000000000000000000000000000000000000000000000000000169063cbed8b9c90612f579088908890889088908890600401614fb3565b61ffff861660009081526005602052604080822090516130ac9088908890614730565b90815260408051602092819003830190206001600160401b0387166000908152925290205490508061312c5760405162461bcd60e51b815260206004820152602360248201527f4e6f6e626c6f636b696e674c7a4170703a206e6f2073746f726564206d65737360448201526261676560e81b6064820152608401610a3c565b80838360405161313d929190614730565b60405180910390201461319c5760405162461bcd60e51b815260206004820152602160248201527f4e6f6e626c6f636b696e674c7a4170703a20696e76616c6964207061796c6f616044820152601960fa1b6064820152608401610a3c565b61ffff871660009081526005602052604080822090516131bf9089908990614730565b90815260408051602092819003830181206001600160401b038916600090815290845282902093909355601f88018290048202830182019052868252613257918991899089908190840183828082843760009201919091525050604080516020601f8a018190048102820181019092528881528a93509150889088908190840183828082843760009201919091525061381d92505050565b7fc264d91f3adc5588250e1551f547752ca0cfa8f6b530d243b9f9f4cab10ea8e5878787878560405161328e959493929190614fe1565b60405180910390a150505050505050565b6001600160a01b038083166000908152600960209081526040808320938516835292905220545b92915050565b6132d4613721565b6000811161331c5760405162461bcd60e51b81526020600482015260156024820152744c7a4170703a20696e76616c6964206d696e47617360581b6044820152606401610a3c565b61ffff83811660008181526003602090815260408083209487168084529482529182902085905581519283528201929092529081018290527f9d5c7c0b934da8fefa9c7760c98383778a12dfbfc0c3b3106518f43fb9508ac090606001611183565b6000807f00000000000000000000000000000000000000000000000000000000000000006001600160a01b031663f5ecbdbc7f00000000000000000000000000000000000000000000000000000000000000006001600160a01b031663096568f6306040518263ffffffff1660e01b81526004016133fc919061406a565b602060405180830381865afa158015613419573d6000803e3d6000fd5b505050506040513d601f19601f8201168201806040525081019061343d91906149ab565b853060066040518563ffffffff1660e01b8152600401613460949392919061501c565b600060405180830381865afa15801561347d573d6000803e3d6000fd5b505050506040513d6000823e601f3d908101601f191682016040526134a59190810190615049565b602001519392505050565b6001546001600160a01b031690565b6134c7613721565b61ffff831660009081526002602052604090206134e58284836150b6565b507ffa41487ad5d6728f0b19276fa1eddc16558578f5109fc39d2dc33c3230470dab83838360405161118393929190614769565b613521613721565b600180546001600160a01b0319166001600160a01b0383169081179091556135476125cf565b6001600160a01b03167f38d16b8cac22d99fc7c124b9cd0de2d3fa1faef420bfe791d8c362d765e2270060405160405180910390a350565b604051633d7b2f6f60e21b81526060906001600160a01b037f0000000000000000000000000000000000000000000000000000000000000000169063f5ecbdbc906135d490889088903090889060040161501c565b600060405180830381865afa1580156135f1573d6000803e3d6000fd5b505050506040513d6000823e601f3d908101601f191682016040526136199190810190615049565b95945050505050565b6006546201000090046001600160a01b031633146136525760405162461bcd60e51b8152600401610a3c906149f5565b42600d55565b600080546001600160a01b038381166001600160a01b0319831681178455604051919092169283917f8be0079c531659141344cd1fd0a4f28419497f9722a3daafe3b4186f6b6457e09190a35050565b60008061370b5a60966366ad5c8a60e01b898989896040516024016136d0949392919061516f565b60408051601f198184030181529190526020810180516001600160e01b03166001600160e01b03199093169290921790915230929190613bcc565b91509150816119f1576119f18686868685613c56565b3361372a6125cf565b6001600160a01b031614611a515760405162461bcd60e51b815260206004820181905260248201527f4f776e61626c653a2063616c6c6572206973206e6f7420746865206f776e65726044820152606401610a3c565b613819828233600060088054613795906146f6565b80601f01602080910402602001604051908101604052809291908181526020018280546137c1906146f6565b801561380e5780601f106137e35761010080835404028352916020019161380e565b820191906000526020600020905b8154815290600101906020018083116137f157829003601f168201915b505050505034613cf3565b5050565b6000806000806000808680602001905181019061383a91906151ad565b9550955095509550955095507f91db11fc62546c31d72b4b92821c4cbecc8f65b09674d57185ef5233cf05678c600a54601154600f60008a6001600160a01b03166001600160a01b03168152602001908152602001600020546040516138a29392919061486c565b60405180910390a1821561397a5760018260048111156138c4576138c4615224565b0361397a57600754604051630529325160e01b81526001600160a01b03909116906305293251906138fb9087908a90600401614c97565b600060405180830381600087803b15801561391557600080fd5b505af1158015613929573d6000803e3d6000fd5b505050506001600160a01b0386166000908152600f602052604081208054869290613955908490614a21565b9091555050601180546013819055859190600090613974908490614a21565b90915550505b600182600481111561398e5761398e615224565b14806139ab575060028260048111156139a9576139a9615224565b145b156139ed576001600160a01b038087166000908152600960209081526040808320938916835292905290812080548692906139e7908490614a21565b90915550505b600a54601255601154613a01908290614a21565b600a8190556011546001600160a01b0388166000908152600f6020526040908190205490517f9b4a31952dfcd991547ac8733bc0bd9bc61ceb5cbe5ffe1562fc3f9533fa41a793613a55939092909161486c565b60405180910390a17f1e88e0a70763853f0d09394c28bdadb4afe52d5c71d53f777b655a82fd2210f785858885604051613a92949392919061523a565b60405180910390a150505050505050505050565b600180546001600160a01b03191690556125cc81613658565b606081613acd81601f614a21565b1015613b0c5760405162461bcd60e51b815260206004820152600e60248201526d736c6963655f6f766572666c6f7760901b6044820152606401610a3c565b613b168284614a21565b84511015613b5a5760405162461bcd60e51b8152602060048201526011602482015270736c6963655f6f75744f66426f756e647360781b6044820152606401610a3c565b606082158015613b795760405191506000825260208201604052613bc3565b6040519150601f8416801560200281840101858101878315602002848b0101015b81831015613bb2578051835260209283019201613b9a565b5050858452601f01601f1916604052505b50949350505050565b6000606060008060008661ffff166001600160401b03811115613bf157613bf161415d565b6040519080825280601f01601f191660200182016040528015613c1b576020820181803683370190505b50905060008087516020890160008d8df191503d925086831115613c3d578692505b828152826000602083013e909890975095505050505050565b8180519060200120600560008761ffff1661ffff16815260200190815260200160002085604051613c879190615286565b9081526040805191829003602090810183206001600160401b0388166000908152915220919091557fe183f33de2837795525b4792ca4cd60535bd77c53b7e7030060bfcf5734d6b0c90613ce490879087908790879087906152a2565b60405180910390a15050505050565b61ffff861660009081526002602052604081208054613d11906146f6565b80601f0160208091040260200160405190810160405280929190818152602001828054613d3d906146f6565b8015613d8a5780601f10613d5f57610100808354040283529160200191613d8a565b820191906000526020600020905b815481529060010190602001808311613d6d57829003601f168201915b505050505090508051600003613dfb5760405162461bcd60e51b815260206004820152603060248201527f4c7a4170703a2064657374696e6174696f6e20636861696e206973206e6f742060448201526f61207472757374656420736f7572636560801b6064820152608401610a3c565b60405162c5803160e81b81526001600160a01b037f0000000000000000000000000000000000000000000000000000000000000000169063c5803100908490613e52908b9086908c908c908c908c906004016152f4565b6000604051808303818588803b158015613e6b57600080fd5b505af1158015613e7f573d6000803e3d6000fd5b505050505050505050505050565b61ffff811681146125cc57600080fd5b60008083601f840112613eaf57600080fd5b5081356001600160401b03811115613ec657600080fd5b602083019150836020828501011115613ede57600080fd5b9250929050565b80356001600160401b0381168114613efc57600080fd5b919050565b60008060008060008060808789031215613f1a57600080fd5b8635613f2581613e8d565b955060208701356001600160401b0380821115613f4157600080fd5b613f4d8a838b01613e9d565b9097509550859150613f6160408a01613ee5565b94506060890135915080821115613f7757600080fd5b50613f8489828a01613e9d565b979a9699509497509295939492505050565b600060208284031215613fa857600080fd5b81356126ed81613e8d565b60005b83811015613fce578181015183820152602001613fb6565b50506000910152565b60008151808452613fef816020860160208601613fb3565b601f01601f19169290920160200192915050565b6020815260006126ed6020830184613fd7565b60008060006040848603121561402b57600080fd5b833561403681613e8d565b925060208401356001600160401b0381111561405157600080fd5b61405d86828701613e9d565b9497909650939450505050565b6001600160a01b0391909116815260200190565b60006020828403121561409057600080fd5b5035919050565b6001600160a01b03811681146125cc57600080fd5b8035613efc81614097565b600080604083850312156140ca57600080fd5b82356140d581613e8d565b915060208301356140e581614097565b809150509250929050565b80151581146125cc57600080fd5b60008060006060848603121561411357600080fd5b833561411e81614097565b9250602084013591506040840135614135816140f0565b809150509250925092565b60006020828403121561415257600080fd5b81356126ed81614097565b634e487b7160e01b600052604160045260246000fd5b60405161010081016001600160401b03811182821017156141965761419661415d565b60405290565b604051601f8201601f191681016001600160401b03811182821017156141c4576141c461415d565b604052919050565b60006001600160401b038211156141e5576141e561415d565b50601f01601f191660200190565b600082601f83011261420457600080fd5b8135614217614212826141cc565b61419c565b81815284602083860101111561422c57600080fd5b816020850160208301376000918101602001919091529392505050565b60008060006060848603121561425e57600080fd5b833561426981613e8d565b925060208401356001600160401b0381111561428457600080fd5b614290868287016141f3565b92505061429f60408501613ee5565b90509250925092565b600080600080608085870312156142be57600080fd5b84356142c981614097565b935060208501356142d981614097565b92506040850135915060608501356142f0816140f0565b939692955090935050565b6000806040838503121561430e57600080fd5b823561431981613e8d565b946020939093013593505050565b60006001600160401b038211156143405761434061415d565b5060051b60200190565b600082601f83011261435b57600080fd5b8135602061436b61421283614327565b82815260059290921b8401810191818101908684111561438a57600080fd5b8286015b848110156143ae5780356143a181614097565b835291830191830161438e565b509695505050505050565b600082601f8301126143ca57600080fd5b813560206143da61421283614327565b82815260059290921b840181019181810190868411156143f957600080fd5b8286015b848110156143ae57803583529183019183016143fd565b803560ff81168114613efc57600080fd5b60008060006060848603121561443a57600080fd5b833561444581614097565b925060208401356001600160401b038082111561446157600080fd5b90850190610100828803121561447657600080fd5b61447e614173565b614487836140ac565b8152602083013560208201526040830135828111156144a557600080fd5b6144b18982860161434a565b6040830152506060830135828111156144c957600080fd5b6144d5898286016143b9565b606083015250608083013560808201526144f160a08401614414565b60a082015260c083013560c082015260e08301358281111561451257600080fd5b61451e898286016141f3565b60e083015250935061429f915050604085016140ac565b6000806040838503121561454857600080fd5b823561455381613e8d565b915060208301356140e581613e8d565b60008060008060006060868803121561457b57600080fd5b853561458681613e8d565b945060208601356001600160401b03808211156145a257600080fd5b6145ae89838a01613e9d565b909650945060408801359150808211156145c757600080fd5b506145d488828901613e9d565b969995985093965092949392505050565b6000806000806000608086880312156145fd57600080fd5b853561460881613e8d565b9450602086013561461881613e8d565b93506040860135925060608601356001600160401b0381111561463a57600080fd5b6145d488828901613e9d565b6000806040838503121561465957600080fd5b82356140d581614097565b60008060006060848603121561467957600080fd5b833561468481613e8d565b9250602084013561469481613e8d565b929592945050506040919091013590565b600080600080608085870312156146bb57600080fd5b84356146c681613e8d565b935060208501356146d681613e8d565b925060408501356146e681614097565b9396929550929360600135925050565b600181811c9082168061470a57607f821691505b60208210810361472a57634e487b7160e01b600052602260045260246000fd5b50919050565b8183823760009101908152919050565b81835281816020850137506000828201602090810191909152601f909101601f19169091010190565b61ffff84168152604060208201526000613619604083018486614740565b60006020828403121561479957600080fd5b81516126ed816140f0565b600060208083850312156147b757600080fd5b82516001600160401b038111156147cd57600080fd5b8301601f810185136147de57600080fd5b80516147ec61421282614327565b81815260059190911b8201830190838101908783111561480b57600080fd5b928401925b8284101561483257835161482381614097565b82529284019290840190614810565b979650505050505050565b634e487b7160e01b600052603260045260246000fd5b60006020828403121561486557600080fd5b5051919050565b9283526020830191909152604082015260600190565b634e487b7160e01b600052601160045260246000fd5b818103818111156132c6576132c6614882565b6000600182016148bd576148bd614882565b5060010190565b600081518084526020808501945080840160005b838110156148fd5781516001600160a01b0316875295820195908201906001016148d8565b509495945050505050565b600081518084526020808501945080840160005b838110156148fd5781518752958201959082019060010161491c565b60ff8416815260606020820152600061495460608301856148c4565b82810360408401526149668185614908565b9695505050505050565b6001600160a01b0384168152606060208201819052600090614954908301856148c4565b80820281158282048414176132c6576132c6614882565b6000602082840312156149bd57600080fd5b81516126ed81613e8d565b600061ffff8087168352808616602084015250836040830152608060608301526149666080830184613fd7565b6020808252601290820152711b9bc81cdb585b1b14d95d1d1b195b595b9d60721b604082015260600190565b808201808211156132c6576132c6614882565b6001600160a01b038816815260e060208201819052600090614a58908301896148c4565b87604084015286606084015260ff8616608084015282810360a0840152614a7f81866148c4565b905082810360c0840152614a938185614908565b9a9950505050505050505050565b61ffff861681526000602060018060a01b0387168184015260a06040840152614acd60a0840187613fd7565b8515156060850152838103608085015260008554614aea816146f6565b80845260018281168015614b055760018114614b1f57614b4d565b60ff1984168688015282151560051b860187019450614b4d565b896000528660002060005b84811015614b455781548882018a0152908301908801614b2a565b870188019550505b50929c9b505050505050505050505050565b60008060408385031215614b7257600080fd5b505080516020909101519092909150565b601f82111561147557600081815260208120601f850160051c81016020861015614baa5750805b601f850160051c820191505b818110156119f157828155600101614bb6565b600019600383901b1c191660019190911b1790565b81516001600160401b03811115614bf757614bf761415d565b614c0b81614c0584546146f6565b84614b83565b602080601f831160018114614c3a5760008415614c285750858301515b614c328582614bc9565b8655506119f1565b600085815260208120601f198616915b82811015614c6957888601518255948401946001909101908401614c4a565b5085821015614c875787850151600019600388901b60f8161c191681555b5050505050600190811b01905550565b9182526001600160a01b0316602082015260400190565b828152604060208201526000614cc76040830184613fd7565b949350505050565b600060208284031215614ce157600080fd5b81516126ed81614097565b606087901b6001600160601b031916815260148101869052845160009060348301906020808901845b83811015614d3a5781516001600160a01b031685529382019390820190600101614d15565b5050875181890193925060005b81811015614d6357845184529382019392820192600101614d47565b5050868252614d808183018760f81b6001600160f81b0319169052565b506021019998505050505050505050565b6001600160a01b0392831681529116602082015260400190565b60008060008060008060c08789031215614dc457600080fd5b8651614dcf81614097565b6020880151604089015160608a015160808b015160a0909b0151939c929b509099909850965090945092505050565b6001600160a01b03958616815293909416602084015260408301919091526060820152901515608082015260a00190565b60ff8316815260406020820152614e526040820183516001600160a01b03169052565b6020820151606082015260006040830151610100806080850152614e7a6101408501836148c4565b91506060850151603f19808685030160a0870152614e988483614908565b9350608087015160c087015260a08701519150614eba60e087018360ff169052565b60c08701518387015260e08701519250808685030161012087015250506149668282613fd7565b600082614efe57634e487b7160e01b600052601260045260246000fd5b500490565b8284823760609190911b6001600160601b0319169101908152601401919050565b60ff861681526001600160a01b038516602082015260a060408201819052600090614f51908301866148c4565b8281036060840152614f638186614908565b9150508260808301529695505050505050565b61ffff86168152606060208201526000614f94606083018688614740565b8281036040840152614fa7818587614740565b98975050505050505050565b600061ffff808816835280871660208401525084604083015260806060830152614832608083018486614740565b61ffff86168152608060208201526000614fff608083018688614740565b6001600160401b0394909416604083015250606001529392505050565b61ffff94851681529290931660208301526001600160a01b03166040820152606081019190915260800190565b60006020828403121561505b57600080fd5b81516001600160401b0381111561507157600080fd5b8201601f8101841361508257600080fd5b8051615090614212826141cc565b8181528560208385010111156150a557600080fd5b613619826020830160208601613fb3565b6001600160401b038311156150cd576150cd61415d565b6150e1836150db83546146f6565b83614b83565b6000601f84116001811461510f57600085156150fd5750838201355b6151078682614bc9565b845550610c7b565b600083815260209020601f19861690835b828110156151405786850135825560209485019460019092019101615120565b508682101561515d5760001960f88860031b161c19848701351681555b505060018560011b0183555050505050565b61ffff8516815260806020820152600061518c6080830186613fd7565b6001600160401b038516604084015282810360608401526148328185613fd7565b60008060008060008060c087890312156151c657600080fd5b86516151d181614097565b60208801519096506151e281614097565b6040880151606089015191965094506151fa816140f0565b60808801519093506005811061520f57600080fd5b8092505060a087015190509295509295509295565b634e487b7160e01b600052602160045260246000fd5b6001600160a01b0385811682526020820185905283166040820152608081016005831061527757634e487b7160e01b600052602160045260246000fd5b82606083015295945050505050565b60008251615298818460208701613fb3565b9190910192915050565b61ffff8616815260a0602082015260006152bf60a0830187613fd7565b6001600160401b038616604084015282810360608401526152e08186613fd7565b90508281036080840152614fa78185613fd7565b61ffff8716815260c06020820152600061531160c0830188613fd7565b82810360408401526153238188613fd7565b6001600160a01b0387811660608601528616608085015283810360a0850152905061534e8185613fd7565b999850505050505050505056fe57c872046f094b8a493ec5eb6ea374eafbc3c05951e40de3c4302a41f3f127baa2646970667358221220dd3dac285eb683f9f2d4c364dcdb7aca504c2aae917b8522e0a59935d7dde4e964736f6c63430008110033",
  "linkReferences": {},
  "deployedLinkReferences": {}
}