{
	"data": {
		"bytecode": {
			"linkReferences": {
				"contracts/L2/tool.sol": {
					"tool": [
						{
							"length": 20,
							"start": 10203
						},
						{
							"length": 20,
							"start": 12701
						},
						{
							"length": 20,
							"start": 13002
						},
						{
							"length": 20,
							"start": 19575
						},
						{
							"length": 20,
							"start": 19775
						},
						{
							"length": 20,
							"start": 21622
						},
						{
							"length": 20,
							"start": 21822
						},
						{
							"length": 20,
							"start": 24938
						},
						{
							"length": 20,
							"start": 25111
						},
						{
							"length": 20,
							"start": 25389
						},
						{
							"length": 20,
							"start": 25562
						}
					]
				}
			},
			"object": "60a0604052620186a06010553480156200001857600080fd5b506040516200a1233803806200a12383398181016040528101906200003e919062000386565b818062000060620000546200010860201b60201c565b6200011060201b60201c565b8073ffffffffffffffffffffffffffffffffffffffff1660808173ffffffffffffffffffffffffffffffffffffffff1681525050505080600760006101000a81548161ffff021916908361ffff160217905550620000e57f52941335797217779ab62cf10a3ae2b6d453b5f3a1285e7a816eb9f63a58d66933620001d460201b60201c565b6001600760026101000a81548160ff0219169083151502179055505050620003cd565b600033905090565b60008060009054906101000a900473ffffffffffffffffffffffffffffffffffffffff169050816000806101000a81548173ffffffffffffffffffffffffffffffffffffffff021916908373ffffffffffffffffffffffffffffffffffffffff1602179055508173ffffffffffffffffffffffffffffffffffffffff168173ffffffffffffffffffffffffffffffffffffffff167f8be0079c531659141344cd1fd0a4f28419497f9722a3daafe3b4186f6b6457e060405160405180910390a35050565b620001e68282620001ea60201b60201c565b5050565b620001fc82826200027260201b60201c565b6200026e5760016011600084815260200190815260200160002060000160008373ffffffffffffffffffffffffffffffffffffffff1673ffffffffffffffffffffffffffffffffffffffff16815260200190815260200160002060006101000a81548160ff0219169083151502179055505b5050565b60006011600084815260200190815260200160002060000160008373ffffffffffffffffffffffffffffffffffffffff1673ffffffffffffffffffffffffffffffffffffffff16815260200190815260200160002060009054906101000a900460ff16905092915050565b600080fd5b600073ffffffffffffffffffffffffffffffffffffffff82169050919050565b60006200030f82620002e2565b9050919050565b620003218162000302565b81146200032d57600080fd5b50565b600081519050620003418162000316565b92915050565b600061ffff82169050919050565b620003608162000347565b81146200036c57600080fd5b50565b600081519050620003808162000355565b92915050565b60008060408385031215620003a0576200039f620002dd565b5b6000620003b08582860162000330565b9250506020620003c3858286016200036f565b9150509250929050565b608051619ce66200043d60003960008181610e83015281816110e10152818161122a01528181611872015281816119270152818161196301528181611e7101528181612b990152818161349f015281816138e60152818161392201528181613b2c01526162ee0152619ce66000f3fe6080604052600436106103755760003560e01c8063950c8a74116101d1578063cbed8b9c11610102578063e2f28824116100a0578063f9cad2ac1161006f578063f9cad2ac14610d9b578063fb89573314610dd8578063fd59084714610e03578063ff464d3f14610e4457610375565b8063e2f2882414610ccf578063eb8d72b714610d0c578063f2fde38b14610d35578063f5ecbdbc14610d5e57610375565b8063d1deba1f116100dc578063d1deba1f14610c24578063de45e98d14610c40578063df2a5b3b14610c7d578063e251e96d14610ca657610375565b8063cbed8b9c14610b81578063ce5c8e1414610baa578063ce7c2ac214610be757610375565b8063b212c8d31161016f578063b886dbcd11610149578063b886dbcd14610ab5578063baf3292d14610af2578063bd99d7e114610b1b578063bfef22ac14610b5857610375565b8063b212c8d314610a38578063b353aaa714610a61578063b616175414610a8c57610375565b80639f38369a116101ab5780639f38369a1461097e578063a217fddf146109bb578063a304dcf4146109e6578063a6c3d16514610a0f57610375565b8063950c8a74146108fa5780639d3089f5146109255780639ed467051461096257610375565b80634efa685a116102ab5780636cadcbd9116102495780637533d788116102235780637533d788146108185780638cfd8f5c146108555780638da5cb5b1461089257806391d14854146108bd57610375565b80636cadcbd91461079b5780636d1daa28146107d8578063715018a61461080157610375565b806357463d351161028557806357463d35146106b65780635b8c41e6146106f45780635e5c06e21461073157806366ad5c8a1461077257610375565b80634efa685a146105ff57806350414c351461063c578063504f16711461067957610375565b806330c593f7116103185780633d8b38f6116102f25780633d8b38f61461054557806342d65a8d1461058257806347535d7b146105ab578063492e527e146105d657610375565b806330c593f7146104b257806338266b22146104dd5780633a98ef391461051a57610375565b8063085a10cf11610354578063085a10cf146103f757806310ddb1371461042057806319fc2e61146104495780632d0335ab1461047457610375565b80621d35671461037a57806307e0db17146103a3578063083118d5146103cc575b600080fd5b34801561038657600080fd5b506103a1600480360381019061039c9190616791565b610e81565b005b3480156103af57600080fd5b506103ca60048036038101906103c59190616838565b6110d7565b005b3480156103d857600080fd5b506103e161116d565b6040516103ee91906168f5565b60405180910390f35b34801561040357600080fd5b5061041e6004803603810190610419919061694f565b6111fb565b005b34801561042c57600080fd5b5061044760048036038101906104429190616838565b611220565b005b34801561045557600080fd5b5061045e6112b6565b60405161046b9190616995565b60405180910390f35b34801561048057600080fd5b5061049b60048036038101906104969190616a0e565b6112da565b6040516104a9929190616a54565b60405180910390f35b3480156104be57600080fd5b506104c7611334565b6040516104d49190616a8c565b60405180910390f35b3480156104e957600080fd5b5061050460048036038101906104ff9190616a0e565b611348565b6040516105119190616d05565b60405180910390f35b34801561052657600080fd5b5061052f61178e565b60405161053c9190616d27565b60405180910390f35b34801561055157600080fd5b5061056c60048036038101906105679190616d42565b611794565b6040516105799190616db1565b60405180910390f35b34801561058e57600080fd5b506105a960048036038101906105a49190616d42565b611868565b005b3480156105b757600080fd5b506105c0611904565b6040516105cd9190616db1565b60405180910390f35b3480156105e257600080fd5b506105fd60048036038101906105f89190616dcc565b611917565b005b34801561060b57600080fd5b5061062660048036038101906106219190616e0c565b611a73565b6040516106339190616d27565b60405180910390f35b34801561064857600080fd5b50610663600480360381019061065e9190616e78565b611a98565b6040516106709190616eb4565b60405180910390f35b34801561068557600080fd5b506106a0600480360381019061069b9190616a0e565b611ad7565b6040516106ad91906168f5565b60405180910390f35b3480156106c257600080fd5b506106dd60048036038101906106d89190616a0e565b611e6c565b6040516106eb929190616a54565b60405180910390f35b34801561070057600080fd5b5061071b60048036038101906107169190616fff565b611f33565b6040516107289190616995565b60405180910390f35b34801561073d57600080fd5b5061075860048036038101906107539190616a0e565b611f7b565b60405161076995949392919061706e565b60405180910390f35b34801561077e57600080fd5b5061079960048036038101906107949190616791565b611fd1565b005b3480156107a757600080fd5b506107c260048036038101906107bd91906170c1565b6120e2565b6040516107cf9190616995565b60405180910390f35b3480156107e457600080fd5b506107ff60048036038101906107fa9190617101565b612113565b005b34801561080d57600080fd5b50610816612150565b005b34801561082457600080fd5b5061083f600480360381019061083a9190616838565b612164565b60405161084c91906168f5565b60405180910390f35b34801561086157600080fd5b5061087c60048036038101906108779190617141565b612204565b6040516108899190616d27565b60405180910390f35b34801561089e57600080fd5b506108a7612229565b6040516108b49190616eb4565b60405180910390f35b3480156108c957600080fd5b506108e460048036038101906108df91906171ad565b612252565b6040516108f19190616db1565b60405180910390f35b34801561090657600080fd5b5061090f6122bd565b60405161091c9190616eb4565b60405180910390f35b34801561093157600080fd5b5061094c60048036038101906109479190616e0c565b6122e3565b6040516109599190616d27565b60405180910390f35b61097c600480360381019061097791906174f9565b612308565b005b34801561098a57600080fd5b506109a560048036038101906109a09190616838565b612781565b6040516109b291906168f5565b60405180910390f35b3480156109c757600080fd5b506109d061289a565b6040516109dd9190616995565b60405180910390f35b3480156109f257600080fd5b50610a0d6004803603810190610a089190617555565b6128a1565b005b348015610a1b57600080fd5b50610a366004803603810190610a319190616d42565b612904565b005b348015610a4457600080fd5b50610a5f6004803603810190610a5a9190617975565b612998565b005b348015610a6d57600080fd5b50610a76612b97565b604051610a839190617a30565b60405180910390f35b348015610a9857600080fd5b50610ab36004803603810190610aae9190617555565b612bbb565b005b348015610ac157600080fd5b50610adc6004803603810190610ad79190616e0c565b612c53565b604051610ae99190616d27565b60405180910390f35b348015610afe57600080fd5b50610b196004803603810190610b149190616a0e565b612c78565b005b348015610b2757600080fd5b50610b426004803603810190610b3d9190617a4b565b612cfb565b604051610b4f9190616995565b60405180910390f35b348015610b6457600080fd5b50610b7f6004803603810190610b7a9190617bb2565b612d19565b005b348015610b8d57600080fd5b50610ba86004803603810190610ba39190617bfb565b613495565b005b348015610bb657600080fd5b50610bd16004803603810190610bcc91906170c1565b613537565b604051610bde9190616995565b60405180910390f35b348015610bf357600080fd5b50610c0e6004803603810190610c099190616a0e565b613568565b604051610c1b9190616d27565b60405180910390f35b610c3e6004803603810190610c399190616791565b613580565b005b348015610c4c57600080fd5b50610c676004803603810190610c629190616e0c565b6137c3565b604051610c749190616d27565b60405180910390f35b348015610c8957600080fd5b50610ca46004803603810190610c9f9190617c83565b6137e8565b005b348015610cb257600080fd5b50610ccd6004803603810190610cc89190616a0e565b6138ac565b005b348015610cdb57600080fd5b50610cf66004803603810190610cf19190616838565b6138e1565b604051610d039190616eb4565b60405180910390f35b348015610d1857600080fd5b50610d336004803603810190610d2e9190616d42565b613a32565b005b348015610d4157600080fd5b50610d5c6004803603810190610d579190616a0e565b613aa5565b005b348015610d6a57600080fd5b50610d856004803603810190610d809190617cd6565b613b28565b604051610d9291906168f5565b60405180910390f35b348015610da757600080fd5b50610dc26004803603810190610dbd9190616e0c565b613bd9565b604051610dcf9190616db1565b60405180910390f35b348015610de457600080fd5b50610ded613c08565b604051610dfa9190616995565b60405180910390f35b348015610e0f57600080fd5b50610e2a6004803603810190610e259190616e0c565b613c2c565b604051610e3b959493929190617d3d565b60405180910390f35b348015610e5057600080fd5b50610e6b6004803603810190610e669190616a0e565b613d1a565b604051610e789190616db1565b60405180910390f35b7f000000000000000000000000000000000000000000000000000000000000000073ffffffffffffffffffffffffffffffffffffffff16610ec0613d3a565b73ffffffffffffffffffffffffffffffffffffffff1614610f16576040517f08c379a0000000000000000000000000000000000000000000000000000000008152600401610f0d90617ded565b60405180910390fd5b6000600160008861ffff1661ffff1681526020019081526020016000208054610f3e90617e3c565b80601f0160208091040260200160405190810160405280929190818152602001828054610f6a90617e3c565b8015610fb75780601f10610f8c57610100808354040283529160200191610fb7565b820191906000526020600020905b815481529060010190602001808311610f9a57829003601f168201915b50505050509050805186869050148015610fd2575060008151115b8015610ffb575080805190602001208686604051610ff1929190617e9d565b6040518091039020145b61103a576040517f08c379a000000000000000000000000000000000000000000000000000000000815260040161103190617f28565b60405180910390fd5b6110ce8787878080601f016020809104026020016040519081016040528093929190818152602001838380828437600081840152601f19601f820116905080830192505050505050508686868080601f016020809104026020016040519081016040528093929190818152602001838380828437600081840152601f19601f82011690508083019250505050505050613d42565b50505050505050565b6110df613e0d565b7f000000000000000000000000000000000000000000000000000000000000000073ffffffffffffffffffffffffffffffffffffffff166307e0db17826040518263ffffffff1660e01b81526004016111389190616a8c565b600060405180830381600087803b15801561115257600080fd5b505af1158015611166573d6000803e3d6000fd5b5050505050565b600a805461117a90617e3c565b80601f01602080910402602001604051908101604052809291908181526020018280546111a690617e3c565b80156111f35780601f106111c8576101008083540402835291602001916111f3565b820191906000526020600020905b8154815290600101906020018083116111d657829003601f168201915b505050505081565b611203613e0d565b80600760026101000a81548160ff02191690831515021790555050565b611228613e0d565b7f000000000000000000000000000000000000000000000000000000000000000073ffffffffffffffffffffffffffffffffffffffff166310ddb137826040518263ffffffff1660e01b81526004016112819190616a8c565b600060405180830381600087803b15801561129b57600080fd5b505af11580156112af573d6000803e3d6000fd5b5050505050565b7f52941335797217779ab62cf10a3ae2b6d453b5f3a1285e7a816eb9f63a58d66981565b6000806000601360008573ffffffffffffffffffffffffffffffffffffffff1673ffffffffffffffffffffffffffffffffffffffff1681526020019081526020016000209050806003015481600601549250925050915091565b600760009054906101000a900461ffff1681565b611350616636565b600060088054905067ffffffffffffffff81111561137157611370616ed4565b5b60405190808252806020026020018201604052801561139f5781602001602082028036833780820191505090505b509050600060088054905067ffffffffffffffff8111156113c3576113c2616ed4565b5b6040519080825280602002602001820160405280156113f15781602001602082028036833780820191505090505b50905060008061140086611e6c565b9150915060005b6008805490508110156115e157601360008873ffffffffffffffffffffffffffffffffffffffff1673ffffffffffffffffffffffffffffffffffffffff16815260200190815260200160002060020160006008838154811061146c5761146b617f48565b5b9060005260206000200160009054906101000a900473ffffffffffffffffffffffffffffffffffffffff1673ffffffffffffffffffffffffffffffffffffffff1673ffffffffffffffffffffffffffffffffffffffff168152602001908152602001600020548582815181106114e5576114e4617f48565b5b602002602001018181525050601360008873ffffffffffffffffffffffffffffffffffffffff1673ffffffffffffffffffffffffffffffffffffffff16815260200190815260200160002060050160006008838154811061154957611548617f48565b5b9060005260206000200160009054906101000a900473ffffffffffffffffffffffffffffffffffffffff1673ffffffffffffffffffffffffffffffffffffffff1673ffffffffffffffffffffffffffffffffffffffff168152602001908152602001600020548482815181106115c2576115c1617f48565b5b60200260200101818152505080806115d990617fa6565b915050611407565b506040518061012001604052808773ffffffffffffffffffffffffffffffffffffffff168152602001601360008973ffffffffffffffffffffffffffffffffffffffff1673ffffffffffffffffffffffffffffffffffffffff168152602001908152602001600020600101548152602001601360008973ffffffffffffffffffffffffffffffffffffffff1673ffffffffffffffffffffffffffffffffffffffff168152602001908152602001600020600401548152602001600880548060200260200160405190810160405280929190818152602001828054801561171c57602002820191906000526020600020905b8160009054906101000a900473ffffffffffffffffffffffffffffffffffffffff1673ffffffffffffffffffffffffffffffffffffffff16815260200190600101908083116116d2575b50505050508152602001858152602001600b548152602001600c60008973ffffffffffffffffffffffffffffffffffffffff1673ffffffffffffffffffffffffffffffffffffffff16815260200190815260200160002054815260200184815260200183815250945050505050919050565b600b5481565b600080600160008661ffff1661ffff16815260200190815260200160002080546117bd90617e3c565b80601f01602080910402602001604051908101604052809291908181526020018280546117e990617e3c565b80156118365780601f1061180b57610100808354040283529160200191611836565b820191906000526020600020905b81548152906001019060200180831161181957829003601f168201915b50505050509050838360405161184d929190617e9d565b60405180910390208180519060200120149150509392505050565b611870613e0d565b7f000000000000000000000000000000000000000000000000000000000000000073ffffffffffffffffffffffffffffffffffffffff166342d65a8d8484846040518463ffffffff1660e01b81526004016118cd9392919061801b565b600060405180830381600087803b1580156118e757600080fd5b505af11580156118fb573d6000803e3d6000fd5b50505050505050565b600760029054906101000a900460ff1681565b61191f613e0d565b6000600690507f000000000000000000000000000000000000000000000000000000000000000073ffffffffffffffffffffffffffffffffffffffff1663cbed8b9c7f000000000000000000000000000000000000000000000000000000000000000073ffffffffffffffffffffffffffffffffffffffff1663096568f6306040518263ffffffff1660e01b81526004016119ba9190616eb4565b602060405180830381865afa1580156119d7573d6000803e3d6000fd5b505050506040513d601f19601f820116820180604052508101906119fb9190618062565b858486604051602001611a0e9190616eb4565b6040516020818303038152906040526040518563ffffffff1660e01b8152600401611a3c949392919061808f565b600060405180830381600087803b158015611a5657600080fd5b505af1158015611a6a573d6000803e3d6000fd5b50505050505050565b6015602052816000526040600020602052806000526040600020600091509150505481565b60088181548110611aa857600080fd5b906000526020600020016000915054906101000a900473ffffffffffffffffffffffffffffffffffffffff1681565b6060600060088054905067ffffffffffffffff811115611afa57611af9616ed4565b5b604051908082528060200260200182016040528015611b285781602001602082028036833780820191505090505b509050600060088054905067ffffffffffffffff811115611b4c57611b4b616ed4565b5b604051908082528060200260200182016040528015611b7a5781602001602082028036833780820191505090505b509050600080611b8986611e6c565b9150915060005b600880549050811015611d6a57601360008873ffffffffffffffffffffffffffffffffffffffff1673ffffffffffffffffffffffffffffffffffffffff168152602001908152602001600020600201600060088381548110611bf557611bf4617f48565b5b9060005260206000200160009054906101000a900473ffffffffffffffffffffffffffffffffffffffff1673ffffffffffffffffffffffffffffffffffffffff1673ffffffffffffffffffffffffffffffffffffffff16815260200190815260200160002054858281518110611c6e57611c6d617f48565b5b602002602001018181525050601360008873ffffffffffffffffffffffffffffffffffffffff1673ffffffffffffffffffffffffffffffffffffffff168152602001908152602001600020600501600060088381548110611cd257611cd1617f48565b5b9060005260206000200160009054906101000a900473ffffffffffffffffffffffffffffffffffffffff1673ffffffffffffffffffffffffffffffffffffffff1673ffffffffffffffffffffffffffffffffffffffff16815260200190815260200160002054848281518110611d4b57611d4a617f48565b5b6020026020010181815250508080611d6290617fa6565b915050611b90565b5085601360008873ffffffffffffffffffffffffffffffffffffffff1673ffffffffffffffffffffffffffffffffffffffff16815260200190815260200160002060010154601360008973ffffffffffffffffffffffffffffffffffffffff1673ffffffffffffffffffffffffffffffffffffffff16815260200190815260200160002060040154600887600b54600c60008d73ffffffffffffffffffffffffffffffffffffffff1673ffffffffffffffffffffffffffffffffffffffff168152602001908152602001600020548989604051602001611e5299989796959493929190618247565b604051602081830303815290604052945050505050919050565b6000807f000000000000000000000000000000000000000000000000000000000000000073ffffffffffffffffffffffffffffffffffffffff166340a7bb10600760009054906101000a900461ffff1630611ec687611ad7565b6000600a6040518663ffffffff1660e01b8152600401611eea959493929190618382565b6040805180830381865afa158015611f06573d6000803e3d6000fd5b505050506040513d601f19601f82011682018060405250810190611f2a91906183f8565b91509150915091565b60046020528260005260406000208280516020810182018051848252602083016020850120818352809550505050505060205280600052604060002060009250925050505481565b60136020528060005260406000206000915090508060000160009054906101000a900473ffffffffffffffffffffffffffffffffffffffff16908060010154908060030154908060040154908060060154905085565b3073ffffffffffffffffffffffffffffffffffffffff16611ff0613d3a565b73ffffffffffffffffffffffffffffffffffffffff1614612046576040517f08c379a000000000000000000000000000000000000000000000000000000000815260040161203d906184aa565b60405180910390fd5b6120da8686868080601f016020809104026020016040519081016040528093929190818152602001838380828437600081840152601f19601f820116905080830192505050505050508585858080601f016020809104026020016040519081016040528093929190818152602001838380828437600081840152601f19601f82011690508083019250505050505050613e8b565b505050505050565b600560205281600052604060002081815481106120fe57600080fd5b90600052602060002001600091509150505481565b61211b613e0d565b818160405160200161212e929190618521565b604051602081830303815290604052600a908161214b91906186da565b505050565b612158613e0d565b6121626000613fdc565b565b6001602052806000526040600020600091509050805461218390617e3c565b80601f01602080910402602001604051908101604052809291908181526020018280546121af90617e3c565b80156121fc5780601f106121d1576101008083540402835291602001916121fc565b820191906000526020600020905b8154815290600101906020018083116121df57829003601f168201915b505050505081565b6002602052816000526040600020602052806000526040600020600091509150505481565b60008060009054906101000a900473ffffffffffffffffffffffffffffffffffffffff16905090565b60006011600084815260200190815260200160002060000160008373ffffffffffffffffffffffffffffffffffffffff1673ffffffffffffffffffffffffffffffffffffffff16815260200190815260200160002060009054906101000a900460ff16905092915050565b600360009054906101000a900473ffffffffffffffffffffffffffffffffffffffff1681565b600e602052816000526040600020602052806000526040600020600091509150505481565b6123327f57c872046f094b8a493ec5eb6ea374eafbc3c05951e40de3c4302a41f3f127ba33612252565b15156001151514612378576040517f08c379a000000000000000000000000000000000000000000000000000000000815260040161236f906187f8565b60405180910390fd5b6124257f57c872046f094b8a493ec5eb6ea374eafbc3c05951e40de3c4302a41f3f127ba73__$7e525e67acccaa1fb4ef0d69040a1ebe6e$__63b273f2078461012001518561014001516040518363ffffffff1660e01b81526004016123df929190618871565b602060405180830381865af41580156123fc573d6000803e3d6000fd5b505050506040513d601f19601f8201168201806040525081019061242091906188b6565b612252565b612464576040517f08c379a000000000000000000000000000000000000000000000000000000000815260040161245b9061892f565b60405180910390fd5b60011515600760029054906101000a900460ff161515146124ba576040517f08c379a00000000000000000000000000000000000000000000000000000000081526004016124b19061899b565b60405180910390fd5b600060088054905067ffffffffffffffff8111156124db576124da616ed4565b5b6040519080825280602002602001820160405280156125095781602001602082028036833780820191505090505b509050600060088054905067ffffffffffffffff81111561252d5761252c616ed4565b5b60405190808252806020026020018201604052801561255b5781602001602082028036833780820191505090505b50905060005b60088054905081101561273b57601360008673ffffffffffffffffffffffffffffffffffffffff1673ffffffffffffffffffffffffffffffffffffffff1681526020019081526020016000206002016000600883815481106125c6576125c5617f48565b5b9060005260206000200160009054906101000a900473ffffffffffffffffffffffffffffffffffffffff1673ffffffffffffffffffffffffffffffffffffffff1673ffffffffffffffffffffffffffffffffffffffff1681526020019081526020016000205483828151811061263f5761263e617f48565b5b602002602001018181525050601360008673ffffffffffffffffffffffffffffffffffffffff1673ffffffffffffffffffffffffffffffffffffffff1681526020019081526020016000206005016000600883815481106126a3576126a2617f48565b5b9060005260206000200160009054906101000a900473ffffffffffffffffffffffffffffffffffffffff1673ffffffffffffffffffffffffffffffffffffffff1673ffffffffffffffffffffffffffffffffffffffff1681526020019081526020016000205482828151811061271c5761271b617f48565b5b602002602001018181525050808061273390617fa6565b915050612561565b5060008360405160200161274f9190618b09565b604051602081830303815290604052905061277a600760009054906101000a900461ffff16826140a0565b5050505050565b60606000600160008461ffff1661ffff16815260200190815260200160002080546127ab90617e3c565b80601f01602080910402602001604051908101604052809291908181526020018280546127d790617e3c565b80156128245780601f106127f957610100808354040283529160200191612824565b820191906000526020600020905b81548152906001019060200180831161280757829003601f168201915b50505050509050600081510361286f576040517f08c379a000000000000000000000000000000000000000000000000000000000815260040161286690618b77565b60405180910390fd5b6128926000601483516128829190618b97565b8361413d9092919063ffffffff16565b915050919050565b6000801b81565b6128a9613e0d565b80600f60008473ffffffffffffffffffffffffffffffffffffffff1673ffffffffffffffffffffffffffffffffffffffff16815260200190815260200160002060006101000a81548160ff0219169083151502179055505050565b61290c613e0d565b81813060405160200161292193929190618c13565b604051602081830303815290604052600160008561ffff1661ffff168152602001908152602001600020908161295791906186da565b507f8c0400cfe2d1199b1a725c78960bcc2a344d869b80590d0f2bd005db15a572ce83838360405161298b9392919061801b565b60405180910390a1505050565b6129c27f57c872046f094b8a493ec5eb6ea374eafbc3c05951e40de3c4302a41f3f127ba33612252565b15156001151514612a08576040517f08c379a00000000000000000000000000000000000000000000000000000000081526004016129ff906187f8565b60405180910390fd5b60005b8251811015612b92576001838281518110612a2957612a28617f48565b5b60200260200101516101c0015161ffff161480612a6957506002838281518110612a5657612a55617f48565b5b60200260200101516101c0015161ffff16145b15612aa657612a92838281518110612a8457612a83617f48565b5b60200260200101518361425b565b612a9c838361425f565b5050505050612b7f565b6004838281518110612abb57612aba617f48565b5b60200260200101516101c0015161ffff1603612b0957612af5838281518110612ae757612ae6617f48565b5b6020026020010151836156bd565b612aff838361425f565b5050505050612b7e565b6003838281518110612b1e57612b1d617f48565b5b60200260200101516101c0015161ffff1603612b7d57612b58838281518110612b4a57612b49617f48565b5b60200260200101518361425b565b612b7c838281518110612b6e57612b6d617f48565b5b6020026020010151836156c1565b5b5b5b8080612b8a90617fa6565b915050612a0b565b505050565b7f000000000000000000000000000000000000000000000000000000000000000081565b80601260003373ffffffffffffffffffffffffffffffffffffffff1673ffffffffffffffffffffffffffffffffffffffff16815260200190815260200160002060008473ffffffffffffffffffffffffffffffffffffffff1673ffffffffffffffffffffffffffffffffffffffff16815260200190815260200160002060006101000a81548160ff0219169083151502179055505050565b6014602052816000526040600020602052806000526040600020600091509150505481565b612c80613e0d565b80600360006101000a81548173ffffffffffffffffffffffffffffffffffffffff021916908373ffffffffffffffffffffffffffffffffffffffff1602179055507f5db758e995a17ec1ad84bdef7e8c3293a0bd6179bcce400dff5d4c3d87db726b81604051612cf09190616eb4565b60405180910390a150565b60116020528060005260406000206000915090508060010154905081565b60126000826060015173ffffffffffffffffffffffffffffffffffffffff1673ffffffffffffffffffffffffffffffffffffffff168152602001908152602001600020600073__$7e525e67acccaa1fb4ef0d69040a1ebe6e$__63b273f20784608001518560a001516040518363ffffffff1660e01b8152600401612d9f929190618871565b602060405180830381865af4158015612dbc573d6000803e3d6000fd5b505050506040513d601f19601f82011682018060405250810190612de091906188b6565b73ffffffffffffffffffffffffffffffffffffffff1673ffffffffffffffffffffffffffffffffffffffff16815260200190815260200160002060009054906101000a900460ff16612e67576040517f08c379a0000000000000000000000000000000000000000000000000000000008152600401612e5e90618c89565b60405180910390fd5b612f127f57c872046f094b8a493ec5eb6ea374eafbc3c05951e40de3c4302a41f3f127ba73__$7e525e67acccaa1fb4ef0d69040a1ebe6e$__63b273f2078460c001518560e001516040518363ffffffff1660e01b8152600401612ecc929190618871565b602060405180830381865af4158015612ee9573d6000803e3d6000fd5b505050506040513d601f19601f82011682018060405250810190612f0d91906188b6565b612252565b612f51576040517f08c379a0000000000000000000000000000000000000000000000000000000008152600401612f489061892f565b60405180910390fd5b600060136000836060015173ffffffffffffffffffffffffffffffffffffffff1673ffffffffffffffffffffffffffffffffffffffff168152602001908152602001600020905060005b826000015151811015613443578260400151156131f35781600201600084600001518381518110612fcf57612fce617f48565b5b602002602001015173ffffffffffffffffffffffffffffffffffffffff1673ffffffffffffffffffffffffffffffffffffffff168152602001908152602001600020548360200151828151811061302957613028617f48565b5b602002602001015160156000866060015173ffffffffffffffffffffffffffffffffffffffff1673ffffffffffffffffffffffffffffffffffffffff16815260200190815260200160002060008660000151858151811061308d5761308c617f48565b5b602002602001015173ffffffffffffffffffffffffffffffffffffffff1673ffffffffffffffffffffffffffffffffffffffff168152602001908152602001600020546130da9190618ca9565b111561311b576040517f08c379a000000000000000000000000000000000000000000000000000000000815260040161311290618d4f565b60405180910390fd5b8260200151818151811061313257613131617f48565b5b602002602001015160156000856060015173ffffffffffffffffffffffffffffffffffffffff1673ffffffffffffffffffffffffffffffffffffffff16815260200190815260200160002060008560000151848151811061319657613195617f48565b5b602002602001015173ffffffffffffffffffffffffffffffffffffffff1673ffffffffffffffffffffffffffffffffffffffff16815260200190815260200160002060008282546131e79190618ca9565b92505081905550613430565b816005016000846000015183815181106132105761320f617f48565b5b602002602001015173ffffffffffffffffffffffffffffffffffffffff1673ffffffffffffffffffffffffffffffffffffffff168152602001908152602001600020548360200151828151811061326a57613269617f48565b5b602002602001015160146000866060015173ffffffffffffffffffffffffffffffffffffffff1673ffffffffffffffffffffffffffffffffffffffff1681526020019081526020016000206000866000015185815181106132ce576132cd617f48565b5b602002602001015173ffffffffffffffffffffffffffffffffffffffff1673ffffffffffffffffffffffffffffffffffffffff1681526020019081526020016000205461331b9190618ca9565b111561335c576040517f08c379a000000000000000000000000000000000000000000000000000000000815260040161335390618de1565b60405180910390fd5b8260200151818151811061337357613372617f48565b5b602002602001015160146000856060015173ffffffffffffffffffffffffffffffffffffffff1673ffffffffffffffffffffffffffffffffffffffff1681526020019081526020016000206000856000015184815181106133d7576133d6617f48565b5b602002602001015173ffffffffffffffffffffffffffffffffffffffff1673ffffffffffffffffffffffffffffffffffffffff16815260200190815260200160002060008282546134289190618ca9565b925050819055505b808061343b90617fa6565b915050612f9b565b507f5d7461671a77efeecfbfc989455d1457392c775e662834b07d5d77adc7402f4582600001518360200151846040015185606001516040516134899493929190618e5f565b60405180910390a15050565b61349d613e0d565b7f000000000000000000000000000000000000000000000000000000000000000073ffffffffffffffffffffffffffffffffffffffff1663cbed8b9c86868686866040518663ffffffff1660e01b81526004016134fe959493929190618eb2565b600060405180830381600087803b15801561351857600080fd5b505af115801561352c573d6000803e3d6000fd5b505050505050505050565b6006602052816000526040600020818154811061355357600080fd5b90600052602060002001600091509150505481565b600c6020528060005260406000206000915090505481565b6000600460008861ffff1661ffff16815260200190815260200160002086866040516135ad929190617e9d565b908152602001604051809103902060008567ffffffffffffffff1667ffffffffffffffff1681526020019081526020016000205490506000801b8103613628576040517f08c379a000000000000000000000000000000000000000000000000000000000815260040161361f90618f72565b60405180910390fd5b808383604051613639929190617e9d565b604051809103902014613681576040517f08c379a000000000000000000000000000000000000000000000000000000000815260040161367890619004565b60405180910390fd5b6000801b600460008961ffff1661ffff16815260200190815260200160002087876040516136b0929190617e9d565b908152602001604051809103902060008667ffffffffffffffff1667ffffffffffffffff1681526020019081526020016000208190555061377b8787878080601f016020809104026020016040519081016040528093929190818152602001838380828437600081840152601f19601f820116905080830192505050505050508686868080601f016020809104026020016040519081016040528093929190818152602001838380828437600081840152601f19601f82011690508083019250505050505050613e8b565b7fc264d91f3adc5588250e1551f547752ca0cfa8f6b530d243b9f9f4cab10ea8e587878787856040516137b2959493929190619033565b60405180910390a150505050505050565b600d602052816000526040600020602052806000526040600020600091509150505481565b6137f0613e0d565b60008111613833576040517f08c379a000000000000000000000000000000000000000000000000000000000815260040161382a906190cd565b60405180910390fd5b80600260008561ffff1661ffff16815260200190815260200160002060008461ffff1661ffff168152602001908152602001600020819055507f9d5c7c0b934da8fefa9c7760c98383778a12dfbfc0c3b3106518f43fb9508ac083838360405161389f939291906190ed565b60405180910390a1505050565b6138b4613e0d565b6138de7f57c872046f094b8a493ec5eb6ea374eafbc3c05951e40de3c4302a41f3f127ba826160ac565b50565b6000807f000000000000000000000000000000000000000000000000000000000000000073ffffffffffffffffffffffffffffffffffffffff1663f5ecbdbc7f000000000000000000000000000000000000000000000000000000000000000073ffffffffffffffffffffffffffffffffffffffff1663096568f6306040518263ffffffff1660e01b81526004016139799190616eb4565b602060405180830381865afa158015613996573d6000803e3d6000fd5b505050506040513d601f19601f820116820180604052508101906139ba9190618062565b853060066040518563ffffffff1660e01b81526004016139dd949392919061915f565b600060405180830381865afa1580156139fa573d6000803e3d6000fd5b505050506040513d6000823e3d601f19601f82011682018060405250810190613a239190619214565b90506020810151915050919050565b613a3a613e0d565b8181600160008661ffff1661ffff1681526020019081526020016000209182613a64929190619268565b507ffa41487ad5d6728f0b19276fa1eddc16558578f5109fc39d2dc33c3230470dab838383604051613a989392919061801b565b60405180910390a1505050565b613aad613e0d565b600073ffffffffffffffffffffffffffffffffffffffff168173ffffffffffffffffffffffffffffffffffffffff1603613b1c576040517f08c379a0000000000000000000000000000000000000000000000000000000008152600401613b13906193aa565b60405180910390fd5b613b2581613fdc565b50565b60607f000000000000000000000000000000000000000000000000000000000000000073ffffffffffffffffffffffffffffffffffffffff1663f5ecbdbc868630866040518563ffffffff1660e01b8152600401613b8994939291906193ca565b600060405180830381865afa158015613ba6573d6000803e3d6000fd5b505050506040513d6000823e3d601f19601f82011682018060405250810190613bcf9190619214565b9050949350505050565b60126020528160005260406000206020528060005260406000206000915091509054906101000a900460ff1681565b7f57c872046f094b8a493ec5eb6ea374eafbc3c05951e40de3c4302a41f3f127ba81565b600080600080600080601360008973ffffffffffffffffffffffffffffffffffffffff1673ffffffffffffffffffffffffffffffffffffffff16815260200190815260200160002090508781600101548260020160008a73ffffffffffffffffffffffffffffffffffffffff1673ffffffffffffffffffffffffffffffffffffffff1681526020019081526020016000205483600301548460050160008c73ffffffffffffffffffffffffffffffffffffffff1673ffffffffffffffffffffffffffffffffffffffff1681526020019081526020016000205495509550955095509550509295509295909350565b600f6020528060005260406000206000915054906101000a900460ff1681565b600033905090565b600080613dee5a60966366ad5c8a60e01b89898989604051602401613d6a949392919061940f565b604051602081830303815290604052907bffffffffffffffffffffffffffffffffffffffffffffffffffffffff19166020820180517bffffffffffffffffffffffffffffffffffffffffffffffffffffffff83818316178352505050503073ffffffffffffffffffffffffffffffffffffffff166160ba909392919063ffffffff16565b9150915081613e0557613e048686868685616152565b5b505050505050565b613e15613d3a565b73ffffffffffffffffffffffffffffffffffffffff16613e33612229565b73ffffffffffffffffffffffffffffffffffffffff1614613e89576040517f08c379a0000000000000000000000000000000000000000000000000000000008152600401613e80906194ae565b60405180910390fd5b565b60008060008060008086806020019051810190613ea89190619521565b9550955095509550955095508015613f065784600c60008873ffffffffffffffffffffffffffffffffffffffff1673ffffffffffffffffffffffffffffffffffffffff1681526020019081526020016000208190555083600b819055505b81600d60008873ffffffffffffffffffffffffffffffffffffffff1673ffffffffffffffffffffffffffffffffffffffff16815260200190815260200160002060008573ffffffffffffffffffffffffffffffffffffffff1673ffffffffffffffffffffffffffffffffffffffff1681526020019081526020016000206000828254613f929190618ca9565b925050819055507f2ad60e7e6b35d0a91eec1d87117b7487af4872c214ca5aebcd4869028aea090488604051613fc891906195df565b60405180910390a150505050505050505050565b60008060009054906101000a900473ffffffffffffffffffffffffffffffffffffffff169050816000806101000a81548173ffffffffffffffffffffffffffffffffffffffff021916908373ffffffffffffffffffffffffffffffffffffffff1602179055508173ffffffffffffffffffffffffffffffffffffffff168173ffffffffffffffffffffffffffffffffffffffff167f8be0079c531659141344cd1fd0a4f28419497f9722a3daafe3b4186f6b6457e060405160405180910390a35050565b6141398282336000600a80546140b590617e3c565b80601f01602080910402602001604051908101604052809291908181526020018280546140e190617e3c565b801561412e5780601f106141035761010080835404028352916020019161412e565b820191906000526020600020905b81548152906001019060200180831161411157829003601f168201915b505050505034616200565b5050565b606081601f8361414d9190618ca9565b101561418e576040517f08c379a000000000000000000000000000000000000000000000000000000000815260040161418590619646565b60405180910390fd5b818361419a9190618ca9565b845110156141dd576040517f08c379a00000000000000000000000000000000000000000000000000000000081526004016141d4906196b2565b60405180910390fd5b60608215600081146141fe576040519150600082526020820160405261424f565b6040519150601f8416801560200281840101858101878315602002848b0101015b8183101561423c578051835260208301925060208101905061421f565b50868552601f19601f8301166040525050505b50809150509392505050565b5050565b6000806000806000806000601360008973ffffffffffffffffffffffffffffffffffffffff1673ffffffffffffffffffffffffffffffffffffffff168152602001908152602001600020905060005b89518110156156b0576142fe8a82815181106142cd576142cc617f48565b5b602002602001015160e001518b83815181106142ec576142eb617f48565b5b6020026020010151610140015161638b565b60018a828151811061431357614312617f48565b5b60200260200101516101c0015161ffff161480614353575060028a82815181106143405761433f617f48565b5b60200260200101516101c0015161ffff16145b15614ea15760018a828151811061436d5761436c617f48565b5b60200260200101516101c0015161ffff16036147205789818151811061439657614395617f48565b5b602002602001015160c00151600e60008b73ffffffffffffffffffffffffffffffffffffffff1673ffffffffffffffffffffffffffffffffffffffff16815260200190815260200160002060008c84815181106143f6576143f5617f48565b5b602002602001015160e0015173ffffffffffffffffffffffffffffffffffffffff1673ffffffffffffffffffffffffffffffffffffffff168152602001908152602001600020546144479190618ca9565b600d60008b73ffffffffffffffffffffffffffffffffffffffff1673ffffffffffffffffffffffffffffffffffffffff16815260200190815260200160002060008c848151811061449b5761449a617f48565b5b602002602001015160e0015173ffffffffffffffffffffffffffffffffffffffff1673ffffffffffffffffffffffffffffffffffffffff168152602001908152602001600020541015614523576040517f08c379a000000000000000000000000000000000000000000000000000000000815260040161451a9061971e565b60405180910390fd5b89818151811061453657614535617f48565b5b602002602001015160c00151600e60008b73ffffffffffffffffffffffffffffffffffffffff1673ffffffffffffffffffffffffffffffffffffffff16815260200190815260200160002060008c848151811061459657614595617f48565b5b602002602001015160e0015173ffffffffffffffffffffffffffffffffffffffff1673ffffffffffffffffffffffffffffffffffffffff16815260200190815260200160002060008282546145eb9190618ca9565b92505081905550600f60008b838151811061460957614608617f48565b5b602002602001015160e0015173ffffffffffffffffffffffffffffffffffffffff1673ffffffffffffffffffffffffffffffffffffffff16815260200190815260200160002060009054906101000a900460ff16156146885760008a828151811061467757614676617f48565b5b602002602001015161010001519050505b600f60008b838151811061469f5761469e617f48565b5b6020026020010151610140015173ffffffffffffffffffffffffffffffffffffffff1673ffffffffffffffffffffffffffffffffffffffff16815260200190815260200160002060009054906101000a900460ff161561471f5760008a828151811061470e5761470d617f48565b5b602002602001015161016001519050505b5b6000600560008c848151811061473957614738617f48565b5b60200260200101516020015173ffffffffffffffffffffffffffffffffffffffff1673ffffffffffffffffffffffffffffffffffffffff1681526020019081526020016000208054905014614900576000600560008c84815181106147a1576147a0617f48565b5b60200260200101516020015173ffffffffffffffffffffffffffffffffffffffff1673ffffffffffffffffffffffffffffffffffffffff16815260200190815260200160002080548060200260200160405190810160405280929190818152602001828054801561483157602002820191906000526020600020905b81548152602001906001019080831161481d575b5050505050905073__$7e525e67acccaa1fb4ef0d69040a1ebe6e$__63e3c808bc82600184516148619190618b97565b8151811061487257614871617f48565b5b60200260200101518d858151811061488d5761488c617f48565b5b602002602001015161020001516040518363ffffffff1660e01b81526004016148b792919061973e565b602060405180830381865af41580156148d4573d6000803e3d6000fd5b505050506040513d601f19601f820116820180604052508101906148f8919061977c565b9350506149bb565b73__$7e525e67acccaa1fb4ef0d69040a1ebe6e$__63e3c808bc8b838151811061492d5761492c617f48565b5b602002602001015161020001518c848151811061494d5761494c617f48565b5b602002602001015161020001516040518363ffffffff1660e01b815260040161497792919061973e565b602060405180830381865af4158015614994573d6000803e3d6000fd5b505050506040513d601f19601f820116820180604052508101906149b8919061977c565b92505b8981815181106149ce576149cd617f48565b5b6020026020010151610100015115614a79578981815181106149f3576149f2617f48565b5b602002602001015160c001518260020160008c8481518110614a1857614a17617f48565b5b602002602001015160e0015173ffffffffffffffffffffffffffffffffffffffff1673ffffffffffffffffffffffffffffffffffffffff1681526020019081526020016000206000828254614a6d9190618ca9565b92505081905550614bce565b898181518110614a8c57614a8b617f48565b5b602002602001015160c001518260020160008c8481518110614ab157614ab0617f48565b5b602002602001015160e0015173ffffffffffffffffffffffffffffffffffffffff1673ffffffffffffffffffffffffffffffffffffffff168152602001908152602001600020541015614b39576040517f08c379a0000000000000000000000000000000000000000000000000000000008152600401614b309061981b565b60405180910390fd5b898181518110614b4c57614b4b617f48565b5b602002602001015160c001518260020160008c8481518110614b7157614b70617f48565b5b602002602001015160e0015173ffffffffffffffffffffffffffffffffffffffff1673ffffffffffffffffffffffffffffffffffffffff1681526020019081526020016000206000828254614bc69190618b97565b925050819055505b898181518110614be157614be0617f48565b5b6020026020010151610160015115614c8e57898181518110614c0657614c05617f48565b5b602002602001015161012001518260020160008c8481518110614c2c57614c2b617f48565b5b6020026020010151610140015173ffffffffffffffffffffffffffffffffffffffff1673ffffffffffffffffffffffffffffffffffffffff1681526020019081526020016000206000828254614c829190618ca9565b92505081905550614de7565b898181518110614ca157614ca0617f48565b5b602002602001015161012001518260020160008c8481518110614cc757614cc6617f48565b5b6020026020010151610140015173ffffffffffffffffffffffffffffffffffffffff1673ffffffffffffffffffffffffffffffffffffffff168152602001908152602001600020541015614d50576040517f08c379a0000000000000000000000000000000000000000000000000000000008152600401614d4790619887565b60405180910390fd5b898181518110614d6357614d62617f48565b5b602002602001015161012001518260020160008c8481518110614d8957614d88617f48565b5b6020026020010151610140015173ffffffffffffffffffffffffffffffffffffffff1673ffffffffffffffffffffffffffffffffffffffff1681526020019081526020016000206000828254614ddf9190618b97565b925050819055505b600560008b8381518110614dfe57614dfd617f48565b5b60200260200101516020015173ffffffffffffffffffffffffffffffffffffffff1673ffffffffffffffffffffffffffffffffffffffff168152602001908152602001600020839080600181540180825580915050600190039060005260206000200160009091909190915055898181518110614e7e57614e7d617f48565b5b60200260200101516101a00151826003018190555082826001018190555061569d565b60048a8281518110614eb657614eb5617f48565b5b60200260200101516101c0015161ffff160361569c5760018260060154614edd9190618ca9565b8a8281518110614ef057614eef617f48565b5b60200260200101516101a0015114614f3d576040517f08c379a0000000000000000000000000000000000000000000000000000000008152600401614f34906198f3565b60405180910390fd5b6000600660008c8481518110614f5657614f55617f48565b5b60200260200101516020015173ffffffffffffffffffffffffffffffffffffffff1673ffffffffffffffffffffffffffffffffffffffff16815260200190815260200160002080549050146150ff576000600660008b73ffffffffffffffffffffffffffffffffffffffff1673ffffffffffffffffffffffffffffffffffffffff16815260200190815260200160002080548060200260200160405190810160405280929190818152602001828054801561503057602002820191906000526020600020905b81548152602001906001019080831161501c575b5050505050905073__$7e525e67acccaa1fb4ef0d69040a1ebe6e$__63e3c808bc82600184516150609190618b97565b8151811061507157615070617f48565b5b60200260200101518d858151811061508c5761508b617f48565b5b602002602001015161024001516040518363ffffffff1660e01b81526004016150b692919061973e565b602060405180830381865af41580156150d3573d6000803e3d6000fd5b505050506040513d601f19601f820116820180604052508101906150f7919061977c565b9350506151ba565b73__$7e525e67acccaa1fb4ef0d69040a1ebe6e$__63e3c808bc8b838151811061512c5761512b617f48565b5b602002602001015161024001518c848151811061514c5761514b617f48565b5b602002602001015161024001516040518363ffffffff1660e01b815260040161517692919061973e565b602060405180830381865af4158015615193573d6000803e3d6000fd5b505050506040513d601f19601f820116820180604052508101906151b7919061977c565b92505b8981815181106151cd576151cc617f48565b5b6020026020010151610100015115615278578981815181106151f2576151f1617f48565b5b602002602001015160c001518260050160008c848151811061521757615216617f48565b5b602002602001015160e0015173ffffffffffffffffffffffffffffffffffffffff1673ffffffffffffffffffffffffffffffffffffffff168152602001908152602001600020600082825461526c9190618ca9565b925050819055506153cd565b89818151811061528b5761528a617f48565b5b602002602001015160c001518260050160008c84815181106152b0576152af617f48565b5b602002602001015160e0015173ffffffffffffffffffffffffffffffffffffffff1673ffffffffffffffffffffffffffffffffffffffff168152602001908152602001600020541015615338576040517f08c379a000000000000000000000000000000000000000000000000000000000815260040161532f90619985565b60405180910390fd5b89818151811061534b5761534a617f48565b5b602002602001015160c001518260050160008c84815181106153705761536f617f48565b5b602002602001015160e0015173ffffffffffffffffffffffffffffffffffffffff1673ffffffffffffffffffffffffffffffffffffffff16815260200190815260200160002060008282546153c59190618b97565b925050819055505b8981815181106153e0576153df617f48565b5b602002602001015161016001511561548d5789818151811061540557615404617f48565b5b602002602001015161012001518260050160008c848151811061542b5761542a617f48565b5b6020026020010151610140015173ffffffffffffffffffffffffffffffffffffffff1673ffffffffffffffffffffffffffffffffffffffff16815260200190815260200160002060008282546154819190618ca9565b925050819055506155e6565b8981815181106154a05761549f617f48565b5b602002602001015161012001518260050160008c84815181106154c6576154c5617f48565b5b6020026020010151610140015173ffffffffffffffffffffffffffffffffffffffff1673ffffffffffffffffffffffffffffffffffffffff16815260200190815260200160002054101561554f576040517f08c379a0000000000000000000000000000000000000000000000000000000008152600401615546906199f1565b60405180910390fd5b89818151811061556257615561617f48565b5b602002602001015161012001518260050160008c848151811061558857615587617f48565b5b6020026020010151610140015173ffffffffffffffffffffffffffffffffffffffff1673ffffffffffffffffffffffffffffffffffffffff16815260200190815260200160002060008282546155de9190618b97565b925050819055505b600660008b83815181106155fd576155fc617f48565b5b60200260200101516020015173ffffffffffffffffffffffffffffffffffffffff1673ffffffffffffffffffffffffffffffffffffffff16815260200190815260200160002083908060018154018082558091505060019003906000526020600020016000909190919091505589818151811061567d5761567c617f48565b5b60200260200101516101a0015182600601819055508282600401819055505b5b80806156a890617fa6565b9150506142ae565b5050509295509295909350565b5050565b600060011515600760029054906101000a900460ff16151514615719576040517f08c379a000000000000000000000000000000000000000000000000000000000815260040161571090619a5d565b60405180910390fd5b6000601360008473ffffffffffffffffffffffffffffffffffffffff1673ffffffffffffffffffffffffffffffffffffffff1681526020019081526020016000209050836080015151846060015151146157a8576040517f08c379a000000000000000000000000000000000000000000000000000000000815260040161579f90619ac9565b60405180910390fd5b6000600560008573ffffffffffffffffffffffffffffffffffffffff1673ffffffffffffffffffffffffffffffffffffffff16815260200190815260200160002080548060200260200160405190810160405280929190818152602001828054801561583357602002820191906000526020600020905b81548152602001906001019080831161581f575b505050505090506000600660008673ffffffffffffffffffffffffffffffffffffffff1673ffffffffffffffffffffffffffffffffffffffff1681526020019081526020016000208054806020026020016040519081016040528092919081815260200182805480156158c557602002820191906000526020600020905b8154815260200190600101908083116158b1575b5050505050905060005b866060015151811015615d17578660a0015115615af75786610180015115615a5d578660600151818151811061590857615907617f48565b5b602002602001015160156000896020015173ffffffffffffffffffffffffffffffffffffffff1673ffffffffffffffffffffffffffffffffffffffff16815260200190815260200160002060008960800151848151811061596c5761596b617f48565b5b602002602001015173ffffffffffffffffffffffffffffffffffffffff1673ffffffffffffffffffffffffffffffffffffffff16815260200190815260200160002060008282546159bd9190618b97565b92505081905550866060015181815181106159db576159da617f48565b5b602002602001015184600201600089608001518481518110615a00576159ff617f48565b5b602002602001015173ffffffffffffffffffffffffffffffffffffffff1673ffffffffffffffffffffffffffffffffffffffff1681526020019081526020016000206000828254615a519190618b97565b92505081905550615af2565b86606001518181518110615a7457615a73617f48565b5b602002602001015184600201600089608001518481518110615a9957615a98617f48565b5b602002602001015173ffffffffffffffffffffffffffffffffffffffff1673ffffffffffffffffffffffffffffffffffffffff1681526020019081526020016000206000828254615aea9190618ca9565b925050819055505b615d04565b86610180015115615c6e5786606001518181518110615b1957615b18617f48565b5b602002602001015160146000896020015173ffffffffffffffffffffffffffffffffffffffff1673ffffffffffffffffffffffffffffffffffffffff168152602001908152602001600020600089608001518481518110615b7d57615b7c617f48565b5b602002602001015173ffffffffffffffffffffffffffffffffffffffff1673ffffffffffffffffffffffffffffffffffffffff1681526020019081526020016000206000828254615bce9190618b97565b9250508190555086606001518181518110615bec57615beb617f48565b5b602002602001015184600501600089608001518481518110615c1157615c10617f48565b5b602002602001015173ffffffffffffffffffffffffffffffffffffffff1673ffffffffffffffffffffffffffffffffffffffff1681526020019081526020016000206000828254615c629190618b97565b92505081905550615d03565b86606001518181518110615c8557615c84617f48565b5b602002602001015184600501600089608001518481518110615caa57615ca9617f48565b5b602002602001015173ffffffffffffffffffffffffffffffffffffffff1673ffffffffffffffffffffffffffffffffffffffff1681526020019081526020016000206000828254615cfb9190618ca9565b925050819055505b5b8080615d0f90617fa6565b9150506158cf565b508560a0015115615ee5576000825114615dd85773__$7e525e67acccaa1fb4ef0d69040a1ebe6e$__63e3c808bc8360018551615d549190618b97565b81518110615d6557615d64617f48565b5b60200260200101518861020001516040518363ffffffff1660e01b8152600401615d9092919061973e565b602060405180830381865af4158015615dad573d6000803e3d6000fd5b505050506040513d601f19601f82011682018060405250810190615dd1919061977c565b9350615e5f565b73__$7e525e67acccaa1fb4ef0d69040a1ebe6e$__63e3c808bc8761020001518861020001516040518363ffffffff1660e01b8152600401615e1b92919061973e565b602060405180830381865af4158015615e38573d6000803e3d6000fd5b505050506040513d601f19601f82011682018060405250810190615e5c919061977c565b93505b60056000876020015173ffffffffffffffffffffffffffffffffffffffff1673ffffffffffffffffffffffffffffffffffffffff168152602001908152602001600020849080600181540180825580915050600190039060005260206000200160009091909190915055856101a0015183600301819055508383600101819055506160a4565b6000815114615f9b5773__$7e525e67acccaa1fb4ef0d69040a1ebe6e$__63e3c808bc8260018451615f179190618b97565b81518110615f2857615f27617f48565b5b60200260200101518861020001516040518363ffffffff1660e01b8152600401615f5392919061973e565b602060405180830381865af4158015615f70573d6000803e3d6000fd5b505050506040513d601f19601f82011682018060405250810190615f94919061977c565b9350616022565b73__$7e525e67acccaa1fb4ef0d69040a1ebe6e$__63e3c808bc8761020001518861020001516040518363ffffffff1660e01b8152600401615fde92919061973e565b602060405180830381865af4158015615ffb573d6000803e3d6000fd5b505050506040513d601f19601f8201168201806040525081019061601f919061977c565b93505b60066000876020015173ffffffffffffffffffffffffffffffffffffffff1673ffffffffffffffffffffffffffffffffffffffff168152602001908152602001600020849080600181540180825580915050600190039060005260206000200160009091909190915055856101a0015183600601819055508383600401819055505b505050505050565b6160b682826165b7565b5050565b6000606060008060008661ffff1667ffffffffffffffff8111156160e1576160e0616ed4565b5b6040519080825280601f01601f1916602001820160405280156161135781602001600182028036833780820191505090505b50905060008087516020890160008d8df191503d925086831115616135578692505b828152826000602083013e81819450945050505094509492505050565b8180519060200120600460008761ffff1661ffff168152602001908152602001600020856040516161839190619b1a565b908152602001604051809103902060008567ffffffffffffffff1667ffffffffffffffff168152602001908152602001600020819055507fe183f33de2837795525b4792ca4cd60535bd77c53b7e7030060bfcf5734d6b0c85858585856040516161f1959493929190619b31565b60405180910390a15050505050565b6000600160008861ffff1661ffff168152602001908152602001600020805461622890617e3c565b80601f016020809104026020016040519081016040528092919081815260200182805461625490617e3c565b80156162a15780601f10616276576101008083540402835291602001916162a1565b820191906000526020600020905b81548152906001019060200180831161628457829003601f168201915b5050505050905060008151036162ec576040517f08c379a00000000000000000000000000000000000000000000000000000000081526004016162e390619c0b565b60405180910390fd5b7f000000000000000000000000000000000000000000000000000000000000000073ffffffffffffffffffffffffffffffffffffffff1663c58031008389848a8a8a8a6040518863ffffffff1660e01b815260040161635096959493929190619c3a565b6000604051808303818588803b15801561636957600080fd5b505af115801561637d573d6000803e3d6000fd5b505050505050505050505050565b60001515600960008473ffffffffffffffffffffffffffffffffffffffff1673ffffffffffffffffffffffffffffffffffffffff16815260200190815260200160002060009054906101000a900460ff1615150361649f576001600960008473ffffffffffffffffffffffffffffffffffffffff1673ffffffffffffffffffffffffffffffffffffffff16815260200190815260200160002060006101000a81548160ff0219169083151502179055506008829080600181540180825580915050600190039060005260206000200160009091909190916101000a81548173ffffffffffffffffffffffffffffffffffffffff021916908373ffffffffffffffffffffffffffffffffffffffff1602179055505b60001515600960008373ffffffffffffffffffffffffffffffffffffffff1673ffffffffffffffffffffffffffffffffffffffff16815260200190815260200160002060009054906101000a900460ff161515036165b3576001600960008373ffffffffffffffffffffffffffffffffffffffff1673ffffffffffffffffffffffffffffffffffffffff16815260200190815260200160002060006101000a81548160ff0219169083151502179055506008819080600181540180825580915050600190039060005260206000200160009091909190916101000a81548173ffffffffffffffffffffffffffffffffffffffff021916908373ffffffffffffffffffffffffffffffffffffffff1602179055505b5050565b6165c18282612252565b6166325760016011600084815260200190815260200160002060000160008373ffffffffffffffffffffffffffffffffffffffff1673ffffffffffffffffffffffffffffffffffffffff16815260200190815260200160002060006101000a81548160ff0219169083151502179055505b5050565b604051806101200160405280600073ffffffffffffffffffffffffffffffffffffffff16815260200160008019168152602001600080191681526020016060815260200160608152602001600081526020016000815260200160608152602001600081525090565b6000604051905090565b600080fd5b600080fd5b600061ffff82169050919050565b6166c9816166b2565b81146166d457600080fd5b50565b6000813590506166e6816166c0565b92915050565b600080fd5b600080fd5b600080fd5b60008083601f840112616711576167106166ec565b5b8235905067ffffffffffffffff81111561672e5761672d6166f1565b5b60208301915083600182028301111561674a576167496166f6565b5b9250929050565b600067ffffffffffffffff82169050919050565b61676e81616751565b811461677957600080fd5b50565b60008135905061678b81616765565b92915050565b600080600080600080608087890312156167ae576167ad6166a8565b5b60006167bc89828a016166d7565b965050602087013567ffffffffffffffff8111156167dd576167dc6166ad565b5b6167e989828a016166fb565b955095505060406167fc89828a0161677c565b935050606087013567ffffffffffffffff81111561681d5761681c6166ad565b5b61682989828a016166fb565b92509250509295509295509295565b60006020828403121561684e5761684d6166a8565b5b600061685c848285016166d7565b91505092915050565b600081519050919050565b600082825260208201905092915050565b60005b8381101561689f578082015181840152602081019050616884565b60008484015250505050565b6000601f19601f8301169050919050565b60006168c782616865565b6168d18185616870565b93506168e1818560208601616881565b6168ea816168ab565b840191505092915050565b6000602082019050818103600083015261690f81846168bc565b905092915050565b60008115159050919050565b61692c81616917565b811461693757600080fd5b50565b60008135905061694981616923565b92915050565b600060208284031215616965576169646166a8565b5b60006169738482850161693a565b91505092915050565b6000819050919050565b61698f8161697c565b82525050565b60006020820190506169aa6000830184616986565b92915050565b600073ffffffffffffffffffffffffffffffffffffffff82169050919050565b60006169db826169b0565b9050919050565b6169eb816169d0565b81146169f657600080fd5b50565b600081359050616a08816169e2565b92915050565b600060208284031215616a2457616a236166a8565b5b6000616a32848285016169f9565b91505092915050565b6000819050919050565b616a4e81616a3b565b82525050565b6000604082019050616a696000830185616a45565b616a766020830184616a45565b9392505050565b616a86816166b2565b82525050565b6000602082019050616aa16000830184616a7d565b92915050565b616ab0816169d0565b82525050565b616abf8161697c565b82525050565b600081519050919050565b600082825260208201905092915050565b6000819050602082019050919050565b6000616afd8383616aa7565b60208301905092915050565b6000602082019050919050565b6000616b2182616ac5565b616b2b8185616ad0565b9350616b3683616ae1565b8060005b83811015616b67578151616b4e8882616af1565b9750616b5983616b09565b925050600181019050616b3a565b5085935050505092915050565b600081519050919050565b600082825260208201905092915050565b6000819050602082019050919050565b616ba981616a3b565b82525050565b6000616bbb8383616ba0565b60208301905092915050565b6000602082019050919050565b6000616bdf82616b74565b616be98185616b7f565b9350616bf483616b90565b8060005b83811015616c25578151616c0c8882616baf565b9750616c1783616bc7565b925050600181019050616bf8565b5085935050505092915050565b600061012083016000830151616c4b6000860182616aa7565b506020830151616c5e6020860182616ab6565b506040830151616c716040860182616ab6565b5060608301518482036060860152616c898282616b16565b91505060808301518482036080860152616ca38282616bd4565b91505060a0830151616cb860a0860182616ba0565b5060c0830151616ccb60c0860182616ba0565b5060e083015184820360e0860152616ce38282616bd4565b915050610100830151616cfa610100860182616ba0565b508091505092915050565b60006020820190508181036000830152616d1f8184616c32565b905092915050565b6000602082019050616d3c6000830184616a45565b92915050565b600080600060408486031215616d5b57616d5a6166a8565b5b6000616d69868287016166d7565b935050602084013567ffffffffffffffff811115616d8a57616d896166ad565b5b616d96868287016166fb565b92509250509250925092565b616dab81616917565b82525050565b6000602082019050616dc66000830184616da2565b92915050565b60008060408385031215616de357616de26166a8565b5b6000616df1858286016166d7565b9250506020616e02858286016169f9565b9150509250929050565b60008060408385031215616e2357616e226166a8565b5b6000616e31858286016169f9565b9250506020616e42858286016169f9565b9150509250929050565b616e5581616a3b565b8114616e6057600080fd5b50565b600081359050616e7281616e4c565b92915050565b600060208284031215616e8e57616e8d6166a8565b5b6000616e9c84828501616e63565b91505092915050565b616eae816169d0565b82525050565b6000602082019050616ec96000830184616ea5565b92915050565b600080fd5b7f4e487b7100000000000000000000000000000000000000000000000000000000600052604160045260246000fd5b616f0c826168ab565b810181811067ffffffffffffffff82111715616f2b57616f2a616ed4565b5b80604052505050565b6000616f3e61669e565b9050616f4a8282616f03565b919050565b600067ffffffffffffffff821115616f6a57616f69616ed4565b5b616f73826168ab565b9050602081019050919050565b82818337600083830152505050565b6000616fa2616f9d84616f4f565b616f34565b905082815260208101848484011115616fbe57616fbd616ecf565b5b616fc9848285616f80565b509392505050565b600082601f830112616fe657616fe56166ec565b5b8135616ff6848260208601616f8f565b91505092915050565b600080600060608486031215617018576170176166a8565b5b6000617026868287016166d7565b935050602084013567ffffffffffffffff811115617047576170466166ad565b5b61705386828701616fd1565b92505060406170648682870161677c565b9150509250925092565b600060a0820190506170836000830188616ea5565b6170906020830187616986565b61709d6040830186616a45565b6170aa6060830185616986565b6170b76080830184616a45565b9695505050505050565b600080604083850312156170d8576170d76166a8565b5b60006170e6858286016169f9565b92505060206170f785828601616e63565b9150509250929050565b60008060408385031215617118576171176166a8565b5b6000617126858286016166d7565b925050602061713785828601616e63565b9150509250929050565b60008060408385031215617158576171576166a8565b5b6000617166858286016166d7565b9250506020617177858286016166d7565b9150509250929050565b61718a8161697c565b811461719557600080fd5b50565b6000813590506171a781617181565b92915050565b600080604083850312156171c4576171c36166a8565b5b60006171d285828601617198565b92505060206171e3858286016169f9565b9150509250929050565b600080fd5b600080fd5b600067ffffffffffffffff82111561721257617211616ed4565b5b602082029050602081019050919050565b6000617236617231846171f7565b616f34565b90508083825260208201905060208402830185811115617259576172586166f6565b5b835b81811015617282578061726e88826169f9565b84526020840193505060208101905061725b565b5050509392505050565b600082601f8301126172a1576172a06166ec565b5b81356172b1848260208601617223565b91505092915050565b600067ffffffffffffffff8211156172d5576172d4616ed4565b5b602082029050602081019050919050565b60006172f96172f4846172ba565b616f34565b9050808382526020820190506020840283018581111561731c5761731b6166f6565b5b835b8181101561734557806173318882616e63565b84526020840193505060208101905061731e565b5050509392505050565b600082601f830112617364576173636166ec565b5b81356173748482602086016172e6565b91505092915050565b60006101608284031215617394576173936171ed565b5b61739f610160616f34565b905060006173af848285016169f9565b60008301525060206173c384828501617198565b60208301525060406173d784828501617198565b604083015250606082013567ffffffffffffffff8111156173fb576173fa6171f2565b5b6174078482850161728c565b606083015250608082013567ffffffffffffffff81111561742b5761742a6171f2565b5b6174378482850161734f565b60808301525060a061744b84828501616e63565b60a08301525060c061745f84828501616e63565b60c08301525060e082013567ffffffffffffffff811115617483576174826171f2565b5b61748f8482850161734f565b60e0830152506101006174a484828501616e63565b610100830152506101206174ba84828501617198565b6101208301525061014082013567ffffffffffffffff8111156174e0576174df6171f2565b5b6174ec84828501616fd1565b6101408301525092915050565b600080604083850312156175105761750f6166a8565b5b600061751e858286016169f9565b925050602083013567ffffffffffffffff81111561753f5761753e6166ad565b5b61754b8582860161737d565b9150509250929050565b6000806040838503121561756c5761756b6166a8565b5b600061757a858286016169f9565b925050602061758b8582860161693a565b9150509250929050565b600067ffffffffffffffff8211156175b0576175af616ed4565b5b602082029050602081019050919050565b600067ffffffffffffffff8211156175dc576175db616ed4565b5b6175e5826168ab565b9050602081019050919050565b6000617605617600846175c1565b616f34565b90508281526020810184848401111561762157617620616ecf565b5b61762c848285616f80565b509392505050565b600082601f830112617649576176486166ec565b5b81356176598482602086016175f2565b91505092915050565b60006102808284031215617679576176786171ed565b5b617684610280616f34565b9050600082013567ffffffffffffffff8111156176a4576176a36171f2565b5b6176b084828501617634565b60008301525060206176c4848285016169f9565b60208301525060406176d8848285016169f9565b604083015250606082013567ffffffffffffffff8111156176fc576176fb6171f2565b5b6177088482850161734f565b606083015250608082013567ffffffffffffffff81111561772c5761772b6171f2565b5b6177388482850161728c565b60808301525060a061774c8482850161693a565b60a08301525060c061776084828501616e63565b60c08301525060e0617774848285016169f9565b60e0830152506101006177898482850161693a565b6101008301525061012061779f84828501616e63565b610120830152506101406177b5848285016169f9565b610140830152506101606177cb8482850161693a565b610160830152506101806177e18482850161693a565b610180830152506101a06177f784828501616e63565b6101a0830152506101c061780d848285016166d7565b6101c0830152506101e061782384828501616e63565b6101e08301525061020061783984828501617198565b6102008301525061022082013567ffffffffffffffff81111561785f5761785e6171f2565b5b61786b84828501616fd1565b6102208301525061024061788184828501617198565b6102408301525061026082013567ffffffffffffffff8111156178a7576178a66171f2565b5b6178b384828501616fd1565b6102608301525092915050565b60006178d36178ce84617595565b616f34565b905080838252602082019050602084028301858111156178f6576178f56166f6565b5b835b8181101561793d57803567ffffffffffffffff81111561791b5761791a6166ec565b5b8086016179288982617662565b855260208501945050506020810190506178f8565b5050509392505050565b600082601f83011261795c5761795b6166ec565b5b813561796c8482602086016178c0565b91505092915050565b6000806040838503121561798c5761798b6166a8565b5b600083013567ffffffffffffffff8111156179aa576179a96166ad565b5b6179b685828601617947565b92505060206179c7858286016169f9565b9150509250929050565b6000819050919050565b60006179f66179f16179ec846169b0565b6179d1565b6169b0565b9050919050565b6000617a08826179db565b9050919050565b6000617a1a826179fd565b9050919050565b617a2a81617a0f565b82525050565b6000602082019050617a456000830184617a21565b92915050565b600060208284031215617a6157617a606166a8565b5b6000617a6f84828501617198565b91505092915050565b60006101008284031215617a8f57617a8e6171ed565b5b617a9a610100616f34565b9050600082013567ffffffffffffffff811115617aba57617ab96171f2565b5b617ac68482850161728c565b600083015250602082013567ffffffffffffffff811115617aea57617ae96171f2565b5b617af68482850161734f565b6020830152506040617b0a8482850161693a565b6040830152506060617b1e848285016169f9565b6060830152506080617b3284828501617198565b60808301525060a082013567ffffffffffffffff811115617b5657617b556171f2565b5b617b6284828501616fd1565b60a08301525060c0617b7684828501617198565b60c08301525060e082013567ffffffffffffffff811115617b9a57617b996171f2565b5b617ba684828501616fd1565b60e08301525092915050565b600060208284031215617bc857617bc76166a8565b5b600082013567ffffffffffffffff811115617be657617be56166ad565b5b617bf284828501617a78565b91505092915050565b600080600080600060808688031215617c1757617c166166a8565b5b6000617c25888289016166d7565b9550506020617c36888289016166d7565b9450506040617c4788828901616e63565b935050606086013567ffffffffffffffff811115617c6857617c676166ad565b5b617c74888289016166fb565b92509250509295509295909350565b600080600060608486031215617c9c57617c9b6166a8565b5b6000617caa868287016166d7565b9350506020617cbb868287016166d7565b9250506040617ccc86828701616e63565b9150509250925092565b60008060008060808587031215617cf057617cef6166a8565b5b6000617cfe878288016166d7565b9450506020617d0f878288016166d7565b9350506040617d20878288016169f9565b9250506060617d3187828801616e63565b91505092959194509250565b600060a082019050617d526000830188616ea5565b617d5f6020830187616986565b617d6c6040830186616a45565b617d796060830185616a45565b617d866080830184616a45565b9695505050505050565b600082825260208201905092915050565b7f4c7a4170703a20696e76616c696420656e64706f696e742063616c6c65720000600082015250565b6000617dd7601e83617d90565b9150617de282617da1565b602082019050919050565b60006020820190508181036000830152617e0681617dca565b9050919050565b7f4e487b7100000000000000000000000000000000000000000000000000000000600052602260045260246000fd5b60006002820490506001821680617e5457607f821691505b602082108103617e6757617e66617e0d565b5b50919050565b600081905092915050565b6000617e848385617e6d565b9350617e91838584616f80565b82840190509392505050565b6000617eaa828486617e78565b91508190509392505050565b7f4c7a4170703a20696e76616c696420736f757263652073656e64696e6720636f60008201527f6e74726163740000000000000000000000000000000000000000000000000000602082015250565b6000617f12602683617d90565b9150617f1d82617eb6565b604082019050919050565b60006020820190508181036000830152617f4181617f05565b9050919050565b7f4e487b7100000000000000000000000000000000000000000000000000000000600052603260045260246000fd5b7f4e487b7100000000000000000000000000000000000000000000000000000000600052601160045260246000fd5b6000617fb182616a3b565b91507fffffffffffffffffffffffffffffffffffffffffffffffffffffffffffffffff8203617fe357617fe2617f77565b5b600182019050919050565b6000617ffa8385616870565b9350618007838584616f80565b618010836168ab565b840190509392505050565b60006040820190506180306000830186616a7d565b8181036020830152618043818486617fee565b9050949350505050565b60008151905061805c816166c0565b92915050565b600060208284031215618078576180776166a8565b5b60006180868482850161804d565b91505092915050565b60006080820190506180a46000830187616a7d565b6180b16020830186616a7d565b6180be6040830185616a45565b81810360608301526180d081846168bc565b905095945050505050565b600081549050919050565b600082825260208201905092915050565b60008190508160005260206000209050919050565b60008160001c9050919050565b600073ffffffffffffffffffffffffffffffffffffffff82169050919050565b600061814c6181478361810c565b618119565b9050919050565b600061815f8254618139565b9050919050565b6000600182019050919050565b600061817e826180db565b61818881856180e6565b9350618193836180f7565b8060005b838110156181cb576181a882618153565b6181b28882616af1565b97506181bd83618166565b925050600181019050618197565b5085935050505092915050565b600082825260208201905092915050565b60006181f482616b74565b6181fe81856181d8565b935061820983616b90565b8060005b8381101561823a5781516182218882616baf565b975061822c83616bc7565b92505060018101905061820d565b5085935050505092915050565b60006101208201905061825d600083018c616ea5565b61826a602083018b616986565b618277604083018a616986565b81810360608301526182898189618173565b9050818103608083015261829d81886181e9565b90506182ac60a0830187616a45565b6182b960c0830186616a45565b81810360e08301526182cb81856181e9565b90506182db610100830184616a45565b9a9950505050505050505050565b60008190508160005260206000209050919050565b6000815461830b81617e3c565b6183158186616870565b94506001821660008114618330576001811461834657618379565b60ff198316865281151560200286019350618379565b61834f856182e9565b60005b8381101561837157815481890152600182019150602081019050618352565b808801955050505b50505092915050565b600060a0820190506183976000830188616a7d565b6183a46020830187616ea5565b81810360408301526183b681866168bc565b90506183c56060830185616da2565b81810360808301526183d781846182fe565b90509695505050505050565b6000815190506183f281616e4c565b92915050565b6000806040838503121561840f5761840e6166a8565b5b600061841d858286016183e3565b925050602061842e858286016183e3565b9150509250929050565b7f4e6f6e626c6f636b696e674c7a4170703a2063616c6c6572206d75737420626560008201527f204c7a4170700000000000000000000000000000000000000000000000000000602082015250565b6000618494602683617d90565b915061849f82618438565b604082019050919050565b600060208201905081810360008301526184c381618487565b9050919050565b60008160f01b9050919050565b60006184e2826184ca565b9050919050565b6184fa6184f5826166b2565b6184d7565b82525050565b6000819050919050565b61851b61851682616a3b565b618500565b82525050565b600061852d82856184e9565b60028201915061853d828461850a565b6020820191508190509392505050565b60006020601f8301049050919050565b600082821b905092915050565b60006008830261859a7fffffffffffffffffffffffffffffffffffffffffffffffffffffffffffffffff8261855d565b6185a4868361855d565b95508019841693508086168417925050509392505050565b60006185d76185d26185cd84616a3b565b6179d1565b616a3b565b9050919050565b6000819050919050565b6185f1836185bc565b6186056185fd826185de565b84845461856a565b825550505050565b600090565b61861a61860d565b6186258184846185e8565b505050565b5b818110156186495761863e600082618612565b60018101905061862b565b5050565b601f82111561868e5761865f816182e9565b6186688461854d565b81016020851015618677578190505b61868b6186838561854d565b83018261862a565b50505b505050565b600082821c905092915050565b60006186b160001984600802618693565b1980831691505092915050565b60006186ca83836186a0565b9150826002028217905092915050565b6186e382616865565b67ffffffffffffffff8111156186fc576186fb616ed4565b5b6187068254617e3c565b61871182828561864d565b600060209050601f8311600181146187445760008415618732578287015190505b61873c85826186be565b8655506187a4565b601f198416618752866182e9565b60005b8281101561877a57848901518255600182019150602085019450602081019050618755565b868310156187975784890151618793601f8916826186a0565b8355505b6001600288020188555050505b505050505050565b7f4f6e6c79206e6f64652063616e2063616c6c20746869732e0000000000000000600082015250565b60006187e2601883617d90565b91506187ed826187ac565b602082019050919050565b60006020820190508181036000830152618811816187d5565b9050919050565b6188218161697c565b82525050565b600082825260208201905092915050565b600061884382616865565b61884d8185618827565b935061885d818560208601616881565b618866816168ab565b840191505092915050565b60006040820190506188866000830185618818565b81810360208301526188988184618838565b90509392505050565b6000815190506188b0816169e2565b92915050565b6000602082840312156188cc576188cb6166a8565b5b60006188da848285016188a1565b91505092915050565b7f546865207369676e6572206973206e6f742061206e6f64650000000000000000600082015250565b6000618919601883617d90565b9150618924826188e3565b602082019050919050565b600060208201905081810360008301526189488161890c565b9050919050565b7f436c6f73696e6700000000000000000000000000000000000000000000000000600082015250565b6000618985600783617d90565b91506189908261894f565b602082019050919050565b600060208201905081810360008301526189b481618978565b9050919050565b600082825260208201905092915050565b60006189d782616865565b6189e181856189bb565b93506189f1818560208601616881565b6189fa816168ab565b840191505092915050565b600061016083016000830151618a1e6000860182616aa7565b506020830151618a316020860182616ab6565b506040830151618a446040860182616ab6565b5060608301518482036060860152618a5c8282616b16565b91505060808301518482036080860152618a768282616bd4565b91505060a0830151618a8b60a0860182616ba0565b5060c0830151618a9e60c0860182616ba0565b5060e083015184820360e0860152618ab68282616bd4565b915050610100830151618acd610100860182616ba0565b50610120830151618ae2610120860182616ab6565b50610140830151848203610140860152618afc82826189cc565b9150508091505092915050565b60006020820190508181036000830152618b238184618a05565b905092915050565b7f4c7a4170703a206e6f20747275737465642070617468207265636f7264000000600082015250565b6000618b61601d83617d90565b9150618b6c82618b2b565b602082019050919050565b60006020820190508181036000830152618b9081618b54565b9050919050565b6000618ba282616a3b565b9150618bad83616a3b565b9250828203905081811115618bc557618bc4617f77565b5b92915050565b60008160601b9050919050565b6000618be382618bcb565b9050919050565b6000618bf582618bd8565b9050919050565b618c0d618c08826169d0565b618bea565b82525050565b6000618c20828587617e78565b9150618c2c8284618bfc565b601482019150819050949350505050565b7f546865207369676e6572206973206e6f74207573657200000000000000000000600082015250565b6000618c73601683617d90565b9150618c7e82618c3d565b602082019050919050565b60006020820190508181036000830152618ca281618c66565b9050919050565b6000618cb482616a3b565b9150618cbf83616a3b565b9250828201905080821115618cd757618cd6617f77565b5b92915050565b7f77697468686f6c64696e673a20496e73756666696369656e742077697468686f60008201527f6c64696e67206f66206361706974616c206163636f756e740000000000000000602082015250565b6000618d39603883617d90565b9150618d4482618cdd565b604082019050919050565b60006020820190508181036000830152618d6881618d2c565b9050919050565b7f77697468686f6c64696e673a20496e73756666696369656e742077697468686f60008201527f6c64696e67206f66207472616465206163636f756e7400000000000000000000602082015250565b6000618dcb603683617d90565b9150618dd682618d6f565b604082019050919050565b60006020820190508181036000830152618dfa81618dbe565b9050919050565b6000618e0c82616ac5565b618e1681856180e6565b9350618e2183616ae1565b8060005b83811015618e52578151618e398882616af1565b9750618e4483616b09565b925050600181019050618e25565b5085935050505092915050565b60006080820190508181036000830152618e798187618e01565b90508181036020830152618e8d81866181e9565b9050618e9c6040830185616da2565b618ea96060830184616ea5565b95945050505050565b6000608082019050618ec76000830188616a7d565b618ed46020830187616a7d565b618ee16040830186616a45565b8181036060830152618ef4818486617fee565b90509695505050505050565b7f4e6f6e626c6f636b696e674c7a4170703a206e6f2073746f726564206d65737360008201527f6167650000000000000000000000000000000000000000000000000000000000602082015250565b6000618f5c602383617d90565b9150618f6782618f00565b604082019050919050565b60006020820190508181036000830152618f8b81618f4f565b9050919050565b7f4e6f6e626c6f636b696e674c7a4170703a20696e76616c6964207061796c6f6160008201527f6400000000000000000000000000000000000000000000000000000000000000602082015250565b6000618fee602183617d90565b9150618ff982618f92565b604082019050919050565b6000602082019050818103600083015261901d81618fe1565b9050919050565b61902d81616751565b82525050565b60006080820190506190486000830188616a7d565b818103602083015261905b818688617fee565b905061906a6040830185619024565b6190776060830184616986565b9695505050505050565b7f4c7a4170703a20696e76616c6964206d696e4761730000000000000000000000600082015250565b60006190b7601583617d90565b91506190c282619081565b602082019050919050565b600060208201905081810360008301526190e6816190aa565b9050919050565b60006060820190506191026000830186616a7d565b61910f6020830185616a7d565b61911c6040830184616a45565b949350505050565b6000819050919050565b600061914961914461913f84619124565b6179d1565b616a3b565b9050919050565b6191598161912e565b82525050565b60006080820190506191746000830187616a7d565b6191816020830186616a7d565b61918e6040830185616ea5565b61919b6060830184619150565b95945050505050565b60006191b76191b284616f4f565b616f34565b9050828152602081018484840111156191d3576191d2616ecf565b5b6191de848285616881565b509392505050565b600082601f8301126191fb576191fa6166ec565b5b815161920b8482602086016191a4565b91505092915050565b60006020828403121561922a576192296166a8565b5b600082015167ffffffffffffffff811115619248576192476166ad565b5b619254848285016191e6565b91505092915050565b600082905092915050565b619272838361925d565b67ffffffffffffffff81111561928b5761928a616ed4565b5b6192958254617e3c565b6192a082828561864d565b6000601f8311600181146192cf57600084156192bd578287013590505b6192c785826186be565b86555061932f565b601f1984166192dd866182e9565b60005b82811015619305578489013582556001820191506020850194506020810190506192e0565b86831015619322578489013561931e601f8916826186a0565b8355505b6001600288020188555050505b50505050505050565b7f4f776e61626c653a206e6577206f776e657220697320746865207a65726f206160008201527f6464726573730000000000000000000000000000000000000000000000000000602082015250565b6000619394602683617d90565b915061939f82619338565b604082019050919050565b600060208201905081810360008301526193c381619387565b9050919050565b60006080820190506193df6000830187616a7d565b6193ec6020830186616a7d565b6193f96040830185616ea5565b6194066060830184616a45565b95945050505050565b60006080820190506194246000830187616a7d565b818103602083015261943681866168bc565b90506194456040830185619024565b818103606083015261945781846168bc565b905095945050505050565b7f4f776e61626c653a2063616c6c6572206973206e6f7420746865206f776e6572600082015250565b6000619498602083617d90565b91506194a382619462565b602082019050919050565b600060208201905081810360008301526194c78161948b565b9050919050565b60006194d9826169b0565b9050919050565b6194e9816194ce565b81146194f457600080fd5b50565b600081519050619506816194e0565b92915050565b60008151905061951b81616923565b92915050565b60008060008060008060c0878903121561953e5761953d6166a8565b5b600061954c89828a016194f7565b965050602061955d89828a016183e3565b955050604061956e89828a016183e3565b945050606061957f89828a016194f7565b935050608061959089828a016183e3565b92505060a06195a189828a0161950c565b9150509295509295509295565b60006195c96195c46195bf84616751565b6179d1565b616a3b565b9050919050565b6195d9816195ae565b82525050565b60006020820190506195f460008301846195d0565b92915050565b7f736c6963655f6f766572666c6f77000000000000000000000000000000000000600082015250565b6000619630600e83617d90565b915061963b826195fa565b602082019050919050565b6000602082019050818103600083015261965f81619623565b9050919050565b7f736c6963655f6f75744f66426f756e6473000000000000000000000000000000600082015250565b600061969c601183617d90565b91506196a782619666565b602082019050919050565b600060208201905081810360008301526196cb8161968f565b9050919050565b7f4465706f736974206661696c7572650000000000000000000000000000000000600082015250565b6000619708600f83617d90565b9150619713826196d2565b602082019050919050565b60006020820190508181036000830152619737816196fb565b9050919050565b60006040820190506197536000830185618818565b6197606020830184618818565b9392505050565b60008151905061977681617181565b92915050565b600060208284031215619792576197916166a8565b5b60006197a084828501619767565b91505092915050565b7f6361706974616c20676f6f64732062616c616e6365206973206e65676174697660008201527f6500000000000000000000000000000000000000000000000000000000000000602082015250565b6000619805602183617d90565b9150619810826197a9565b604082019050919050565b60006020820190508181036000830152619834816197f8565b9050919050565b7f6361706974616c20636f696e2062616c616e6365206973206e65676174697665600082015250565b6000619871602083617d90565b915061987c8261983b565b602082019050919050565b600060208201905081810360008301526198a081619864565b9050919050565b7f74726164696e67204e6f6e6365206661696c6564000000000000000000000000600082015250565b60006198dd601483617d90565b91506198e8826198a7565b602082019050919050565b6000602082019050818103600083015261990c816198d0565b9050919050565b7f74726164696e6720676f6f64732062616c616e6365206973206e65676174697660008201527f6500000000000000000000000000000000000000000000000000000000000000602082015250565b600061996f602183617d90565b915061997a82619913565b604082019050919050565b6000602082019050818103600083015261999e81619962565b9050919050565b7f74726164696e6720636f696e2062616c616e6365206973206e65676174697665600082015250565b60006199db602083617d90565b91506199e6826199a5565b602082019050919050565b60006020820190508181036000830152619a0a816199ce565b9050919050565b7f636c6f73696e6700000000000000000000000000000000000000000000000000600082015250565b6000619a47600783617d90565b9150619a5282619a11565b602082019050919050565b60006020820190508181036000830152619a7681619a3a565b9050919050565b7f4c656e677468206661696c640000000000000000000000000000000000000000600082015250565b6000619ab3600c83617d90565b9150619abe82619a7d565b602082019050919050565b60006020820190508181036000830152619ae281619aa6565b9050919050565b6000619af482616865565b619afe8185617e6d565b9350619b0e818560208601616881565b80840191505092915050565b6000619b268284619ae9565b915081905092915050565b600060a082019050619b466000830188616a7d565b8181036020830152619b5881876168bc565b9050619b676040830186619024565b8181036060830152619b7981856168bc565b90508181036080830152619b8d81846168bc565b90509695505050505050565b7f4c7a4170703a2064657374696e6174696f6e20636861696e206973206e6f742060008201527f61207472757374656420736f7572636500000000000000000000000000000000602082015250565b6000619bf5603083617d90565b9150619c0082619b99565b604082019050919050565b60006020820190508181036000830152619c2481619be8565b9050919050565b619c34816194ce565b82525050565b600060c082019050619c4f6000830189616a7d565b8181036020830152619c6181886168bc565b90508181036040830152619c7581876168bc565b9050619c846060830186619c2b565b619c916080830185616ea5565b81810360a0830152619ca381846168bc565b905097965050505050505056fea2646970667358221220aad6de0cd8e9d2f9976ea022bfc90b15c67009010dd745e28ed9d85c0e32bf2d64736f6c63430008110033",
			"opcodes": "PUSH1 0xA0 PUSH1 0x40 MSTORE PUSH3 0x186A0 PUSH1 0x10 SSTORE CALLVALUE DUP1 ISZERO PUSH3 0x18 JUMPI PUSH1 0x0 DUP1 REVERT JUMPDEST POP PUSH1 0x40 MLOAD PUSH3 0xA123 CODESIZE SUB DUP1 PUSH3 0xA123 DUP4 CODECOPY DUP2 DUP2 ADD PUSH1 0x40 MSTORE DUP2 ADD SWAP1 PUSH3 0x3E SWAP2 SWAP1 PUSH3 0x386 JUMP JUMPDEST DUP2 DUP1 PUSH3 0x60 PUSH3 0x54 PUSH3 0x108 PUSH1 0x20 SHL PUSH1 0x20 SHR JUMP JUMPDEST PUSH3 0x110 PUSH1 0x20 SHL PUSH1 0x20 SHR JUMP JUMPDEST DUP1 PUSH20 0xFFFFFFFFFFFFFFFFFFFFFFFFFFFFFFFFFFFFFFFF AND PUSH1 0x80 DUP2 PUSH20 0xFFFFFFFFFFFFFFFFFFFFFFFFFFFFFFFFFFFFFFFF AND DUP2 MSTORE POP POP POP POP DUP1 PUSH1 0x7 PUSH1 0x0 PUSH2 0x100 EXP DUP2 SLOAD DUP2 PUSH2 0xFFFF MUL NOT AND SWAP1 DUP4 PUSH2 0xFFFF AND MUL OR SWAP1 SSTORE POP PUSH3 0xE5 PUSH32 0x52941335797217779AB62CF10A3AE2B6D453B5F3A1285E7A816EB9F63A58D669 CALLER PUSH3 0x1D4 PUSH1 0x20 SHL PUSH1 0x20 SHR JUMP JUMPDEST PUSH1 0x1 PUSH1 0x7 PUSH1 0x2 PUSH2 0x100 EXP DUP2 SLOAD DUP2 PUSH1 0xFF MUL NOT AND SWAP1 DUP4 ISZERO ISZERO MUL OR SWAP1 SSTORE POP POP POP PUSH3 0x3CD JUMP JUMPDEST PUSH1 0x0 CALLER SWAP1 POP SWAP1 JUMP JUMPDEST PUSH1 0x0 DUP1 PUSH1 0x0 SWAP1 SLOAD SWAP1 PUSH2 0x100 EXP SWAP1 DIV PUSH20 0xFFFFFFFFFFFFFFFFFFFFFFFFFFFFFFFFFFFFFFFF AND SWAP1 POP DUP2 PUSH1 0x0 DUP1 PUSH2 0x100 EXP DUP2 SLOAD DUP2 PUSH20 0xFFFFFFFFFFFFFFFFFFFFFFFFFFFFFFFFFFFFFFFF MUL NOT AND SWAP1 DUP4 PUSH20 0xFFFFFFFFFFFFFFFFFFFFFFFFFFFFFFFFFFFFFFFF AND MUL OR SWAP1 SSTORE POP DUP2 PUSH20 0xFFFFFFFFFFFFFFFFFFFFFFFFFFFFFFFFFFFFFFFF AND DUP2 PUSH20 0xFFFFFFFFFFFFFFFFFFFFFFFFFFFFFFFFFFFFFFFF AND PUSH32 0x8BE0079C531659141344CD1FD0A4F28419497F9722A3DAAFE3B4186F6B6457E0 PUSH1 0x40 MLOAD PUSH1 0x40 MLOAD DUP1 SWAP2 SUB SWAP1 LOG3 POP POP JUMP JUMPDEST PUSH3 0x1E6 DUP3 DUP3 PUSH3 0x1EA PUSH1 0x20 SHL PUSH1 0x20 SHR JUMP JUMPDEST POP POP JUMP JUMPDEST PUSH3 0x1FC DUP3 DUP3 PUSH3 0x272 PUSH1 0x20 SHL PUSH1 0x20 SHR JUMP JUMPDEST PUSH3 0x26E JUMPI PUSH1 0x1 PUSH1 0x11 PUSH1 0x0 DUP5 DUP2 MSTORE PUSH1 0x20 ADD SWAP1 DUP2 MSTORE PUSH1 0x20 ADD PUSH1 0x0 KECCAK256 PUSH1 0x0 ADD PUSH1 0x0 DUP4 PUSH20 0xFFFFFFFFFFFFFFFFFFFFFFFFFFFFFFFFFFFFFFFF AND PUSH20 0xFFFFFFFFFFFFFFFFFFFFFFFFFFFFFFFFFFFFFFFF AND DUP2 MSTORE PUSH1 0x20 ADD SWAP1 DUP2 MSTORE PUSH1 0x20 ADD PUSH1 0x0 KECCAK256 PUSH1 0x0 PUSH2 0x100 EXP DUP2 SLOAD DUP2 PUSH1 0xFF MUL NOT AND SWAP1 DUP4 ISZERO ISZERO MUL OR SWAP1 SSTORE POP JUMPDEST POP POP JUMP JUMPDEST PUSH1 0x0 PUSH1 0x11 PUSH1 0x0 DUP5 DUP2 MSTORE PUSH1 0x20 ADD SWAP1 DUP2 MSTORE PUSH1 0x20 ADD PUSH1 0x0 KECCAK256 PUSH1 0x0 ADD PUSH1 0x0 DUP4 PUSH20 0xFFFFFFFFFFFFFFFFFFFFFFFFFFFFFFFFFFFFFFFF AND PUSH20 0xFFFFFFFFFFFFFFFFFFFFFFFFFFFFFFFFFFFFFFFF AND DUP2 MSTORE PUSH1 0x20 ADD SWAP1 DUP2 MSTORE PUSH1 0x20 ADD PUSH1 0x0 KECCAK256 PUSH1 0x0 SWAP1 SLOAD SWAP1 PUSH2 0x100 EXP SWAP1 DIV PUSH1 0xFF AND SWAP1 POP SWAP3 SWAP2 POP POP JUMP JUMPDEST PUSH1 0x0 DUP1 REVERT JUMPDEST PUSH1 0x0 PUSH20 0xFFFFFFFFFFFFFFFFFFFFFFFFFFFFFFFFFFFFFFFF DUP3 AND SWAP1 POP SWAP2 SWAP1 POP JUMP JUMPDEST PUSH1 0x0 PUSH3 0x30F DUP3 PUSH3 0x2E2 JUMP JUMPDEST SWAP1 POP SWAP2 SWAP1 POP JUMP JUMPDEST PUSH3 0x321 DUP2 PUSH3 0x302 JUMP JUMPDEST DUP2 EQ PUSH3 0x32D JUMPI PUSH1 0x0 DUP1 REVERT JUMPDEST POP JUMP JUMPDEST PUSH1 0x0 DUP2 MLOAD SWAP1 POP PUSH3 0x341 DUP2 PUSH3 0x316 JUMP JUMPDEST SWAP3 SWAP2 POP POP JUMP JUMPDEST PUSH1 0x0 PUSH2 0xFFFF DUP3 AND SWAP1 POP SWAP2 SWAP1 POP JUMP JUMPDEST PUSH3 0x360 DUP2 PUSH3 0x347 JUMP JUMPDEST DUP2 EQ PUSH3 0x36C JUMPI PUSH1 0x0 DUP1 REVERT JUMPDEST POP JUMP JUMPDEST PUSH1 0x0 DUP2 MLOAD SWAP1 POP PUSH3 0x380 DUP2 PUSH3 0x355 JUMP JUMPDEST SWAP3 SWAP2 POP POP JUMP JUMPDEST PUSH1 0x0 DUP1 PUSH1 0x40 DUP4 DUP6 SUB SLT ISZERO PUSH3 0x3A0 JUMPI PUSH3 0x39F PUSH3 0x2DD JUMP JUMPDEST JUMPDEST PUSH1 0x0 PUSH3 0x3B0 DUP6 DUP3 DUP7 ADD PUSH3 0x330 JUMP JUMPDEST SWAP3 POP POP PUSH1 0x20 PUSH3 0x3C3 DUP6 DUP3 DUP7 ADD PUSH3 0x36F JUMP JUMPDEST SWAP2 POP POP SWAP3 POP SWAP3 SWAP1 POP JUMP JUMPDEST PUSH1 0x80 MLOAD PUSH2 0x9CE6 PUSH3 0x43D PUSH1 0x0 CODECOPY PUSH1 0x0 DUP2 DUP2 PUSH2 0xE83 ADD MSTORE DUP2 DUP2 PUSH2 0x10E1 ADD MSTORE DUP2 DUP2 PUSH2 0x122A ADD MSTORE DUP2 DUP2 PUSH2 0x1872 ADD MSTORE DUP2 DUP2 PUSH2 0x1927 ADD MSTORE DUP2 DUP2 PUSH2 0x1963 ADD MSTORE DUP2 DUP2 PUSH2 0x1E71 ADD MSTORE DUP2 DUP2 PUSH2 0x2B99 ADD MSTORE DUP2 DUP2 PUSH2 0x349F ADD MSTORE DUP2 DUP2 PUSH2 0x38E6 ADD MSTORE DUP2 DUP2 PUSH2 0x3922 ADD MSTORE DUP2 DUP2 PUSH2 0x3B2C ADD MSTORE PUSH2 0x62EE ADD MSTORE PUSH2 0x9CE6 PUSH1 0x0 RETURN INVALID PUSH1 0x80 PUSH1 0x40 MSTORE PUSH1 0x4 CALLDATASIZE LT PUSH2 0x375 JUMPI PUSH1 0x0 CALLDATALOAD PUSH1 0xE0 SHR DUP1 PUSH4 0x950C8A74 GT PUSH2 0x1D1 JUMPI DUP1 PUSH4 0xCBED8B9C GT PUSH2 0x102 JUMPI DUP1 PUSH4 0xE2F28824 GT PUSH2 0xA0 JUMPI DUP1 PUSH4 0xF9CAD2AC GT PUSH2 0x6F JUMPI DUP1 PUSH4 0xF9CAD2AC EQ PUSH2 0xD9B JUMPI DUP1 PUSH4 0xFB895733 EQ PUSH2 0xDD8 JUMPI DUP1 PUSH4 0xFD590847 EQ PUSH2 0xE03 JUMPI DUP1 PUSH4 0xFF464D3F EQ PUSH2 0xE44 JUMPI PUSH2 0x375 JUMP JUMPDEST DUP1 PUSH4 0xE2F28824 EQ PUSH2 0xCCF JUMPI DUP1 PUSH4 0xEB8D72B7 EQ PUSH2 0xD0C JUMPI DUP1 PUSH4 0xF2FDE38B EQ PUSH2 0xD35 JUMPI DUP1 PUSH4 0xF5ECBDBC EQ PUSH2 0xD5E JUMPI PUSH2 0x375 JUMP JUMPDEST DUP1 PUSH4 0xD1DEBA1F GT PUSH2 0xDC JUMPI DUP1 PUSH4 0xD1DEBA1F EQ PUSH2 0xC24 JUMPI DUP1 PUSH4 0xDE45E98D EQ PUSH2 0xC40 JUMPI DUP1 PUSH4 0xDF2A5B3B EQ PUSH2 0xC7D JUMPI DUP1 PUSH4 0xE251E96D EQ PUSH2 0xCA6 JUMPI PUSH2 0x375 JUMP JUMPDEST DUP1 PUSH4 0xCBED8B9C EQ PUSH2 0xB81 JUMPI DUP1 PUSH4 0xCE5C8E14 EQ PUSH2 0xBAA JUMPI DUP1 PUSH4 0xCE7C2AC2 EQ PUSH2 0xBE7 JUMPI PUSH2 0x375 JUMP JUMPDEST DUP1 PUSH4 0xB212C8D3 GT PUSH2 0x16F JUMPI DUP1 PUSH4 0xB886DBCD GT PUSH2 0x149 JUMPI DUP1 PUSH4 0xB886DBCD EQ PUSH2 0xAB5 JUMPI DUP1 PUSH4 0xBAF3292D EQ PUSH2 0xAF2 JUMPI DUP1 PUSH4 0xBD99D7E1 EQ PUSH2 0xB1B JUMPI DUP1 PUSH4 0xBFEF22AC EQ PUSH2 0xB58 JUMPI PUSH2 0x375 JUMP JUMPDEST DUP1 PUSH4 0xB212C8D3 EQ PUSH2 0xA38 JUMPI DUP1 PUSH4 0xB353AAA7 EQ PUSH2 0xA61 JUMPI DUP1 PUSH4 0xB6161754 EQ PUSH2 0xA8C JUMPI PUSH2 0x375 JUMP JUMPDEST DUP1 PUSH4 0x9F38369A GT PUSH2 0x1AB JUMPI DUP1 PUSH4 0x9F38369A EQ PUSH2 0x97E JUMPI DUP1 PUSH4 0xA217FDDF EQ PUSH2 0x9BB JUMPI DUP1 PUSH4 0xA304DCF4 EQ PUSH2 0x9E6 JUMPI DUP1 PUSH4 0xA6C3D165 EQ PUSH2 0xA0F JUMPI PUSH2 0x375 JUMP JUMPDEST DUP1 PUSH4 0x950C8A74 EQ PUSH2 0x8FA JUMPI DUP1 PUSH4 0x9D3089F5 EQ PUSH2 0x925 JUMPI DUP1 PUSH4 0x9ED46705 EQ PUSH2 0x962 JUMPI PUSH2 0x375 JUMP JUMPDEST DUP1 PUSH4 0x4EFA685A GT PUSH2 0x2AB JUMPI DUP1 PUSH4 0x6CADCBD9 GT PUSH2 0x249 JUMPI DUP1 PUSH4 0x7533D788 GT PUSH2 0x223 JUMPI DUP1 PUSH4 0x7533D788 EQ PUSH2 0x818 JUMPI DUP1 PUSH4 0x8CFD8F5C EQ PUSH2 0x855 JUMPI DUP1 PUSH4 0x8DA5CB5B EQ PUSH2 0x892 JUMPI DUP1 PUSH4 0x91D14854 EQ PUSH2 0x8BD JUMPI PUSH2 0x375 JUMP JUMPDEST DUP1 PUSH4 0x6CADCBD9 EQ PUSH2 0x79B JUMPI DUP1 PUSH4 0x6D1DAA28 EQ PUSH2 0x7D8 JUMPI DUP1 PUSH4 0x715018A6 EQ PUSH2 0x801 JUMPI PUSH2 0x375 JUMP JUMPDEST DUP1 PUSH4 0x57463D35 GT PUSH2 0x285 JUMPI DUP1 PUSH4 0x57463D35 EQ PUSH2 0x6B6 JUMPI DUP1 PUSH4 0x5B8C41E6 EQ PUSH2 0x6F4 JUMPI DUP1 PUSH4 0x5E5C06E2 EQ PUSH2 0x731 JUMPI DUP1 PUSH4 0x66AD5C8A EQ PUSH2 0x772 JUMPI PUSH2 0x375 JUMP JUMPDEST DUP1 PUSH4 0x4EFA685A EQ PUSH2 0x5FF JUMPI DUP1 PUSH4 0x50414C35 EQ PUSH2 0x63C JUMPI DUP1 PUSH4 0x504F1671 EQ PUSH2 0x679 JUMPI PUSH2 0x375 JUMP JUMPDEST DUP1 PUSH4 0x30C593F7 GT PUSH2 0x318 JUMPI DUP1 PUSH4 0x3D8B38F6 GT PUSH2 0x2F2 JUMPI DUP1 PUSH4 0x3D8B38F6 EQ PUSH2 0x545 JUMPI DUP1 PUSH4 0x42D65A8D EQ PUSH2 0x582 JUMPI DUP1 PUSH4 0x47535D7B EQ PUSH2 0x5AB JUMPI DUP1 PUSH4 0x492E527E EQ PUSH2 0x5D6 JUMPI PUSH2 0x375 JUMP JUMPDEST DUP1 PUSH4 0x30C593F7 EQ PUSH2 0x4B2 JUMPI DUP1 PUSH4 0x38266B22 EQ PUSH2 0x4DD JUMPI DUP1 PUSH4 0x3A98EF39 EQ PUSH2 0x51A JUMPI PUSH2 0x375 JUMP JUMPDEST DUP1 PUSH4 0x85A10CF GT PUSH2 0x354 JUMPI DUP1 PUSH4 0x85A10CF EQ PUSH2 0x3F7 JUMPI DUP1 PUSH4 0x10DDB137 EQ PUSH2 0x420 JUMPI DUP1 PUSH4 0x19FC2E61 EQ PUSH2 0x449 JUMPI DUP1 PUSH4 0x2D0335AB EQ PUSH2 0x474 JUMPI PUSH2 0x375 JUMP JUMPDEST DUP1 PUSH3 0x1D3567 EQ PUSH2 0x37A JUMPI DUP1 PUSH4 0x7E0DB17 EQ PUSH2 0x3A3 JUMPI DUP1 PUSH4 0x83118D5 EQ PUSH2 0x3CC JUMPI JUMPDEST PUSH1 0x0 DUP1 REVERT JUMPDEST CALLVALUE DUP1 ISZERO PUSH2 0x386 JUMPI PUSH1 0x0 DUP1 REVERT JUMPDEST POP PUSH2 0x3A1 PUSH1 0x4 DUP1 CALLDATASIZE SUB DUP2 ADD SWAP1 PUSH2 0x39C SWAP2 SWAP1 PUSH2 0x6791 JUMP JUMPDEST PUSH2 0xE81 JUMP JUMPDEST STOP JUMPDEST CALLVALUE DUP1 ISZERO PUSH2 0x3AF JUMPI PUSH1 0x0 DUP1 REVERT JUMPDEST POP PUSH2 0x3CA PUSH1 0x4 DUP1 CALLDATASIZE SUB DUP2 ADD SWAP1 PUSH2 0x3C5 SWAP2 SWAP1 PUSH2 0x6838 JUMP JUMPDEST PUSH2 0x10D7 JUMP JUMPDEST STOP JUMPDEST CALLVALUE DUP1 ISZERO PUSH2 0x3D8 JUMPI PUSH1 0x0 DUP1 REVERT JUMPDEST POP PUSH2 0x3E1 PUSH2 0x116D JUMP JUMPDEST PUSH1 0x40 MLOAD PUSH2 0x3EE SWAP2 SWAP1 PUSH2 0x68F5 JUMP JUMPDEST PUSH1 0x40 MLOAD DUP1 SWAP2 SUB SWAP1 RETURN JUMPDEST CALLVALUE DUP1 ISZERO PUSH2 0x403 JUMPI PUSH1 0x0 DUP1 REVERT JUMPDEST POP PUSH2 0x41E PUSH1 0x4 DUP1 CALLDATASIZE SUB DUP2 ADD SWAP1 PUSH2 0x419 SWAP2 SWAP1 PUSH2 0x694F JUMP JUMPDEST PUSH2 0x11FB JUMP JUMPDEST STOP JUMPDEST CALLVALUE DUP1 ISZERO PUSH2 0x42C JUMPI PUSH1 0x0 DUP1 REVERT JUMPDEST POP PUSH2 0x447 PUSH1 0x4 DUP1 CALLDATASIZE SUB DUP2 ADD SWAP1 PUSH2 0x442 SWAP2 SWAP1 PUSH2 0x6838 JUMP JUMPDEST PUSH2 0x1220 JUMP JUMPDEST STOP JUMPDEST CALLVALUE DUP1 ISZERO PUSH2 0x455 JUMPI PUSH1 0x0 DUP1 REVERT JUMPDEST POP PUSH2 0x45E PUSH2 0x12B6 JUMP JUMPDEST PUSH1 0x40 MLOAD PUSH2 0x46B SWAP2 SWAP1 PUSH2 0x6995 JUMP JUMPDEST PUSH1 0x40 MLOAD DUP1 SWAP2 SUB SWAP1 RETURN JUMPDEST CALLVALUE DUP1 ISZERO PUSH2 0x480 JUMPI PUSH1 0x0 DUP1 REVERT JUMPDEST POP PUSH2 0x49B PUSH1 0x4 DUP1 CALLDATASIZE SUB DUP2 ADD SWAP1 PUSH2 0x496 SWAP2 SWAP1 PUSH2 0x6A0E JUMP JUMPDEST PUSH2 0x12DA JUMP JUMPDEST PUSH1 0x40 MLOAD PUSH2 0x4A9 SWAP3 SWAP2 SWAP1 PUSH2 0x6A54 JUMP JUMPDEST PUSH1 0x40 MLOAD DUP1 SWAP2 SUB SWAP1 RETURN JUMPDEST CALLVALUE DUP1 ISZERO PUSH2 0x4BE JUMPI PUSH1 0x0 DUP1 REVERT JUMPDEST POP PUSH2 0x4C7 PUSH2 0x1334 JUMP JUMPDEST PUSH1 0x40 MLOAD PUSH2 0x4D4 SWAP2 SWAP1 PUSH2 0x6A8C JUMP JUMPDEST PUSH1 0x40 MLOAD DUP1 SWAP2 SUB SWAP1 RETURN JUMPDEST CALLVALUE DUP1 ISZERO PUSH2 0x4E9 JUMPI PUSH1 0x0 DUP1 REVERT JUMPDEST POP PUSH2 0x504 PUSH1 0x4 DUP1 CALLDATASIZE SUB DUP2 ADD SWAP1 PUSH2 0x4FF SWAP2 SWAP1 PUSH2 0x6A0E JUMP JUMPDEST PUSH2 0x1348 JUMP JUMPDEST PUSH1 0x40 MLOAD PUSH2 0x511 SWAP2 SWAP1 PUSH2 0x6D05 JUMP JUMPDEST PUSH1 0x40 MLOAD DUP1 SWAP2 SUB SWAP1 RETURN JUMPDEST CALLVALUE DUP1 ISZERO PUSH2 0x526 JUMPI PUSH1 0x0 DUP1 REVERT JUMPDEST POP PUSH2 0x52F PUSH2 0x178E JUMP JUMPDEST PUSH1 0x40 MLOAD PUSH2 0x53C SWAP2 SWAP1 PUSH2 0x6D27 JUMP JUMPDEST PUSH1 0x40 MLOAD DUP1 SWAP2 SUB SWAP1 RETURN JUMPDEST CALLVALUE DUP1 ISZERO PUSH2 0x551 JUMPI PUSH1 0x0 DUP1 REVERT JUMPDEST POP PUSH2 0x56C PUSH1 0x4 DUP1 CALLDATASIZE SUB DUP2 ADD SWAP1 PUSH2 0x567 SWAP2 SWAP1 PUSH2 0x6D42 JUMP JUMPDEST PUSH2 0x1794 JUMP JUMPDEST PUSH1 0x40 MLOAD PUSH2 0x579 SWAP2 SWAP1 PUSH2 0x6DB1 JUMP JUMPDEST PUSH1 0x40 MLOAD DUP1 SWAP2 SUB SWAP1 RETURN JUMPDEST CALLVALUE DUP1 ISZERO PUSH2 0x58E JUMPI PUSH1 0x0 DUP1 REVERT JUMPDEST POP PUSH2 0x5A9 PUSH1 0x4 DUP1 CALLDATASIZE SUB DUP2 ADD SWAP1 PUSH2 0x5A4 SWAP2 SWAP1 PUSH2 0x6D42 JUMP JUMPDEST PUSH2 0x1868 JUMP JUMPDEST STOP JUMPDEST CALLVALUE DUP1 ISZERO PUSH2 0x5B7 JUMPI PUSH1 0x0 DUP1 REVERT JUMPDEST POP PUSH2 0x5C0 PUSH2 0x1904 JUMP JUMPDEST PUSH1 0x40 MLOAD PUSH2 0x5CD SWAP2 SWAP1 PUSH2 0x6DB1 JUMP JUMPDEST PUSH1 0x40 MLOAD DUP1 SWAP2 SUB SWAP1 RETURN JUMPDEST CALLVALUE DUP1 ISZERO PUSH2 0x5E2 JUMPI PUSH1 0x0 DUP1 REVERT JUMPDEST POP PUSH2 0x5FD PUSH1 0x4 DUP1 CALLDATASIZE SUB DUP2 ADD SWAP1 PUSH2 0x5F8 SWAP2 SWAP1 PUSH2 0x6DCC JUMP JUMPDEST PUSH2 0x1917 JUMP JUMPDEST STOP JUMPDEST CALLVALUE DUP1 ISZERO PUSH2 0x60B JUMPI PUSH1 0x0 DUP1 REVERT JUMPDEST POP PUSH2 0x626 PUSH1 0x4 DUP1 CALLDATASIZE SUB DUP2 ADD SWAP1 PUSH2 0x621 SWAP2 SWAP1 PUSH2 0x6E0C JUMP JUMPDEST PUSH2 0x1A73 JUMP JUMPDEST PUSH1 0x40 MLOAD PUSH2 0x633 SWAP2 SWAP1 PUSH2 0x6D27 JUMP JUMPDEST PUSH1 0x40 MLOAD DUP1 SWAP2 SUB SWAP1 RETURN JUMPDEST CALLVALUE DUP1 ISZERO PUSH2 0x648 JUMPI PUSH1 0x0 DUP1 REVERT JUMPDEST POP PUSH2 0x663 PUSH1 0x4 DUP1 CALLDATASIZE SUB DUP2 ADD SWAP1 PUSH2 0x65E SWAP2 SWAP1 PUSH2 0x6E78 JUMP JUMPDEST PUSH2 0x1A98 JUMP JUMPDEST PUSH1 0x40 MLOAD PUSH2 0x670 SWAP2 SWAP1 PUSH2 0x6EB4 JUMP JUMPDEST PUSH1 0x40 MLOAD DUP1 SWAP2 SUB SWAP1 RETURN JUMPDEST CALLVALUE DUP1 ISZERO PUSH2 0x685 JUMPI PUSH1 0x0 DUP1 REVERT JUMPDEST POP PUSH2 0x6A0 PUSH1 0x4 DUP1 CALLDATASIZE SUB DUP2 ADD SWAP1 PUSH2 0x69B SWAP2 SWAP1 PUSH2 0x6A0E JUMP JUMPDEST PUSH2 0x1AD7 JUMP JUMPDEST PUSH1 0x40 MLOAD PUSH2 0x6AD SWAP2 SWAP1 PUSH2 0x68F5 JUMP JUMPDEST PUSH1 0x40 MLOAD DUP1 SWAP2 SUB SWAP1 RETURN JUMPDEST CALLVALUE DUP1 ISZERO PUSH2 0x6C2 JUMPI PUSH1 0x0 DUP1 REVERT JUMPDEST POP PUSH2 0x6DD PUSH1 0x4 DUP1 CALLDATASIZE SUB DUP2 ADD SWAP1 PUSH2 0x6D8 SWAP2 SWAP1 PUSH2 0x6A0E JUMP JUMPDEST PUSH2 0x1E6C JUMP JUMPDEST PUSH1 0x40 MLOAD PUSH2 0x6EB SWAP3 SWAP2 SWAP1 PUSH2 0x6A54 JUMP JUMPDEST PUSH1 0x40 MLOAD DUP1 SWAP2 SUB SWAP1 RETURN JUMPDEST CALLVALUE DUP1 ISZERO PUSH2 0x700 JUMPI PUSH1 0x0 DUP1 REVERT JUMPDEST POP PUSH2 0x71B PUSH1 0x4 DUP1 CALLDATASIZE SUB DUP2 ADD SWAP1 PUSH2 0x716 SWAP2 SWAP1 PUSH2 0x6FFF JUMP JUMPDEST PUSH2 0x1F33 JUMP JUMPDEST PUSH1 0x40 MLOAD PUSH2 0x728 SWAP2 SWAP1 PUSH2 0x6995 JUMP JUMPDEST PUSH1 0x40 MLOAD DUP1 SWAP2 SUB SWAP1 RETURN JUMPDEST CALLVALUE DUP1 ISZERO PUSH2 0x73D JUMPI PUSH1 0x0 DUP1 REVERT JUMPDEST POP PUSH2 0x758 PUSH1 0x4 DUP1 CALLDATASIZE SUB DUP2 ADD SWAP1 PUSH2 0x753 SWAP2 SWAP1 PUSH2 0x6A0E JUMP JUMPDEST PUSH2 0x1F7B JUMP JUMPDEST PUSH1 0x40 MLOAD PUSH2 0x769 SWAP6 SWAP5 SWAP4 SWAP3 SWAP2 SWAP1 PUSH2 0x706E JUMP JUMPDEST PUSH1 0x40 MLOAD DUP1 SWAP2 SUB SWAP1 RETURN JUMPDEST CALLVALUE DUP1 ISZERO PUSH2 0x77E JUMPI PUSH1 0x0 DUP1 REVERT JUMPDEST POP PUSH2 0x799 PUSH1 0x4 DUP1 CALLDATASIZE SUB DUP2 ADD SWAP1 PUSH2 0x794 SWAP2 SWAP1 PUSH2 0x6791 JUMP JUMPDEST PUSH2 0x1FD1 JUMP JUMPDEST STOP JUMPDEST CALLVALUE DUP1 ISZERO PUSH2 0x7A7 JUMPI PUSH1 0x0 DUP1 REVERT JUMPDEST POP PUSH2 0x7C2 PUSH1 0x4 DUP1 CALLDATASIZE SUB DUP2 ADD SWAP1 PUSH2 0x7BD SWAP2 SWAP1 PUSH2 0x70C1 JUMP JUMPDEST PUSH2 0x20E2 JUMP JUMPDEST PUSH1 0x40 MLOAD PUSH2 0x7CF SWAP2 SWAP1 PUSH2 0x6995 JUMP JUMPDEST PUSH1 0x40 MLOAD DUP1 SWAP2 SUB SWAP1 RETURN JUMPDEST CALLVALUE DUP1 ISZERO PUSH2 0x7E4 JUMPI PUSH1 0x0 DUP1 REVERT JUMPDEST POP PUSH2 0x7FF PUSH1 0x4 DUP1 CALLDATASIZE SUB DUP2 ADD SWAP1 PUSH2 0x7FA SWAP2 SWAP1 PUSH2 0x7101 JUMP JUMPDEST PUSH2 0x2113 JUMP JUMPDEST STOP JUMPDEST CALLVALUE DUP1 ISZERO PUSH2 0x80D JUMPI PUSH1 0x0 DUP1 REVERT JUMPDEST POP PUSH2 0x816 PUSH2 0x2150 JUMP JUMPDEST STOP JUMPDEST CALLVALUE DUP1 ISZERO PUSH2 0x824 JUMPI PUSH1 0x0 DUP1 REVERT JUMPDEST POP PUSH2 0x83F PUSH1 0x4 DUP1 CALLDATASIZE SUB DUP2 ADD SWAP1 PUSH2 0x83A SWAP2 SWAP1 PUSH2 0x6838 JUMP JUMPDEST PUSH2 0x2164 JUMP JUMPDEST PUSH1 0x40 MLOAD PUSH2 0x84C SWAP2 SWAP1 PUSH2 0x68F5 JUMP JUMPDEST PUSH1 0x40 MLOAD DUP1 SWAP2 SUB SWAP1 RETURN JUMPDEST CALLVALUE DUP1 ISZERO PUSH2 0x861 JUMPI PUSH1 0x0 DUP1 REVERT JUMPDEST POP PUSH2 0x87C PUSH1 0x4 DUP1 CALLDATASIZE SUB DUP2 ADD SWAP1 PUSH2 0x877 SWAP2 SWAP1 PUSH2 0x7141 JUMP JUMPDEST PUSH2 0x2204 JUMP JUMPDEST PUSH1 0x40 MLOAD PUSH2 0x889 SWAP2 SWAP1 PUSH2 0x6D27 JUMP JUMPDEST PUSH1 0x40 MLOAD DUP1 SWAP2 SUB SWAP1 RETURN JUMPDEST CALLVALUE DUP1 ISZERO PUSH2 0x89E JUMPI PUSH1 0x0 DUP1 REVERT JUMPDEST POP PUSH2 0x8A7 PUSH2 0x2229 JUMP JUMPDEST PUSH1 0x40 MLOAD PUSH2 0x8B4 SWAP2 SWAP1 PUSH2 0x6EB4 JUMP JUMPDEST PUSH1 0x40 MLOAD DUP1 SWAP2 SUB SWAP1 RETURN JUMPDEST CALLVALUE DUP1 ISZERO PUSH2 0x8C9 JUMPI PUSH1 0x0 DUP1 REVERT JUMPDEST POP PUSH2 0x8E4 PUSH1 0x4 DUP1 CALLDATASIZE SUB DUP2 ADD SWAP1 PUSH2 0x8DF SWAP2 SWAP1 PUSH2 0x71AD JUMP JUMPDEST PUSH2 0x2252 JUMP JUMPDEST PUSH1 0x40 MLOAD PUSH2 0x8F1 SWAP2 SWAP1 PUSH2 0x6DB1 JUMP JUMPDEST PUSH1 0x40 MLOAD DUP1 SWAP2 SUB SWAP1 RETURN JUMPDEST CALLVALUE DUP1 ISZERO PUSH2 0x906 JUMPI PUSH1 0x0 DUP1 REVERT JUMPDEST POP PUSH2 0x90F PUSH2 0x22BD JUMP JUMPDEST PUSH1 0x40 MLOAD PUSH2 0x91C SWAP2 SWAP1 PUSH2 0x6EB4 JUMP JUMPDEST PUSH1 0x40 MLOAD DUP1 SWAP2 SUB SWAP1 RETURN JUMPDEST CALLVALUE DUP1 ISZERO PUSH2 0x931 JUMPI PUSH1 0x0 DUP1 REVERT JUMPDEST POP PUSH2 0x94C PUSH1 0x4 DUP1 CALLDATASIZE SUB DUP2 ADD SWAP1 PUSH2 0x947 SWAP2 SWAP1 PUSH2 0x6E0C JUMP JUMPDEST PUSH2 0x22E3 JUMP JUMPDEST PUSH1 0x40 MLOAD PUSH2 0x959 SWAP2 SWAP1 PUSH2 0x6D27 JUMP JUMPDEST PUSH1 0x40 MLOAD DUP1 SWAP2 SUB SWAP1 RETURN JUMPDEST PUSH2 0x97C PUSH1 0x4 DUP1 CALLDATASIZE SUB DUP2 ADD SWAP1 PUSH2 0x977 SWAP2 SWAP1 PUSH2 0x74F9 JUMP JUMPDEST PUSH2 0x2308 JUMP JUMPDEST STOP JUMPDEST CALLVALUE DUP1 ISZERO PUSH2 0x98A JUMPI PUSH1 0x0 DUP1 REVERT JUMPDEST POP PUSH2 0x9A5 PUSH1 0x4 DUP1 CALLDATASIZE SUB DUP2 ADD SWAP1 PUSH2 0x9A0 SWAP2 SWAP1 PUSH2 0x6838 JUMP JUMPDEST PUSH2 0x2781 JUMP JUMPDEST PUSH1 0x40 MLOAD PUSH2 0x9B2 SWAP2 SWAP1 PUSH2 0x68F5 JUMP JUMPDEST PUSH1 0x40 MLOAD DUP1 SWAP2 SUB SWAP1 RETURN JUMPDEST CALLVALUE DUP1 ISZERO PUSH2 0x9C7 JUMPI PUSH1 0x0 DUP1 REVERT JUMPDEST POP PUSH2 0x9D0 PUSH2 0x289A JUMP JUMPDEST PUSH1 0x40 MLOAD PUSH2 0x9DD SWAP2 SWAP1 PUSH2 0x6995 JUMP JUMPDEST PUSH1 0x40 MLOAD DUP1 SWAP2 SUB SWAP1 RETURN JUMPDEST CALLVALUE DUP1 ISZERO PUSH2 0x9F2 JUMPI PUSH1 0x0 DUP1 REVERT JUMPDEST POP PUSH2 0xA0D PUSH1 0x4 DUP1 CALLDATASIZE SUB DUP2 ADD SWAP1 PUSH2 0xA08 SWAP2 SWAP1 PUSH2 0x7555 JUMP JUMPDEST PUSH2 0x28A1 JUMP JUMPDEST STOP JUMPDEST CALLVALUE DUP1 ISZERO PUSH2 0xA1B JUMPI PUSH1 0x0 DUP1 REVERT JUMPDEST POP PUSH2 0xA36 PUSH1 0x4 DUP1 CALLDATASIZE SUB DUP2 ADD SWAP1 PUSH2 0xA31 SWAP2 SWAP1 PUSH2 0x6D42 JUMP JUMPDEST PUSH2 0x2904 JUMP JUMPDEST STOP JUMPDEST CALLVALUE DUP1 ISZERO PUSH2 0xA44 JUMPI PUSH1 0x0 DUP1 REVERT JUMPDEST POP PUSH2 0xA5F PUSH1 0x4 DUP1 CALLDATASIZE SUB DUP2 ADD SWAP1 PUSH2 0xA5A SWAP2 SWAP1 PUSH2 0x7975 JUMP JUMPDEST PUSH2 0x2998 JUMP JUMPDEST STOP JUMPDEST CALLVALUE DUP1 ISZERO PUSH2 0xA6D JUMPI PUSH1 0x0 DUP1 REVERT JUMPDEST POP PUSH2 0xA76 PUSH2 0x2B97 JUMP JUMPDEST PUSH1 0x40 MLOAD PUSH2 0xA83 SWAP2 SWAP1 PUSH2 0x7A30 JUMP JUMPDEST PUSH1 0x40 MLOAD DUP1 SWAP2 SUB SWAP1 RETURN JUMPDEST CALLVALUE DUP1 ISZERO PUSH2 0xA98 JUMPI PUSH1 0x0 DUP1 REVERT JUMPDEST POP PUSH2 0xAB3 PUSH1 0x4 DUP1 CALLDATASIZE SUB DUP2 ADD SWAP1 PUSH2 0xAAE SWAP2 SWAP1 PUSH2 0x7555 JUMP JUMPDEST PUSH2 0x2BBB JUMP JUMPDEST STOP JUMPDEST CALLVALUE DUP1 ISZERO PUSH2 0xAC1 JUMPI PUSH1 0x0 DUP1 REVERT JUMPDEST POP PUSH2 0xADC PUSH1 0x4 DUP1 CALLDATASIZE SUB DUP2 ADD SWAP1 PUSH2 0xAD7 SWAP2 SWAP1 PUSH2 0x6E0C JUMP JUMPDEST PUSH2 0x2C53 JUMP JUMPDEST PUSH1 0x40 MLOAD PUSH2 0xAE9 SWAP2 SWAP1 PUSH2 0x6D27 JUMP JUMPDEST PUSH1 0x40 MLOAD DUP1 SWAP2 SUB SWAP1 RETURN JUMPDEST CALLVALUE DUP1 ISZERO PUSH2 0xAFE JUMPI PUSH1 0x0 DUP1 REVERT JUMPDEST POP PUSH2 0xB19 PUSH1 0x4 DUP1 CALLDATASIZE SUB DUP2 ADD SWAP1 PUSH2 0xB14 SWAP2 SWAP1 PUSH2 0x6A0E JUMP JUMPDEST PUSH2 0x2C78 JUMP JUMPDEST STOP JUMPDEST CALLVALUE DUP1 ISZERO PUSH2 0xB27 JUMPI PUSH1 0x0 DUP1 REVERT JUMPDEST POP PUSH2 0xB42 PUSH1 0x4 DUP1 CALLDATASIZE SUB DUP2 ADD SWAP1 PUSH2 0xB3D SWAP2 SWAP1 PUSH2 0x7A4B JUMP JUMPDEST PUSH2 0x2CFB JUMP JUMPDEST PUSH1 0x40 MLOAD PUSH2 0xB4F SWAP2 SWAP1 PUSH2 0x6995 JUMP JUMPDEST PUSH1 0x40 MLOAD DUP1 SWAP2 SUB SWAP1 RETURN JUMPDEST CALLVALUE DUP1 ISZERO PUSH2 0xB64 JUMPI PUSH1 0x0 DUP1 REVERT JUMPDEST POP PUSH2 0xB7F PUSH1 0x4 DUP1 CALLDATASIZE SUB DUP2 ADD SWAP1 PUSH2 0xB7A SWAP2 SWAP1 PUSH2 0x7BB2 JUMP JUMPDEST PUSH2 0x2D19 JUMP JUMPDEST STOP JUMPDEST CALLVALUE DUP1 ISZERO PUSH2 0xB8D JUMPI PUSH1 0x0 DUP1 REVERT JUMPDEST POP PUSH2 0xBA8 PUSH1 0x4 DUP1 CALLDATASIZE SUB DUP2 ADD SWAP1 PUSH2 0xBA3 SWAP2 SWAP1 PUSH2 0x7BFB JUMP JUMPDEST PUSH2 0x3495 JUMP JUMPDEST STOP JUMPDEST CALLVALUE DUP1 ISZERO PUSH2 0xBB6 JUMPI PUSH1 0x0 DUP1 REVERT JUMPDEST POP PUSH2 0xBD1 PUSH1 0x4 DUP1 CALLDATASIZE SUB DUP2 ADD SWAP1 PUSH2 0xBCC SWAP2 SWAP1 PUSH2 0x70C1 JUMP JUMPDEST PUSH2 0x3537 JUMP JUMPDEST PUSH1 0x40 MLOAD PUSH2 0xBDE SWAP2 SWAP1 PUSH2 0x6995 JUMP JUMPDEST PUSH1 0x40 MLOAD DUP1 SWAP2 SUB SWAP1 RETURN JUMPDEST CALLVALUE DUP1 ISZERO PUSH2 0xBF3 JUMPI PUSH1 0x0 DUP1 REVERT JUMPDEST POP PUSH2 0xC0E PUSH1 0x4 DUP1 CALLDATASIZE SUB DUP2 ADD SWAP1 PUSH2 0xC09 SWAP2 SWAP1 PUSH2 0x6A0E JUMP JUMPDEST PUSH2 0x3568 JUMP JUMPDEST PUSH1 0x40 MLOAD PUSH2 0xC1B SWAP2 SWAP1 PUSH2 0x6D27 JUMP JUMPDEST PUSH1 0x40 MLOAD DUP1 SWAP2 SUB SWAP1 RETURN JUMPDEST PUSH2 0xC3E PUSH1 0x4 DUP1 CALLDATASIZE SUB DUP2 ADD SWAP1 PUSH2 0xC39 SWAP2 SWAP1 PUSH2 0x6791 JUMP JUMPDEST PUSH2 0x3580 JUMP JUMPDEST STOP JUMPDEST CALLVALUE DUP1 ISZERO PUSH2 0xC4C JUMPI PUSH1 0x0 DUP1 REVERT JUMPDEST POP PUSH2 0xC67 PUSH1 0x4 DUP1 CALLDATASIZE SUB DUP2 ADD SWAP1 PUSH2 0xC62 SWAP2 SWAP1 PUSH2 0x6E0C JUMP JUMPDEST PUSH2 0x37C3 JUMP JUMPDEST PUSH1 0x40 MLOAD PUSH2 0xC74 SWAP2 SWAP1 PUSH2 0x6D27 JUMP JUMPDEST PUSH1 0x40 MLOAD DUP1 SWAP2 SUB SWAP1 RETURN JUMPDEST CALLVALUE DUP1 ISZERO PUSH2 0xC89 JUMPI PUSH1 0x0 DUP1 REVERT JUMPDEST POP PUSH2 0xCA4 PUSH1 0x4 DUP1 CALLDATASIZE SUB DUP2 ADD SWAP1 PUSH2 0xC9F SWAP2 SWAP1 PUSH2 0x7C83 JUMP JUMPDEST PUSH2 0x37E8 JUMP JUMPDEST STOP JUMPDEST CALLVALUE DUP1 ISZERO PUSH2 0xCB2 JUMPI PUSH1 0x0 DUP1 REVERT JUMPDEST POP PUSH2 0xCCD PUSH1 0x4 DUP1 CALLDATASIZE SUB DUP2 ADD SWAP1 PUSH2 0xCC8 SWAP2 SWAP1 PUSH2 0x6A0E JUMP JUMPDEST PUSH2 0x38AC JUMP JUMPDEST STOP JUMPDEST CALLVALUE DUP1 ISZERO PUSH2 0xCDB JUMPI PUSH1 0x0 DUP1 REVERT JUMPDEST POP PUSH2 0xCF6 PUSH1 0x4 DUP1 CALLDATASIZE SUB DUP2 ADD SWAP1 PUSH2 0xCF1 SWAP2 SWAP1 PUSH2 0x6838 JUMP JUMPDEST PUSH2 0x38E1 JUMP JUMPDEST PUSH1 0x40 MLOAD PUSH2 0xD03 SWAP2 SWAP1 PUSH2 0x6EB4 JUMP JUMPDEST PUSH1 0x40 MLOAD DUP1 SWAP2 SUB SWAP1 RETURN JUMPDEST CALLVALUE DUP1 ISZERO PUSH2 0xD18 JUMPI PUSH1 0x0 DUP1 REVERT JUMPDEST POP PUSH2 0xD33 PUSH1 0x4 DUP1 CALLDATASIZE SUB DUP2 ADD SWAP1 PUSH2 0xD2E SWAP2 SWAP1 PUSH2 0x6D42 JUMP JUMPDEST PUSH2 0x3A32 JUMP JUMPDEST STOP JUMPDEST CALLVALUE DUP1 ISZERO PUSH2 0xD41 JUMPI PUSH1 0x0 DUP1 REVERT JUMPDEST POP PUSH2 0xD5C PUSH1 0x4 DUP1 CALLDATASIZE SUB DUP2 ADD SWAP1 PUSH2 0xD57 SWAP2 SWAP1 PUSH2 0x6A0E JUMP JUMPDEST PUSH2 0x3AA5 JUMP JUMPDEST STOP JUMPDEST CALLVALUE DUP1 ISZERO PUSH2 0xD6A JUMPI PUSH1 0x0 DUP1 REVERT JUMPDEST POP PUSH2 0xD85 PUSH1 0x4 DUP1 CALLDATASIZE SUB DUP2 ADD SWAP1 PUSH2 0xD80 SWAP2 SWAP1 PUSH2 0x7CD6 JUMP JUMPDEST PUSH2 0x3B28 JUMP JUMPDEST PUSH1 0x40 MLOAD PUSH2 0xD92 SWAP2 SWAP1 PUSH2 0x68F5 JUMP JUMPDEST PUSH1 0x40 MLOAD DUP1 SWAP2 SUB SWAP1 RETURN JUMPDEST CALLVALUE DUP1 ISZERO PUSH2 0xDA7 JUMPI PUSH1 0x0 DUP1 REVERT JUMPDEST POP PUSH2 0xDC2 PUSH1 0x4 DUP1 CALLDATASIZE SUB DUP2 ADD SWAP1 PUSH2 0xDBD SWAP2 SWAP1 PUSH2 0x6E0C JUMP JUMPDEST PUSH2 0x3BD9 JUMP JUMPDEST PUSH1 0x40 MLOAD PUSH2 0xDCF SWAP2 SWAP1 PUSH2 0x6DB1 JUMP JUMPDEST PUSH1 0x40 MLOAD DUP1 SWAP2 SUB SWAP1 RETURN JUMPDEST CALLVALUE DUP1 ISZERO PUSH2 0xDE4 JUMPI PUSH1 0x0 DUP1 REVERT JUMPDEST POP PUSH2 0xDED PUSH2 0x3C08 JUMP JUMPDEST PUSH1 0x40 MLOAD PUSH2 0xDFA SWAP2 SWAP1 PUSH2 0x6995 JUMP JUMPDEST PUSH1 0x40 MLOAD DUP1 SWAP2 SUB SWAP1 RETURN JUMPDEST CALLVALUE DUP1 ISZERO PUSH2 0xE0F JUMPI PUSH1 0x0 DUP1 REVERT JUMPDEST POP PUSH2 0xE2A PUSH1 0x4 DUP1 CALLDATASIZE SUB DUP2 ADD SWAP1 PUSH2 0xE25 SWAP2 SWAP1 PUSH2 0x6E0C JUMP JUMPDEST PUSH2 0x3C2C JUMP JUMPDEST PUSH1 0x40 MLOAD PUSH2 0xE3B SWAP6 SWAP5 SWAP4 SWAP3 SWAP2 SWAP1 PUSH2 0x7D3D JUMP JUMPDEST PUSH1 0x40 MLOAD DUP1 SWAP2 SUB SWAP1 RETURN JUMPDEST CALLVALUE DUP1 ISZERO PUSH2 0xE50 JUMPI PUSH1 0x0 DUP1 REVERT JUMPDEST POP PUSH2 0xE6B PUSH1 0x4 DUP1 CALLDATASIZE SUB DUP2 ADD SWAP1 PUSH2 0xE66 SWAP2 SWAP1 PUSH2 0x6A0E JUMP JUMPDEST PUSH2 0x3D1A JUMP JUMPDEST PUSH1 0x40 MLOAD PUSH2 0xE78 SWAP2 SWAP1 PUSH2 0x6DB1 JUMP JUMPDEST PUSH1 0x40 MLOAD DUP1 SWAP2 SUB SWAP1 RETURN JUMPDEST PUSH32 0x0 PUSH20 0xFFFFFFFFFFFFFFFFFFFFFFFFFFFFFFFFFFFFFFFF AND PUSH2 0xEC0 PUSH2 0x3D3A JUMP JUMPDEST PUSH20 0xFFFFFFFFFFFFFFFFFFFFFFFFFFFFFFFFFFFFFFFF AND EQ PUSH2 0xF16 JUMPI PUSH1 0x40 MLOAD PUSH32 0x8C379A000000000000000000000000000000000000000000000000000000000 DUP2 MSTORE PUSH1 0x4 ADD PUSH2 0xF0D SWAP1 PUSH2 0x7DED JUMP JUMPDEST PUSH1 0x40 MLOAD DUP1 SWAP2 SUB SWAP1 REVERT JUMPDEST PUSH1 0x0 PUSH1 0x1 PUSH1 0x0 DUP9 PUSH2 0xFFFF AND PUSH2 0xFFFF AND DUP2 MSTORE PUSH1 0x20 ADD SWAP1 DUP2 MSTORE PUSH1 0x20 ADD PUSH1 0x0 KECCAK256 DUP1 SLOAD PUSH2 0xF3E SWAP1 PUSH2 0x7E3C JUMP JUMPDEST DUP1 PUSH1 0x1F ADD PUSH1 0x20 DUP1 SWAP2 DIV MUL PUSH1 0x20 ADD PUSH1 0x40 MLOAD SWAP1 DUP2 ADD PUSH1 0x40 MSTORE DUP1 SWAP3 SWAP2 SWAP1 DUP2 DUP2 MSTORE PUSH1 0x20 ADD DUP3 DUP1 SLOAD PUSH2 0xF6A SWAP1 PUSH2 0x7E3C JUMP JUMPDEST DUP1 ISZERO PUSH2 0xFB7 JUMPI DUP1 PUSH1 0x1F LT PUSH2 0xF8C JUMPI PUSH2 0x100 DUP1 DUP4 SLOAD DIV MUL DUP4 MSTORE SWAP2 PUSH1 0x20 ADD SWAP2 PUSH2 0xFB7 JUMP JUMPDEST DUP3 ADD SWAP2 SWAP1 PUSH1 0x0 MSTORE PUSH1 0x20 PUSH1 0x0 KECCAK256 SWAP1 JUMPDEST DUP2 SLOAD DUP2 MSTORE SWAP1 PUSH1 0x1 ADD SWAP1 PUSH1 0x20 ADD DUP1 DUP4 GT PUSH2 0xF9A JUMPI DUP3 SWAP1 SUB PUSH1 0x1F AND DUP3 ADD SWAP2 JUMPDEST POP POP POP POP POP SWAP1 POP DUP1 MLOAD DUP7 DUP7 SWAP1 POP EQ DUP1 ISZERO PUSH2 0xFD2 JUMPI POP PUSH1 0x0 DUP2 MLOAD GT JUMPDEST DUP1 ISZERO PUSH2 0xFFB JUMPI POP DUP1 DUP1 MLOAD SWAP1 PUSH1 0x20 ADD KECCAK256 DUP7 DUP7 PUSH1 0x40 MLOAD PUSH2 0xFF1 SWAP3 SWAP2 SWAP1 PUSH2 0x7E9D JUMP JUMPDEST PUSH1 0x40 MLOAD DUP1 SWAP2 SUB SWAP1 KECCAK256 EQ JUMPDEST PUSH2 0x103A JUMPI PUSH1 0x40 MLOAD PUSH32 0x8C379A000000000000000000000000000000000000000000000000000000000 DUP2 MSTORE PUSH1 0x4 ADD PUSH2 0x1031 SWAP1 PUSH2 0x7F28 JUMP JUMPDEST PUSH1 0x40 MLOAD DUP1 SWAP2 SUB SWAP1 REVERT JUMPDEST PUSH2 0x10CE DUP8 DUP8 DUP8 DUP1 DUP1 PUSH1 0x1F ADD PUSH1 0x20 DUP1 SWAP2 DIV MUL PUSH1 0x20 ADD PUSH1 0x40 MLOAD SWAP1 DUP2 ADD PUSH1 0x40 MSTORE DUP1 SWAP4 SWAP3 SWAP2 SWAP1 DUP2 DUP2 MSTORE PUSH1 0x20 ADD DUP4 DUP4 DUP1 DUP3 DUP5 CALLDATACOPY PUSH1 0x0 DUP2 DUP5 ADD MSTORE PUSH1 0x1F NOT PUSH1 0x1F DUP3 ADD AND SWAP1 POP DUP1 DUP4 ADD SWAP3 POP POP POP POP POP POP POP DUP7 DUP7 DUP7 DUP1 DUP1 PUSH1 0x1F ADD PUSH1 0x20 DUP1 SWAP2 DIV MUL PUSH1 0x20 ADD PUSH1 0x40 MLOAD SWAP1 DUP2 ADD PUSH1 0x40 MSTORE DUP1 SWAP4 SWAP3 SWAP2 SWAP1 DUP2 DUP2 MSTORE PUSH1 0x20 ADD DUP4 DUP4 DUP1 DUP3 DUP5 CALLDATACOPY PUSH1 0x0 DUP2 DUP5 ADD MSTORE PUSH1 0x1F NOT PUSH1 0x1F DUP3 ADD AND SWAP1 POP DUP1 DUP4 ADD SWAP3 POP POP POP POP POP POP POP PUSH2 0x3D42 JUMP JUMPDEST POP POP POP POP POP POP POP JUMP JUMPDEST PUSH2 0x10DF PUSH2 0x3E0D JUMP JUMPDEST PUSH32 0x0 PUSH20 0xFFFFFFFFFFFFFFFFFFFFFFFFFFFFFFFFFFFFFFFF AND PUSH4 0x7E0DB17 DUP3 PUSH1 0x40 MLOAD DUP3 PUSH4 0xFFFFFFFF AND PUSH1 0xE0 SHL DUP2 MSTORE PUSH1 0x4 ADD PUSH2 0x1138 SWAP2 SWAP1 PUSH2 0x6A8C JUMP JUMPDEST PUSH1 0x0 PUSH1 0x40 MLOAD DUP1 DUP4 SUB DUP2 PUSH1 0x0 DUP8 DUP1 EXTCODESIZE ISZERO DUP1 ISZERO PUSH2 0x1152 JUMPI PUSH1 0x0 DUP1 REVERT JUMPDEST POP GAS CALL ISZERO DUP1 ISZERO PUSH2 0x1166 JUMPI RETURNDATASIZE PUSH1 0x0 DUP1 RETURNDATACOPY RETURNDATASIZE PUSH1 0x0 REVERT JUMPDEST POP POP POP POP POP JUMP JUMPDEST PUSH1 0xA DUP1 SLOAD PUSH2 0x117A SWAP1 PUSH2 0x7E3C JUMP JUMPDEST DUP1 PUSH1 0x1F ADD PUSH1 0x20 DUP1 SWAP2 DIV MUL PUSH1 0x20 ADD PUSH1 0x40 MLOAD SWAP1 DUP2 ADD PUSH1 0x40 MSTORE DUP1 SWAP3 SWAP2 SWAP1 DUP2 DUP2 MSTORE PUSH1 0x20 ADD DUP3 DUP1 SLOAD PUSH2 0x11A6 SWAP1 PUSH2 0x7E3C JUMP JUMPDEST DUP1 ISZERO PUSH2 0x11F3 JUMPI DUP1 PUSH1 0x1F LT PUSH2 0x11C8 JUMPI PUSH2 0x100 DUP1 DUP4 SLOAD DIV MUL DUP4 MSTORE SWAP2 PUSH1 0x20 ADD SWAP2 PUSH2 0x11F3 JUMP JUMPDEST DUP3 ADD SWAP2 SWAP1 PUSH1 0x0 MSTORE PUSH1 0x20 PUSH1 0x0 KECCAK256 SWAP1 JUMPDEST DUP2 SLOAD DUP2 MSTORE SWAP1 PUSH1 0x1 ADD SWAP1 PUSH1 0x20 ADD DUP1 DUP4 GT PUSH2 0x11D6 JUMPI DUP3 SWAP1 SUB PUSH1 0x1F AND DUP3 ADD SWAP2 JUMPDEST POP POP POP POP POP DUP2 JUMP JUMPDEST PUSH2 0x1203 PUSH2 0x3E0D JUMP JUMPDEST DUP1 PUSH1 0x7 PUSH1 0x2 PUSH2 0x100 EXP DUP2 SLOAD DUP2 PUSH1 0xFF MUL NOT AND SWAP1 DUP4 ISZERO ISZERO MUL OR SWAP1 SSTORE POP POP JUMP JUMPDEST PUSH2 0x1228 PUSH2 0x3E0D JUMP JUMPDEST PUSH32 0x0 PUSH20 0xFFFFFFFFFFFFFFFFFFFFFFFFFFFFFFFFFFFFFFFF AND PUSH4 0x10DDB137 DUP3 PUSH1 0x40 MLOAD DUP3 PUSH4 0xFFFFFFFF AND PUSH1 0xE0 SHL DUP2 MSTORE PUSH1 0x4 ADD PUSH2 0x1281 SWAP2 SWAP1 PUSH2 0x6A8C JUMP JUMPDEST PUSH1 0x0 PUSH1 0x40 MLOAD DUP1 DUP4 SUB DUP2 PUSH1 0x0 DUP8 DUP1 EXTCODESIZE ISZERO DUP1 ISZERO PUSH2 0x129B JUMPI PUSH1 0x0 DUP1 REVERT JUMPDEST POP GAS CALL ISZERO DUP1 ISZERO PUSH2 0x12AF JUMPI RETURNDATASIZE PUSH1 0x0 DUP1 RETURNDATACOPY RETURNDATASIZE PUSH1 0x0 REVERT JUMPDEST POP POP POP POP POP JUMP JUMPDEST PUSH32 0x52941335797217779AB62CF10A3AE2B6D453B5F3A1285E7A816EB9F63A58D669 DUP2 JUMP JUMPDEST PUSH1 0x0 DUP1 PUSH1 0x0 PUSH1 0x13 PUSH1 0x0 DUP6 PUSH20 0xFFFFFFFFFFFFFFFFFFFFFFFFFFFFFFFFFFFFFFFF AND PUSH20 0xFFFFFFFFFFFFFFFFFFFFFFFFFFFFFFFFFFFFFFFF AND DUP2 MSTORE PUSH1 0x20 ADD SWAP1 DUP2 MSTORE PUSH1 0x20 ADD PUSH1 0x0 KECCAK256 SWAP1 POP DUP1 PUSH1 0x3 ADD SLOAD DUP2 PUSH1 0x6 ADD SLOAD SWAP3 POP SWAP3 POP POP SWAP2 POP SWAP2 JUMP JUMPDEST PUSH1 0x7 PUSH1 0x0 SWAP1 SLOAD SWAP1 PUSH2 0x100 EXP SWAP1 DIV PUSH2 0xFFFF AND DUP2 JUMP JUMPDEST PUSH2 0x1350 PUSH2 0x6636 JUMP JUMPDEST PUSH1 0x0 PUSH1 0x8 DUP1 SLOAD SWAP1 POP PUSH8 0xFFFFFFFFFFFFFFFF DUP2 GT ISZERO PUSH2 0x1371 JUMPI PUSH2 0x1370 PUSH2 0x6ED4 JUMP JUMPDEST JUMPDEST PUSH1 0x40 MLOAD SWAP1 DUP1 DUP3 MSTORE DUP1 PUSH1 0x20 MUL PUSH1 0x20 ADD DUP3 ADD PUSH1 0x40 MSTORE DUP1 ISZERO PUSH2 0x139F JUMPI DUP2 PUSH1 0x20 ADD PUSH1 0x20 DUP3 MUL DUP1 CALLDATASIZE DUP4 CALLDATACOPY DUP1 DUP3 ADD SWAP2 POP POP SWAP1 POP JUMPDEST POP SWAP1 POP PUSH1 0x0 PUSH1 0x8 DUP1 SLOAD SWAP1 POP PUSH8 0xFFFFFFFFFFFFFFFF DUP2 GT ISZERO PUSH2 0x13C3 JUMPI PUSH2 0x13C2 PUSH2 0x6ED4 JUMP JUMPDEST JUMPDEST PUSH1 0x40 MLOAD SWAP1 DUP1 DUP3 MSTORE DUP1 PUSH1 0x20 MUL PUSH1 0x20 ADD DUP3 ADD PUSH1 0x40 MSTORE DUP1 ISZERO PUSH2 0x13F1 JUMPI DUP2 PUSH1 0x20 ADD PUSH1 0x20 DUP3 MUL DUP1 CALLDATASIZE DUP4 CALLDATACOPY DUP1 DUP3 ADD SWAP2 POP POP SWAP1 POP JUMPDEST POP SWAP1 POP PUSH1 0x0 DUP1 PUSH2 0x1400 DUP7 PUSH2 0x1E6C JUMP JUMPDEST SWAP2 POP SWAP2 POP PUSH1 0x0 JUMPDEST PUSH1 0x8 DUP1 SLOAD SWAP1 POP DUP2 LT ISZERO PUSH2 0x15E1 JUMPI PUSH1 0x13 PUSH1 0x0 DUP9 PUSH20 0xFFFFFFFFFFFFFFFFFFFFFFFFFFFFFFFFFFFFFFFF AND PUSH20 0xFFFFFFFFFFFFFFFFFFFFFFFFFFFFFFFFFFFFFFFF AND DUP2 MSTORE PUSH1 0x20 ADD SWAP1 DUP2 MSTORE PUSH1 0x20 ADD PUSH1 0x0 KECCAK256 PUSH1 0x2 ADD PUSH1 0x0 PUSH1 0x8 DUP4 DUP2 SLOAD DUP2 LT PUSH2 0x146C JUMPI PUSH2 0x146B PUSH2 0x7F48 JUMP JUMPDEST JUMPDEST SWAP1 PUSH1 0x0 MSTORE PUSH1 0x20 PUSH1 0x0 KECCAK256 ADD PUSH1 0x0 SWAP1 SLOAD SWAP1 PUSH2 0x100 EXP SWAP1 DIV PUSH20 0xFFFFFFFFFFFFFFFFFFFFFFFFFFFFFFFFFFFFFFFF AND PUSH20 0xFFFFFFFFFFFFFFFFFFFFFFFFFFFFFFFFFFFFFFFF AND PUSH20 0xFFFFFFFFFFFFFFFFFFFFFFFFFFFFFFFFFFFFFFFF AND DUP2 MSTORE PUSH1 0x20 ADD SWAP1 DUP2 MSTORE PUSH1 0x20 ADD PUSH1 0x0 KECCAK256 SLOAD DUP6 DUP3 DUP2 MLOAD DUP2 LT PUSH2 0x14E5 JUMPI PUSH2 0x14E4 PUSH2 0x7F48 JUMP JUMPDEST JUMPDEST PUSH1 0x20 MUL PUSH1 0x20 ADD ADD DUP2 DUP2 MSTORE POP POP PUSH1 0x13 PUSH1 0x0 DUP9 PUSH20 0xFFFFFFFFFFFFFFFFFFFFFFFFFFFFFFFFFFFFFFFF AND PUSH20 0xFFFFFFFFFFFFFFFFFFFFFFFFFFFFFFFFFFFFFFFF AND DUP2 MSTORE PUSH1 0x20 ADD SWAP1 DUP2 MSTORE PUSH1 0x20 ADD PUSH1 0x0 KECCAK256 PUSH1 0x5 ADD PUSH1 0x0 PUSH1 0x8 DUP4 DUP2 SLOAD DUP2 LT PUSH2 0x1549 JUMPI PUSH2 0x1548 PUSH2 0x7F48 JUMP JUMPDEST JUMPDEST SWAP1 PUSH1 0x0 MSTORE PUSH1 0x20 PUSH1 0x0 KECCAK256 ADD PUSH1 0x0 SWAP1 SLOAD SWAP1 PUSH2 0x100 EXP SWAP1 DIV PUSH20 0xFFFFFFFFFFFFFFFFFFFFFFFFFFFFFFFFFFFFFFFF AND PUSH20 0xFFFFFFFFFFFFFFFFFFFFFFFFFFFFFFFFFFFFFFFF AND PUSH20 0xFFFFFFFFFFFFFFFFFFFFFFFFFFFFFFFFFFFFFFFF AND DUP2 MSTORE PUSH1 0x20 ADD SWAP1 DUP2 MSTORE PUSH1 0x20 ADD PUSH1 0x0 KECCAK256 SLOAD DUP5 DUP3 DUP2 MLOAD DUP2 LT PUSH2 0x15C2 JUMPI PUSH2 0x15C1 PUSH2 0x7F48 JUMP JUMPDEST JUMPDEST PUSH1 0x20 MUL PUSH1 0x20 ADD ADD DUP2 DUP2 MSTORE POP POP DUP1 DUP1 PUSH2 0x15D9 SWAP1 PUSH2 0x7FA6 JUMP JUMPDEST SWAP2 POP POP PUSH2 0x1407 JUMP JUMPDEST POP PUSH1 0x40 MLOAD DUP1 PUSH2 0x120 ADD PUSH1 0x40 MSTORE DUP1 DUP8 PUSH20 0xFFFFFFFFFFFFFFFFFFFFFFFFFFFFFFFFFFFFFFFF AND DUP2 MSTORE PUSH1 0x20 ADD PUSH1 0x13 PUSH1 0x0 DUP10 PUSH20 0xFFFFFFFFFFFFFFFFFFFFFFFFFFFFFFFFFFFFFFFF AND PUSH20 0xFFFFFFFFFFFFFFFFFFFFFFFFFFFFFFFFFFFFFFFF AND DUP2 MSTORE PUSH1 0x20 ADD SWAP1 DUP2 MSTORE PUSH1 0x20 ADD PUSH1 0x0 KECCAK256 PUSH1 0x1 ADD SLOAD DUP2 MSTORE PUSH1 0x20 ADD PUSH1 0x13 PUSH1 0x0 DUP10 PUSH20 0xFFFFFFFFFFFFFFFFFFFFFFFFFFFFFFFFFFFFFFFF AND PUSH20 0xFFFFFFFFFFFFFFFFFFFFFFFFFFFFFFFFFFFFFFFF AND DUP2 MSTORE PUSH1 0x20 ADD SWAP1 DUP2 MSTORE PUSH1 0x20 ADD PUSH1 0x0 KECCAK256 PUSH1 0x4 ADD SLOAD DUP2 MSTORE PUSH1 0x20 ADD PUSH1 0x8 DUP1 SLOAD DUP1 PUSH1 0x20 MUL PUSH1 0x20 ADD PUSH1 0x40 MLOAD SWAP1 DUP2 ADD PUSH1 0x40 MSTORE DUP1 SWAP3 SWAP2 SWAP1 DUP2 DUP2 MSTORE PUSH1 0x20 ADD DUP3 DUP1 SLOAD DUP1 ISZERO PUSH2 0x171C JUMPI PUSH1 0x20 MUL DUP3 ADD SWAP2 SWAP1 PUSH1 0x0 MSTORE PUSH1 0x20 PUSH1 0x0 KECCAK256 SWAP1 JUMPDEST DUP2 PUSH1 0x0 SWAP1 SLOAD SWAP1 PUSH2 0x100 EXP SWAP1 DIV PUSH20 0xFFFFFFFFFFFFFFFFFFFFFFFFFFFFFFFFFFFFFFFF AND PUSH20 0xFFFFFFFFFFFFFFFFFFFFFFFFFFFFFFFFFFFFFFFF AND DUP2 MSTORE PUSH1 0x20 ADD SWAP1 PUSH1 0x1 ADD SWAP1 DUP1 DUP4 GT PUSH2 0x16D2 JUMPI JUMPDEST POP POP POP POP POP DUP2 MSTORE PUSH1 0x20 ADD DUP6 DUP2 MSTORE PUSH1 0x20 ADD PUSH1 0xB SLOAD DUP2 MSTORE PUSH1 0x20 ADD PUSH1 0xC PUSH1 0x0 DUP10 PUSH20 0xFFFFFFFFFFFFFFFFFFFFFFFFFFFFFFFFFFFFFFFF AND PUSH20 0xFFFFFFFFFFFFFFFFFFFFFFFFFFFFFFFFFFFFFFFF AND DUP2 MSTORE PUSH1 0x20 ADD SWAP1 DUP2 MSTORE PUSH1 0x20 ADD PUSH1 0x0 KECCAK256 SLOAD DUP2 MSTORE PUSH1 0x20 ADD DUP5 DUP2 MSTORE PUSH1 0x20 ADD DUP4 DUP2 MSTORE POP SWAP5 POP POP POP POP POP SWAP2 SWAP1 POP JUMP JUMPDEST PUSH1 0xB SLOAD DUP2 JUMP JUMPDEST PUSH1 0x0 DUP1 PUSH1 0x1 PUSH1 0x0 DUP7 PUSH2 0xFFFF AND PUSH2 0xFFFF AND DUP2 MSTORE PUSH1 0x20 ADD SWAP1 DUP2 MSTORE PUSH1 0x20 ADD PUSH1 0x0 KECCAK256 DUP1 SLOAD PUSH2 0x17BD SWAP1 PUSH2 0x7E3C JUMP JUMPDEST DUP1 PUSH1 0x1F ADD PUSH1 0x20 DUP1 SWAP2 DIV MUL PUSH1 0x20 ADD PUSH1 0x40 MLOAD SWAP1 DUP2 ADD PUSH1 0x40 MSTORE DUP1 SWAP3 SWAP2 SWAP1 DUP2 DUP2 MSTORE PUSH1 0x20 ADD DUP3 DUP1 SLOAD PUSH2 0x17E9 SWAP1 PUSH2 0x7E3C JUMP JUMPDEST DUP1 ISZERO PUSH2 0x1836 JUMPI DUP1 PUSH1 0x1F LT PUSH2 0x180B JUMPI PUSH2 0x100 DUP1 DUP4 SLOAD DIV MUL DUP4 MSTORE SWAP2 PUSH1 0x20 ADD SWAP2 PUSH2 0x1836 JUMP JUMPDEST DUP3 ADD SWAP2 SWAP1 PUSH1 0x0 MSTORE PUSH1 0x20 PUSH1 0x0 KECCAK256 SWAP1 JUMPDEST DUP2 SLOAD DUP2 MSTORE SWAP1 PUSH1 0x1 ADD SWAP1 PUSH1 0x20 ADD DUP1 DUP4 GT PUSH2 0x1819 JUMPI DUP3 SWAP1 SUB PUSH1 0x1F AND DUP3 ADD SWAP2 JUMPDEST POP POP POP POP POP SWAP1 POP DUP4 DUP4 PUSH1 0x40 MLOAD PUSH2 0x184D SWAP3 SWAP2 SWAP1 PUSH2 0x7E9D JUMP JUMPDEST PUSH1 0x40 MLOAD DUP1 SWAP2 SUB SWAP1 KECCAK256 DUP2 DUP1 MLOAD SWAP1 PUSH1 0x20 ADD KECCAK256 EQ SWAP2 POP POP SWAP4 SWAP3 POP POP POP JUMP JUMPDEST PUSH2 0x1870 PUSH2 0x3E0D JUMP JUMPDEST PUSH32 0x0 PUSH20 0xFFFFFFFFFFFFFFFFFFFFFFFFFFFFFFFFFFFFFFFF AND PUSH4 0x42D65A8D DUP5 DUP5 DUP5 PUSH1 0x40 MLOAD DUP5 PUSH4 0xFFFFFFFF AND PUSH1 0xE0 SHL DUP2 MSTORE PUSH1 0x4 ADD PUSH2 0x18CD SWAP4 SWAP3 SWAP2 SWAP1 PUSH2 0x801B JUMP JUMPDEST PUSH1 0x0 PUSH1 0x40 MLOAD DUP1 DUP4 SUB DUP2 PUSH1 0x0 DUP8 DUP1 EXTCODESIZE ISZERO DUP1 ISZERO PUSH2 0x18E7 JUMPI PUSH1 0x0 DUP1 REVERT JUMPDEST POP GAS CALL ISZERO DUP1 ISZERO PUSH2 0x18FB JUMPI RETURNDATASIZE PUSH1 0x0 DUP1 RETURNDATACOPY RETURNDATASIZE PUSH1 0x0 REVERT JUMPDEST POP POP POP POP POP POP POP JUMP JUMPDEST PUSH1 0x7 PUSH1 0x2 SWAP1 SLOAD SWAP1 PUSH2 0x100 EXP SWAP1 DIV PUSH1 0xFF AND DUP2 JUMP JUMPDEST PUSH2 0x191F PUSH2 0x3E0D JUMP JUMPDEST PUSH1 0x0 PUSH1 0x6 SWAP1 POP PUSH32 0x0 PUSH20 0xFFFFFFFFFFFFFFFFFFFFFFFFFFFFFFFFFFFFFFFF AND PUSH4 0xCBED8B9C PUSH32 0x0 PUSH20 0xFFFFFFFFFFFFFFFFFFFFFFFFFFFFFFFFFFFFFFFF AND PUSH4 0x96568F6 ADDRESS PUSH1 0x40 MLOAD DUP3 PUSH4 0xFFFFFFFF AND PUSH1 0xE0 SHL DUP2 MSTORE PUSH1 0x4 ADD PUSH2 0x19BA SWAP2 SWAP1 PUSH2 0x6EB4 JUMP JUMPDEST PUSH1 0x20 PUSH1 0x40 MLOAD DUP1 DUP4 SUB DUP2 DUP7 GAS STATICCALL ISZERO DUP1 ISZERO PUSH2 0x19D7 JUMPI RETURNDATASIZE PUSH1 0x0 DUP1 RETURNDATACOPY RETURNDATASIZE PUSH1 0x0 REVERT JUMPDEST POP POP POP POP PUSH1 0x40 MLOAD RETURNDATASIZE PUSH1 0x1F NOT PUSH1 0x1F DUP3 ADD AND DUP3 ADD DUP1 PUSH1 0x40 MSTORE POP DUP2 ADD SWAP1 PUSH2 0x19FB SWAP2 SWAP1 PUSH2 0x8062 JUMP JUMPDEST DUP6 DUP5 DUP7 PUSH1 0x40 MLOAD PUSH1 0x20 ADD PUSH2 0x1A0E SWAP2 SWAP1 PUSH2 0x6EB4 JUMP JUMPDEST PUSH1 0x40 MLOAD PUSH1 0x20 DUP2 DUP4 SUB SUB DUP2 MSTORE SWAP1 PUSH1 0x40 MSTORE PUSH1 0x40 MLOAD DUP6 PUSH4 0xFFFFFFFF AND PUSH1 0xE0 SHL DUP2 MSTORE PUSH1 0x4 ADD PUSH2 0x1A3C SWAP5 SWAP4 SWAP3 SWAP2 SWAP1 PUSH2 0x808F JUMP JUMPDEST PUSH1 0x0 PUSH1 0x40 MLOAD DUP1 DUP4 SUB DUP2 PUSH1 0x0 DUP8 DUP1 EXTCODESIZE ISZERO DUP1 ISZERO PUSH2 0x1A56 JUMPI PUSH1 0x0 DUP1 REVERT JUMPDEST POP GAS CALL ISZERO DUP1 ISZERO PUSH2 0x1A6A JUMPI RETURNDATASIZE PUSH1 0x0 DUP1 RETURNDATACOPY RETURNDATASIZE PUSH1 0x0 REVERT JUMPDEST POP POP POP POP POP POP POP JUMP JUMPDEST PUSH1 0x15 PUSH1 0x20 MSTORE DUP2 PUSH1 0x0 MSTORE PUSH1 0x40 PUSH1 0x0 KECCAK256 PUSH1 0x20 MSTORE DUP1 PUSH1 0x0 MSTORE PUSH1 0x40 PUSH1 0x0 KECCAK256 PUSH1 0x0 SWAP2 POP SWAP2 POP POP SLOAD DUP2 JUMP JUMPDEST PUSH1 0x8 DUP2 DUP2 SLOAD DUP2 LT PUSH2 0x1AA8 JUMPI PUSH1 0x0 DUP1 REVERT JUMPDEST SWAP1 PUSH1 0x0 MSTORE PUSH1 0x20 PUSH1 0x0 KECCAK256 ADD PUSH1 0x0 SWAP2 POP SLOAD SWAP1 PUSH2 0x100 EXP SWAP1 DIV PUSH20 0xFFFFFFFFFFFFFFFFFFFFFFFFFFFFFFFFFFFFFFFF AND DUP2 JUMP JUMPDEST PUSH1 0x60 PUSH1 0x0 PUSH1 0x8 DUP1 SLOAD SWAP1 POP PUSH8 0xFFFFFFFFFFFFFFFF DUP2 GT ISZERO PUSH2 0x1AFA JUMPI PUSH2 0x1AF9 PUSH2 0x6ED4 JUMP JUMPDEST JUMPDEST PUSH1 0x40 MLOAD SWAP1 DUP1 DUP3 MSTORE DUP1 PUSH1 0x20 MUL PUSH1 0x20 ADD DUP3 ADD PUSH1 0x40 MSTORE DUP1 ISZERO PUSH2 0x1B28 JUMPI DUP2 PUSH1 0x20 ADD PUSH1 0x20 DUP3 MUL DUP1 CALLDATASIZE DUP4 CALLDATACOPY DUP1 DUP3 ADD SWAP2 POP POP SWAP1 POP JUMPDEST POP SWAP1 POP PUSH1 0x0 PUSH1 0x8 DUP1 SLOAD SWAP1 POP PUSH8 0xFFFFFFFFFFFFFFFF DUP2 GT ISZERO PUSH2 0x1B4C JUMPI PUSH2 0x1B4B PUSH2 0x6ED4 JUMP JUMPDEST JUMPDEST PUSH1 0x40 MLOAD SWAP1 DUP1 DUP3 MSTORE DUP1 PUSH1 0x20 MUL PUSH1 0x20 ADD DUP3 ADD PUSH1 0x40 MSTORE DUP1 ISZERO PUSH2 0x1B7A JUMPI DUP2 PUSH1 0x20 ADD PUSH1 0x20 DUP3 MUL DUP1 CALLDATASIZE DUP4 CALLDATACOPY DUP1 DUP3 ADD SWAP2 POP POP SWAP1 POP JUMPDEST POP SWAP1 POP PUSH1 0x0 DUP1 PUSH2 0x1B89 DUP7 PUSH2 0x1E6C JUMP JUMPDEST SWAP2 POP SWAP2 POP PUSH1 0x0 JUMPDEST PUSH1 0x8 DUP1 SLOAD SWAP1 POP DUP2 LT ISZERO PUSH2 0x1D6A JUMPI PUSH1 0x13 PUSH1 0x0 DUP9 PUSH20 0xFFFFFFFFFFFFFFFFFFFFFFFFFFFFFFFFFFFFFFFF AND PUSH20 0xFFFFFFFFFFFFFFFFFFFFFFFFFFFFFFFFFFFFFFFF AND DUP2 MSTORE PUSH1 0x20 ADD SWAP1 DUP2 MSTORE PUSH1 0x20 ADD PUSH1 0x0 KECCAK256 PUSH1 0x2 ADD PUSH1 0x0 PUSH1 0x8 DUP4 DUP2 SLOAD DUP2 LT PUSH2 0x1BF5 JUMPI PUSH2 0x1BF4 PUSH2 0x7F48 JUMP JUMPDEST JUMPDEST SWAP1 PUSH1 0x0 MSTORE PUSH1 0x20 PUSH1 0x0 KECCAK256 ADD PUSH1 0x0 SWAP1 SLOAD SWAP1 PUSH2 0x100 EXP SWAP1 DIV PUSH20 0xFFFFFFFFFFFFFFFFFFFFFFFFFFFFFFFFFFFFFFFF AND PUSH20 0xFFFFFFFFFFFFFFFFFFFFFFFFFFFFFFFFFFFFFFFF AND PUSH20 0xFFFFFFFFFFFFFFFFFFFFFFFFFFFFFFFFFFFFFFFF AND DUP2 MSTORE PUSH1 0x20 ADD SWAP1 DUP2 MSTORE PUSH1 0x20 ADD PUSH1 0x0 KECCAK256 SLOAD DUP6 DUP3 DUP2 MLOAD DUP2 LT PUSH2 0x1C6E JUMPI PUSH2 0x1C6D PUSH2 0x7F48 JUMP JUMPDEST JUMPDEST PUSH1 0x20 MUL PUSH1 0x20 ADD ADD DUP2 DUP2 MSTORE POP POP PUSH1 0x13 PUSH1 0x0 DUP9 PUSH20 0xFFFFFFFFFFFFFFFFFFFFFFFFFFFFFFFFFFFFFFFF AND PUSH20 0xFFFFFFFFFFFFFFFFFFFFFFFFFFFFFFFFFFFFFFFF AND DUP2 MSTORE PUSH1 0x20 ADD SWAP1 DUP2 MSTORE PUSH1 0x20 ADD PUSH1 0x0 KECCAK256 PUSH1 0x5 ADD PUSH1 0x0 PUSH1 0x8 DUP4 DUP2 SLOAD DUP2 LT PUSH2 0x1CD2 JUMPI PUSH2 0x1CD1 PUSH2 0x7F48 JUMP JUMPDEST JUMPDEST SWAP1 PUSH1 0x0 MSTORE PUSH1 0x20 PUSH1 0x0 KECCAK256 ADD PUSH1 0x0 SWAP1 SLOAD SWAP1 PUSH2 0x100 EXP SWAP1 DIV PUSH20 0xFFFFFFFFFFFFFFFFFFFFFFFFFFFFFFFFFFFFFFFF AND PUSH20 0xFFFFFFFFFFFFFFFFFFFFFFFFFFFFFFFFFFFFFFFF AND PUSH20 0xFFFFFFFFFFFFFFFFFFFFFFFFFFFFFFFFFFFFFFFF AND DUP2 MSTORE PUSH1 0x20 ADD SWAP1 DUP2 MSTORE PUSH1 0x20 ADD PUSH1 0x0 KECCAK256 SLOAD DUP5 DUP3 DUP2 MLOAD DUP2 LT PUSH2 0x1D4B JUMPI PUSH2 0x1D4A PUSH2 0x7F48 JUMP JUMPDEST JUMPDEST PUSH1 0x20 MUL PUSH1 0x20 ADD ADD DUP2 DUP2 MSTORE POP POP DUP1 DUP1 PUSH2 0x1D62 SWAP1 PUSH2 0x7FA6 JUMP JUMPDEST SWAP2 POP POP PUSH2 0x1B90 JUMP JUMPDEST POP DUP6 PUSH1 0x13 PUSH1 0x0 DUP9 PUSH20 0xFFFFFFFFFFFFFFFFFFFFFFFFFFFFFFFFFFFFFFFF AND PUSH20 0xFFFFFFFFFFFFFFFFFFFFFFFFFFFFFFFFFFFFFFFF AND DUP2 MSTORE PUSH1 0x20 ADD SWAP1 DUP2 MSTORE PUSH1 0x20 ADD PUSH1 0x0 KECCAK256 PUSH1 0x1 ADD SLOAD PUSH1 0x13 PUSH1 0x0 DUP10 PUSH20 0xFFFFFFFFFFFFFFFFFFFFFFFFFFFFFFFFFFFFFFFF AND PUSH20 0xFFFFFFFFFFFFFFFFFFFFFFFFFFFFFFFFFFFFFFFF AND DUP2 MSTORE PUSH1 0x20 ADD SWAP1 DUP2 MSTORE PUSH1 0x20 ADD PUSH1 0x0 KECCAK256 PUSH1 0x4 ADD SLOAD PUSH1 0x8 DUP8 PUSH1 0xB SLOAD PUSH1 0xC PUSH1 0x0 DUP14 PUSH20 0xFFFFFFFFFFFFFFFFFFFFFFFFFFFFFFFFFFFFFFFF AND PUSH20 0xFFFFFFFFFFFFFFFFFFFFFFFFFFFFFFFFFFFFFFFF AND DUP2 MSTORE PUSH1 0x20 ADD SWAP1 DUP2 MSTORE PUSH1 0x20 ADD PUSH1 0x0 KECCAK256 SLOAD DUP10 DUP10 PUSH1 0x40 MLOAD PUSH1 0x20 ADD PUSH2 0x1E52 SWAP10 SWAP9 SWAP8 SWAP7 SWAP6 SWAP5 SWAP4 SWAP3 SWAP2 SWAP1 PUSH2 0x8247 JUMP JUMPDEST PUSH1 0x40 MLOAD PUSH1 0x20 DUP2 DUP4 SUB SUB DUP2 MSTORE SWAP1 PUSH1 0x40 MSTORE SWAP5 POP POP POP POP POP SWAP2 SWAP1 POP JUMP JUMPDEST PUSH1 0x0 DUP1 PUSH32 0x0 PUSH20 0xFFFFFFFFFFFFFFFFFFFFFFFFFFFFFFFFFFFFFFFF AND PUSH4 0x40A7BB10 PUSH1 0x7 PUSH1 0x0 SWAP1 SLOAD SWAP1 PUSH2 0x100 EXP SWAP1 DIV PUSH2 0xFFFF AND ADDRESS PUSH2 0x1EC6 DUP8 PUSH2 0x1AD7 JUMP JUMPDEST PUSH1 0x0 PUSH1 0xA PUSH1 0x40 MLOAD DUP7 PUSH4 0xFFFFFFFF AND PUSH1 0xE0 SHL DUP2 MSTORE PUSH1 0x4 ADD PUSH2 0x1EEA SWAP6 SWAP5 SWAP4 SWAP3 SWAP2 SWAP1 PUSH2 0x8382 JUMP JUMPDEST PUSH1 0x40 DUP1 MLOAD DUP1 DUP4 SUB DUP2 DUP7 GAS STATICCALL ISZERO DUP1 ISZERO PUSH2 0x1F06 JUMPI RETURNDATASIZE PUSH1 0x0 DUP1 RETURNDATACOPY RETURNDATASIZE PUSH1 0x0 REVERT JUMPDEST POP POP POP POP PUSH1 0x40 MLOAD RETURNDATASIZE PUSH1 0x1F NOT PUSH1 0x1F DUP3 ADD AND DUP3 ADD DUP1 PUSH1 0x40 MSTORE POP DUP2 ADD SWAP1 PUSH2 0x1F2A SWAP2 SWAP1 PUSH2 0x83F8 JUMP JUMPDEST SWAP2 POP SWAP2 POP SWAP2 POP SWAP2 JUMP JUMPDEST PUSH1 0x4 PUSH1 0x20 MSTORE DUP3 PUSH1 0x0 MSTORE PUSH1 0x40 PUSH1 0x0 KECCAK256 DUP3 DUP1 MLOAD PUSH1 0x20 DUP2 ADD DUP3 ADD DUP1 MLOAD DUP5 DUP3 MSTORE PUSH1 0x20 DUP4 ADD PUSH1 0x20 DUP6 ADD KECCAK256 DUP2 DUP4 MSTORE DUP1 SWAP6 POP POP POP POP POP POP PUSH1 0x20 MSTORE DUP1 PUSH1 0x0 MSTORE PUSH1 0x40 PUSH1 0x0 KECCAK256 PUSH1 0x0 SWAP3 POP SWAP3 POP POP POP SLOAD DUP2 JUMP JUMPDEST PUSH1 0x13 PUSH1 0x20 MSTORE DUP1 PUSH1 0x0 MSTORE PUSH1 0x40 PUSH1 0x0 KECCAK256 PUSH1 0x0 SWAP2 POP SWAP1 POP DUP1 PUSH1 0x0 ADD PUSH1 0x0 SWAP1 SLOAD SWAP1 PUSH2 0x100 EXP SWAP1 DIV PUSH20 0xFFFFFFFFFFFFFFFFFFFFFFFFFFFFFFFFFFFFFFFF AND SWAP1 DUP1 PUSH1 0x1 ADD SLOAD SWAP1 DUP1 PUSH1 0x3 ADD SLOAD SWAP1 DUP1 PUSH1 0x4 ADD SLOAD SWAP1 DUP1 PUSH1 0x6 ADD SLOAD SWAP1 POP DUP6 JUMP JUMPDEST ADDRESS PUSH20 0xFFFFFFFFFFFFFFFFFFFFFFFFFFFFFFFFFFFFFFFF AND PUSH2 0x1FF0 PUSH2 0x3D3A JUMP JUMPDEST PUSH20 0xFFFFFFFFFFFFFFFFFFFFFFFFFFFFFFFFFFFFFFFF AND EQ PUSH2 0x2046 JUMPI PUSH1 0x40 MLOAD PUSH32 0x8C379A000000000000000000000000000000000000000000000000000000000 DUP2 MSTORE PUSH1 0x4 ADD PUSH2 0x203D SWAP1 PUSH2 0x84AA JUMP JUMPDEST PUSH1 0x40 MLOAD DUP1 SWAP2 SUB SWAP1 REVERT JUMPDEST PUSH2 0x20DA DUP7 DUP7 DUP7 DUP1 DUP1 PUSH1 0x1F ADD PUSH1 0x20 DUP1 SWAP2 DIV MUL PUSH1 0x20 ADD PUSH1 0x40 MLOAD SWAP1 DUP2 ADD PUSH1 0x40 MSTORE DUP1 SWAP4 SWAP3 SWAP2 SWAP1 DUP2 DUP2 MSTORE PUSH1 0x20 ADD DUP4 DUP4 DUP1 DUP3 DUP5 CALLDATACOPY PUSH1 0x0 DUP2 DUP5 ADD MSTORE PUSH1 0x1F NOT PUSH1 0x1F DUP3 ADD AND SWAP1 POP DUP1 DUP4 ADD SWAP3 POP POP POP POP POP POP POP DUP6 DUP6 DUP6 DUP1 DUP1 PUSH1 0x1F ADD PUSH1 0x20 DUP1 SWAP2 DIV MUL PUSH1 0x20 ADD PUSH1 0x40 MLOAD SWAP1 DUP2 ADD PUSH1 0x40 MSTORE DUP1 SWAP4 SWAP3 SWAP2 SWAP1 DUP2 DUP2 MSTORE PUSH1 0x20 ADD DUP4 DUP4 DUP1 DUP3 DUP5 CALLDATACOPY PUSH1 0x0 DUP2 DUP5 ADD MSTORE PUSH1 0x1F NOT PUSH1 0x1F DUP3 ADD AND SWAP1 POP DUP1 DUP4 ADD SWAP3 POP POP POP POP POP POP POP PUSH2 0x3E8B JUMP JUMPDEST POP POP POP POP POP POP JUMP JUMPDEST PUSH1 0x5 PUSH1 0x20 MSTORE DUP2 PUSH1 0x0 MSTORE PUSH1 0x40 PUSH1 0x0 KECCAK256 DUP2 DUP2 SLOAD DUP2 LT PUSH2 0x20FE JUMPI PUSH1 0x0 DUP1 REVERT JUMPDEST SWAP1 PUSH1 0x0 MSTORE PUSH1 0x20 PUSH1 0x0 KECCAK256 ADD PUSH1 0x0 SWAP2 POP SWAP2 POP POP SLOAD DUP2 JUMP JUMPDEST PUSH2 0x211B PUSH2 0x3E0D JUMP JUMPDEST DUP2 DUP2 PUSH1 0x40 MLOAD PUSH1 0x20 ADD PUSH2 0x212E SWAP3 SWAP2 SWAP1 PUSH2 0x8521 JUMP JUMPDEST PUSH1 0x40 MLOAD PUSH1 0x20 DUP2 DUP4 SUB SUB DUP2 MSTORE SWAP1 PUSH1 0x40 MSTORE PUSH1 0xA SWAP1 DUP2 PUSH2 0x214B SWAP2 SWAP1 PUSH2 0x86DA JUMP JUMPDEST POP POP POP JUMP JUMPDEST PUSH2 0x2158 PUSH2 0x3E0D JUMP JUMPDEST PUSH2 0x2162 PUSH1 0x0 PUSH2 0x3FDC JUMP JUMPDEST JUMP JUMPDEST PUSH1 0x1 PUSH1 0x20 MSTORE DUP1 PUSH1 0x0 MSTORE PUSH1 0x40 PUSH1 0x0 KECCAK256 PUSH1 0x0 SWAP2 POP SWAP1 POP DUP1 SLOAD PUSH2 0x2183 SWAP1 PUSH2 0x7E3C JUMP JUMPDEST DUP1 PUSH1 0x1F ADD PUSH1 0x20 DUP1 SWAP2 DIV MUL PUSH1 0x20 ADD PUSH1 0x40 MLOAD SWAP1 DUP2 ADD PUSH1 0x40 MSTORE DUP1 SWAP3 SWAP2 SWAP1 DUP2 DUP2 MSTORE PUSH1 0x20 ADD DUP3 DUP1 SLOAD PUSH2 0x21AF SWAP1 PUSH2 0x7E3C JUMP JUMPDEST DUP1 ISZERO PUSH2 0x21FC JUMPI DUP1 PUSH1 0x1F LT PUSH2 0x21D1 JUMPI PUSH2 0x100 DUP1 DUP4 SLOAD DIV MUL DUP4 MSTORE SWAP2 PUSH1 0x20 ADD SWAP2 PUSH2 0x21FC JUMP JUMPDEST DUP3 ADD SWAP2 SWAP1 PUSH1 0x0 MSTORE PUSH1 0x20 PUSH1 0x0 KECCAK256 SWAP1 JUMPDEST DUP2 SLOAD DUP2 MSTORE SWAP1 PUSH1 0x1 ADD SWAP1 PUSH1 0x20 ADD DUP1 DUP4 GT PUSH2 0x21DF JUMPI DUP3 SWAP1 SUB PUSH1 0x1F AND DUP3 ADD SWAP2 JUMPDEST POP POP POP POP POP DUP2 JUMP JUMPDEST PUSH1 0x2 PUSH1 0x20 MSTORE DUP2 PUSH1 0x0 MSTORE PUSH1 0x40 PUSH1 0x0 KECCAK256 PUSH1 0x20 MSTORE DUP1 PUSH1 0x0 MSTORE PUSH1 0x40 PUSH1 0x0 KECCAK256 PUSH1 0x0 SWAP2 POP SWAP2 POP POP SLOAD DUP2 JUMP JUMPDEST PUSH1 0x0 DUP1 PUSH1 0x0 SWAP1 SLOAD SWAP1 PUSH2 0x100 EXP SWAP1 DIV PUSH20 0xFFFFFFFFFFFFFFFFFFFFFFFFFFFFFFFFFFFFFFFF AND SWAP1 POP SWAP1 JUMP JUMPDEST PUSH1 0x0 PUSH1 0x11 PUSH1 0x0 DUP5 DUP2 MSTORE PUSH1 0x20 ADD SWAP1 DUP2 MSTORE PUSH1 0x20 ADD PUSH1 0x0 KECCAK256 PUSH1 0x0 ADD PUSH1 0x0 DUP4 PUSH20 0xFFFFFFFFFFFFFFFFFFFFFFFFFFFFFFFFFFFFFFFF AND PUSH20 0xFFFFFFFFFFFFFFFFFFFFFFFFFFFFFFFFFFFFFFFF AND DUP2 MSTORE PUSH1 0x20 ADD SWAP1 DUP2 MSTORE PUSH1 0x20 ADD PUSH1 0x0 KECCAK256 PUSH1 0x0 SWAP1 SLOAD SWAP1 PUSH2 0x100 EXP SWAP1 DIV PUSH1 0xFF AND SWAP1 POP SWAP3 SWAP2 POP POP JUMP JUMPDEST PUSH1 0x3 PUSH1 0x0 SWAP1 SLOAD SWAP1 PUSH2 0x100 EXP SWAP1 DIV PUSH20 0xFFFFFFFFFFFFFFFFFFFFFFFFFFFFFFFFFFFFFFFF AND DUP2 JUMP JUMPDEST PUSH1 0xE PUSH1 0x20 MSTORE DUP2 PUSH1 0x0 MSTORE PUSH1 0x40 PUSH1 0x0 KECCAK256 PUSH1 0x20 MSTORE DUP1 PUSH1 0x0 MSTORE PUSH1 0x40 PUSH1 0x0 KECCAK256 PUSH1 0x0 SWAP2 POP SWAP2 POP POP SLOAD DUP2 JUMP JUMPDEST PUSH2 0x2332 PUSH32 0x57C872046F094B8A493EC5EB6EA374EAFBC3C05951E40DE3C4302A41F3F127BA CALLER PUSH2 0x2252 JUMP JUMPDEST ISZERO ISZERO PUSH1 0x1 ISZERO ISZERO EQ PUSH2 0x2378 JUMPI PUSH1 0x40 MLOAD PUSH32 0x8C379A000000000000000000000000000000000000000000000000000000000 DUP2 MSTORE PUSH1 0x4 ADD PUSH2 0x236F SWAP1 PUSH2 0x87F8 JUMP JUMPDEST PUSH1 0x40 MLOAD DUP1 SWAP2 SUB SWAP1 REVERT JUMPDEST PUSH2 0x2425 PUSH32 0x57C872046F094B8A493EC5EB6EA374EAFBC3C05951E40DE3C4302A41F3F127BA PUSH20 0x0 PUSH4 0xB273F207 DUP5 PUSH2 0x120 ADD MLOAD DUP6 PUSH2 0x140 ADD MLOAD PUSH1 0x40 MLOAD DUP4 PUSH4 0xFFFFFFFF AND PUSH1 0xE0 SHL DUP2 MSTORE PUSH1 0x4 ADD PUSH2 0x23DF SWAP3 SWAP2 SWAP1 PUSH2 0x8871 JUMP JUMPDEST PUSH1 0x20 PUSH1 0x40 MLOAD DUP1 DUP4 SUB DUP2 DUP7 GAS DELEGATECALL ISZERO DUP1 ISZERO PUSH2 0x23FC JUMPI RETURNDATASIZE PUSH1 0x0 DUP1 RETURNDATACOPY RETURNDATASIZE PUSH1 0x0 REVERT JUMPDEST POP POP POP POP PUSH1 0x40 MLOAD RETURNDATASIZE PUSH1 0x1F NOT PUSH1 0x1F DUP3 ADD AND DUP3 ADD DUP1 PUSH1 0x40 MSTORE POP DUP2 ADD SWAP1 PUSH2 0x2420 SWAP2 SWAP1 PUSH2 0x88B6 JUMP JUMPDEST PUSH2 0x2252 JUMP JUMPDEST PUSH2 0x2464 JUMPI PUSH1 0x40 MLOAD PUSH32 0x8C379A000000000000000000000000000000000000000000000000000000000 DUP2 MSTORE PUSH1 0x4 ADD PUSH2 0x245B SWAP1 PUSH2 0x892F JUMP JUMPDEST PUSH1 0x40 MLOAD DUP1 SWAP2 SUB SWAP1 REVERT JUMPDEST PUSH1 0x1 ISZERO ISZERO PUSH1 0x7 PUSH1 0x2 SWAP1 SLOAD SWAP1 PUSH2 0x100 EXP SWAP1 DIV PUSH1 0xFF AND ISZERO ISZERO EQ PUSH2 0x24BA JUMPI PUSH1 0x40 MLOAD PUSH32 0x8C379A000000000000000000000000000000000000000000000000000000000 DUP2 MSTORE PUSH1 0x4 ADD PUSH2 0x24B1 SWAP1 PUSH2 0x899B JUMP JUMPDEST PUSH1 0x40 MLOAD DUP1 SWAP2 SUB SWAP1 REVERT JUMPDEST PUSH1 0x0 PUSH1 0x8 DUP1 SLOAD SWAP1 POP PUSH8 0xFFFFFFFFFFFFFFFF DUP2 GT ISZERO PUSH2 0x24DB JUMPI PUSH2 0x24DA PUSH2 0x6ED4 JUMP JUMPDEST JUMPDEST PUSH1 0x40 MLOAD SWAP1 DUP1 DUP3 MSTORE DUP1 PUSH1 0x20 MUL PUSH1 0x20 ADD DUP3 ADD PUSH1 0x40 MSTORE DUP1 ISZERO PUSH2 0x2509 JUMPI DUP2 PUSH1 0x20 ADD PUSH1 0x20 DUP3 MUL DUP1 CALLDATASIZE DUP4 CALLDATACOPY DUP1 DUP3 ADD SWAP2 POP POP SWAP1 POP JUMPDEST POP SWAP1 POP PUSH1 0x0 PUSH1 0x8 DUP1 SLOAD SWAP1 POP PUSH8 0xFFFFFFFFFFFFFFFF DUP2 GT ISZERO PUSH2 0x252D JUMPI PUSH2 0x252C PUSH2 0x6ED4 JUMP JUMPDEST JUMPDEST PUSH1 0x40 MLOAD SWAP1 DUP1 DUP3 MSTORE DUP1 PUSH1 0x20 MUL PUSH1 0x20 ADD DUP3 ADD PUSH1 0x40 MSTORE DUP1 ISZERO PUSH2 0x255B JUMPI DUP2 PUSH1 0x20 ADD PUSH1 0x20 DUP3 MUL DUP1 CALLDATASIZE DUP4 CALLDATACOPY DUP1 DUP3 ADD SWAP2 POP POP SWAP1 POP JUMPDEST POP SWAP1 POP PUSH1 0x0 JUMPDEST PUSH1 0x8 DUP1 SLOAD SWAP1 POP DUP2 LT ISZERO PUSH2 0x273B JUMPI PUSH1 0x13 PUSH1 0x0 DUP7 PUSH20 0xFFFFFFFFFFFFFFFFFFFFFFFFFFFFFFFFFFFFFFFF AND PUSH20 0xFFFFFFFFFFFFFFFFFFFFFFFFFFFFFFFFFFFFFFFF AND DUP2 MSTORE PUSH1 0x20 ADD SWAP1 DUP2 MSTORE PUSH1 0x20 ADD PUSH1 0x0 KECCAK256 PUSH1 0x2 ADD PUSH1 0x0 PUSH1 0x8 DUP4 DUP2 SLOAD DUP2 LT PUSH2 0x25C6 JUMPI PUSH2 0x25C5 PUSH2 0x7F48 JUMP JUMPDEST JUMPDEST SWAP1 PUSH1 0x0 MSTORE PUSH1 0x20 PUSH1 0x0 KECCAK256 ADD PUSH1 0x0 SWAP1 SLOAD SWAP1 PUSH2 0x100 EXP SWAP1 DIV PUSH20 0xFFFFFFFFFFFFFFFFFFFFFFFFFFFFFFFFFFFFFFFF AND PUSH20 0xFFFFFFFFFFFFFFFFFFFFFFFFFFFFFFFFFFFFFFFF AND PUSH20 0xFFFFFFFFFFFFFFFFFFFFFFFFFFFFFFFFFFFFFFFF AND DUP2 MSTORE PUSH1 0x20 ADD SWAP1 DUP2 MSTORE PUSH1 0x20 ADD PUSH1 0x0 KECCAK256 SLOAD DUP4 DUP3 DUP2 MLOAD DUP2 LT PUSH2 0x263F JUMPI PUSH2 0x263E PUSH2 0x7F48 JUMP JUMPDEST JUMPDEST PUSH1 0x20 MUL PUSH1 0x20 ADD ADD DUP2 DUP2 MSTORE POP POP PUSH1 0x13 PUSH1 0x0 DUP7 PUSH20 0xFFFFFFFFFFFFFFFFFFFFFFFFFFFFFFFFFFFFFFFF AND PUSH20 0xFFFFFFFFFFFFFFFFFFFFFFFFFFFFFFFFFFFFFFFF AND DUP2 MSTORE PUSH1 0x20 ADD SWAP1 DUP2 MSTORE PUSH1 0x20 ADD PUSH1 0x0 KECCAK256 PUSH1 0x5 ADD PUSH1 0x0 PUSH1 0x8 DUP4 DUP2 SLOAD DUP2 LT PUSH2 0x26A3 JUMPI PUSH2 0x26A2 PUSH2 0x7F48 JUMP JUMPDEST JUMPDEST SWAP1 PUSH1 0x0 MSTORE PUSH1 0x20 PUSH1 0x0 KECCAK256 ADD PUSH1 0x0 SWAP1 SLOAD SWAP1 PUSH2 0x100 EXP SWAP1 DIV PUSH20 0xFFFFFFFFFFFFFFFFFFFFFFFFFFFFFFFFFFFFFFFF AND PUSH20 0xFFFFFFFFFFFFFFFFFFFFFFFFFFFFFFFFFFFFFFFF AND PUSH20 0xFFFFFFFFFFFFFFFFFFFFFFFFFFFFFFFFFFFFFFFF AND DUP2 MSTORE PUSH1 0x20 ADD SWAP1 DUP2 MSTORE PUSH1 0x20 ADD PUSH1 0x0 KECCAK256 SLOAD DUP3 DUP3 DUP2 MLOAD DUP2 LT PUSH2 0x271C JUMPI PUSH2 0x271B PUSH2 0x7F48 JUMP JUMPDEST JUMPDEST PUSH1 0x20 MUL PUSH1 0x20 ADD ADD DUP2 DUP2 MSTORE POP POP DUP1 DUP1 PUSH2 0x2733 SWAP1 PUSH2 0x7FA6 JUMP JUMPDEST SWAP2 POP POP PUSH2 0x2561 JUMP JUMPDEST POP PUSH1 0x0 DUP4 PUSH1 0x40 MLOAD PUSH1 0x20 ADD PUSH2 0x274F SWAP2 SWAP1 PUSH2 0x8B09 JUMP JUMPDEST PUSH1 0x40 MLOAD PUSH1 0x20 DUP2 DUP4 SUB SUB DUP2 MSTORE SWAP1 PUSH1 0x40 MSTORE SWAP1 POP PUSH2 0x277A PUSH1 0x7 PUSH1 0x0 SWAP1 SLOAD SWAP1 PUSH2 0x100 EXP SWAP1 DIV PUSH2 0xFFFF AND DUP3 PUSH2 0x40A0 JUMP JUMPDEST POP POP POP POP POP JUMP JUMPDEST PUSH1 0x60 PUSH1 0x0 PUSH1 0x1 PUSH1 0x0 DUP5 PUSH2 0xFFFF AND PUSH2 0xFFFF AND DUP2 MSTORE PUSH1 0x20 ADD SWAP1 DUP2 MSTORE PUSH1 0x20 ADD PUSH1 0x0 KECCAK256 DUP1 SLOAD PUSH2 0x27AB SWAP1 PUSH2 0x7E3C JUMP JUMPDEST DUP1 PUSH1 0x1F ADD PUSH1 0x20 DUP1 SWAP2 DIV MUL PUSH1 0x20 ADD PUSH1 0x40 MLOAD SWAP1 DUP2 ADD PUSH1 0x40 MSTORE DUP1 SWAP3 SWAP2 SWAP1 DUP2 DUP2 MSTORE PUSH1 0x20 ADD DUP3 DUP1 SLOAD PUSH2 0x27D7 SWAP1 PUSH2 0x7E3C JUMP JUMPDEST DUP1 ISZERO PUSH2 0x2824 JUMPI DUP1 PUSH1 0x1F LT PUSH2 0x27F9 JUMPI PUSH2 0x100 DUP1 DUP4 SLOAD DIV MUL DUP4 MSTORE SWAP2 PUSH1 0x20 ADD SWAP2 PUSH2 0x2824 JUMP JUMPDEST DUP3 ADD SWAP2 SWAP1 PUSH1 0x0 MSTORE PUSH1 0x20 PUSH1 0x0 KECCAK256 SWAP1 JUMPDEST DUP2 SLOAD DUP2 MSTORE SWAP1 PUSH1 0x1 ADD SWAP1 PUSH1 0x20 ADD DUP1 DUP4 GT PUSH2 0x2807 JUMPI DUP3 SWAP1 SUB PUSH1 0x1F AND DUP3 ADD SWAP2 JUMPDEST POP POP POP POP POP SWAP1 POP PUSH1 0x0 DUP2 MLOAD SUB PUSH2 0x286F JUMPI PUSH1 0x40 MLOAD PUSH32 0x8C379A000000000000000000000000000000000000000000000000000000000 DUP2 MSTORE PUSH1 0x4 ADD PUSH2 0x2866 SWAP1 PUSH2 0x8B77 JUMP JUMPDEST PUSH1 0x40 MLOAD DUP1 SWAP2 SUB SWAP1 REVERT JUMPDEST PUSH2 0x2892 PUSH1 0x0 PUSH1 0x14 DUP4 MLOAD PUSH2 0x2882 SWAP2 SWAP1 PUSH2 0x8B97 JUMP JUMPDEST DUP4 PUSH2 0x413D SWAP1 SWAP3 SWAP2 SWAP1 PUSH4 0xFFFFFFFF AND JUMP JUMPDEST SWAP2 POP POP SWAP2 SWAP1 POP JUMP JUMPDEST PUSH1 0x0 DUP1 SHL DUP2 JUMP JUMPDEST PUSH2 0x28A9 PUSH2 0x3E0D JUMP JUMPDEST DUP1 PUSH1 0xF PUSH1 0x0 DUP5 PUSH20 0xFFFFFFFFFFFFFFFFFFFFFFFFFFFFFFFFFFFFFFFF AND PUSH20 0xFFFFFFFFFFFFFFFFFFFFFFFFFFFFFFFFFFFFFFFF AND DUP2 MSTORE PUSH1 0x20 ADD SWAP1 DUP2 MSTORE PUSH1 0x20 ADD PUSH1 0x0 KECCAK256 PUSH1 0x0 PUSH2 0x100 EXP DUP2 SLOAD DUP2 PUSH1 0xFF MUL NOT AND SWAP1 DUP4 ISZERO ISZERO MUL OR SWAP1 SSTORE POP POP POP JUMP JUMPDEST PUSH2 0x290C PUSH2 0x3E0D JUMP JUMPDEST DUP2 DUP2 ADDRESS PUSH1 0x40 MLOAD PUSH1 0x20 ADD PUSH2 0x2921 SWAP4 SWAP3 SWAP2 SWAP1 PUSH2 0x8C13 JUMP JUMPDEST PUSH1 0x40 MLOAD PUSH1 0x20 DUP2 DUP4 SUB SUB DUP2 MSTORE SWAP1 PUSH1 0x40 MSTORE PUSH1 0x1 PUSH1 0x0 DUP6 PUSH2 0xFFFF AND PUSH2 0xFFFF AND DUP2 MSTORE PUSH1 0x20 ADD SWAP1 DUP2 MSTORE PUSH1 0x20 ADD PUSH1 0x0 KECCAK256 SWAP1 DUP2 PUSH2 0x2957 SWAP2 SWAP1 PUSH2 0x86DA JUMP JUMPDEST POP PUSH32 0x8C0400CFE2D1199B1A725C78960BCC2A344D869B80590D0F2BD005DB15A572CE DUP4 DUP4 DUP4 PUSH1 0x40 MLOAD PUSH2 0x298B SWAP4 SWAP3 SWAP2 SWAP1 PUSH2 0x801B JUMP JUMPDEST PUSH1 0x40 MLOAD DUP1 SWAP2 SUB SWAP1 LOG1 POP POP POP JUMP JUMPDEST PUSH2 0x29C2 PUSH32 0x57C872046F094B8A493EC5EB6EA374EAFBC3C05951E40DE3C4302A41F3F127BA CALLER PUSH2 0x2252 JUMP JUMPDEST ISZERO ISZERO PUSH1 0x1 ISZERO ISZERO EQ PUSH2 0x2A08 JUMPI PUSH1 0x40 MLOAD PUSH32 0x8C379A000000000000000000000000000000000000000000000000000000000 DUP2 MSTORE PUSH1 0x4 ADD PUSH2 0x29FF SWAP1 PUSH2 0x87F8 JUMP JUMPDEST PUSH1 0x40 MLOAD DUP1 SWAP2 SUB SWAP1 REVERT JUMPDEST PUSH1 0x0 JUMPDEST DUP3 MLOAD DUP2 LT ISZERO PUSH2 0x2B92 JUMPI PUSH1 0x1 DUP4 DUP3 DUP2 MLOAD DUP2 LT PUSH2 0x2A29 JUMPI PUSH2 0x2A28 PUSH2 0x7F48 JUMP JUMPDEST JUMPDEST PUSH1 0x20 MUL PUSH1 0x20 ADD ADD MLOAD PUSH2 0x1C0 ADD MLOAD PUSH2 0xFFFF AND EQ DUP1 PUSH2 0x2A69 JUMPI POP PUSH1 0x2 DUP4 DUP3 DUP2 MLOAD DUP2 LT PUSH2 0x2A56 JUMPI PUSH2 0x2A55 PUSH2 0x7F48 JUMP JUMPDEST JUMPDEST PUSH1 0x20 MUL PUSH1 0x20 ADD ADD MLOAD PUSH2 0x1C0 ADD MLOAD PUSH2 0xFFFF AND EQ JUMPDEST ISZERO PUSH2 0x2AA6 JUMPI PUSH2 0x2A92 DUP4 DUP3 DUP2 MLOAD DUP2 LT PUSH2 0x2A84 JUMPI PUSH2 0x2A83 PUSH2 0x7F48 JUMP JUMPDEST JUMPDEST PUSH1 0x20 MUL PUSH1 0x20 ADD ADD MLOAD DUP4 PUSH2 0x425B JUMP JUMPDEST PUSH2 0x2A9C DUP4 DUP4 PUSH2 0x425F JUMP JUMPDEST POP POP POP POP POP PUSH2 0x2B7F JUMP JUMPDEST PUSH1 0x4 DUP4 DUP3 DUP2 MLOAD DUP2 LT PUSH2 0x2ABB JUMPI PUSH2 0x2ABA PUSH2 0x7F48 JUMP JUMPDEST JUMPDEST PUSH1 0x20 MUL PUSH1 0x20 ADD ADD MLOAD PUSH2 0x1C0 ADD MLOAD PUSH2 0xFFFF AND SUB PUSH2 0x2B09 JUMPI PUSH2 0x2AF5 DUP4 DUP3 DUP2 MLOAD DUP2 LT PUSH2 0x2AE7 JUMPI PUSH2 0x2AE6 PUSH2 0x7F48 JUMP JUMPDEST JUMPDEST PUSH1 0x20 MUL PUSH1 0x20 ADD ADD MLOAD DUP4 PUSH2 0x56BD JUMP JUMPDEST PUSH2 0x2AFF DUP4 DUP4 PUSH2 0x425F JUMP JUMPDEST POP POP POP POP POP PUSH2 0x2B7E JUMP JUMPDEST PUSH1 0x3 DUP4 DUP3 DUP2 MLOAD DUP2 LT PUSH2 0x2B1E JUMPI PUSH2 0x2B1D PUSH2 0x7F48 JUMP JUMPDEST JUMPDEST PUSH1 0x20 MUL PUSH1 0x20 ADD ADD MLOAD PUSH2 0x1C0 ADD MLOAD PUSH2 0xFFFF AND SUB PUSH2 0x2B7D JUMPI PUSH2 0x2B58 DUP4 DUP3 DUP2 MLOAD DUP2 LT PUSH2 0x2B4A JUMPI PUSH2 0x2B49 PUSH2 0x7F48 JUMP JUMPDEST JUMPDEST PUSH1 0x20 MUL PUSH1 0x20 ADD ADD MLOAD DUP4 PUSH2 0x425B JUMP JUMPDEST PUSH2 0x2B7C DUP4 DUP3 DUP2 MLOAD DUP2 LT PUSH2 0x2B6E JUMPI PUSH2 0x2B6D PUSH2 0x7F48 JUMP JUMPDEST JUMPDEST PUSH1 0x20 MUL PUSH1 0x20 ADD ADD MLOAD DUP4 PUSH2 0x56C1 JUMP JUMPDEST JUMPDEST JUMPDEST JUMPDEST DUP1 DUP1 PUSH2 0x2B8A SWAP1 PUSH2 0x7FA6 JUMP JUMPDEST SWAP2 POP POP PUSH2 0x2A0B JUMP JUMPDEST POP POP POP JUMP JUMPDEST PUSH32 0x0 DUP2 JUMP JUMPDEST DUP1 PUSH1 0x12 PUSH1 0x0 CALLER PUSH20 0xFFFFFFFFFFFFFFFFFFFFFFFFFFFFFFFFFFFFFFFF AND PUSH20 0xFFFFFFFFFFFFFFFFFFFFFFFFFFFFFFFFFFFFFFFF AND DUP2 MSTORE PUSH1 0x20 ADD SWAP1 DUP2 MSTORE PUSH1 0x20 ADD PUSH1 0x0 KECCAK256 PUSH1 0x0 DUP5 PUSH20 0xFFFFFFFFFFFFFFFFFFFFFFFFFFFFFFFFFFFFFFFF AND PUSH20 0xFFFFFFFFFFFFFFFFFFFFFFFFFFFFFFFFFFFFFFFF AND DUP2 MSTORE PUSH1 0x20 ADD SWAP1 DUP2 MSTORE PUSH1 0x20 ADD PUSH1 0x0 KECCAK256 PUSH1 0x0 PUSH2 0x100 EXP DUP2 SLOAD DUP2 PUSH1 0xFF MUL NOT AND SWAP1 DUP4 ISZERO ISZERO MUL OR SWAP1 SSTORE POP POP POP JUMP JUMPDEST PUSH1 0x14 PUSH1 0x20 MSTORE DUP2 PUSH1 0x0 MSTORE PUSH1 0x40 PUSH1 0x0 KECCAK256 PUSH1 0x20 MSTORE DUP1 PUSH1 0x0 MSTORE PUSH1 0x40 PUSH1 0x0 KECCAK256 PUSH1 0x0 SWAP2 POP SWAP2 POP POP SLOAD DUP2 JUMP JUMPDEST PUSH2 0x2C80 PUSH2 0x3E0D JUMP JUMPDEST DUP1 PUSH1 0x3 PUSH1 0x0 PUSH2 0x100 EXP DUP2 SLOAD DUP2 PUSH20 0xFFFFFFFFFFFFFFFFFFFFFFFFFFFFFFFFFFFFFFFF MUL NOT AND SWAP1 DUP4 PUSH20 0xFFFFFFFFFFFFFFFFFFFFFFFFFFFFFFFFFFFFFFFF AND MUL OR SWAP1 SSTORE POP PUSH32 0x5DB758E995A17EC1AD84BDEF7E8C3293A0BD6179BCCE400DFF5D4C3D87DB726B DUP2 PUSH1 0x40 MLOAD PUSH2 0x2CF0 SWAP2 SWAP1 PUSH2 0x6EB4 JUMP JUMPDEST PUSH1 0x40 MLOAD DUP1 SWAP2 SUB SWAP1 LOG1 POP JUMP JUMPDEST PUSH1 0x11 PUSH1 0x20 MSTORE DUP1 PUSH1 0x0 MSTORE PUSH1 0x40 PUSH1 0x0 KECCAK256 PUSH1 0x0 SWAP2 POP SWAP1 POP DUP1 PUSH1 0x1 ADD SLOAD SWAP1 POP DUP2 JUMP JUMPDEST PUSH1 0x12 PUSH1 0x0 DUP3 PUSH1 0x60 ADD MLOAD PUSH20 0xFFFFFFFFFFFFFFFFFFFFFFFFFFFFFFFFFFFFFFFF AND PUSH20 0xFFFFFFFFFFFFFFFFFFFFFFFFFFFFFFFFFFFFFFFF AND DUP2 MSTORE PUSH1 0x20 ADD SWAP1 DUP2 MSTORE PUSH1 0x20 ADD PUSH1 0x0 KECCAK256 PUSH1 0x0 PUSH20 0x0 PUSH4 0xB273F207 DUP5 PUSH1 0x80 ADD MLOAD DUP6 PUSH1 0xA0 ADD MLOAD PUSH1 0x40 MLOAD DUP4 PUSH4 0xFFFFFFFF AND PUSH1 0xE0 SHL DUP2 MSTORE PUSH1 0x4 ADD PUSH2 0x2D9F SWAP3 SWAP2 SWAP1 PUSH2 0x8871 JUMP JUMPDEST PUSH1 0x20 PUSH1 0x40 MLOAD DUP1 DUP4 SUB DUP2 DUP7 GAS DELEGATECALL ISZERO DUP1 ISZERO PUSH2 0x2DBC JUMPI RETURNDATASIZE PUSH1 0x0 DUP1 RETURNDATACOPY RETURNDATASIZE PUSH1 0x0 REVERT JUMPDEST POP POP POP POP PUSH1 0x40 MLOAD RETURNDATASIZE PUSH1 0x1F NOT PUSH1 0x1F DUP3 ADD AND DUP3 ADD DUP1 PUSH1 0x40 MSTORE POP DUP2 ADD SWAP1 PUSH2 0x2DE0 SWAP2 SWAP1 PUSH2 0x88B6 JUMP JUMPDEST PUSH20 0xFFFFFFFFFFFFFFFFFFFFFFFFFFFFFFFFFFFFFFFF AND PUSH20 0xFFFFFFFFFFFFFFFFFFFFFFFFFFFFFFFFFFFFFFFF AND DUP2 MSTORE PUSH1 0x20 ADD SWAP1 DUP2 MSTORE PUSH1 0x20 ADD PUSH1 0x0 KECCAK256 PUSH1 0x0 SWAP1 SLOAD SWAP1 PUSH2 0x100 EXP SWAP1 DIV PUSH1 0xFF AND PUSH2 0x2E67 JUMPI PUSH1 0x40 MLOAD PUSH32 0x8C379A000000000000000000000000000000000000000000000000000000000 DUP2 MSTORE PUSH1 0x4 ADD PUSH2 0x2E5E SWAP1 PUSH2 0x8C89 JUMP JUMPDEST PUSH1 0x40 MLOAD DUP1 SWAP2 SUB SWAP1 REVERT JUMPDEST PUSH2 0x2F12 PUSH32 0x57C872046F094B8A493EC5EB6EA374EAFBC3C05951E40DE3C4302A41F3F127BA PUSH20 0x0 PUSH4 0xB273F207 DUP5 PUSH1 0xC0 ADD MLOAD DUP6 PUSH1 0xE0 ADD MLOAD PUSH1 0x40 MLOAD DUP4 PUSH4 0xFFFFFFFF AND PUSH1 0xE0 SHL DUP2 MSTORE PUSH1 0x4 ADD PUSH2 0x2ECC SWAP3 SWAP2 SWAP1 PUSH2 0x8871 JUMP JUMPDEST PUSH1 0x20 PUSH1 0x40 MLOAD DUP1 DUP4 SUB DUP2 DUP7 GAS DELEGATECALL ISZERO DUP1 ISZERO PUSH2 0x2EE9 JUMPI RETURNDATASIZE PUSH1 0x0 DUP1 RETURNDATACOPY RETURNDATASIZE PUSH1 0x0 REVERT JUMPDEST POP POP POP POP PUSH1 0x40 MLOAD RETURNDATASIZE PUSH1 0x1F NOT PUSH1 0x1F DUP3 ADD AND DUP3 ADD DUP1 PUSH1 0x40 MSTORE POP DUP2 ADD SWAP1 PUSH2 0x2F0D SWAP2 SWAP1 PUSH2 0x88B6 JUMP JUMPDEST PUSH2 0x2252 JUMP JUMPDEST PUSH2 0x2F51 JUMPI PUSH1 0x40 MLOAD PUSH32 0x8C379A000000000000000000000000000000000000000000000000000000000 DUP2 MSTORE PUSH1 0x4 ADD PUSH2 0x2F48 SWAP1 PUSH2 0x892F JUMP JUMPDEST PUSH1 0x40 MLOAD DUP1 SWAP2 SUB SWAP1 REVERT JUMPDEST PUSH1 0x0 PUSH1 0x13 PUSH1 0x0 DUP4 PUSH1 0x60 ADD MLOAD PUSH20 0xFFFFFFFFFFFFFFFFFFFFFFFFFFFFFFFFFFFFFFFF AND PUSH20 0xFFFFFFFFFFFFFFFFFFFFFFFFFFFFFFFFFFFFFFFF AND DUP2 MSTORE PUSH1 0x20 ADD SWAP1 DUP2 MSTORE PUSH1 0x20 ADD PUSH1 0x0 KECCAK256 SWAP1 POP PUSH1 0x0 JUMPDEST DUP3 PUSH1 0x0 ADD MLOAD MLOAD DUP2 LT ISZERO PUSH2 0x3443 JUMPI DUP3 PUSH1 0x40 ADD MLOAD ISZERO PUSH2 0x31F3 JUMPI DUP2 PUSH1 0x2 ADD PUSH1 0x0 DUP5 PUSH1 0x0 ADD MLOAD DUP4 DUP2 MLOAD DUP2 LT PUSH2 0x2FCF JUMPI PUSH2 0x2FCE PUSH2 0x7F48 JUMP JUMPDEST JUMPDEST PUSH1 0x20 MUL PUSH1 0x20 ADD ADD MLOAD PUSH20 0xFFFFFFFFFFFFFFFFFFFFFFFFFFFFFFFFFFFFFFFF AND PUSH20 0xFFFFFFFFFFFFFFFFFFFFFFFFFFFFFFFFFFFFFFFF AND DUP2 MSTORE PUSH1 0x20 ADD SWAP1 DUP2 MSTORE PUSH1 0x20 ADD PUSH1 0x0 KECCAK256 SLOAD DUP4 PUSH1 0x20 ADD MLOAD DUP3 DUP2 MLOAD DUP2 LT PUSH2 0x3029 JUMPI PUSH2 0x3028 PUSH2 0x7F48 JUMP JUMPDEST JUMPDEST PUSH1 0x20 MUL PUSH1 0x20 ADD ADD MLOAD PUSH1 0x15 PUSH1 0x0 DUP7 PUSH1 0x60 ADD MLOAD PUSH20 0xFFFFFFFFFFFFFFFFFFFFFFFFFFFFFFFFFFFFFFFF AND PUSH20 0xFFFFFFFFFFFFFFFFFFFFFFFFFFFFFFFFFFFFFFFF AND DUP2 MSTORE PUSH1 0x20 ADD SWAP1 DUP2 MSTORE PUSH1 0x20 ADD PUSH1 0x0 KECCAK256 PUSH1 0x0 DUP7 PUSH1 0x0 ADD MLOAD DUP6 DUP2 MLOAD DUP2 LT PUSH2 0x308D JUMPI PUSH2 0x308C PUSH2 0x7F48 JUMP JUMPDEST JUMPDEST PUSH1 0x20 MUL PUSH1 0x20 ADD ADD MLOAD PUSH20 0xFFFFFFFFFFFFFFFFFFFFFFFFFFFFFFFFFFFFFFFF AND PUSH20 0xFFFFFFFFFFFFFFFFFFFFFFFFFFFFFFFFFFFFFFFF AND DUP2 MSTORE PUSH1 0x20 ADD SWAP1 DUP2 MSTORE PUSH1 0x20 ADD PUSH1 0x0 KECCAK256 SLOAD PUSH2 0x30DA SWAP2 SWAP1 PUSH2 0x8CA9 JUMP JUMPDEST GT ISZERO PUSH2 0x311B JUMPI PUSH1 0x40 MLOAD PUSH32 0x8C379A000000000000000000000000000000000000000000000000000000000 DUP2 MSTORE PUSH1 0x4 ADD PUSH2 0x3112 SWAP1 PUSH2 0x8D4F JUMP JUMPDEST PUSH1 0x40 MLOAD DUP1 SWAP2 SUB SWAP1 REVERT JUMPDEST DUP3 PUSH1 0x20 ADD MLOAD DUP2 DUP2 MLOAD DUP2 LT PUSH2 0x3132 JUMPI PUSH2 0x3131 PUSH2 0x7F48 JUMP JUMPDEST JUMPDEST PUSH1 0x20 MUL PUSH1 0x20 ADD ADD MLOAD PUSH1 0x15 PUSH1 0x0 DUP6 PUSH1 0x60 ADD MLOAD PUSH20 0xFFFFFFFFFFFFFFFFFFFFFFFFFFFFFFFFFFFFFFFF AND PUSH20 0xFFFFFFFFFFFFFFFFFFFFFFFFFFFFFFFFFFFFFFFF AND DUP2 MSTORE PUSH1 0x20 ADD SWAP1 DUP2 MSTORE PUSH1 0x20 ADD PUSH1 0x0 KECCAK256 PUSH1 0x0 DUP6 PUSH1 0x0 ADD MLOAD DUP5 DUP2 MLOAD DUP2 LT PUSH2 0x3196 JUMPI PUSH2 0x3195 PUSH2 0x7F48 JUMP JUMPDEST JUMPDEST PUSH1 0x20 MUL PUSH1 0x20 ADD ADD MLOAD PUSH20 0xFFFFFFFFFFFFFFFFFFFFFFFFFFFFFFFFFFFFFFFF AND PUSH20 0xFFFFFFFFFFFFFFFFFFFFFFFFFFFFFFFFFFFFFFFF AND DUP2 MSTORE PUSH1 0x20 ADD SWAP1 DUP2 MSTORE PUSH1 0x20 ADD PUSH1 0x0 KECCAK256 PUSH1 0x0 DUP3 DUP3 SLOAD PUSH2 0x31E7 SWAP2 SWAP1 PUSH2 0x8CA9 JUMP JUMPDEST SWAP3 POP POP DUP2 SWAP1 SSTORE POP PUSH2 0x3430 JUMP JUMPDEST DUP2 PUSH1 0x5 ADD PUSH1 0x0 DUP5 PUSH1 0x0 ADD MLOAD DUP4 DUP2 MLOAD DUP2 LT PUSH2 0x3210 JUMPI PUSH2 0x320F PUSH2 0x7F48 JUMP JUMPDEST JUMPDEST PUSH1 0x20 MUL PUSH1 0x20 ADD ADD MLOAD PUSH20 0xFFFFFFFFFFFFFFFFFFFFFFFFFFFFFFFFFFFFFFFF AND PUSH20 0xFFFFFFFFFFFFFFFFFFFFFFFFFFFFFFFFFFFFFFFF AND DUP2 MSTORE PUSH1 0x20 ADD SWAP1 DUP2 MSTORE PUSH1 0x20 ADD PUSH1 0x0 KECCAK256 SLOAD DUP4 PUSH1 0x20 ADD MLOAD DUP3 DUP2 MLOAD DUP2 LT PUSH2 0x326A JUMPI PUSH2 0x3269 PUSH2 0x7F48 JUMP JUMPDEST JUMPDEST PUSH1 0x20 MUL PUSH1 0x20 ADD ADD MLOAD PUSH1 0x14 PUSH1 0x0 DUP7 PUSH1 0x60 ADD MLOAD PUSH20 0xFFFFFFFFFFFFFFFFFFFFFFFFFFFFFFFFFFFFFFFF AND PUSH20 0xFFFFFFFFFFFFFFFFFFFFFFFFFFFFFFFFFFFFFFFF AND DUP2 MSTORE PUSH1 0x20 ADD SWAP1 DUP2 MSTORE PUSH1 0x20 ADD PUSH1 0x0 KECCAK256 PUSH1 0x0 DUP7 PUSH1 0x0 ADD MLOAD DUP6 DUP2 MLOAD DUP2 LT PUSH2 0x32CE JUMPI PUSH2 0x32CD PUSH2 0x7F48 JUMP JUMPDEST JUMPDEST PUSH1 0x20 MUL PUSH1 0x20 ADD ADD MLOAD PUSH20 0xFFFFFFFFFFFFFFFFFFFFFFFFFFFFFFFFFFFFFFFF AND PUSH20 0xFFFFFFFFFFFFFFFFFFFFFFFFFFFFFFFFFFFFFFFF AND DUP2 MSTORE PUSH1 0x20 ADD SWAP1 DUP2 MSTORE PUSH1 0x20 ADD PUSH1 0x0 KECCAK256 SLOAD PUSH2 0x331B SWAP2 SWAP1 PUSH2 0x8CA9 JUMP JUMPDEST GT ISZERO PUSH2 0x335C JUMPI PUSH1 0x40 MLOAD PUSH32 0x8C379A000000000000000000000000000000000000000000000000000000000 DUP2 MSTORE PUSH1 0x4 ADD PUSH2 0x3353 SWAP1 PUSH2 0x8DE1 JUMP JUMPDEST PUSH1 0x40 MLOAD DUP1 SWAP2 SUB SWAP1 REVERT JUMPDEST DUP3 PUSH1 0x20 ADD MLOAD DUP2 DUP2 MLOAD DUP2 LT PUSH2 0x3373 JUMPI PUSH2 0x3372 PUSH2 0x7F48 JUMP JUMPDEST JUMPDEST PUSH1 0x20 MUL PUSH1 0x20 ADD ADD MLOAD PUSH1 0x14 PUSH1 0x0 DUP6 PUSH1 0x60 ADD MLOAD PUSH20 0xFFFFFFFFFFFFFFFFFFFFFFFFFFFFFFFFFFFFFFFF AND PUSH20 0xFFFFFFFFFFFFFFFFFFFFFFFFFFFFFFFFFFFFFFFF AND DUP2 MSTORE PUSH1 0x20 ADD SWAP1 DUP2 MSTORE PUSH1 0x20 ADD PUSH1 0x0 KECCAK256 PUSH1 0x0 DUP6 PUSH1 0x0 ADD MLOAD DUP5 DUP2 MLOAD DUP2 LT PUSH2 0x33D7 JUMPI PUSH2 0x33D6 PUSH2 0x7F48 JUMP JUMPDEST JUMPDEST PUSH1 0x20 MUL PUSH1 0x20 ADD ADD MLOAD PUSH20 0xFFFFFFFFFFFFFFFFFFFFFFFFFFFFFFFFFFFFFFFF AND PUSH20 0xFFFFFFFFFFFFFFFFFFFFFFFFFFFFFFFFFFFFFFFF AND DUP2 MSTORE PUSH1 0x20 ADD SWAP1 DUP2 MSTORE PUSH1 0x20 ADD PUSH1 0x0 KECCAK256 PUSH1 0x0 DUP3 DUP3 SLOAD PUSH2 0x3428 SWAP2 SWAP1 PUSH2 0x8CA9 JUMP JUMPDEST SWAP3 POP POP DUP2 SWAP1 SSTORE POP JUMPDEST DUP1 DUP1 PUSH2 0x343B SWAP1 PUSH2 0x7FA6 JUMP JUMPDEST SWAP2 POP POP PUSH2 0x2F9B JUMP JUMPDEST POP PUSH32 0x5D7461671A77EFEECFBFC989455D1457392C775E662834B07D5D77ADC7402F45 DUP3 PUSH1 0x0 ADD MLOAD DUP4 PUSH1 0x20 ADD MLOAD DUP5 PUSH1 0x40 ADD MLOAD DUP6 PUSH1 0x60 ADD MLOAD PUSH1 0x40 MLOAD PUSH2 0x3489 SWAP5 SWAP4 SWAP3 SWAP2 SWAP1 PUSH2 0x8E5F JUMP JUMPDEST PUSH1 0x40 MLOAD DUP1 SWAP2 SUB SWAP1 LOG1 POP POP JUMP JUMPDEST PUSH2 0x349D PUSH2 0x3E0D JUMP JUMPDEST PUSH32 0x0 PUSH20 0xFFFFFFFFFFFFFFFFFFFFFFFFFFFFFFFFFFFFFFFF AND PUSH4 0xCBED8B9C DUP7 DUP7 DUP7 DUP7 DUP7 PUSH1 0x40 MLOAD DUP7 PUSH4 0xFFFFFFFF AND PUSH1 0xE0 SHL DUP2 MSTORE PUSH1 0x4 ADD PUSH2 0x34FE SWAP6 SWAP5 SWAP4 SWAP3 SWAP2 SWAP1 PUSH2 0x8EB2 JUMP JUMPDEST PUSH1 0x0 PUSH1 0x40 MLOAD DUP1 DUP4 SUB DUP2 PUSH1 0x0 DUP8 DUP1 EXTCODESIZE ISZERO DUP1 ISZERO PUSH2 0x3518 JUMPI PUSH1 0x0 DUP1 REVERT JUMPDEST POP GAS CALL ISZERO DUP1 ISZERO PUSH2 0x352C JUMPI RETURNDATASIZE PUSH1 0x0 DUP1 RETURNDATACOPY RETURNDATASIZE PUSH1 0x0 REVERT JUMPDEST POP POP POP POP POP POP POP POP POP JUMP JUMPDEST PUSH1 0x6 PUSH1 0x20 MSTORE DUP2 PUSH1 0x0 MSTORE PUSH1 0x40 PUSH1 0x0 KECCAK256 DUP2 DUP2 SLOAD DUP2 LT PUSH2 0x3553 JUMPI PUSH1 0x0 DUP1 REVERT JUMPDEST SWAP1 PUSH1 0x0 MSTORE PUSH1 0x20 PUSH1 0x0 KECCAK256 ADD PUSH1 0x0 SWAP2 POP SWAP2 POP POP SLOAD DUP2 JUMP JUMPDEST PUSH1 0xC PUSH1 0x20 MSTORE DUP1 PUSH1 0x0 MSTORE PUSH1 0x40 PUSH1 0x0 KECCAK256 PUSH1 0x0 SWAP2 POP SWAP1 POP SLOAD DUP2 JUMP JUMPDEST PUSH1 0x0 PUSH1 0x4 PUSH1 0x0 DUP9 PUSH2 0xFFFF AND PUSH2 0xFFFF AND DUP2 MSTORE PUSH1 0x20 ADD SWAP1 DUP2 MSTORE PUSH1 0x20 ADD PUSH1 0x0 KECCAK256 DUP7 DUP7 PUSH1 0x40 MLOAD PUSH2 0x35AD SWAP3 SWAP2 SWAP1 PUSH2 0x7E9D JUMP JUMPDEST SWAP1 DUP2 MSTORE PUSH1 0x20 ADD PUSH1 0x40 MLOAD DUP1 SWAP2 SUB SWAP1 KECCAK256 PUSH1 0x0 DUP6 PUSH8 0xFFFFFFFFFFFFFFFF AND PUSH8 0xFFFFFFFFFFFFFFFF AND DUP2 MSTORE PUSH1 0x20 ADD SWAP1 DUP2 MSTORE PUSH1 0x20 ADD PUSH1 0x0 KECCAK256 SLOAD SWAP1 POP PUSH1 0x0 DUP1 SHL DUP2 SUB PUSH2 0x3628 JUMPI PUSH1 0x40 MLOAD PUSH32 0x8C379A000000000000000000000000000000000000000000000000000000000 DUP2 MSTORE PUSH1 0x4 ADD PUSH2 0x361F SWAP1 PUSH2 0x8F72 JUMP JUMPDEST PUSH1 0x40 MLOAD DUP1 SWAP2 SUB SWAP1 REVERT JUMPDEST DUP1 DUP4 DUP4 PUSH1 0x40 MLOAD PUSH2 0x3639 SWAP3 SWAP2 SWAP1 PUSH2 0x7E9D JUMP JUMPDEST PUSH1 0x40 MLOAD DUP1 SWAP2 SUB SWAP1 KECCAK256 EQ PUSH2 0x3681 JUMPI PUSH1 0x40 MLOAD PUSH32 0x8C379A000000000000000000000000000000000000000000000000000000000 DUP2 MSTORE PUSH1 0x4 ADD PUSH2 0x3678 SWAP1 PUSH2 0x9004 JUMP JUMPDEST PUSH1 0x40 MLOAD DUP1 SWAP2 SUB SWAP1 REVERT JUMPDEST PUSH1 0x0 DUP1 SHL PUSH1 0x4 PUSH1 0x0 DUP10 PUSH2 0xFFFF AND PUSH2 0xFFFF AND DUP2 MSTORE PUSH1 0x20 ADD SWAP1 DUP2 MSTORE PUSH1 0x20 ADD PUSH1 0x0 KECCAK256 DUP8 DUP8 PUSH1 0x40 MLOAD PUSH2 0x36B0 SWAP3 SWAP2 SWAP1 PUSH2 0x7E9D JUMP JUMPDEST SWAP1 DUP2 MSTORE PUSH1 0x20 ADD PUSH1 0x40 MLOAD DUP1 SWAP2 SUB SWAP1 KECCAK256 PUSH1 0x0 DUP7 PUSH8 0xFFFFFFFFFFFFFFFF AND PUSH8 0xFFFFFFFFFFFFFFFF AND DUP2 MSTORE PUSH1 0x20 ADD SWAP1 DUP2 MSTORE PUSH1 0x20 ADD PUSH1 0x0 KECCAK256 DUP2 SWAP1 SSTORE POP PUSH2 0x377B DUP8 DUP8 DUP8 DUP1 DUP1 PUSH1 0x1F ADD PUSH1 0x20 DUP1 SWAP2 DIV MUL PUSH1 0x20 ADD PUSH1 0x40 MLOAD SWAP1 DUP2 ADD PUSH1 0x40 MSTORE DUP1 SWAP4 SWAP3 SWAP2 SWAP1 DUP2 DUP2 MSTORE PUSH1 0x20 ADD DUP4 DUP4 DUP1 DUP3 DUP5 CALLDATACOPY PUSH1 0x0 DUP2 DUP5 ADD MSTORE PUSH1 0x1F NOT PUSH1 0x1F DUP3 ADD AND SWAP1 POP DUP1 DUP4 ADD SWAP3 POP POP POP POP POP POP POP DUP7 DUP7 DUP7 DUP1 DUP1 PUSH1 0x1F ADD PUSH1 0x20 DUP1 SWAP2 DIV MUL PUSH1 0x20 ADD PUSH1 0x40 MLOAD SWAP1 DUP2 ADD PUSH1 0x40 MSTORE DUP1 SWAP4 SWAP3 SWAP2 SWAP1 DUP2 DUP2 MSTORE PUSH1 0x20 ADD DUP4 DUP4 DUP1 DUP3 DUP5 CALLDATACOPY PUSH1 0x0 DUP2 DUP5 ADD MSTORE PUSH1 0x1F NOT PUSH1 0x1F DUP3 ADD AND SWAP1 POP DUP1 DUP4 ADD SWAP3 POP POP POP POP POP POP POP PUSH2 0x3E8B JUMP JUMPDEST PUSH32 0xC264D91F3ADC5588250E1551F547752CA0CFA8F6B530D243B9F9F4CAB10EA8E5 DUP8 DUP8 DUP8 DUP8 DUP6 PUSH1 0x40 MLOAD PUSH2 0x37B2 SWAP6 SWAP5 SWAP4 SWAP3 SWAP2 SWAP1 PUSH2 0x9033 JUMP JUMPDEST PUSH1 0x40 MLOAD DUP1 SWAP2 SUB SWAP1 LOG1 POP POP POP POP POP POP POP JUMP JUMPDEST PUSH1 0xD PUSH1 0x20 MSTORE DUP2 PUSH1 0x0 MSTORE PUSH1 0x40 PUSH1 0x0 KECCAK256 PUSH1 0x20 MSTORE DUP1 PUSH1 0x0 MSTORE PUSH1 0x40 PUSH1 0x0 KECCAK256 PUSH1 0x0 SWAP2 POP SWAP2 POP POP SLOAD DUP2 JUMP JUMPDEST PUSH2 0x37F0 PUSH2 0x3E0D JUMP JUMPDEST PUSH1 0x0 DUP2 GT PUSH2 0x3833 JUMPI PUSH1 0x40 MLOAD PUSH32 0x8C379A000000000000000000000000000000000000000000000000000000000 DUP2 MSTORE PUSH1 0x4 ADD PUSH2 0x382A SWAP1 PUSH2 0x90CD JUMP JUMPDEST PUSH1 0x40 MLOAD DUP1 SWAP2 SUB SWAP1 REVERT JUMPDEST DUP1 PUSH1 0x2 PUSH1 0x0 DUP6 PUSH2 0xFFFF AND PUSH2 0xFFFF AND DUP2 MSTORE PUSH1 0x20 ADD SWAP1 DUP2 MSTORE PUSH1 0x20 ADD PUSH1 0x0 KECCAK256 PUSH1 0x0 DUP5 PUSH2 0xFFFF AND PUSH2 0xFFFF AND DUP2 MSTORE PUSH1 0x20 ADD SWAP1 DUP2 MSTORE PUSH1 0x20 ADD PUSH1 0x0 KECCAK256 DUP2 SWAP1 SSTORE POP PUSH32 0x9D5C7C0B934DA8FEFA9C7760C98383778A12DFBFC0C3B3106518F43FB9508AC0 DUP4 DUP4 DUP4 PUSH1 0x40 MLOAD PUSH2 0x389F SWAP4 SWAP3 SWAP2 SWAP1 PUSH2 0x90ED JUMP JUMPDEST PUSH1 0x40 MLOAD DUP1 SWAP2 SUB SWAP1 LOG1 POP POP POP JUMP JUMPDEST PUSH2 0x38B4 PUSH2 0x3E0D JUMP JUMPDEST PUSH2 0x38DE PUSH32 0x57C872046F094B8A493EC5EB6EA374EAFBC3C05951E40DE3C4302A41F3F127BA DUP3 PUSH2 0x60AC JUMP JUMPDEST POP JUMP JUMPDEST PUSH1 0x0 DUP1 PUSH32 0x0 PUSH20 0xFFFFFFFFFFFFFFFFFFFFFFFFFFFFFFFFFFFFFFFF AND PUSH4 0xF5ECBDBC PUSH32 0x0 PUSH20 0xFFFFFFFFFFFFFFFFFFFFFFFFFFFFFFFFFFFFFFFF AND PUSH4 0x96568F6 ADDRESS PUSH1 0x40 MLOAD DUP3 PUSH4 0xFFFFFFFF AND PUSH1 0xE0 SHL DUP2 MSTORE PUSH1 0x4 ADD PUSH2 0x3979 SWAP2 SWAP1 PUSH2 0x6EB4 JUMP JUMPDEST PUSH1 0x20 PUSH1 0x40 MLOAD DUP1 DUP4 SUB DUP2 DUP7 GAS STATICCALL ISZERO DUP1 ISZERO PUSH2 0x3996 JUMPI RETURNDATASIZE PUSH1 0x0 DUP1 RETURNDATACOPY RETURNDATASIZE PUSH1 0x0 REVERT JUMPDEST POP POP POP POP PUSH1 0x40 MLOAD RETURNDATASIZE PUSH1 0x1F NOT PUSH1 0x1F DUP3 ADD AND DUP3 ADD DUP1 PUSH1 0x40 MSTORE POP DUP2 ADD SWAP1 PUSH2 0x39BA SWAP2 SWAP1 PUSH2 0x8062 JUMP JUMPDEST DUP6 ADDRESS PUSH1 0x6 PUSH1 0x40 MLOAD DUP6 PUSH4 0xFFFFFFFF AND PUSH1 0xE0 SHL DUP2 MSTORE PUSH1 0x4 ADD PUSH2 0x39DD SWAP5 SWAP4 SWAP3 SWAP2 SWAP1 PUSH2 0x915F JUMP JUMPDEST PUSH1 0x0 PUSH1 0x40 MLOAD DUP1 DUP4 SUB DUP2 DUP7 GAS STATICCALL ISZERO DUP1 ISZERO PUSH2 0x39FA JUMPI RETURNDATASIZE PUSH1 0x0 DUP1 RETURNDATACOPY RETURNDATASIZE PUSH1 0x0 REVERT JUMPDEST POP POP POP POP PUSH1 0x40 MLOAD RETURNDATASIZE PUSH1 0x0 DUP3 RETURNDATACOPY RETURNDATASIZE PUSH1 0x1F NOT PUSH1 0x1F DUP3 ADD AND DUP3 ADD DUP1 PUSH1 0x40 MSTORE POP DUP2 ADD SWAP1 PUSH2 0x3A23 SWAP2 SWAP1 PUSH2 0x9214 JUMP JUMPDEST SWAP1 POP PUSH1 0x20 DUP2 ADD MLOAD SWAP2 POP POP SWAP2 SWAP1 POP JUMP JUMPDEST PUSH2 0x3A3A PUSH2 0x3E0D JUMP JUMPDEST DUP2 DUP2 PUSH1 0x1 PUSH1 0x0 DUP7 PUSH2 0xFFFF AND PUSH2 0xFFFF AND DUP2 MSTORE PUSH1 0x20 ADD SWAP1 DUP2 MSTORE PUSH1 0x20 ADD PUSH1 0x0 KECCAK256 SWAP2 DUP3 PUSH2 0x3A64 SWAP3 SWAP2 SWAP1 PUSH2 0x9268 JUMP JUMPDEST POP PUSH32 0xFA41487AD5D6728F0B19276FA1EDDC16558578F5109FC39D2DC33C3230470DAB DUP4 DUP4 DUP4 PUSH1 0x40 MLOAD PUSH2 0x3A98 SWAP4 SWAP3 SWAP2 SWAP1 PUSH2 0x801B JUMP JUMPDEST PUSH1 0x40 MLOAD DUP1 SWAP2 SUB SWAP1 LOG1 POP POP POP JUMP JUMPDEST PUSH2 0x3AAD PUSH2 0x3E0D JUMP JUMPDEST PUSH1 0x0 PUSH20 0xFFFFFFFFFFFFFFFFFFFFFFFFFFFFFFFFFFFFFFFF AND DUP2 PUSH20 0xFFFFFFFFFFFFFFFFFFFFFFFFFFFFFFFFFFFFFFFF AND SUB PUSH2 0x3B1C JUMPI PUSH1 0x40 MLOAD PUSH32 0x8C379A000000000000000000000000000000000000000000000000000000000 DUP2 MSTORE PUSH1 0x4 ADD PUSH2 0x3B13 SWAP1 PUSH2 0x93AA JUMP JUMPDEST PUSH1 0x40 MLOAD DUP1 SWAP2 SUB SWAP1 REVERT JUMPDEST PUSH2 0x3B25 DUP2 PUSH2 0x3FDC JUMP JUMPDEST POP JUMP JUMPDEST PUSH1 0x60 PUSH32 0x0 PUSH20 0xFFFFFFFFFFFFFFFFFFFFFFFFFFFFFFFFFFFFFFFF AND PUSH4 0xF5ECBDBC DUP7 DUP7 ADDRESS DUP7 PUSH1 0x40 MLOAD DUP6 PUSH4 0xFFFFFFFF AND PUSH1 0xE0 SHL DUP2 MSTORE PUSH1 0x4 ADD PUSH2 0x3B89 SWAP5 SWAP4 SWAP3 SWAP2 SWAP1 PUSH2 0x93CA JUMP JUMPDEST PUSH1 0x0 PUSH1 0x40 MLOAD DUP1 DUP4 SUB DUP2 DUP7 GAS STATICCALL ISZERO DUP1 ISZERO PUSH2 0x3BA6 JUMPI RETURNDATASIZE PUSH1 0x0 DUP1 RETURNDATACOPY RETURNDATASIZE PUSH1 0x0 REVERT JUMPDEST POP POP POP POP PUSH1 0x40 MLOAD RETURNDATASIZE PUSH1 0x0 DUP3 RETURNDATACOPY RETURNDATASIZE PUSH1 0x1F NOT PUSH1 0x1F DUP3 ADD AND DUP3 ADD DUP1 PUSH1 0x40 MSTORE POP DUP2 ADD SWAP1 PUSH2 0x3BCF SWAP2 SWAP1 PUSH2 0x9214 JUMP JUMPDEST SWAP1 POP SWAP5 SWAP4 POP POP POP POP JUMP JUMPDEST PUSH1 0x12 PUSH1 0x20 MSTORE DUP2 PUSH1 0x0 MSTORE PUSH1 0x40 PUSH1 0x0 KECCAK256 PUSH1 0x20 MSTORE DUP1 PUSH1 0x0 MSTORE PUSH1 0x40 PUSH1 0x0 KECCAK256 PUSH1 0x0 SWAP2 POP SWAP2 POP SWAP1 SLOAD SWAP1 PUSH2 0x100 EXP SWAP1 DIV PUSH1 0xFF AND DUP2 JUMP JUMPDEST PUSH32 0x57C872046F094B8A493EC5EB6EA374EAFBC3C05951E40DE3C4302A41F3F127BA DUP2 JUMP JUMPDEST PUSH1 0x0 DUP1 PUSH1 0x0 DUP1 PUSH1 0x0 DUP1 PUSH1 0x13 PUSH1 0x0 DUP10 PUSH20 0xFFFFFFFFFFFFFFFFFFFFFFFFFFFFFFFFFFFFFFFF AND PUSH20 0xFFFFFFFFFFFFFFFFFFFFFFFFFFFFFFFFFFFFFFFF AND DUP2 MSTORE PUSH1 0x20 ADD SWAP1 DUP2 MSTORE PUSH1 0x20 ADD PUSH1 0x0 KECCAK256 SWAP1 POP DUP8 DUP2 PUSH1 0x1 ADD SLOAD DUP3 PUSH1 0x2 ADD PUSH1 0x0 DUP11 PUSH20 0xFFFFFFFFFFFFFFFFFFFFFFFFFFFFFFFFFFFFFFFF AND PUSH20 0xFFFFFFFFFFFFFFFFFFFFFFFFFFFFFFFFFFFFFFFF AND DUP2 MSTORE PUSH1 0x20 ADD SWAP1 DUP2 MSTORE PUSH1 0x20 ADD PUSH1 0x0 KECCAK256 SLOAD DUP4 PUSH1 0x3 ADD SLOAD DUP5 PUSH1 0x5 ADD PUSH1 0x0 DUP13 PUSH20 0xFFFFFFFFFFFFFFFFFFFFFFFFFFFFFFFFFFFFFFFF AND PUSH20 0xFFFFFFFFFFFFFFFFFFFFFFFFFFFFFFFFFFFFFFFF AND DUP2 MSTORE PUSH1 0x20 ADD SWAP1 DUP2 MSTORE PUSH1 0x20 ADD PUSH1 0x0 KECCAK256 SLOAD SWAP6 POP SWAP6 POP SWAP6 POP SWAP6 POP SWAP6 POP POP SWAP3 SWAP6 POP SWAP3 SWAP6 SWAP1 SWAP4 POP JUMP JUMPDEST PUSH1 0xF PUSH1 0x20 MSTORE DUP1 PUSH1 0x0 MSTORE PUSH1 0x40 PUSH1 0x0 KECCAK256 PUSH1 0x0 SWAP2 POP SLOAD SWAP1 PUSH2 0x100 EXP SWAP1 DIV PUSH1 0xFF AND DUP2 JUMP JUMPDEST PUSH1 0x0 CALLER SWAP1 POP SWAP1 JUMP JUMPDEST PUSH1 0x0 DUP1 PUSH2 0x3DEE GAS PUSH1 0x96 PUSH4 0x66AD5C8A PUSH1 0xE0 SHL DUP10 DUP10 DUP10 DUP10 PUSH1 0x40 MLOAD PUSH1 0x24 ADD PUSH2 0x3D6A SWAP5 SWAP4 SWAP3 SWAP2 SWAP1 PUSH2 0x940F JUMP JUMPDEST PUSH1 0x40 MLOAD PUSH1 0x20 DUP2 DUP4 SUB SUB DUP2 MSTORE SWAP1 PUSH1 0x40 MSTORE SWAP1 PUSH28 0xFFFFFFFFFFFFFFFFFFFFFFFFFFFFFFFFFFFFFFFFFFFFFFFFFFFFFFFF NOT AND PUSH1 0x20 DUP3 ADD DUP1 MLOAD PUSH28 0xFFFFFFFFFFFFFFFFFFFFFFFFFFFFFFFFFFFFFFFFFFFFFFFFFFFFFFFF DUP4 DUP2 DUP4 AND OR DUP4 MSTORE POP POP POP POP ADDRESS PUSH20 0xFFFFFFFFFFFFFFFFFFFFFFFFFFFFFFFFFFFFFFFF AND PUSH2 0x60BA SWAP1 SWAP4 SWAP3 SWAP2 SWAP1 PUSH4 0xFFFFFFFF AND JUMP JUMPDEST SWAP2 POP SWAP2 POP DUP2 PUSH2 0x3E05 JUMPI PUSH2 0x3E04 DUP7 DUP7 DUP7 DUP7 DUP6 PUSH2 0x6152 JUMP JUMPDEST JUMPDEST POP POP POP POP POP POP JUMP JUMPDEST PUSH2 0x3E15 PUSH2 0x3D3A JUMP JUMPDEST PUSH20 0xFFFFFFFFFFFFFFFFFFFFFFFFFFFFFFFFFFFFFFFF AND PUSH2 0x3E33 PUSH2 0x2229 JUMP JUMPDEST PUSH20 0xFFFFFFFFFFFFFFFFFFFFFFFFFFFFFFFFFFFFFFFF AND EQ PUSH2 0x3E89 JUMPI PUSH1 0x40 MLOAD PUSH32 0x8C379A000000000000000000000000000000000000000000000000000000000 DUP2 MSTORE PUSH1 0x4 ADD PUSH2 0x3E80 SWAP1 PUSH2 0x94AE JUMP JUMPDEST PUSH1 0x40 MLOAD DUP1 SWAP2 SUB SWAP1 REVERT JUMPDEST JUMP JUMPDEST PUSH1 0x0 DUP1 PUSH1 0x0 DUP1 PUSH1 0x0 DUP1 DUP7 DUP1 PUSH1 0x20 ADD SWAP1 MLOAD DUP2 ADD SWAP1 PUSH2 0x3EA8 SWAP2 SWAP1 PUSH2 0x9521 JUMP JUMPDEST SWAP6 POP SWAP6 POP SWAP6 POP SWAP6 POP SWAP6 POP SWAP6 POP DUP1 ISZERO PUSH2 0x3F06 JUMPI DUP5 PUSH1 0xC PUSH1 0x0 DUP9 PUSH20 0xFFFFFFFFFFFFFFFFFFFFFFFFFFFFFFFFFFFFFFFF AND PUSH20 0xFFFFFFFFFFFFFFFFFFFFFFFFFFFFFFFFFFFFFFFF AND DUP2 MSTORE PUSH1 0x20 ADD SWAP1 DUP2 MSTORE PUSH1 0x20 ADD PUSH1 0x0 KECCAK256 DUP2 SWAP1 SSTORE POP DUP4 PUSH1 0xB DUP2 SWAP1 SSTORE POP JUMPDEST DUP2 PUSH1 0xD PUSH1 0x0 DUP9 PUSH20 0xFFFFFFFFFFFFFFFFFFFFFFFFFFFFFFFFFFFFFFFF AND PUSH20 0xFFFFFFFFFFFFFFFFFFFFFFFFFFFFFFFFFFFFFFFF AND DUP2 MSTORE PUSH1 0x20 ADD SWAP1 DUP2 MSTORE PUSH1 0x20 ADD PUSH1 0x0 KECCAK256 PUSH1 0x0 DUP6 PUSH20 0xFFFFFFFFFFFFFFFFFFFFFFFFFFFFFFFFFFFFFFFF AND PUSH20 0xFFFFFFFFFFFFFFFFFFFFFFFFFFFFFFFFFFFFFFFF AND DUP2 MSTORE PUSH1 0x20 ADD SWAP1 DUP2 MSTORE PUSH1 0x20 ADD PUSH1 0x0 KECCAK256 PUSH1 0x0 DUP3 DUP3 SLOAD PUSH2 0x3F92 SWAP2 SWAP1 PUSH2 0x8CA9 JUMP JUMPDEST SWAP3 POP POP DUP2 SWAP1 SSTORE POP PUSH32 0x2AD60E7E6B35D0A91EEC1D87117B7487AF4872C214CA5AEBCD4869028AEA0904 DUP9 PUSH1 0x40 MLOAD PUSH2 0x3FC8 SWAP2 SWAP1 PUSH2 0x95DF JUMP JUMPDEST PUSH1 0x40 MLOAD DUP1 SWAP2 SUB SWAP1 LOG1 POP POP POP POP POP POP POP POP POP POP JUMP JUMPDEST PUSH1 0x0 DUP1 PUSH1 0x0 SWAP1 SLOAD SWAP1 PUSH2 0x100 EXP SWAP1 DIV PUSH20 0xFFFFFFFFFFFFFFFFFFFFFFFFFFFFFFFFFFFFFFFF AND SWAP1 POP DUP2 PUSH1 0x0 DUP1 PUSH2 0x100 EXP DUP2 SLOAD DUP2 PUSH20 0xFFFFFFFFFFFFFFFFFFFFFFFFFFFFFFFFFFFFFFFF MUL NOT AND SWAP1 DUP4 PUSH20 0xFFFFFFFFFFFFFFFFFFFFFFFFFFFFFFFFFFFFFFFF AND MUL OR SWAP1 SSTORE POP DUP2 PUSH20 0xFFFFFFFFFFFFFFFFFFFFFFFFFFFFFFFFFFFFFFFF AND DUP2 PUSH20 0xFFFFFFFFFFFFFFFFFFFFFFFFFFFFFFFFFFFFFFFF AND PUSH32 0x8BE0079C531659141344CD1FD0A4F28419497F9722A3DAAFE3B4186F6B6457E0 PUSH1 0x40 MLOAD PUSH1 0x40 MLOAD DUP1 SWAP2 SUB SWAP1 LOG3 POP POP JUMP JUMPDEST PUSH2 0x4139 DUP3 DUP3 CALLER PUSH1 0x0 PUSH1 0xA DUP1 SLOAD PUSH2 0x40B5 SWAP1 PUSH2 0x7E3C JUMP JUMPDEST DUP1 PUSH1 0x1F ADD PUSH1 0x20 DUP1 SWAP2 DIV MUL PUSH1 0x20 ADD PUSH1 0x40 MLOAD SWAP1 DUP2 ADD PUSH1 0x40 MSTORE DUP1 SWAP3 SWAP2 SWAP1 DUP2 DUP2 MSTORE PUSH1 0x20 ADD DUP3 DUP1 SLOAD PUSH2 0x40E1 SWAP1 PUSH2 0x7E3C JUMP JUMPDEST DUP1 ISZERO PUSH2 0x412E JUMPI DUP1 PUSH1 0x1F LT PUSH2 0x4103 JUMPI PUSH2 0x100 DUP1 DUP4 SLOAD DIV MUL DUP4 MSTORE SWAP2 PUSH1 0x20 ADD SWAP2 PUSH2 0x412E JUMP JUMPDEST DUP3 ADD SWAP2 SWAP1 PUSH1 0x0 MSTORE PUSH1 0x20 PUSH1 0x0 KECCAK256 SWAP1 JUMPDEST DUP2 SLOAD DUP2 MSTORE SWAP1 PUSH1 0x1 ADD SWAP1 PUSH1 0x20 ADD DUP1 DUP4 GT PUSH2 0x4111 JUMPI DUP3 SWAP1 SUB PUSH1 0x1F AND DUP3 ADD SWAP2 JUMPDEST POP POP POP POP POP CALLVALUE PUSH2 0x6200 JUMP JUMPDEST POP POP JUMP JUMPDEST PUSH1 0x60 DUP2 PUSH1 0x1F DUP4 PUSH2 0x414D SWAP2 SWAP1 PUSH2 0x8CA9 JUMP JUMPDEST LT ISZERO PUSH2 0x418E JUMPI PUSH1 0x40 MLOAD PUSH32 0x8C379A000000000000000000000000000000000000000000000000000000000 DUP2 MSTORE PUSH1 0x4 ADD PUSH2 0x4185 SWAP1 PUSH2 0x9646 JUMP JUMPDEST PUSH1 0x40 MLOAD DUP1 SWAP2 SUB SWAP1 REVERT JUMPDEST DUP2 DUP4 PUSH2 0x419A SWAP2 SWAP1 PUSH2 0x8CA9 JUMP JUMPDEST DUP5 MLOAD LT ISZERO PUSH2 0x41DD JUMPI PUSH1 0x40 MLOAD PUSH32 0x8C379A000000000000000000000000000000000000000000000000000000000 DUP2 MSTORE PUSH1 0x4 ADD PUSH2 0x41D4 SWAP1 PUSH2 0x96B2 JUMP JUMPDEST PUSH1 0x40 MLOAD DUP1 SWAP2 SUB SWAP1 REVERT JUMPDEST PUSH1 0x60 DUP3 ISZERO PUSH1 0x0 DUP2 EQ PUSH2 0x41FE JUMPI PUSH1 0x40 MLOAD SWAP2 POP PUSH1 0x0 DUP3 MSTORE PUSH1 0x20 DUP3 ADD PUSH1 0x40 MSTORE PUSH2 0x424F JUMP JUMPDEST PUSH1 0x40 MLOAD SWAP2 POP PUSH1 0x1F DUP5 AND DUP1 ISZERO PUSH1 0x20 MUL DUP2 DUP5 ADD ADD DUP6 DUP2 ADD DUP8 DUP4 ISZERO PUSH1 0x20 MUL DUP5 DUP12 ADD ADD ADD JUMPDEST DUP2 DUP4 LT ISZERO PUSH2 0x423C JUMPI DUP1 MLOAD DUP4 MSTORE PUSH1 0x20 DUP4 ADD SWAP3 POP PUSH1 0x20 DUP2 ADD SWAP1 POP PUSH2 0x421F JUMP JUMPDEST POP DUP7 DUP6 MSTORE PUSH1 0x1F NOT PUSH1 0x1F DUP4 ADD AND PUSH1 0x40 MSTORE POP POP POP JUMPDEST POP DUP1 SWAP2 POP POP SWAP4 SWAP3 POP POP POP JUMP JUMPDEST POP POP JUMP JUMPDEST PUSH1 0x0 DUP1 PUSH1 0x0 DUP1 PUSH1 0x0 DUP1 PUSH1 0x0 PUSH1 0x13 PUSH1 0x0 DUP10 PUSH20 0xFFFFFFFFFFFFFFFFFFFFFFFFFFFFFFFFFFFFFFFF AND PUSH20 0xFFFFFFFFFFFFFFFFFFFFFFFFFFFFFFFFFFFFFFFF AND DUP2 MSTORE PUSH1 0x20 ADD SWAP1 DUP2 MSTORE PUSH1 0x20 ADD PUSH1 0x0 KECCAK256 SWAP1 POP PUSH1 0x0 JUMPDEST DUP10 MLOAD DUP2 LT ISZERO PUSH2 0x56B0 JUMPI PUSH2 0x42FE DUP11 DUP3 DUP2 MLOAD DUP2 LT PUSH2 0x42CD JUMPI PUSH2 0x42CC PUSH2 0x7F48 JUMP JUMPDEST JUMPDEST PUSH1 0x20 MUL PUSH1 0x20 ADD ADD MLOAD PUSH1 0xE0 ADD MLOAD DUP12 DUP4 DUP2 MLOAD DUP2 LT PUSH2 0x42EC JUMPI PUSH2 0x42EB PUSH2 0x7F48 JUMP JUMPDEST JUMPDEST PUSH1 0x20 MUL PUSH1 0x20 ADD ADD MLOAD PUSH2 0x140 ADD MLOAD PUSH2 0x638B JUMP JUMPDEST PUSH1 0x1 DUP11 DUP3 DUP2 MLOAD DUP2 LT PUSH2 0x4313 JUMPI PUSH2 0x4312 PUSH2 0x7F48 JUMP JUMPDEST JUMPDEST PUSH1 0x20 MUL PUSH1 0x20 ADD ADD MLOAD PUSH2 0x1C0 ADD MLOAD PUSH2 0xFFFF AND EQ DUP1 PUSH2 0x4353 JUMPI POP PUSH1 0x2 DUP11 DUP3 DUP2 MLOAD DUP2 LT PUSH2 0x4340 JUMPI PUSH2 0x433F PUSH2 0x7F48 JUMP JUMPDEST JUMPDEST PUSH1 0x20 MUL PUSH1 0x20 ADD ADD MLOAD PUSH2 0x1C0 ADD MLOAD PUSH2 0xFFFF AND EQ JUMPDEST ISZERO PUSH2 0x4EA1 JUMPI PUSH1 0x1 DUP11 DUP3 DUP2 MLOAD DUP2 LT PUSH2 0x436D JUMPI PUSH2 0x436C PUSH2 0x7F48 JUMP JUMPDEST JUMPDEST PUSH1 0x20 MUL PUSH1 0x20 ADD ADD MLOAD PUSH2 0x1C0 ADD MLOAD PUSH2 0xFFFF AND SUB PUSH2 0x4720 JUMPI DUP10 DUP2 DUP2 MLOAD DUP2 LT PUSH2 0x4396 JUMPI PUSH2 0x4395 PUSH2 0x7F48 JUMP JUMPDEST JUMPDEST PUSH1 0x20 MUL PUSH1 0x20 ADD ADD MLOAD PUSH1 0xC0 ADD MLOAD PUSH1 0xE PUSH1 0x0 DUP12 PUSH20 0xFFFFFFFFFFFFFFFFFFFFFFFFFFFFFFFFFFFFFFFF AND PUSH20 0xFFFFFFFFFFFFFFFFFFFFFFFFFFFFFFFFFFFFFFFF AND DUP2 MSTORE PUSH1 0x20 ADD SWAP1 DUP2 MSTORE PUSH1 0x20 ADD PUSH1 0x0 KECCAK256 PUSH1 0x0 DUP13 DUP5 DUP2 MLOAD DUP2 LT PUSH2 0x43F6 JUMPI PUSH2 0x43F5 PUSH2 0x7F48 JUMP JUMPDEST JUMPDEST PUSH1 0x20 MUL PUSH1 0x20 ADD ADD MLOAD PUSH1 0xE0 ADD MLOAD PUSH20 0xFFFFFFFFFFFFFFFFFFFFFFFFFFFFFFFFFFFFFFFF AND PUSH20 0xFFFFFFFFFFFFFFFFFFFFFFFFFFFFFFFFFFFFFFFF AND DUP2 MSTORE PUSH1 0x20 ADD SWAP1 DUP2 MSTORE PUSH1 0x20 ADD PUSH1 0x0 KECCAK256 SLOAD PUSH2 0x4447 SWAP2 SWAP1 PUSH2 0x8CA9 JUMP JUMPDEST PUSH1 0xD PUSH1 0x0 DUP12 PUSH20 0xFFFFFFFFFFFFFFFFFFFFFFFFFFFFFFFFFFFFFFFF AND PUSH20 0xFFFFFFFFFFFFFFFFFFFFFFFFFFFFFFFFFFFFFFFF AND DUP2 MSTORE PUSH1 0x20 ADD SWAP1 DUP2 MSTORE PUSH1 0x20 ADD PUSH1 0x0 KECCAK256 PUSH1 0x0 DUP13 DUP5 DUP2 MLOAD DUP2 LT PUSH2 0x449B JUMPI PUSH2 0x449A PUSH2 0x7F48 JUMP JUMPDEST JUMPDEST PUSH1 0x20 MUL PUSH1 0x20 ADD ADD MLOAD PUSH1 0xE0 ADD MLOAD PUSH20 0xFFFFFFFFFFFFFFFFFFFFFFFFFFFFFFFFFFFFFFFF AND PUSH20 0xFFFFFFFFFFFFFFFFFFFFFFFFFFFFFFFFFFFFFFFF AND DUP2 MSTORE PUSH1 0x20 ADD SWAP1 DUP2 MSTORE PUSH1 0x20 ADD PUSH1 0x0 KECCAK256 SLOAD LT ISZERO PUSH2 0x4523 JUMPI PUSH1 0x40 MLOAD PUSH32 0x8C379A000000000000000000000000000000000000000000000000000000000 DUP2 MSTORE PUSH1 0x4 ADD PUSH2 0x451A SWAP1 PUSH2 0x971E JUMP JUMPDEST PUSH1 0x40 MLOAD DUP1 SWAP2 SUB SWAP1 REVERT JUMPDEST DUP10 DUP2 DUP2 MLOAD DUP2 LT PUSH2 0x4536 JUMPI PUSH2 0x4535 PUSH2 0x7F48 JUMP JUMPDEST JUMPDEST PUSH1 0x20 MUL PUSH1 0x20 ADD ADD MLOAD PUSH1 0xC0 ADD MLOAD PUSH1 0xE PUSH1 0x0 DUP12 PUSH20 0xFFFFFFFFFFFFFFFFFFFFFFFFFFFFFFFFFFFFFFFF AND PUSH20 0xFFFFFFFFFFFFFFFFFFFFFFFFFFFFFFFFFFFFFFFF AND DUP2 MSTORE PUSH1 0x20 ADD SWAP1 DUP2 MSTORE PUSH1 0x20 ADD PUSH1 0x0 KECCAK256 PUSH1 0x0 DUP13 DUP5 DUP2 MLOAD DUP2 LT PUSH2 0x4596 JUMPI PUSH2 0x4595 PUSH2 0x7F48 JUMP JUMPDEST JUMPDEST PUSH1 0x20 MUL PUSH1 0x20 ADD ADD MLOAD PUSH1 0xE0 ADD MLOAD PUSH20 0xFFFFFFFFFFFFFFFFFFFFFFFFFFFFFFFFFFFFFFFF AND PUSH20 0xFFFFFFFFFFFFFFFFFFFFFFFFFFFFFFFFFFFFFFFF AND DUP2 MSTORE PUSH1 0x20 ADD SWAP1 DUP2 MSTORE PUSH1 0x20 ADD PUSH1 0x0 KECCAK256 PUSH1 0x0 DUP3 DUP3 SLOAD PUSH2 0x45EB SWAP2 SWAP1 PUSH2 0x8CA9 JUMP JUMPDEST SWAP3 POP POP DUP2 SWAP1 SSTORE POP PUSH1 0xF PUSH1 0x0 DUP12 DUP4 DUP2 MLOAD DUP2 LT PUSH2 0x4609 JUMPI PUSH2 0x4608 PUSH2 0x7F48 JUMP JUMPDEST JUMPDEST PUSH1 0x20 MUL PUSH1 0x20 ADD ADD MLOAD PUSH1 0xE0 ADD MLOAD PUSH20 0xFFFFFFFFFFFFFFFFFFFFFFFFFFFFFFFFFFFFFFFF AND PUSH20 0xFFFFFFFFFFFFFFFFFFFFFFFFFFFFFFFFFFFFFFFF AND DUP2 MSTORE PUSH1 0x20 ADD SWAP1 DUP2 MSTORE PUSH1 0x20 ADD PUSH1 0x0 KECCAK256 PUSH1 0x0 SWAP1 SLOAD SWAP1 PUSH2 0x100 EXP SWAP1 DIV PUSH1 0xFF AND ISZERO PUSH2 0x4688 JUMPI PUSH1 0x0 DUP11 DUP3 DUP2 MLOAD DUP2 LT PUSH2 0x4677 JUMPI PUSH2 0x4676 PUSH2 0x7F48 JUMP JUMPDEST JUMPDEST PUSH1 0x20 MUL PUSH1 0x20 ADD ADD MLOAD PUSH2 0x100 ADD MLOAD SWAP1 POP POP JUMPDEST PUSH1 0xF PUSH1 0x0 DUP12 DUP4 DUP2 MLOAD DUP2 LT PUSH2 0x469F JUMPI PUSH2 0x469E PUSH2 0x7F48 JUMP JUMPDEST JUMPDEST PUSH1 0x20 MUL PUSH1 0x20 ADD ADD MLOAD PUSH2 0x140 ADD MLOAD PUSH20 0xFFFFFFFFFFFFFFFFFFFFFFFFFFFFFFFFFFFFFFFF AND PUSH20 0xFFFFFFFFFFFFFFFFFFFFFFFFFFFFFFFFFFFFFFFF AND DUP2 MSTORE PUSH1 0x20 ADD SWAP1 DUP2 MSTORE PUSH1 0x20 ADD PUSH1 0x0 KECCAK256 PUSH1 0x0 SWAP1 SLOAD SWAP1 PUSH2 0x100 EXP SWAP1 DIV PUSH1 0xFF AND ISZERO PUSH2 0x471F JUMPI PUSH1 0x0 DUP11 DUP3 DUP2 MLOAD DUP2 LT PUSH2 0x470E JUMPI PUSH2 0x470D PUSH2 0x7F48 JUMP JUMPDEST JUMPDEST PUSH1 0x20 MUL PUSH1 0x20 ADD ADD MLOAD PUSH2 0x160 ADD MLOAD SWAP1 POP POP JUMPDEST JUMPDEST PUSH1 0x0 PUSH1 0x5 PUSH1 0x0 DUP13 DUP5 DUP2 MLOAD DUP2 LT PUSH2 0x4739 JUMPI PUSH2 0x4738 PUSH2 0x7F48 JUMP JUMPDEST JUMPDEST PUSH1 0x20 MUL PUSH1 0x20 ADD ADD MLOAD PUSH1 0x20 ADD MLOAD PUSH20 0xFFFFFFFFFFFFFFFFFFFFFFFFFFFFFFFFFFFFFFFF AND PUSH20 0xFFFFFFFFFFFFFFFFFFFFFFFFFFFFFFFFFFFFFFFF AND DUP2 MSTORE PUSH1 0x20 ADD SWAP1 DUP2 MSTORE PUSH1 0x20 ADD PUSH1 0x0 KECCAK256 DUP1 SLOAD SWAP1 POP EQ PUSH2 0x4900 JUMPI PUSH1 0x0 PUSH1 0x5 PUSH1 0x0 DUP13 DUP5 DUP2 MLOAD DUP2 LT PUSH2 0x47A1 JUMPI PUSH2 0x47A0 PUSH2 0x7F48 JUMP JUMPDEST JUMPDEST PUSH1 0x20 MUL PUSH1 0x20 ADD ADD MLOAD PUSH1 0x20 ADD MLOAD PUSH20 0xFFFFFFFFFFFFFFFFFFFFFFFFFFFFFFFFFFFFFFFF AND PUSH20 0xFFFFFFFFFFFFFFFFFFFFFFFFFFFFFFFFFFFFFFFF AND DUP2 MSTORE PUSH1 0x20 ADD SWAP1 DUP2 MSTORE PUSH1 0x20 ADD PUSH1 0x0 KECCAK256 DUP1 SLOAD DUP1 PUSH1 0x20 MUL PUSH1 0x20 ADD PUSH1 0x40 MLOAD SWAP1 DUP2 ADD PUSH1 0x40 MSTORE DUP1 SWAP3 SWAP2 SWAP1 DUP2 DUP2 MSTORE PUSH1 0x20 ADD DUP3 DUP1 SLOAD DUP1 ISZERO PUSH2 0x4831 JUMPI PUSH1 0x20 MUL DUP3 ADD SWAP2 SWAP1 PUSH1 0x0 MSTORE PUSH1 0x20 PUSH1 0x0 KECCAK256 SWAP1 JUMPDEST DUP2 SLOAD DUP2 MSTORE PUSH1 0x20 ADD SWAP1 PUSH1 0x1 ADD SWAP1 DUP1 DUP4 GT PUSH2 0x481D JUMPI JUMPDEST POP POP POP POP POP SWAP1 POP PUSH20 0x0 PUSH4 0xE3C808BC DUP3 PUSH1 0x1 DUP5 MLOAD PUSH2 0x4861 SWAP2 SWAP1 PUSH2 0x8B97 JUMP JUMPDEST DUP2 MLOAD DUP2 LT PUSH2 0x4872 JUMPI PUSH2 0x4871 PUSH2 0x7F48 JUMP JUMPDEST JUMPDEST PUSH1 0x20 MUL PUSH1 0x20 ADD ADD MLOAD DUP14 DUP6 DUP2 MLOAD DUP2 LT PUSH2 0x488D JUMPI PUSH2 0x488C PUSH2 0x7F48 JUMP JUMPDEST JUMPDEST PUSH1 0x20 MUL PUSH1 0x20 ADD ADD MLOAD PUSH2 0x200 ADD MLOAD PUSH1 0x40 MLOAD DUP4 PUSH4 0xFFFFFFFF AND PUSH1 0xE0 SHL DUP2 MSTORE PUSH1 0x4 ADD PUSH2 0x48B7 SWAP3 SWAP2 SWAP1 PUSH2 0x973E JUMP JUMPDEST PUSH1 0x20 PUSH1 0x40 MLOAD DUP1 DUP4 SUB DUP2 DUP7 GAS DELEGATECALL ISZERO DUP1 ISZERO PUSH2 0x48D4 JUMPI RETURNDATASIZE PUSH1 0x0 DUP1 RETURNDATACOPY RETURNDATASIZE PUSH1 0x0 REVERT JUMPDEST POP POP POP POP PUSH1 0x40 MLOAD RETURNDATASIZE PUSH1 0x1F NOT PUSH1 0x1F DUP3 ADD AND DUP3 ADD DUP1 PUSH1 0x40 MSTORE POP DUP2 ADD SWAP1 PUSH2 0x48F8 SWAP2 SWAP1 PUSH2 0x977C JUMP JUMPDEST SWAP4 POP POP PUSH2 0x49BB JUMP JUMPDEST PUSH20 0x0 PUSH4 0xE3C808BC DUP12 DUP4 DUP2 MLOAD DUP2 LT PUSH2 0x492D JUMPI PUSH2 0x492C PUSH2 0x7F48 JUMP JUMPDEST JUMPDEST PUSH1 0x20 MUL PUSH1 0x20 ADD ADD MLOAD PUSH2 0x200 ADD MLOAD DUP13 DUP5 DUP2 MLOAD DUP2 LT PUSH2 0x494D JUMPI PUSH2 0x494C PUSH2 0x7F48 JUMP JUMPDEST JUMPDEST PUSH1 0x20 MUL PUSH1 0x20 ADD ADD MLOAD PUSH2 0x200 ADD MLOAD PUSH1 0x40 MLOAD DUP4 PUSH4 0xFFFFFFFF AND PUSH1 0xE0 SHL DUP2 MSTORE PUSH1 0x4 ADD PUSH2 0x4977 SWAP3 SWAP2 SWAP1 PUSH2 0x973E JUMP JUMPDEST PUSH1 0x20 PUSH1 0x40 MLOAD DUP1 DUP4 SUB DUP2 DUP7 GAS DELEGATECALL ISZERO DUP1 ISZERO PUSH2 0x4994 JUMPI RETURNDATASIZE PUSH1 0x0 DUP1 RETURNDATACOPY RETURNDATASIZE PUSH1 0x0 REVERT JUMPDEST POP POP POP POP PUSH1 0x40 MLOAD RETURNDATASIZE PUSH1 0x1F NOT PUSH1 0x1F DUP3 ADD AND DUP3 ADD DUP1 PUSH1 0x40 MSTORE POP DUP2 ADD SWAP1 PUSH2 0x49B8 SWAP2 SWAP1 PUSH2 0x977C JUMP JUMPDEST SWAP3 POP JUMPDEST DUP10 DUP2 DUP2 MLOAD DUP2 LT PUSH2 0x49CE JUMPI PUSH2 0x49CD PUSH2 0x7F48 JUMP JUMPDEST JUMPDEST PUSH1 0x20 MUL PUSH1 0x20 ADD ADD MLOAD PUSH2 0x100 ADD MLOAD ISZERO PUSH2 0x4A79 JUMPI DUP10 DUP2 DUP2 MLOAD DUP2 LT PUSH2 0x49F3 JUMPI PUSH2 0x49F2 PUSH2 0x7F48 JUMP JUMPDEST JUMPDEST PUSH1 0x20 MUL PUSH1 0x20 ADD ADD MLOAD PUSH1 0xC0 ADD MLOAD DUP3 PUSH1 0x2 ADD PUSH1 0x0 DUP13 DUP5 DUP2 MLOAD DUP2 LT PUSH2 0x4A18 JUMPI PUSH2 0x4A17 PUSH2 0x7F48 JUMP JUMPDEST JUMPDEST PUSH1 0x20 MUL PUSH1 0x20 ADD ADD MLOAD PUSH1 0xE0 ADD MLOAD PUSH20 0xFFFFFFFFFFFFFFFFFFFFFFFFFFFFFFFFFFFFFFFF AND PUSH20 0xFFFFFFFFFFFFFFFFFFFFFFFFFFFFFFFFFFFFFFFF AND DUP2 MSTORE PUSH1 0x20 ADD SWAP1 DUP2 MSTORE PUSH1 0x20 ADD PUSH1 0x0 KECCAK256 PUSH1 0x0 DUP3 DUP3 SLOAD PUSH2 0x4A6D SWAP2 SWAP1 PUSH2 0x8CA9 JUMP JUMPDEST SWAP3 POP POP DUP2 SWAP1 SSTORE POP PUSH2 0x4BCE JUMP JUMPDEST DUP10 DUP2 DUP2 MLOAD DUP2 LT PUSH2 0x4A8C JUMPI PUSH2 0x4A8B PUSH2 0x7F48 JUMP JUMPDEST JUMPDEST PUSH1 0x20 MUL PUSH1 0x20 ADD ADD MLOAD PUSH1 0xC0 ADD MLOAD DUP3 PUSH1 0x2 ADD PUSH1 0x0 DUP13 DUP5 DUP2 MLOAD DUP2 LT PUSH2 0x4AB1 JUMPI PUSH2 0x4AB0 PUSH2 0x7F48 JUMP JUMPDEST JUMPDEST PUSH1 0x20 MUL PUSH1 0x20 ADD ADD MLOAD PUSH1 0xE0 ADD MLOAD PUSH20 0xFFFFFFFFFFFFFFFFFFFFFFFFFFFFFFFFFFFFFFFF AND PUSH20 0xFFFFFFFFFFFFFFFFFFFFFFFFFFFFFFFFFFFFFFFF AND DUP2 MSTORE PUSH1 0x20 ADD SWAP1 DUP2 MSTORE PUSH1 0x20 ADD PUSH1 0x0 KECCAK256 SLOAD LT ISZERO PUSH2 0x4B39 JUMPI PUSH1 0x40 MLOAD PUSH32 0x8C379A000000000000000000000000000000000000000000000000000000000 DUP2 MSTORE PUSH1 0x4 ADD PUSH2 0x4B30 SWAP1 PUSH2 0x981B JUMP JUMPDEST PUSH1 0x40 MLOAD DUP1 SWAP2 SUB SWAP1 REVERT JUMPDEST DUP10 DUP2 DUP2 MLOAD DUP2 LT PUSH2 0x4B4C JUMPI PUSH2 0x4B4B PUSH2 0x7F48 JUMP JUMPDEST JUMPDEST PUSH1 0x20 MUL PUSH1 0x20 ADD ADD MLOAD PUSH1 0xC0 ADD MLOAD DUP3 PUSH1 0x2 ADD PUSH1 0x0 DUP13 DUP5 DUP2 MLOAD DUP2 LT PUSH2 0x4B71 JUMPI PUSH2 0x4B70 PUSH2 0x7F48 JUMP JUMPDEST JUMPDEST PUSH1 0x20 MUL PUSH1 0x20 ADD ADD MLOAD PUSH1 0xE0 ADD MLOAD PUSH20 0xFFFFFFFFFFFFFFFFFFFFFFFFFFFFFFFFFFFFFFFF AND PUSH20 0xFFFFFFFFFFFFFFFFFFFFFFFFFFFFFFFFFFFFFFFF AND DUP2 MSTORE PUSH1 0x20 ADD SWAP1 DUP2 MSTORE PUSH1 0x20 ADD PUSH1 0x0 KECCAK256 PUSH1 0x0 DUP3 DUP3 SLOAD PUSH2 0x4BC6 SWAP2 SWAP1 PUSH2 0x8B97 JUMP JUMPDEST SWAP3 POP POP DUP2 SWAP1 SSTORE POP JUMPDEST DUP10 DUP2 DUP2 MLOAD DUP2 LT PUSH2 0x4BE1 JUMPI PUSH2 0x4BE0 PUSH2 0x7F48 JUMP JUMPDEST JUMPDEST PUSH1 0x20 MUL PUSH1 0x20 ADD ADD MLOAD PUSH2 0x160 ADD MLOAD ISZERO PUSH2 0x4C8E JUMPI DUP10 DUP2 DUP2 MLOAD DUP2 LT PUSH2 0x4C06 JUMPI PUSH2 0x4C05 PUSH2 0x7F48 JUMP JUMPDEST JUMPDEST PUSH1 0x20 MUL PUSH1 0x20 ADD ADD MLOAD PUSH2 0x120 ADD MLOAD DUP3 PUSH1 0x2 ADD PUSH1 0x0 DUP13 DUP5 DUP2 MLOAD DUP2 LT PUSH2 0x4C2C JUMPI PUSH2 0x4C2B PUSH2 0x7F48 JUMP JUMPDEST JUMPDEST PUSH1 0x20 MUL PUSH1 0x20 ADD ADD MLOAD PUSH2 0x140 ADD MLOAD PUSH20 0xFFFFFFFFFFFFFFFFFFFFFFFFFFFFFFFFFFFFFFFF AND PUSH20 0xFFFFFFFFFFFFFFFFFFFFFFFFFFFFFFFFFFFFFFFF AND DUP2 MSTORE PUSH1 0x20 ADD SWAP1 DUP2 MSTORE PUSH1 0x20 ADD PUSH1 0x0 KECCAK256 PUSH1 0x0 DUP3 DUP3 SLOAD PUSH2 0x4C82 SWAP2 SWAP1 PUSH2 0x8CA9 JUMP JUMPDEST SWAP3 POP POP DUP2 SWAP1 SSTORE POP PUSH2 0x4DE7 JUMP JUMPDEST DUP10 DUP2 DUP2 MLOAD DUP2 LT PUSH2 0x4CA1 JUMPI PUSH2 0x4CA0 PUSH2 0x7F48 JUMP JUMPDEST JUMPDEST PUSH1 0x20 MUL PUSH1 0x20 ADD ADD MLOAD PUSH2 0x120 ADD MLOAD DUP3 PUSH1 0x2 ADD PUSH1 0x0 DUP13 DUP5 DUP2 MLOAD DUP2 LT PUSH2 0x4CC7 JUMPI PUSH2 0x4CC6 PUSH2 0x7F48 JUMP JUMPDEST JUMPDEST PUSH1 0x20 MUL PUSH1 0x20 ADD ADD MLOAD PUSH2 0x140 ADD MLOAD PUSH20 0xFFFFFFFFFFFFFFFFFFFFFFFFFFFFFFFFFFFFFFFF AND PUSH20 0xFFFFFFFFFFFFFFFFFFFFFFFFFFFFFFFFFFFFFFFF AND DUP2 MSTORE PUSH1 0x20 ADD SWAP1 DUP2 MSTORE PUSH1 0x20 ADD PUSH1 0x0 KECCAK256 SLOAD LT ISZERO PUSH2 0x4D50 JUMPI PUSH1 0x40 MLOAD PUSH32 0x8C379A000000000000000000000000000000000000000000000000000000000 DUP2 MSTORE PUSH1 0x4 ADD PUSH2 0x4D47 SWAP1 PUSH2 0x9887 JUMP JUMPDEST PUSH1 0x40 MLOAD DUP1 SWAP2 SUB SWAP1 REVERT JUMPDEST DUP10 DUP2 DUP2 MLOAD DUP2 LT PUSH2 0x4D63 JUMPI PUSH2 0x4D62 PUSH2 0x7F48 JUMP JUMPDEST JUMPDEST PUSH1 0x20 MUL PUSH1 0x20 ADD ADD MLOAD PUSH2 0x120 ADD MLOAD DUP3 PUSH1 0x2 ADD PUSH1 0x0 DUP13 DUP5 DUP2 MLOAD DUP2 LT PUSH2 0x4D89 JUMPI PUSH2 0x4D88 PUSH2 0x7F48 JUMP JUMPDEST JUMPDEST PUSH1 0x20 MUL PUSH1 0x20 ADD ADD MLOAD PUSH2 0x140 ADD MLOAD PUSH20 0xFFFFFFFFFFFFFFFFFFFFFFFFFFFFFFFFFFFFFFFF AND PUSH20 0xFFFFFFFFFFFFFFFFFFFFFFFFFFFFFFFFFFFFFFFF AND DUP2 MSTORE PUSH1 0x20 ADD SWAP1 DUP2 MSTORE PUSH1 0x20 ADD PUSH1 0x0 KECCAK256 PUSH1 0x0 DUP3 DUP3 SLOAD PUSH2 0x4DDF SWAP2 SWAP1 PUSH2 0x8B97 JUMP JUMPDEST SWAP3 POP POP DUP2 SWAP1 SSTORE POP JUMPDEST PUSH1 0x5 PUSH1 0x0 DUP12 DUP4 DUP2 MLOAD DUP2 LT PUSH2 0x4DFE JUMPI PUSH2 0x4DFD PUSH2 0x7F48 JUMP JUMPDEST JUMPDEST PUSH1 0x20 MUL PUSH1 0x20 ADD ADD MLOAD PUSH1 0x20 ADD MLOAD PUSH20 0xFFFFFFFFFFFFFFFFFFFFFFFFFFFFFFFFFFFFFFFF AND PUSH20 0xFFFFFFFFFFFFFFFFFFFFFFFFFFFFFFFFFFFFFFFF AND DUP2 MSTORE PUSH1 0x20 ADD SWAP1 DUP2 MSTORE PUSH1 0x20 ADD PUSH1 0x0 KECCAK256 DUP4 SWAP1 DUP1 PUSH1 0x1 DUP2 SLOAD ADD DUP1 DUP3 SSTORE DUP1 SWAP2 POP POP PUSH1 0x1 SWAP1 SUB SWAP1 PUSH1 0x0 MSTORE PUSH1 0x20 PUSH1 0x0 KECCAK256 ADD PUSH1 0x0 SWAP1 SWAP2 SWAP1 SWAP2 SWAP1 SWAP2 POP SSTORE DUP10 DUP2 DUP2 MLOAD DUP2 LT PUSH2 0x4E7E JUMPI PUSH2 0x4E7D PUSH2 0x7F48 JUMP JUMPDEST JUMPDEST PUSH1 0x20 MUL PUSH1 0x20 ADD ADD MLOAD PUSH2 0x1A0 ADD MLOAD DUP3 PUSH1 0x3 ADD DUP2 SWAP1 SSTORE POP DUP3 DUP3 PUSH1 0x1 ADD DUP2 SWAP1 SSTORE POP PUSH2 0x569D JUMP JUMPDEST PUSH1 0x4 DUP11 DUP3 DUP2 MLOAD DUP2 LT PUSH2 0x4EB6 JUMPI PUSH2 0x4EB5 PUSH2 0x7F48 JUMP JUMPDEST JUMPDEST PUSH1 0x20 MUL PUSH1 0x20 ADD ADD MLOAD PUSH2 0x1C0 ADD MLOAD PUSH2 0xFFFF AND SUB PUSH2 0x569C JUMPI PUSH1 0x1 DUP3 PUSH1 0x6 ADD SLOAD PUSH2 0x4EDD SWAP2 SWAP1 PUSH2 0x8CA9 JUMP JUMPDEST DUP11 DUP3 DUP2 MLOAD DUP2 LT PUSH2 0x4EF0 JUMPI PUSH2 0x4EEF PUSH2 0x7F48 JUMP JUMPDEST JUMPDEST PUSH1 0x20 MUL PUSH1 0x20 ADD ADD MLOAD PUSH2 0x1A0 ADD MLOAD EQ PUSH2 0x4F3D JUMPI PUSH1 0x40 MLOAD PUSH32 0x8C379A000000000000000000000000000000000000000000000000000000000 DUP2 MSTORE PUSH1 0x4 ADD PUSH2 0x4F34 SWAP1 PUSH2 0x98F3 JUMP JUMPDEST PUSH1 0x40 MLOAD DUP1 SWAP2 SUB SWAP1 REVERT JUMPDEST PUSH1 0x0 PUSH1 0x6 PUSH1 0x0 DUP13 DUP5 DUP2 MLOAD DUP2 LT PUSH2 0x4F56 JUMPI PUSH2 0x4F55 PUSH2 0x7F48 JUMP JUMPDEST JUMPDEST PUSH1 0x20 MUL PUSH1 0x20 ADD ADD MLOAD PUSH1 0x20 ADD MLOAD PUSH20 0xFFFFFFFFFFFFFFFFFFFFFFFFFFFFFFFFFFFFFFFF AND PUSH20 0xFFFFFFFFFFFFFFFFFFFFFFFFFFFFFFFFFFFFFFFF AND DUP2 MSTORE PUSH1 0x20 ADD SWAP1 DUP2 MSTORE PUSH1 0x20 ADD PUSH1 0x0 KECCAK256 DUP1 SLOAD SWAP1 POP EQ PUSH2 0x50FF JUMPI PUSH1 0x0 PUSH1 0x6 PUSH1 0x0 DUP12 PUSH20 0xFFFFFFFFFFFFFFFFFFFFFFFFFFFFFFFFFFFFFFFF AND PUSH20 0xFFFFFFFFFFFFFFFFFFFFFFFFFFFFFFFFFFFFFFFF AND DUP2 MSTORE PUSH1 0x20 ADD SWAP1 DUP2 MSTORE PUSH1 0x20 ADD PUSH1 0x0 KECCAK256 DUP1 SLOAD DUP1 PUSH1 0x20 MUL PUSH1 0x20 ADD PUSH1 0x40 MLOAD SWAP1 DUP2 ADD PUSH1 0x40 MSTORE DUP1 SWAP3 SWAP2 SWAP1 DUP2 DUP2 MSTORE PUSH1 0x20 ADD DUP3 DUP1 SLOAD DUP1 ISZERO PUSH2 0x5030 JUMPI PUSH1 0x20 MUL DUP3 ADD SWAP2 SWAP1 PUSH1 0x0 MSTORE PUSH1 0x20 PUSH1 0x0 KECCAK256 SWAP1 JUMPDEST DUP2 SLOAD DUP2 MSTORE PUSH1 0x20 ADD SWAP1 PUSH1 0x1 ADD SWAP1 DUP1 DUP4 GT PUSH2 0x501C JUMPI JUMPDEST POP POP POP POP POP SWAP1 POP PUSH20 0x0 PUSH4 0xE3C808BC DUP3 PUSH1 0x1 DUP5 MLOAD PUSH2 0x5060 SWAP2 SWAP1 PUSH2 0x8B97 JUMP JUMPDEST DUP2 MLOAD DUP2 LT PUSH2 0x5071 JUMPI PUSH2 0x5070 PUSH2 0x7F48 JUMP JUMPDEST JUMPDEST PUSH1 0x20 MUL PUSH1 0x20 ADD ADD MLOAD DUP14 DUP6 DUP2 MLOAD DUP2 LT PUSH2 0x508C JUMPI PUSH2 0x508B PUSH2 0x7F48 JUMP JUMPDEST JUMPDEST PUSH1 0x20 MUL PUSH1 0x20 ADD ADD MLOAD PUSH2 0x240 ADD MLOAD PUSH1 0x40 MLOAD DUP4 PUSH4 0xFFFFFFFF AND PUSH1 0xE0 SHL DUP2 MSTORE PUSH1 0x4 ADD PUSH2 0x50B6 SWAP3 SWAP2 SWAP1 PUSH2 0x973E JUMP JUMPDEST PUSH1 0x20 PUSH1 0x40 MLOAD DUP1 DUP4 SUB DUP2 DUP7 GAS DELEGATECALL ISZERO DUP1 ISZERO PUSH2 0x50D3 JUMPI RETURNDATASIZE PUSH1 0x0 DUP1 RETURNDATACOPY RETURNDATASIZE PUSH1 0x0 REVERT JUMPDEST POP POP POP POP PUSH1 0x40 MLOAD RETURNDATASIZE PUSH1 0x1F NOT PUSH1 0x1F DUP3 ADD AND DUP3 ADD DUP1 PUSH1 0x40 MSTORE POP DUP2 ADD SWAP1 PUSH2 0x50F7 SWAP2 SWAP1 PUSH2 0x977C JUMP JUMPDEST SWAP4 POP POP PUSH2 0x51BA JUMP JUMPDEST PUSH20 0x0 PUSH4 0xE3C808BC DUP12 DUP4 DUP2 MLOAD DUP2 LT PUSH2 0x512C JUMPI PUSH2 0x512B PUSH2 0x7F48 JUMP JUMPDEST JUMPDEST PUSH1 0x20 MUL PUSH1 0x20 ADD ADD MLOAD PUSH2 0x240 ADD MLOAD DUP13 DUP5 DUP2 MLOAD DUP2 LT PUSH2 0x514C JUMPI PUSH2 0x514B PUSH2 0x7F48 JUMP JUMPDEST JUMPDEST PUSH1 0x20 MUL PUSH1 0x20 ADD ADD MLOAD PUSH2 0x240 ADD MLOAD PUSH1 0x40 MLOAD DUP4 PUSH4 0xFFFFFFFF AND PUSH1 0xE0 SHL DUP2 MSTORE PUSH1 0x4 ADD PUSH2 0x5176 SWAP3 SWAP2 SWAP1 PUSH2 0x973E JUMP JUMPDEST PUSH1 0x20 PUSH1 0x40 MLOAD DUP1 DUP4 SUB DUP2 DUP7 GAS DELEGATECALL ISZERO DUP1 ISZERO PUSH2 0x5193 JUMPI RETURNDATASIZE PUSH1 0x0 DUP1 RETURNDATACOPY RETURNDATASIZE PUSH1 0x0 REVERT JUMPDEST POP POP POP POP PUSH1 0x40 MLOAD RETURNDATASIZE PUSH1 0x1F NOT PUSH1 0x1F DUP3 ADD AND DUP3 ADD DUP1 PUSH1 0x40 MSTORE POP DUP2 ADD SWAP1 PUSH2 0x51B7 SWAP2 SWAP1 PUSH2 0x977C JUMP JUMPDEST SWAP3 POP JUMPDEST DUP10 DUP2 DUP2 MLOAD DUP2 LT PUSH2 0x51CD JUMPI PUSH2 0x51CC PUSH2 0x7F48 JUMP JUMPDEST JUMPDEST PUSH1 0x20 MUL PUSH1 0x20 ADD ADD MLOAD PUSH2 0x100 ADD MLOAD ISZERO PUSH2 0x5278 JUMPI DUP10 DUP2 DUP2 MLOAD DUP2 LT PUSH2 0x51F2 JUMPI PUSH2 0x51F1 PUSH2 0x7F48 JUMP JUMPDEST JUMPDEST PUSH1 0x20 MUL PUSH1 0x20 ADD ADD MLOAD PUSH1 0xC0 ADD MLOAD DUP3 PUSH1 0x5 ADD PUSH1 0x0 DUP13 DUP5 DUP2 MLOAD DUP2 LT PUSH2 0x5217 JUMPI PUSH2 0x5216 PUSH2 0x7F48 JUMP JUMPDEST JUMPDEST PUSH1 0x20 MUL PUSH1 0x20 ADD ADD MLOAD PUSH1 0xE0 ADD MLOAD PUSH20 0xFFFFFFFFFFFFFFFFFFFFFFFFFFFFFFFFFFFFFFFF AND PUSH20 0xFFFFFFFFFFFFFFFFFFFFFFFFFFFFFFFFFFFFFFFF AND DUP2 MSTORE PUSH1 0x20 ADD SWAP1 DUP2 MSTORE PUSH1 0x20 ADD PUSH1 0x0 KECCAK256 PUSH1 0x0 DUP3 DUP3 SLOAD PUSH2 0x526C SWAP2 SWAP1 PUSH2 0x8CA9 JUMP JUMPDEST SWAP3 POP POP DUP2 SWAP1 SSTORE POP PUSH2 0x53CD JUMP JUMPDEST DUP10 DUP2 DUP2 MLOAD DUP2 LT PUSH2 0x528B JUMPI PUSH2 0x528A PUSH2 0x7F48 JUMP JUMPDEST JUMPDEST PUSH1 0x20 MUL PUSH1 0x20 ADD ADD MLOAD PUSH1 0xC0 ADD MLOAD DUP3 PUSH1 0x5 ADD PUSH1 0x0 DUP13 DUP5 DUP2 MLOAD DUP2 LT PUSH2 0x52B0 JUMPI PUSH2 0x52AF PUSH2 0x7F48 JUMP JUMPDEST JUMPDEST PUSH1 0x20 MUL PUSH1 0x20 ADD ADD MLOAD PUSH1 0xE0 ADD MLOAD PUSH20 0xFFFFFFFFFFFFFFFFFFFFFFFFFFFFFFFFFFFFFFFF AND PUSH20 0xFFFFFFFFFFFFFFFFFFFFFFFFFFFFFFFFFFFFFFFF AND DUP2 MSTORE PUSH1 0x20 ADD SWAP1 DUP2 MSTORE PUSH1 0x20 ADD PUSH1 0x0 KECCAK256 SLOAD LT ISZERO PUSH2 0x5338 JUMPI PUSH1 0x40 MLOAD PUSH32 0x8C379A000000000000000000000000000000000000000000000000000000000 DUP2 MSTORE PUSH1 0x4 ADD PUSH2 0x532F SWAP1 PUSH2 0x9985 JUMP JUMPDEST PUSH1 0x40 MLOAD DUP1 SWAP2 SUB SWAP1 REVERT JUMPDEST DUP10 DUP2 DUP2 MLOAD DUP2 LT PUSH2 0x534B JUMPI PUSH2 0x534A PUSH2 0x7F48 JUMP JUMPDEST JUMPDEST PUSH1 0x20 MUL PUSH1 0x20 ADD ADD MLOAD PUSH1 0xC0 ADD MLOAD DUP3 PUSH1 0x5 ADD PUSH1 0x0 DUP13 DUP5 DUP2 MLOAD DUP2 LT PUSH2 0x5370 JUMPI PUSH2 0x536F PUSH2 0x7F48 JUMP JUMPDEST JUMPDEST PUSH1 0x20 MUL PUSH1 0x20 ADD ADD MLOAD PUSH1 0xE0 ADD MLOAD PUSH20 0xFFFFFFFFFFFFFFFFFFFFFFFFFFFFFFFFFFFFFFFF AND PUSH20 0xFFFFFFFFFFFFFFFFFFFFFFFFFFFFFFFFFFFFFFFF AND DUP2 MSTORE PUSH1 0x20 ADD SWAP1 DUP2 MSTORE PUSH1 0x20 ADD PUSH1 0x0 KECCAK256 PUSH1 0x0 DUP3 DUP3 SLOAD PUSH2 0x53C5 SWAP2 SWAP1 PUSH2 0x8B97 JUMP JUMPDEST SWAP3 POP POP DUP2 SWAP1 SSTORE POP JUMPDEST DUP10 DUP2 DUP2 MLOAD DUP2 LT PUSH2 0x53E0 JUMPI PUSH2 0x53DF PUSH2 0x7F48 JUMP JUMPDEST JUMPDEST PUSH1 0x20 MUL PUSH1 0x20 ADD ADD MLOAD PUSH2 0x160 ADD MLOAD ISZERO PUSH2 0x548D JUMPI DUP10 DUP2 DUP2 MLOAD DUP2 LT PUSH2 0x5405 JUMPI PUSH2 0x5404 PUSH2 0x7F48 JUMP JUMPDEST JUMPDEST PUSH1 0x20 MUL PUSH1 0x20 ADD ADD MLOAD PUSH2 0x120 ADD MLOAD DUP3 PUSH1 0x5 ADD PUSH1 0x0 DUP13 DUP5 DUP2 MLOAD DUP2 LT PUSH2 0x542B JUMPI PUSH2 0x542A PUSH2 0x7F48 JUMP JUMPDEST JUMPDEST PUSH1 0x20 MUL PUSH1 0x20 ADD ADD MLOAD PUSH2 0x140 ADD MLOAD PUSH20 0xFFFFFFFFFFFFFFFFFFFFFFFFFFFFFFFFFFFFFFFF AND PUSH20 0xFFFFFFFFFFFFFFFFFFFFFFFFFFFFFFFFFFFFFFFF AND DUP2 MSTORE PUSH1 0x20 ADD SWAP1 DUP2 MSTORE PUSH1 0x20 ADD PUSH1 0x0 KECCAK256 PUSH1 0x0 DUP3 DUP3 SLOAD PUSH2 0x5481 SWAP2 SWAP1 PUSH2 0x8CA9 JUMP JUMPDEST SWAP3 POP POP DUP2 SWAP1 SSTORE POP PUSH2 0x55E6 JUMP JUMPDEST DUP10 DUP2 DUP2 MLOAD DUP2 LT PUSH2 0x54A0 JUMPI PUSH2 0x549F PUSH2 0x7F48 JUMP JUMPDEST JUMPDEST PUSH1 0x20 MUL PUSH1 0x20 ADD ADD MLOAD PUSH2 0x120 ADD MLOAD DUP3 PUSH1 0x5 ADD PUSH1 0x0 DUP13 DUP5 DUP2 MLOAD DUP2 LT PUSH2 0x54C6 JUMPI PUSH2 0x54C5 PUSH2 0x7F48 JUMP JUMPDEST JUMPDEST PUSH1 0x20 MUL PUSH1 0x20 ADD ADD MLOAD PUSH2 0x140 ADD MLOAD PUSH20 0xFFFFFFFFFFFFFFFFFFFFFFFFFFFFFFFFFFFFFFFF AND PUSH20 0xFFFFFFFFFFFFFFFFFFFFFFFFFFFFFFFFFFFFFFFF AND DUP2 MSTORE PUSH1 0x20 ADD SWAP1 DUP2 MSTORE PUSH1 0x20 ADD PUSH1 0x0 KECCAK256 SLOAD LT ISZERO PUSH2 0x554F JUMPI PUSH1 0x40 MLOAD PUSH32 0x8C379A000000000000000000000000000000000000000000000000000000000 DUP2 MSTORE PUSH1 0x4 ADD PUSH2 0x5546 SWAP1 PUSH2 0x99F1 JUMP JUMPDEST PUSH1 0x40 MLOAD DUP1 SWAP2 SUB SWAP1 REVERT JUMPDEST DUP10 DUP2 DUP2 MLOAD DUP2 LT PUSH2 0x5562 JUMPI PUSH2 0x5561 PUSH2 0x7F48 JUMP JUMPDEST JUMPDEST PUSH1 0x20 MUL PUSH1 0x20 ADD ADD MLOAD PUSH2 0x120 ADD MLOAD DUP3 PUSH1 0x5 ADD PUSH1 0x0 DUP13 DUP5 DUP2 MLOAD DUP2 LT PUSH2 0x5588 JUMPI PUSH2 0x5587 PUSH2 0x7F48 JUMP JUMPDEST JUMPDEST PUSH1 0x20 MUL PUSH1 0x20 ADD ADD MLOAD PUSH2 0x140 ADD MLOAD PUSH20 0xFFFFFFFFFFFFFFFFFFFFFFFFFFFFFFFFFFFFFFFF AND PUSH20 0xFFFFFFFFFFFFFFFFFFFFFFFFFFFFFFFFFFFFFFFF AND DUP2 MSTORE PUSH1 0x20 ADD SWAP1 DUP2 MSTORE PUSH1 0x20 ADD PUSH1 0x0 KECCAK256 PUSH1 0x0 DUP3 DUP3 SLOAD PUSH2 0x55DE SWAP2 SWAP1 PUSH2 0x8B97 JUMP JUMPDEST SWAP3 POP POP DUP2 SWAP1 SSTORE POP JUMPDEST PUSH1 0x6 PUSH1 0x0 DUP12 DUP4 DUP2 MLOAD DUP2 LT PUSH2 0x55FD JUMPI PUSH2 0x55FC PUSH2 0x7F48 JUMP JUMPDEST JUMPDEST PUSH1 0x20 MUL PUSH1 0x20 ADD ADD MLOAD PUSH1 0x20 ADD MLOAD PUSH20 0xFFFFFFFFFFFFFFFFFFFFFFFFFFFFFFFFFFFFFFFF AND PUSH20 0xFFFFFFFFFFFFFFFFFFFFFFFFFFFFFFFFFFFFFFFF AND DUP2 MSTORE PUSH1 0x20 ADD SWAP1 DUP2 MSTORE PUSH1 0x20 ADD PUSH1 0x0 KECCAK256 DUP4 SWAP1 DUP1 PUSH1 0x1 DUP2 SLOAD ADD DUP1 DUP3 SSTORE DUP1 SWAP2 POP POP PUSH1 0x1 SWAP1 SUB SWAP1 PUSH1 0x0 MSTORE PUSH1 0x20 PUSH1 0x0 KECCAK256 ADD PUSH1 0x0 SWAP1 SWAP2 SWAP1 SWAP2 SWAP1 SWAP2 POP SSTORE DUP10 DUP2 DUP2 MLOAD DUP2 LT PUSH2 0x567D JUMPI PUSH2 0x567C PUSH2 0x7F48 JUMP JUMPDEST JUMPDEST PUSH1 0x20 MUL PUSH1 0x20 ADD ADD MLOAD PUSH2 0x1A0 ADD MLOAD DUP3 PUSH1 0x6 ADD DUP2 SWAP1 SSTORE POP DUP3 DUP3 PUSH1 0x4 ADD DUP2 SWAP1 SSTORE POP JUMPDEST JUMPDEST DUP1 DUP1 PUSH2 0x56A8 SWAP1 PUSH2 0x7FA6 JUMP JUMPDEST SWAP2 POP POP PUSH2 0x42AE JUMP JUMPDEST POP POP POP SWAP3 SWAP6 POP SWAP3 SWAP6 SWAP1 SWAP4 POP JUMP JUMPDEST POP POP JUMP JUMPDEST PUSH1 0x0 PUSH1 0x1 ISZERO ISZERO PUSH1 0x7 PUSH1 0x2 SWAP1 SLOAD SWAP1 PUSH2 0x100 EXP SWAP1 DIV PUSH1 0xFF AND ISZERO ISZERO EQ PUSH2 0x5719 JUMPI PUSH1 0x40 MLOAD PUSH32 0x8C379A000000000000000000000000000000000000000000000000000000000 DUP2 MSTORE PUSH1 0x4 ADD PUSH2 0x5710 SWAP1 PUSH2 0x9A5D JUMP JUMPDEST PUSH1 0x40 MLOAD DUP1 SWAP2 SUB SWAP1 REVERT JUMPDEST PUSH1 0x0 PUSH1 0x13 PUSH1 0x0 DUP5 PUSH20 0xFFFFFFFFFFFFFFFFFFFFFFFFFFFFFFFFFFFFFFFF AND PUSH20 0xFFFFFFFFFFFFFFFFFFFFFFFFFFFFFFFFFFFFFFFF AND DUP2 MSTORE PUSH1 0x20 ADD SWAP1 DUP2 MSTORE PUSH1 0x20 ADD PUSH1 0x0 KECCAK256 SWAP1 POP DUP4 PUSH1 0x80 ADD MLOAD MLOAD DUP5 PUSH1 0x60 ADD MLOAD MLOAD EQ PUSH2 0x57A8 JUMPI PUSH1 0x40 MLOAD PUSH32 0x8C379A000000000000000000000000000000000000000000000000000000000 DUP2 MSTORE PUSH1 0x4 ADD PUSH2 0x579F SWAP1 PUSH2 0x9AC9 JUMP JUMPDEST PUSH1 0x40 MLOAD DUP1 SWAP2 SUB SWAP1 REVERT JUMPDEST PUSH1 0x0 PUSH1 0x5 PUSH1 0x0 DUP6 PUSH20 0xFFFFFFFFFFFFFFFFFFFFFFFFFFFFFFFFFFFFFFFF AND PUSH20 0xFFFFFFFFFFFFFFFFFFFFFFFFFFFFFFFFFFFFFFFF AND DUP2 MSTORE PUSH1 0x20 ADD SWAP1 DUP2 MSTORE PUSH1 0x20 ADD PUSH1 0x0 KECCAK256 DUP1 SLOAD DUP1 PUSH1 0x20 MUL PUSH1 0x20 ADD PUSH1 0x40 MLOAD SWAP1 DUP2 ADD PUSH1 0x40 MSTORE DUP1 SWAP3 SWAP2 SWAP1 DUP2 DUP2 MSTORE PUSH1 0x20 ADD DUP3 DUP1 SLOAD DUP1 ISZERO PUSH2 0x5833 JUMPI PUSH1 0x20 MUL DUP3 ADD SWAP2 SWAP1 PUSH1 0x0 MSTORE PUSH1 0x20 PUSH1 0x0 KECCAK256 SWAP1 JUMPDEST DUP2 SLOAD DUP2 MSTORE PUSH1 0x20 ADD SWAP1 PUSH1 0x1 ADD SWAP1 DUP1 DUP4 GT PUSH2 0x581F JUMPI JUMPDEST POP POP POP POP POP SWAP1 POP PUSH1 0x0 PUSH1 0x6 PUSH1 0x0 DUP7 PUSH20 0xFFFFFFFFFFFFFFFFFFFFFFFFFFFFFFFFFFFFFFFF AND PUSH20 0xFFFFFFFFFFFFFFFFFFFFFFFFFFFFFFFFFFFFFFFF AND DUP2 MSTORE PUSH1 0x20 ADD SWAP1 DUP2 MSTORE PUSH1 0x20 ADD PUSH1 0x0 KECCAK256 DUP1 SLOAD DUP1 PUSH1 0x20 MUL PUSH1 0x20 ADD PUSH1 0x40 MLOAD SWAP1 DUP2 ADD PUSH1 0x40 MSTORE DUP1 SWAP3 SWAP2 SWAP1 DUP2 DUP2 MSTORE PUSH1 0x20 ADD DUP3 DUP1 SLOAD DUP1 ISZERO PUSH2 0x58C5 JUMPI PUSH1 0x20 MUL DUP3 ADD SWAP2 SWAP1 PUSH1 0x0 MSTORE PUSH1 0x20 PUSH1 0x0 KECCAK256 SWAP1 JUMPDEST DUP2 SLOAD DUP2 MSTORE PUSH1 0x20 ADD SWAP1 PUSH1 0x1 ADD SWAP1 DUP1 DUP4 GT PUSH2 0x58B1 JUMPI JUMPDEST POP POP POP POP POP SWAP1 POP PUSH1 0x0 JUMPDEST DUP7 PUSH1 0x60 ADD MLOAD MLOAD DUP2 LT ISZERO PUSH2 0x5D17 JUMPI DUP7 PUSH1 0xA0 ADD MLOAD ISZERO PUSH2 0x5AF7 JUMPI DUP7 PUSH2 0x180 ADD MLOAD ISZERO PUSH2 0x5A5D JUMPI DUP7 PUSH1 0x60 ADD MLOAD DUP2 DUP2 MLOAD DUP2 LT PUSH2 0x5908 JUMPI PUSH2 0x5907 PUSH2 0x7F48 JUMP JUMPDEST JUMPDEST PUSH1 0x20 MUL PUSH1 0x20 ADD ADD MLOAD PUSH1 0x15 PUSH1 0x0 DUP10 PUSH1 0x20 ADD MLOAD PUSH20 0xFFFFFFFFFFFFFFFFFFFFFFFFFFFFFFFFFFFFFFFF AND PUSH20 0xFFFFFFFFFFFFFFFFFFFFFFFFFFFFFFFFFFFFFFFF AND DUP2 MSTORE PUSH1 0x20 ADD SWAP1 DUP2 MSTORE PUSH1 0x20 ADD PUSH1 0x0 KECCAK256 PUSH1 0x0 DUP10 PUSH1 0x80 ADD MLOAD DUP5 DUP2 MLOAD DUP2 LT PUSH2 0x596C JUMPI PUSH2 0x596B PUSH2 0x7F48 JUMP JUMPDEST JUMPDEST PUSH1 0x20 MUL PUSH1 0x20 ADD ADD MLOAD PUSH20 0xFFFFFFFFFFFFFFFFFFFFFFFFFFFFFFFFFFFFFFFF AND PUSH20 0xFFFFFFFFFFFFFFFFFFFFFFFFFFFFFFFFFFFFFFFF AND DUP2 MSTORE PUSH1 0x20 ADD SWAP1 DUP2 MSTORE PUSH1 0x20 ADD PUSH1 0x0 KECCAK256 PUSH1 0x0 DUP3 DUP3 SLOAD PUSH2 0x59BD SWAP2 SWAP1 PUSH2 0x8B97 JUMP JUMPDEST SWAP3 POP POP DUP2 SWAP1 SSTORE POP DUP7 PUSH1 0x60 ADD MLOAD DUP2 DUP2 MLOAD DUP2 LT PUSH2 0x59DB JUMPI PUSH2 0x59DA PUSH2 0x7F48 JUMP JUMPDEST JUMPDEST PUSH1 0x20 MUL PUSH1 0x20 ADD ADD MLOAD DUP5 PUSH1 0x2 ADD PUSH1 0x0 DUP10 PUSH1 0x80 ADD MLOAD DUP5 DUP2 MLOAD DUP2 LT PUSH2 0x5A00 JUMPI PUSH2 0x59FF PUSH2 0x7F48 JUMP JUMPDEST JUMPDEST PUSH1 0x20 MUL PUSH1 0x20 ADD ADD MLOAD PUSH20 0xFFFFFFFFFFFFFFFFFFFFFFFFFFFFFFFFFFFFFFFF AND PUSH20 0xFFFFFFFFFFFFFFFFFFFFFFFFFFFFFFFFFFFFFFFF AND DUP2 MSTORE PUSH1 0x20 ADD SWAP1 DUP2 MSTORE PUSH1 0x20 ADD PUSH1 0x0 KECCAK256 PUSH1 0x0 DUP3 DUP3 SLOAD PUSH2 0x5A51 SWAP2 SWAP1 PUSH2 0x8B97 JUMP JUMPDEST SWAP3 POP POP DUP2 SWAP1 SSTORE POP PUSH2 0x5AF2 JUMP JUMPDEST DUP7 PUSH1 0x60 ADD MLOAD DUP2 DUP2 MLOAD DUP2 LT PUSH2 0x5A74 JUMPI PUSH2 0x5A73 PUSH2 0x7F48 JUMP JUMPDEST JUMPDEST PUSH1 0x20 MUL PUSH1 0x20 ADD ADD MLOAD DUP5 PUSH1 0x2 ADD PUSH1 0x0 DUP10 PUSH1 0x80 ADD MLOAD DUP5 DUP2 MLOAD DUP2 LT PUSH2 0x5A99 JUMPI PUSH2 0x5A98 PUSH2 0x7F48 JUMP JUMPDEST JUMPDEST PUSH1 0x20 MUL PUSH1 0x20 ADD ADD MLOAD PUSH20 0xFFFFFFFFFFFFFFFFFFFFFFFFFFFFFFFFFFFFFFFF AND PUSH20 0xFFFFFFFFFFFFFFFFFFFFFFFFFFFFFFFFFFFFFFFF AND DUP2 MSTORE PUSH1 0x20 ADD SWAP1 DUP2 MSTORE PUSH1 0x20 ADD PUSH1 0x0 KECCAK256 PUSH1 0x0 DUP3 DUP3 SLOAD PUSH2 0x5AEA SWAP2 SWAP1 PUSH2 0x8CA9 JUMP JUMPDEST SWAP3 POP POP DUP2 SWAP1 SSTORE POP JUMPDEST PUSH2 0x5D04 JUMP JUMPDEST DUP7 PUSH2 0x180 ADD MLOAD ISZERO PUSH2 0x5C6E JUMPI DUP7 PUSH1 0x60 ADD MLOAD DUP2 DUP2 MLOAD DUP2 LT PUSH2 0x5B19 JUMPI PUSH2 0x5B18 PUSH2 0x7F48 JUMP JUMPDEST JUMPDEST PUSH1 0x20 MUL PUSH1 0x20 ADD ADD MLOAD PUSH1 0x14 PUSH1 0x0 DUP10 PUSH1 0x20 ADD MLOAD PUSH20 0xFFFFFFFFFFFFFFFFFFFFFFFFFFFFFFFFFFFFFFFF AND PUSH20 0xFFFFFFFFFFFFFFFFFFFFFFFFFFFFFFFFFFFFFFFF AND DUP2 MSTORE PUSH1 0x20 ADD SWAP1 DUP2 MSTORE PUSH1 0x20 ADD PUSH1 0x0 KECCAK256 PUSH1 0x0 DUP10 PUSH1 0x80 ADD MLOAD DUP5 DUP2 MLOAD DUP2 LT PUSH2 0x5B7D JUMPI PUSH2 0x5B7C PUSH2 0x7F48 JUMP JUMPDEST JUMPDEST PUSH1 0x20 MUL PUSH1 0x20 ADD ADD MLOAD PUSH20 0xFFFFFFFFFFFFFFFFFFFFFFFFFFFFFFFFFFFFFFFF AND PUSH20 0xFFFFFFFFFFFFFFFFFFFFFFFFFFFFFFFFFFFFFFFF AND DUP2 MSTORE PUSH1 0x20 ADD SWAP1 DUP2 MSTORE PUSH1 0x20 ADD PUSH1 0x0 KECCAK256 PUSH1 0x0 DUP3 DUP3 SLOAD PUSH2 0x5BCE SWAP2 SWAP1 PUSH2 0x8B97 JUMP JUMPDEST SWAP3 POP POP DUP2 SWAP1 SSTORE POP DUP7 PUSH1 0x60 ADD MLOAD DUP2 DUP2 MLOAD DUP2 LT PUSH2 0x5BEC JUMPI PUSH2 0x5BEB PUSH2 0x7F48 JUMP JUMPDEST JUMPDEST PUSH1 0x20 MUL PUSH1 0x20 ADD ADD MLOAD DUP5 PUSH1 0x5 ADD PUSH1 0x0 DUP10 PUSH1 0x80 ADD MLOAD DUP5 DUP2 MLOAD DUP2 LT PUSH2 0x5C11 JUMPI PUSH2 0x5C10 PUSH2 0x7F48 JUMP JUMPDEST JUMPDEST PUSH1 0x20 MUL PUSH1 0x20 ADD ADD MLOAD PUSH20 0xFFFFFFFFFFFFFFFFFFFFFFFFFFFFFFFFFFFFFFFF AND PUSH20 0xFFFFFFFFFFFFFFFFFFFFFFFFFFFFFFFFFFFFFFFF AND DUP2 MSTORE PUSH1 0x20 ADD SWAP1 DUP2 MSTORE PUSH1 0x20 ADD PUSH1 0x0 KECCAK256 PUSH1 0x0 DUP3 DUP3 SLOAD PUSH2 0x5C62 SWAP2 SWAP1 PUSH2 0x8B97 JUMP JUMPDEST SWAP3 POP POP DUP2 SWAP1 SSTORE POP PUSH2 0x5D03 JUMP JUMPDEST DUP7 PUSH1 0x60 ADD MLOAD DUP2 DUP2 MLOAD DUP2 LT PUSH2 0x5C85 JUMPI PUSH2 0x5C84 PUSH2 0x7F48 JUMP JUMPDEST JUMPDEST PUSH1 0x20 MUL PUSH1 0x20 ADD ADD MLOAD DUP5 PUSH1 0x5 ADD PUSH1 0x0 DUP10 PUSH1 0x80 ADD MLOAD DUP5 DUP2 MLOAD DUP2 LT PUSH2 0x5CAA JUMPI PUSH2 0x5CA9 PUSH2 0x7F48 JUMP JUMPDEST JUMPDEST PUSH1 0x20 MUL PUSH1 0x20 ADD ADD MLOAD PUSH20 0xFFFFFFFFFFFFFFFFFFFFFFFFFFFFFFFFFFFFFFFF AND PUSH20 0xFFFFFFFFFFFFFFFFFFFFFFFFFFFFFFFFFFFFFFFF AND DUP2 MSTORE PUSH1 0x20 ADD SWAP1 DUP2 MSTORE PUSH1 0x20 ADD PUSH1 0x0 KECCAK256 PUSH1 0x0 DUP3 DUP3 SLOAD PUSH2 0x5CFB SWAP2 SWAP1 PUSH2 0x8CA9 JUMP JUMPDEST SWAP3 POP POP DUP2 SWAP1 SSTORE POP JUMPDEST JUMPDEST DUP1 DUP1 PUSH2 0x5D0F SWAP1 PUSH2 0x7FA6 JUMP JUMPDEST SWAP2 POP POP PUSH2 0x58CF JUMP JUMPDEST POP DUP6 PUSH1 0xA0 ADD MLOAD ISZERO PUSH2 0x5EE5 JUMPI PUSH1 0x0 DUP3 MLOAD EQ PUSH2 0x5DD8 JUMPI PUSH20 0x0 PUSH4 0xE3C808BC DUP4 PUSH1 0x1 DUP6 MLOAD PUSH2 0x5D54 SWAP2 SWAP1 PUSH2 0x8B97 JUMP JUMPDEST DUP2 MLOAD DUP2 LT PUSH2 0x5D65 JUMPI PUSH2 0x5D64 PUSH2 0x7F48 JUMP JUMPDEST JUMPDEST PUSH1 0x20 MUL PUSH1 0x20 ADD ADD MLOAD DUP9 PUSH2 0x200 ADD MLOAD PUSH1 0x40 MLOAD DUP4 PUSH4 0xFFFFFFFF AND PUSH1 0xE0 SHL DUP2 MSTORE PUSH1 0x4 ADD PUSH2 0x5D90 SWAP3 SWAP2 SWAP1 PUSH2 0x973E JUMP JUMPDEST PUSH1 0x20 PUSH1 0x40 MLOAD DUP1 DUP4 SUB DUP2 DUP7 GAS DELEGATECALL ISZERO DUP1 ISZERO PUSH2 0x5DAD JUMPI RETURNDATASIZE PUSH1 0x0 DUP1 RETURNDATACOPY RETURNDATASIZE PUSH1 0x0 REVERT JUMPDEST POP POP POP POP PUSH1 0x40 MLOAD RETURNDATASIZE PUSH1 0x1F NOT PUSH1 0x1F DUP3 ADD AND DUP3 ADD DUP1 PUSH1 0x40 MSTORE POP DUP2 ADD SWAP1 PUSH2 0x5DD1 SWAP2 SWAP1 PUSH2 0x977C JUMP JUMPDEST SWAP4 POP PUSH2 0x5E5F JUMP JUMPDEST PUSH20 0x0 PUSH4 0xE3C808BC DUP8 PUSH2 0x200 ADD MLOAD DUP9 PUSH2 0x200 ADD MLOAD PUSH1 0x40 MLOAD DUP4 PUSH4 0xFFFFFFFF AND PUSH1 0xE0 SHL DUP2 MSTORE PUSH1 0x4 ADD PUSH2 0x5E1B SWAP3 SWAP2 SWAP1 PUSH2 0x973E JUMP JUMPDEST PUSH1 0x20 PUSH1 0x40 MLOAD DUP1 DUP4 SUB DUP2 DUP7 GAS DELEGATECALL ISZERO DUP1 ISZERO PUSH2 0x5E38 JUMPI RETURNDATASIZE PUSH1 0x0 DUP1 RETURNDATACOPY RETURNDATASIZE PUSH1 0x0 REVERT JUMPDEST POP POP POP POP PUSH1 0x40 MLOAD RETURNDATASIZE PUSH1 0x1F NOT PUSH1 0x1F DUP3 ADD AND DUP3 ADD DUP1 PUSH1 0x40 MSTORE POP DUP2 ADD SWAP1 PUSH2 0x5E5C SWAP2 SWAP1 PUSH2 0x977C JUMP JUMPDEST SWAP4 POP JUMPDEST PUSH1 0x5 PUSH1 0x0 DUP8 PUSH1 0x20 ADD MLOAD PUSH20 0xFFFFFFFFFFFFFFFFFFFFFFFFFFFFFFFFFFFFFFFF AND PUSH20 0xFFFFFFFFFFFFFFFFFFFFFFFFFFFFFFFFFFFFFFFF AND DUP2 MSTORE PUSH1 0x20 ADD SWAP1 DUP2 MSTORE PUSH1 0x20 ADD PUSH1 0x0 KECCAK256 DUP5 SWAP1 DUP1 PUSH1 0x1 DUP2 SLOAD ADD DUP1 DUP3 SSTORE DUP1 SWAP2 POP POP PUSH1 0x1 SWAP1 SUB SWAP1 PUSH1 0x0 MSTORE PUSH1 0x20 PUSH1 0x0 KECCAK256 ADD PUSH1 0x0 SWAP1 SWAP2 SWAP1 SWAP2 SWAP1 SWAP2 POP SSTORE DUP6 PUSH2 0x1A0 ADD MLOAD DUP4 PUSH1 0x3 ADD DUP2 SWAP1 SSTORE POP DUP4 DUP4 PUSH1 0x1 ADD DUP2 SWAP1 SSTORE POP PUSH2 0x60A4 JUMP JUMPDEST PUSH1 0x0 DUP2 MLOAD EQ PUSH2 0x5F9B JUMPI PUSH20 0x0 PUSH4 0xE3C808BC DUP3 PUSH1 0x1 DUP5 MLOAD PUSH2 0x5F17 SWAP2 SWAP1 PUSH2 0x8B97 JUMP JUMPDEST DUP2 MLOAD DUP2 LT PUSH2 0x5F28 JUMPI PUSH2 0x5F27 PUSH2 0x7F48 JUMP JUMPDEST JUMPDEST PUSH1 0x20 MUL PUSH1 0x20 ADD ADD MLOAD DUP9 PUSH2 0x200 ADD MLOAD PUSH1 0x40 MLOAD DUP4 PUSH4 0xFFFFFFFF AND PUSH1 0xE0 SHL DUP2 MSTORE PUSH1 0x4 ADD PUSH2 0x5F53 SWAP3 SWAP2 SWAP1 PUSH2 0x973E JUMP JUMPDEST PUSH1 0x20 PUSH1 0x40 MLOAD DUP1 DUP4 SUB DUP2 DUP7 GAS DELEGATECALL ISZERO DUP1 ISZERO PUSH2 0x5F70 JUMPI RETURNDATASIZE PUSH1 0x0 DUP1 RETURNDATACOPY RETURNDATASIZE PUSH1 0x0 REVERT JUMPDEST POP POP POP POP PUSH1 0x40 MLOAD RETURNDATASIZE PUSH1 0x1F NOT PUSH1 0x1F DUP3 ADD AND DUP3 ADD DUP1 PUSH1 0x40 MSTORE POP DUP2 ADD SWAP1 PUSH2 0x5F94 SWAP2 SWAP1 PUSH2 0x977C JUMP JUMPDEST SWAP4 POP PUSH2 0x6022 JUMP JUMPDEST PUSH20 0x0 PUSH4 0xE3C808BC DUP8 PUSH2 0x200 ADD MLOAD DUP9 PUSH2 0x200 ADD MLOAD PUSH1 0x40 MLOAD DUP4 PUSH4 0xFFFFFFFF AND PUSH1 0xE0 SHL DUP2 MSTORE PUSH1 0x4 ADD PUSH2 0x5FDE SWAP3 SWAP2 SWAP1 PUSH2 0x973E JUMP JUMPDEST PUSH1 0x20 PUSH1 0x40 MLOAD DUP1 DUP4 SUB DUP2 DUP7 GAS DELEGATECALL ISZERO DUP1 ISZERO PUSH2 0x5FFB JUMPI RETURNDATASIZE PUSH1 0x0 DUP1 RETURNDATACOPY RETURNDATASIZE PUSH1 0x0 REVERT JUMPDEST POP POP POP POP PUSH1 0x40 MLOAD RETURNDATASIZE PUSH1 0x1F NOT PUSH1 0x1F DUP3 ADD AND DUP3 ADD DUP1 PUSH1 0x40 MSTORE POP DUP2 ADD SWAP1 PUSH2 0x601F SWAP2 SWAP1 PUSH2 0x977C JUMP JUMPDEST SWAP4 POP JUMPDEST PUSH1 0x6 PUSH1 0x0 DUP8 PUSH1 0x20 ADD MLOAD PUSH20 0xFFFFFFFFFFFFFFFFFFFFFFFFFFFFFFFFFFFFFFFF AND PUSH20 0xFFFFFFFFFFFFFFFFFFFFFFFFFFFFFFFFFFFFFFFF AND DUP2 MSTORE PUSH1 0x20 ADD SWAP1 DUP2 MSTORE PUSH1 0x20 ADD PUSH1 0x0 KECCAK256 DUP5 SWAP1 DUP1 PUSH1 0x1 DUP2 SLOAD ADD DUP1 DUP3 SSTORE DUP1 SWAP2 POP POP PUSH1 0x1 SWAP1 SUB SWAP1 PUSH1 0x0 MSTORE PUSH1 0x20 PUSH1 0x0 KECCAK256 ADD PUSH1 0x0 SWAP1 SWAP2 SWAP1 SWAP2 SWAP1 SWAP2 POP SSTORE DUP6 PUSH2 0x1A0 ADD MLOAD DUP4 PUSH1 0x6 ADD DUP2 SWAP1 SSTORE POP DUP4 DUP4 PUSH1 0x4 ADD DUP2 SWAP1 SSTORE POP JUMPDEST POP POP POP POP POP POP JUMP JUMPDEST PUSH2 0x60B6 DUP3 DUP3 PUSH2 0x65B7 JUMP JUMPDEST POP POP JUMP JUMPDEST PUSH1 0x0 PUSH1 0x60 PUSH1 0x0 DUP1 PUSH1 0x0 DUP7 PUSH2 0xFFFF AND PUSH8 0xFFFFFFFFFFFFFFFF DUP2 GT ISZERO PUSH2 0x60E1 JUMPI PUSH2 0x60E0 PUSH2 0x6ED4 JUMP JUMPDEST JUMPDEST PUSH1 0x40 MLOAD SWAP1 DUP1 DUP3 MSTORE DUP1 PUSH1 0x1F ADD PUSH1 0x1F NOT AND PUSH1 0x20 ADD DUP3 ADD PUSH1 0x40 MSTORE DUP1 ISZERO PUSH2 0x6113 JUMPI DUP2 PUSH1 0x20 ADD PUSH1 0x1 DUP3 MUL DUP1 CALLDATASIZE DUP4 CALLDATACOPY DUP1 DUP3 ADD SWAP2 POP POP SWAP1 POP JUMPDEST POP SWAP1 POP PUSH1 0x0 DUP1 DUP8 MLOAD PUSH1 0x20 DUP10 ADD PUSH1 0x0 DUP14 DUP14 CALL SWAP2 POP RETURNDATASIZE SWAP3 POP DUP7 DUP4 GT ISZERO PUSH2 0x6135 JUMPI DUP7 SWAP3 POP JUMPDEST DUP3 DUP2 MSTORE DUP3 PUSH1 0x0 PUSH1 0x20 DUP4 ADD RETURNDATACOPY DUP2 DUP2 SWAP5 POP SWAP5 POP POP POP POP SWAP5 POP SWAP5 SWAP3 POP POP POP JUMP JUMPDEST DUP2 DUP1 MLOAD SWAP1 PUSH1 0x20 ADD KECCAK256 PUSH1 0x4 PUSH1 0x0 DUP8 PUSH2 0xFFFF AND PUSH2 0xFFFF AND DUP2 MSTORE PUSH1 0x20 ADD SWAP1 DUP2 MSTORE PUSH1 0x20 ADD PUSH1 0x0 KECCAK256 DUP6 PUSH1 0x40 MLOAD PUSH2 0x6183 SWAP2 SWAP1 PUSH2 0x9B1A JUMP JUMPDEST SWAP1 DUP2 MSTORE PUSH1 0x20 ADD PUSH1 0x40 MLOAD DUP1 SWAP2 SUB SWAP1 KECCAK256 PUSH1 0x0 DUP6 PUSH8 0xFFFFFFFFFFFFFFFF AND PUSH8 0xFFFFFFFFFFFFFFFF AND DUP2 MSTORE PUSH1 0x20 ADD SWAP1 DUP2 MSTORE PUSH1 0x20 ADD PUSH1 0x0 KECCAK256 DUP2 SWAP1 SSTORE POP PUSH32 0xE183F33DE2837795525B4792CA4CD60535BD77C53B7E7030060BFCF5734D6B0C DUP6 DUP6 DUP6 DUP6 DUP6 PUSH1 0x40 MLOAD PUSH2 0x61F1 SWAP6 SWAP5 SWAP4 SWAP3 SWAP2 SWAP1 PUSH2 0x9B31 JUMP JUMPDEST PUSH1 0x40 MLOAD DUP1 SWAP2 SUB SWAP1 LOG1 POP POP POP POP POP JUMP JUMPDEST PUSH1 0x0 PUSH1 0x1 PUSH1 0x0 DUP9 PUSH2 0xFFFF AND PUSH2 0xFFFF AND DUP2 MSTORE PUSH1 0x20 ADD SWAP1 DUP2 MSTORE PUSH1 0x20 ADD PUSH1 0x0 KECCAK256 DUP1 SLOAD PUSH2 0x6228 SWAP1 PUSH2 0x7E3C JUMP JUMPDEST DUP1 PUSH1 0x1F ADD PUSH1 0x20 DUP1 SWAP2 DIV MUL PUSH1 0x20 ADD PUSH1 0x40 MLOAD SWAP1 DUP2 ADD PUSH1 0x40 MSTORE DUP1 SWAP3 SWAP2 SWAP1 DUP2 DUP2 MSTORE PUSH1 0x20 ADD DUP3 DUP1 SLOAD PUSH2 0x6254 SWAP1 PUSH2 0x7E3C JUMP JUMPDEST DUP1 ISZERO PUSH2 0x62A1 JUMPI DUP1 PUSH1 0x1F LT PUSH2 0x6276 JUMPI PUSH2 0x100 DUP1 DUP4 SLOAD DIV MUL DUP4 MSTORE SWAP2 PUSH1 0x20 ADD SWAP2 PUSH2 0x62A1 JUMP JUMPDEST DUP3 ADD SWAP2 SWAP1 PUSH1 0x0 MSTORE PUSH1 0x20 PUSH1 0x0 KECCAK256 SWAP1 JUMPDEST DUP2 SLOAD DUP2 MSTORE SWAP1 PUSH1 0x1 ADD SWAP1 PUSH1 0x20 ADD DUP1 DUP4 GT PUSH2 0x6284 JUMPI DUP3 SWAP1 SUB PUSH1 0x1F AND DUP3 ADD SWAP2 JUMPDEST POP POP POP POP POP SWAP1 POP PUSH1 0x0 DUP2 MLOAD SUB PUSH2 0x62EC JUMPI PUSH1 0x40 MLOAD PUSH32 0x8C379A000000000000000000000000000000000000000000000000000000000 DUP2 MSTORE PUSH1 0x4 ADD PUSH2 0x62E3 SWAP1 PUSH2 0x9C0B JUMP JUMPDEST PUSH1 0x40 MLOAD DUP1 SWAP2 SUB SWAP1 REVERT JUMPDEST PUSH32 0x0 PUSH20 0xFFFFFFFFFFFFFFFFFFFFFFFFFFFFFFFFFFFFFFFF AND PUSH4 0xC5803100 DUP4 DUP10 DUP5 DUP11 DUP11 DUP11 DUP11 PUSH1 0x40 MLOAD DUP9 PUSH4 0xFFFFFFFF AND PUSH1 0xE0 SHL DUP2 MSTORE PUSH1 0x4 ADD PUSH2 0x6350 SWAP7 SWAP6 SWAP5 SWAP4 SWAP3 SWAP2 SWAP1 PUSH2 0x9C3A JUMP JUMPDEST PUSH1 0x0 PUSH1 0x40 MLOAD DUP1 DUP4 SUB DUP2 DUP6 DUP9 DUP1 EXTCODESIZE ISZERO DUP1 ISZERO PUSH2 0x6369 JUMPI PUSH1 0x0 DUP1 REVERT JUMPDEST POP GAS CALL ISZERO DUP1 ISZERO PUSH2 0x637D JUMPI RETURNDATASIZE PUSH1 0x0 DUP1 RETURNDATACOPY RETURNDATASIZE PUSH1 0x0 REVERT JUMPDEST POP POP POP POP POP POP POP POP POP POP POP POP JUMP JUMPDEST PUSH1 0x0 ISZERO ISZERO PUSH1 0x9 PUSH1 0x0 DUP5 PUSH20 0xFFFFFFFFFFFFFFFFFFFFFFFFFFFFFFFFFFFFFFFF AND PUSH20 0xFFFFFFFFFFFFFFFFFFFFFFFFFFFFFFFFFFFFFFFF AND DUP2 MSTORE PUSH1 0x20 ADD SWAP1 DUP2 MSTORE PUSH1 0x20 ADD PUSH1 0x0 KECCAK256 PUSH1 0x0 SWAP1 SLOAD SWAP1 PUSH2 0x100 EXP SWAP1 DIV PUSH1 0xFF AND ISZERO ISZERO SUB PUSH2 0x649F JUMPI PUSH1 0x1 PUSH1 0x9 PUSH1 0x0 DUP5 PUSH20 0xFFFFFFFFFFFFFFFFFFFFFFFFFFFFFFFFFFFFFFFF AND PUSH20 0xFFFFFFFFFFFFFFFFFFFFFFFFFFFFFFFFFFFFFFFF AND DUP2 MSTORE PUSH1 0x20 ADD SWAP1 DUP2 MSTORE PUSH1 0x20 ADD PUSH1 0x0 KECCAK256 PUSH1 0x0 PUSH2 0x100 EXP DUP2 SLOAD DUP2 PUSH1 0xFF MUL NOT AND SWAP1 DUP4 ISZERO ISZERO MUL OR SWAP1 SSTORE POP PUSH1 0x8 DUP3 SWAP1 DUP1 PUSH1 0x1 DUP2 SLOAD ADD DUP1 DUP3 SSTORE DUP1 SWAP2 POP POP PUSH1 0x1 SWAP1 SUB SWAP1 PUSH1 0x0 MSTORE PUSH1 0x20 PUSH1 0x0 KECCAK256 ADD PUSH1 0x0 SWAP1 SWAP2 SWAP1 SWAP2 SWAP1 SWAP2 PUSH2 0x100 EXP DUP2 SLOAD DUP2 PUSH20 0xFFFFFFFFFFFFFFFFFFFFFFFFFFFFFFFFFFFFFFFF MUL NOT AND SWAP1 DUP4 PUSH20 0xFFFFFFFFFFFFFFFFFFFFFFFFFFFFFFFFFFFFFFFF AND MUL OR SWAP1 SSTORE POP JUMPDEST PUSH1 0x0 ISZERO ISZERO PUSH1 0x9 PUSH1 0x0 DUP4 PUSH20 0xFFFFFFFFFFFFFFFFFFFFFFFFFFFFFFFFFFFFFFFF AND PUSH20 0xFFFFFFFFFFFFFFFFFFFFFFFFFFFFFFFFFFFFFFFF AND DUP2 MSTORE PUSH1 0x20 ADD SWAP1 DUP2 MSTORE PUSH1 0x20 ADD PUSH1 0x0 KECCAK256 PUSH1 0x0 SWAP1 SLOAD SWAP1 PUSH2 0x100 EXP SWAP1 DIV PUSH1 0xFF AND ISZERO ISZERO SUB PUSH2 0x65B3 JUMPI PUSH1 0x1 PUSH1 0x9 PUSH1 0x0 DUP4 PUSH20 0xFFFFFFFFFFFFFFFFFFFFFFFFFFFFFFFFFFFFFFFF AND PUSH20 0xFFFFFFFFFFFFFFFFFFFFFFFFFFFFFFFFFFFFFFFF AND DUP2 MSTORE PUSH1 0x20 ADD SWAP1 DUP2 MSTORE PUSH1 0x20 ADD PUSH1 0x0 KECCAK256 PUSH1 0x0 PUSH2 0x100 EXP DUP2 SLOAD DUP2 PUSH1 0xFF MUL NOT AND SWAP1 DUP4 ISZERO ISZERO MUL OR SWAP1 SSTORE POP PUSH1 0x8 DUP2 SWAP1 DUP1 PUSH1 0x1 DUP2 SLOAD ADD DUP1 DUP3 SSTORE DUP1 SWAP2 POP POP PUSH1 0x1 SWAP1 SUB SWAP1 PUSH1 0x0 MSTORE PUSH1 0x20 PUSH1 0x0 KECCAK256 ADD PUSH1 0x0 SWAP1 SWAP2 SWAP1 SWAP2 SWAP1 SWAP2 PUSH2 0x100 EXP DUP2 SLOAD DUP2 PUSH20 0xFFFFFFFFFFFFFFFFFFFFFFFFFFFFFFFFFFFFFFFF MUL NOT AND SWAP1 DUP4 PUSH20 0xFFFFFFFFFFFFFFFFFFFFFFFFFFFFFFFFFFFFFFFF AND MUL OR SWAP1 SSTORE POP JUMPDEST POP POP JUMP JUMPDEST PUSH2 0x65C1 DUP3 DUP3 PUSH2 0x2252 JUMP JUMPDEST PUSH2 0x6632 JUMPI PUSH1 0x1 PUSH1 0x11 PUSH1 0x0 DUP5 DUP2 MSTORE PUSH1 0x20 ADD SWAP1 DUP2 MSTORE PUSH1 0x20 ADD PUSH1 0x0 KECCAK256 PUSH1 0x0 ADD PUSH1 0x0 DUP4 PUSH20 0xFFFFFFFFFFFFFFFFFFFFFFFFFFFFFFFFFFFFFFFF AND PUSH20 0xFFFFFFFFFFFFFFFFFFFFFFFFFFFFFFFFFFFFFFFF AND DUP2 MSTORE PUSH1 0x20 ADD SWAP1 DUP2 MSTORE PUSH1 0x20 ADD PUSH1 0x0 KECCAK256 PUSH1 0x0 PUSH2 0x100 EXP DUP2 SLOAD DUP2 PUSH1 0xFF MUL NOT AND SWAP1 DUP4 ISZERO ISZERO MUL OR SWAP1 SSTORE POP JUMPDEST POP POP JUMP JUMPDEST PUSH1 0x40 MLOAD DUP1 PUSH2 0x120 ADD PUSH1 0x40 MSTORE DUP1 PUSH1 0x0 PUSH20 0xFFFFFFFFFFFFFFFFFFFFFFFFFFFFFFFFFFFFFFFF AND DUP2 MSTORE PUSH1 0x20 ADD PUSH1 0x0 DUP1 NOT AND DUP2 MSTORE PUSH1 0x20 ADD PUSH1 0x0 DUP1 NOT AND DUP2 MSTORE PUSH1 0x20 ADD PUSH1 0x60 DUP2 MSTORE PUSH1 0x20 ADD PUSH1 0x60 DUP2 MSTORE PUSH1 0x20 ADD PUSH1 0x0 DUP2 MSTORE PUSH1 0x20 ADD PUSH1 0x0 DUP2 MSTORE PUSH1 0x20 ADD PUSH1 0x60 DUP2 MSTORE PUSH1 0x20 ADD PUSH1 0x0 DUP2 MSTORE POP SWAP1 JUMP JUMPDEST PUSH1 0x0 PUSH1 0x40 MLOAD SWAP1 POP SWAP1 JUMP JUMPDEST PUSH1 0x0 DUP1 REVERT JUMPDEST PUSH1 0x0 DUP1 REVERT JUMPDEST PUSH1 0x0 PUSH2 0xFFFF DUP3 AND SWAP1 POP SWAP2 SWAP1 POP JUMP JUMPDEST PUSH2 0x66C9 DUP2 PUSH2 0x66B2 JUMP JUMPDEST DUP2 EQ PUSH2 0x66D4 JUMPI PUSH1 0x0 DUP1 REVERT JUMPDEST POP JUMP JUMPDEST PUSH1 0x0 DUP2 CALLDATALOAD SWAP1 POP PUSH2 0x66E6 DUP2 PUSH2 0x66C0 JUMP JUMPDEST SWAP3 SWAP2 POP POP JUMP JUMPDEST PUSH1 0x0 DUP1 REVERT JUMPDEST PUSH1 0x0 DUP1 REVERT JUMPDEST PUSH1 0x0 DUP1 REVERT JUMPDEST PUSH1 0x0 DUP1 DUP4 PUSH1 0x1F DUP5 ADD SLT PUSH2 0x6711 JUMPI PUSH2 0x6710 PUSH2 0x66EC JUMP JUMPDEST JUMPDEST DUP3 CALLDATALOAD SWAP1 POP PUSH8 0xFFFFFFFFFFFFFFFF DUP2 GT ISZERO PUSH2 0x672E JUMPI PUSH2 0x672D PUSH2 0x66F1 JUMP JUMPDEST JUMPDEST PUSH1 0x20 DUP4 ADD SWAP2 POP DUP4 PUSH1 0x1 DUP3 MUL DUP4 ADD GT ISZERO PUSH2 0x674A JUMPI PUSH2 0x6749 PUSH2 0x66F6 JUMP JUMPDEST JUMPDEST SWAP3 POP SWAP3 SWAP1 POP JUMP JUMPDEST PUSH1 0x0 PUSH8 0xFFFFFFFFFFFFFFFF DUP3 AND SWAP1 POP SWAP2 SWAP1 POP JUMP JUMPDEST PUSH2 0x676E DUP2 PUSH2 0x6751 JUMP JUMPDEST DUP2 EQ PUSH2 0x6779 JUMPI PUSH1 0x0 DUP1 REVERT JUMPDEST POP JUMP JUMPDEST PUSH1 0x0 DUP2 CALLDATALOAD SWAP1 POP PUSH2 0x678B DUP2 PUSH2 0x6765 JUMP JUMPDEST SWAP3 SWAP2 POP POP JUMP JUMPDEST PUSH1 0x0 DUP1 PUSH1 0x0 DUP1 PUSH1 0x0 DUP1 PUSH1 0x80 DUP8 DUP10 SUB SLT ISZERO PUSH2 0x67AE JUMPI PUSH2 0x67AD PUSH2 0x66A8 JUMP JUMPDEST JUMPDEST PUSH1 0x0 PUSH2 0x67BC DUP10 DUP3 DUP11 ADD PUSH2 0x66D7 JUMP JUMPDEST SWAP7 POP POP PUSH1 0x20 DUP8 ADD CALLDATALOAD PUSH8 0xFFFFFFFFFFFFFFFF DUP2 GT ISZERO PUSH2 0x67DD JUMPI PUSH2 0x67DC PUSH2 0x66AD JUMP JUMPDEST JUMPDEST PUSH2 0x67E9 DUP10 DUP3 DUP11 ADD PUSH2 0x66FB JUMP JUMPDEST SWAP6 POP SWAP6 POP POP PUSH1 0x40 PUSH2 0x67FC DUP10 DUP3 DUP11 ADD PUSH2 0x677C JUMP JUMPDEST SWAP4 POP POP PUSH1 0x60 DUP8 ADD CALLDATALOAD PUSH8 0xFFFFFFFFFFFFFFFF DUP2 GT ISZERO PUSH2 0x681D JUMPI PUSH2 0x681C PUSH2 0x66AD JUMP JUMPDEST JUMPDEST PUSH2 0x6829 DUP10 DUP3 DUP11 ADD PUSH2 0x66FB JUMP JUMPDEST SWAP3 POP SWAP3 POP POP SWAP3 SWAP6 POP SWAP3 SWAP6 POP SWAP3 SWAP6 JUMP JUMPDEST PUSH1 0x0 PUSH1 0x20 DUP3 DUP5 SUB SLT ISZERO PUSH2 0x684E JUMPI PUSH2 0x684D PUSH2 0x66A8 JUMP JUMPDEST JUMPDEST PUSH1 0x0 PUSH2 0x685C DUP5 DUP3 DUP6 ADD PUSH2 0x66D7 JUMP JUMPDEST SWAP2 POP POP SWAP3 SWAP2 POP POP JUMP JUMPDEST PUSH1 0x0 DUP2 MLOAD SWAP1 POP SWAP2 SWAP1 POP JUMP JUMPDEST PUSH1 0x0 DUP3 DUP3 MSTORE PUSH1 0x20 DUP3 ADD SWAP1 POP SWAP3 SWAP2 POP POP JUMP JUMPDEST PUSH1 0x0 JUMPDEST DUP4 DUP2 LT ISZERO PUSH2 0x689F JUMPI DUP1 DUP3 ADD MLOAD DUP2 DUP5 ADD MSTORE PUSH1 0x20 DUP2 ADD SWAP1 POP PUSH2 0x6884 JUMP JUMPDEST PUSH1 0x0 DUP5 DUP5 ADD MSTORE POP POP POP POP JUMP JUMPDEST PUSH1 0x0 PUSH1 0x1F NOT PUSH1 0x1F DUP4 ADD AND SWAP1 POP SWAP2 SWAP1 POP JUMP JUMPDEST PUSH1 0x0 PUSH2 0x68C7 DUP3 PUSH2 0x6865 JUMP JUMPDEST PUSH2 0x68D1 DUP2 DUP6 PUSH2 0x6870 JUMP JUMPDEST SWAP4 POP PUSH2 0x68E1 DUP2 DUP6 PUSH1 0x20 DUP7 ADD PUSH2 0x6881 JUMP JUMPDEST PUSH2 0x68EA DUP2 PUSH2 0x68AB JUMP JUMPDEST DUP5 ADD SWAP2 POP POP SWAP3 SWAP2 POP POP JUMP JUMPDEST PUSH1 0x0 PUSH1 0x20 DUP3 ADD SWAP1 POP DUP2 DUP2 SUB PUSH1 0x0 DUP4 ADD MSTORE PUSH2 0x690F DUP2 DUP5 PUSH2 0x68BC JUMP JUMPDEST SWAP1 POP SWAP3 SWAP2 POP POP JUMP JUMPDEST PUSH1 0x0 DUP2 ISZERO ISZERO SWAP1 POP SWAP2 SWAP1 POP JUMP JUMPDEST PUSH2 0x692C DUP2 PUSH2 0x6917 JUMP JUMPDEST DUP2 EQ PUSH2 0x6937 JUMPI PUSH1 0x0 DUP1 REVERT JUMPDEST POP JUMP JUMPDEST PUSH1 0x0 DUP2 CALLDATALOAD SWAP1 POP PUSH2 0x6949 DUP2 PUSH2 0x6923 JUMP JUMPDEST SWAP3 SWAP2 POP POP JUMP JUMPDEST PUSH1 0x0 PUSH1 0x20 DUP3 DUP5 SUB SLT ISZERO PUSH2 0x6965 JUMPI PUSH2 0x6964 PUSH2 0x66A8 JUMP JUMPDEST JUMPDEST PUSH1 0x0 PUSH2 0x6973 DUP5 DUP3 DUP6 ADD PUSH2 0x693A JUMP JUMPDEST SWAP2 POP POP SWAP3 SWAP2 POP POP JUMP JUMPDEST PUSH1 0x0 DUP2 SWAP1 POP SWAP2 SWAP1 POP JUMP JUMPDEST PUSH2 0x698F DUP2 PUSH2 0x697C JUMP JUMPDEST DUP3 MSTORE POP POP JUMP JUMPDEST PUSH1 0x0 PUSH1 0x20 DUP3 ADD SWAP1 POP PUSH2 0x69AA PUSH1 0x0 DUP4 ADD DUP5 PUSH2 0x6986 JUMP JUMPDEST SWAP3 SWAP2 POP POP JUMP JUMPDEST PUSH1 0x0 PUSH20 0xFFFFFFFFFFFFFFFFFFFFFFFFFFFFFFFFFFFFFFFF DUP3 AND SWAP1 POP SWAP2 SWAP1 POP JUMP JUMPDEST PUSH1 0x0 PUSH2 0x69DB DUP3 PUSH2 0x69B0 JUMP JUMPDEST SWAP1 POP SWAP2 SWAP1 POP JUMP JUMPDEST PUSH2 0x69EB DUP2 PUSH2 0x69D0 JUMP JUMPDEST DUP2 EQ PUSH2 0x69F6 JUMPI PUSH1 0x0 DUP1 REVERT JUMPDEST POP JUMP JUMPDEST PUSH1 0x0 DUP2 CALLDATALOAD SWAP1 POP PUSH2 0x6A08 DUP2 PUSH2 0x69E2 JUMP JUMPDEST SWAP3 SWAP2 POP POP JUMP JUMPDEST PUSH1 0x0 PUSH1 0x20 DUP3 DUP5 SUB SLT ISZERO PUSH2 0x6A24 JUMPI PUSH2 0x6A23 PUSH2 0x66A8 JUMP JUMPDEST JUMPDEST PUSH1 0x0 PUSH2 0x6A32 DUP5 DUP3 DUP6 ADD PUSH2 0x69F9 JUMP JUMPDEST SWAP2 POP POP SWAP3 SWAP2 POP POP JUMP JUMPDEST PUSH1 0x0 DUP2 SWAP1 POP SWAP2 SWAP1 POP JUMP JUMPDEST PUSH2 0x6A4E DUP2 PUSH2 0x6A3B JUMP JUMPDEST DUP3 MSTORE POP POP JUMP JUMPDEST PUSH1 0x0 PUSH1 0x40 DUP3 ADD SWAP1 POP PUSH2 0x6A69 PUSH1 0x0 DUP4 ADD DUP6 PUSH2 0x6A45 JUMP JUMPDEST PUSH2 0x6A76 PUSH1 0x20 DUP4 ADD DUP5 PUSH2 0x6A45 JUMP JUMPDEST SWAP4 SWAP3 POP POP POP JUMP JUMPDEST PUSH2 0x6A86 DUP2 PUSH2 0x66B2 JUMP JUMPDEST DUP3 MSTORE POP POP JUMP JUMPDEST PUSH1 0x0 PUSH1 0x20 DUP3 ADD SWAP1 POP PUSH2 0x6AA1 PUSH1 0x0 DUP4 ADD DUP5 PUSH2 0x6A7D JUMP JUMPDEST SWAP3 SWAP2 POP POP JUMP JUMPDEST PUSH2 0x6AB0 DUP2 PUSH2 0x69D0 JUMP JUMPDEST DUP3 MSTORE POP POP JUMP JUMPDEST PUSH2 0x6ABF DUP2 PUSH2 0x697C JUMP JUMPDEST DUP3 MSTORE POP POP JUMP JUMPDEST PUSH1 0x0 DUP2 MLOAD SWAP1 POP SWAP2 SWAP1 POP JUMP JUMPDEST PUSH1 0x0 DUP3 DUP3 MSTORE PUSH1 0x20 DUP3 ADD SWAP1 POP SWAP3 SWAP2 POP POP JUMP JUMPDEST PUSH1 0x0 DUP2 SWAP1 POP PUSH1 0x20 DUP3 ADD SWAP1 POP SWAP2 SWAP1 POP JUMP JUMPDEST PUSH1 0x0 PUSH2 0x6AFD DUP4 DUP4 PUSH2 0x6AA7 JUMP JUMPDEST PUSH1 0x20 DUP4 ADD SWAP1 POP SWAP3 SWAP2 POP POP JUMP JUMPDEST PUSH1 0x0 PUSH1 0x20 DUP3 ADD SWAP1 POP SWAP2 SWAP1 POP JUMP JUMPDEST PUSH1 0x0 PUSH2 0x6B21 DUP3 PUSH2 0x6AC5 JUMP JUMPDEST PUSH2 0x6B2B DUP2 DUP6 PUSH2 0x6AD0 JUMP JUMPDEST SWAP4 POP PUSH2 0x6B36 DUP4 PUSH2 0x6AE1 JUMP JUMPDEST DUP1 PUSH1 0x0 JUMPDEST DUP4 DUP2 LT ISZERO PUSH2 0x6B67 JUMPI DUP2 MLOAD PUSH2 0x6B4E DUP9 DUP3 PUSH2 0x6AF1 JUMP JUMPDEST SWAP8 POP PUSH2 0x6B59 DUP4 PUSH2 0x6B09 JUMP JUMPDEST SWAP3 POP POP PUSH1 0x1 DUP2 ADD SWAP1 POP PUSH2 0x6B3A JUMP JUMPDEST POP DUP6 SWAP4 POP POP POP POP SWAP3 SWAP2 POP POP JUMP JUMPDEST PUSH1 0x0 DUP2 MLOAD SWAP1 POP SWAP2 SWAP1 POP JUMP JUMPDEST PUSH1 0x0 DUP3 DUP3 MSTORE PUSH1 0x20 DUP3 ADD SWAP1 POP SWAP3 SWAP2 POP POP JUMP JUMPDEST PUSH1 0x0 DUP2 SWAP1 POP PUSH1 0x20 DUP3 ADD SWAP1 POP SWAP2 SWAP1 POP JUMP JUMPDEST PUSH2 0x6BA9 DUP2 PUSH2 0x6A3B JUMP JUMPDEST DUP3 MSTORE POP POP JUMP JUMPDEST PUSH1 0x0 PUSH2 0x6BBB DUP4 DUP4 PUSH2 0x6BA0 JUMP JUMPDEST PUSH1 0x20 DUP4 ADD SWAP1 POP SWAP3 SWAP2 POP POP JUMP JUMPDEST PUSH1 0x0 PUSH1 0x20 DUP3 ADD SWAP1 POP SWAP2 SWAP1 POP JUMP JUMPDEST PUSH1 0x0 PUSH2 0x6BDF DUP3 PUSH2 0x6B74 JUMP JUMPDEST PUSH2 0x6BE9 DUP2 DUP6 PUSH2 0x6B7F JUMP JUMPDEST SWAP4 POP PUSH2 0x6BF4 DUP4 PUSH2 0x6B90 JUMP JUMPDEST DUP1 PUSH1 0x0 JUMPDEST DUP4 DUP2 LT ISZERO PUSH2 0x6C25 JUMPI DUP2 MLOAD PUSH2 0x6C0C DUP9 DUP3 PUSH2 0x6BAF JUMP JUMPDEST SWAP8 POP PUSH2 0x6C17 DUP4 PUSH2 0x6BC7 JUMP JUMPDEST SWAP3 POP POP PUSH1 0x1 DUP2 ADD SWAP1 POP PUSH2 0x6BF8 JUMP JUMPDEST POP DUP6 SWAP4 POP POP POP POP SWAP3 SWAP2 POP POP JUMP JUMPDEST PUSH1 0x0 PUSH2 0x120 DUP4 ADD PUSH1 0x0 DUP4 ADD MLOAD PUSH2 0x6C4B PUSH1 0x0 DUP7 ADD DUP3 PUSH2 0x6AA7 JUMP JUMPDEST POP PUSH1 0x20 DUP4 ADD MLOAD PUSH2 0x6C5E PUSH1 0x20 DUP7 ADD DUP3 PUSH2 0x6AB6 JUMP JUMPDEST POP PUSH1 0x40 DUP4 ADD MLOAD PUSH2 0x6C71 PUSH1 0x40 DUP7 ADD DUP3 PUSH2 0x6AB6 JUMP JUMPDEST POP PUSH1 0x60 DUP4 ADD MLOAD DUP5 DUP3 SUB PUSH1 0x60 DUP7 ADD MSTORE PUSH2 0x6C89 DUP3 DUP3 PUSH2 0x6B16 JUMP JUMPDEST SWAP2 POP POP PUSH1 0x80 DUP4 ADD MLOAD DUP5 DUP3 SUB PUSH1 0x80 DUP7 ADD MSTORE PUSH2 0x6CA3 DUP3 DUP3 PUSH2 0x6BD4 JUMP JUMPDEST SWAP2 POP POP PUSH1 0xA0 DUP4 ADD MLOAD PUSH2 0x6CB8 PUSH1 0xA0 DUP7 ADD DUP3 PUSH2 0x6BA0 JUMP JUMPDEST POP PUSH1 0xC0 DUP4 ADD MLOAD PUSH2 0x6CCB PUSH1 0xC0 DUP7 ADD DUP3 PUSH2 0x6BA0 JUMP JUMPDEST POP PUSH1 0xE0 DUP4 ADD MLOAD DUP5 DUP3 SUB PUSH1 0xE0 DUP7 ADD MSTORE PUSH2 0x6CE3 DUP3 DUP3 PUSH2 0x6BD4 JUMP JUMPDEST SWAP2 POP POP PUSH2 0x100 DUP4 ADD MLOAD PUSH2 0x6CFA PUSH2 0x100 DUP7 ADD DUP3 PUSH2 0x6BA0 JUMP JUMPDEST POP DUP1 SWAP2 POP POP SWAP3 SWAP2 POP POP JUMP JUMPDEST PUSH1 0x0 PUSH1 0x20 DUP3 ADD SWAP1 POP DUP2 DUP2 SUB PUSH1 0x0 DUP4 ADD MSTORE PUSH2 0x6D1F DUP2 DUP5 PUSH2 0x6C32 JUMP JUMPDEST SWAP1 POP SWAP3 SWAP2 POP POP JUMP JUMPDEST PUSH1 0x0 PUSH1 0x20 DUP3 ADD SWAP1 POP PUSH2 0x6D3C PUSH1 0x0 DUP4 ADD DUP5 PUSH2 0x6A45 JUMP JUMPDEST SWAP3 SWAP2 POP POP JUMP JUMPDEST PUSH1 0x0 DUP1 PUSH1 0x0 PUSH1 0x40 DUP5 DUP7 SUB SLT ISZERO PUSH2 0x6D5B JUMPI PUSH2 0x6D5A PUSH2 0x66A8 JUMP JUMPDEST JUMPDEST PUSH1 0x0 PUSH2 0x6D69 DUP7 DUP3 DUP8 ADD PUSH2 0x66D7 JUMP JUMPDEST SWAP4 POP POP PUSH1 0x20 DUP5 ADD CALLDATALOAD PUSH8 0xFFFFFFFFFFFFFFFF DUP2 GT ISZERO PUSH2 0x6D8A JUMPI PUSH2 0x6D89 PUSH2 0x66AD JUMP JUMPDEST JUMPDEST PUSH2 0x6D96 DUP7 DUP3 DUP8 ADD PUSH2 0x66FB JUMP JUMPDEST SWAP3 POP SWAP3 POP POP SWAP3 POP SWAP3 POP SWAP3 JUMP JUMPDEST PUSH2 0x6DAB DUP2 PUSH2 0x6917 JUMP JUMPDEST DUP3 MSTORE POP POP JUMP JUMPDEST PUSH1 0x0 PUSH1 0x20 DUP3 ADD SWAP1 POP PUSH2 0x6DC6 PUSH1 0x0 DUP4 ADD DUP5 PUSH2 0x6DA2 JUMP JUMPDEST SWAP3 SWAP2 POP POP JUMP JUMPDEST PUSH1 0x0 DUP1 PUSH1 0x40 DUP4 DUP6 SUB SLT ISZERO PUSH2 0x6DE3 JUMPI PUSH2 0x6DE2 PUSH2 0x66A8 JUMP JUMPDEST JUMPDEST PUSH1 0x0 PUSH2 0x6DF1 DUP6 DUP3 DUP7 ADD PUSH2 0x66D7 JUMP JUMPDEST SWAP3 POP POP PUSH1 0x20 PUSH2 0x6E02 DUP6 DUP3 DUP7 ADD PUSH2 0x69F9 JUMP JUMPDEST SWAP2 POP POP SWAP3 POP SWAP3 SWAP1 POP JUMP JUMPDEST PUSH1 0x0 DUP1 PUSH1 0x40 DUP4 DUP6 SUB SLT ISZERO PUSH2 0x6E23 JUMPI PUSH2 0x6E22 PUSH2 0x66A8 JUMP JUMPDEST JUMPDEST PUSH1 0x0 PUSH2 0x6E31 DUP6 DUP3 DUP7 ADD PUSH2 0x69F9 JUMP JUMPDEST SWAP3 POP POP PUSH1 0x20 PUSH2 0x6E42 DUP6 DUP3 DUP7 ADD PUSH2 0x69F9 JUMP JUMPDEST SWAP2 POP POP SWAP3 POP SWAP3 SWAP1 POP JUMP JUMPDEST PUSH2 0x6E55 DUP2 PUSH2 0x6A3B JUMP JUMPDEST DUP2 EQ PUSH2 0x6E60 JUMPI PUSH1 0x0 DUP1 REVERT JUMPDEST POP JUMP JUMPDEST PUSH1 0x0 DUP2 CALLDATALOAD SWAP1 POP PUSH2 0x6E72 DUP2 PUSH2 0x6E4C JUMP JUMPDEST SWAP3 SWAP2 POP POP JUMP JUMPDEST PUSH1 0x0 PUSH1 0x20 DUP3 DUP5 SUB SLT ISZERO PUSH2 0x6E8E JUMPI PUSH2 0x6E8D PUSH2 0x66A8 JUMP JUMPDEST JUMPDEST PUSH1 0x0 PUSH2 0x6E9C DUP5 DUP3 DUP6 ADD PUSH2 0x6E63 JUMP JUMPDEST SWAP2 POP POP SWAP3 SWAP2 POP POP JUMP JUMPDEST PUSH2 0x6EAE DUP2 PUSH2 0x69D0 JUMP JUMPDEST DUP3 MSTORE POP POP JUMP JUMPDEST PUSH1 0x0 PUSH1 0x20 DUP3 ADD SWAP1 POP PUSH2 0x6EC9 PUSH1 0x0 DUP4 ADD DUP5 PUSH2 0x6EA5 JUMP JUMPDEST SWAP3 SWAP2 POP POP JUMP JUMPDEST PUSH1 0x0 DUP1 REVERT JUMPDEST PUSH32 0x4E487B7100000000000000000000000000000000000000000000000000000000 PUSH1 0x0 MSTORE PUSH1 0x41 PUSH1 0x4 MSTORE PUSH1 0x24 PUSH1 0x0 REVERT JUMPDEST PUSH2 0x6F0C DUP3 PUSH2 0x68AB JUMP JUMPDEST DUP2 ADD DUP2 DUP2 LT PUSH8 0xFFFFFFFFFFFFFFFF DUP3 GT OR ISZERO PUSH2 0x6F2B JUMPI PUSH2 0x6F2A PUSH2 0x6ED4 JUMP JUMPDEST JUMPDEST DUP1 PUSH1 0x40 MSTORE POP POP POP JUMP JUMPDEST PUSH1 0x0 PUSH2 0x6F3E PUSH2 0x669E JUMP JUMPDEST SWAP1 POP PUSH2 0x6F4A DUP3 DUP3 PUSH2 0x6F03 JUMP JUMPDEST SWAP2 SWAP1 POP JUMP JUMPDEST PUSH1 0x0 PUSH8 0xFFFFFFFFFFFFFFFF DUP3 GT ISZERO PUSH2 0x6F6A JUMPI PUSH2 0x6F69 PUSH2 0x6ED4 JUMP JUMPDEST JUMPDEST PUSH2 0x6F73 DUP3 PUSH2 0x68AB JUMP JUMPDEST SWAP1 POP PUSH1 0x20 DUP2 ADD SWAP1 POP SWAP2 SWAP1 POP JUMP JUMPDEST DUP3 DUP2 DUP4 CALLDATACOPY PUSH1 0x0 DUP4 DUP4 ADD MSTORE POP POP POP JUMP JUMPDEST PUSH1 0x0 PUSH2 0x6FA2 PUSH2 0x6F9D DUP5 PUSH2 0x6F4F JUMP JUMPDEST PUSH2 0x6F34 JUMP JUMPDEST SWAP1 POP DUP3 DUP2 MSTORE PUSH1 0x20 DUP2 ADD DUP5 DUP5 DUP5 ADD GT ISZERO PUSH2 0x6FBE JUMPI PUSH2 0x6FBD PUSH2 0x6ECF JUMP JUMPDEST JUMPDEST PUSH2 0x6FC9 DUP5 DUP3 DUP6 PUSH2 0x6F80 JUMP JUMPDEST POP SWAP4 SWAP3 POP POP POP JUMP JUMPDEST PUSH1 0x0 DUP3 PUSH1 0x1F DUP4 ADD SLT PUSH2 0x6FE6 JUMPI PUSH2 0x6FE5 PUSH2 0x66EC JUMP JUMPDEST JUMPDEST DUP2 CALLDATALOAD PUSH2 0x6FF6 DUP5 DUP3 PUSH1 0x20 DUP7 ADD PUSH2 0x6F8F JUMP JUMPDEST SWAP2 POP POP SWAP3 SWAP2 POP POP JUMP JUMPDEST PUSH1 0x0 DUP1 PUSH1 0x0 PUSH1 0x60 DUP5 DUP7 SUB SLT ISZERO PUSH2 0x7018 JUMPI PUSH2 0x7017 PUSH2 0x66A8 JUMP JUMPDEST JUMPDEST PUSH1 0x0 PUSH2 0x7026 DUP7 DUP3 DUP8 ADD PUSH2 0x66D7 JUMP JUMPDEST SWAP4 POP POP PUSH1 0x20 DUP5 ADD CALLDATALOAD PUSH8 0xFFFFFFFFFFFFFFFF DUP2 GT ISZERO PUSH2 0x7047 JUMPI PUSH2 0x7046 PUSH2 0x66AD JUMP JUMPDEST JUMPDEST PUSH2 0x7053 DUP7 DUP3 DUP8 ADD PUSH2 0x6FD1 JUMP JUMPDEST SWAP3 POP POP PUSH1 0x40 PUSH2 0x7064 DUP7 DUP3 DUP8 ADD PUSH2 0x677C JUMP JUMPDEST SWAP2 POP POP SWAP3 POP SWAP3 POP SWAP3 JUMP JUMPDEST PUSH1 0x0 PUSH1 0xA0 DUP3 ADD SWAP1 POP PUSH2 0x7083 PUSH1 0x0 DUP4 ADD DUP9 PUSH2 0x6EA5 JUMP JUMPDEST PUSH2 0x7090 PUSH1 0x20 DUP4 ADD DUP8 PUSH2 0x6986 JUMP JUMPDEST PUSH2 0x709D PUSH1 0x40 DUP4 ADD DUP7 PUSH2 0x6A45 JUMP JUMPDEST PUSH2 0x70AA PUSH1 0x60 DUP4 ADD DUP6 PUSH2 0x6986 JUMP JUMPDEST PUSH2 0x70B7 PUSH1 0x80 DUP4 ADD DUP5 PUSH2 0x6A45 JUMP JUMPDEST SWAP7 SWAP6 POP POP POP POP POP POP JUMP JUMPDEST PUSH1 0x0 DUP1 PUSH1 0x40 DUP4 DUP6 SUB SLT ISZERO PUSH2 0x70D8 JUMPI PUSH2 0x70D7 PUSH2 0x66A8 JUMP JUMPDEST JUMPDEST PUSH1 0x0 PUSH2 0x70E6 DUP6 DUP3 DUP7 ADD PUSH2 0x69F9 JUMP JUMPDEST SWAP3 POP POP PUSH1 0x20 PUSH2 0x70F7 DUP6 DUP3 DUP7 ADD PUSH2 0x6E63 JUMP JUMPDEST SWAP2 POP POP SWAP3 POP SWAP3 SWAP1 POP JUMP JUMPDEST PUSH1 0x0 DUP1 PUSH1 0x40 DUP4 DUP6 SUB SLT ISZERO PUSH2 0x7118 JUMPI PUSH2 0x7117 PUSH2 0x66A8 JUMP JUMPDEST JUMPDEST PUSH1 0x0 PUSH2 0x7126 DUP6 DUP3 DUP7 ADD PUSH2 0x66D7 JUMP JUMPDEST SWAP3 POP POP PUSH1 0x20 PUSH2 0x7137 DUP6 DUP3 DUP7 ADD PUSH2 0x6E63 JUMP JUMPDEST SWAP2 POP POP SWAP3 POP SWAP3 SWAP1 POP JUMP JUMPDEST PUSH1 0x0 DUP1 PUSH1 0x40 DUP4 DUP6 SUB SLT ISZERO PUSH2 0x7158 JUMPI PUSH2 0x7157 PUSH2 0x66A8 JUMP JUMPDEST JUMPDEST PUSH1 0x0 PUSH2 0x7166 DUP6 DUP3 DUP7 ADD PUSH2 0x66D7 JUMP JUMPDEST SWAP3 POP POP PUSH1 0x20 PUSH2 0x7177 DUP6 DUP3 DUP7 ADD PUSH2 0x66D7 JUMP JUMPDEST SWAP2 POP POP SWAP3 POP SWAP3 SWAP1 POP JUMP JUMPDEST PUSH2 0x718A DUP2 PUSH2 0x697C JUMP JUMPDEST DUP2 EQ PUSH2 0x7195 JUMPI PUSH1 0x0 DUP1 REVERT JUMPDEST POP JUMP JUMPDEST PUSH1 0x0 DUP2 CALLDATALOAD SWAP1 POP PUSH2 0x71A7 DUP2 PUSH2 0x7181 JUMP JUMPDEST SWAP3 SWAP2 POP POP JUMP JUMPDEST PUSH1 0x0 DUP1 PUSH1 0x40 DUP4 DUP6 SUB SLT ISZERO PUSH2 0x71C4 JUMPI PUSH2 0x71C3 PUSH2 0x66A8 JUMP JUMPDEST JUMPDEST PUSH1 0x0 PUSH2 0x71D2 DUP6 DUP3 DUP7 ADD PUSH2 0x7198 JUMP JUMPDEST SWAP3 POP POP PUSH1 0x20 PUSH2 0x71E3 DUP6 DUP3 DUP7 ADD PUSH2 0x69F9 JUMP JUMPDEST SWAP2 POP POP SWAP3 POP SWAP3 SWAP1 POP JUMP JUMPDEST PUSH1 0x0 DUP1 REVERT JUMPDEST PUSH1 0x0 DUP1 REVERT JUMPDEST PUSH1 0x0 PUSH8 0xFFFFFFFFFFFFFFFF DUP3 GT ISZERO PUSH2 0x7212 JUMPI PUSH2 0x7211 PUSH2 0x6ED4 JUMP JUMPDEST JUMPDEST PUSH1 0x20 DUP3 MUL SWAP1 POP PUSH1 0x20 DUP2 ADD SWAP1 POP SWAP2 SWAP1 POP JUMP JUMPDEST PUSH1 0x0 PUSH2 0x7236 PUSH2 0x7231 DUP5 PUSH2 0x71F7 JUMP JUMPDEST PUSH2 0x6F34 JUMP JUMPDEST SWAP1 POP DUP1 DUP4 DUP3 MSTORE PUSH1 0x20 DUP3 ADD SWAP1 POP PUSH1 0x20 DUP5 MUL DUP4 ADD DUP6 DUP2 GT ISZERO PUSH2 0x7259 JUMPI PUSH2 0x7258 PUSH2 0x66F6 JUMP JUMPDEST JUMPDEST DUP4 JUMPDEST DUP2 DUP2 LT ISZERO PUSH2 0x7282 JUMPI DUP1 PUSH2 0x726E DUP9 DUP3 PUSH2 0x69F9 JUMP JUMPDEST DUP5 MSTORE PUSH1 0x20 DUP5 ADD SWAP4 POP POP PUSH1 0x20 DUP2 ADD SWAP1 POP PUSH2 0x725B JUMP JUMPDEST POP POP POP SWAP4 SWAP3 POP POP POP JUMP JUMPDEST PUSH1 0x0 DUP3 PUSH1 0x1F DUP4 ADD SLT PUSH2 0x72A1 JUMPI PUSH2 0x72A0 PUSH2 0x66EC JUMP JUMPDEST JUMPDEST DUP2 CALLDATALOAD PUSH2 0x72B1 DUP5 DUP3 PUSH1 0x20 DUP7 ADD PUSH2 0x7223 JUMP JUMPDEST SWAP2 POP POP SWAP3 SWAP2 POP POP JUMP JUMPDEST PUSH1 0x0 PUSH8 0xFFFFFFFFFFFFFFFF DUP3 GT ISZERO PUSH2 0x72D5 JUMPI PUSH2 0x72D4 PUSH2 0x6ED4 JUMP JUMPDEST JUMPDEST PUSH1 0x20 DUP3 MUL SWAP1 POP PUSH1 0x20 DUP2 ADD SWAP1 POP SWAP2 SWAP1 POP JUMP JUMPDEST PUSH1 0x0 PUSH2 0x72F9 PUSH2 0x72F4 DUP5 PUSH2 0x72BA JUMP JUMPDEST PUSH2 0x6F34 JUMP JUMPDEST SWAP1 POP DUP1 DUP4 DUP3 MSTORE PUSH1 0x20 DUP3 ADD SWAP1 POP PUSH1 0x20 DUP5 MUL DUP4 ADD DUP6 DUP2 GT ISZERO PUSH2 0x731C JUMPI PUSH2 0x731B PUSH2 0x66F6 JUMP JUMPDEST JUMPDEST DUP4 JUMPDEST DUP2 DUP2 LT ISZERO PUSH2 0x7345 JUMPI DUP1 PUSH2 0x7331 DUP9 DUP3 PUSH2 0x6E63 JUMP JUMPDEST DUP5 MSTORE PUSH1 0x20 DUP5 ADD SWAP4 POP POP PUSH1 0x20 DUP2 ADD SWAP1 POP PUSH2 0x731E JUMP JUMPDEST POP POP POP SWAP4 SWAP3 POP POP POP JUMP JUMPDEST PUSH1 0x0 DUP3 PUSH1 0x1F DUP4 ADD SLT PUSH2 0x7364 JUMPI PUSH2 0x7363 PUSH2 0x66EC JUMP JUMPDEST JUMPDEST DUP2 CALLDATALOAD PUSH2 0x7374 DUP5 DUP3 PUSH1 0x20 DUP7 ADD PUSH2 0x72E6 JUMP JUMPDEST SWAP2 POP POP SWAP3 SWAP2 POP POP JUMP JUMPDEST PUSH1 0x0 PUSH2 0x160 DUP3 DUP5 SUB SLT ISZERO PUSH2 0x7394 JUMPI PUSH2 0x7393 PUSH2 0x71ED JUMP JUMPDEST JUMPDEST PUSH2 0x739F PUSH2 0x160 PUSH2 0x6F34 JUMP JUMPDEST SWAP1 POP PUSH1 0x0 PUSH2 0x73AF DUP5 DUP3 DUP6 ADD PUSH2 0x69F9 JUMP JUMPDEST PUSH1 0x0 DUP4 ADD MSTORE POP PUSH1 0x20 PUSH2 0x73C3 DUP5 DUP3 DUP6 ADD PUSH2 0x7198 JUMP JUMPDEST PUSH1 0x20 DUP4 ADD MSTORE POP PUSH1 0x40 PUSH2 0x73D7 DUP5 DUP3 DUP6 ADD PUSH2 0x7198 JUMP JUMPDEST PUSH1 0x40 DUP4 ADD MSTORE POP PUSH1 0x60 DUP3 ADD CALLDATALOAD PUSH8 0xFFFFFFFFFFFFFFFF DUP2 GT ISZERO PUSH2 0x73FB JUMPI PUSH2 0x73FA PUSH2 0x71F2 JUMP JUMPDEST JUMPDEST PUSH2 0x7407 DUP5 DUP3 DUP6 ADD PUSH2 0x728C JUMP JUMPDEST PUSH1 0x60 DUP4 ADD MSTORE POP PUSH1 0x80 DUP3 ADD CALLDATALOAD PUSH8 0xFFFFFFFFFFFFFFFF DUP2 GT ISZERO PUSH2 0x742B JUMPI PUSH2 0x742A PUSH2 0x71F2 JUMP JUMPDEST JUMPDEST PUSH2 0x7437 DUP5 DUP3 DUP6 ADD PUSH2 0x734F JUMP JUMPDEST PUSH1 0x80 DUP4 ADD MSTORE POP PUSH1 0xA0 PUSH2 0x744B DUP5 DUP3 DUP6 ADD PUSH2 0x6E63 JUMP JUMPDEST PUSH1 0xA0 DUP4 ADD MSTORE POP PUSH1 0xC0 PUSH2 0x745F DUP5 DUP3 DUP6 ADD PUSH2 0x6E63 JUMP JUMPDEST PUSH1 0xC0 DUP4 ADD MSTORE POP PUSH1 0xE0 DUP3 ADD CALLDATALOAD PUSH8 0xFFFFFFFFFFFFFFFF DUP2 GT ISZERO PUSH2 0x7483 JUMPI PUSH2 0x7482 PUSH2 0x71F2 JUMP JUMPDEST JUMPDEST PUSH2 0x748F DUP5 DUP3 DUP6 ADD PUSH2 0x734F JUMP JUMPDEST PUSH1 0xE0 DUP4 ADD MSTORE POP PUSH2 0x100 PUSH2 0x74A4 DUP5 DUP3 DUP6 ADD PUSH2 0x6E63 JUMP JUMPDEST PUSH2 0x100 DUP4 ADD MSTORE POP PUSH2 0x120 PUSH2 0x74BA DUP5 DUP3 DUP6 ADD PUSH2 0x7198 JUMP JUMPDEST PUSH2 0x120 DUP4 ADD MSTORE POP PUSH2 0x140 DUP3 ADD CALLDATALOAD PUSH8 0xFFFFFFFFFFFFFFFF DUP2 GT ISZERO PUSH2 0x74E0 JUMPI PUSH2 0x74DF PUSH2 0x71F2 JUMP JUMPDEST JUMPDEST PUSH2 0x74EC DUP5 DUP3 DUP6 ADD PUSH2 0x6FD1 JUMP JUMPDEST PUSH2 0x140 DUP4 ADD MSTORE POP SWAP3 SWAP2 POP POP JUMP JUMPDEST PUSH1 0x0 DUP1 PUSH1 0x40 DUP4 DUP6 SUB SLT ISZERO PUSH2 0x7510 JUMPI PUSH2 0x750F PUSH2 0x66A8 JUMP JUMPDEST JUMPDEST PUSH1 0x0 PUSH2 0x751E DUP6 DUP3 DUP7 ADD PUSH2 0x69F9 JUMP JUMPDEST SWAP3 POP POP PUSH1 0x20 DUP4 ADD CALLDATALOAD PUSH8 0xFFFFFFFFFFFFFFFF DUP2 GT ISZERO PUSH2 0x753F JUMPI PUSH2 0x753E PUSH2 0x66AD JUMP JUMPDEST JUMPDEST PUSH2 0x754B DUP6 DUP3 DUP7 ADD PUSH2 0x737D JUMP JUMPDEST SWAP2 POP POP SWAP3 POP SWAP3 SWAP1 POP JUMP JUMPDEST PUSH1 0x0 DUP1 PUSH1 0x40 DUP4 DUP6 SUB SLT ISZERO PUSH2 0x756C JUMPI PUSH2 0x756B PUSH2 0x66A8 JUMP JUMPDEST JUMPDEST PUSH1 0x0 PUSH2 0x757A DUP6 DUP3 DUP7 ADD PUSH2 0x69F9 JUMP JUMPDEST SWAP3 POP POP PUSH1 0x20 PUSH2 0x758B DUP6 DUP3 DUP7 ADD PUSH2 0x693A JUMP JUMPDEST SWAP2 POP POP SWAP3 POP SWAP3 SWAP1 POP JUMP JUMPDEST PUSH1 0x0 PUSH8 0xFFFFFFFFFFFFFFFF DUP3 GT ISZERO PUSH2 0x75B0 JUMPI PUSH2 0x75AF PUSH2 0x6ED4 JUMP JUMPDEST JUMPDEST PUSH1 0x20 DUP3 MUL SWAP1 POP PUSH1 0x20 DUP2 ADD SWAP1 POP SWAP2 SWAP1 POP JUMP JUMPDEST PUSH1 0x0 PUSH8 0xFFFFFFFFFFFFFFFF DUP3 GT ISZERO PUSH2 0x75DC JUMPI PUSH2 0x75DB PUSH2 0x6ED4 JUMP JUMPDEST JUMPDEST PUSH2 0x75E5 DUP3 PUSH2 0x68AB JUMP JUMPDEST SWAP1 POP PUSH1 0x20 DUP2 ADD SWAP1 POP SWAP2 SWAP1 POP JUMP JUMPDEST PUSH1 0x0 PUSH2 0x7605 PUSH2 0x7600 DUP5 PUSH2 0x75C1 JUMP JUMPDEST PUSH2 0x6F34 JUMP JUMPDEST SWAP1 POP DUP3 DUP2 MSTORE PUSH1 0x20 DUP2 ADD DUP5 DUP5 DUP5 ADD GT ISZERO PUSH2 0x7621 JUMPI PUSH2 0x7620 PUSH2 0x6ECF JUMP JUMPDEST JUMPDEST PUSH2 0x762C DUP5 DUP3 DUP6 PUSH2 0x6F80 JUMP JUMPDEST POP SWAP4 SWAP3 POP POP POP JUMP JUMPDEST PUSH1 0x0 DUP3 PUSH1 0x1F DUP4 ADD SLT PUSH2 0x7649 JUMPI PUSH2 0x7648 PUSH2 0x66EC JUMP JUMPDEST JUMPDEST DUP2 CALLDATALOAD PUSH2 0x7659 DUP5 DUP3 PUSH1 0x20 DUP7 ADD PUSH2 0x75F2 JUMP JUMPDEST SWAP2 POP POP SWAP3 SWAP2 POP POP JUMP JUMPDEST PUSH1 0x0 PUSH2 0x280 DUP3 DUP5 SUB SLT ISZERO PUSH2 0x7679 JUMPI PUSH2 0x7678 PUSH2 0x71ED JUMP JUMPDEST JUMPDEST PUSH2 0x7684 PUSH2 0x280 PUSH2 0x6F34 JUMP JUMPDEST SWAP1 POP PUSH1 0x0 DUP3 ADD CALLDATALOAD PUSH8 0xFFFFFFFFFFFFFFFF DUP2 GT ISZERO PUSH2 0x76A4 JUMPI PUSH2 0x76A3 PUSH2 0x71F2 JUMP JUMPDEST JUMPDEST PUSH2 0x76B0 DUP5 DUP3 DUP6 ADD PUSH2 0x7634 JUMP JUMPDEST PUSH1 0x0 DUP4 ADD MSTORE POP PUSH1 0x20 PUSH2 0x76C4 DUP5 DUP3 DUP6 ADD PUSH2 0x69F9 JUMP JUMPDEST PUSH1 0x20 DUP4 ADD MSTORE POP PUSH1 0x40 PUSH2 0x76D8 DUP5 DUP3 DUP6 ADD PUSH2 0x69F9 JUMP JUMPDEST PUSH1 0x40 DUP4 ADD MSTORE POP PUSH1 0x60 DUP3 ADD CALLDATALOAD PUSH8 0xFFFFFFFFFFFFFFFF DUP2 GT ISZERO PUSH2 0x76FC JUMPI PUSH2 0x76FB PUSH2 0x71F2 JUMP JUMPDEST JUMPDEST PUSH2 0x7708 DUP5 DUP3 DUP6 ADD PUSH2 0x734F JUMP JUMPDEST PUSH1 0x60 DUP4 ADD MSTORE POP PUSH1 0x80 DUP3 ADD CALLDATALOAD PUSH8 0xFFFFFFFFFFFFFFFF DUP2 GT ISZERO PUSH2 0x772C JUMPI PUSH2 0x772B PUSH2 0x71F2 JUMP JUMPDEST JUMPDEST PUSH2 0x7738 DUP5 DUP3 DUP6 ADD PUSH2 0x728C JUMP JUMPDEST PUSH1 0x80 DUP4 ADD MSTORE POP PUSH1 0xA0 PUSH2 0x774C DUP5 DUP3 DUP6 ADD PUSH2 0x693A JUMP JUMPDEST PUSH1 0xA0 DUP4 ADD MSTORE POP PUSH1 0xC0 PUSH2 0x7760 DUP5 DUP3 DUP6 ADD PUSH2 0x6E63 JUMP JUMPDEST PUSH1 0xC0 DUP4 ADD MSTORE POP PUSH1 0xE0 PUSH2 0x7774 DUP5 DUP3 DUP6 ADD PUSH2 0x69F9 JUMP JUMPDEST PUSH1 0xE0 DUP4 ADD MSTORE POP PUSH2 0x100 PUSH2 0x7789 DUP5 DUP3 DUP6 ADD PUSH2 0x693A JUMP JUMPDEST PUSH2 0x100 DUP4 ADD MSTORE POP PUSH2 0x120 PUSH2 0x779F DUP5 DUP3 DUP6 ADD PUSH2 0x6E63 JUMP JUMPDEST PUSH2 0x120 DUP4 ADD MSTORE POP PUSH2 0x140 PUSH2 0x77B5 DUP5 DUP3 DUP6 ADD PUSH2 0x69F9 JUMP JUMPDEST PUSH2 0x140 DUP4 ADD MSTORE POP PUSH2 0x160 PUSH2 0x77CB DUP5 DUP3 DUP6 ADD PUSH2 0x693A JUMP JUMPDEST PUSH2 0x160 DUP4 ADD MSTORE POP PUSH2 0x180 PUSH2 0x77E1 DUP5 DUP3 DUP6 ADD PUSH2 0x693A JUMP JUMPDEST PUSH2 0x180 DUP4 ADD MSTORE POP PUSH2 0x1A0 PUSH2 0x77F7 DUP5 DUP3 DUP6 ADD PUSH2 0x6E63 JUMP JUMPDEST PUSH2 0x1A0 DUP4 ADD MSTORE POP PUSH2 0x1C0 PUSH2 0x780D DUP5 DUP3 DUP6 ADD PUSH2 0x66D7 JUMP JUMPDEST PUSH2 0x1C0 DUP4 ADD MSTORE POP PUSH2 0x1E0 PUSH2 0x7823 DUP5 DUP3 DUP6 ADD PUSH2 0x6E63 JUMP JUMPDEST PUSH2 0x1E0 DUP4 ADD MSTORE POP PUSH2 0x200 PUSH2 0x7839 DUP5 DUP3 DUP6 ADD PUSH2 0x7198 JUMP JUMPDEST PUSH2 0x200 DUP4 ADD MSTORE POP PUSH2 0x220 DUP3 ADD CALLDATALOAD PUSH8 0xFFFFFFFFFFFFFFFF DUP2 GT ISZERO PUSH2 0x785F JUMPI PUSH2 0x785E PUSH2 0x71F2 JUMP JUMPDEST JUMPDEST PUSH2 0x786B DUP5 DUP3 DUP6 ADD PUSH2 0x6FD1 JUMP JUMPDEST PUSH2 0x220 DUP4 ADD MSTORE POP PUSH2 0x240 PUSH2 0x7881 DUP5 DUP3 DUP6 ADD PUSH2 0x7198 JUMP JUMPDEST PUSH2 0x240 DUP4 ADD MSTORE POP PUSH2 0x260 DUP3 ADD CALLDATALOAD PUSH8 0xFFFFFFFFFFFFFFFF DUP2 GT ISZERO PUSH2 0x78A7 JUMPI PUSH2 0x78A6 PUSH2 0x71F2 JUMP JUMPDEST JUMPDEST PUSH2 0x78B3 DUP5 DUP3 DUP6 ADD PUSH2 0x6FD1 JUMP JUMPDEST PUSH2 0x260 DUP4 ADD MSTORE POP SWAP3 SWAP2 POP POP JUMP JUMPDEST PUSH1 0x0 PUSH2 0x78D3 PUSH2 0x78CE DUP5 PUSH2 0x7595 JUMP JUMPDEST PUSH2 0x6F34 JUMP JUMPDEST SWAP1 POP DUP1 DUP4 DUP3 MSTORE PUSH1 0x20 DUP3 ADD SWAP1 POP PUSH1 0x20 DUP5 MUL DUP4 ADD DUP6 DUP2 GT ISZERO PUSH2 0x78F6 JUMPI PUSH2 0x78F5 PUSH2 0x66F6 JUMP JUMPDEST JUMPDEST DUP4 JUMPDEST DUP2 DUP2 LT ISZERO PUSH2 0x793D JUMPI DUP1 CALLDATALOAD PUSH8 0xFFFFFFFFFFFFFFFF DUP2 GT ISZERO PUSH2 0x791B JUMPI PUSH2 0x791A PUSH2 0x66EC JUMP JUMPDEST JUMPDEST DUP1 DUP7 ADD PUSH2 0x7928 DUP10 DUP3 PUSH2 0x7662 JUMP JUMPDEST DUP6 MSTORE PUSH1 0x20 DUP6 ADD SWAP5 POP POP POP PUSH1 0x20 DUP2 ADD SWAP1 POP PUSH2 0x78F8 JUMP JUMPDEST POP POP POP SWAP4 SWAP3 POP POP POP JUMP JUMPDEST PUSH1 0x0 DUP3 PUSH1 0x1F DUP4 ADD SLT PUSH2 0x795C JUMPI PUSH2 0x795B PUSH2 0x66EC JUMP JUMPDEST JUMPDEST DUP2 CALLDATALOAD PUSH2 0x796C DUP5 DUP3 PUSH1 0x20 DUP7 ADD PUSH2 0x78C0 JUMP JUMPDEST SWAP2 POP POP SWAP3 SWAP2 POP POP JUMP JUMPDEST PUSH1 0x0 DUP1 PUSH1 0x40 DUP4 DUP6 SUB SLT ISZERO PUSH2 0x798C JUMPI PUSH2 0x798B PUSH2 0x66A8 JUMP JUMPDEST JUMPDEST PUSH1 0x0 DUP4 ADD CALLDATALOAD PUSH8 0xFFFFFFFFFFFFFFFF DUP2 GT ISZERO PUSH2 0x79AA JUMPI PUSH2 0x79A9 PUSH2 0x66AD JUMP JUMPDEST JUMPDEST PUSH2 0x79B6 DUP6 DUP3 DUP7 ADD PUSH2 0x7947 JUMP JUMPDEST SWAP3 POP POP PUSH1 0x20 PUSH2 0x79C7 DUP6 DUP3 DUP7 ADD PUSH2 0x69F9 JUMP JUMPDEST SWAP2 POP POP SWAP3 POP SWAP3 SWAP1 POP JUMP JUMPDEST PUSH1 0x0 DUP2 SWAP1 POP SWAP2 SWAP1 POP JUMP JUMPDEST PUSH1 0x0 PUSH2 0x79F6 PUSH2 0x79F1 PUSH2 0x79EC DUP5 PUSH2 0x69B0 JUMP JUMPDEST PUSH2 0x79D1 JUMP JUMPDEST PUSH2 0x69B0 JUMP JUMPDEST SWAP1 POP SWAP2 SWAP1 POP JUMP JUMPDEST PUSH1 0x0 PUSH2 0x7A08 DUP3 PUSH2 0x79DB JUMP JUMPDEST SWAP1 POP SWAP2 SWAP1 POP JUMP JUMPDEST PUSH1 0x0 PUSH2 0x7A1A DUP3 PUSH2 0x79FD JUMP JUMPDEST SWAP1 POP SWAP2 SWAP1 POP JUMP JUMPDEST PUSH2 0x7A2A DUP2 PUSH2 0x7A0F JUMP JUMPDEST DUP3 MSTORE POP POP JUMP JUMPDEST PUSH1 0x0 PUSH1 0x20 DUP3 ADD SWAP1 POP PUSH2 0x7A45 PUSH1 0x0 DUP4 ADD DUP5 PUSH2 0x7A21 JUMP JUMPDEST SWAP3 SWAP2 POP POP JUMP JUMPDEST PUSH1 0x0 PUSH1 0x20 DUP3 DUP5 SUB SLT ISZERO PUSH2 0x7A61 JUMPI PUSH2 0x7A60 PUSH2 0x66A8 JUMP JUMPDEST JUMPDEST PUSH1 0x0 PUSH2 0x7A6F DUP5 DUP3 DUP6 ADD PUSH2 0x7198 JUMP JUMPDEST SWAP2 POP POP SWAP3 SWAP2 POP POP JUMP JUMPDEST PUSH1 0x0 PUSH2 0x100 DUP3 DUP5 SUB SLT ISZERO PUSH2 0x7A8F JUMPI PUSH2 0x7A8E PUSH2 0x71ED JUMP JUMPDEST JUMPDEST PUSH2 0x7A9A PUSH2 0x100 PUSH2 0x6F34 JUMP JUMPDEST SWAP1 POP PUSH1 0x0 DUP3 ADD CALLDATALOAD PUSH8 0xFFFFFFFFFFFFFFFF DUP2 GT ISZERO PUSH2 0x7ABA JUMPI PUSH2 0x7AB9 PUSH2 0x71F2 JUMP JUMPDEST JUMPDEST PUSH2 0x7AC6 DUP5 DUP3 DUP6 ADD PUSH2 0x728C JUMP JUMPDEST PUSH1 0x0 DUP4 ADD MSTORE POP PUSH1 0x20 DUP3 ADD CALLDATALOAD PUSH8 0xFFFFFFFFFFFFFFFF DUP2 GT ISZERO PUSH2 0x7AEA JUMPI PUSH2 0x7AE9 PUSH2 0x71F2 JUMP JUMPDEST JUMPDEST PUSH2 0x7AF6 DUP5 DUP3 DUP6 ADD PUSH2 0x734F JUMP JUMPDEST PUSH1 0x20 DUP4 ADD MSTORE POP PUSH1 0x40 PUSH2 0x7B0A DUP5 DUP3 DUP6 ADD PUSH2 0x693A JUMP JUMPDEST PUSH1 0x40 DUP4 ADD MSTORE POP PUSH1 0x60 PUSH2 0x7B1E DUP5 DUP3 DUP6 ADD PUSH2 0x69F9 JUMP JUMPDEST PUSH1 0x60 DUP4 ADD MSTORE POP PUSH1 0x80 PUSH2 0x7B32 DUP5 DUP3 DUP6 ADD PUSH2 0x7198 JUMP JUMPDEST PUSH1 0x80 DUP4 ADD MSTORE POP PUSH1 0xA0 DUP3 ADD CALLDATALOAD PUSH8 0xFFFFFFFFFFFFFFFF DUP2 GT ISZERO PUSH2 0x7B56 JUMPI PUSH2 0x7B55 PUSH2 0x71F2 JUMP JUMPDEST JUMPDEST PUSH2 0x7B62 DUP5 DUP3 DUP6 ADD PUSH2 0x6FD1 JUMP JUMPDEST PUSH1 0xA0 DUP4 ADD MSTORE POP PUSH1 0xC0 PUSH2 0x7B76 DUP5 DUP3 DUP6 ADD PUSH2 0x7198 JUMP JUMPDEST PUSH1 0xC0 DUP4 ADD MSTORE POP PUSH1 0xE0 DUP3 ADD CALLDATALOAD PUSH8 0xFFFFFFFFFFFFFFFF DUP2 GT ISZERO PUSH2 0x7B9A JUMPI PUSH2 0x7B99 PUSH2 0x71F2 JUMP JUMPDEST JUMPDEST PUSH2 0x7BA6 DUP5 DUP3 DUP6 ADD PUSH2 0x6FD1 JUMP JUMPDEST PUSH1 0xE0 DUP4 ADD MSTORE POP SWAP3 SWAP2 POP POP JUMP JUMPDEST PUSH1 0x0 PUSH1 0x20 DUP3 DUP5 SUB SLT ISZERO PUSH2 0x7BC8 JUMPI PUSH2 0x7BC7 PUSH2 0x66A8 JUMP JUMPDEST JUMPDEST PUSH1 0x0 DUP3 ADD CALLDATALOAD PUSH8 0xFFFFFFFFFFFFFFFF DUP2 GT ISZERO PUSH2 0x7BE6 JUMPI PUSH2 0x7BE5 PUSH2 0x66AD JUMP JUMPDEST JUMPDEST PUSH2 0x7BF2 DUP5 DUP3 DUP6 ADD PUSH2 0x7A78 JUMP JUMPDEST SWAP2 POP POP SWAP3 SWAP2 POP POP JUMP JUMPDEST PUSH1 0x0 DUP1 PUSH1 0x0 DUP1 PUSH1 0x0 PUSH1 0x80 DUP7 DUP9 SUB SLT ISZERO PUSH2 0x7C17 JUMPI PUSH2 0x7C16 PUSH2 0x66A8 JUMP JUMPDEST JUMPDEST PUSH1 0x0 PUSH2 0x7C25 DUP9 DUP3 DUP10 ADD PUSH2 0x66D7 JUMP JUMPDEST SWAP6 POP POP PUSH1 0x20 PUSH2 0x7C36 DUP9 DUP3 DUP10 ADD PUSH2 0x66D7 JUMP JUMPDEST SWAP5 POP POP PUSH1 0x40 PUSH2 0x7C47 DUP9 DUP3 DUP10 ADD PUSH2 0x6E63 JUMP JUMPDEST SWAP4 POP POP PUSH1 0x60 DUP7 ADD CALLDATALOAD PUSH8 0xFFFFFFFFFFFFFFFF DUP2 GT ISZERO PUSH2 0x7C68 JUMPI PUSH2 0x7C67 PUSH2 0x66AD JUMP JUMPDEST JUMPDEST PUSH2 0x7C74 DUP9 DUP3 DUP10 ADD PUSH2 0x66FB JUMP JUMPDEST SWAP3 POP SWAP3 POP POP SWAP3 SWAP6 POP SWAP3 SWAP6 SWAP1 SWAP4 POP JUMP JUMPDEST PUSH1 0x0 DUP1 PUSH1 0x0 PUSH1 0x60 DUP5 DUP7 SUB SLT ISZERO PUSH2 0x7C9C JUMPI PUSH2 0x7C9B PUSH2 0x66A8 JUMP JUMPDEST JUMPDEST PUSH1 0x0 PUSH2 0x7CAA DUP7 DUP3 DUP8 ADD PUSH2 0x66D7 JUMP JUMPDEST SWAP4 POP POP PUSH1 0x20 PUSH2 0x7CBB DUP7 DUP3 DUP8 ADD PUSH2 0x66D7 JUMP JUMPDEST SWAP3 POP POP PUSH1 0x40 PUSH2 0x7CCC DUP7 DUP3 DUP8 ADD PUSH2 0x6E63 JUMP JUMPDEST SWAP2 POP POP SWAP3 POP SWAP3 POP SWAP3 JUMP JUMPDEST PUSH1 0x0 DUP1 PUSH1 0x0 DUP1 PUSH1 0x80 DUP6 DUP8 SUB SLT ISZERO PUSH2 0x7CF0 JUMPI PUSH2 0x7CEF PUSH2 0x66A8 JUMP JUMPDEST JUMPDEST PUSH1 0x0 PUSH2 0x7CFE DUP8 DUP3 DUP9 ADD PUSH2 0x66D7 JUMP JUMPDEST SWAP5 POP POP PUSH1 0x20 PUSH2 0x7D0F DUP8 DUP3 DUP9 ADD PUSH2 0x66D7 JUMP JUMPDEST SWAP4 POP POP PUSH1 0x40 PUSH2 0x7D20 DUP8 DUP3 DUP9 ADD PUSH2 0x69F9 JUMP JUMPDEST SWAP3 POP POP PUSH1 0x60 PUSH2 0x7D31 DUP8 DUP3 DUP9 ADD PUSH2 0x6E63 JUMP JUMPDEST SWAP2 POP POP SWAP3 SWAP6 SWAP2 SWAP5 POP SWAP3 POP JUMP JUMPDEST PUSH1 0x0 PUSH1 0xA0 DUP3 ADD SWAP1 POP PUSH2 0x7D52 PUSH1 0x0 DUP4 ADD DUP9 PUSH2 0x6EA5 JUMP JUMPDEST PUSH2 0x7D5F PUSH1 0x20 DUP4 ADD DUP8 PUSH2 0x6986 JUMP JUMPDEST PUSH2 0x7D6C PUSH1 0x40 DUP4 ADD DUP7 PUSH2 0x6A45 JUMP JUMPDEST PUSH2 0x7D79 PUSH1 0x60 DUP4 ADD DUP6 PUSH2 0x6A45 JUMP JUMPDEST PUSH2 0x7D86 PUSH1 0x80 DUP4 ADD DUP5 PUSH2 0x6A45 JUMP JUMPDEST SWAP7 SWAP6 POP POP POP POP POP POP JUMP JUMPDEST PUSH1 0x0 DUP3 DUP3 MSTORE PUSH1 0x20 DUP3 ADD SWAP1 POP SWAP3 SWAP2 POP POP JUMP JUMPDEST PUSH32 0x4C7A4170703A20696E76616C696420656E64706F696E742063616C6C65720000 PUSH1 0x0 DUP3 ADD MSTORE POP JUMP JUMPDEST PUSH1 0x0 PUSH2 0x7DD7 PUSH1 0x1E DUP4 PUSH2 0x7D90 JUMP JUMPDEST SWAP2 POP PUSH2 0x7DE2 DUP3 PUSH2 0x7DA1 JUMP JUMPDEST PUSH1 0x20 DUP3 ADD SWAP1 POP SWAP2 SWAP1 POP JUMP JUMPDEST PUSH1 0x0 PUSH1 0x20 DUP3 ADD SWAP1 POP DUP2 DUP2 SUB PUSH1 0x0 DUP4 ADD MSTORE PUSH2 0x7E06 DUP2 PUSH2 0x7DCA JUMP JUMPDEST SWAP1 POP SWAP2 SWAP1 POP JUMP JUMPDEST PUSH32 0x4E487B7100000000000000000000000000000000000000000000000000000000 PUSH1 0x0 MSTORE PUSH1 0x22 PUSH1 0x4 MSTORE PUSH1 0x24 PUSH1 0x0 REVERT JUMPDEST PUSH1 0x0 PUSH1 0x2 DUP3 DIV SWAP1 POP PUSH1 0x1 DUP3 AND DUP1 PUSH2 0x7E54 JUMPI PUSH1 0x7F DUP3 AND SWAP2 POP JUMPDEST PUSH1 0x20 DUP3 LT DUP2 SUB PUSH2 0x7E67 JUMPI PUSH2 0x7E66 PUSH2 0x7E0D JUMP JUMPDEST JUMPDEST POP SWAP2 SWAP1 POP JUMP JUMPDEST PUSH1 0x0 DUP2 SWAP1 POP SWAP3 SWAP2 POP POP JUMP JUMPDEST PUSH1 0x0 PUSH2 0x7E84 DUP4 DUP6 PUSH2 0x7E6D JUMP JUMPDEST SWAP4 POP PUSH2 0x7E91 DUP4 DUP6 DUP5 PUSH2 0x6F80 JUMP JUMPDEST DUP3 DUP5 ADD SWAP1 POP SWAP4 SWAP3 POP POP POP JUMP JUMPDEST PUSH1 0x0 PUSH2 0x7EAA DUP3 DUP5 DUP7 PUSH2 0x7E78 JUMP JUMPDEST SWAP2 POP DUP2 SWAP1 POP SWAP4 SWAP3 POP POP POP JUMP JUMPDEST PUSH32 0x4C7A4170703A20696E76616C696420736F757263652073656E64696E6720636F PUSH1 0x0 DUP3 ADD MSTORE PUSH32 0x6E74726163740000000000000000000000000000000000000000000000000000 PUSH1 0x20 DUP3 ADD MSTORE POP JUMP JUMPDEST PUSH1 0x0 PUSH2 0x7F12 PUSH1 0x26 DUP4 PUSH2 0x7D90 JUMP JUMPDEST SWAP2 POP PUSH2 0x7F1D DUP3 PUSH2 0x7EB6 JUMP JUMPDEST PUSH1 0x40 DUP3 ADD SWAP1 POP SWAP2 SWAP1 POP JUMP JUMPDEST PUSH1 0x0 PUSH1 0x20 DUP3 ADD SWAP1 POP DUP2 DUP2 SUB PUSH1 0x0 DUP4 ADD MSTORE PUSH2 0x7F41 DUP2 PUSH2 0x7F05 JUMP JUMPDEST SWAP1 POP SWAP2 SWAP1 POP JUMP JUMPDEST PUSH32 0x4E487B7100000000000000000000000000000000000000000000000000000000 PUSH1 0x0 MSTORE PUSH1 0x32 PUSH1 0x4 MSTORE PUSH1 0x24 PUSH1 0x0 REVERT JUMPDEST PUSH32 0x4E487B7100000000000000000000000000000000000000000000000000000000 PUSH1 0x0 MSTORE PUSH1 0x11 PUSH1 0x4 MSTORE PUSH1 0x24 PUSH1 0x0 REVERT JUMPDEST PUSH1 0x0 PUSH2 0x7FB1 DUP3 PUSH2 0x6A3B JUMP JUMPDEST SWAP2 POP PUSH32 0xFFFFFFFFFFFFFFFFFFFFFFFFFFFFFFFFFFFFFFFFFFFFFFFFFFFFFFFFFFFFFFFF DUP3 SUB PUSH2 0x7FE3 JUMPI PUSH2 0x7FE2 PUSH2 0x7F77 JUMP JUMPDEST JUMPDEST PUSH1 0x1 DUP3 ADD SWAP1 POP SWAP2 SWAP1 POP JUMP JUMPDEST PUSH1 0x0 PUSH2 0x7FFA DUP4 DUP6 PUSH2 0x6870 JUMP JUMPDEST SWAP4 POP PUSH2 0x8007 DUP4 DUP6 DUP5 PUSH2 0x6F80 JUMP JUMPDEST PUSH2 0x8010 DUP4 PUSH2 0x68AB JUMP JUMPDEST DUP5 ADD SWAP1 POP SWAP4 SWAP3 POP POP POP JUMP JUMPDEST PUSH1 0x0 PUSH1 0x40 DUP3 ADD SWAP1 POP PUSH2 0x8030 PUSH1 0x0 DUP4 ADD DUP7 PUSH2 0x6A7D JUMP JUMPDEST DUP2 DUP2 SUB PUSH1 0x20 DUP4 ADD MSTORE PUSH2 0x8043 DUP2 DUP5 DUP7 PUSH2 0x7FEE JUMP JUMPDEST SWAP1 POP SWAP5 SWAP4 POP POP POP POP JUMP JUMPDEST PUSH1 0x0 DUP2 MLOAD SWAP1 POP PUSH2 0x805C DUP2 PUSH2 0x66C0 JUMP JUMPDEST SWAP3 SWAP2 POP POP JUMP JUMPDEST PUSH1 0x0 PUSH1 0x20 DUP3 DUP5 SUB SLT ISZERO PUSH2 0x8078 JUMPI PUSH2 0x8077 PUSH2 0x66A8 JUMP JUMPDEST JUMPDEST PUSH1 0x0 PUSH2 0x8086 DUP5 DUP3 DUP6 ADD PUSH2 0x804D JUMP JUMPDEST SWAP2 POP POP SWAP3 SWAP2 POP POP JUMP JUMPDEST PUSH1 0x0 PUSH1 0x80 DUP3 ADD SWAP1 POP PUSH2 0x80A4 PUSH1 0x0 DUP4 ADD DUP8 PUSH2 0x6A7D JUMP JUMPDEST PUSH2 0x80B1 PUSH1 0x20 DUP4 ADD DUP7 PUSH2 0x6A7D JUMP JUMPDEST PUSH2 0x80BE PUSH1 0x40 DUP4 ADD DUP6 PUSH2 0x6A45 JUMP JUMPDEST DUP2 DUP2 SUB PUSH1 0x60 DUP4 ADD MSTORE PUSH2 0x80D0 DUP2 DUP5 PUSH2 0x68BC JUMP JUMPDEST SWAP1 POP SWAP6 SWAP5 POP POP POP POP POP JUMP JUMPDEST PUSH1 0x0 DUP2 SLOAD SWAP1 POP SWAP2 SWAP1 POP JUMP JUMPDEST PUSH1 0x0 DUP3 DUP3 MSTORE PUSH1 0x20 DUP3 ADD SWAP1 POP SWAP3 SWAP2 POP POP JUMP JUMPDEST PUSH1 0x0 DUP2 SWAP1 POP DUP2 PUSH1 0x0 MSTORE PUSH1 0x20 PUSH1 0x0 KECCAK256 SWAP1 POP SWAP2 SWAP1 POP JUMP JUMPDEST PUSH1 0x0 DUP2 PUSH1 0x0 SHR SWAP1 POP SWAP2 SWAP1 POP JUMP JUMPDEST PUSH1 0x0 PUSH20 0xFFFFFFFFFFFFFFFFFFFFFFFFFFFFFFFFFFFFFFFF DUP3 AND SWAP1 POP SWAP2 SWAP1 POP JUMP JUMPDEST PUSH1 0x0 PUSH2 0x814C PUSH2 0x8147 DUP4 PUSH2 0x810C JUMP JUMPDEST PUSH2 0x8119 JUMP JUMPDEST SWAP1 POP SWAP2 SWAP1 POP JUMP JUMPDEST PUSH1 0x0 PUSH2 0x815F DUP3 SLOAD PUSH2 0x8139 JUMP JUMPDEST SWAP1 POP SWAP2 SWAP1 POP JUMP JUMPDEST PUSH1 0x0 PUSH1 0x1 DUP3 ADD SWAP1 POP SWAP2 SWAP1 POP JUMP JUMPDEST PUSH1 0x0 PUSH2 0x817E DUP3 PUSH2 0x80DB JUMP JUMPDEST PUSH2 0x8188 DUP2 DUP6 PUSH2 0x80E6 JUMP JUMPDEST SWAP4 POP PUSH2 0x8193 DUP4 PUSH2 0x80F7 JUMP JUMPDEST DUP1 PUSH1 0x0 JUMPDEST DUP4 DUP2 LT ISZERO PUSH2 0x81CB JUMPI PUSH2 0x81A8 DUP3 PUSH2 0x8153 JUMP JUMPDEST PUSH2 0x81B2 DUP9 DUP3 PUSH2 0x6AF1 JUMP JUMPDEST SWAP8 POP PUSH2 0x81BD DUP4 PUSH2 0x8166 JUMP JUMPDEST SWAP3 POP POP PUSH1 0x1 DUP2 ADD SWAP1 POP PUSH2 0x8197 JUMP JUMPDEST POP DUP6 SWAP4 POP POP POP POP SWAP3 SWAP2 POP POP JUMP JUMPDEST PUSH1 0x0 DUP3 DUP3 MSTORE PUSH1 0x20 DUP3 ADD SWAP1 POP SWAP3 SWAP2 POP POP JUMP JUMPDEST PUSH1 0x0 PUSH2 0x81F4 DUP3 PUSH2 0x6B74 JUMP JUMPDEST PUSH2 0x81FE DUP2 DUP6 PUSH2 0x81D8 JUMP JUMPDEST SWAP4 POP PUSH2 0x8209 DUP4 PUSH2 0x6B90 JUMP JUMPDEST DUP1 PUSH1 0x0 JUMPDEST DUP4 DUP2 LT ISZERO PUSH2 0x823A JUMPI DUP2 MLOAD PUSH2 0x8221 DUP9 DUP3 PUSH2 0x6BAF JUMP JUMPDEST SWAP8 POP PUSH2 0x822C DUP4 PUSH2 0x6BC7 JUMP JUMPDEST SWAP3 POP POP PUSH1 0x1 DUP2 ADD SWAP1 POP PUSH2 0x820D JUMP JUMPDEST POP DUP6 SWAP4 POP POP POP POP SWAP3 SWAP2 POP POP JUMP JUMPDEST PUSH1 0x0 PUSH2 0x120 DUP3 ADD SWAP1 POP PUSH2 0x825D PUSH1 0x0 DUP4 ADD DUP13 PUSH2 0x6EA5 JUMP JUMPDEST PUSH2 0x826A PUSH1 0x20 DUP4 ADD DUP12 PUSH2 0x6986 JUMP JUMPDEST PUSH2 0x8277 PUSH1 0x40 DUP4 ADD DUP11 PUSH2 0x6986 JUMP JUMPDEST DUP2 DUP2 SUB PUSH1 0x60 DUP4 ADD MSTORE PUSH2 0x8289 DUP2 DUP10 PUSH2 0x8173 JUMP JUMPDEST SWAP1 POP DUP2 DUP2 SUB PUSH1 0x80 DUP4 ADD MSTORE PUSH2 0x829D DUP2 DUP9 PUSH2 0x81E9 JUMP JUMPDEST SWAP1 POP PUSH2 0x82AC PUSH1 0xA0 DUP4 ADD DUP8 PUSH2 0x6A45 JUMP JUMPDEST PUSH2 0x82B9 PUSH1 0xC0 DUP4 ADD DUP7 PUSH2 0x6A45 JUMP JUMPDEST DUP2 DUP2 SUB PUSH1 0xE0 DUP4 ADD MSTORE PUSH2 0x82CB DUP2 DUP6 PUSH2 0x81E9 JUMP JUMPDEST SWAP1 POP PUSH2 0x82DB PUSH2 0x100 DUP4 ADD DUP5 PUSH2 0x6A45 JUMP JUMPDEST SWAP11 SWAP10 POP POP POP POP POP POP POP POP POP POP JUMP JUMPDEST PUSH1 0x0 DUP2 SWAP1 POP DUP2 PUSH1 0x0 MSTORE PUSH1 0x20 PUSH1 0x0 KECCAK256 SWAP1 POP SWAP2 SWAP1 POP JUMP JUMPDEST PUSH1 0x0 DUP2 SLOAD PUSH2 0x830B DUP2 PUSH2 0x7E3C JUMP JUMPDEST PUSH2 0x8315 DUP2 DUP7 PUSH2 0x6870 JUMP JUMPDEST SWAP5 POP PUSH1 0x1 DUP3 AND PUSH1 0x0 DUP2 EQ PUSH2 0x8330 JUMPI PUSH1 0x1 DUP2 EQ PUSH2 0x8346 JUMPI PUSH2 0x8379 JUMP JUMPDEST PUSH1 0xFF NOT DUP4 AND DUP7 MSTORE DUP2 ISZERO ISZERO PUSH1 0x20 MUL DUP7 ADD SWAP4 POP PUSH2 0x8379 JUMP JUMPDEST PUSH2 0x834F DUP6 PUSH2 0x82E9 JUMP JUMPDEST PUSH1 0x0 JUMPDEST DUP4 DUP2 LT ISZERO PUSH2 0x8371 JUMPI DUP2 SLOAD DUP2 DUP10 ADD MSTORE PUSH1 0x1 DUP3 ADD SWAP2 POP PUSH1 0x20 DUP2 ADD SWAP1 POP PUSH2 0x8352 JUMP JUMPDEST DUP1 DUP9 ADD SWAP6 POP POP POP JUMPDEST POP POP POP SWAP3 SWAP2 POP POP JUMP JUMPDEST PUSH1 0x0 PUSH1 0xA0 DUP3 ADD SWAP1 POP PUSH2 0x8397 PUSH1 0x0 DUP4 ADD DUP9 PUSH2 0x6A7D JUMP JUMPDEST PUSH2 0x83A4 PUSH1 0x20 DUP4 ADD DUP8 PUSH2 0x6EA5 JUMP JUMPDEST DUP2 DUP2 SUB PUSH1 0x40 DUP4 ADD MSTORE PUSH2 0x83B6 DUP2 DUP7 PUSH2 0x68BC JUMP JUMPDEST SWAP1 POP PUSH2 0x83C5 PUSH1 0x60 DUP4 ADD DUP6 PUSH2 0x6DA2 JUMP JUMPDEST DUP2 DUP2 SUB PUSH1 0x80 DUP4 ADD MSTORE PUSH2 0x83D7 DUP2 DUP5 PUSH2 0x82FE JUMP JUMPDEST SWAP1 POP SWAP7 SWAP6 POP POP POP POP POP POP JUMP JUMPDEST PUSH1 0x0 DUP2 MLOAD SWAP1 POP PUSH2 0x83F2 DUP2 PUSH2 0x6E4C JUMP JUMPDEST SWAP3 SWAP2 POP POP JUMP JUMPDEST PUSH1 0x0 DUP1 PUSH1 0x40 DUP4 DUP6 SUB SLT ISZERO PUSH2 0x840F JUMPI PUSH2 0x840E PUSH2 0x66A8 JUMP JUMPDEST JUMPDEST PUSH1 0x0 PUSH2 0x841D DUP6 DUP3 DUP7 ADD PUSH2 0x83E3 JUMP JUMPDEST SWAP3 POP POP PUSH1 0x20 PUSH2 0x842E DUP6 DUP3 DUP7 ADD PUSH2 0x83E3 JUMP JUMPDEST SWAP2 POP POP SWAP3 POP SWAP3 SWAP1 POP JUMP JUMPDEST PUSH32 0x4E6F6E626C6F636B696E674C7A4170703A2063616C6C6572206D757374206265 PUSH1 0x0 DUP3 ADD MSTORE PUSH32 0x204C7A4170700000000000000000000000000000000000000000000000000000 PUSH1 0x20 DUP3 ADD MSTORE POP JUMP JUMPDEST PUSH1 0x0 PUSH2 0x8494 PUSH1 0x26 DUP4 PUSH2 0x7D90 JUMP JUMPDEST SWAP2 POP PUSH2 0x849F DUP3 PUSH2 0x8438 JUMP JUMPDEST PUSH1 0x40 DUP3 ADD SWAP1 POP SWAP2 SWAP1 POP JUMP JUMPDEST PUSH1 0x0 PUSH1 0x20 DUP3 ADD SWAP1 POP DUP2 DUP2 SUB PUSH1 0x0 DUP4 ADD MSTORE PUSH2 0x84C3 DUP2 PUSH2 0x8487 JUMP JUMPDEST SWAP1 POP SWAP2 SWAP1 POP JUMP JUMPDEST PUSH1 0x0 DUP2 PUSH1 0xF0 SHL SWAP1 POP SWAP2 SWAP1 POP JUMP JUMPDEST PUSH1 0x0 PUSH2 0x84E2 DUP3 PUSH2 0x84CA JUMP JUMPDEST SWAP1 POP SWAP2 SWAP1 POP JUMP JUMPDEST PUSH2 0x84FA PUSH2 0x84F5 DUP3 PUSH2 0x66B2 JUMP JUMPDEST PUSH2 0x84D7 JUMP JUMPDEST DUP3 MSTORE POP POP JUMP JUMPDEST PUSH1 0x0 DUP2 SWAP1 POP SWAP2 SWAP1 POP JUMP JUMPDEST PUSH2 0x851B PUSH2 0x8516 DUP3 PUSH2 0x6A3B JUMP JUMPDEST PUSH2 0x8500 JUMP JUMPDEST DUP3 MSTORE POP POP JUMP JUMPDEST PUSH1 0x0 PUSH2 0x852D DUP3 DUP6 PUSH2 0x84E9 JUMP JUMPDEST PUSH1 0x2 DUP3 ADD SWAP2 POP PUSH2 0x853D DUP3 DUP5 PUSH2 0x850A JUMP JUMPDEST PUSH1 0x20 DUP3 ADD SWAP2 POP DUP2 SWAP1 POP SWAP4 SWAP3 POP POP POP JUMP JUMPDEST PUSH1 0x0 PUSH1 0x20 PUSH1 0x1F DUP4 ADD DIV SWAP1 POP SWAP2 SWAP1 POP JUMP JUMPDEST PUSH1 0x0 DUP3 DUP3 SHL SWAP1 POP SWAP3 SWAP2 POP POP JUMP JUMPDEST PUSH1 0x0 PUSH1 0x8 DUP4 MUL PUSH2 0x859A PUSH32 0xFFFFFFFFFFFFFFFFFFFFFFFFFFFFFFFFFFFFFFFFFFFFFFFFFFFFFFFFFFFFFFFF DUP3 PUSH2 0x855D JUMP JUMPDEST PUSH2 0x85A4 DUP7 DUP4 PUSH2 0x855D JUMP JUMPDEST SWAP6 POP DUP1 NOT DUP5 AND SWAP4 POP DUP1 DUP7 AND DUP5 OR SWAP3 POP POP POP SWAP4 SWAP3 POP POP POP JUMP JUMPDEST PUSH1 0x0 PUSH2 0x85D7 PUSH2 0x85D2 PUSH2 0x85CD DUP5 PUSH2 0x6A3B JUMP JUMPDEST PUSH2 0x79D1 JUMP JUMPDEST PUSH2 0x6A3B JUMP JUMPDEST SWAP1 POP SWAP2 SWAP1 POP JUMP JUMPDEST PUSH1 0x0 DUP2 SWAP1 POP SWAP2 SWAP1 POP JUMP JUMPDEST PUSH2 0x85F1 DUP4 PUSH2 0x85BC JUMP JUMPDEST PUSH2 0x8605 PUSH2 0x85FD DUP3 PUSH2 0x85DE JUMP JUMPDEST DUP5 DUP5 SLOAD PUSH2 0x856A JUMP JUMPDEST DUP3 SSTORE POP POP POP POP JUMP JUMPDEST PUSH1 0x0 SWAP1 JUMP JUMPDEST PUSH2 0x861A PUSH2 0x860D JUMP JUMPDEST PUSH2 0x8625 DUP2 DUP5 DUP5 PUSH2 0x85E8 JUMP JUMPDEST POP POP POP JUMP JUMPDEST JUMPDEST DUP2 DUP2 LT ISZERO PUSH2 0x8649 JUMPI PUSH2 0x863E PUSH1 0x0 DUP3 PUSH2 0x8612 JUMP JUMPDEST PUSH1 0x1 DUP2 ADD SWAP1 POP PUSH2 0x862B JUMP JUMPDEST POP POP JUMP JUMPDEST PUSH1 0x1F DUP3 GT ISZERO PUSH2 0x868E JUMPI PUSH2 0x865F DUP2 PUSH2 0x82E9 JUMP JUMPDEST PUSH2 0x8668 DUP5 PUSH2 0x854D JUMP JUMPDEST DUP2 ADD PUSH1 0x20 DUP6 LT ISZERO PUSH2 0x8677 JUMPI DUP2 SWAP1 POP JUMPDEST PUSH2 0x868B PUSH2 0x8683 DUP6 PUSH2 0x854D JUMP JUMPDEST DUP4 ADD DUP3 PUSH2 0x862A JUMP JUMPDEST POP POP JUMPDEST POP POP POP JUMP JUMPDEST PUSH1 0x0 DUP3 DUP3 SHR SWAP1 POP SWAP3 SWAP2 POP POP JUMP JUMPDEST PUSH1 0x0 PUSH2 0x86B1 PUSH1 0x0 NOT DUP5 PUSH1 0x8 MUL PUSH2 0x8693 JUMP JUMPDEST NOT DUP1 DUP4 AND SWAP2 POP POP SWAP3 SWAP2 POP POP JUMP JUMPDEST PUSH1 0x0 PUSH2 0x86CA DUP4 DUP4 PUSH2 0x86A0 JUMP JUMPDEST SWAP2 POP DUP3 PUSH1 0x2 MUL DUP3 OR SWAP1 POP SWAP3 SWAP2 POP POP JUMP JUMPDEST PUSH2 0x86E3 DUP3 PUSH2 0x6865 JUMP JUMPDEST PUSH8 0xFFFFFFFFFFFFFFFF DUP2 GT ISZERO PUSH2 0x86FC JUMPI PUSH2 0x86FB PUSH2 0x6ED4 JUMP JUMPDEST JUMPDEST PUSH2 0x8706 DUP3 SLOAD PUSH2 0x7E3C JUMP JUMPDEST PUSH2 0x8711 DUP3 DUP3 DUP6 PUSH2 0x864D JUMP JUMPDEST PUSH1 0x0 PUSH1 0x20 SWAP1 POP PUSH1 0x1F DUP4 GT PUSH1 0x1 DUP2 EQ PUSH2 0x8744 JUMPI PUSH1 0x0 DUP5 ISZERO PUSH2 0x8732 JUMPI DUP3 DUP8 ADD MLOAD SWAP1 POP JUMPDEST PUSH2 0x873C DUP6 DUP3 PUSH2 0x86BE JUMP JUMPDEST DUP7 SSTORE POP PUSH2 0x87A4 JUMP JUMPDEST PUSH1 0x1F NOT DUP5 AND PUSH2 0x8752 DUP7 PUSH2 0x82E9 JUMP JUMPDEST PUSH1 0x0 JUMPDEST DUP3 DUP2 LT ISZERO PUSH2 0x877A JUMPI DUP5 DUP10 ADD MLOAD DUP3 SSTORE PUSH1 0x1 DUP3 ADD SWAP2 POP PUSH1 0x20 DUP6 ADD SWAP5 POP PUSH1 0x20 DUP2 ADD SWAP1 POP PUSH2 0x8755 JUMP JUMPDEST DUP7 DUP4 LT ISZERO PUSH2 0x8797 JUMPI DUP5 DUP10 ADD MLOAD PUSH2 0x8793 PUSH1 0x1F DUP10 AND DUP3 PUSH2 0x86A0 JUMP JUMPDEST DUP4 SSTORE POP JUMPDEST PUSH1 0x1 PUSH1 0x2 DUP9 MUL ADD DUP9 SSTORE POP POP POP JUMPDEST POP POP POP POP POP POP JUMP JUMPDEST PUSH32 0x4F6E6C79206E6F64652063616E2063616C6C20746869732E0000000000000000 PUSH1 0x0 DUP3 ADD MSTORE POP JUMP JUMPDEST PUSH1 0x0 PUSH2 0x87E2 PUSH1 0x18 DUP4 PUSH2 0x7D90 JUMP JUMPDEST SWAP2 POP PUSH2 0x87ED DUP3 PUSH2 0x87AC JUMP JUMPDEST PUSH1 0x20 DUP3 ADD SWAP1 POP SWAP2 SWAP1 POP JUMP JUMPDEST PUSH1 0x0 PUSH1 0x20 DUP3 ADD SWAP1 POP DUP2 DUP2 SUB PUSH1 0x0 DUP4 ADD MSTORE PUSH2 0x8811 DUP2 PUSH2 0x87D5 JUMP JUMPDEST SWAP1 POP SWAP2 SWAP1 POP JUMP JUMPDEST PUSH2 0x8821 DUP2 PUSH2 0x697C JUMP JUMPDEST DUP3 MSTORE POP POP JUMP JUMPDEST PUSH1 0x0 DUP3 DUP3 MSTORE PUSH1 0x20 DUP3 ADD SWAP1 POP SWAP3 SWAP2 POP POP JUMP JUMPDEST PUSH1 0x0 PUSH2 0x8843 DUP3 PUSH2 0x6865 JUMP JUMPDEST PUSH2 0x884D DUP2 DUP6 PUSH2 0x8827 JUMP JUMPDEST SWAP4 POP PUSH2 0x885D DUP2 DUP6 PUSH1 0x20 DUP7 ADD PUSH2 0x6881 JUMP JUMPDEST PUSH2 0x8866 DUP2 PUSH2 0x68AB JUMP JUMPDEST DUP5 ADD SWAP2 POP POP SWAP3 SWAP2 POP POP JUMP JUMPDEST PUSH1 0x0 PUSH1 0x40 DUP3 ADD SWAP1 POP PUSH2 0x8886 PUSH1 0x0 DUP4 ADD DUP6 PUSH2 0x8818 JUMP JUMPDEST DUP2 DUP2 SUB PUSH1 0x20 DUP4 ADD MSTORE PUSH2 0x8898 DUP2 DUP5 PUSH2 0x8838 JUMP JUMPDEST SWAP1 POP SWAP4 SWAP3 POP POP POP JUMP JUMPDEST PUSH1 0x0 DUP2 MLOAD SWAP1 POP PUSH2 0x88B0 DUP2 PUSH2 0x69E2 JUMP JUMPDEST SWAP3 SWAP2 POP POP JUMP JUMPDEST PUSH1 0x0 PUSH1 0x20 DUP3 DUP5 SUB SLT ISZERO PUSH2 0x88CC JUMPI PUSH2 0x88CB PUSH2 0x66A8 JUMP JUMPDEST JUMPDEST PUSH1 0x0 PUSH2 0x88DA DUP5 DUP3 DUP6 ADD PUSH2 0x88A1 JUMP JUMPDEST SWAP2 POP POP SWAP3 SWAP2 POP POP JUMP JUMPDEST PUSH32 0x546865207369676E6572206973206E6F742061206E6F64650000000000000000 PUSH1 0x0 DUP3 ADD MSTORE POP JUMP JUMPDEST PUSH1 0x0 PUSH2 0x8919 PUSH1 0x18 DUP4 PUSH2 0x7D90 JUMP JUMPDEST SWAP2 POP PUSH2 0x8924 DUP3 PUSH2 0x88E3 JUMP JUMPDEST PUSH1 0x20 DUP3 ADD SWAP1 POP SWAP2 SWAP1 POP JUMP JUMPDEST PUSH1 0x0 PUSH1 0x20 DUP3 ADD SWAP1 POP DUP2 DUP2 SUB PUSH1 0x0 DUP4 ADD MSTORE PUSH2 0x8948 DUP2 PUSH2 0x890C JUMP JUMPDEST SWAP1 POP SWAP2 SWAP1 POP JUMP JUMPDEST PUSH32 0x436C6F73696E6700000000000000000000000000000000000000000000000000 PUSH1 0x0 DUP3 ADD MSTORE POP JUMP JUMPDEST PUSH1 0x0 PUSH2 0x8985 PUSH1 0x7 DUP4 PUSH2 0x7D90 JUMP JUMPDEST SWAP2 POP PUSH2 0x8990 DUP3 PUSH2 0x894F JUMP JUMPDEST PUSH1 0x20 DUP3 ADD SWAP1 POP SWAP2 SWAP1 POP JUMP JUMPDEST PUSH1 0x0 PUSH1 0x20 DUP3 ADD SWAP1 POP DUP2 DUP2 SUB PUSH1 0x0 DUP4 ADD MSTORE PUSH2 0x89B4 DUP2 PUSH2 0x8978 JUMP JUMPDEST SWAP1 POP SWAP2 SWAP1 POP JUMP JUMPDEST PUSH1 0x0 DUP3 DUP3 MSTORE PUSH1 0x20 DUP3 ADD SWAP1 POP SWAP3 SWAP2 POP POP JUMP JUMPDEST PUSH1 0x0 PUSH2 0x89D7 DUP3 PUSH2 0x6865 JUMP JUMPDEST PUSH2 0x89E1 DUP2 DUP6 PUSH2 0x89BB JUMP JUMPDEST SWAP4 POP PUSH2 0x89F1 DUP2 DUP6 PUSH1 0x20 DUP7 ADD PUSH2 0x6881 JUMP JUMPDEST PUSH2 0x89FA DUP2 PUSH2 0x68AB JUMP JUMPDEST DUP5 ADD SWAP2 POP POP SWAP3 SWAP2 POP POP JUMP JUMPDEST PUSH1 0x0 PUSH2 0x160 DUP4 ADD PUSH1 0x0 DUP4 ADD MLOAD PUSH2 0x8A1E PUSH1 0x0 DUP7 ADD DUP3 PUSH2 0x6AA7 JUMP JUMPDEST POP PUSH1 0x20 DUP4 ADD MLOAD PUSH2 0x8A31 PUSH1 0x20 DUP7 ADD DUP3 PUSH2 0x6AB6 JUMP JUMPDEST POP PUSH1 0x40 DUP4 ADD MLOAD PUSH2 0x8A44 PUSH1 0x40 DUP7 ADD DUP3 PUSH2 0x6AB6 JUMP JUMPDEST POP PUSH1 0x60 DUP4 ADD MLOAD DUP5 DUP3 SUB PUSH1 0x60 DUP7 ADD MSTORE PUSH2 0x8A5C DUP3 DUP3 PUSH2 0x6B16 JUMP JUMPDEST SWAP2 POP POP PUSH1 0x80 DUP4 ADD MLOAD DUP5 DUP3 SUB PUSH1 0x80 DUP7 ADD MSTORE PUSH2 0x8A76 DUP3 DUP3 PUSH2 0x6BD4 JUMP JUMPDEST SWAP2 POP POP PUSH1 0xA0 DUP4 ADD MLOAD PUSH2 0x8A8B PUSH1 0xA0 DUP7 ADD DUP3 PUSH2 0x6BA0 JUMP JUMPDEST POP PUSH1 0xC0 DUP4 ADD MLOAD PUSH2 0x8A9E PUSH1 0xC0 DUP7 ADD DUP3 PUSH2 0x6BA0 JUMP JUMPDEST POP PUSH1 0xE0 DUP4 ADD MLOAD DUP5 DUP3 SUB PUSH1 0xE0 DUP7 ADD MSTORE PUSH2 0x8AB6 DUP3 DUP3 PUSH2 0x6BD4 JUMP JUMPDEST SWAP2 POP POP PUSH2 0x100 DUP4 ADD MLOAD PUSH2 0x8ACD PUSH2 0x100 DUP7 ADD DUP3 PUSH2 0x6BA0 JUMP JUMPDEST POP PUSH2 0x120 DUP4 ADD MLOAD PUSH2 0x8AE2 PUSH2 0x120 DUP7 ADD DUP3 PUSH2 0x6AB6 JUMP JUMPDEST POP PUSH2 0x140 DUP4 ADD MLOAD DUP5 DUP3 SUB PUSH2 0x140 DUP7 ADD MSTORE PUSH2 0x8AFC DUP3 DUP3 PUSH2 0x89CC JUMP JUMPDEST SWAP2 POP POP DUP1 SWAP2 POP POP SWAP3 SWAP2 POP POP JUMP JUMPDEST PUSH1 0x0 PUSH1 0x20 DUP3 ADD SWAP1 POP DUP2 DUP2 SUB PUSH1 0x0 DUP4 ADD MSTORE PUSH2 0x8B23 DUP2 DUP5 PUSH2 0x8A05 JUMP JUMPDEST SWAP1 POP SWAP3 SWAP2 POP POP JUMP JUMPDEST PUSH32 0x4C7A4170703A206E6F20747275737465642070617468207265636F7264000000 PUSH1 0x0 DUP3 ADD MSTORE POP JUMP JUMPDEST PUSH1 0x0 PUSH2 0x8B61 PUSH1 0x1D DUP4 PUSH2 0x7D90 JUMP JUMPDEST SWAP2 POP PUSH2 0x8B6C DUP3 PUSH2 0x8B2B JUMP JUMPDEST PUSH1 0x20 DUP3 ADD SWAP1 POP SWAP2 SWAP1 POP JUMP JUMPDEST PUSH1 0x0 PUSH1 0x20 DUP3 ADD SWAP1 POP DUP2 DUP2 SUB PUSH1 0x0 DUP4 ADD MSTORE PUSH2 0x8B90 DUP2 PUSH2 0x8B54 JUMP JUMPDEST SWAP1 POP SWAP2 SWAP1 POP JUMP JUMPDEST PUSH1 0x0 PUSH2 0x8BA2 DUP3 PUSH2 0x6A3B JUMP JUMPDEST SWAP2 POP PUSH2 0x8BAD DUP4 PUSH2 0x6A3B JUMP JUMPDEST SWAP3 POP DUP3 DUP3 SUB SWAP1 POP DUP2 DUP2 GT ISZERO PUSH2 0x8BC5 JUMPI PUSH2 0x8BC4 PUSH2 0x7F77 JUMP JUMPDEST JUMPDEST SWAP3 SWAP2 POP POP JUMP JUMPDEST PUSH1 0x0 DUP2 PUSH1 0x60 SHL SWAP1 POP SWAP2 SWAP1 POP JUMP JUMPDEST PUSH1 0x0 PUSH2 0x8BE3 DUP3 PUSH2 0x8BCB JUMP JUMPDEST SWAP1 POP SWAP2 SWAP1 POP JUMP JUMPDEST PUSH1 0x0 PUSH2 0x8BF5 DUP3 PUSH2 0x8BD8 JUMP JUMPDEST SWAP1 POP SWAP2 SWAP1 POP JUMP JUMPDEST PUSH2 0x8C0D PUSH2 0x8C08 DUP3 PUSH2 0x69D0 JUMP JUMPDEST PUSH2 0x8BEA JUMP JUMPDEST DUP3 MSTORE POP POP JUMP JUMPDEST PUSH1 0x0 PUSH2 0x8C20 DUP3 DUP6 DUP8 PUSH2 0x7E78 JUMP JUMPDEST SWAP2 POP PUSH2 0x8C2C DUP3 DUP5 PUSH2 0x8BFC JUMP JUMPDEST PUSH1 0x14 DUP3 ADD SWAP2 POP DUP2 SWAP1 POP SWAP5 SWAP4 POP POP POP POP JUMP JUMPDEST PUSH32 0x546865207369676E6572206973206E6F74207573657200000000000000000000 PUSH1 0x0 DUP3 ADD MSTORE POP JUMP JUMPDEST PUSH1 0x0 PUSH2 0x8C73 PUSH1 0x16 DUP4 PUSH2 0x7D90 JUMP JUMPDEST SWAP2 POP PUSH2 0x8C7E DUP3 PUSH2 0x8C3D JUMP JUMPDEST PUSH1 0x20 DUP3 ADD SWAP1 POP SWAP2 SWAP1 POP JUMP JUMPDEST PUSH1 0x0 PUSH1 0x20 DUP3 ADD SWAP1 POP DUP2 DUP2 SUB PUSH1 0x0 DUP4 ADD MSTORE PUSH2 0x8CA2 DUP2 PUSH2 0x8C66 JUMP JUMPDEST SWAP1 POP SWAP2 SWAP1 POP JUMP JUMPDEST PUSH1 0x0 PUSH2 0x8CB4 DUP3 PUSH2 0x6A3B JUMP JUMPDEST SWAP2 POP PUSH2 0x8CBF DUP4 PUSH2 0x6A3B JUMP JUMPDEST SWAP3 POP DUP3 DUP3 ADD SWAP1 POP DUP1 DUP3 GT ISZERO PUSH2 0x8CD7 JUMPI PUSH2 0x8CD6 PUSH2 0x7F77 JUMP JUMPDEST JUMPDEST SWAP3 SWAP2 POP POP JUMP JUMPDEST PUSH32 0x77697468686F6C64696E673A20496E73756666696369656E742077697468686F PUSH1 0x0 DUP3 ADD MSTORE PUSH32 0x6C64696E67206F66206361706974616C206163636F756E740000000000000000 PUSH1 0x20 DUP3 ADD MSTORE POP JUMP JUMPDEST PUSH1 0x0 PUSH2 0x8D39 PUSH1 0x38 DUP4 PUSH2 0x7D90 JUMP JUMPDEST SWAP2 POP PUSH2 0x8D44 DUP3 PUSH2 0x8CDD JUMP JUMPDEST PUSH1 0x40 DUP3 ADD SWAP1 POP SWAP2 SWAP1 POP JUMP JUMPDEST PUSH1 0x0 PUSH1 0x20 DUP3 ADD SWAP1 POP DUP2 DUP2 SUB PUSH1 0x0 DUP4 ADD MSTORE PUSH2 0x8D68 DUP2 PUSH2 0x8D2C JUMP JUMPDEST SWAP1 POP SWAP2 SWAP1 POP JUMP JUMPDEST PUSH32 0x77697468686F6C64696E673A20496E73756666696369656E742077697468686F PUSH1 0x0 DUP3 ADD MSTORE PUSH32 0x6C64696E67206F66207472616465206163636F756E7400000000000000000000 PUSH1 0x20 DUP3 ADD MSTORE POP JUMP JUMPDEST PUSH1 0x0 PUSH2 0x8DCB PUSH1 0x36 DUP4 PUSH2 0x7D90 JUMP JUMPDEST SWAP2 POP PUSH2 0x8DD6 DUP3 PUSH2 0x8D6F JUMP JUMPDEST PUSH1 0x40 DUP3 ADD SWAP1 POP SWAP2 SWAP1 POP JUMP JUMPDEST PUSH1 0x0 PUSH1 0x20 DUP3 ADD SWAP1 POP DUP2 DUP2 SUB PUSH1 0x0 DUP4 ADD MSTORE PUSH2 0x8DFA DUP2 PUSH2 0x8DBE JUMP JUMPDEST SWAP1 POP SWAP2 SWAP1 POP JUMP JUMPDEST PUSH1 0x0 PUSH2 0x8E0C DUP3 PUSH2 0x6AC5 JUMP JUMPDEST PUSH2 0x8E16 DUP2 DUP6 PUSH2 0x80E6 JUMP JUMPDEST SWAP4 POP PUSH2 0x8E21 DUP4 PUSH2 0x6AE1 JUMP JUMPDEST DUP1 PUSH1 0x0 JUMPDEST DUP4 DUP2 LT ISZERO PUSH2 0x8E52 JUMPI DUP2 MLOAD PUSH2 0x8E39 DUP9 DUP3 PUSH2 0x6AF1 JUMP JUMPDEST SWAP8 POP PUSH2 0x8E44 DUP4 PUSH2 0x6B09 JUMP JUMPDEST SWAP3 POP POP PUSH1 0x1 DUP2 ADD SWAP1 POP PUSH2 0x8E25 JUMP JUMPDEST POP DUP6 SWAP4 POP POP POP POP SWAP3 SWAP2 POP POP JUMP JUMPDEST PUSH1 0x0 PUSH1 0x80 DUP3 ADD SWAP1 POP DUP2 DUP2 SUB PUSH1 0x0 DUP4 ADD MSTORE PUSH2 0x8E79 DUP2 DUP8 PUSH2 0x8E01 JUMP JUMPDEST SWAP1 POP DUP2 DUP2 SUB PUSH1 0x20 DUP4 ADD MSTORE PUSH2 0x8E8D DUP2 DUP7 PUSH2 0x81E9 JUMP JUMPDEST SWAP1 POP PUSH2 0x8E9C PUSH1 0x40 DUP4 ADD DUP6 PUSH2 0x6DA2 JUMP JUMPDEST PUSH2 0x8EA9 PUSH1 0x60 DUP4 ADD DUP5 PUSH2 0x6EA5 JUMP JUMPDEST SWAP6 SWAP5 POP POP POP POP POP JUMP JUMPDEST PUSH1 0x0 PUSH1 0x80 DUP3 ADD SWAP1 POP PUSH2 0x8EC7 PUSH1 0x0 DUP4 ADD DUP9 PUSH2 0x6A7D JUMP JUMPDEST PUSH2 0x8ED4 PUSH1 0x20 DUP4 ADD DUP8 PUSH2 0x6A7D JUMP JUMPDEST PUSH2 0x8EE1 PUSH1 0x40 DUP4 ADD DUP7 PUSH2 0x6A45 JUMP JUMPDEST DUP2 DUP2 SUB PUSH1 0x60 DUP4 ADD MSTORE PUSH2 0x8EF4 DUP2 DUP5 DUP7 PUSH2 0x7FEE JUMP JUMPDEST SWAP1 POP SWAP7 SWAP6 POP POP POP POP POP POP JUMP JUMPDEST PUSH32 0x4E6F6E626C6F636B696E674C7A4170703A206E6F2073746F726564206D657373 PUSH1 0x0 DUP3 ADD MSTORE PUSH32 0x6167650000000000000000000000000000000000000000000000000000000000 PUSH1 0x20 DUP3 ADD MSTORE POP JUMP JUMPDEST PUSH1 0x0 PUSH2 0x8F5C PUSH1 0x23 DUP4 PUSH2 0x7D90 JUMP JUMPDEST SWAP2 POP PUSH2 0x8F67 DUP3 PUSH2 0x8F00 JUMP JUMPDEST PUSH1 0x40 DUP3 ADD SWAP1 POP SWAP2 SWAP1 POP JUMP JUMPDEST PUSH1 0x0 PUSH1 0x20 DUP3 ADD SWAP1 POP DUP2 DUP2 SUB PUSH1 0x0 DUP4 ADD MSTORE PUSH2 0x8F8B DUP2 PUSH2 0x8F4F JUMP JUMPDEST SWAP1 POP SWAP2 SWAP1 POP JUMP JUMPDEST PUSH32 0x4E6F6E626C6F636B696E674C7A4170703A20696E76616C6964207061796C6F61 PUSH1 0x0 DUP3 ADD MSTORE PUSH32 0x6400000000000000000000000000000000000000000000000000000000000000 PUSH1 0x20 DUP3 ADD MSTORE POP JUMP JUMPDEST PUSH1 0x0 PUSH2 0x8FEE PUSH1 0x21 DUP4 PUSH2 0x7D90 JUMP JUMPDEST SWAP2 POP PUSH2 0x8FF9 DUP3 PUSH2 0x8F92 JUMP JUMPDEST PUSH1 0x40 DUP3 ADD SWAP1 POP SWAP2 SWAP1 POP JUMP JUMPDEST PUSH1 0x0 PUSH1 0x20 DUP3 ADD SWAP1 POP DUP2 DUP2 SUB PUSH1 0x0 DUP4 ADD MSTORE PUSH2 0x901D DUP2 PUSH2 0x8FE1 JUMP JUMPDEST SWAP1 POP SWAP2 SWAP1 POP JUMP JUMPDEST PUSH2 0x902D DUP2 PUSH2 0x6751 JUMP JUMPDEST DUP3 MSTORE POP POP JUMP JUMPDEST PUSH1 0x0 PUSH1 0x80 DUP3 ADD SWAP1 POP PUSH2 0x9048 PUSH1 0x0 DUP4 ADD DUP9 PUSH2 0x6A7D JUMP JUMPDEST DUP2 DUP2 SUB PUSH1 0x20 DUP4 ADD MSTORE PUSH2 0x905B DUP2 DUP7 DUP9 PUSH2 0x7FEE JUMP JUMPDEST SWAP1 POP PUSH2 0x906A PUSH1 0x40 DUP4 ADD DUP6 PUSH2 0x9024 JUMP JUMPDEST PUSH2 0x9077 PUSH1 0x60 DUP4 ADD DUP5 PUSH2 0x6986 JUMP JUMPDEST SWAP7 SWAP6 POP POP POP POP POP POP JUMP JUMPDEST PUSH32 0x4C7A4170703A20696E76616C6964206D696E4761730000000000000000000000 PUSH1 0x0 DUP3 ADD MSTORE POP JUMP JUMPDEST PUSH1 0x0 PUSH2 0x90B7 PUSH1 0x15 DUP4 PUSH2 0x7D90 JUMP JUMPDEST SWAP2 POP PUSH2 0x90C2 DUP3 PUSH2 0x9081 JUMP JUMPDEST PUSH1 0x20 DUP3 ADD SWAP1 POP SWAP2 SWAP1 POP JUMP JUMPDEST PUSH1 0x0 PUSH1 0x20 DUP3 ADD SWAP1 POP DUP2 DUP2 SUB PUSH1 0x0 DUP4 ADD MSTORE PUSH2 0x90E6 DUP2 PUSH2 0x90AA JUMP JUMPDEST SWAP1 POP SWAP2 SWAP1 POP JUMP JUMPDEST PUSH1 0x0 PUSH1 0x60 DUP3 ADD SWAP1 POP PUSH2 0x9102 PUSH1 0x0 DUP4 ADD DUP7 PUSH2 0x6A7D JUMP JUMPDEST PUSH2 0x910F PUSH1 0x20 DUP4 ADD DUP6 PUSH2 0x6A7D JUMP JUMPDEST PUSH2 0x911C PUSH1 0x40 DUP4 ADD DUP5 PUSH2 0x6A45 JUMP JUMPDEST SWAP5 SWAP4 POP POP POP POP JUMP JUMPDEST PUSH1 0x0 DUP2 SWAP1 POP SWAP2 SWAP1 POP JUMP JUMPDEST PUSH1 0x0 PUSH2 0x9149 PUSH2 0x9144 PUSH2 0x913F DUP5 PUSH2 0x9124 JUMP JUMPDEST PUSH2 0x79D1 JUMP JUMPDEST PUSH2 0x6A3B JUMP JUMPDEST SWAP1 POP SWAP2 SWAP1 POP JUMP JUMPDEST PUSH2 0x9159 DUP2 PUSH2 0x912E JUMP JUMPDEST DUP3 MSTORE POP POP JUMP JUMPDEST PUSH1 0x0 PUSH1 0x80 DUP3 ADD SWAP1 POP PUSH2 0x9174 PUSH1 0x0 DUP4 ADD DUP8 PUSH2 0x6A7D JUMP JUMPDEST PUSH2 0x9181 PUSH1 0x20 DUP4 ADD DUP7 PUSH2 0x6A7D JUMP JUMPDEST PUSH2 0x918E PUSH1 0x40 DUP4 ADD DUP6 PUSH2 0x6EA5 JUMP JUMPDEST PUSH2 0x919B PUSH1 0x60 DUP4 ADD DUP5 PUSH2 0x9150 JUMP JUMPDEST SWAP6 SWAP5 POP POP POP POP POP JUMP JUMPDEST PUSH1 0x0 PUSH2 0x91B7 PUSH2 0x91B2 DUP5 PUSH2 0x6F4F JUMP JUMPDEST PUSH2 0x6F34 JUMP JUMPDEST SWAP1 POP DUP3 DUP2 MSTORE PUSH1 0x20 DUP2 ADD DUP5 DUP5 DUP5 ADD GT ISZERO PUSH2 0x91D3 JUMPI PUSH2 0x91D2 PUSH2 0x6ECF JUMP JUMPDEST JUMPDEST PUSH2 0x91DE DUP5 DUP3 DUP6 PUSH2 0x6881 JUMP JUMPDEST POP SWAP4 SWAP3 POP POP POP JUMP JUMPDEST PUSH1 0x0 DUP3 PUSH1 0x1F DUP4 ADD SLT PUSH2 0x91FB JUMPI PUSH2 0x91FA PUSH2 0x66EC JUMP JUMPDEST JUMPDEST DUP2 MLOAD PUSH2 0x920B DUP5 DUP3 PUSH1 0x20 DUP7 ADD PUSH2 0x91A4 JUMP JUMPDEST SWAP2 POP POP SWAP3 SWAP2 POP POP JUMP JUMPDEST PUSH1 0x0 PUSH1 0x20 DUP3 DUP5 SUB SLT ISZERO PUSH2 0x922A JUMPI PUSH2 0x9229 PUSH2 0x66A8 JUMP JUMPDEST JUMPDEST PUSH1 0x0 DUP3 ADD MLOAD PUSH8 0xFFFFFFFFFFFFFFFF DUP2 GT ISZERO PUSH2 0x9248 JUMPI PUSH2 0x9247 PUSH2 0x66AD JUMP JUMPDEST JUMPDEST PUSH2 0x9254 DUP5 DUP3 DUP6 ADD PUSH2 0x91E6 JUMP JUMPDEST SWAP2 POP POP SWAP3 SWAP2 POP POP JUMP JUMPDEST PUSH1 0x0 DUP3 SWAP1 POP SWAP3 SWAP2 POP POP JUMP JUMPDEST PUSH2 0x9272 DUP4 DUP4 PUSH2 0x925D JUMP JUMPDEST PUSH8 0xFFFFFFFFFFFFFFFF DUP2 GT ISZERO PUSH2 0x928B JUMPI PUSH2 0x928A PUSH2 0x6ED4 JUMP JUMPDEST JUMPDEST PUSH2 0x9295 DUP3 SLOAD PUSH2 0x7E3C JUMP JUMPDEST PUSH2 0x92A0 DUP3 DUP3 DUP6 PUSH2 0x864D JUMP JUMPDEST PUSH1 0x0 PUSH1 0x1F DUP4 GT PUSH1 0x1 DUP2 EQ PUSH2 0x92CF JUMPI PUSH1 0x0 DUP5 ISZERO PUSH2 0x92BD JUMPI DUP3 DUP8 ADD CALLDATALOAD SWAP1 POP JUMPDEST PUSH2 0x92C7 DUP6 DUP3 PUSH2 0x86BE JUMP JUMPDEST DUP7 SSTORE POP PUSH2 0x932F JUMP JUMPDEST PUSH1 0x1F NOT DUP5 AND PUSH2 0x92DD DUP7 PUSH2 0x82E9 JUMP JUMPDEST PUSH1 0x0 JUMPDEST DUP3 DUP2 LT ISZERO PUSH2 0x9305 JUMPI DUP5 DUP10 ADD CALLDATALOAD DUP3 SSTORE PUSH1 0x1 DUP3 ADD SWAP2 POP PUSH1 0x20 DUP6 ADD SWAP5 POP PUSH1 0x20 DUP2 ADD SWAP1 POP PUSH2 0x92E0 JUMP JUMPDEST DUP7 DUP4 LT ISZERO PUSH2 0x9322 JUMPI DUP5 DUP10 ADD CALLDATALOAD PUSH2 0x931E PUSH1 0x1F DUP10 AND DUP3 PUSH2 0x86A0 JUMP JUMPDEST DUP4 SSTORE POP JUMPDEST PUSH1 0x1 PUSH1 0x2 DUP9 MUL ADD DUP9 SSTORE POP POP POP JUMPDEST POP POP POP POP POP POP POP JUMP JUMPDEST PUSH32 0x4F776E61626C653A206E6577206F776E657220697320746865207A65726F2061 PUSH1 0x0 DUP3 ADD MSTORE PUSH32 0x6464726573730000000000000000000000000000000000000000000000000000 PUSH1 0x20 DUP3 ADD MSTORE POP JUMP JUMPDEST PUSH1 0x0 PUSH2 0x9394 PUSH1 0x26 DUP4 PUSH2 0x7D90 JUMP JUMPDEST SWAP2 POP PUSH2 0x939F DUP3 PUSH2 0x9338 JUMP JUMPDEST PUSH1 0x40 DUP3 ADD SWAP1 POP SWAP2 SWAP1 POP JUMP JUMPDEST PUSH1 0x0 PUSH1 0x20 DUP3 ADD SWAP1 POP DUP2 DUP2 SUB PUSH1 0x0 DUP4 ADD MSTORE PUSH2 0x93C3 DUP2 PUSH2 0x9387 JUMP JUMPDEST SWAP1 POP SWAP2 SWAP1 POP JUMP JUMPDEST PUSH1 0x0 PUSH1 0x80 DUP3 ADD SWAP1 POP PUSH2 0x93DF PUSH1 0x0 DUP4 ADD DUP8 PUSH2 0x6A7D JUMP JUMPDEST PUSH2 0x93EC PUSH1 0x20 DUP4 ADD DUP7 PUSH2 0x6A7D JUMP JUMPDEST PUSH2 0x93F9 PUSH1 0x40 DUP4 ADD DUP6 PUSH2 0x6EA5 JUMP JUMPDEST PUSH2 0x9406 PUSH1 0x60 DUP4 ADD DUP5 PUSH2 0x6A45 JUMP JUMPDEST SWAP6 SWAP5 POP POP POP POP POP JUMP JUMPDEST PUSH1 0x0 PUSH1 0x80 DUP3 ADD SWAP1 POP PUSH2 0x9424 PUSH1 0x0 DUP4 ADD DUP8 PUSH2 0x6A7D JUMP JUMPDEST DUP2 DUP2 SUB PUSH1 0x20 DUP4 ADD MSTORE PUSH2 0x9436 DUP2 DUP7 PUSH2 0x68BC JUMP JUMPDEST SWAP1 POP PUSH2 0x9445 PUSH1 0x40 DUP4 ADD DUP6 PUSH2 0x9024 JUMP JUMPDEST DUP2 DUP2 SUB PUSH1 0x60 DUP4 ADD MSTORE PUSH2 0x9457 DUP2 DUP5 PUSH2 0x68BC JUMP JUMPDEST SWAP1 POP SWAP6 SWAP5 POP POP POP POP POP JUMP JUMPDEST PUSH32 0x4F776E61626C653A2063616C6C6572206973206E6F7420746865206F776E6572 PUSH1 0x0 DUP3 ADD MSTORE POP JUMP JUMPDEST PUSH1 0x0 PUSH2 0x9498 PUSH1 0x20 DUP4 PUSH2 0x7D90 JUMP JUMPDEST SWAP2 POP PUSH2 0x94A3 DUP3 PUSH2 0x9462 JUMP JUMPDEST PUSH1 0x20 DUP3 ADD SWAP1 POP SWAP2 SWAP1 POP JUMP JUMPDEST PUSH1 0x0 PUSH1 0x20 DUP3 ADD SWAP1 POP DUP2 DUP2 SUB PUSH1 0x0 DUP4 ADD MSTORE PUSH2 0x94C7 DUP2 PUSH2 0x948B JUMP JUMPDEST SWAP1 POP SWAP2 SWAP1 POP JUMP JUMPDEST PUSH1 0x0 PUSH2 0x94D9 DUP3 PUSH2 0x69B0 JUMP JUMPDEST SWAP1 POP SWAP2 SWAP1 POP JUMP JUMPDEST PUSH2 0x94E9 DUP2 PUSH2 0x94CE JUMP JUMPDEST DUP2 EQ PUSH2 0x94F4 JUMPI PUSH1 0x0 DUP1 REVERT JUMPDEST POP JUMP JUMPDEST PUSH1 0x0 DUP2 MLOAD SWAP1 POP PUSH2 0x9506 DUP2 PUSH2 0x94E0 JUMP JUMPDEST SWAP3 SWAP2 POP POP JUMP JUMPDEST PUSH1 0x0 DUP2 MLOAD SWAP1 POP PUSH2 0x951B DUP2 PUSH2 0x6923 JUMP JUMPDEST SWAP3 SWAP2 POP POP JUMP JUMPDEST PUSH1 0x0 DUP1 PUSH1 0x0 DUP1 PUSH1 0x0 DUP1 PUSH1 0xC0 DUP8 DUP10 SUB SLT ISZERO PUSH2 0x953E JUMPI PUSH2 0x953D PUSH2 0x66A8 JUMP JUMPDEST JUMPDEST PUSH1 0x0 PUSH2 0x954C DUP10 DUP3 DUP11 ADD PUSH2 0x94F7 JUMP JUMPDEST SWAP7 POP POP PUSH1 0x20 PUSH2 0x955D DUP10 DUP3 DUP11 ADD PUSH2 0x83E3 JUMP JUMPDEST SWAP6 POP POP PUSH1 0x40 PUSH2 0x956E DUP10 DUP3 DUP11 ADD PUSH2 0x83E3 JUMP JUMPDEST SWAP5 POP POP PUSH1 0x60 PUSH2 0x957F DUP10 DUP3 DUP11 ADD PUSH2 0x94F7 JUMP JUMPDEST SWAP4 POP POP PUSH1 0x80 PUSH2 0x9590 DUP10 DUP3 DUP11 ADD PUSH2 0x83E3 JUMP JUMPDEST SWAP3 POP POP PUSH1 0xA0 PUSH2 0x95A1 DUP10 DUP3 DUP11 ADD PUSH2 0x950C JUMP JUMPDEST SWAP2 POP POP SWAP3 SWAP6 POP SWAP3 SWAP6 POP SWAP3 SWAP6 JUMP JUMPDEST PUSH1 0x0 PUSH2 0x95C9 PUSH2 0x95C4 PUSH2 0x95BF DUP5 PUSH2 0x6751 JUMP JUMPDEST PUSH2 0x79D1 JUMP JUMPDEST PUSH2 0x6A3B JUMP JUMPDEST SWAP1 POP SWAP2 SWAP1 POP JUMP JUMPDEST PUSH2 0x95D9 DUP2 PUSH2 0x95AE JUMP JUMPDEST DUP3 MSTORE POP POP JUMP JUMPDEST PUSH1 0x0 PUSH1 0x20 DUP3 ADD SWAP1 POP PUSH2 0x95F4 PUSH1 0x0 DUP4 ADD DUP5 PUSH2 0x95D0 JUMP JUMPDEST SWAP3 SWAP2 POP POP JUMP JUMPDEST PUSH32 0x736C6963655F6F766572666C6F77000000000000000000000000000000000000 PUSH1 0x0 DUP3 ADD MSTORE POP JUMP JUMPDEST PUSH1 0x0 PUSH2 0x9630 PUSH1 0xE DUP4 PUSH2 0x7D90 JUMP JUMPDEST SWAP2 POP PUSH2 0x963B DUP3 PUSH2 0x95FA JUMP JUMPDEST PUSH1 0x20 DUP3 ADD SWAP1 POP SWAP2 SWAP1 POP JUMP JUMPDEST PUSH1 0x0 PUSH1 0x20 DUP3 ADD SWAP1 POP DUP2 DUP2 SUB PUSH1 0x0 DUP4 ADD MSTORE PUSH2 0x965F DUP2 PUSH2 0x9623 JUMP JUMPDEST SWAP1 POP SWAP2 SWAP1 POP JUMP JUMPDEST PUSH32 0x736C6963655F6F75744F66426F756E6473000000000000000000000000000000 PUSH1 0x0 DUP3 ADD MSTORE POP JUMP JUMPDEST PUSH1 0x0 PUSH2 0x969C PUSH1 0x11 DUP4 PUSH2 0x7D90 JUMP JUMPDEST SWAP2 POP PUSH2 0x96A7 DUP3 PUSH2 0x9666 JUMP JUMPDEST PUSH1 0x20 DUP3 ADD SWAP1 POP SWAP2 SWAP1 POP JUMP JUMPDEST PUSH1 0x0 PUSH1 0x20 DUP3 ADD SWAP1 POP DUP2 DUP2 SUB PUSH1 0x0 DUP4 ADD MSTORE PUSH2 0x96CB DUP2 PUSH2 0x968F JUMP JUMPDEST SWAP1 POP SWAP2 SWAP1 POP JUMP JUMPDEST PUSH32 0x4465706F736974206661696C7572650000000000000000000000000000000000 PUSH1 0x0 DUP3 ADD MSTORE POP JUMP JUMPDEST PUSH1 0x0 PUSH2 0x9708 PUSH1 0xF DUP4 PUSH2 0x7D90 JUMP JUMPDEST SWAP2 POP PUSH2 0x9713 DUP3 PUSH2 0x96D2 JUMP JUMPDEST PUSH1 0x20 DUP3 ADD SWAP1 POP SWAP2 SWAP1 POP JUMP JUMPDEST PUSH1 0x0 PUSH1 0x20 DUP3 ADD SWAP1 POP DUP2 DUP2 SUB PUSH1 0x0 DUP4 ADD MSTORE PUSH2 0x9737 DUP2 PUSH2 0x96FB JUMP JUMPDEST SWAP1 POP SWAP2 SWAP1 POP JUMP JUMPDEST PUSH1 0x0 PUSH1 0x40 DUP3 ADD SWAP1 POP PUSH2 0x9753 PUSH1 0x0 DUP4 ADD DUP6 PUSH2 0x8818 JUMP JUMPDEST PUSH2 0x9760 PUSH1 0x20 DUP4 ADD DUP5 PUSH2 0x8818 JUMP JUMPDEST SWAP4 SWAP3 POP POP POP JUMP JUMPDEST PUSH1 0x0 DUP2 MLOAD SWAP1 POP PUSH2 0x9776 DUP2 PUSH2 0x7181 JUMP JUMPDEST SWAP3 SWAP2 POP POP JUMP JUMPDEST PUSH1 0x0 PUSH1 0x20 DUP3 DUP5 SUB SLT ISZERO PUSH2 0x9792 JUMPI PUSH2 0x9791 PUSH2 0x66A8 JUMP JUMPDEST JUMPDEST PUSH1 0x0 PUSH2 0x97A0 DUP5 DUP3 DUP6 ADD PUSH2 0x9767 JUMP JUMPDEST SWAP2 POP POP SWAP3 SWAP2 POP POP JUMP JUMPDEST PUSH32 0x6361706974616C20676F6F64732062616C616E6365206973206E656761746976 PUSH1 0x0 DUP3 ADD MSTORE PUSH32 0x6500000000000000000000000000000000000000000000000000000000000000 PUSH1 0x20 DUP3 ADD MSTORE POP JUMP JUMPDEST PUSH1 0x0 PUSH2 0x9805 PUSH1 0x21 DUP4 PUSH2 0x7D90 JUMP JUMPDEST SWAP2 POP PUSH2 0x9810 DUP3 PUSH2 0x97A9 JUMP JUMPDEST PUSH1 0x40 DUP3 ADD SWAP1 POP SWAP2 SWAP1 POP JUMP JUMPDEST PUSH1 0x0 PUSH1 0x20 DUP3 ADD SWAP1 POP DUP2 DUP2 SUB PUSH1 0x0 DUP4 ADD MSTORE PUSH2 0x9834 DUP2 PUSH2 0x97F8 JUMP JUMPDEST SWAP1 POP SWAP2 SWAP1 POP JUMP JUMPDEST PUSH32 0x6361706974616C20636F696E2062616C616E6365206973206E65676174697665 PUSH1 0x0 DUP3 ADD MSTORE POP JUMP JUMPDEST PUSH1 0x0 PUSH2 0x9871 PUSH1 0x20 DUP4 PUSH2 0x7D90 JUMP JUMPDEST SWAP2 POP PUSH2 0x987C DUP3 PUSH2 0x983B JUMP JUMPDEST PUSH1 0x20 DUP3 ADD SWAP1 POP SWAP2 SWAP1 POP JUMP JUMPDEST PUSH1 0x0 PUSH1 0x20 DUP3 ADD SWAP1 POP DUP2 DUP2 SUB PUSH1 0x0 DUP4 ADD MSTORE PUSH2 0x98A0 DUP2 PUSH2 0x9864 JUMP JUMPDEST SWAP1 POP SWAP2 SWAP1 POP JUMP JUMPDEST PUSH32 0x74726164696E67204E6F6E6365206661696C6564000000000000000000000000 PUSH1 0x0 DUP3 ADD MSTORE POP JUMP JUMPDEST PUSH1 0x0 PUSH2 0x98DD PUSH1 0x14 DUP4 PUSH2 0x7D90 JUMP JUMPDEST SWAP2 POP PUSH2 0x98E8 DUP3 PUSH2 0x98A7 JUMP JUMPDEST PUSH1 0x20 DUP3 ADD SWAP1 POP SWAP2 SWAP1 POP JUMP JUMPDEST PUSH1 0x0 PUSH1 0x20 DUP3 ADD SWAP1 POP DUP2 DUP2 SUB PUSH1 0x0 DUP4 ADD MSTORE PUSH2 0x990C DUP2 PUSH2 0x98D0 JUMP JUMPDEST SWAP1 POP SWAP2 SWAP1 POP JUMP JUMPDEST PUSH32 0x74726164696E6720676F6F64732062616C616E6365206973206E656761746976 PUSH1 0x0 DUP3 ADD MSTORE PUSH32 0x6500000000000000000000000000000000000000000000000000000000000000 PUSH1 0x20 DUP3 ADD MSTORE POP JUMP JUMPDEST PUSH1 0x0 PUSH2 0x996F PUSH1 0x21 DUP4 PUSH2 0x7D90 JUMP JUMPDEST SWAP2 POP PUSH2 0x997A DUP3 PUSH2 0x9913 JUMP JUMPDEST PUSH1 0x40 DUP3 ADD SWAP1 POP SWAP2 SWAP1 POP JUMP JUMPDEST PUSH1 0x0 PUSH1 0x20 DUP3 ADD SWAP1 POP DUP2 DUP2 SUB PUSH1 0x0 DUP4 ADD MSTORE PUSH2 0x999E DUP2 PUSH2 0x9962 JUMP JUMPDEST SWAP1 POP SWAP2 SWAP1 POP JUMP JUMPDEST PUSH32 0x74726164696E6720636F696E2062616C616E6365206973206E65676174697665 PUSH1 0x0 DUP3 ADD MSTORE POP JUMP JUMPDEST PUSH1 0x0 PUSH2 0x99DB PUSH1 0x20 DUP4 PUSH2 0x7D90 JUMP JUMPDEST SWAP2 POP PUSH2 0x99E6 DUP3 PUSH2 0x99A5 JUMP JUMPDEST PUSH1 0x20 DUP3 ADD SWAP1 POP SWAP2 SWAP1 POP JUMP JUMPDEST PUSH1 0x0 PUSH1 0x20 DUP3 ADD SWAP1 POP DUP2 DUP2 SUB PUSH1 0x0 DUP4 ADD MSTORE PUSH2 0x9A0A DUP2 PUSH2 0x99CE JUMP JUMPDEST SWAP1 POP SWAP2 SWAP1 POP JUMP JUMPDEST PUSH32 0x636C6F73696E6700000000000000000000000000000000000000000000000000 PUSH1 0x0 DUP3 ADD MSTORE POP JUMP JUMPDEST PUSH1 0x0 PUSH2 0x9A47 PUSH1 0x7 DUP4 PUSH2 0x7D90 JUMP JUMPDEST SWAP2 POP PUSH2 0x9A52 DUP3 PUSH2 0x9A11 JUMP JUMPDEST PUSH1 0x20 DUP3 ADD SWAP1 POP SWAP2 SWAP1 POP JUMP JUMPDEST PUSH1 0x0 PUSH1 0x20 DUP3 ADD SWAP1 POP DUP2 DUP2 SUB PUSH1 0x0 DUP4 ADD MSTORE PUSH2 0x9A76 DUP2 PUSH2 0x9A3A JUMP JUMPDEST SWAP1 POP SWAP2 SWAP1 POP JUMP JUMPDEST PUSH32 0x4C656E677468206661696C640000000000000000000000000000000000000000 PUSH1 0x0 DUP3 ADD MSTORE POP JUMP JUMPDEST PUSH1 0x0 PUSH2 0x9AB3 PUSH1 0xC DUP4 PUSH2 0x7D90 JUMP JUMPDEST SWAP2 POP PUSH2 0x9ABE DUP3 PUSH2 0x9A7D JUMP JUMPDEST PUSH1 0x20 DUP3 ADD SWAP1 POP SWAP2 SWAP1 POP JUMP JUMPDEST PUSH1 0x0 PUSH1 0x20 DUP3 ADD SWAP1 POP DUP2 DUP2 SUB PUSH1 0x0 DUP4 ADD MSTORE PUSH2 0x9AE2 DUP2 PUSH2 0x9AA6 JUMP JUMPDEST SWAP1 POP SWAP2 SWAP1 POP JUMP JUMPDEST PUSH1 0x0 PUSH2 0x9AF4 DUP3 PUSH2 0x6865 JUMP JUMPDEST PUSH2 0x9AFE DUP2 DUP6 PUSH2 0x7E6D JUMP JUMPDEST SWAP4 POP PUSH2 0x9B0E DUP2 DUP6 PUSH1 0x20 DUP7 ADD PUSH2 0x6881 JUMP JUMPDEST DUP1 DUP5 ADD SWAP2 POP POP SWAP3 SWAP2 POP POP JUMP JUMPDEST PUSH1 0x0 PUSH2 0x9B26 DUP3 DUP5 PUSH2 0x9AE9 JUMP JUMPDEST SWAP2 POP DUP2 SWAP1 POP SWAP3 SWAP2 POP POP JUMP JUMPDEST PUSH1 0x0 PUSH1 0xA0 DUP3 ADD SWAP1 POP PUSH2 0x9B46 PUSH1 0x0 DUP4 ADD DUP9 PUSH2 0x6A7D JUMP JUMPDEST DUP2 DUP2 SUB PUSH1 0x20 DUP4 ADD MSTORE PUSH2 0x9B58 DUP2 DUP8 PUSH2 0x68BC JUMP JUMPDEST SWAP1 POP PUSH2 0x9B67 PUSH1 0x40 DUP4 ADD DUP7 PUSH2 0x9024 JUMP JUMPDEST DUP2 DUP2 SUB PUSH1 0x60 DUP4 ADD MSTORE PUSH2 0x9B79 DUP2 DUP6 PUSH2 0x68BC JUMP JUMPDEST SWAP1 POP DUP2 DUP2 SUB PUSH1 0x80 DUP4 ADD MSTORE PUSH2 0x9B8D DUP2 DUP5 PUSH2 0x68BC JUMP JUMPDEST SWAP1 POP SWAP7 SWAP6 POP POP POP POP POP POP JUMP JUMPDEST PUSH32 0x4C7A4170703A2064657374696E6174696F6E20636861696E206973206E6F7420 PUSH1 0x0 DUP3 ADD MSTORE PUSH32 0x61207472757374656420736F7572636500000000000000000000000000000000 PUSH1 0x20 DUP3 ADD MSTORE POP JUMP JUMPDEST PUSH1 0x0 PUSH2 0x9BF5 PUSH1 0x30 DUP4 PUSH2 0x7D90 JUMP JUMPDEST SWAP2 POP PUSH2 0x9C00 DUP3 PUSH2 0x9B99 JUMP JUMPDEST PUSH1 0x40 DUP3 ADD SWAP1 POP SWAP2 SWAP1 POP JUMP JUMPDEST PUSH1 0x0 PUSH1 0x20 DUP3 ADD SWAP1 POP DUP2 DUP2 SUB PUSH1 0x0 DUP4 ADD MSTORE PUSH2 0x9C24 DUP2 PUSH2 0x9BE8 JUMP JUMPDEST SWAP1 POP SWAP2 SWAP1 POP JUMP JUMPDEST PUSH2 0x9C34 DUP2 PUSH2 0x94CE JUMP JUMPDEST DUP3 MSTORE POP POP JUMP JUMPDEST PUSH1 0x0 PUSH1 0xC0 DUP3 ADD SWAP1 POP PUSH2 0x9C4F PUSH1 0x0 DUP4 ADD DUP10 PUSH2 0x6A7D JUMP JUMPDEST DUP2 DUP2 SUB PUSH1 0x20 DUP4 ADD MSTORE PUSH2 0x9C61 DUP2 DUP9 PUSH2 0x68BC JUMP JUMPDEST SWAP1 POP DUP2 DUP2 SUB PUSH1 0x40 DUP4 ADD MSTORE PUSH2 0x9C75 DUP2 DUP8 PUSH2 0x68BC JUMP JUMPDEST SWAP1 POP PUSH2 0x9C84 PUSH1 0x60 DUP4 ADD DUP7 PUSH2 0x9C2B JUMP JUMPDEST PUSH2 0x9C91 PUSH1 0x80 DUP4 ADD DUP6 PUSH2 0x6EA5 JUMP JUMPDEST DUP2 DUP2 SUB PUSH1 0xA0 DUP4 ADD MSTORE PUSH2 0x9CA3 DUP2 DUP5 PUSH2 0x68BC JUMP JUMPDEST SWAP1 POP SWAP8 SWAP7 POP POP POP POP POP POP POP JUMP INVALID LOG2 PUSH5 0x6970667358 0x22 SLT KECCAK256 0xAA 0xD6 0xDE 0xC 0xD8 0xE9 0xD2 0xF9 SWAP8 PUSH15 0xA022BFC90B15C67009010DD745E28E 0xD9 0xD8 0x5C 0xE ORIGIN 0xBF 0x2D PUSH5 0x736F6C6343 STOP ADDMOD GT STOP CALLER "
		},
		"gasEstimates": {
			"creation": {
				"codeDepositCost": "8033200",
				"executionCost": "infinite",
				"totalCost": "infinite"
			},
			"external": {
				"DEFAULT_ADMIN_ROLE()": "425",
				"NODE_ROLE()": "417",
				"OWENER_ROLE()": "442",
				"_roles(bytes32)": "infinite",
				"accounts(address)": "infinite",
				"adapterParams()": "infinite",
				"auobject(address,address)": "infinite",
				"budgeCa(address,address)": "infinite",
				"budgetrd(address,address)": "infinite",
				"capitaMRoot(address,uint256)": "5235",
				"checkOut(address,(address,bytes32,bytes32,address[],uint256[],uint256,uint256,uint256[],uint256,bytes32,bytes))": "infinite",
				"coinList(uint256)": "5047",
				"deAmountL1(address,address)": "infinite",
				"deAmountL2(address,address)": "infinite",
				"dstChainId()": "2540",
				"estimateFee(address)": "infinite",
				"failedMessages(uint16,bytes,uint64)": "infinite",
				"forceResumeReceive(uint16,bytes)": "infinite",
				"getAccount(address,address)": "infinite",
				"getConfig(uint16,uint16,address,uint256)": "infinite",
				"getData(address)": "infinite",
				"getNonce(address)": "infinite",
				"getOracle(uint16)": "infinite",
				"getSize(address)": "infinite",
				"getTrustedRemoteAddress(uint16)": "infinite",
				"hasRole(bytes32,address)": "3273",
				"isOpen()": "2633",
				"isSupDe(address)": "2977",
				"isTrustedRemote(uint16,bytes)": "infinite",
				"lzEndpoint()": "infinite",
				"lzReceive(uint16,bytes,uint64,bytes)": "infinite",
				"minDstGasLookup(uint16,uint16)": "infinite",
				"nonblockingLzReceive(uint16,bytes,uint64,bytes)": "infinite",
				"owner()": "2633",
				"precrime()": "2583",
				"renounceOwnership()": "30510",
				"retryMessage(uint16,bytes,uint64,bytes)": "infinite",
				"setAdapterParams(uint16,uint256)": "infinite",
				"setAuobject(address,bool)": "25192",
				"setConfig(uint16,uint16,uint256,bytes)": "infinite",
				"setIsOpen(bool)": "27062",
				"setMinDstGas(uint16,uint16,uint256)": "infinite",
				"setOracle(uint16,address)": "infinite",
				"setPrecrime(address)": "infinite",
				"setReceiveVersion(uint16)": "infinite",
				"setSendVersion(uint16)": "infinite",
				"setSupDe(address,bool)": "27367",
				"setTrustedRemote(uint16,bytes)": "infinite",
				"setTrustedRemoteAddress(uint16,bytes)": "infinite",
				"setWhilLlist(address)": "29736",
				"shares(address)": "2926",
				"totalShares()": "2542",
				"tradingMRoot(address,uint256)": "5257",
				"transferOwnership(address)": "30855",
				"trustedRemoteLookup(uint16)": "infinite",
				"verificationBook((string,address,address,uint256[],address[],bool,uint256,address,bool,uint256,address,bool,bool,uint256,uint16,uint256,bytes32,bytes,bytes32,bytes)[],address)": "infinite",
				"withholding((address[],uint256[],bool,address,bytes32,bytes,bytes32,bytes))": "infinite"
			},
			"internal": {
				"_build(struct VaultVerificationData.Bill memory[] memory,address)": "infinite",
				"_grantRole(bytes32,address)": "26835",
				"_nonblockingLzReceive(uint16,bytes memory,uint64,bytes memory)": "infinite",
				"_sentToL1(uint16,bytes memory)": "infinite",
				"_setupRole(bytes32,address)": "26869",
				"isCoinList(address,address)": "150413",
				"transferOfFunds(struct VaultVerificationData.Bill memory,address)": "infinite",
				"verifySignatureA(struct VaultVerificationData.Bill memory,address)": "13",
				"verifySignatureB(struct VaultVerificationData.Bill memory,address)": "13"
			}
		},
		"methodIdentifiers": {
			"DEFAULT_ADMIN_ROLE()": "a217fddf",
			"NODE_ROLE()": "fb895733",
			"OWENER_ROLE()": "19fc2e61",
			"_roles(bytes32)": "bd99d7e1",
			"accounts(address)": "5e5c06e2",
			"adapterParams()": "083118d5",
			"auobject(address,address)": "f9cad2ac",
			"budgeCa(address,address)": "b886dbcd",
			"budgetrd(address,address)": "4efa685a",
			"capitaMRoot(address,uint256)": "6cadcbd9",
			"checkOut(address,(address,bytes32,bytes32,address[],uint256[],uint256,uint256,uint256[],uint256,bytes32,bytes))": "9ed46705",
			"coinList(uint256)": "50414c35",
			"deAmountL1(address,address)": "de45e98d",
			"deAmountL2(address,address)": "9d3089f5",
			"dstChainId()": "30c593f7",
			"estimateFee(address)": "57463d35",
			"failedMessages(uint16,bytes,uint64)": "5b8c41e6",
			"forceResumeReceive(uint16,bytes)": "42d65a8d",
			"getAccount(address,address)": "fd590847",
			"getConfig(uint16,uint16,address,uint256)": "f5ecbdbc",
			"getData(address)": "38266b22",
			"getNonce(address)": "2d0335ab",
			"getOracle(uint16)": "e2f28824",
			"getSize(address)": "504f1671",
			"getTrustedRemoteAddress(uint16)": "9f38369a",
			"hasRole(bytes32,address)": "91d14854",
			"isOpen()": "47535d7b",
			"isSupDe(address)": "ff464d3f",
			"isTrustedRemote(uint16,bytes)": "3d8b38f6",
			"lzEndpoint()": "b353aaa7",
			"lzReceive(uint16,bytes,uint64,bytes)": "001d3567",
			"minDstGasLookup(uint16,uint16)": "8cfd8f5c",
			"nonblockingLzReceive(uint16,bytes,uint64,bytes)": "66ad5c8a",
			"owner()": "8da5cb5b",
			"precrime()": "950c8a74",
			"renounceOwnership()": "715018a6",
			"retryMessage(uint16,bytes,uint64,bytes)": "d1deba1f",
			"setAdapterParams(uint16,uint256)": "6d1daa28",
			"setAuobject(address,bool)": "b6161754",
			"setConfig(uint16,uint16,uint256,bytes)": "cbed8b9c",
			"setIsOpen(bool)": "085a10cf",
			"setMinDstGas(uint16,uint16,uint256)": "df2a5b3b",
			"setOracle(uint16,address)": "492e527e",
			"setPrecrime(address)": "baf3292d",
			"setReceiveVersion(uint16)": "10ddb137",
			"setSendVersion(uint16)": "07e0db17",
			"setSupDe(address,bool)": "a304dcf4",
			"setTrustedRemote(uint16,bytes)": "eb8d72b7",
			"setTrustedRemoteAddress(uint16,bytes)": "a6c3d165",
			"setWhilLlist(address)": "e251e96d",
			"shares(address)": "ce7c2ac2",
			"totalShares()": "3a98ef39",
			"tradingMRoot(address,uint256)": "ce5c8e14",
			"transferOwnership(address)": "f2fde38b",
			"trustedRemoteLookup(uint16)": "7533d788",
			"verificationBook((string,address,address,uint256[],address[],bool,uint256,address,bool,uint256,address,bool,bool,uint256,uint16,uint256,bytes32,bytes,bytes32,bytes)[],address)": "b212c8d3",
			"withholding((address[],uint256[],bool,address,bytes32,bytes,bytes32,bytes))": "bfef22ac"
		}
	},
	"abi": [
		{
			"inputs": [
				{
					"internalType": "address",
					"name": "lzEndpoint_",
					"type": "address"
				},
				{
					"internalType": "uint16",
					"name": "dstChainId_",
					"type": "uint16"
				}
			],
			"stateMutability": "nonpayable",
			"type": "constructor"
		},
		{
			"anonymous": false,
			"inputs": [
				{
					"indexed": false,
					"internalType": "uint16",
					"name": "_srcChainId",
					"type": "uint16"
				},
				{
					"indexed": false,
					"internalType": "bytes",
					"name": "_srcAddress",
					"type": "bytes"
				},
				{
					"indexed": false,
					"internalType": "uint64",
					"name": "_nonce",
					"type": "uint64"
				},
				{
					"indexed": false,
					"internalType": "bytes",
					"name": "_payload",
					"type": "bytes"
				},
				{
					"indexed": false,
					"internalType": "bytes",
					"name": "_reason",
					"type": "bytes"
				}
			],
			"name": "MessageFailed",
			"type": "event"
		},
		{
			"anonymous": false,
			"inputs": [
				{
					"indexed": true,
					"internalType": "address",
					"name": "previousOwner",
					"type": "address"
				},
				{
					"indexed": true,
					"internalType": "address",
					"name": "newOwner",
					"type": "address"
				}
			],
			"name": "OwnershipTransferred",
			"type": "event"
		},
		{
			"anonymous": false,
			"inputs": [
				{
					"indexed": false,
					"internalType": "uint16",
					"name": "_srcChainId",
					"type": "uint16"
				},
				{
					"indexed": false,
					"internalType": "bytes",
					"name": "_srcAddress",
					"type": "bytes"
				},
				{
					"indexed": false,
					"internalType": "uint64",
					"name": "_nonce",
					"type": "uint64"
				},
				{
					"indexed": false,
					"internalType": "bytes32",
					"name": "_payloadHash",
					"type": "bytes32"
				}
			],
			"name": "RetryMessageSuccess",
			"type": "event"
		},
		{
			"anonymous": false,
			"inputs": [
				{
					"indexed": false,
					"internalType": "uint16",
					"name": "_dstChainId",
					"type": "uint16"
				},
				{
					"indexed": false,
					"internalType": "uint16",
					"name": "_type",
					"type": "uint16"
				},
				{
					"indexed": false,
					"internalType": "uint256",
					"name": "_minDstGas",
					"type": "uint256"
				}
			],
			"name": "SetMinDstGas",
			"type": "event"
		},
		{
			"anonymous": false,
			"inputs": [
				{
					"indexed": false,
					"internalType": "address",
					"name": "precrime",
					"type": "address"
				}
			],
			"name": "SetPrecrime",
			"type": "event"
		},
		{
			"anonymous": false,
			"inputs": [
				{
					"indexed": false,
					"internalType": "uint16",
					"name": "_remoteChainId",
					"type": "uint16"
				},
				{
					"indexed": false,
					"internalType": "bytes",
					"name": "_path",
					"type": "bytes"
				}
			],
			"name": "SetTrustedRemote",
			"type": "event"
		},
		{
			"anonymous": false,
			"inputs": [
				{
					"indexed": false,
					"internalType": "uint16",
					"name": "_remoteChainId",
					"type": "uint16"
				},
				{
					"indexed": false,
					"internalType": "bytes",
					"name": "_remoteAddress",
					"type": "bytes"
				}
			],
			"name": "SetTrustedRemoteAddress",
			"type": "event"
		},
		{
			"anonymous": false,
			"inputs": [
				{
					"indexed": false,
					"internalType": "address",
					"name": "user_",
					"type": "address"
				},
				{
					"indexed": false,
					"internalType": "address[]",
					"name": "coinType_",
					"type": "address[]"
				},
				{
					"indexed": false,
					"internalType": "uint256[]",
					"name": "balance",
					"type": "uint256[]"
				}
			],
			"name": "evenTransferOfFunds",
			"type": "event"
		},
		{
			"anonymous": false,
			"inputs": [
				{
					"indexed": false,
					"internalType": "uint256",
					"name": "nonce",
					"type": "uint256"
				}
			],
			"name": "eventReceive",
			"type": "event"
		},
		{
			"anonymous": false,
			"inputs": [
				{
					"indexed": false,
					"internalType": "address",
					"name": "whiteAddress_",
					"type": "address"
				}
			],
			"name": "eventSetwhiteLlist",
			"type": "event"
		},
		{
			"anonymous": false,
			"inputs": [],
			"name": "eventVerificationBook",
			"type": "event"
		},
		{
			"anonymous": false,
			"inputs": [
				{
					"indexed": false,
					"internalType": "address[]",
					"name": "addList",
					"type": "address[]"
				},
				{
					"indexed": false,
					"internalType": "uint256[]",
					"name": "amount",
					"type": "uint256[]"
				},
				{
					"indexed": false,
					"internalType": "bool",
					"name": "coinType",
					"type": "bool"
				},
				{
					"indexed": false,
					"internalType": "address",
					"name": "user",
					"type": "address"
				}
			],
			"name": "eventWithholding",
			"type": "event"
		},
		{
			"inputs": [],
			"name": "DEFAULT_ADMIN_ROLE",
			"outputs": [
				{
					"internalType": "bytes32",
					"name": "",
					"type": "bytes32"
				}
			],
			"stateMutability": "view",
			"type": "function"
		},
		{
			"inputs": [],
			"name": "NODE_ROLE",
			"outputs": [
				{
					"internalType": "bytes32",
					"name": "",
					"type": "bytes32"
				}
			],
			"stateMutability": "view",
			"type": "function"
		},
		{
			"inputs": [],
			"name": "OWENER_ROLE",
			"outputs": [
				{
					"internalType": "bytes32",
					"name": "",
					"type": "bytes32"
				}
			],
			"stateMutability": "view",
			"type": "function"
		},
		{
			"inputs": [
				{
					"internalType": "bytes32",
					"name": "",
					"type": "bytes32"
				}
			],
			"name": "_roles",
			"outputs": [
				{
					"internalType": "bytes32",
					"name": "adminRole",
					"type": "bytes32"
				}
			],
			"stateMutability": "view",
			"type": "function"
		},
		{
			"inputs": [
				{
					"internalType": "address",
					"name": "",
					"type": "address"
				}
			],
			"name": "accounts",
			"outputs": [
				{
					"internalType": "address",
					"name": "user",
					"type": "address"
				},
				{
					"internalType": "bytes32",
					"name": "capitalMerkleRoot",
					"type": "bytes32"
				},
				{
					"internalType": "uint256",
					"name": "capitalNonce",
					"type": "uint256"
				},
				{
					"internalType": "bytes32",
					"name": "tradingMerkleRoot",
					"type": "bytes32"
				},
				{
					"internalType": "uint256",
					"name": "tradingNonce",
					"type": "uint256"
				}
			],
			"stateMutability": "view",
			"type": "function"
		},
		{
			"inputs": [],
			"name": "adapterParams",
			"outputs": [
				{
					"internalType": "bytes",
					"name": "",
					"type": "bytes"
				}
			],
			"stateMutability": "view",
			"type": "function"
		},
		{
			"inputs": [
				{
					"internalType": "address",
					"name": "",
					"type": "address"
				},
				{
					"internalType": "address",
					"name": "",
					"type": "address"
				}
			],
			"name": "auobject",
			"outputs": [
				{
					"internalType": "bool",
					"name": "",
					"type": "bool"
				}
			],
			"stateMutability": "view",
			"type": "function"
		},
		{
			"inputs": [
				{
					"internalType": "address",
					"name": "",
					"type": "address"
				},
				{
					"internalType": "address",
					"name": "",
					"type": "address"
				}
			],
			"name": "budgeCa",
			"outputs": [
				{
					"internalType": "uint256",
					"name": "",
					"type": "uint256"
				}
			],
			"stateMutability": "view",
			"type": "function"
		},
		{
			"inputs": [
				{
					"internalType": "address",
					"name": "",
					"type": "address"
				},
				{
					"internalType": "address",
					"name": "",
					"type": "address"
				}
			],
			"name": "budgetrd",
			"outputs": [
				{
					"internalType": "uint256",
					"name": "",
					"type": "uint256"
				}
			],
			"stateMutability": "view",
			"type": "function"
		},
		{
			"inputs": [
				{
					"internalType": "address",
					"name": "",
					"type": "address"
				},
				{
					"internalType": "uint256",
					"name": "",
					"type": "uint256"
				}
			],
			"name": "capitaMRoot",
			"outputs": [
				{
					"internalType": "bytes32",
					"name": "",
					"type": "bytes32"
				}
			],
			"stateMutability": "view",
			"type": "function"
		},
		{
			"inputs": [
				{
					"internalType": "address",
					"name": "user_",
					"type": "address"
				},
				{
					"components": [
						{
							"internalType": "address",
							"name": "user",
							"type": "address"
						},
						{
							"internalType": "bytes32",
							"name": "capitaMerkleRoot",
							"type": "bytes32"
						},
						{
							"internalType": "bytes32",
							"name": "tradingMerkleRoot",
							"type": "bytes32"
						},
						{
							"internalType": "address[]",
							"name": "coinList",
							"type": "address[]"
						},
						{
							"internalType": "uint256[]",
							"name": "capitalValues",
							"type": "uint256[]"
						},
						{
							"internalType": "uint256",
							"name": "totalShares",
							"type": "uint256"
						},
						{
							"internalType": "uint256",
							"name": "shares",
							"type": "uint256"
						},
						{
							"internalType": "uint256[]",
							"name": "tradingValues",
							"type": "uint256[]"
						},
						{
							"internalType": "uint256",
							"name": "nativeFee",
							"type": "uint256"
						},
						{
							"internalType": "bytes32",
							"name": "messageHash",
							"type": "bytes32"
						},
						{
							"internalType": "bytes",
							"name": "signature",
							"type": "bytes"
						}
					],
					"internalType": "struct VaultVerificationData.Data",
					"name": "data_",
					"type": "tuple"
				}
			],
			"name": "checkOut",
			"outputs": [],
			"stateMutability": "payable",
			"type": "function"
		},
		{
			"inputs": [
				{
					"internalType": "uint256",
					"name": "",
					"type": "uint256"
				}
			],
			"name": "coinList",
			"outputs": [
				{
					"internalType": "address",
					"name": "",
					"type": "address"
				}
			],
			"stateMutability": "view",
			"type": "function"
		},
		{
			"inputs": [
				{
					"internalType": "address",
					"name": "",
					"type": "address"
				},
				{
					"internalType": "address",
					"name": "",
					"type": "address"
				}
			],
			"name": "deAmountL1",
			"outputs": [
				{
					"internalType": "uint256",
					"name": "",
					"type": "uint256"
				}
			],
			"stateMutability": "view",
			"type": "function"
		},
		{
			"inputs": [
				{
					"internalType": "address",
					"name": "",
					"type": "address"
				},
				{
					"internalType": "address",
					"name": "",
					"type": "address"
				}
			],
			"name": "deAmountL2",
			"outputs": [
				{
					"internalType": "uint256",
					"name": "",
					"type": "uint256"
				}
			],
			"stateMutability": "view",
			"type": "function"
		},
		{
			"inputs": [],
			"name": "dstChainId",
			"outputs": [
				{
					"internalType": "uint16",
					"name": "",
					"type": "uint16"
				}
			],
			"stateMutability": "view",
			"type": "function"
		},
		{
			"inputs": [
				{
					"internalType": "address",
					"name": "user_",
					"type": "address"
				}
			],
			"name": "estimateFee",
			"outputs": [
				{
					"internalType": "uint256",
					"name": "nativeFee",
					"type": "uint256"
				},
				{
					"internalType": "uint256",
					"name": "zroFee",
					"type": "uint256"
				}
			],
			"stateMutability": "view",
			"type": "function"
		},
		{
			"inputs": [
				{
					"internalType": "uint16",
					"name": "",
					"type": "uint16"
				},
				{
					"internalType": "bytes",
					"name": "",
					"type": "bytes"
				},
				{
					"internalType": "uint64",
					"name": "",
					"type": "uint64"
				}
			],
			"name": "failedMessages",
			"outputs": [
				{
					"internalType": "bytes32",
					"name": "",
					"type": "bytes32"
				}
			],
			"stateMutability": "view",
			"type": "function"
		},
		{
			"inputs": [
				{
					"internalType": "uint16",
					"name": "_srcChainId",
					"type": "uint16"
				},
				{
					"internalType": "bytes",
					"name": "_srcAddress",
					"type": "bytes"
				}
			],
			"name": "forceResumeReceive",
			"outputs": [],
			"stateMutability": "nonpayable",
			"type": "function"
		},
		{
			"inputs": [
				{
					"internalType": "address",
					"name": "address_",
					"type": "address"
				},
				{
					"internalType": "address",
					"name": "type_",
					"type": "address"
				}
			],
			"name": "getAccount",
			"outputs": [
				{
					"internalType": "address",
					"name": "",
					"type": "address"
				},
				{
					"internalType": "bytes32",
					"name": "",
					"type": "bytes32"
				},
				{
					"internalType": "uint256",
					"name": "",
					"type": "uint256"
				},
				{
					"internalType": "uint256",
					"name": "",
					"type": "uint256"
				},
				{
					"internalType": "uint256",
					"name": "",
					"type": "uint256"
				}
			],
			"stateMutability": "view",
			"type": "function"
		},
		{
			"inputs": [
				{
					"internalType": "uint16",
					"name": "_version",
					"type": "uint16"
				},
				{
					"internalType": "uint16",
					"name": "_chainId",
					"type": "uint16"
				},
				{
					"internalType": "address",
					"name": "",
					"type": "address"
				},
				{
					"internalType": "uint256",
					"name": "_configType",
					"type": "uint256"
				}
			],
			"name": "getConfig",
			"outputs": [
				{
					"internalType": "bytes",
					"name": "",
					"type": "bytes"
				}
			],
			"stateMutability": "view",
			"type": "function"
		},
		{
			"inputs": [
				{
					"internalType": "address",
					"name": "user_",
					"type": "address"
				}
			],
			"name": "getData",
			"outputs": [
				{
					"components": [
						{
							"internalType": "address",
							"name": "user",
							"type": "address"
						},
						{
							"internalType": "bytes32",
							"name": "capitaMerkleRoot",
							"type": "bytes32"
						},
						{
							"internalType": "bytes32",
							"name": "tradingMerkleRoot",
							"type": "bytes32"
						},
						{
							"internalType": "address[]",
							"name": "coinList",
							"type": "address[]"
						},
						{
							"internalType": "uint256[]",
							"name": "capitalValues",
							"type": "uint256[]"
						},
						{
							"internalType": "uint256",
							"name": "totalShares",
							"type": "uint256"
						},
						{
							"internalType": "uint256",
							"name": "shares",
							"type": "uint256"
						},
						{
							"internalType": "uint256[]",
							"name": "tradingValues",
							"type": "uint256[]"
						},
						{
							"internalType": "uint256",
							"name": "nativeFee",
							"type": "uint256"
						}
					],
					"internalType": "struct VaultVerificationData.OutData",
					"name": "",
					"type": "tuple"
				}
			],
			"stateMutability": "view",
			"type": "function"
		},
		{
			"inputs": [
				{
					"internalType": "address",
					"name": "address_",
					"type": "address"
				}
			],
			"name": "getNonce",
			"outputs": [
				{
					"internalType": "uint256",
					"name": "",
					"type": "uint256"
				},
				{
					"internalType": "uint256",
					"name": "",
					"type": "uint256"
				}
			],
			"stateMutability": "view",
			"type": "function"
		},
		{
			"inputs": [
				{
					"internalType": "uint16",
					"name": "remoteChainId",
					"type": "uint16"
				}
			],
			"name": "getOracle",
			"outputs": [
				{
					"internalType": "address",
					"name": "_oracle",
					"type": "address"
				}
			],
			"stateMutability": "view",
			"type": "function"
		},
		{
			"inputs": [
				{
					"internalType": "address",
					"name": "user_",
					"type": "address"
				}
			],
			"name": "getSize",
			"outputs": [
				{
					"internalType": "bytes",
					"name": "encoded",
					"type": "bytes"
				}
			],
			"stateMutability": "view",
			"type": "function"
		},
		{
			"inputs": [
				{
					"internalType": "uint16",
					"name": "_remoteChainId",
					"type": "uint16"
				}
			],
			"name": "getTrustedRemoteAddress",
			"outputs": [
				{
					"internalType": "bytes",
					"name": "",
					"type": "bytes"
				}
			],
			"stateMutability": "view",
			"type": "function"
		},
		{
			"inputs": [
				{
					"internalType": "bytes32",
					"name": "role",
					"type": "bytes32"
				},
				{
					"internalType": "address",
					"name": "account",
					"type": "address"
				}
			],
			"name": "hasRole",
			"outputs": [
				{
					"internalType": "bool",
					"name": "",
					"type": "bool"
				}
			],
			"stateMutability": "view",
			"type": "function"
		},
		{
			"inputs": [],
			"name": "isOpen",
			"outputs": [
				{
					"internalType": "bool",
					"name": "",
					"type": "bool"
				}
			],
			"stateMutability": "view",
			"type": "function"
		},
		{
			"inputs": [
				{
					"internalType": "address",
					"name": "",
					"type": "address"
				}
			],
			"name": "isSupDe",
			"outputs": [
				{
					"internalType": "bool",
					"name": "",
					"type": "bool"
				}
			],
			"stateMutability": "view",
			"type": "function"
		},
		{
			"inputs": [
				{
					"internalType": "uint16",
					"name": "_srcChainId",
					"type": "uint16"
				},
				{
					"internalType": "bytes",
					"name": "_srcAddress",
					"type": "bytes"
				}
			],
			"name": "isTrustedRemote",
			"outputs": [
				{
					"internalType": "bool",
					"name": "",
					"type": "bool"
				}
			],
			"stateMutability": "view",
			"type": "function"
		},
		{
			"inputs": [],
			"name": "lzEndpoint",
			"outputs": [
				{
					"internalType": "contract ILayerZeroEndpoint",
					"name": "",
					"type": "address"
				}
			],
			"stateMutability": "view",
			"type": "function"
		},
		{
			"inputs": [
				{
					"internalType": "uint16",
					"name": "_srcChainId",
					"type": "uint16"
				},
				{
					"internalType": "bytes",
					"name": "_srcAddress",
					"type": "bytes"
				},
				{
					"internalType": "uint64",
					"name": "_nonce",
					"type": "uint64"
				},
				{
					"internalType": "bytes",
					"name": "_payload",
					"type": "bytes"
				}
			],
			"name": "lzReceive",
			"outputs": [],
			"stateMutability": "nonpayable",
			"type": "function"
		},
		{
			"inputs": [
				{
					"internalType": "uint16",
					"name": "",
					"type": "uint16"
				},
				{
					"internalType": "uint16",
					"name": "",
					"type": "uint16"
				}
			],
			"name": "minDstGasLookup",
			"outputs": [
				{
					"internalType": "uint256",
					"name": "",
					"type": "uint256"
				}
			],
			"stateMutability": "view",
			"type": "function"
		},
		{
			"inputs": [
				{
					"internalType": "uint16",
					"name": "_srcChainId",
					"type": "uint16"
				},
				{
					"internalType": "bytes",
					"name": "_srcAddress",
					"type": "bytes"
				},
				{
					"internalType": "uint64",
					"name": "_nonce",
					"type": "uint64"
				},
				{
					"internalType": "bytes",
					"name": "_payload",
					"type": "bytes"
				}
			],
			"name": "nonblockingLzReceive",
			"outputs": [],
			"stateMutability": "nonpayable",
			"type": "function"
		},
		{
			"inputs": [],
			"name": "owner",
			"outputs": [
				{
					"internalType": "address",
					"name": "",
					"type": "address"
				}
			],
			"stateMutability": "view",
			"type": "function"
		},
		{
			"inputs": [],
			"name": "precrime",
			"outputs": [
				{
					"internalType": "address",
					"name": "",
					"type": "address"
				}
			],
			"stateMutability": "view",
			"type": "function"
		},
		{
			"inputs": [],
			"name": "renounceOwnership",
			"outputs": [],
			"stateMutability": "nonpayable",
			"type": "function"
		},
		{
			"inputs": [
				{
					"internalType": "uint16",
					"name": "_srcChainId",
					"type": "uint16"
				},
				{
					"internalType": "bytes",
					"name": "_srcAddress",
					"type": "bytes"
				},
				{
					"internalType": "uint64",
					"name": "_nonce",
					"type": "uint64"
				},
				{
					"internalType": "bytes",
					"name": "_payload",
					"type": "bytes"
				}
			],
			"name": "retryMessage",
			"outputs": [],
			"stateMutability": "payable",
			"type": "function"
		},
		{
			"inputs": [
				{
					"internalType": "uint16",
					"name": "version",
					"type": "uint16"
				},
				{
					"internalType": "uint256",
					"name": "gasForDestinationLzReceive",
					"type": "uint256"
				}
			],
			"name": "setAdapterParams",
			"outputs": [],
			"stateMutability": "nonpayable",
			"type": "function"
		},
		{
			"inputs": [
				{
					"internalType": "address",
					"name": "add",
					"type": "address"
				},
				{
					"internalType": "bool",
					"name": "re",
					"type": "bool"
				}
			],
			"name": "setAuobject",
			"outputs": [],
			"stateMutability": "nonpayable",
			"type": "function"
		},
		{
			"inputs": [
				{
					"internalType": "uint16",
					"name": "_version",
					"type": "uint16"
				},
				{
					"internalType": "uint16",
					"name": "_chainId",
					"type": "uint16"
				},
				{
					"internalType": "uint256",
					"name": "_configType",
					"type": "uint256"
				},
				{
					"internalType": "bytes",
					"name": "_config",
					"type": "bytes"
				}
			],
			"name": "setConfig",
			"outputs": [],
			"stateMutability": "nonpayable",
			"type": "function"
		},
		{
			"inputs": [
				{
					"internalType": "bool",
					"name": "re_",
					"type": "bool"
				}
			],
			"name": "setIsOpen",
			"outputs": [],
			"stateMutability": "nonpayable",
			"type": "function"
		},
		{
			"inputs": [
				{
					"internalType": "uint16",
					"name": "_dstChainId",
					"type": "uint16"
				},
				{
					"internalType": "uint16",
					"name": "_packetType",
					"type": "uint16"
				},
				{
					"internalType": "uint256",
					"name": "_minGas",
					"type": "uint256"
				}
			],
			"name": "setMinDstGas",
			"outputs": [],
			"stateMutability": "nonpayable",
			"type": "function"
		},
		{
			"inputs": [
				{
					"internalType": "uint16",
					"name": "dstChainId",
					"type": "uint16"
				},
				{
					"internalType": "address",
					"name": "oracle",
					"type": "address"
				}
			],
			"name": "setOracle",
			"outputs": [],
			"stateMutability": "nonpayable",
			"type": "function"
		},
		{
			"inputs": [
				{
					"internalType": "address",
					"name": "_precrime",
					"type": "address"
				}
			],
			"name": "setPrecrime",
			"outputs": [],
			"stateMutability": "nonpayable",
			"type": "function"
		},
		{
			"inputs": [
				{
					"internalType": "uint16",
					"name": "_version",
					"type": "uint16"
				}
			],
			"name": "setReceiveVersion",
			"outputs": [],
			"stateMutability": "nonpayable",
			"type": "function"
		},
		{
			"inputs": [
				{
					"internalType": "uint16",
					"name": "_version",
					"type": "uint16"
				}
			],
			"name": "setSendVersion",
			"outputs": [],
			"stateMutability": "nonpayable",
			"type": "function"
		},
		{
			"inputs": [
				{
					"internalType": "address",
					"name": "add_",
					"type": "address"
				},
				{
					"internalType": "bool",
					"name": "re",
					"type": "bool"
				}
			],
			"name": "setSupDe",
			"outputs": [],
			"stateMutability": "nonpayable",
			"type": "function"
		},
		{
			"inputs": [
				{
					"internalType": "uint16",
					"name": "_srcChainId",
					"type": "uint16"
				},
				{
					"internalType": "bytes",
					"name": "_path",
					"type": "bytes"
				}
			],
			"name": "setTrustedRemote",
			"outputs": [],
			"stateMutability": "nonpayable",
			"type": "function"
		},
		{
			"inputs": [
				{
					"internalType": "uint16",
					"name": "_remoteChainId",
					"type": "uint16"
				},
				{
					"internalType": "bytes",
					"name": "_remoteAddress",
					"type": "bytes"
				}
			],
			"name": "setTrustedRemoteAddress",
			"outputs": [],
			"stateMutability": "nonpayable",
			"type": "function"
		},
		{
			"inputs": [
				{
					"internalType": "address",
					"name": "add",
					"type": "address"
				}
			],
			"name": "setWhilLlist",
			"outputs": [],
			"stateMutability": "nonpayable",
			"type": "function"
		},
		{
			"inputs": [
				{
					"internalType": "address",
					"name": "",
					"type": "address"
				}
			],
			"name": "shares",
			"outputs": [
				{
					"internalType": "uint256",
					"name": "",
					"type": "uint256"
				}
			],
			"stateMutability": "view",
			"type": "function"
		},
		{
			"inputs": [],
			"name": "totalShares",
			"outputs": [
				{
					"internalType": "uint256",
					"name": "",
					"type": "uint256"
				}
			],
			"stateMutability": "view",
			"type": "function"
		},
		{
			"inputs": [
				{
					"internalType": "address",
					"name": "",
					"type": "address"
				},
				{
					"internalType": "uint256",
					"name": "",
					"type": "uint256"
				}
			],
			"name": "tradingMRoot",
			"outputs": [
				{
					"internalType": "bytes32",
					"name": "",
					"type": "bytes32"
				}
			],
			"stateMutability": "view",
			"type": "function"
		},
		{
			"inputs": [
				{
					"internalType": "address",
					"name": "newOwner",
					"type": "address"
				}
			],
			"name": "transferOwnership",
			"outputs": [],
			"stateMutability": "nonpayable",
			"type": "function"
		},
		{
			"inputs": [
				{
					"internalType": "uint16",
					"name": "",
					"type": "uint16"
				}
			],
			"name": "trustedRemoteLookup",
			"outputs": [
				{
					"internalType": "bytes",
					"name": "",
					"type": "bytes"
				}
			],
			"stateMutability": "view",
			"type": "function"
		},
		{
			"inputs": [
				{
					"components": [
						{
							"internalType": "string",
							"name": "id",
							"type": "string"
						},
						{
							"internalType": "address",
							"name": "buyUser",
							"type": "address"
						},
						{
							"internalType": "address",
							"name": "sellUser",
							"type": "address"
						},
						{
							"internalType": "uint256[]",
							"name": "balance",
							"type": "uint256[]"
						},
						{
							"internalType": "address[]",
							"name": "coinType",
							"type": "address[]"
						},
						{
							"internalType": "bool",
							"name": "actionType",
							"type": "bool"
						},
						{
							"internalType": "uint256",
							"name": "goodsAmount",
							"type": "uint256"
						},
						{
							"internalType": "address",
							"name": "goodsAddress",
							"type": "address"
						},
						{
							"internalType": "bool",
							"name": "isNegativeforGoods",
							"type": "bool"
						},
						{
							"internalType": "uint256",
							"name": "coinAmount",
							"type": "uint256"
						},
						{
							"internalType": "address",
							"name": "coinAddress",
							"type": "address"
						},
						{
							"internalType": "bool",
							"name": "isNegativeforCoin",
							"type": "bool"
						},
						{
							"internalType": "bool",
							"name": "isNegativeforTransfer",
							"type": "bool"
						},
						{
							"internalType": "uint256",
							"name": "nonce",
							"type": "uint256"
						},
						{
							"internalType": "uint16",
							"name": "orderType",
							"type": "uint16"
						},
						{
							"internalType": "uint256",
							"name": "totalValue",
							"type": "uint256"
						},
						{
							"internalType": "bytes32",
							"name": "messageHashUser",
							"type": "bytes32"
						},
						{
							"internalType": "bytes",
							"name": "signatureUser",
							"type": "bytes"
						},
						{
							"internalType": "bytes32",
							"name": "messageHashNode",
							"type": "bytes32"
						},
						{
							"internalType": "bytes",
							"name": "signatureNode",
							"type": "bytes"
						}
					],
					"internalType": "struct VaultVerificationData.Bill[]",
					"name": "bill_",
					"type": "tuple[]"
				},
				{
					"internalType": "address",
					"name": "user_",
					"type": "address"
				}
			],
			"name": "verificationBook",
			"outputs": [],
			"stateMutability": "nonpayable",
			"type": "function"
		},
		{
			"inputs": [
				{
					"components": [
						{
							"internalType": "address[]",
							"name": "addList",
							"type": "address[]"
						},
						{
							"internalType": "uint256[]",
							"name": "amount",
							"type": "uint256[]"
						},
						{
							"internalType": "bool",
							"name": "coinType",
							"type": "bool"
						},
						{
							"internalType": "address",
							"name": "user",
							"type": "address"
						},
						{
							"internalType": "bytes32",
							"name": "messageHashUser",
							"type": "bytes32"
						},
						{
							"internalType": "bytes",
							"name": "signatureUser",
							"type": "bytes"
						},
						{
							"internalType": "bytes32",
							"name": "messageHashNode",
							"type": "bytes32"
						},
						{
							"internalType": "bytes",
							"name": "signatureNode",
							"type": "bytes"
						}
					],
					"internalType": "struct VaultVerificationData.WithholdingData",
					"name": "data_",
					"type": "tuple"
				}
			],
			"name": "withholding",
			"outputs": [],
			"stateMutability": "nonpayable",
			"type": "function"
		}
	]
}