{
  "_format": "hh-sol-artifact-1",
  "contractName": "VaultData",
  "sourceName": "contracts/L1/data/VaultData.sol",
  "abi": [
    {
      "inputs": [],
      "name": "DEFAULT_ADMIN_ROLE",
      "outputs": [
        {
          "internalType": "bytes32",
          "name": "",
          "type": "bytes32"
        }
      ],
      "stateMutability": "view",
      "type": "function"
    },
    {
      "inputs": [],
      "name": "FEE_ROLE",
      "outputs": [
        {
          "internalType": "bytes32",
          "name": "",
          "type": "bytes32"
        }
      ],
      "stateMutability": "view",
      "type": "function"
    },
    {
      "inputs": [],
      "name": "NODE_ROLE",
      "outputs": [
        {
          "internalType": "bytes32",
          "name": "",
          "type": "bytes32"
        }
      ],
      "stateMutability": "view",
      "type": "function"
    },
    {
      "inputs": [],
      "name": "OWENER_ROLE",
      "outputs": [
        {
          "internalType": "bytes32",
          "name": "",
          "type": "bytes32"
        }
      ],
      "stateMutability": "view",
      "type": "function"
    },
    {
      "inputs": [
        {
          "internalType": "bytes32",
          "name": "",
          "type": "bytes32"
        }
      ],
      "name": "_roles",
      "outputs": [
        {
          "internalType": "bytes32",
          "name": "adminRole",
          "type": "bytes32"
        }
      ],
      "stateMutability": "view",
      "type": "function"
    },
    {
      "inputs": [],
      "name": "aave",
      "outputs": [
        {
          "internalType": "address",
          "name": "",
          "type": "address"
        }
      ],
      "stateMutability": "view",
      "type": "function"
    },
    {
      "inputs": [
        {
          "internalType": "address",
          "name": "",
          "type": "address"
        }
      ],
      "name": "accounts",
      "outputs": [
        {
          "internalType": "address",
          "name": "user",
          "type": "address"
        },
        {
          "internalType": "bytes32",
          "name": "capitalMerkleRoot",
          "type": "bytes32"
        },
        {
          "internalType": "uint256",
          "name": "capitalNonce",
          "type": "uint256"
        },
        {
          "internalType": "bytes32",
          "name": "tradingMerkleRoot",
          "type": "bytes32"
        },
        {
          "internalType": "uint256",
          "name": "tradingNonce",
          "type": "uint256"
        },
        {
          "internalType": "uint256",
          "name": "nativeFee",
          "type": "uint256"
        }
      ],
      "stateMutability": "view",
      "type": "function"
    },
    {
      "inputs": [],
      "name": "adapterParams",
      "outputs": [
        {
          "internalType": "bytes",
          "name": "",
          "type": "bytes"
        }
      ],
      "stateMutability": "view",
      "type": "function"
    },
    {
      "inputs": [],
      "name": "dstChainId",
      "outputs": [
        {
          "internalType": "uint16",
          "name": "",
          "type": "uint16"
        }
      ],
      "stateMutability": "view",
      "type": "function"
    },
    {
      "inputs": [],
      "name": "interest",
      "outputs": [
        {
          "internalType": "address",
          "name": "",
          "type": "address"
        }
      ],
      "stateMutability": "view",
      "type": "function"
    },
    {
      "inputs": [],
      "name": "isOpen",
      "outputs": [
        {
          "internalType": "bool",
          "name": "",
          "type": "bool"
        }
      ],
      "stateMutability": "view",
      "type": "function"
    },
    {
      "inputs": [
        {
          "internalType": "address",
          "name": "",
          "type": "address"
        }
      ],
      "name": "isSupDe",
      "outputs": [
        {
          "internalType": "bool",
          "name": "",
          "type": "bool"
        }
      ],
      "stateMutability": "view",
      "type": "function"
    },
    {
      "inputs": [
        {
          "internalType": "address",
          "name": "",
          "type": "address"
        }
      ],
      "name": "isTrueForCoin",
      "outputs": [
        {
          "internalType": "bool",
          "name": "",
          "type": "bool"
        }
      ],
      "stateMutability": "view",
      "type": "function"
    },
    {
      "inputs": [],
      "name": "usdt",
      "outputs": [
        {
          "internalType": "address",
          "name": "",
          "type": "address"
        }
      ],
      "stateMutability": "view",
      "type": "function"
    }
  ],
  "bytecode": "0x608060405234801561001057600080fd5b50610481806100206000396000f3fe608060405234801561001057600080fd5b50600436106100ba5760003560e01c8063083118d5146100bf57806319fc2e61146100dd5780632a0276f8146101125780632f48ab7d1461013957806330c593f71461016457806347535d7b146101855780634893c26a146101a25780635e5c06e2146101c5578063819faf7b1461024b578063a217fddf1461025e578063bd99d7e114610266578063c392f76614610289578063fb895733146102a2578063ff464d3f146102c9575b600080fd5b6100c76102ec565b6040516100d4919061037a565b60405180910390f35b6101047f52941335797217779ab62cf10a3ae2b6d453b5f3a1285e7a816eb9f63a58d66981565b6040519081526020016100d4565b6101047ff33fe78eb7c840e8bf68670029904b6f0da8e79346941c278a4e7676d473df1581565b600a5461014c906001600160a01b031681565b6040516001600160a01b0390911681526020016100d4565b6000546101729061ffff1681565b60405161ffff90911681526020016100d4565b6006546101929060ff1681565b60405190151581526020016100d4565b6101926101b03660046103c8565b60096020526000908152604090205460ff1681565b6102146101d33660046103c8565b60036020819052600091825260409091208054600182015492820154600483015460068401546007909401546001600160a01b039093169493919290919086565b604080516001600160a01b0390971687526020870195909552938501929092526060840152608083015260a082015260c0016100d4565b60015461014c906001600160a01b031681565b610104600081565b6101046102743660046103f8565b60076020526000908152604090206001015481565b60005461014c906201000090046001600160a01b031681565b6101047f57c872046f094b8a493ec5eb6ea374eafbc3c05951e40de3c4302a41f3f127ba81565b6101926102d73660046103c8565b60046020526000908152604090205460ff1681565b600280546102f990610411565b80601f016020809104026020016040519081016040528092919081815260200182805461032590610411565b80156103725780601f1061034757610100808354040283529160200191610372565b820191906000526020600020905b81548152906001019060200180831161035557829003601f168201915b505050505081565b600060208083528351808285015260005b818110156103a75785810183015185820160400152820161038b565b506000604082860101526040601f19601f8301168501019250505092915050565b6000602082840312156103da57600080fd5b81356001600160a01b03811681146103f157600080fd5b9392505050565b60006020828403121561040a57600080fd5b5035919050565b600181811c9082168061042557607f821691505b60208210810361044557634e487b7160e01b600052602260045260246000fd5b5091905056fea26469706673582212207f5fa9aa55092db5e5088d38054b612d7ba96e5737c81714a749f8002d02073b64736f6c63430008110033",
  "linkReferences": {},
  "deployedLinkReferences": {}
}