{"contracts/L2/data/SmallSettlementData.sol":{"SmallSettlementData":{"abi":[{"inputs":[],"name":"NODE_ROLE","outputs":[{"internalType":"bytes32","name":"","type":"bytes32"}],"stateMutability":"view","type":"function"},{"inputs":[],"name":"OWENER_ROLE","outputs":[{"internalType":"bytes32","name":"","type":"bytes32"}],"stateMutability":"view","type":"function"},{"inputs":[{"internalType":"uint256","name":"","type":"uint256"}],"name":"_coinList","outputs":[{"internalType":"address","name":"","type":"address"}],"stateMutability":"view","type":"function"},{"inputs":[{"internalType":"bytes32","name":"","type":"bytes32"}],"name":"_roles","outputs":[{"internalType":"bytes32","name":"adminRole","type":"bytes32"}],"stateMutability":"view","type":"function"},{"inputs":[{"internalType":"address","name":"","type":"address"}],"name":"accounts","outputs":[{"internalType":"address","name":"user","type":"address"},{"internalType":"bytes32","name":"capitalMerkleRoot","type":"bytes32"},{"internalType":"uint256","name":"capitalNonce","type":"uint256"},{"internalType":"bytes32","name":"tradingMerkleRoot","type":"bytes32"},{"internalType":"uint256","name":"tradingNonce","type":"uint256"}],"stateMutability":"view","type":"function"},{"inputs":[{"internalType":"address","name":"","type":"address"},{"internalType":"address","name":"","type":"address"}],"name":"auobject","outputs":[{"internalType":"bool","name":"","type":"bool"}],"stateMutability":"view","type":"function"},{"inputs":[{"internalType":"address","name":"","type":"address"},{"internalType":"address","name":"","type":"address"}],"name":"budgeCa","outputs":[{"internalType":"uint256","name":"","type":"uint256"}],"stateMutability":"view","type":"function"},{"inputs":[{"internalType":"address","name":"","type":"address"},{"internalType":"address","name":"","type":"address"}],"name":"budgetrd","outputs":[{"internalType":"uint256","name":"","type":"uint256"}],"stateMutability":"view","type":"function"},{"inputs":[{"internalType":"address","name":"","type":"address"},{"internalType":"uint256","name":"","type":"uint256"}],"name":"capitaMRoot","outputs":[{"internalType":"bytes32","name":"","type":"bytes32"}],"stateMutability":"view","type":"function"},{"inputs":[{"internalType":"uint256","name":"","type":"uint256"}],"name":"coinFeeAdd","outputs":[{"internalType":"address","name":"","type":"address"}],"stateMutability":"view","type":"function"},{"inputs":[{"internalType":"address","name":"","type":"address"},{"internalType":"address","name":"","type":"address"}],"name":"deAmountL2","outputs":[{"internalType":"uint256","name":"","type":"uint256"}],"stateMutability":"view","type":"function"},{"inputs":[{"internalType":"string","name":"","type":"string"}],"name":"ids","outputs":[{"internalType":"bool","name":"","type":"bool"}],"stateMutability":"view","type":"function"},{"inputs":[],"name":"interests","outputs":[{"internalType":"address","name":"","type":"address"}],"stateMutability":"view","type":"function"},{"inputs":[{"internalType":"address","name":"","type":"address"}],"name":"isSupDe","outputs":[{"internalType":"bool","name":"","type":"bool"}],"stateMutability":"view","type":"function"},{"inputs":[{"internalType":"address","name":"","type":"address"}],"name":"isTrueForCoin","outputs":[{"internalType":"bool","name":"","type":"bool"}],"stateMutability":"view","type":"function"},{"inputs":[],"name":"largeSettlement","outputs":[{"internalType":"address","name":"","type":"address"}],"stateMutability":"view","type":"function"},{"inputs":[{"internalType":"address","name":"","type":"address"}],"name":"totalFee","outputs":[{"internalType":"uint256","name":"","type":"uint256"}],"stateMutability":"view","type":"function"},{"inputs":[{"internalType":"address","name":"","type":"address"},{"internalType":"uint256","name":"","type":"uint256"}],"name":"tradingMRoot","outputs":[{"internalType":"bytes32","name":"","type":"bytes32"}],"stateMutability":"view","type":"function"}],"devdoc":{"kind":"dev","methods":{},"version":1},"evm":{"bytecode":{"linkReferences":{},"object":"608060405234801561001057600080fd5b506105fd806100206000396000f3fe608060405234801561001057600080fd5b50600436106100e65760003560e01c806314a3db2d146100eb57806319fc2e611461011b5780633657c2931461015057806339a6f16f146101635780634893c26a146101765780634efa685a146101a95780635e5c06e2146101d45780636cadcbd91461024e5780637a4fda3d146102615780638a08677d146102815780639d3089f5146102af578063b886dbcd146102da578063bd99d7e114610305578063c13d2b9e14610328578063ce5c8e141461033b578063f9cad2ac1461034e578063fb8957331461037c578063ff464d3f146103a3575b600080fd5b6003546100fe906001600160a01b031681565b6040516001600160a01b0390911681526020015b60405180910390f35b6101427f52941335797217779ab62cf10a3ae2b6d453b5f3a1285e7a816eb9f63a58d66981565b604051908152602001610112565b6100fe61015e36600461044d565b6103c6565b6100fe61017136600461044d565b6103f0565b610199610184366004610482565b600d6020526000908152604090205460ff1681565b6040519015158152602001610112565b6101426101b73660046104a4565b600860209081526000928352604080842090915290825290205481565b61021c6101e2366004610482565b6006602081905260009182526040909120805460018201546003830154600484015493909401546001600160a01b03909216939092909185565b604080516001600160a01b0390961686526020860194909452928401919091526060830152608082015260a001610112565b61014261025c3660046104d7565b610400565b61014261026f366004610482565b60106020526000908152604090205481565b61019961028f366004610517565b8051602081830181018051600e8252928201919093012091525460ff1681565b6101426102bd3660046104a4565b600b60209081526000928352604080842090915290825290205481565b6101426102e83660046104a4565b600760209081526000928352604080842090915290825290205481565b61014261031336600461044d565b60046020526000908152604090206001015481565b6002546100fe906001600160a01b031681565b6101426103493660046104d7565b610431565b61019961035c3660046104a4565b600560209081526000928352604080842090915290825290205460ff1681565b6101427f57c872046f094b8a493ec5eb6ea374eafbc3c05951e40de3c4302a41f3f127ba81565b6101996103b1366004610482565b600c6020526000908152604090205460ff1681565b600f81815481106103d657600080fd5b6000918252602090912001546001600160a01b0316905081565b600181815481106103d657600080fd5b6009602052816000526040600020818154811061041c57600080fd5b90600052602060002001600091509150505481565b600a602052816000526040600020818154811061041c57600080fd5b60006020828403121561045f57600080fd5b5035919050565b80356001600160a01b038116811461047d57600080fd5b919050565b60006020828403121561049457600080fd5b61049d82610466565b9392505050565b600080604083850312156104b757600080fd5b6104c083610466565b91506104ce60208401610466565b90509250929050565b600080604083850312156104ea57600080fd5b6104f383610466565b946020939093013593505050565b634e487b7160e01b600052604160045260246000fd5b60006020828403121561052957600080fd5b81356001600160401b038082111561054057600080fd5b818401915084601f83011261055457600080fd5b81358181111561056657610566610501565b604051601f8201601f19908116603f0116810190838211818310171561058e5761058e610501565b816040528281528760208487010111156105a757600080fd5b82602086016020830137600092810160200192909252509594505050505056fea26469706673582212209175bfc7244e0e66c9fb8d4eb76adc116c9183bb016221412dbd2cc2437fa89964736f6c63430008110033","opcodes":"PUSH1 0x80 PUSH1 0x40 MSTORE CALLVALUE DUP1 ISZERO PUSH2 0x10 JUMPI PUSH1 0x0 DUP1 REVERT JUMPDEST POP PUSH2 0x5FD DUP1 PUSH2 0x20 PUSH1 0x0 CODECOPY PUSH1 0x0 RETURN INVALID PUSH1 0x80 PUSH1 0x40 MSTORE CALLVALUE DUP1 ISZERO PUSH2 0x10 JUMPI PUSH1 0x0 DUP1 REVERT JUMPDEST POP PUSH1 0x4 CALLDATASIZE LT PUSH2 0xE6 JUMPI PUSH1 0x0 CALLDATALOAD PUSH1 0xE0 SHR DUP1 PUSH4 0x14A3DB2D EQ PUSH2 0xEB JUMPI DUP1 PUSH4 0x19FC2E61 EQ PUSH2 0x11B JUMPI DUP1 PUSH4 0x3657C293 EQ PUSH2 0x150 JUMPI DUP1 PUSH4 0x39A6F16F EQ PUSH2 0x163 JUMPI DUP1 PUSH4 0x4893C26A EQ PUSH2 0x176 JUMPI DUP1 PUSH4 0x4EFA685A EQ PUSH2 0x1A9 JUMPI DUP1 PUSH4 0x5E5C06E2 EQ PUSH2 0x1D4 JUMPI DUP1 PUSH4 0x6CADCBD9 EQ PUSH2 0x24E JUMPI DUP1 PUSH4 0x7A4FDA3D EQ PUSH2 0x261 JUMPI DUP1 PUSH4 0x8A08677D EQ PUSH2 0x281 JUMPI DUP1 PUSH4 0x9D3089F5 EQ PUSH2 0x2AF JUMPI DUP1 PUSH4 0xB886DBCD EQ PUSH2 0x2DA JUMPI DUP1 PUSH4 0xBD99D7E1 EQ PUSH2 0x305 JUMPI DUP1 PUSH4 0xC13D2B9E EQ PUSH2 0x328 JUMPI DUP1 PUSH4 0xCE5C8E14 EQ PUSH2 0x33B JUMPI DUP1 PUSH4 0xF9CAD2AC EQ PUSH2 0x34E JUMPI DUP1 PUSH4 0xFB895733 EQ PUSH2 0x37C JUMPI DUP1 PUSH4 0xFF464D3F EQ PUSH2 0x3A3 JUMPI JUMPDEST PUSH1 0x0 DUP1 REVERT JUMPDEST PUSH1 0x3 SLOAD PUSH2 0xFE SWAP1 PUSH1 0x1 PUSH1 0x1 PUSH1 0xA0 SHL SUB AND DUP2 JUMP JUMPDEST PUSH1 0x40 MLOAD PUSH1 0x1 PUSH1 0x1 PUSH1 0xA0 SHL SUB SWAP1 SWAP2 AND DUP2 MSTORE PUSH1 0x20 ADD JUMPDEST PUSH1 0x40 MLOAD DUP1 SWAP2 SUB SWAP1 RETURN JUMPDEST PUSH2 0x142 PUSH32 0x52941335797217779AB62CF10A3AE2B6D453B5F3A1285E7A816EB9F63A58D669 DUP2 JUMP JUMPDEST PUSH1 0x40 MLOAD SWAP1 DUP2 MSTORE PUSH1 0x20 ADD PUSH2 0x112 JUMP JUMPDEST PUSH2 0xFE PUSH2 0x15E CALLDATASIZE PUSH1 0x4 PUSH2 0x44D JUMP JUMPDEST PUSH2 0x3C6 JUMP JUMPDEST PUSH2 0xFE PUSH2 0x171 CALLDATASIZE PUSH1 0x4 PUSH2 0x44D JUMP JUMPDEST PUSH2 0x3F0 JUMP JUMPDEST PUSH2 0x199 PUSH2 0x184 CALLDATASIZE PUSH1 0x4 PUSH2 0x482 JUMP JUMPDEST PUSH1 0xD PUSH1 0x20 MSTORE PUSH1 0x0 SWAP1 DUP2 MSTORE PUSH1 0x40 SWAP1 KECCAK256 SLOAD PUSH1 0xFF AND DUP2 JUMP JUMPDEST PUSH1 0x40 MLOAD SWAP1 ISZERO ISZERO DUP2 MSTORE PUSH1 0x20 ADD PUSH2 0x112 JUMP JUMPDEST PUSH2 0x142 PUSH2 0x1B7 CALLDATASIZE PUSH1 0x4 PUSH2 0x4A4 JUMP JUMPDEST PUSH1 0x8 PUSH1 0x20 SWAP1 DUP2 MSTORE PUSH1 0x0 SWAP3 DUP4 MSTORE PUSH1 0x40 DUP1 DUP5 KECCAK256 SWAP1 SWAP2 MSTORE SWAP1 DUP3 MSTORE SWAP1 KECCAK256 SLOAD DUP2 JUMP JUMPDEST PUSH2 0x21C PUSH2 0x1E2 CALLDATASIZE PUSH1 0x4 PUSH2 0x482 JUMP JUMPDEST PUSH1 0x6 PUSH1 0x20 DUP2 SWAP1 MSTORE PUSH1 0x0 SWAP2 DUP3 MSTORE PUSH1 0x40 SWAP1 SWAP2 KECCAK256 DUP1 SLOAD PUSH1 0x1 DUP3 ADD SLOAD PUSH1 0x3 DUP4 ADD SLOAD PUSH1 0x4 DUP5 ADD SLOAD SWAP4 SWAP1 SWAP5 ADD SLOAD PUSH1 0x1 PUSH1 0x1 PUSH1 0xA0 SHL SUB SWAP1 SWAP3 AND SWAP4 SWAP1 SWAP3 SWAP1 SWAP2 DUP6 JUMP JUMPDEST PUSH1 0x40 DUP1 MLOAD PUSH1 0x1 PUSH1 0x1 PUSH1 0xA0 SHL SUB SWAP1 SWAP7 AND DUP7 MSTORE PUSH1 0x20 DUP7 ADD SWAP5 SWAP1 SWAP5 MSTORE SWAP3 DUP5 ADD SWAP2 SWAP1 SWAP2 MSTORE PUSH1 0x60 DUP4 ADD MSTORE PUSH1 0x80 DUP3 ADD MSTORE PUSH1 0xA0 ADD PUSH2 0x112 JUMP JUMPDEST PUSH2 0x142 PUSH2 0x25C CALLDATASIZE PUSH1 0x4 PUSH2 0x4D7 JUMP JUMPDEST PUSH2 0x400 JUMP JUMPDEST PUSH2 0x142 PUSH2 0x26F CALLDATASIZE PUSH1 0x4 PUSH2 0x482 JUMP JUMPDEST PUSH1 0x10 PUSH1 0x20 MSTORE PUSH1 0x0 SWAP1 DUP2 MSTORE PUSH1 0x40 SWAP1 KECCAK256 SLOAD DUP2 JUMP JUMPDEST PUSH2 0x199 PUSH2 0x28F CALLDATASIZE PUSH1 0x4 PUSH2 0x517 JUMP JUMPDEST DUP1 MLOAD PUSH1 0x20 DUP2 DUP4 ADD DUP2 ADD DUP1 MLOAD PUSH1 0xE DUP3 MSTORE SWAP3 DUP3 ADD SWAP2 SWAP1 SWAP4 ADD KECCAK256 SWAP2 MSTORE SLOAD PUSH1 0xFF AND DUP2 JUMP JUMPDEST PUSH2 0x142 PUSH2 0x2BD CALLDATASIZE PUSH1 0x4 PUSH2 0x4A4 JUMP JUMPDEST PUSH1 0xB PUSH1 0x20 SWAP1 DUP2 MSTORE PUSH1 0x0 SWAP3 DUP4 MSTORE PUSH1 0x40 DUP1 DUP5 KECCAK256 SWAP1 SWAP2 MSTORE SWAP1 DUP3 MSTORE SWAP1 KECCAK256 SLOAD DUP2 JUMP JUMPDEST PUSH2 0x142 PUSH2 0x2E8 CALLDATASIZE PUSH1 0x4 PUSH2 0x4A4 JUMP JUMPDEST PUSH1 0x7 PUSH1 0x20 SWAP1 DUP2 MSTORE PUSH1 0x0 SWAP3 DUP4 MSTORE PUSH1 0x40 DUP1 DUP5 KECCAK256 SWAP1 SWAP2 MSTORE SWAP1 DUP3 MSTORE SWAP1 KECCAK256 SLOAD DUP2 JUMP JUMPDEST PUSH2 0x142 PUSH2 0x313 CALLDATASIZE PUSH1 0x4 PUSH2 0x44D JUMP JUMPDEST PUSH1 0x4 PUSH1 0x20 MSTORE PUSH1 0x0 SWAP1 DUP2 MSTORE PUSH1 0x40 SWAP1 KECCAK256 PUSH1 0x1 ADD SLOAD DUP2 JUMP JUMPDEST PUSH1 0x2 SLOAD PUSH2 0xFE SWAP1 PUSH1 0x1 PUSH1 0x1 PUSH1 0xA0 SHL SUB AND DUP2 JUMP JUMPDEST PUSH2 0x142 PUSH2 0x349 CALLDATASIZE PUSH1 0x4 PUSH2 0x4D7 JUMP JUMPDEST PUSH2 0x431 JUMP JUMPDEST PUSH2 0x199 PUSH2 0x35C CALLDATASIZE PUSH1 0x4 PUSH2 0x4A4 JUMP JUMPDEST PUSH1 0x5 PUSH1 0x20 SWAP1 DUP2 MSTORE PUSH1 0x0 SWAP3 DUP4 MSTORE PUSH1 0x40 DUP1 DUP5 KECCAK256 SWAP1 SWAP2 MSTORE SWAP1 DUP3 MSTORE SWAP1 KECCAK256 SLOAD PUSH1 0xFF AND DUP2 JUMP JUMPDEST PUSH2 0x142 PUSH32 0x57C872046F094B8A493EC5EB6EA374EAFBC3C05951E40DE3C4302A41F3F127BA DUP2 JUMP JUMPDEST PUSH2 0x199 PUSH2 0x3B1 CALLDATASIZE PUSH1 0x4 PUSH2 0x482 JUMP JUMPDEST PUSH1 0xC PUSH1 0x20 MSTORE PUSH1 0x0 SWAP1 DUP2 MSTORE PUSH1 0x40 SWAP1 KECCAK256 SLOAD PUSH1 0xFF AND DUP2 JUMP JUMPDEST PUSH1 0xF DUP2 DUP2 SLOAD DUP2 LT PUSH2 0x3D6 JUMPI PUSH1 0x0 DUP1 REVERT JUMPDEST PUSH1 0x0 SWAP2 DUP3 MSTORE PUSH1 0x20 SWAP1 SWAP2 KECCAK256 ADD SLOAD PUSH1 0x1 PUSH1 0x1 PUSH1 0xA0 SHL SUB AND SWAP1 POP DUP2 JUMP JUMPDEST PUSH1 0x1 DUP2 DUP2 SLOAD DUP2 LT PUSH2 0x3D6 JUMPI PUSH1 0x0 DUP1 REVERT JUMPDEST PUSH1 0x9 PUSH1 0x20 MSTORE DUP2 PUSH1 0x0 MSTORE PUSH1 0x40 PUSH1 0x0 KECCAK256 DUP2 DUP2 SLOAD DUP2 LT PUSH2 0x41C JUMPI PUSH1 0x0 DUP1 REVERT JUMPDEST SWAP1 PUSH1 0x0 MSTORE PUSH1 0x20 PUSH1 0x0 KECCAK256 ADD PUSH1 0x0 SWAP2 POP SWAP2 POP POP SLOAD DUP2 JUMP JUMPDEST PUSH1 0xA PUSH1 0x20 MSTORE DUP2 PUSH1 0x0 MSTORE PUSH1 0x40 PUSH1 0x0 KECCAK256 DUP2 DUP2 SLOAD DUP2 LT PUSH2 0x41C JUMPI PUSH1 0x0 DUP1 REVERT JUMPDEST PUSH1 0x0 PUSH1 0x20 DUP3 DUP5 SUB SLT ISZERO PUSH2 0x45F JUMPI PUSH1 0x0 DUP1 REVERT JUMPDEST POP CALLDATALOAD SWAP2 SWAP1 POP JUMP JUMPDEST DUP1 CALLDATALOAD PUSH1 0x1 PUSH1 0x1 PUSH1 0xA0 SHL SUB DUP2 AND DUP2 EQ PUSH2 0x47D JUMPI PUSH1 0x0 DUP1 REVERT JUMPDEST SWAP2 SWAP1 POP JUMP JUMPDEST PUSH1 0x0 PUSH1 0x20 DUP3 DUP5 SUB SLT ISZERO PUSH2 0x494 JUMPI PUSH1 0x0 DUP1 REVERT JUMPDEST PUSH2 0x49D DUP3 PUSH2 0x466 JUMP JUMPDEST SWAP4 SWAP3 POP POP POP JUMP JUMPDEST PUSH1 0x0 DUP1 PUSH1 0x40 DUP4 DUP6 SUB SLT ISZERO PUSH2 0x4B7 JUMPI PUSH1 0x0 DUP1 REVERT JUMPDEST PUSH2 0x4C0 DUP4 PUSH2 0x466 JUMP JUMPDEST SWAP2 POP PUSH2 0x4CE PUSH1 0x20 DUP5 ADD PUSH2 0x466 JUMP JUMPDEST SWAP1 POP SWAP3 POP SWAP3 SWAP1 POP JUMP JUMPDEST PUSH1 0x0 DUP1 PUSH1 0x40 DUP4 DUP6 SUB SLT ISZERO PUSH2 0x4EA JUMPI PUSH1 0x0 DUP1 REVERT JUMPDEST PUSH2 0x4F3 DUP4 PUSH2 0x466 JUMP JUMPDEST SWAP5 PUSH1 0x20 SWAP4 SWAP1 SWAP4 ADD CALLDATALOAD SWAP4 POP POP POP JUMP JUMPDEST PUSH4 0x4E487B71 PUSH1 0xE0 SHL PUSH1 0x0 MSTORE PUSH1 0x41 PUSH1 0x4 MSTORE PUSH1 0x24 PUSH1 0x0 REVERT JUMPDEST PUSH1 0x0 PUSH1 0x20 DUP3 DUP5 SUB SLT ISZERO PUSH2 0x529 JUMPI PUSH1 0x0 DUP1 REVERT JUMPDEST DUP2 CALLDATALOAD PUSH1 0x1 PUSH1 0x1 PUSH1 0x40 SHL SUB DUP1 DUP3 GT ISZERO PUSH2 0x540 JUMPI PUSH1 0x0 DUP1 REVERT JUMPDEST DUP2 DUP5 ADD SWAP2 POP DUP5 PUSH1 0x1F DUP4 ADD SLT PUSH2 0x554 JUMPI PUSH1 0x0 DUP1 REVERT JUMPDEST DUP2 CALLDATALOAD DUP2 DUP2 GT ISZERO PUSH2 0x566 JUMPI PUSH2 0x566 PUSH2 0x501 JUMP JUMPDEST PUSH1 0x40 MLOAD PUSH1 0x1F DUP3 ADD PUSH1 0x1F NOT SWAP1 DUP2 AND PUSH1 0x3F ADD AND DUP2 ADD SWAP1 DUP4 DUP3 GT DUP2 DUP4 LT OR ISZERO PUSH2 0x58E JUMPI PUSH2 0x58E PUSH2 0x501 JUMP JUMPDEST DUP2 PUSH1 0x40 MSTORE DUP3 DUP2 MSTORE DUP8 PUSH1 0x20 DUP5 DUP8 ADD ADD GT ISZERO PUSH2 0x5A7 JUMPI PUSH1 0x0 DUP1 REVERT JUMPDEST DUP3 PUSH1 0x20 DUP7 ADD PUSH1 0x20 DUP4 ADD CALLDATACOPY PUSH1 0x0 SWAP3 DUP2 ADD PUSH1 0x20 ADD SWAP3 SWAP1 SWAP3 MSTORE POP SWAP6 SWAP5 POP POP POP POP POP JUMP INVALID LOG2 PUSH5 0x6970667358 0x22 SLT KECCAK256 SWAP2 PUSH22 0xBFC7244E0E66C9FB8D4EB76ADC116C9183BB01622141 0x2D 0xBD 0x2C 0xC2 NUMBER PUSH32 0xA89964736F6C6343000811003300000000000000000000000000000000000000 "},"gasEstimates":{"creation":{"codeDepositCost":"306600","executionCost":"343","totalCost":"306943"},"external":{"NODE_ROLE()":"525","OWENER_ROLE()":"195","_coinList(uint256)":"2047","_roles(bytes32)":"1386","accounts(address)":"4721","auobject(address,address)":"infinite","budgeCa(address,address)":"infinite","budgetrd(address,address)":"infinite","capitaMRoot(address,uint256)":"2276","coinFeeAdd(uint256)":"2025","deAmountL2(address,address)":"infinite","ids(string)":"infinite","interests()":"1004","isSupDe(address)":"1583","isTrueForCoin(address)":"1297","largeSettlement()":"1290","totalFee(address)":"1373","tradingMRoot(address,uint256)":"2430"}},"methodIdentifiers":{"NODE_ROLE()":"fb895733","OWENER_ROLE()":"19fc2e61","_coinList(uint256)":"39a6f16f","_roles(bytes32)":"bd99d7e1","accounts(address)":"5e5c06e2","auobject(address,address)":"f9cad2ac","budgeCa(address,address)":"b886dbcd","budgetrd(address,address)":"4efa685a","capitaMRoot(address,uint256)":"6cadcbd9","coinFeeAdd(uint256)":"3657c293","deAmountL2(address,address)":"9d3089f5","ids(string)":"8a08677d","interests()":"14a3db2d","isSupDe(address)":"ff464d3f","isTrueForCoin(address)":"4893c26a","largeSettlement()":"c13d2b9e","totalFee(address)":"7a4fda3d","tradingMRoot(address,uint256)":"ce5c8e14"}},"storageLayout":{"storage":[{"astId":2748,"contract":"contracts/L2/data/SmallSettlementData.sol:SmallSettlementData","label":"_isOpen","offset":0,"slot":"0","type":"t_bool"},{"astId":2751,"contract":"contracts/L2/data/SmallSettlementData.sol:SmallSettlementData","label":"_coinList","offset":0,"slot":"1","type":"t_array(t_address)dyn_storage"},{"astId":2753,"contract":"contracts/L2/data/SmallSettlementData.sol:SmallSettlementData","label":"largeSettlement","offset":0,"slot":"2","type":"t_address"},{"astId":2755,"contract":"contracts/L2/data/SmallSettlementData.sol:SmallSettlementData","label":"interests","offset":0,"slot":"3","type":"t_address"},{"astId":2760,"contract":"contracts/L2/data/SmallSettlementData.sol:SmallSettlementData","label":"_roles","offset":0,"slot":"4","type":"t_mapping(t_bytes32,t_struct(RoleData)2697_storage)"},{"astId":2766,"contract":"contracts/L2/data/SmallSettlementData.sol:SmallSettlementData","label":"auobject","offset":0,"slot":"5","type":"t_mapping(t_address,t_mapping(t_address,t_bool))"},{"astId":2771,"contract":"contracts/L2/data/SmallSettlementData.sol:SmallSettlementData","label":"accounts","offset":0,"slot":"6","type":"t_mapping(t_address,t_struct(Account)2716_storage)"},{"astId":2777,"contract":"contracts/L2/data/SmallSettlementData.sol:SmallSettlementData","label":"budgeCa","offset":0,"slot":"7","type":"t_mapping(t_address,t_mapping(t_address,t_uint256))"},{"astId":2783,"contract":"contracts/L2/data/SmallSettlementData.sol:SmallSettlementData","label":"budgetrd","offset":0,"slot":"8","type":"t_mapping(t_address,t_mapping(t_address,t_uint256))"},{"astId":2788,"contract":"contracts/L2/data/SmallSettlementData.sol:SmallSettlementData","label":"capitaMRoot","offset":0,"slot":"9","type":"t_mapping(t_address,t_array(t_bytes32)dyn_storage)"},{"astId":2793,"contract":"contracts/L2/data/SmallSettlementData.sol:SmallSettlementData","label":"tradingMRoot","offset":0,"slot":"10","type":"t_mapping(t_address,t_array(t_bytes32)dyn_storage)"},{"astId":2799,"contract":"contracts/L2/data/SmallSettlementData.sol:SmallSettlementData","label":"deAmountL2","offset":0,"slot":"11","type":"t_mapping(t_address,t_mapping(t_address,t_uint256))"},{"astId":2803,"contract":"contracts/L2/data/SmallSettlementData.sol:SmallSettlementData","label":"isSupDe","offset":0,"slot":"12","type":"t_mapping(t_address,t_bool)"},{"astId":2807,"contract":"contracts/L2/data/SmallSettlementData.sol:SmallSettlementData","label":"isTrueForCoin","offset":0,"slot":"13","type":"t_mapping(t_address,t_bool)"},{"astId":2811,"contract":"contracts/L2/data/SmallSettlementData.sol:SmallSettlementData","label":"ids","offset":0,"slot":"14","type":"t_mapping(t_string_memory_ptr,t_bool)"},{"astId":2875,"contract":"contracts/L2/data/SmallSettlementData.sol:SmallSettlementData","label":"coinFeeAdd","offset":0,"slot":"15","type":"t_array(t_address)dyn_storage"},{"astId":2879,"contract":"contracts/L2/data/SmallSettlementData.sol:SmallSettlementData","label":"totalFee","offset":0,"slot":"16","type":"t_mapping(t_address,t_uint256)"}],"types":{"t_address":{"encoding":"inplace","label":"address","numberOfBytes":"20"},"t_array(t_address)dyn_storage":{"base":"t_address","encoding":"dynamic_array","label":"address[]","numberOfBytes":"32"},"t_array(t_bytes32)dyn_storage":{"base":"t_bytes32","encoding":"dynamic_array","label":"bytes32[]","numberOfBytes":"32"},"t_bool":{"encoding":"inplace","label":"bool","numberOfBytes":"1"},"t_bytes32":{"encoding":"inplace","label":"bytes32","numberOfBytes":"32"},"t_mapping(t_address,t_array(t_bytes32)dyn_storage)":{"encoding":"mapping","key":"t_address","label":"mapping(address => bytes32[])","numberOfBytes":"32","value":"t_array(t_bytes32)dyn_storage"},"t_mapping(t_address,t_bool)":{"encoding":"mapping","key":"t_address","label":"mapping(address => bool)","numberOfBytes":"32","value":"t_bool"},"t_mapping(t_address,t_mapping(t_address,t_bool))":{"encoding":"mapping","key":"t_address","label":"mapping(address => mapping(address => bool))","numberOfBytes":"32","value":"t_mapping(t_address,t_bool)"},"t_mapping(t_address,t_mapping(t_address,t_uint256))":{"encoding":"mapping","key":"t_address","label":"mapping(address => mapping(address => uint256))","numberOfBytes":"32","value":"t_mapping(t_address,t_uint256)"},"t_mapping(t_address,t_struct(Account)2716_storage)":{"encoding":"mapping","key":"t_address","label":"mapping(address => struct SmallSettlementData.Account)","numberOfBytes":"32","value":"t_struct(Account)2716_storage"},"t_mapping(t_address,t_uint256)":{"encoding":"mapping","key":"t_address","label":"mapping(address => uint256)","numberOfBytes":"32","value":"t_uint256"},"t_mapping(t_bytes32,t_struct(RoleData)2697_storage)":{"encoding":"mapping","key":"t_bytes32","label":"mapping(bytes32 => struct SmallSettlementData.RoleData)","numberOfBytes":"32","value":"t_struct(RoleData)2697_storage"},"t_mapping(t_string_memory_ptr,t_bool)":{"encoding":"mapping","key":"t_string_memory_ptr","label":"mapping(string => bool)","numberOfBytes":"32","value":"t_bool"},"t_string_memory_ptr":{"encoding":"bytes","label":"string","numberOfBytes":"32"},"t_struct(Account)2716_storage":{"encoding":"inplace","label":"struct SmallSettlementData.Account","members":[{"astId":2699,"contract":"contracts/L2/data/SmallSettlementData.sol:SmallSettlementData","label":"user","offset":0,"slot":"0","type":"t_address"},{"astId":2701,"contract":"contracts/L2/data/SmallSettlementData.sol:SmallSettlementData","label":"capitalMerkleRoot","offset":0,"slot":"1","type":"t_bytes32"},{"astId":2705,"contract":"contracts/L2/data/SmallSettlementData.sol:SmallSettlementData","label":"capitalBalance","offset":0,"slot":"2","type":"t_mapping(t_address,t_uint256)"},{"astId":2707,"contract":"contracts/L2/data/SmallSettlementData.sol:SmallSettlementData","label":"capitalNonce","offset":0,"slot":"3","type":"t_uint256"},{"astId":2709,"contract":"contracts/L2/data/SmallSettlementData.sol:SmallSettlementData","label":"tradingMerkleRoot","offset":0,"slot":"4","type":"t_bytes32"},{"astId":2713,"contract":"contracts/L2/data/SmallSettlementData.sol:SmallSettlementData","label":"tradingBalance","offset":0,"slot":"5","type":"t_mapping(t_address,t_uint256)"},{"astId":2715,"contract":"contracts/L2/data/SmallSettlementData.sol:SmallSettlementData","label":"tradingNonce","offset":0,"slot":"6","type":"t_uint256"}],"numberOfBytes":"224"},"t_struct(RoleData)2697_storage":{"encoding":"inplace","label":"struct SmallSettlementData.RoleData","members":[{"astId":2694,"contract":"contracts/L2/data/SmallSettlementData.sol:SmallSettlementData","label":"members","offset":0,"slot":"0","type":"t_mapping(t_address,t_bool)"},{"astId":2696,"contract":"contracts/L2/data/SmallSettlementData.sol:SmallSettlementData","label":"adminRole","offset":0,"slot":"1","type":"t_bytes32"}],"numberOfBytes":"64"},"t_uint256":{"encoding":"inplace","label":"uint256","numberOfBytes":"32"}}},"userdoc":{"kind":"user","methods":{},"version":1}}}}