{"contracts/L2/SmallSettlement.sol":{"SmallSettlement":{"abi":[{"inputs":[],"stateMutability":"nonpayable","type":"constructor"},{"anonymous":false,"inputs":[{"indexed":true,"internalType":"address","name":"previousOwner","type":"address"},{"indexed":true,"internalType":"address","name":"newOwner","type":"address"}],"name":"OwnershipTransferStarted","type":"event"},{"anonymous":false,"inputs":[{"indexed":true,"internalType":"address","name":"previousOwner","type":"address"},{"indexed":true,"internalType":"address","name":"newOwner","type":"address"}],"name":"OwnershipTransferred","type":"event"},{"anonymous":false,"inputs":[{"indexed":false,"internalType":"address","name":"user_","type":"address"},{"indexed":false,"internalType":"address[]","name":"coinType_","type":"address[]"},{"indexed":false,"internalType":"uint256[]","name":"balance","type":"uint256[]"}],"name":"evenTransferOfFunds","type":"event"},{"anonymous":false,"inputs":[{"indexed":false,"internalType":"address","name":"whiteAddress_","type":"address"}],"name":"eventSetwhiteLlist","type":"event"},{"anonymous":false,"inputs":[],"name":"eventVerificationBook","type":"event"},{"anonymous":false,"inputs":[],"name":"eventVerificationBookFoTrade","type":"event"},{"anonymous":false,"inputs":[{"indexed":false,"internalType":"address[]","name":"addList","type":"address[]"},{"indexed":false,"internalType":"uint256[]","name":"amount","type":"uint256[]"},{"indexed":false,"internalType":"bool","name":"coinType","type":"bool"},{"indexed":false,"internalType":"address","name":"user","type":"address"}],"name":"eventWithholding","type":"event"},{"inputs":[],"name":"NODE_ROLE","outputs":[{"internalType":"bytes32","name":"","type":"bytes32"}],"stateMutability":"view","type":"function"},{"inputs":[],"name":"OWENER_ROLE","outputs":[{"internalType":"bytes32","name":"","type":"bytes32"}],"stateMutability":"view","type":"function"},{"inputs":[{"internalType":"bytes32","name":"left","type":"bytes32"},{"internalType":"bytes32","name":"right","type":"bytes32"}],"name":"_buildMerkleTree","outputs":[{"internalType":"bytes32","name":"","type":"bytes32"}],"stateMutability":"pure","type":"function"},{"inputs":[{"internalType":"uint256","name":"","type":"uint256"}],"name":"_coinList","outputs":[{"internalType":"address","name":"","type":"address"}],"stateMutability":"view","type":"function"},{"inputs":[{"internalType":"bytes32","name":"","type":"bytes32"}],"name":"_roles","outputs":[{"internalType":"bytes32","name":"adminRole","type":"bytes32"}],"stateMutability":"view","type":"function"},{"inputs":[],"name":"acceptOwnership","outputs":[],"stateMutability":"nonpayable","type":"function"},{"inputs":[{"internalType":"address","name":"","type":"address"}],"name":"accounts","outputs":[{"internalType":"address","name":"user","type":"address"},{"internalType":"bytes32","name":"capitalMerkleRoot","type":"bytes32"},{"internalType":"uint256","name":"capitalNonce","type":"uint256"},{"internalType":"bytes32","name":"tradingMerkleRoot","type":"bytes32"},{"internalType":"uint256","name":"tradingNonce","type":"uint256"}],"stateMutability":"view","type":"function"},{"inputs":[{"internalType":"address","name":"","type":"address"},{"internalType":"address","name":"","type":"address"}],"name":"auobject","outputs":[{"internalType":"bool","name":"","type":"bool"}],"stateMutability":"view","type":"function"},{"inputs":[{"internalType":"address","name":"","type":"address"},{"internalType":"address","name":"","type":"address"}],"name":"budgeCa","outputs":[{"internalType":"uint256","name":"","type":"uint256"}],"stateMutability":"view","type":"function"},{"inputs":[{"internalType":"address","name":"","type":"address"},{"internalType":"address","name":"","type":"address"}],"name":"budgetrd","outputs":[{"internalType":"uint256","name":"","type":"uint256"}],"stateMutability":"view","type":"function"},{"inputs":[{"internalType":"address","name":"","type":"address"},{"internalType":"uint256","name":"","type":"uint256"}],"name":"capitaMRoot","outputs":[{"internalType":"bytes32","name":"","type":"bytes32"}],"stateMutability":"view","type":"function"},{"inputs":[{"internalType":"uint256","name":"","type":"uint256"}],"name":"coinFeeAdd","outputs":[{"internalType":"address","name":"","type":"address"}],"stateMutability":"view","type":"function"},{"inputs":[{"internalType":"address","name":"","type":"address"}],"name":"coinFeeMa","outputs":[{"internalType":"bool","name":"","type":"bool"}],"stateMutability":"view","type":"function"},{"inputs":[{"internalType":"uint256","name":"index","type":"uint256"}],"name":"coinList","outputs":[{"internalType":"address","name":"","type":"address"}],"stateMutability":"view","type":"function"},{"inputs":[],"name":"coinListLength","outputs":[{"internalType":"uint256","name":"","type":"uint256"}],"stateMutability":"view","type":"function"},{"inputs":[{"internalType":"address","name":"","type":"address"},{"internalType":"address","name":"","type":"address"}],"name":"deAmountL2","outputs":[{"internalType":"uint256","name":"","type":"uint256"}],"stateMutability":"view","type":"function"},{"inputs":[{"internalType":"address","name":"address_","type":"address"},{"internalType":"address","name":"type_","type":"address"}],"name":"getAccount","outputs":[{"internalType":"address","name":"","type":"address"},{"internalType":"bytes32","name":"","type":"bytes32"},{"internalType":"bytes32","name":"","type":"bytes32"},{"internalType":"uint256","name":"","type":"uint256"},{"internalType":"uint256","name":"","type":"uint256"},{"internalType":"uint256","name":"","type":"uint256"}],"stateMutability":"view","type":"function"},{"inputs":[],"name":"getCoinFeeAdd","outputs":[{"internalType":"address[]","name":"","type":"address[]"}],"stateMutability":"view","type":"function"},{"inputs":[],"name":"getCoinList","outputs":[{"internalType":"address[]","name":"","type":"address[]"}],"stateMutability":"view","type":"function"},{"inputs":[{"internalType":"address","name":"user_","type":"address"}],"name":"getData","outputs":[{"components":[{"internalType":"address","name":"user","type":"address"},{"internalType":"bytes32","name":"capitaMerkleRoot","type":"bytes32"},{"internalType":"uint256","name":"totalShares","type":"uint256"},{"internalType":"uint256","name":"shares","type":"uint256"},{"internalType":"uint256","name":"nativeFee","type":"uint256"}],"internalType":"struct SmallSettlementData.OutData","name":"","type":"tuple"}],"stateMutability":"view","type":"function"},{"inputs":[{"internalType":"address","name":"address_","type":"address"}],"name":"getNonce","outputs":[{"internalType":"uint256","name":"","type":"uint256"},{"internalType":"uint256","name":"","type":"uint256"}],"stateMutability":"view","type":"function"},{"inputs":[{"internalType":"address","name":"add_","type":"address"}],"name":"getTotalFee","outputs":[{"internalType":"uint256","name":"","type":"uint256"}],"stateMutability":"view","type":"function"},{"inputs":[{"internalType":"bytes32","name":"role","type":"bytes32"},{"internalType":"address","name":"account","type":"address"}],"name":"hasRole","outputs":[{"internalType":"bool","name":"","type":"bool"}],"stateMutability":"view","type":"function"},{"inputs":[{"internalType":"bytes32","name":"message","type":"bytes32"}],"name":"hashMessage","outputs":[{"internalType":"bytes32","name":"messageHash","type":"bytes32"}],"stateMutability":"pure","type":"function"},{"inputs":[{"internalType":"string","name":"","type":"string"}],"name":"ids","outputs":[{"internalType":"bool","name":"","type":"bool"}],"stateMutability":"view","type":"function"},{"inputs":[],"name":"interests","outputs":[{"internalType":"address","name":"","type":"address"}],"stateMutability":"view","type":"function"},{"inputs":[],"name":"isOpen","outputs":[{"internalType":"bool","name":"","type":"bool"}],"stateMutability":"view","type":"function"},{"inputs":[{"internalType":"address","name":"","type":"address"}],"name":"isSupDe","outputs":[{"internalType":"bool","name":"","type":"bool"}],"stateMutability":"view","type":"function"},{"inputs":[{"internalType":"address","name":"","type":"address"}],"name":"isTrueForCoin","outputs":[{"internalType":"bool","name":"","type":"bool"}],"stateMutability":"view","type":"function"},{"inputs":[],"name":"largeSettlement","outputs":[{"internalType":"address","name":"","type":"address"}],"stateMutability":"view","type":"function"},{"inputs":[],"name":"owner","outputs":[{"internalType":"address","name":"","type":"address"}],"stateMutability":"view","type":"function"},{"inputs":[],"name":"pendingOwner","outputs":[{"internalType":"address","name":"","type":"address"}],"stateMutability":"view","type":"function"},{"inputs":[],"name":"renounceOwnership","outputs":[],"stateMutability":"nonpayable","type":"function"},{"inputs":[{"internalType":"address","name":"user_","type":"address"},{"internalType":"address","name":"coinAdd_","type":"address"},{"internalType":"uint256","name":"amount_","type":"uint256"},{"internalType":"uint256","name":"amount2_","type":"uint256"},{"internalType":"bool","name":"re_","type":"bool"}],"name":"setAccount","outputs":[],"stateMutability":"nonpayable","type":"function"},{"inputs":[{"internalType":"address","name":"user_","type":"address"},{"internalType":"bool","name":"re_","type":"bool"},{"internalType":"address","name":"auObject_","type":"address"},{"internalType":"bytes32","name":"messageHas_","type":"bytes32"},{"internalType":"bytes","name":"signature_","type":"bytes"}],"name":"setAuobject","outputs":[],"stateMutability":"nonpayable","type":"function"},{"inputs":[{"internalType":"address","name":"re_","type":"address"}],"name":"setInterests","outputs":[],"stateMutability":"nonpayable","type":"function"},{"inputs":[{"internalType":"bool","name":"re_","type":"bool"}],"name":"setIsOpen","outputs":[],"stateMutability":"nonpayable","type":"function"},{"inputs":[{"internalType":"address","name":"largeSettlement_","type":"address"}],"name":"setLargeSettlement","outputs":[],"stateMutability":"nonpayable","type":"function"},{"inputs":[{"internalType":"address","name":"add_","type":"address"},{"internalType":"bool","name":"re_","type":"bool"}],"name":"setSupDe","outputs":[],"stateMutability":"nonpayable","type":"function"},{"inputs":[{"internalType":"address","name":"add_","type":"address"}],"name":"setTotalFee","outputs":[],"stateMutability":"nonpayable","type":"function"},{"inputs":[{"internalType":"address","name":"add","type":"address"}],"name":"setWhilLlist","outputs":[],"stateMutability":"nonpayable","type":"function"},{"inputs":[{"internalType":"address","name":"","type":"address"}],"name":"totalFee","outputs":[{"internalType":"uint256","name":"","type":"uint256"}],"stateMutability":"view","type":"function"},{"inputs":[{"internalType":"address","name":"","type":"address"},{"internalType":"uint256","name":"","type":"uint256"}],"name":"tradingMRoot","outputs":[{"internalType":"bytes32","name":"","type":"bytes32"}],"stateMutability":"view","type":"function"},{"inputs":[{"internalType":"address","name":"newOwner","type":"address"}],"name":"transferOwnership","outputs":[],"stateMutability":"nonpayable","type":"function"},{"inputs":[{"components":[{"internalType":"string","name":"id","type":"string"},{"internalType":"address","name":"user","type":"address"},{"internalType":"uint256[]","name":"balance","type":"uint256[]"},{"internalType":"address[]","name":"coinType","type":"address[]"},{"internalType":"bool","name":"actionType","type":"bool"},{"internalType":"uint256","name":"coinAmount","type":"uint256"},{"internalType":"address","name":"coinAddress","type":"address"},{"internalType":"bool","name":"isNegative","type":"bool"},{"internalType":"bool","name":"isNegativeforTransfer","type":"bool"},{"internalType":"uint256","name":"nonce","type":"uint256"},{"internalType":"uint16","name":"orderType","type":"uint16"},{"internalType":"bytes32","name":"messageHash","type":"bytes32"},{"internalType":"bytes","name":"signature","type":"bytes"}],"internalType":"struct SmallSettlementData.Bill[]","name":"bill_","type":"tuple[]"},{"internalType":"address","name":"user_","type":"address"}],"name":"verificationBook","outputs":[],"stateMutability":"nonpayable","type":"function"},{"inputs":[{"components":[{"components":[{"internalType":"string","name":"id","type":"string"},{"internalType":"address","name":"user","type":"address"},{"internalType":"uint256","name":"goodsAmount","type":"uint256"},{"internalType":"address","name":"goodsAddress","type":"address"},{"internalType":"bool","name":"isNegativeforGoods","type":"bool"},{"internalType":"uint256","name":"coinAmount","type":"uint256"},{"internalType":"address","name":"coinAddress","type":"address"},{"internalType":"bool","name":"isNegativeforCoin","type":"bool"},{"internalType":"uint256","name":"fee","type":"uint256"},{"internalType":"address","name":"feeCoin","type":"address"},{"internalType":"uint256","name":"nonce","type":"uint256"},{"internalType":"bytes32","name":"messageHash","type":"bytes32"},{"internalType":"bytes","name":"signature","type":"bytes"}],"internalType":"struct SmallSettlementData.TradeBill[]","name":"bill","type":"tuple[]"}],"internalType":"struct SmallSettlementData.TradeBills[]","name":"tradeBills","type":"tuple[]"}],"name":"verificationBookFoTrade","outputs":[],"stateMutability":"nonpayable","type":"function"},{"inputs":[{"internalType":"bytes32","name":"messageHash","type":"bytes32"},{"internalType":"bytes","name":"signature","type":"bytes"}],"name":"verifyEcrecover","outputs":[{"internalType":"address","name":"","type":"address"}],"stateMutability":"pure","type":"function"},{"inputs":[{"components":[{"internalType":"address[]","name":"addList","type":"address[]"},{"internalType":"uint256[]","name":"amount","type":"uint256[]"},{"internalType":"bool","name":"coinType","type":"bool"},{"internalType":"address","name":"user","type":"address"},{"internalType":"bytes32","name":"messageHashUser","type":"bytes32"},{"internalType":"bytes","name":"signatureUser","type":"bytes"},{"internalType":"bytes32","name":"messageHashNode","type":"bytes32"},{"internalType":"bytes","name":"signatureNode","type":"bytes"}],"internalType":"struct SmallSettlementData.WithholdingData","name":"data_","type":"tuple"}],"name":"withholding","outputs":[],"stateMutability":"nonpayable","type":"function"}],"devdoc":{"kind":"dev","methods":{"acceptOwnership()":{"details":"The new owner accepts the ownership transfer."},"owner()":{"details":"Returns the address of the current owner."},"pendingOwner()":{"details":"Returns the address of the pending owner."},"renounceOwnership()":{"details":"Leaves the contract without owner. It will not be possible to call `onlyOwner` functions anymore. Can only be called by the current owner. NOTE: Renouncing ownership will leave the contract without an owner, thereby removing any functionality that is only available to the owner."},"transferOwnership(address)":{"details":"Starts the ownership transfer of the contract to a new account. Replaces the pending transfer if there is one. Can only be called by the current owner."}},"version":1},"evm":{"bytecode":{"linkReferences":{},"object":"60806040523480156200001157600080fd5b506200001d3362000062565b620000497f52941335797217779ab62cf10a3ae2b6d453b5f3a1285e7a816eb9f63a58d669336200008c565b6001805460ff60a01b1916600160a01b17905562000148565b600180546001600160a01b031916905562000089816200009c602090811b62001ce117901c565b50565b620000988282620000ec565b5050565b600080546001600160a01b038381166001600160a01b0319831681178455604051919092169283917f8be0079c531659141344cd1fd0a4f28419497f9722a3daafe3b4186f6b6457e09190a35050565b60008281526005602090815260408083206001600160a01b038516845290915290205460ff16620000985760008281526005602090815260408083206001600160a01b03851684529091529020805460ff191660011790555050565b6155d080620001586000396000f3fe608060405234801561001057600080fd5b50600436106102305760003560e01c8063085a10cf146102355780630ae35e5c1461024a5780630b857a471461025d57806314a3db2d146102705780631715fab014610299578063176060de146102ab57806319fc2e61146102be5780632428d38f146102e55780632d0335ab1461031857806331c329e6146103615780633657c2931461037657806338266b221461038957806339a6f16f146103e257806347535d7b146103f55780634893c26a146104075780634ab81ce91461042a5780634efa685a1461043d57806350414c35146104685780635e5c06e21461047b5780636cadcbd9146104f4578063715018a61461050757806379ba50971461050f5780637a4fda3d146105175780638a08677d146105375780638c232838146105655780638da5cb5b1461058e5780638dfad5971461059657806391d148541461059e57806398ea1f1f146105b15780639d3089f5146105c4578063a304dcf4146105ef578063a69e586214610602578063b273f20714610615578063b3cb890f14610628578063b886dbcd1461063b578063bbb9233714610666578063bd99d7e114610679578063bfef22ac1461069c578063c13d2b9e146106af578063ce5c8e14146106c2578063e251e96d146106d5578063e30c3978146106e8578063e3c808bc146106f0578063f2fde38b14610703578063f9cad2ac14610716578063fb89573314610744578063fd59084714610759578063ff464d3f146107ec575b600080fd5b6102486102433660046145c1565b61080f565b005b6102486102583660046145fc565b610835565b61024861026b36600461475d565b61085f565b600454610283906001600160a01b031681565b60405161029091906149f3565b60405180910390f35b6002545b604051908152602001610290565b6102486102b9366004614a07565b610a7b565b61029d7f52941335797217779ab62cf10a3ae2b6d453b5f3a1285e7a816eb9f63a58d66981565b6103086102f33660046145fc565b60126020526000908152604090205460ff1681565b6040519015158152602001610290565b61034c6103263660046145fc565b6001600160a01b0316600090815260076020526040902060038101546006909101549091565b60408051928352602083019190915201610290565b610369610bb6565b6040516102909190614ac5565b610283610384366004614ad8565b610c18565b61039c6103973660046145fc565b610c42565b604051610290919081516001600160a01b031681526020808301519082015260408083015190820152606080830151908201526080918201519181019190915260a00190565b6102836103f0366004614ad8565b610dfe565b600154600160a01b900460ff16610308565b6103086104153660046145fc565b600e6020526000908152604090205460ff1681565b610248610438366004614bcb565b610e0e565b61029d61044b366004614dc4565b600960209081526000928352604080842090915290825290205481565b610283610476366004614ad8565b61117e565b6104c26104893660046145fc565b600760205260009081526040902080546001820154600383015460048401546006909401546001600160a01b0390931693919290919085565b604080516001600160a01b0390961686526020860194909452928401919091526060830152608082015260a001610290565b61029d610502366004614df7565b6111ae565b6102486111df565b6102486111f3565b61029d6105253660046145fc565b60116020526000908152604090205481565b610308610545366004614e21565b8051602081830181018051600f8252928201919093012091525460ff1681565b61029d6105733660046145fc565b6001600160a01b031660009081526011602052604090205490565b610283611271565b610369611280565b6103086105ac366004614e5d565b6112e0565b6102486105bf366004614e80565b61130d565b61029d6105d2366004614dc4565b600c60209081526000928352604080842090915290825290205481565b6102486105fd366004614edb565b6113f1565b6102486106103660046145fc565b611424565b610283610623366004614f12565b61144e565b61029d610636366004614ad8565b6114db565b61029d610649366004614dc4565b600860209081526000928352604080842090915290825290205481565b6102486106743660046145fc565b61152d565b61029d610687366004614ad8565b60056020526000908152604090206001015481565b6102486106aa366004614f58565b611571565b600354610283906001600160a01b031681565b61029d6106d0366004614df7565b611b9d565b6102486106e33660046145fc565b611bb9565b610283611bd9565b61029d6106fe366004615067565b611be8565b6102486107113660046145fc565b611c7b565b610308610724366004614dc4565b600660209081526000928352604080842090915290825290205460ff1681565b61029d60008051602061557b83398151915281565b6107b5610767366004614dc4565b6001600160a01b038281166000908152600760209081526040808320600181015460048201549690951684526002810183528184205460038201546005909201909352922054949592949092565b604080516001600160a01b0390971687526020870195909552938501929092526060840152608083015260a082015260c001610290565b6103086107fa3660046145fc565b600d6020526000908152604090205460ff1681565b610817611d31565b60018054911515600160a01b0260ff60a01b19909216919091179055565b61083d611d31565b600380546001600160a01b0319166001600160a01b0392909216919091179055565b61087760008051602061557b833981519152336112e0565b61089c5760405162461bcd60e51b815260040161089390615089565b60405180910390fd5b60008151116108ea5760405162461bcd60e51b815260206004820152601a6024820152793a3930b232a134b63639903632b733ba341034b99032b93937b960311b6044820152606401610893565b600360009054906101000a90046001600160a01b03166001600160a01b031663d085835a6040518163ffffffff1660e01b8152600401602060405180830381865afa15801561093d573d6000803e3d6000fd5b505050506040513d601f19601f8201168201806040525081019061096191906150bb565b1561097e5760405162461bcd60e51b8152600401610893906150d8565b600360009054906101000a90046001600160a01b03166001600160a01b031663fe4388a86040518163ffffffff1660e01b8152600401600060405180830381600087803b1580156109ce57600080fd5b505af11580156109e2573d6000803e3d6000fd5b5050505060005b8151811015610a4e57610a14828281518110610a0757610a07615106565b6020026020010151611d90565b610a36828281518110610a2957610a29615106565b6020026020010151612331565b50505050508080610a4690615132565b9150506109e9565b506040517f87472b23cf6b5ba1dbc3e61886938b11a7b01f41b3810b40252f882a2a3d016990600090a150565b6040516001600160601b0319606087811b8216602084015286151560f81b603484015285901b16603582015282906049016040516020818303038152906040528051906020012014610b0f5760405162461bcd60e51b815260206004820152601f60248201527f73657441756f626a6563743a20757365722068617368206973206572726f72006044820152606401610893565b846001600160a01b0316610b23838361144e565b6001600160a01b031614610b795760405162461bcd60e51b815260206004820152601e60248201527f73657441756f626a6563743a206e6f2075736572207369676e617475726500006044820152606401610893565b50506001600160a01b0392831660009081526006602090815260408083209390951682529190915291909120805460ff1916911515919091179055565b60606010805480602002602001604051908101604052809291908181526020018280548015610c0e57602002820191906000526020600020905b81546001600160a01b03168152600190910190602001808311610bf0575b5050505050905090565b60108181548110610c2857600080fd5b6000918252602090912001546001600160a01b0316905081565b6040805160a0810182526000808252602082018190529181018290526060810182905260808101919091526003546040516357463d3560e01b81526000916001600160a01b0316906357463d3590610c9e9086906004016149f3565b6040805180830381865afa158015610cba573d6000803e3d6000fd5b505050506040513d601f19601f82011682018060405250810190610cde919061514b565b506040805160a0810182526001600160a01b03808716808352600090815260076020908152908490206001015481840152600480548551633a98ef3960e01b81528651979850949695870195931693633a98ef3993818301939290918290030181865afa158015610d53573d6000803e3d6000fd5b505050506040513d601f19601f82011682018060405250810190610d77919061516f565b81526004805460405163673e156160e11b81526020909301926001600160a01b039091169163ce7c2ac291610dae918991016149f3565b602060405180830381865afa158015610dcb573d6000803e3d6000fd5b505050506040513d601f19601f82011682018060405250810190610def919061516f565b81526020019190915292915050565b60028181548110610c2857600080fd5b610e2660008051602061557b833981519152336112e0565b610e425760405162461bcd60e51b815260040161089390615089565b600360009054906101000a90046001600160a01b03166001600160a01b031663d085835a6040518163ffffffff1660e01b8152600401602060405180830381865afa158015610e95573d6000803e3d6000fd5b505050506040513d601f19601f82011682018060405250810190610eb991906150bb565b15610ed65760405162461bcd60e51b8152600401610893906150d8565b600360009054906101000a90046001600160a01b03166001600160a01b031663fe4388a86040518163ffffffff1660e01b8152600401600060405180830381600087803b158015610f2657600080fd5b505af1158015610f3a573d6000803e3d6000fd5b5050505060005b825181101561115057600f838281518110610f5e57610f5e615106565b602002602001015160000151604051610f7791906151b8565b9081526040519081900360200190205460ff1615610fe35760405162461bcd60e51b815260206004820152602360248201527f766572696669636174696f6e426f6f6b3a20696420616c72656164792065786960448201526273747360e81b6064820152608401610893565b6001600f848381518110610ff957610ff9615106565b60200260200101516000015160405161101291906151b8565b908152604051908190036020019020805491151560ff19909216919091179055825183908290811061104657611046615106565b6020026020010151610140015161ffff1660011480611087575082818151811061107257611072615106565b6020026020010151610140015161ffff166002145b156110dc576110af8382815181106110a1576110a1615106565b6020026020010151836134e6565b6110d28382815181106110c4576110c4615106565b6020026020010151836135de565b505050505061113e565b8281815181106110ee576110ee615106565b6020026020010151610140015161ffff1660030361113e5761111b8382815181106110a1576110a1615106565b61113e83828151811061113057611130615106565b6020026020010151836139bf565b8061114881615132565b915050610f41565b506040517f7220c34c380a75cb6f46e8c61894c0377724f395efb506f00f1f6dfcac516f9290600090a15050565b60006002828154811061119357611193615106565b6000918252602090912001546001600160a01b031692915050565b600a60205281600052604060002081815481106111ca57600080fd5b90600052602060002001600091509150505481565b6111e7611d31565b6111f16000614339565b565b33806111fd611bd9565b6001600160a01b0316146112655760405162461bcd60e51b815260206004820152602960248201527f4f776e61626c6532537465703a2063616c6c6572206973206e6f7420746865206044820152683732bb9037bbb732b960b91b6064820152608401610893565b61126e81614339565b50565b6000546001600160a01b031690565b60606002805480602002602001604051908101604052809291908181526020018280548015610c0e576020028201919060005260206000209081546001600160a01b03168152600190910190602001808311610bf0575050505050905090565b60008281526005602090815260408083206001600160a01b038516845290915290205460ff165b92915050565b6003546001600160a01b031633146113375760405162461bcd60e51b8152600401610893906151c4565b6001600160a01b038516600090815260076020526040902081156113b9576001600160a01b03851660009081526002820160205260408120805486929061137f9084906151f0565b90915550506001600160a01b0385166000908152600582016020526040812080548592906113ae9084906151f0565b909155506113e99050565b6001600160a01b0385166000908152600282016020526040812080548692906113e39084906151f0565b90915550505b505050505050565b6113f9611d31565b6001600160a01b03919091166000908152600d60205260409020805460ff1916911515919091179055565b61142c611d31565b600480546001600160a01b0319166001600160a01b0392909216919091179055565b60008061145a846114db565b9050600080600061146a86614352565b60408051600081526020810180835289905260ff8516918101919091526060810183905260808101829052929550909350915060019060a0016020604051602081039080840390855afa1580156114c5573d6000803e3d6000fd5b5050604051601f19015198975050505050505050565b6040517b0ca2ba3432b932bab69029b4b3b732b21026b2b9b9b0b3b29d05199960211b6020820152603c8101829052600090605c01604051602081830303815290604052805190602001209050919050565b6003546001600160a01b031633146115575760405162461bcd60e51b8152600401610893906151c4565b6001600160a01b0316600090815260116020526040812055565b6080810151815160208084015160408086015160608701519151611599959491929101615259565b60405160208183030381529060405280519060200120146115fc5760405162461bcd60e51b815260206004820152601f60248201527f77697468686f6c64696e673a20757365722068617368206973206572726f72006044820152606401610893565b60c0810151815160208084015160408086015160608701519151611624959491929101615259565b60405160208183030381529060405280519060200120146116875760405162461bcd60e51b815260206004820152601f60248201527f77697468686f6c64696e673a206e6f64652068617368206973206572726f72006044820152606401610893565b60608101516001600160a01b03166000908152600660205260408120608083015160a08401519192916116ba919061144e565b6001600160a01b0316815260208101919091526040016000205460ff1680611708575080606001516001600160a01b03166116fd82608001518360a0015161144e565b6001600160a01b0316145b6117245760405162461bcd60e51b815260040161089390615293565b61174860008051602061557b8339815191526105ac8360c001518460e0015161144e565b6117645760405162461bcd60e51b8152600401610893906152c3565b60608101516001600160a01b03166000908152600760205260408120905b825151811015611b4b5782604001511561196b57816002016000846000015183815181106117b2576117b2615106565b60200260200101516001600160a01b03166001600160a01b0316815260200190815260200160002054836020015182815181106117f1576117f1615106565b60200260200101516009600086606001516001600160a01b03166001600160a01b0316815260200190815260200160002060008660000151858151811061183a5761183a615106565b60200260200101516001600160a01b03166001600160a01b031681526020019081526020016000205461186d91906152f5565b11156118ca5760405162461bcd60e51b8152602060048201526038602482015260008051602061551b8339815191526044820152771b191a5b99c81bd98818d85c1a5d185b081858d8dbdd5b9d60421b6064820152608401610893565b826020015181815181106118e0576118e0615106565b60200260200101516009600085606001516001600160a01b03166001600160a01b0316815260200190815260200160002060008560000151848151811061192957611929615106565b60200260200101516001600160a01b03166001600160a01b03168152602001908152602001600020600082825461196091906152f5565b90915550611b399050565b8160050160008460000151838151811061198757611987615106565b60200260200101516001600160a01b03166001600160a01b0316815260200190815260200160002054836020015182815181106119c6576119c6615106565b60200260200101516008600086606001516001600160a01b03166001600160a01b03168152602001908152602001600020600086600001518581518110611a0f57611a0f615106565b60200260200101516001600160a01b03166001600160a01b0316815260200190815260200160002054611a4291906152f5565b1115611a9d5760405162461bcd60e51b8152602060048201526036602482015260008051602061551b8339815191526044820152751b191a5b99c81bd9881d1c985919481858d8dbdd5b9d60521b6064820152608401610893565b82602001518181518110611ab357611ab3615106565b60200260200101516008600085606001516001600160a01b03166001600160a01b03168152602001908152602001600020600085600001518481518110611afc57611afc615106565b60200260200101516001600160a01b03166001600160a01b031681526020019081526020016000206000828254611b3391906152f5565b90915550505b80611b4381615132565b915050611782565b507f5d7461671a77efeecfbfc989455d1457392c775e662834b07d5d77adc7402f458260000151836020015184604001518560600151604051611b919493929190615308565b60405180910390a15050565b600b60205281600052604060002081815481106111ca57600080fd5b611bc1611d31565b61126e60008051602061557b833981519152826143c4565b6001546001600160a01b031690565b600081604051602001611bfd91815260200190565b60408051601f19818403018152828252805160209182012090830186905291016040516020818303038152906040528051906020012003611c62576040805160208101859052015b604051602081830303815290604052805190602001209050611307565b6040805160208101859052908101839052606001611c45565b611c83611d31565b600180546001600160a01b0319166001600160a01b038316908117909155611ca9611271565b6001600160a01b03167f38d16b8cac22d99fc7c124b9cd0de2d3fa1faef420bfe791d8c362d765e2270060405160405180910390a350565b600080546001600160a01b038381166001600160a01b0319831681178455604051919092169283917f8be0079c531659141344cd1fd0a4f28419497f9722a3daafe3b4186f6b6457e09190a35050565b33611d3a611271565b6001600160a01b0316146111f15760405162461bcd60e51b815260206004820181905260248201527f4f776e61626c653a2063616c6c6572206973206e6f7420746865206f776e65726044820152606401610893565b805180516001908110611da557611da5615106565b602002602001015160c001516001600160a01b03168160000151600081518110611dd157611dd1615106565b602002602001015160c001516001600160a01b0316148015611e345750805180516001908110611e0357611e03615106565b602002602001015160a001518160000151600081518110611e2657611e26615106565b602002602001015160a00151145b8015611e5f575080518051600090611e4e57611e4e615106565b602090810291909101015160e00151155b8015611e8f5750805180516001908110611e7b57611e7b615106565b602002602001015160e00151151560011515145b611efc5760405162461bcd60e51b815260206004820152603860248201527f7665726966795369676e6174757265423a20636f696e206d69736d61746368206044820152773132ba3bb2b2b710313abcb2b91030b7321039b2b63632b960411b6064820152608401610893565b805180516001908110611f1157611f11615106565b6020026020010151606001516001600160a01b03168160000151600081518110611f3d57611f3d615106565b6020026020010151606001516001600160a01b0316148015611fa05750805180516001908110611f6f57611f6f615106565b6020026020010151604001518160000151600081518110611f9257611f92615106565b602002602001015160400151145b8015611fce575080518051600090611fba57611fba615106565b602002602001015160800151151560011515145b8015611ffb5750805180516001908110611fea57611fea615106565b602090810291909101015160800151155b6120695760405162461bcd60e51b815260206004820152603960248201527f7665726966795369676e6174757265423a20676f6f6473206d69736d61746368604482015278103132ba3bb2b2b710313abcb2b91030b7321039b2b63632b960391b6064820152608401610893565b8051805160009061207c5761207c615106565b6020026020010151606001516001600160a01b031681600001516000815181106120a8576120a8615106565b602002602001015161012001516001600160a01b031614801561211f57508051805160019081106120db576120db615106565b602002602001015160c001516001600160a01b0316816000015160018151811061210757612107615106565b602002602001015161012001516001600160a01b0316145b61218b5760405162461bcd60e51b815260206004820152603760248201527f7665726966795369676e6174757265423a20666565206d69736d61746368206260448201527632ba3bb2b2b710313abcb2b91030b7321039b2b63632b960491b6064820152608401610893565b60005b600281101561232d576000826000015182815181106121af576121af615106565b60200260200101519050806101600151816000015182602001518360400151846060015185608001518660a001518760c001518860e001518961010001518a610120015160405160200161220c9a99989796959493929190615377565b604051602081830303815290604052805190602001201461226f5760405162461bcd60e51b815260206004820152601f60248201527f7665726966795369676e6174757265423a2068617368206973206572726f72006044820152606401610893565b6006600082602001516001600160a01b03166001600160a01b0316815260200190815260200160002060006122ae83610160015184610180015161144e565b6001600160a01b0316815260208101919091526040016000205460ff16806122fe575080602001516001600160a01b03166122f382610160015183610180015161144e565b6001600160a01b0316145b61231a5760405162461bcd60e51b815260040161089390615293565b508061232581615132565b91505061218e565b5050565b600080808080805b60028110156134dc57600f8760000151828151811061235a5761235a615106565b60200260200101516000015160405161237391906151b8565b9081526040519081900360200190205460ff16156123d35760405162461bcd60e51b815260206004820152601e60248201527f5f74726164654275696c643a20696420616c72656164792065786973747300006044820152606401610893565b6001600f886000015183815181106123ed576123ed615106565b60200260200101516000015160405161240691906151b8565b908152602001604051809103902060006101000a81548160ff0219169083151502179055506000600760008960000151848151811061244757612447615106565b6020026020010151602001516001600160a01b03166001600160a01b0316815260200190815260200160002060060154600161248391906152f5565b885180518490811061249757612497615106565b60200260200101516101400151146124c15760405162461bcd60e51b8152600401610893906153e8565b600b6000896000015184815181106124db576124db615106565b6020026020010151602001516001600160a01b03166001600160a01b0316815260200190815260200160002080549050600014612605576000600b60008a60000151858151811061252e5761252e615106565b6020026020010151602001516001600160a01b03166001600160a01b031681526020019081526020016000208054806020026020016040519081016040528092919081815260200182805480156125a457602002820191906000526020600020905b815481526020019060010190808311612590575b505050505090506125fd81600183516125bd91906151f0565b815181106125cd576125cd615106565b60200260200101518a6000015185815181106125eb576125eb615106565b60200260200101516101600151611be8565b915050612644565b6126418860000151838151811061261e5761261e615106565b60200260200101516101600151896000015184815181106125eb576125eb615106565b90505b875180518390811061265857612658615106565b602002602001015160800151156128f157875180518390811061267d5761267d615106565b602002602001015160400151600760008a6000015185815181106126a3576126a3615106565b6020026020010151602001516001600160a01b03166001600160a01b0316815260200190815260200160002060050160008a6000015185815181106126ea576126ea615106565b6020026020010151606001516001600160a01b03166001600160a01b03168152602001908152602001600020600082825461272591906152f5565b909155505087518051600d916000918590811061274457612744615106565b602090810291909101810151606001516001600160a01b031682528101919091526040016000205460ff16156128ec57600454885180516001600160a01b03909216916347e8ca4d91908590811061279e5761279e615106565b6020026020010151602001518a6000015185815181106127c0576127c0615106565b60200260200101516040015160018c6000015187815181106127e4576127e4615106565b6020026020010151606001516040518563ffffffff1660e01b815260040161280f9493929190615416565b600060405180830381600087803b15801561282957600080fd5b505af115801561283d573d6000803e3d6000fd5b50506003548a5180516001600160a01b039092169350634d025bd59250908590811061286b5761286b615106565b6020026020010151602001518a60000151858151811061288d5761288d615106565b60200260200101516040015160016040518463ffffffff1660e01b81526004016128b993929190615441565b600060405180830381600087803b1580156128d357600080fd5b505af11580156128e7573d6000803e3d6000fd5b505050505b612c7a565b875180518390811061290557612905615106565b602002602001015160400151600760008a60000151858151811061292b5761292b615106565b6020026020010151602001516001600160a01b03166001600160a01b0316815260200190815260200160002060050160008a60000151858151811061297257612972615106565b6020026020010151606001516001600160a01b03166001600160a01b031681526020019081526020016000205410156129f75760405162461bcd60e51b815260206004820152602160248201527f74726164696e6720676f6f64732062616c616e6365206973206e6567617469766044820152606560f81b6064820152608401610893565b8751805183908110612a0b57612a0b615106565b602002602001015160400151600760008a600001518581518110612a3157612a31615106565b6020026020010151602001516001600160a01b03166001600160a01b0316815260200190815260200160002060050160008a600001518581518110612a7857612a78615106565b6020026020010151606001516001600160a01b03166001600160a01b031681526020019081526020016000206000828254612ab391906151f0565b909155505087518051600d9160009185908110612ad257612ad2615106565b602090810291909101810151606001516001600160a01b031682528101919091526040016000205460ff1615612c7a57600454885180516001600160a01b03909216916347e8ca4d919085908110612b2c57612b2c615106565b6020026020010151602001518a600001518581518110612b4e57612b4e615106565b60200260200101516040015160008c600001518781518110612b7257612b72615106565b6020026020010151606001516040518563ffffffff1660e01b8152600401612b9d9493929190615416565b600060405180830381600087803b158015612bb757600080fd5b505af1158015612bcb573d6000803e3d6000fd5b50506003548a5180516001600160a01b039092169350634d025bd592509085908110612bf957612bf9615106565b6020026020010151602001518a600001518581518110612c1b57612c1b615106565b60200260200101516040015160006040518463ffffffff1660e01b8152600401612c4793929190615441565b600060405180830381600087803b158015612c6157600080fd5b505af1158015612c75573d6000803e3d6000fd5b505050505b8751805183908110612c8e57612c8e615106565b602002602001015160e0015115612f27578751805183908110612cb357612cb3615106565b602002602001015160a00151600760008a600001518581518110612cd957612cd9615106565b6020026020010151602001516001600160a01b03166001600160a01b0316815260200190815260200160002060050160008a600001518581518110612d2057612d20615106565b602002602001015160c001516001600160a01b03166001600160a01b031681526020019081526020016000206000828254612d5b91906152f5565b909155505087518051600d9160009185908110612d7a57612d7a615106565b60209081029190910181015160c001516001600160a01b031682528101919091526040016000205460ff1615612f2257600454885180516001600160a01b03909216916347e8ca4d919085908110612dd457612dd4615106565b6020026020010151602001518a600001518581518110612df657612df6615106565b602002602001015160a0015160018c600001518781518110612e1a57612e1a615106565b602002602001015160c001516040518563ffffffff1660e01b8152600401612e459493929190615416565b600060405180830381600087803b158015612e5f57600080fd5b505af1158015612e73573d6000803e3d6000fd5b50506003548a5180516001600160a01b039092169350634d025bd592509085908110612ea157612ea1615106565b6020026020010151602001518a600001518581518110612ec357612ec3615106565b602002602001015160a0015160016040518463ffffffff1660e01b8152600401612eef93929190615441565b600060405180830381600087803b158015612f0957600080fd5b505af1158015612f1d573d6000803e3d6000fd5b505050505b6132a6565b8751805183908110612f3b57612f3b615106565b602002602001015160a00151600760008a600001518581518110612f6157612f61615106565b6020026020010151602001516001600160a01b03166001600160a01b0316815260200190815260200160002060050160008a600001518581518110612fa857612fa8615106565b602002602001015160c001516001600160a01b03166001600160a01b031681526020019081526020016000205410156130235760405162461bcd60e51b815260206004820181905260248201527f74726164696e6720636f696e2062616c616e6365206973206e656761746976656044820152606401610893565b875180518390811061303757613037615106565b602002602001015160a00151600760008a60000151858151811061305d5761305d615106565b6020026020010151602001516001600160a01b03166001600160a01b0316815260200190815260200160002060050160008a6000015185815181106130a4576130a4615106565b602002602001015160c001516001600160a01b03166001600160a01b0316815260200190815260200160002060008282546130df91906151f0565b909155505087518051600d91600091859081106130fe576130fe615106565b60209081029190910181015160c001516001600160a01b031682528101919091526040016000205460ff16156132a657600454885180516001600160a01b03909216916347e8ca4d91908590811061315857613158615106565b6020026020010151602001518a60000151858151811061317a5761317a615106565b602002602001015160a0015160008c60000151878151811061319e5761319e615106565b602002602001015160c001516040518563ffffffff1660e01b81526004016131c99493929190615416565b600060405180830381600087803b1580156131e357600080fd5b505af11580156131f7573d6000803e3d6000fd5b50506003548a5180516001600160a01b039092169350634d025bd59250908590811061322557613225615106565b6020026020010151602001518a60000151858151811061324757613247615106565b602002602001015160a0015160006040518463ffffffff1660e01b815260040161327393929190615441565b600060405180830381600087803b15801561328d57600080fd5b505af11580156132a1573d6000803e3d6000fd5b505050505b87518051839081106132ba576132ba615106565b60200260200101516101000151600760008a6000015185815181106132e1576132e1615106565b6020026020010151602001516001600160a01b03166001600160a01b0316815260200190815260200160002060050160008a60000151858151811061332857613328615106565b602002602001015161012001516001600160a01b03166001600160a01b03168152602001908152602001600020600082825461336491906151f0565b9091555050875180516133b791908490811061338257613382615106565b60200260200101516101200151896000015184815181106133a5576133a5615106565b602002602001015161010001516143ce565b600b6000896000015184815181106133d1576133d1615106565b6020908102919091018101518101516001600160a01b03168252818101929092526040016000908120805460018101825590825291902001819055875180518390811061342057613420615106565b60200260200101516101400151600760008a60000151858151811061344757613447615106565b6020026020010151602001516001600160a01b03166001600160a01b031681526020019081526020016000206006018190555080600760008a60000151858151811061349557613495615106565b6020026020010151602001516001600160a01b03166001600160a01b03168152602001908152602001600020600401819055505080806134d490615132565b915050612339565b5091939590929450565b816101600151826000015183602001518460400151856060015186608001518760a001518860c001518960e001518a61010001518b61014001516040516020016135399a99989796959493929190615464565b604051602081830303815290604052805190602001201461359c5760405162461bcd60e51b815260206004820152601f60248201527f7665726966795369676e6174757265413a2068617368206973206572726f72006044820152606401610893565b6135c260008051602061557b8339815191526105ac84610160015185610180015161144e565b61232d5760405162461bcd60e51b8152600401610893906152c3565b6001600160a01b038116600090815260076020526040812060c084015182918291829182918291906136109080614473565b60038101546136209060016152f5565b896101200151146136435760405162461bcd60e51b8152600401610893906154ec565b88610140015161ffff1660010361378f5760a08901516001600160a01b03808a166000908152600c6020908152604080832060c08f01519094168352929052205461368e91906152f5565b60035460c08b015160405163de45e98d60e01b81526001600160a01b038c81166004830152918216602482015291169063de45e98d90604401602060405180830381865afa1580156136e4573d6000803e3d6000fd5b505050506040513d601f19601f82011682018060405250810190613708919061516f565b10156137485760405162461bcd60e51b815260206004820152600f60248201526e4465706f736974206661696c75726560881b6044820152606401610893565b60a08901516001600160a01b03808a166000908152600c6020908152604080832060c08f0151909416835292905290812080549091906137899084906152f5565b90915550505b6020808a01516001600160a01b03166000908152600a909152604090205415613859576020808a01516001600160a01b03166000908152600a82526040808220805482518186028101860190935280835292939192909183018282801561381557602002820191906000526020600020905b815481526020019060010190808311613801575b50505050509050613851816001835161382e91906151f0565b8151811061383e5761383e615106565b60200260200101518b6101600151611be8565b92505061386c565b6101608901516138699080611be8565b91505b88610140015161ffff16600214613970578860e00151156138c55760a089015160c08a01516001600160a01b03166000908152600283016020526040812080549091906138ba9084906152f5565b909155506139709050565b60a089015160c08a01516001600160a01b0316600090815260028301602052604090205410156139375760405162461bcd60e51b815260206004820181905260248201527f6361706974616c20636f696e2062616c616e6365206973206e656761746976656044820152606401610893565b60a089015160c08a01516001600160a01b031660009081526002830160205260408120805490919061396a9084906151f0565b90915550505b6020808a01516001600160a01b03166000908152600a82526040812080546001818101835591835292909120909101839055610120909901516003820155909701969096559295919490935090565b60018054600091600160a01b90910460ff16151514613a0a5760405162461bcd60e51b8152602060048201526007602482015266636c6f73696e6760c81b6044820152606401610893565b6001600160a01b038216600090815260076020526040908190206060850151519185015151909114613a6d5760405162461bcd60e51b815260206004820152600c60248201526b13195b99dd1a0819985a5b1960a21b6044820152606401610893565b6001600160a01b0383166000908152600a6020908152604080832080548251818502810185019093528083529192909190830182828015613acd57602002820191906000526020600020905b815481526020019060010190808311613ab9575b505050506001600160a01b0386166000908152600b602090815260408083208054825181850281018501909352808352959650929490935090830182828015613b3557602002820191906000526020600020905b815481526020019060010190808311613b21575b5050505050905060005b8660400151518110156141b057866080015115613e985786610100015115613e275786604001518181518110613b7757613b77615106565b60200260200101516009600089602001516001600160a01b03166001600160a01b03168152602001908152602001600020600089606001518481518110613bc057613bc0615106565b60200260200101516001600160a01b03166001600160a01b03168152602001908152602001600020541015613c485760405162461bcd60e51b815260206004820152603a602482015260008051602061555b8339815191526044820152791d1a1a1bdb191a5b99c81bd9881d1c985919481858d8dbdd5b9d60321b6064820152608401610893565b86604001518181518110613c5e57613c5e615106565b602002602001015184600201600089606001518481518110613c8257613c82615106565b60200260200101516001600160a01b03166001600160a01b03168152602001908152602001600020541015613d0f5760405162461bcd60e51b815260206004820152602d60248201527f7472616e736665724f6646756e64733a20496e73756666696369656e7420636160448201526c1c1a5d185b081858d8dbdd5b9d609a1b6064820152608401610893565b86604001518181518110613d2557613d25615106565b60200260200101516009600089602001516001600160a01b03166001600160a01b03168152602001908152602001600020600089606001518481518110613d6e57613d6e615106565b60200260200101516001600160a01b03166001600160a01b031681526020019081526020016000206000828254613da591906151f0565b90915550506040870151805182908110613dc157613dc1615106565b602002602001015184600201600089606001518481518110613de557613de5615106565b60200260200101516001600160a01b03166001600160a01b031681526020019081526020016000206000828254613e1c91906151f0565b9091555061419e9050565b86604001518181518110613e3d57613e3d615106565b602002602001015184600201600089606001518481518110613e6157613e61615106565b60200260200101516001600160a01b03166001600160a01b031681526020019081526020016000206000828254613e1c91906152f5565b866101000151156141275786604001518181518110613eb957613eb9615106565b60200260200101516008600089602001516001600160a01b03166001600160a01b03168152602001908152602001600020600089606001518481518110613f0257613f02615106565b60200260200101516001600160a01b03166001600160a01b03168152602001908152602001600020541015613f8c5760405162461bcd60e51b815260206004820152603c602482015260008051602061555b83398151915260448201527b1d1a1a1bdb191a5b99c81bd98818d85c1a5d185b081858d8dbdd5b9d60221b6064820152608401610893565b86604001518181518110613fa257613fa2615106565b602002602001015184600501600089606001518481518110613fc657613fc6615106565b60200260200101516001600160a01b03166001600160a01b031681526020019081526020016000205410156140515760405162461bcd60e51b815260206004820152602b60248201527f7472616e736665724f6646756e64733a20496e73756666696369656e7420747260448201526a185919481858d8dbdd5b9d60aa1b6064820152608401610893565b8660400151818151811061406757614067615106565b60200260200101516008600089602001516001600160a01b03166001600160a01b031681526020019081526020016000206000896060015184815181106140b0576140b0615106565b60200260200101516001600160a01b03166001600160a01b0316815260200190815260200160002060008282546140e791906151f0565b9091555050604087015180518290811061410357614103615106565b602002602001015184600501600089606001518481518110613de557613de5615106565b8660400151818151811061413d5761413d615106565b60200260200101518460050160008960600151848151811061416157614161615106565b60200260200101516001600160a01b03166001600160a01b03168152602001908152602001600020600082825461419891906152f5565b90915550505b806141a881615132565b915050613b3f565b5085608001511561428b5760038301546141cb9060016152f5565b866101200151146141ee5760405162461bcd60e51b8152600401610893906154ec565b8151156142315761422a826001845161420791906151f0565b8151811061421757614217615106565b6020026020010151876101600151611be8565b9350614244565b6101608601516142419080611be8565b93505b6020808701516001600160a01b03166000908152600a82526040812080546001818101835591835292909120909101859055610120870151600385015583018490556113e9565b600683015461429b9060016152f5565b866101200151146142be5760405162461bcd60e51b8152600401610893906153e8565b8051156142de576142d7816001835161420791906151f0565b93506142f1565b6101608601516142ee9080611be8565b93505b6020808701516001600160a01b03166000908152600b825260408120805460018101825590825291902001849055610120860151600684015560048301849055505050505050565b600180546001600160a01b031916905561126e81611ce1565b600080600083516041146143a85760405162461bcd60e51b815260206004820152601f60248201527f45434453413a20696e76616c6964207369676e6174757265206c656e677468006044820152606401610893565b5050506020810151604082015160609092015160001a92909190565b61232d8282614564565b6001600160a01b03821660009081526012602052604090205460ff161561440b576001600160a01b03821660009081526011602052604090208190555b506010805460018181019092557f1b6847dc741a1b0cd08d278845f9d819d87b734759afb55fe2de5cb82a9ae6720180546001600160a01b039093166001600160a01b031990931683179055600091825260126020526040909120805460ff19169091179055565b6001600160a01b0382166000908152600e602052604081205460ff16151590036144eb576001600160a01b0382166000818152600e60205260408120805460ff1916600190811790915560028054918201815590915260008051602061553b8339815191520180546001600160a01b03191690911790555b6001600160a01b0381166000908152600e602052604081205460ff161515900361232d576001600160a01b03166000818152600e60205260408120805460ff1916600190811790915560028054918201815590915260008051602061553b8339815191520180546001600160a01b031916909117905550565b61456e82826112e0565b61232d5760008281526005602090815260408083206001600160a01b03851684529091529020805460ff191660011790555050565b801515811461126e57600080fd5b80356145bc816145a3565b919050565b6000602082840312156145d357600080fd5b81356145de816145a3565b9392505050565b80356001600160a01b03811681146145bc57600080fd5b60006020828403121561460e57600080fd5b6145de826145e5565b634e487b7160e01b600052604160045260246000fd5b604051602081016001600160401b038111828210171561464f5761464f614617565b60405290565b6040516101a081016001600160401b038111828210171561464f5761464f614617565b60405161010081016001600160401b038111828210171561464f5761464f614617565b604051601f8201601f191681016001600160401b03811182821017156146c3576146c3614617565b604052919050565b60006001600160401b038211156146e4576146e4614617565b5060051b60200190565b600082601f8301126146ff57600080fd5b81356001600160401b0381111561471857614718614617565b61472b601f8201601f191660200161469b565b81815284602083860101111561474057600080fd5b816020850160208301376000918101602001919091529392505050565b60006020828403121561476f57600080fd5b6001600160401b038235111561478457600080fd5b8135820183601f82011261479757600080fd5b6147a96147a482356146cb565b61469b565b81358082526020808301929160051b8401018610156147c757600080fd5b602083015b6020843560051b8501018110156149e9576001600160401b03813511156147f257600080fd5b6020813585018803601f1901121561480957600080fd5b61481161462d565b6001600160401b038235860160200135111561482c57600080fd5b81358501602081013501603f8101891361484557600080fd5b6148556147a460208301356146cb565b602082810135808352908201919060051b83016040018b101561487757600080fd5b604083015b6040602085013560051b8501018110156149d6576001600160401b03813511156148a557600080fd5b803584016101a0818e03603f190112156148be57600080fd5b6148c6614655565b6001600160401b03604083013511156148de57600080fd5b6148f08e6040808501358501016146ee565b81526148fe606083016145e5565b60208201526080820135604082015261491960a083016145e5565b606082015261492a60c083016145b1565b608082015260e082013560a082015261494661010083016145e5565b60c082015261495861012083016145b1565b60e082015261014082013561010082015261497661016083016145e5565b6101208201526101808201356101408201526101a08201356101608201526001600160401b036101c083013511156149ad57600080fd5b6149c18e60406101c08501358501016146ee565b6101808201528452506020928301920161487c565b50835250508352602092830192016147cc565b5095945050505050565b6001600160a01b0391909116815260200190565b600080600080600060a08688031215614a1f57600080fd5b614a28866145e5565b94506020860135614a38816145a3565b9350614a46604087016145e5565b92506060860135915060808601356001600160401b03811115614a6857600080fd5b614a74888289016146ee565b9150509295509295909350565b600081518084526020808501945080840160005b83811015614aba5781516001600160a01b031687529582019590820190600101614a95565b509495945050505050565b6020815260006145de6020830184614a81565b600060208284031215614aea57600080fd5b5035919050565b600082601f830112614b0257600080fd5b81356020614b126147a4836146cb565b82815260059290921b84018101918181019086841115614b3157600080fd5b8286015b84811015614b4c5780358352918301918301614b35565b509695505050505050565b600082601f830112614b6857600080fd5b81356020614b786147a4836146cb565b82815260059290921b84018101918181019086841115614b9757600080fd5b8286015b84811015614b4c57614bac816145e5565b8352918301918301614b9b565b803561ffff811681146145bc57600080fd5b60008060408385031215614bde57600080fd5b82356001600160401b0380821115614bf557600080fd5b818501915085601f830112614c0957600080fd5b81356020614c196147a4836146cb565b82815260059290921b84018101918181019089841115614c3857600080fd5b8286015b84811015614da757803586811115614c5357600080fd5b87016101a0818d03601f1901811315614c6b57600080fd5b614c73614655565b8683013589811115614c8457600080fd5b614c928f89838701016146ee565b825250614ca1604084016145e5565b87820152606083013589811115614cb757600080fd5b614cc58f8983870101614af1565b604083015250608083013589811115614cdd57600080fd5b614ceb8f8983870101614b57565b606083015250614cfd60a084016145b1565b608082015260c08084013560a083015260e0614d1a8186016145e5565b828401526101009150614d2e8286016145b1565b90830152610120614d408582016145b1565b828401526101409150818501358184015250610160614d60818601614bb9565b82840152610180915081850135818401525082840135925089831115614d865760008081fd5b614d948f89858701016146ee565b9082015285525050918301918301614c3c565b509650614db790508782016145e5565b9450505050509250929050565b60008060408385031215614dd757600080fd5b614de0836145e5565b9150614dee602084016145e5565b90509250929050565b60008060408385031215614e0a57600080fd5b614e13836145e5565b946020939093013593505050565b600060208284031215614e3357600080fd5b81356001600160401b03811115614e4957600080fd5b614e55848285016146ee565b949350505050565b60008060408385031215614e7057600080fd5b82359150614dee602084016145e5565b600080600080600060a08688031215614e9857600080fd5b614ea1866145e5565b9450614eaf602087016145e5565b935060408601359250606086013591506080860135614ecd816145a3565b809150509295509295909350565b60008060408385031215614eee57600080fd5b614ef7836145e5565b91506020830135614f07816145a3565b809150509250929050565b60008060408385031215614f2557600080fd5b8235915060208301356001600160401b03811115614f4257600080fd5b614f4e858286016146ee565b9150509250929050565b600060208284031215614f6a57600080fd5b81356001600160401b0380821115614f8157600080fd5b908301906101008286031215614f9657600080fd5b614f9e614678565b823582811115614fad57600080fd5b614fb987828601614b57565b825250602083013582811115614fce57600080fd5b614fda87828601614af1565b602083015250614fec604084016145b1565b6040820152614ffd606084016145e5565b60608201526080830135608082015260a08301358281111561501e57600080fd5b61502a878286016146ee565b60a08301525060c083013560c082015260e08301358281111561504c57600080fd5b615058878286016146ee565b60e08301525095945050505050565b6000806040838503121561507a57600080fd5b50508035926020909101359150565b60208082526018908201527727b7363c903737b2329031b0b71031b0b636103a3434b99760411b604082015260600190565b6000602082840312156150cd57600080fd5b81516145de816145a3565b602080825260149082015273131bd8dac81a185cc81899595b8818db1bdcd95960621b604082015260600190565b634e487b7160e01b600052603260045260246000fd5b634e487b7160e01b600052601160045260246000fd5b6000600182016151445761514461511c565b5060010190565b6000806040838503121561515e57600080fd5b505080516020909101519092909150565b60006020828403121561518157600080fd5b5051919050565b6000815160005b818110156151a9576020818501810151868301520161518f565b50600093019283525090919050565b60006145de8284615188565b6020808252601290820152711b9bc81b185c99d954d95d1d1b195b595b9d60721b604082015260600190565b818103818111156113075761130761511c565b80516000906020808401838315614aba5781516001600160a01b031687529582019590820190600101614a95565b60008151602080840160005b83811015614aba5781518752958201959082019060010161523d565b600061526e6152688388615203565b86615231565b93151560f81b8452505060601b6001600160601b031916600182015260150192915050565b6020808252601690820152752a34329039b4b3b732b91034b9903737ba103ab9b2b960511b604082015260600190565b602080825260189082015277546865207369676e6572206973206e6f742061206e6f646560401b604082015260600190565b808201808211156113075761130761511c565b60808152600061531b6080830187614a81565b82810360208481019190915286518083528782019282019060005b8181101561535257845183529383019391830191600101615336565b505095151560408501525050506001600160a01b039190911660609091015292915050565b6000615383828d615188565b6001600160601b031960609c8d1b81168252601482019b909b52988b1b8a1660348a0152505094151560f890811b6048880152604987019490945291871b86166069860152151590911b607d840152607e83015290921b16609e82015260b201919050565b6020808252601490820152731d1c98591a5b99c81b9bdb98d94819985a5b195960621b604082015260600190565b6001600160a01b03948516815260208101939093529015156040830152909116606082015260800190565b6001600160a01b0393909316835260208301919091521515604082015260600190565b6000615470828d615188565b6001600160601b031960608d901b81168252615498615492601484018e615231565b8c615203565b99151560f890811b8b5260018b019990995260609790971b90961660218901525050911515841b6035860152151590921b60368401525060f01b6001600160f01b0319166037820152603901949350505050565b60208082526014908201527318d85c1a5d185b081b9bdb98d94819985a5b195960621b60408201526060019056fe77697468686f6c64696e673a20496e73756666696369656e742077697468686f405787fa12a823e0f2b7631cc41b3ba8828b3321ca811111fa75cd3aa3bb5ace7472616e736665724f6646756e64733a20496e73756666696369656e7420776957c872046f094b8a493ec5eb6ea374eafbc3c05951e40de3c4302a41f3f127baa2646970667358221220100bc41d710b8e80acf2ff1eaa0995e1bf89f67fd5733b2b790bb09a3d1de76464736f6c63430008110033","opcodes":"PUSH1 0x80 PUSH1 0x40 MSTORE CALLVALUE DUP1 ISZERO PUSH3 0x11 JUMPI PUSH1 0x0 DUP1 REVERT JUMPDEST POP PUSH3 0x1D CALLER PUSH3 0x62 JUMP JUMPDEST PUSH3 0x49 PUSH32 0x52941335797217779AB62CF10A3AE2B6D453B5F3A1285E7A816EB9F63A58D669 CALLER PUSH3 0x8C JUMP JUMPDEST PUSH1 0x1 DUP1 SLOAD PUSH1 0xFF PUSH1 0xA0 SHL NOT AND PUSH1 0x1 PUSH1 0xA0 SHL OR SWAP1 SSTORE PUSH3 0x148 JUMP JUMPDEST PUSH1 0x1 DUP1 SLOAD PUSH1 0x1 PUSH1 0x1 PUSH1 0xA0 SHL SUB NOT AND SWAP1 SSTORE PUSH3 0x89 DUP2 PUSH3 0x9C PUSH1 0x20 SWAP1 DUP2 SHL PUSH3 0x1CE1 OR SWAP1 SHR JUMP JUMPDEST POP JUMP JUMPDEST PUSH3 0x98 DUP3 DUP3 PUSH3 0xEC JUMP JUMPDEST POP POP JUMP JUMPDEST PUSH1 0x0 DUP1 SLOAD PUSH1 0x1 PUSH1 0x1 PUSH1 0xA0 SHL SUB DUP4 DUP2 AND PUSH1 0x1 PUSH1 0x1 PUSH1 0xA0 SHL SUB NOT DUP4 AND DUP2 OR DUP5 SSTORE PUSH1 0x40 MLOAD SWAP2 SWAP1 SWAP3 AND SWAP3 DUP4 SWAP2 PUSH32 0x8BE0079C531659141344CD1FD0A4F28419497F9722A3DAAFE3B4186F6B6457E0 SWAP2 SWAP1 LOG3 POP POP JUMP JUMPDEST PUSH1 0x0 DUP3 DUP2 MSTORE PUSH1 0x5 PUSH1 0x20 SWAP1 DUP2 MSTORE PUSH1 0x40 DUP1 DUP4 KECCAK256 PUSH1 0x1 PUSH1 0x1 PUSH1 0xA0 SHL SUB DUP6 AND DUP5 MSTORE SWAP1 SWAP2 MSTORE SWAP1 KECCAK256 SLOAD PUSH1 0xFF AND PUSH3 0x98 JUMPI PUSH1 0x0 DUP3 DUP2 MSTORE PUSH1 0x5 PUSH1 0x20 SWAP1 DUP2 MSTORE PUSH1 0x40 DUP1 DUP4 KECCAK256 PUSH1 0x1 PUSH1 0x1 PUSH1 0xA0 SHL SUB DUP6 AND DUP5 MSTORE SWAP1 SWAP2 MSTORE SWAP1 KECCAK256 DUP1 SLOAD PUSH1 0xFF NOT AND PUSH1 0x1 OR SWAP1 SSTORE POP POP JUMP JUMPDEST PUSH2 0x55D0 DUP1 PUSH3 0x158 PUSH1 0x0 CODECOPY PUSH1 0x0 RETURN INVALID PUSH1 0x80 PUSH1 0x40 MSTORE CALLVALUE DUP1 ISZERO PUSH2 0x10 JUMPI PUSH1 0x0 DUP1 REVERT JUMPDEST POP PUSH1 0x4 CALLDATASIZE LT PUSH2 0x230 JUMPI PUSH1 0x0 CALLDATALOAD PUSH1 0xE0 SHR DUP1 PUSH4 0x85A10CF EQ PUSH2 0x235 JUMPI DUP1 PUSH4 0xAE35E5C EQ PUSH2 0x24A JUMPI DUP1 PUSH4 0xB857A47 EQ PUSH2 0x25D JUMPI DUP1 PUSH4 0x14A3DB2D EQ PUSH2 0x270 JUMPI DUP1 PUSH4 0x1715FAB0 EQ PUSH2 0x299 JUMPI DUP1 PUSH4 0x176060DE EQ PUSH2 0x2AB JUMPI DUP1 PUSH4 0x19FC2E61 EQ PUSH2 0x2BE JUMPI DUP1 PUSH4 0x2428D38F EQ PUSH2 0x2E5 JUMPI DUP1 PUSH4 0x2D0335AB EQ PUSH2 0x318 JUMPI DUP1 PUSH4 0x31C329E6 EQ PUSH2 0x361 JUMPI DUP1 PUSH4 0x3657C293 EQ PUSH2 0x376 JUMPI DUP1 PUSH4 0x38266B22 EQ PUSH2 0x389 JUMPI DUP1 PUSH4 0x39A6F16F EQ PUSH2 0x3E2 JUMPI DUP1 PUSH4 0x47535D7B EQ PUSH2 0x3F5 JUMPI DUP1 PUSH4 0x4893C26A EQ PUSH2 0x407 JUMPI DUP1 PUSH4 0x4AB81CE9 EQ PUSH2 0x42A JUMPI DUP1 PUSH4 0x4EFA685A EQ PUSH2 0x43D JUMPI DUP1 PUSH4 0x50414C35 EQ PUSH2 0x468 JUMPI DUP1 PUSH4 0x5E5C06E2 EQ PUSH2 0x47B JUMPI DUP1 PUSH4 0x6CADCBD9 EQ PUSH2 0x4F4 JUMPI DUP1 PUSH4 0x715018A6 EQ PUSH2 0x507 JUMPI DUP1 PUSH4 0x79BA5097 EQ PUSH2 0x50F JUMPI DUP1 PUSH4 0x7A4FDA3D EQ PUSH2 0x517 JUMPI DUP1 PUSH4 0x8A08677D EQ PUSH2 0x537 JUMPI DUP1 PUSH4 0x8C232838 EQ PUSH2 0x565 JUMPI DUP1 PUSH4 0x8DA5CB5B EQ PUSH2 0x58E JUMPI DUP1 PUSH4 0x8DFAD597 EQ PUSH2 0x596 JUMPI DUP1 PUSH4 0x91D14854 EQ PUSH2 0x59E JUMPI DUP1 PUSH4 0x98EA1F1F EQ PUSH2 0x5B1 JUMPI DUP1 PUSH4 0x9D3089F5 EQ PUSH2 0x5C4 JUMPI DUP1 PUSH4 0xA304DCF4 EQ PUSH2 0x5EF JUMPI DUP1 PUSH4 0xA69E5862 EQ PUSH2 0x602 JUMPI DUP1 PUSH4 0xB273F207 EQ PUSH2 0x615 JUMPI DUP1 PUSH4 0xB3CB890F EQ PUSH2 0x628 JUMPI DUP1 PUSH4 0xB886DBCD EQ PUSH2 0x63B JUMPI DUP1 PUSH4 0xBBB92337 EQ PUSH2 0x666 JUMPI DUP1 PUSH4 0xBD99D7E1 EQ PUSH2 0x679 JUMPI DUP1 PUSH4 0xBFEF22AC EQ PUSH2 0x69C JUMPI DUP1 PUSH4 0xC13D2B9E EQ PUSH2 0x6AF JUMPI DUP1 PUSH4 0xCE5C8E14 EQ PUSH2 0x6C2 JUMPI DUP1 PUSH4 0xE251E96D EQ PUSH2 0x6D5 JUMPI DUP1 PUSH4 0xE30C3978 EQ PUSH2 0x6E8 JUMPI DUP1 PUSH4 0xE3C808BC EQ PUSH2 0x6F0 JUMPI DUP1 PUSH4 0xF2FDE38B EQ PUSH2 0x703 JUMPI DUP1 PUSH4 0xF9CAD2AC EQ PUSH2 0x716 JUMPI DUP1 PUSH4 0xFB895733 EQ PUSH2 0x744 JUMPI DUP1 PUSH4 0xFD590847 EQ PUSH2 0x759 JUMPI DUP1 PUSH4 0xFF464D3F EQ PUSH2 0x7EC JUMPI JUMPDEST PUSH1 0x0 DUP1 REVERT JUMPDEST PUSH2 0x248 PUSH2 0x243 CALLDATASIZE PUSH1 0x4 PUSH2 0x45C1 JUMP JUMPDEST PUSH2 0x80F JUMP JUMPDEST STOP JUMPDEST PUSH2 0x248 PUSH2 0x258 CALLDATASIZE PUSH1 0x4 PUSH2 0x45FC JUMP JUMPDEST PUSH2 0x835 JUMP JUMPDEST PUSH2 0x248 PUSH2 0x26B CALLDATASIZE PUSH1 0x4 PUSH2 0x475D JUMP JUMPDEST PUSH2 0x85F JUMP JUMPDEST PUSH1 0x4 SLOAD PUSH2 0x283 SWAP1 PUSH1 0x1 PUSH1 0x1 PUSH1 0xA0 SHL SUB AND DUP2 JUMP JUMPDEST PUSH1 0x40 MLOAD PUSH2 0x290 SWAP2 SWAP1 PUSH2 0x49F3 JUMP JUMPDEST PUSH1 0x40 MLOAD DUP1 SWAP2 SUB SWAP1 RETURN JUMPDEST PUSH1 0x2 SLOAD JUMPDEST PUSH1 0x40 MLOAD SWAP1 DUP2 MSTORE PUSH1 0x20 ADD PUSH2 0x290 JUMP JUMPDEST PUSH2 0x248 PUSH2 0x2B9 CALLDATASIZE PUSH1 0x4 PUSH2 0x4A07 JUMP JUMPDEST PUSH2 0xA7B JUMP JUMPDEST PUSH2 0x29D PUSH32 0x52941335797217779AB62CF10A3AE2B6D453B5F3A1285E7A816EB9F63A58D669 DUP2 JUMP JUMPDEST PUSH2 0x308 PUSH2 0x2F3 CALLDATASIZE PUSH1 0x4 PUSH2 0x45FC JUMP JUMPDEST PUSH1 0x12 PUSH1 0x20 MSTORE PUSH1 0x0 SWAP1 DUP2 MSTORE PUSH1 0x40 SWAP1 KECCAK256 SLOAD PUSH1 0xFF AND DUP2 JUMP JUMPDEST PUSH1 0x40 MLOAD SWAP1 ISZERO ISZERO DUP2 MSTORE PUSH1 0x20 ADD PUSH2 0x290 JUMP JUMPDEST PUSH2 0x34C PUSH2 0x326 CALLDATASIZE PUSH1 0x4 PUSH2 0x45FC JUMP JUMPDEST PUSH1 0x1 PUSH1 0x1 PUSH1 0xA0 SHL SUB AND PUSH1 0x0 SWAP1 DUP2 MSTORE PUSH1 0x7 PUSH1 0x20 MSTORE PUSH1 0x40 SWAP1 KECCAK256 PUSH1 0x3 DUP2 ADD SLOAD PUSH1 0x6 SWAP1 SWAP2 ADD SLOAD SWAP1 SWAP2 JUMP JUMPDEST PUSH1 0x40 DUP1 MLOAD SWAP3 DUP4 MSTORE PUSH1 0x20 DUP4 ADD SWAP2 SWAP1 SWAP2 MSTORE ADD PUSH2 0x290 JUMP JUMPDEST PUSH2 0x369 PUSH2 0xBB6 JUMP JUMPDEST PUSH1 0x40 MLOAD PUSH2 0x290 SWAP2 SWAP1 PUSH2 0x4AC5 JUMP JUMPDEST PUSH2 0x283 PUSH2 0x384 CALLDATASIZE PUSH1 0x4 PUSH2 0x4AD8 JUMP JUMPDEST PUSH2 0xC18 JUMP JUMPDEST PUSH2 0x39C PUSH2 0x397 CALLDATASIZE PUSH1 0x4 PUSH2 0x45FC JUMP JUMPDEST PUSH2 0xC42 JUMP JUMPDEST PUSH1 0x40 MLOAD PUSH2 0x290 SWAP2 SWAP1 DUP2 MLOAD PUSH1 0x1 PUSH1 0x1 PUSH1 0xA0 SHL SUB AND DUP2 MSTORE PUSH1 0x20 DUP1 DUP4 ADD MLOAD SWAP1 DUP3 ADD MSTORE PUSH1 0x40 DUP1 DUP4 ADD MLOAD SWAP1 DUP3 ADD MSTORE PUSH1 0x60 DUP1 DUP4 ADD MLOAD SWAP1 DUP3 ADD MSTORE PUSH1 0x80 SWAP2 DUP3 ADD MLOAD SWAP2 DUP2 ADD SWAP2 SWAP1 SWAP2 MSTORE PUSH1 0xA0 ADD SWAP1 JUMP JUMPDEST PUSH2 0x283 PUSH2 0x3F0 CALLDATASIZE PUSH1 0x4 PUSH2 0x4AD8 JUMP JUMPDEST PUSH2 0xDFE JUMP JUMPDEST PUSH1 0x1 SLOAD PUSH1 0x1 PUSH1 0xA0 SHL SWAP1 DIV PUSH1 0xFF AND PUSH2 0x308 JUMP JUMPDEST PUSH2 0x308 PUSH2 0x415 CALLDATASIZE PUSH1 0x4 PUSH2 0x45FC JUMP JUMPDEST PUSH1 0xE PUSH1 0x20 MSTORE PUSH1 0x0 SWAP1 DUP2 MSTORE PUSH1 0x40 SWAP1 KECCAK256 SLOAD PUSH1 0xFF AND DUP2 JUMP JUMPDEST PUSH2 0x248 PUSH2 0x438 CALLDATASIZE PUSH1 0x4 PUSH2 0x4BCB JUMP JUMPDEST PUSH2 0xE0E JUMP JUMPDEST PUSH2 0x29D PUSH2 0x44B CALLDATASIZE PUSH1 0x4 PUSH2 0x4DC4 JUMP JUMPDEST PUSH1 0x9 PUSH1 0x20 SWAP1 DUP2 MSTORE PUSH1 0x0 SWAP3 DUP4 MSTORE PUSH1 0x40 DUP1 DUP5 KECCAK256 SWAP1 SWAP2 MSTORE SWAP1 DUP3 MSTORE SWAP1 KECCAK256 SLOAD DUP2 JUMP JUMPDEST PUSH2 0x283 PUSH2 0x476 CALLDATASIZE PUSH1 0x4 PUSH2 0x4AD8 JUMP JUMPDEST PUSH2 0x117E JUMP JUMPDEST PUSH2 0x4C2 PUSH2 0x489 CALLDATASIZE PUSH1 0x4 PUSH2 0x45FC JUMP JUMPDEST PUSH1 0x7 PUSH1 0x20 MSTORE PUSH1 0x0 SWAP1 DUP2 MSTORE PUSH1 0x40 SWAP1 KECCAK256 DUP1 SLOAD PUSH1 0x1 DUP3 ADD SLOAD PUSH1 0x3 DUP4 ADD SLOAD PUSH1 0x4 DUP5 ADD SLOAD PUSH1 0x6 SWAP1 SWAP5 ADD SLOAD PUSH1 0x1 PUSH1 0x1 PUSH1 0xA0 SHL SUB SWAP1 SWAP4 AND SWAP4 SWAP2 SWAP3 SWAP1 SWAP2 SWAP1 DUP6 JUMP JUMPDEST PUSH1 0x40 DUP1 MLOAD PUSH1 0x1 PUSH1 0x1 PUSH1 0xA0 SHL SUB SWAP1 SWAP7 AND DUP7 MSTORE PUSH1 0x20 DUP7 ADD SWAP5 SWAP1 SWAP5 MSTORE SWAP3 DUP5 ADD SWAP2 SWAP1 SWAP2 MSTORE PUSH1 0x60 DUP4 ADD MSTORE PUSH1 0x80 DUP3 ADD MSTORE PUSH1 0xA0 ADD PUSH2 0x290 JUMP JUMPDEST PUSH2 0x29D PUSH2 0x502 CALLDATASIZE PUSH1 0x4 PUSH2 0x4DF7 JUMP JUMPDEST PUSH2 0x11AE JUMP JUMPDEST PUSH2 0x248 PUSH2 0x11DF JUMP JUMPDEST PUSH2 0x248 PUSH2 0x11F3 JUMP JUMPDEST PUSH2 0x29D PUSH2 0x525 CALLDATASIZE PUSH1 0x4 PUSH2 0x45FC JUMP JUMPDEST PUSH1 0x11 PUSH1 0x20 MSTORE PUSH1 0x0 SWAP1 DUP2 MSTORE PUSH1 0x40 SWAP1 KECCAK256 SLOAD DUP2 JUMP JUMPDEST PUSH2 0x308 PUSH2 0x545 CALLDATASIZE PUSH1 0x4 PUSH2 0x4E21 JUMP JUMPDEST DUP1 MLOAD PUSH1 0x20 DUP2 DUP4 ADD DUP2 ADD DUP1 MLOAD PUSH1 0xF DUP3 MSTORE SWAP3 DUP3 ADD SWAP2 SWAP1 SWAP4 ADD KECCAK256 SWAP2 MSTORE SLOAD PUSH1 0xFF AND DUP2 JUMP JUMPDEST PUSH2 0x29D PUSH2 0x573 CALLDATASIZE PUSH1 0x4 PUSH2 0x45FC JUMP JUMPDEST PUSH1 0x1 PUSH1 0x1 PUSH1 0xA0 SHL SUB AND PUSH1 0x0 SWAP1 DUP2 MSTORE PUSH1 0x11 PUSH1 0x20 MSTORE PUSH1 0x40 SWAP1 KECCAK256 SLOAD SWAP1 JUMP JUMPDEST PUSH2 0x283 PUSH2 0x1271 JUMP JUMPDEST PUSH2 0x369 PUSH2 0x1280 JUMP JUMPDEST PUSH2 0x308 PUSH2 0x5AC CALLDATASIZE PUSH1 0x4 PUSH2 0x4E5D JUMP JUMPDEST PUSH2 0x12E0 JUMP JUMPDEST PUSH2 0x248 PUSH2 0x5BF CALLDATASIZE PUSH1 0x4 PUSH2 0x4E80 JUMP JUMPDEST PUSH2 0x130D JUMP JUMPDEST PUSH2 0x29D PUSH2 0x5D2 CALLDATASIZE PUSH1 0x4 PUSH2 0x4DC4 JUMP JUMPDEST PUSH1 0xC PUSH1 0x20 SWAP1 DUP2 MSTORE PUSH1 0x0 SWAP3 DUP4 MSTORE PUSH1 0x40 DUP1 DUP5 KECCAK256 SWAP1 SWAP2 MSTORE SWAP1 DUP3 MSTORE SWAP1 KECCAK256 SLOAD DUP2 JUMP JUMPDEST PUSH2 0x248 PUSH2 0x5FD CALLDATASIZE PUSH1 0x4 PUSH2 0x4EDB JUMP JUMPDEST PUSH2 0x13F1 JUMP JUMPDEST PUSH2 0x248 PUSH2 0x610 CALLDATASIZE PUSH1 0x4 PUSH2 0x45FC JUMP JUMPDEST PUSH2 0x1424 JUMP JUMPDEST PUSH2 0x283 PUSH2 0x623 CALLDATASIZE PUSH1 0x4 PUSH2 0x4F12 JUMP JUMPDEST PUSH2 0x144E JUMP JUMPDEST PUSH2 0x29D PUSH2 0x636 CALLDATASIZE PUSH1 0x4 PUSH2 0x4AD8 JUMP JUMPDEST PUSH2 0x14DB JUMP JUMPDEST PUSH2 0x29D PUSH2 0x649 CALLDATASIZE PUSH1 0x4 PUSH2 0x4DC4 JUMP JUMPDEST PUSH1 0x8 PUSH1 0x20 SWAP1 DUP2 MSTORE PUSH1 0x0 SWAP3 DUP4 MSTORE PUSH1 0x40 DUP1 DUP5 KECCAK256 SWAP1 SWAP2 MSTORE SWAP1 DUP3 MSTORE SWAP1 KECCAK256 SLOAD DUP2 JUMP JUMPDEST PUSH2 0x248 PUSH2 0x674 CALLDATASIZE PUSH1 0x4 PUSH2 0x45FC JUMP JUMPDEST PUSH2 0x152D JUMP JUMPDEST PUSH2 0x29D PUSH2 0x687 CALLDATASIZE PUSH1 0x4 PUSH2 0x4AD8 JUMP JUMPDEST PUSH1 0x5 PUSH1 0x20 MSTORE PUSH1 0x0 SWAP1 DUP2 MSTORE PUSH1 0x40 SWAP1 KECCAK256 PUSH1 0x1 ADD SLOAD DUP2 JUMP JUMPDEST PUSH2 0x248 PUSH2 0x6AA CALLDATASIZE PUSH1 0x4 PUSH2 0x4F58 JUMP JUMPDEST PUSH2 0x1571 JUMP JUMPDEST PUSH1 0x3 SLOAD PUSH2 0x283 SWAP1 PUSH1 0x1 PUSH1 0x1 PUSH1 0xA0 SHL SUB AND DUP2 JUMP JUMPDEST PUSH2 0x29D PUSH2 0x6D0 CALLDATASIZE PUSH1 0x4 PUSH2 0x4DF7 JUMP JUMPDEST PUSH2 0x1B9D JUMP JUMPDEST PUSH2 0x248 PUSH2 0x6E3 CALLDATASIZE PUSH1 0x4 PUSH2 0x45FC JUMP JUMPDEST PUSH2 0x1BB9 JUMP JUMPDEST PUSH2 0x283 PUSH2 0x1BD9 JUMP JUMPDEST PUSH2 0x29D PUSH2 0x6FE CALLDATASIZE PUSH1 0x4 PUSH2 0x5067 JUMP JUMPDEST PUSH2 0x1BE8 JUMP JUMPDEST PUSH2 0x248 PUSH2 0x711 CALLDATASIZE PUSH1 0x4 PUSH2 0x45FC JUMP JUMPDEST PUSH2 0x1C7B JUMP JUMPDEST PUSH2 0x308 PUSH2 0x724 CALLDATASIZE PUSH1 0x4 PUSH2 0x4DC4 JUMP JUMPDEST PUSH1 0x6 PUSH1 0x20 SWAP1 DUP2 MSTORE PUSH1 0x0 SWAP3 DUP4 MSTORE PUSH1 0x40 DUP1 DUP5 KECCAK256 SWAP1 SWAP2 MSTORE SWAP1 DUP3 MSTORE SWAP1 KECCAK256 SLOAD PUSH1 0xFF AND DUP2 JUMP JUMPDEST PUSH2 0x29D PUSH1 0x0 DUP1 MLOAD PUSH1 0x20 PUSH2 0x557B DUP4 CODECOPY DUP2 MLOAD SWAP2 MSTORE DUP2 JUMP JUMPDEST PUSH2 0x7B5 PUSH2 0x767 CALLDATASIZE PUSH1 0x4 PUSH2 0x4DC4 JUMP JUMPDEST PUSH1 0x1 PUSH1 0x1 PUSH1 0xA0 SHL SUB DUP3 DUP2 AND PUSH1 0x0 SWAP1 DUP2 MSTORE PUSH1 0x7 PUSH1 0x20 SWAP1 DUP2 MSTORE PUSH1 0x40 DUP1 DUP4 KECCAK256 PUSH1 0x1 DUP2 ADD SLOAD PUSH1 0x4 DUP3 ADD SLOAD SWAP7 SWAP1 SWAP6 AND DUP5 MSTORE PUSH1 0x2 DUP2 ADD DUP4 MSTORE DUP2 DUP5 KECCAK256 SLOAD PUSH1 0x3 DUP3 ADD SLOAD PUSH1 0x5 SWAP1 SWAP3 ADD SWAP1 SWAP4 MSTORE SWAP3 KECCAK256 SLOAD SWAP5 SWAP6 SWAP3 SWAP5 SWAP1 SWAP3 JUMP JUMPDEST PUSH1 0x40 DUP1 MLOAD PUSH1 0x1 PUSH1 0x1 PUSH1 0xA0 SHL SUB SWAP1 SWAP8 AND DUP8 MSTORE PUSH1 0x20 DUP8 ADD SWAP6 SWAP1 SWAP6 MSTORE SWAP4 DUP6 ADD SWAP3 SWAP1 SWAP3 MSTORE PUSH1 0x60 DUP5 ADD MSTORE PUSH1 0x80 DUP4 ADD MSTORE PUSH1 0xA0 DUP3 ADD MSTORE PUSH1 0xC0 ADD PUSH2 0x290 JUMP JUMPDEST PUSH2 0x308 PUSH2 0x7FA CALLDATASIZE PUSH1 0x4 PUSH2 0x45FC JUMP JUMPDEST PUSH1 0xD PUSH1 0x20 MSTORE PUSH1 0x0 SWAP1 DUP2 MSTORE PUSH1 0x40 SWAP1 KECCAK256 SLOAD PUSH1 0xFF AND DUP2 JUMP JUMPDEST PUSH2 0x817 PUSH2 0x1D31 JUMP JUMPDEST PUSH1 0x1 DUP1 SLOAD SWAP2 ISZERO ISZERO PUSH1 0x1 PUSH1 0xA0 SHL MUL PUSH1 0xFF PUSH1 0xA0 SHL NOT SWAP1 SWAP3 AND SWAP2 SWAP1 SWAP2 OR SWAP1 SSTORE JUMP JUMPDEST PUSH2 0x83D PUSH2 0x1D31 JUMP JUMPDEST PUSH1 0x3 DUP1 SLOAD PUSH1 0x1 PUSH1 0x1 PUSH1 0xA0 SHL SUB NOT AND PUSH1 0x1 PUSH1 0x1 PUSH1 0xA0 SHL SUB SWAP3 SWAP1 SWAP3 AND SWAP2 SWAP1 SWAP2 OR SWAP1 SSTORE JUMP JUMPDEST PUSH2 0x877 PUSH1 0x0 DUP1 MLOAD PUSH1 0x20 PUSH2 0x557B DUP4 CODECOPY DUP2 MLOAD SWAP2 MSTORE CALLER PUSH2 0x12E0 JUMP JUMPDEST PUSH2 0x89C JUMPI PUSH1 0x40 MLOAD PUSH3 0x461BCD PUSH1 0xE5 SHL DUP2 MSTORE PUSH1 0x4 ADD PUSH2 0x893 SWAP1 PUSH2 0x5089 JUMP JUMPDEST PUSH1 0x40 MLOAD DUP1 SWAP2 SUB SWAP1 REVERT JUMPDEST PUSH1 0x0 DUP2 MLOAD GT PUSH2 0x8EA JUMPI PUSH1 0x40 MLOAD PUSH3 0x461BCD PUSH1 0xE5 SHL DUP2 MSTORE PUSH1 0x20 PUSH1 0x4 DUP3 ADD MSTORE PUSH1 0x1A PUSH1 0x24 DUP3 ADD MSTORE PUSH26 0x3A3930B232A134B63639903632B733BA341034B99032B93937B9 PUSH1 0x31 SHL PUSH1 0x44 DUP3 ADD MSTORE PUSH1 0x64 ADD PUSH2 0x893 JUMP JUMPDEST PUSH1 0x3 PUSH1 0x0 SWAP1 SLOAD SWAP1 PUSH2 0x100 EXP SWAP1 DIV PUSH1 0x1 PUSH1 0x1 PUSH1 0xA0 SHL SUB AND PUSH1 0x1 PUSH1 0x1 PUSH1 0xA0 SHL SUB AND PUSH4 0xD085835A PUSH1 0x40 MLOAD DUP2 PUSH4 0xFFFFFFFF AND PUSH1 0xE0 SHL DUP2 MSTORE PUSH1 0x4 ADD PUSH1 0x20 PUSH1 0x40 MLOAD DUP1 DUP4 SUB DUP2 DUP7 GAS STATICCALL ISZERO DUP1 ISZERO PUSH2 0x93D JUMPI RETURNDATASIZE PUSH1 0x0 DUP1 RETURNDATACOPY RETURNDATASIZE PUSH1 0x0 REVERT JUMPDEST POP POP POP POP PUSH1 0x40 MLOAD RETURNDATASIZE PUSH1 0x1F NOT PUSH1 0x1F DUP3 ADD AND DUP3 ADD DUP1 PUSH1 0x40 MSTORE POP DUP2 ADD SWAP1 PUSH2 0x961 SWAP2 SWAP1 PUSH2 0x50BB JUMP JUMPDEST ISZERO PUSH2 0x97E JUMPI PUSH1 0x40 MLOAD PUSH3 0x461BCD PUSH1 0xE5 SHL DUP2 MSTORE PUSH1 0x4 ADD PUSH2 0x893 SWAP1 PUSH2 0x50D8 JUMP JUMPDEST PUSH1 0x3 PUSH1 0x0 SWAP1 SLOAD SWAP1 PUSH2 0x100 EXP SWAP1 DIV PUSH1 0x1 PUSH1 0x1 PUSH1 0xA0 SHL SUB AND PUSH1 0x1 PUSH1 0x1 PUSH1 0xA0 SHL SUB AND PUSH4 0xFE4388A8 PUSH1 0x40 MLOAD DUP2 PUSH4 0xFFFFFFFF AND PUSH1 0xE0 SHL DUP2 MSTORE PUSH1 0x4 ADD PUSH1 0x0 PUSH1 0x40 MLOAD DUP1 DUP4 SUB DUP2 PUSH1 0x0 DUP8 DUP1 EXTCODESIZE ISZERO DUP1 ISZERO PUSH2 0x9CE JUMPI PUSH1 0x0 DUP1 REVERT JUMPDEST POP GAS CALL ISZERO DUP1 ISZERO PUSH2 0x9E2 JUMPI RETURNDATASIZE PUSH1 0x0 DUP1 RETURNDATACOPY RETURNDATASIZE PUSH1 0x0 REVERT JUMPDEST POP POP POP POP PUSH1 0x0 JUMPDEST DUP2 MLOAD DUP2 LT ISZERO PUSH2 0xA4E JUMPI PUSH2 0xA14 DUP3 DUP3 DUP2 MLOAD DUP2 LT PUSH2 0xA07 JUMPI PUSH2 0xA07 PUSH2 0x5106 JUMP JUMPDEST PUSH1 0x20 MUL PUSH1 0x20 ADD ADD MLOAD PUSH2 0x1D90 JUMP JUMPDEST PUSH2 0xA36 DUP3 DUP3 DUP2 MLOAD DUP2 LT PUSH2 0xA29 JUMPI PUSH2 0xA29 PUSH2 0x5106 JUMP JUMPDEST PUSH1 0x20 MUL PUSH1 0x20 ADD ADD MLOAD PUSH2 0x2331 JUMP JUMPDEST POP POP POP POP POP DUP1 DUP1 PUSH2 0xA46 SWAP1 PUSH2 0x5132 JUMP JUMPDEST SWAP2 POP POP PUSH2 0x9E9 JUMP JUMPDEST POP PUSH1 0x40 MLOAD PUSH32 0x87472B23CF6B5BA1DBC3E61886938B11A7B01F41B3810B40252F882A2A3D0169 SWAP1 PUSH1 0x0 SWAP1 LOG1 POP JUMP JUMPDEST PUSH1 0x40 MLOAD PUSH1 0x1 PUSH1 0x1 PUSH1 0x60 SHL SUB NOT PUSH1 0x60 DUP8 DUP2 SHL DUP3 AND PUSH1 0x20 DUP5 ADD MSTORE DUP7 ISZERO ISZERO PUSH1 0xF8 SHL PUSH1 0x34 DUP5 ADD MSTORE DUP6 SWAP1 SHL AND PUSH1 0x35 DUP3 ADD MSTORE DUP3 SWAP1 PUSH1 0x49 ADD PUSH1 0x40 MLOAD PUSH1 0x20 DUP2 DUP4 SUB SUB DUP2 MSTORE SWAP1 PUSH1 0x40 MSTORE DUP1 MLOAD SWAP1 PUSH1 0x20 ADD KECCAK256 EQ PUSH2 0xB0F JUMPI PUSH1 0x40 MLOAD PUSH3 0x461BCD PUSH1 0xE5 SHL DUP2 MSTORE PUSH1 0x20 PUSH1 0x4 DUP3 ADD MSTORE PUSH1 0x1F PUSH1 0x24 DUP3 ADD MSTORE PUSH32 0x73657441756F626A6563743A20757365722068617368206973206572726F7200 PUSH1 0x44 DUP3 ADD MSTORE PUSH1 0x64 ADD PUSH2 0x893 JUMP JUMPDEST DUP5 PUSH1 0x1 PUSH1 0x1 PUSH1 0xA0 SHL SUB AND PUSH2 0xB23 DUP4 DUP4 PUSH2 0x144E JUMP JUMPDEST PUSH1 0x1 PUSH1 0x1 PUSH1 0xA0 SHL SUB AND EQ PUSH2 0xB79 JUMPI PUSH1 0x40 MLOAD PUSH3 0x461BCD PUSH1 0xE5 SHL DUP2 MSTORE PUSH1 0x20 PUSH1 0x4 DUP3 ADD MSTORE PUSH1 0x1E PUSH1 0x24 DUP3 ADD MSTORE PUSH32 0x73657441756F626A6563743A206E6F2075736572207369676E61747572650000 PUSH1 0x44 DUP3 ADD MSTORE PUSH1 0x64 ADD PUSH2 0x893 JUMP JUMPDEST POP POP PUSH1 0x1 PUSH1 0x1 PUSH1 0xA0 SHL SUB SWAP3 DUP4 AND PUSH1 0x0 SWAP1 DUP2 MSTORE PUSH1 0x6 PUSH1 0x20 SWAP1 DUP2 MSTORE PUSH1 0x40 DUP1 DUP4 KECCAK256 SWAP4 SWAP1 SWAP6 AND DUP3 MSTORE SWAP2 SWAP1 SWAP2 MSTORE SWAP2 SWAP1 SWAP2 KECCAK256 DUP1 SLOAD PUSH1 0xFF NOT AND SWAP2 ISZERO ISZERO SWAP2 SWAP1 SWAP2 OR SWAP1 SSTORE JUMP JUMPDEST PUSH1 0x60 PUSH1 0x10 DUP1 SLOAD DUP1 PUSH1 0x20 MUL PUSH1 0x20 ADD PUSH1 0x40 MLOAD SWAP1 DUP2 ADD PUSH1 0x40 MSTORE DUP1 SWAP3 SWAP2 SWAP1 DUP2 DUP2 MSTORE PUSH1 0x20 ADD DUP3 DUP1 SLOAD DUP1 ISZERO PUSH2 0xC0E JUMPI PUSH1 0x20 MUL DUP3 ADD SWAP2 SWAP1 PUSH1 0x0 MSTORE PUSH1 0x20 PUSH1 0x0 KECCAK256 SWAP1 JUMPDEST DUP2 SLOAD PUSH1 0x1 PUSH1 0x1 PUSH1 0xA0 SHL SUB AND DUP2 MSTORE PUSH1 0x1 SWAP1 SWAP2 ADD SWAP1 PUSH1 0x20 ADD DUP1 DUP4 GT PUSH2 0xBF0 JUMPI JUMPDEST POP POP POP POP POP SWAP1 POP SWAP1 JUMP JUMPDEST PUSH1 0x10 DUP2 DUP2 SLOAD DUP2 LT PUSH2 0xC28 JUMPI PUSH1 0x0 DUP1 REVERT JUMPDEST PUSH1 0x0 SWAP2 DUP3 MSTORE PUSH1 0x20 SWAP1 SWAP2 KECCAK256 ADD SLOAD PUSH1 0x1 PUSH1 0x1 PUSH1 0xA0 SHL SUB AND SWAP1 POP DUP2 JUMP JUMPDEST PUSH1 0x40 DUP1 MLOAD PUSH1 0xA0 DUP2 ADD DUP3 MSTORE PUSH1 0x0 DUP1 DUP3 MSTORE PUSH1 0x20 DUP3 ADD DUP2 SWAP1 MSTORE SWAP2 DUP2 ADD DUP3 SWAP1 MSTORE PUSH1 0x60 DUP2 ADD DUP3 SWAP1 MSTORE PUSH1 0x80 DUP2 ADD SWAP2 SWAP1 SWAP2 MSTORE PUSH1 0x3 SLOAD PUSH1 0x40 MLOAD PUSH4 0x57463D35 PUSH1 0xE0 SHL DUP2 MSTORE PUSH1 0x0 SWAP2 PUSH1 0x1 PUSH1 0x1 PUSH1 0xA0 SHL SUB AND SWAP1 PUSH4 0x57463D35 SWAP1 PUSH2 0xC9E SWAP1 DUP7 SWAP1 PUSH1 0x4 ADD PUSH2 0x49F3 JUMP JUMPDEST PUSH1 0x40 DUP1 MLOAD DUP1 DUP4 SUB DUP2 DUP7 GAS STATICCALL ISZERO DUP1 ISZERO PUSH2 0xCBA JUMPI RETURNDATASIZE PUSH1 0x0 DUP1 RETURNDATACOPY RETURNDATASIZE PUSH1 0x0 REVERT JUMPDEST POP POP POP POP PUSH1 0x40 MLOAD RETURNDATASIZE PUSH1 0x1F NOT PUSH1 0x1F DUP3 ADD AND DUP3 ADD DUP1 PUSH1 0x40 MSTORE POP DUP2 ADD SWAP1 PUSH2 0xCDE SWAP2 SWAP1 PUSH2 0x514B JUMP JUMPDEST POP PUSH1 0x40 DUP1 MLOAD PUSH1 0xA0 DUP2 ADD DUP3 MSTORE PUSH1 0x1 PUSH1 0x1 PUSH1 0xA0 SHL SUB DUP1 DUP8 AND DUP1 DUP4 MSTORE PUSH1 0x0 SWAP1 DUP2 MSTORE PUSH1 0x7 PUSH1 0x20 SWAP1 DUP2 MSTORE SWAP1 DUP5 SWAP1 KECCAK256 PUSH1 0x1 ADD SLOAD DUP2 DUP5 ADD MSTORE PUSH1 0x4 DUP1 SLOAD DUP6 MLOAD PUSH4 0x3A98EF39 PUSH1 0xE0 SHL DUP2 MSTORE DUP7 MLOAD SWAP8 SWAP9 POP SWAP5 SWAP7 SWAP6 DUP8 ADD SWAP6 SWAP4 AND SWAP4 PUSH4 0x3A98EF39 SWAP4 DUP2 DUP4 ADD SWAP4 SWAP3 SWAP1 SWAP2 DUP3 SWAP1 SUB ADD DUP2 DUP7 GAS STATICCALL ISZERO DUP1 ISZERO PUSH2 0xD53 JUMPI RETURNDATASIZE PUSH1 0x0 DUP1 RETURNDATACOPY RETURNDATASIZE PUSH1 0x0 REVERT JUMPDEST POP POP POP POP PUSH1 0x40 MLOAD RETURNDATASIZE PUSH1 0x1F NOT PUSH1 0x1F DUP3 ADD AND DUP3 ADD DUP1 PUSH1 0x40 MSTORE POP DUP2 ADD SWAP1 PUSH2 0xD77 SWAP2 SWAP1 PUSH2 0x516F JUMP JUMPDEST DUP2 MSTORE PUSH1 0x4 DUP1 SLOAD PUSH1 0x40 MLOAD PUSH4 0x673E1561 PUSH1 0xE1 SHL DUP2 MSTORE PUSH1 0x20 SWAP1 SWAP4 ADD SWAP3 PUSH1 0x1 PUSH1 0x1 PUSH1 0xA0 SHL SUB SWAP1 SWAP2 AND SWAP2 PUSH4 0xCE7C2AC2 SWAP2 PUSH2 0xDAE SWAP2 DUP10 SWAP2 ADD PUSH2 0x49F3 JUMP JUMPDEST PUSH1 0x20 PUSH1 0x40 MLOAD DUP1 DUP4 SUB DUP2 DUP7 GAS STATICCALL ISZERO DUP1 ISZERO PUSH2 0xDCB JUMPI RETURNDATASIZE PUSH1 0x0 DUP1 RETURNDATACOPY RETURNDATASIZE PUSH1 0x0 REVERT JUMPDEST POP POP POP POP PUSH1 0x40 MLOAD RETURNDATASIZE PUSH1 0x1F NOT PUSH1 0x1F DUP3 ADD AND DUP3 ADD DUP1 PUSH1 0x40 MSTORE POP DUP2 ADD SWAP1 PUSH2 0xDEF SWAP2 SWAP1 PUSH2 0x516F JUMP JUMPDEST DUP2 MSTORE PUSH1 0x20 ADD SWAP2 SWAP1 SWAP2 MSTORE SWAP3 SWAP2 POP POP JUMP JUMPDEST PUSH1 0x2 DUP2 DUP2 SLOAD DUP2 LT PUSH2 0xC28 JUMPI PUSH1 0x0 DUP1 REVERT JUMPDEST PUSH2 0xE26 PUSH1 0x0 DUP1 MLOAD PUSH1 0x20 PUSH2 0x557B DUP4 CODECOPY DUP2 MLOAD SWAP2 MSTORE CALLER PUSH2 0x12E0 JUMP JUMPDEST PUSH2 0xE42 JUMPI PUSH1 0x40 MLOAD PUSH3 0x461BCD PUSH1 0xE5 SHL DUP2 MSTORE PUSH1 0x4 ADD PUSH2 0x893 SWAP1 PUSH2 0x5089 JUMP JUMPDEST PUSH1 0x3 PUSH1 0x0 SWAP1 SLOAD SWAP1 PUSH2 0x100 EXP SWAP1 DIV PUSH1 0x1 PUSH1 0x1 PUSH1 0xA0 SHL SUB AND PUSH1 0x1 PUSH1 0x1 PUSH1 0xA0 SHL SUB AND PUSH4 0xD085835A PUSH1 0x40 MLOAD DUP2 PUSH4 0xFFFFFFFF AND PUSH1 0xE0 SHL DUP2 MSTORE PUSH1 0x4 ADD PUSH1 0x20 PUSH1 0x40 MLOAD DUP1 DUP4 SUB DUP2 DUP7 GAS STATICCALL ISZERO DUP1 ISZERO PUSH2 0xE95 JUMPI RETURNDATASIZE PUSH1 0x0 DUP1 RETURNDATACOPY RETURNDATASIZE PUSH1 0x0 REVERT JUMPDEST POP POP POP POP PUSH1 0x40 MLOAD RETURNDATASIZE PUSH1 0x1F NOT PUSH1 0x1F DUP3 ADD AND DUP3 ADD DUP1 PUSH1 0x40 MSTORE POP DUP2 ADD SWAP1 PUSH2 0xEB9 SWAP2 SWAP1 PUSH2 0x50BB JUMP JUMPDEST ISZERO PUSH2 0xED6 JUMPI PUSH1 0x40 MLOAD PUSH3 0x461BCD PUSH1 0xE5 SHL DUP2 MSTORE PUSH1 0x4 ADD PUSH2 0x893 SWAP1 PUSH2 0x50D8 JUMP JUMPDEST PUSH1 0x3 PUSH1 0x0 SWAP1 SLOAD SWAP1 PUSH2 0x100 EXP SWAP1 DIV PUSH1 0x1 PUSH1 0x1 PUSH1 0xA0 SHL SUB AND PUSH1 0x1 PUSH1 0x1 PUSH1 0xA0 SHL SUB AND PUSH4 0xFE4388A8 PUSH1 0x40 MLOAD DUP2 PUSH4 0xFFFFFFFF AND PUSH1 0xE0 SHL DUP2 MSTORE PUSH1 0x4 ADD PUSH1 0x0 PUSH1 0x40 MLOAD DUP1 DUP4 SUB DUP2 PUSH1 0x0 DUP8 DUP1 EXTCODESIZE ISZERO DUP1 ISZERO PUSH2 0xF26 JUMPI PUSH1 0x0 DUP1 REVERT JUMPDEST POP GAS CALL ISZERO DUP1 ISZERO PUSH2 0xF3A JUMPI RETURNDATASIZE PUSH1 0x0 DUP1 RETURNDATACOPY RETURNDATASIZE PUSH1 0x0 REVERT JUMPDEST POP POP POP POP PUSH1 0x0 JUMPDEST DUP3 MLOAD DUP2 LT ISZERO PUSH2 0x1150 JUMPI PUSH1 0xF DUP4 DUP3 DUP2 MLOAD DUP2 LT PUSH2 0xF5E JUMPI PUSH2 0xF5E PUSH2 0x5106 JUMP JUMPDEST PUSH1 0x20 MUL PUSH1 0x20 ADD ADD MLOAD PUSH1 0x0 ADD MLOAD PUSH1 0x40 MLOAD PUSH2 0xF77 SWAP2 SWAP1 PUSH2 0x51B8 JUMP JUMPDEST SWAP1 DUP2 MSTORE PUSH1 0x40 MLOAD SWAP1 DUP2 SWAP1 SUB PUSH1 0x20 ADD SWAP1 KECCAK256 SLOAD PUSH1 0xFF AND ISZERO PUSH2 0xFE3 JUMPI PUSH1 0x40 MLOAD PUSH3 0x461BCD PUSH1 0xE5 SHL DUP2 MSTORE PUSH1 0x20 PUSH1 0x4 DUP3 ADD MSTORE PUSH1 0x23 PUSH1 0x24 DUP3 ADD MSTORE PUSH32 0x766572696669636174696F6E426F6F6B3A20696420616C726561647920657869 PUSH1 0x44 DUP3 ADD MSTORE PUSH3 0x737473 PUSH1 0xE8 SHL PUSH1 0x64 DUP3 ADD MSTORE PUSH1 0x84 ADD PUSH2 0x893 JUMP JUMPDEST PUSH1 0x1 PUSH1 0xF DUP5 DUP4 DUP2 MLOAD DUP2 LT PUSH2 0xFF9 JUMPI PUSH2 0xFF9 PUSH2 0x5106 JUMP JUMPDEST PUSH1 0x20 MUL PUSH1 0x20 ADD ADD MLOAD PUSH1 0x0 ADD MLOAD PUSH1 0x40 MLOAD PUSH2 0x1012 SWAP2 SWAP1 PUSH2 0x51B8 JUMP JUMPDEST SWAP1 DUP2 MSTORE PUSH1 0x40 MLOAD SWAP1 DUP2 SWAP1 SUB PUSH1 0x20 ADD SWAP1 KECCAK256 DUP1 SLOAD SWAP2 ISZERO ISZERO PUSH1 0xFF NOT SWAP1 SWAP3 AND SWAP2 SWAP1 SWAP2 OR SWAP1 SSTORE DUP3 MLOAD DUP4 SWAP1 DUP3 SWAP1 DUP2 LT PUSH2 0x1046 JUMPI PUSH2 0x1046 PUSH2 0x5106 JUMP JUMPDEST PUSH1 0x20 MUL PUSH1 0x20 ADD ADD MLOAD PUSH2 0x140 ADD MLOAD PUSH2 0xFFFF AND PUSH1 0x1 EQ DUP1 PUSH2 0x1087 JUMPI POP DUP3 DUP2 DUP2 MLOAD DUP2 LT PUSH2 0x1072 JUMPI PUSH2 0x1072 PUSH2 0x5106 JUMP JUMPDEST PUSH1 0x20 MUL PUSH1 0x20 ADD ADD MLOAD PUSH2 0x140 ADD MLOAD PUSH2 0xFFFF AND PUSH1 0x2 EQ JUMPDEST ISZERO PUSH2 0x10DC JUMPI PUSH2 0x10AF DUP4 DUP3 DUP2 MLOAD DUP2 LT PUSH2 0x10A1 JUMPI PUSH2 0x10A1 PUSH2 0x5106 JUMP JUMPDEST PUSH1 0x20 MUL PUSH1 0x20 ADD ADD MLOAD DUP4 PUSH2 0x34E6 JUMP JUMPDEST PUSH2 0x10D2 DUP4 DUP3 DUP2 MLOAD DUP2 LT PUSH2 0x10C4 JUMPI PUSH2 0x10C4 PUSH2 0x5106 JUMP JUMPDEST PUSH1 0x20 MUL PUSH1 0x20 ADD ADD MLOAD DUP4 PUSH2 0x35DE JUMP JUMPDEST POP POP POP POP POP PUSH2 0x113E JUMP JUMPDEST DUP3 DUP2 DUP2 MLOAD DUP2 LT PUSH2 0x10EE JUMPI PUSH2 0x10EE PUSH2 0x5106 JUMP JUMPDEST PUSH1 0x20 MUL PUSH1 0x20 ADD ADD MLOAD PUSH2 0x140 ADD MLOAD PUSH2 0xFFFF AND PUSH1 0x3 SUB PUSH2 0x113E JUMPI PUSH2 0x111B DUP4 DUP3 DUP2 MLOAD DUP2 LT PUSH2 0x10A1 JUMPI PUSH2 0x10A1 PUSH2 0x5106 JUMP JUMPDEST PUSH2 0x113E DUP4 DUP3 DUP2 MLOAD DUP2 LT PUSH2 0x1130 JUMPI PUSH2 0x1130 PUSH2 0x5106 JUMP JUMPDEST PUSH1 0x20 MUL PUSH1 0x20 ADD ADD MLOAD DUP4 PUSH2 0x39BF JUMP JUMPDEST DUP1 PUSH2 0x1148 DUP2 PUSH2 0x5132 JUMP JUMPDEST SWAP2 POP POP PUSH2 0xF41 JUMP JUMPDEST POP PUSH1 0x40 MLOAD PUSH32 0x7220C34C380A75CB6F46E8C61894C0377724F395EFB506F00F1F6DFCAC516F92 SWAP1 PUSH1 0x0 SWAP1 LOG1 POP POP JUMP JUMPDEST PUSH1 0x0 PUSH1 0x2 DUP3 DUP2 SLOAD DUP2 LT PUSH2 0x1193 JUMPI PUSH2 0x1193 PUSH2 0x5106 JUMP JUMPDEST PUSH1 0x0 SWAP2 DUP3 MSTORE PUSH1 0x20 SWAP1 SWAP2 KECCAK256 ADD SLOAD PUSH1 0x1 PUSH1 0x1 PUSH1 0xA0 SHL SUB AND SWAP3 SWAP2 POP POP JUMP JUMPDEST PUSH1 0xA PUSH1 0x20 MSTORE DUP2 PUSH1 0x0 MSTORE PUSH1 0x40 PUSH1 0x0 KECCAK256 DUP2 DUP2 SLOAD DUP2 LT PUSH2 0x11CA JUMPI PUSH1 0x0 DUP1 REVERT JUMPDEST SWAP1 PUSH1 0x0 MSTORE PUSH1 0x20 PUSH1 0x0 KECCAK256 ADD PUSH1 0x0 SWAP2 POP SWAP2 POP POP SLOAD DUP2 JUMP JUMPDEST PUSH2 0x11E7 PUSH2 0x1D31 JUMP JUMPDEST PUSH2 0x11F1 PUSH1 0x0 PUSH2 0x4339 JUMP JUMPDEST JUMP JUMPDEST CALLER DUP1 PUSH2 0x11FD PUSH2 0x1BD9 JUMP JUMPDEST PUSH1 0x1 PUSH1 0x1 PUSH1 0xA0 SHL SUB AND EQ PUSH2 0x1265 JUMPI PUSH1 0x40 MLOAD PUSH3 0x461BCD PUSH1 0xE5 SHL DUP2 MSTORE PUSH1 0x20 PUSH1 0x4 DUP3 ADD MSTORE PUSH1 0x29 PUSH1 0x24 DUP3 ADD MSTORE PUSH32 0x4F776E61626C6532537465703A2063616C6C6572206973206E6F742074686520 PUSH1 0x44 DUP3 ADD MSTORE PUSH9 0x3732BB9037BBB732B9 PUSH1 0xB9 SHL PUSH1 0x64 DUP3 ADD MSTORE PUSH1 0x84 ADD PUSH2 0x893 JUMP JUMPDEST PUSH2 0x126E DUP2 PUSH2 0x4339 JUMP JUMPDEST POP JUMP JUMPDEST PUSH1 0x0 SLOAD PUSH1 0x1 PUSH1 0x1 PUSH1 0xA0 SHL SUB AND SWAP1 JUMP JUMPDEST PUSH1 0x60 PUSH1 0x2 DUP1 SLOAD DUP1 PUSH1 0x20 MUL PUSH1 0x20 ADD PUSH1 0x40 MLOAD SWAP1 DUP2 ADD PUSH1 0x40 MSTORE DUP1 SWAP3 SWAP2 SWAP1 DUP2 DUP2 MSTORE PUSH1 0x20 ADD DUP3 DUP1 SLOAD DUP1 ISZERO PUSH2 0xC0E JUMPI PUSH1 0x20 MUL DUP3 ADD SWAP2 SWAP1 PUSH1 0x0 MSTORE PUSH1 0x20 PUSH1 0x0 KECCAK256 SWAP1 DUP2 SLOAD PUSH1 0x1 PUSH1 0x1 PUSH1 0xA0 SHL SUB AND DUP2 MSTORE PUSH1 0x1 SWAP1 SWAP2 ADD SWAP1 PUSH1 0x20 ADD DUP1 DUP4 GT PUSH2 0xBF0 JUMPI POP POP POP POP POP SWAP1 POP SWAP1 JUMP JUMPDEST PUSH1 0x0 DUP3 DUP2 MSTORE PUSH1 0x5 PUSH1 0x20 SWAP1 DUP2 MSTORE PUSH1 0x40 DUP1 DUP4 KECCAK256 PUSH1 0x1 PUSH1 0x1 PUSH1 0xA0 SHL SUB DUP6 AND DUP5 MSTORE SWAP1 SWAP2 MSTORE SWAP1 KECCAK256 SLOAD PUSH1 0xFF AND JUMPDEST SWAP3 SWAP2 POP POP JUMP JUMPDEST PUSH1 0x3 SLOAD PUSH1 0x1 PUSH1 0x1 PUSH1 0xA0 SHL SUB AND CALLER EQ PUSH2 0x1337 JUMPI PUSH1 0x40 MLOAD PUSH3 0x461BCD PUSH1 0xE5 SHL DUP2 MSTORE PUSH1 0x4 ADD PUSH2 0x893 SWAP1 PUSH2 0x51C4 JUMP JUMPDEST PUSH1 0x1 PUSH1 0x1 PUSH1 0xA0 SHL SUB DUP6 AND PUSH1 0x0 SWAP1 DUP2 MSTORE PUSH1 0x7 PUSH1 0x20 MSTORE PUSH1 0x40 SWAP1 KECCAK256 DUP2 ISZERO PUSH2 0x13B9 JUMPI PUSH1 0x1 PUSH1 0x1 PUSH1 0xA0 SHL SUB DUP6 AND PUSH1 0x0 SWAP1 DUP2 MSTORE PUSH1 0x2 DUP3 ADD PUSH1 0x20 MSTORE PUSH1 0x40 DUP2 KECCAK256 DUP1 SLOAD DUP7 SWAP3 SWAP1 PUSH2 0x137F SWAP1 DUP5 SWAP1 PUSH2 0x51F0 JUMP JUMPDEST SWAP1 SWAP2 SSTORE POP POP PUSH1 0x1 PUSH1 0x1 PUSH1 0xA0 SHL SUB DUP6 AND PUSH1 0x0 SWAP1 DUP2 MSTORE PUSH1 0x5 DUP3 ADD PUSH1 0x20 MSTORE PUSH1 0x40 DUP2 KECCAK256 DUP1 SLOAD DUP6 SWAP3 SWAP1 PUSH2 0x13AE SWAP1 DUP5 SWAP1 PUSH2 0x51F0 JUMP JUMPDEST SWAP1 SWAP2 SSTORE POP PUSH2 0x13E9 SWAP1 POP JUMP JUMPDEST PUSH1 0x1 PUSH1 0x1 PUSH1 0xA0 SHL SUB DUP6 AND PUSH1 0x0 SWAP1 DUP2 MSTORE PUSH1 0x2 DUP3 ADD PUSH1 0x20 MSTORE PUSH1 0x40 DUP2 KECCAK256 DUP1 SLOAD DUP7 SWAP3 SWAP1 PUSH2 0x13E3 SWAP1 DUP5 SWAP1 PUSH2 0x51F0 JUMP JUMPDEST SWAP1 SWAP2 SSTORE POP POP JUMPDEST POP POP POP POP POP POP JUMP JUMPDEST PUSH2 0x13F9 PUSH2 0x1D31 JUMP JUMPDEST PUSH1 0x1 PUSH1 0x1 PUSH1 0xA0 SHL SUB SWAP2 SWAP1 SWAP2 AND PUSH1 0x0 SWAP1 DUP2 MSTORE PUSH1 0xD PUSH1 0x20 MSTORE PUSH1 0x40 SWAP1 KECCAK256 DUP1 SLOAD PUSH1 0xFF NOT AND SWAP2 ISZERO ISZERO SWAP2 SWAP1 SWAP2 OR SWAP1 SSTORE JUMP JUMPDEST PUSH2 0x142C PUSH2 0x1D31 JUMP JUMPDEST PUSH1 0x4 DUP1 SLOAD PUSH1 0x1 PUSH1 0x1 PUSH1 0xA0 SHL SUB NOT AND PUSH1 0x1 PUSH1 0x1 PUSH1 0xA0 SHL SUB SWAP3 SWAP1 SWAP3 AND SWAP2 SWAP1 SWAP2 OR SWAP1 SSTORE JUMP JUMPDEST PUSH1 0x0 DUP1 PUSH2 0x145A DUP5 PUSH2 0x14DB JUMP JUMPDEST SWAP1 POP PUSH1 0x0 DUP1 PUSH1 0x0 PUSH2 0x146A DUP7 PUSH2 0x4352 JUMP JUMPDEST PUSH1 0x40 DUP1 MLOAD PUSH1 0x0 DUP2 MSTORE PUSH1 0x20 DUP2 ADD DUP1 DUP4 MSTORE DUP10 SWAP1 MSTORE PUSH1 0xFF DUP6 AND SWAP2 DUP2 ADD SWAP2 SWAP1 SWAP2 MSTORE PUSH1 0x60 DUP2 ADD DUP4 SWAP1 MSTORE PUSH1 0x80 DUP2 ADD DUP3 SWAP1 MSTORE SWAP3 SWAP6 POP SWAP1 SWAP4 POP SWAP2 POP PUSH1 0x1 SWAP1 PUSH1 0xA0 ADD PUSH1 0x20 PUSH1 0x40 MLOAD PUSH1 0x20 DUP2 SUB SWAP1 DUP1 DUP5 SUB SWAP1 DUP6 GAS STATICCALL ISZERO DUP1 ISZERO PUSH2 0x14C5 JUMPI RETURNDATASIZE PUSH1 0x0 DUP1 RETURNDATACOPY RETURNDATASIZE PUSH1 0x0 REVERT JUMPDEST POP POP PUSH1 0x40 MLOAD PUSH1 0x1F NOT ADD MLOAD SWAP9 SWAP8 POP POP POP POP POP POP POP POP JUMP JUMPDEST PUSH1 0x40 MLOAD PUSH28 0xCA2BA3432B932BAB69029B4B3B732B21026B2B9B9B0B3B29D051999 PUSH1 0x21 SHL PUSH1 0x20 DUP3 ADD MSTORE PUSH1 0x3C DUP2 ADD DUP3 SWAP1 MSTORE PUSH1 0x0 SWAP1 PUSH1 0x5C ADD PUSH1 0x40 MLOAD PUSH1 0x20 DUP2 DUP4 SUB SUB DUP2 MSTORE SWAP1 PUSH1 0x40 MSTORE DUP1 MLOAD SWAP1 PUSH1 0x20 ADD KECCAK256 SWAP1 POP SWAP2 SWAP1 POP JUMP JUMPDEST PUSH1 0x3 SLOAD PUSH1 0x1 PUSH1 0x1 PUSH1 0xA0 SHL SUB AND CALLER EQ PUSH2 0x1557 JUMPI PUSH1 0x40 MLOAD PUSH3 0x461BCD PUSH1 0xE5 SHL DUP2 MSTORE PUSH1 0x4 ADD PUSH2 0x893 SWAP1 PUSH2 0x51C4 JUMP JUMPDEST PUSH1 0x1 PUSH1 0x1 PUSH1 0xA0 SHL SUB AND PUSH1 0x0 SWAP1 DUP2 MSTORE PUSH1 0x11 PUSH1 0x20 MSTORE PUSH1 0x40 DUP2 KECCAK256 SSTORE JUMP JUMPDEST PUSH1 0x80 DUP2 ADD MLOAD DUP2 MLOAD PUSH1 0x20 DUP1 DUP5 ADD MLOAD PUSH1 0x40 DUP1 DUP7 ADD MLOAD PUSH1 0x60 DUP8 ADD MLOAD SWAP2 MLOAD PUSH2 0x1599 SWAP6 SWAP5 SWAP2 SWAP3 SWAP2 ADD PUSH2 0x5259 JUMP JUMPDEST PUSH1 0x40 MLOAD PUSH1 0x20 DUP2 DUP4 SUB SUB DUP2 MSTORE SWAP1 PUSH1 0x40 MSTORE DUP1 MLOAD SWAP1 PUSH1 0x20 ADD KECCAK256 EQ PUSH2 0x15FC JUMPI PUSH1 0x40 MLOAD PUSH3 0x461BCD PUSH1 0xE5 SHL DUP2 MSTORE PUSH1 0x20 PUSH1 0x4 DUP3 ADD MSTORE PUSH1 0x1F PUSH1 0x24 DUP3 ADD MSTORE PUSH32 0x77697468686F6C64696E673A20757365722068617368206973206572726F7200 PUSH1 0x44 DUP3 ADD MSTORE PUSH1 0x64 ADD PUSH2 0x893 JUMP JUMPDEST PUSH1 0xC0 DUP2 ADD MLOAD DUP2 MLOAD PUSH1 0x20 DUP1 DUP5 ADD MLOAD PUSH1 0x40 DUP1 DUP7 ADD MLOAD PUSH1 0x60 DUP8 ADD MLOAD SWAP2 MLOAD PUSH2 0x1624 SWAP6 SWAP5 SWAP2 SWAP3 SWAP2 ADD PUSH2 0x5259 JUMP JUMPDEST PUSH1 0x40 MLOAD PUSH1 0x20 DUP2 DUP4 SUB SUB DUP2 MSTORE SWAP1 PUSH1 0x40 MSTORE DUP1 MLOAD SWAP1 PUSH1 0x20 ADD KECCAK256 EQ PUSH2 0x1687 JUMPI PUSH1 0x40 MLOAD PUSH3 0x461BCD PUSH1 0xE5 SHL DUP2 MSTORE PUSH1 0x20 PUSH1 0x4 DUP3 ADD MSTORE PUSH1 0x1F PUSH1 0x24 DUP3 ADD MSTORE PUSH32 0x77697468686F6C64696E673A206E6F64652068617368206973206572726F7200 PUSH1 0x44 DUP3 ADD MSTORE PUSH1 0x64 ADD PUSH2 0x893 JUMP JUMPDEST PUSH1 0x60 DUP2 ADD MLOAD PUSH1 0x1 PUSH1 0x1 PUSH1 0xA0 SHL SUB AND PUSH1 0x0 SWAP1 DUP2 MSTORE PUSH1 0x6 PUSH1 0x20 MSTORE PUSH1 0x40 DUP2 KECCAK256 PUSH1 0x80 DUP4 ADD MLOAD PUSH1 0xA0 DUP5 ADD MLOAD SWAP2 SWAP3 SWAP2 PUSH2 0x16BA SWAP2 SWAP1 PUSH2 0x144E JUMP JUMPDEST PUSH1 0x1 PUSH1 0x1 PUSH1 0xA0 SHL SUB AND DUP2 MSTORE PUSH1 0x20 DUP2 ADD SWAP2 SWAP1 SWAP2 MSTORE PUSH1 0x40 ADD PUSH1 0x0 KECCAK256 SLOAD PUSH1 0xFF AND DUP1 PUSH2 0x1708 JUMPI POP DUP1 PUSH1 0x60 ADD MLOAD PUSH1 0x1 PUSH1 0x1 PUSH1 0xA0 SHL SUB AND PUSH2 0x16FD DUP3 PUSH1 0x80 ADD MLOAD DUP4 PUSH1 0xA0 ADD MLOAD PUSH2 0x144E JUMP JUMPDEST PUSH1 0x1 PUSH1 0x1 PUSH1 0xA0 SHL SUB AND EQ JUMPDEST PUSH2 0x1724 JUMPI PUSH1 0x40 MLOAD PUSH3 0x461BCD PUSH1 0xE5 SHL DUP2 MSTORE PUSH1 0x4 ADD PUSH2 0x893 SWAP1 PUSH2 0x5293 JUMP JUMPDEST PUSH2 0x1748 PUSH1 0x0 DUP1 MLOAD PUSH1 0x20 PUSH2 0x557B DUP4 CODECOPY DUP2 MLOAD SWAP2 MSTORE PUSH2 0x5AC DUP4 PUSH1 0xC0 ADD MLOAD DUP5 PUSH1 0xE0 ADD MLOAD PUSH2 0x144E JUMP JUMPDEST PUSH2 0x1764 JUMPI PUSH1 0x40 MLOAD PUSH3 0x461BCD PUSH1 0xE5 SHL DUP2 MSTORE PUSH1 0x4 ADD PUSH2 0x893 SWAP1 PUSH2 0x52C3 JUMP JUMPDEST PUSH1 0x60 DUP2 ADD MLOAD PUSH1 0x1 PUSH1 0x1 PUSH1 0xA0 SHL SUB AND PUSH1 0x0 SWAP1 DUP2 MSTORE PUSH1 0x7 PUSH1 0x20 MSTORE PUSH1 0x40 DUP2 KECCAK256 SWAP1 JUMPDEST DUP3 MLOAD MLOAD DUP2 LT ISZERO PUSH2 0x1B4B JUMPI DUP3 PUSH1 0x40 ADD MLOAD ISZERO PUSH2 0x196B JUMPI DUP2 PUSH1 0x2 ADD PUSH1 0x0 DUP5 PUSH1 0x0 ADD MLOAD DUP4 DUP2 MLOAD DUP2 LT PUSH2 0x17B2 JUMPI PUSH2 0x17B2 PUSH2 0x5106 JUMP JUMPDEST PUSH1 0x20 MUL PUSH1 0x20 ADD ADD MLOAD PUSH1 0x1 PUSH1 0x1 PUSH1 0xA0 SHL SUB AND PUSH1 0x1 PUSH1 0x1 PUSH1 0xA0 SHL SUB AND DUP2 MSTORE PUSH1 0x20 ADD SWAP1 DUP2 MSTORE PUSH1 0x20 ADD PUSH1 0x0 KECCAK256 SLOAD DUP4 PUSH1 0x20 ADD MLOAD DUP3 DUP2 MLOAD DUP2 LT PUSH2 0x17F1 JUMPI PUSH2 0x17F1 PUSH2 0x5106 JUMP JUMPDEST PUSH1 0x20 MUL PUSH1 0x20 ADD ADD MLOAD PUSH1 0x9 PUSH1 0x0 DUP7 PUSH1 0x60 ADD MLOAD PUSH1 0x1 PUSH1 0x1 PUSH1 0xA0 SHL SUB AND PUSH1 0x1 PUSH1 0x1 PUSH1 0xA0 SHL SUB AND DUP2 MSTORE PUSH1 0x20 ADD SWAP1 DUP2 MSTORE PUSH1 0x20 ADD PUSH1 0x0 KECCAK256 PUSH1 0x0 DUP7 PUSH1 0x0 ADD MLOAD DUP6 DUP2 MLOAD DUP2 LT PUSH2 0x183A JUMPI PUSH2 0x183A PUSH2 0x5106 JUMP JUMPDEST PUSH1 0x20 MUL PUSH1 0x20 ADD ADD MLOAD PUSH1 0x1 PUSH1 0x1 PUSH1 0xA0 SHL SUB AND PUSH1 0x1 PUSH1 0x1 PUSH1 0xA0 SHL SUB AND DUP2 MSTORE PUSH1 0x20 ADD SWAP1 DUP2 MSTORE PUSH1 0x20 ADD PUSH1 0x0 KECCAK256 SLOAD PUSH2 0x186D SWAP2 SWAP1 PUSH2 0x52F5 JUMP JUMPDEST GT ISZERO PUSH2 0x18CA JUMPI PUSH1 0x40 MLOAD PUSH3 0x461BCD PUSH1 0xE5 SHL DUP2 MSTORE PUSH1 0x20 PUSH1 0x4 DUP3 ADD MSTORE PUSH1 0x38 PUSH1 0x24 DUP3 ADD MSTORE PUSH1 0x0 DUP1 MLOAD PUSH1 0x20 PUSH2 0x551B DUP4 CODECOPY DUP2 MLOAD SWAP2 MSTORE PUSH1 0x44 DUP3 ADD MSTORE PUSH24 0x1B191A5B99C81BD98818D85C1A5D185B081858D8DBDD5B9D PUSH1 0x42 SHL PUSH1 0x64 DUP3 ADD MSTORE PUSH1 0x84 ADD PUSH2 0x893 JUMP JUMPDEST DUP3 PUSH1 0x20 ADD MLOAD DUP2 DUP2 MLOAD DUP2 LT PUSH2 0x18E0 JUMPI PUSH2 0x18E0 PUSH2 0x5106 JUMP JUMPDEST PUSH1 0x20 MUL PUSH1 0x20 ADD ADD MLOAD PUSH1 0x9 PUSH1 0x0 DUP6 PUSH1 0x60 ADD MLOAD PUSH1 0x1 PUSH1 0x1 PUSH1 0xA0 SHL SUB AND PUSH1 0x1 PUSH1 0x1 PUSH1 0xA0 SHL SUB AND DUP2 MSTORE PUSH1 0x20 ADD SWAP1 DUP2 MSTORE PUSH1 0x20 ADD PUSH1 0x0 KECCAK256 PUSH1 0x0 DUP6 PUSH1 0x0 ADD MLOAD DUP5 DUP2 MLOAD DUP2 LT PUSH2 0x1929 JUMPI PUSH2 0x1929 PUSH2 0x5106 JUMP JUMPDEST PUSH1 0x20 MUL PUSH1 0x20 ADD ADD MLOAD PUSH1 0x1 PUSH1 0x1 PUSH1 0xA0 SHL SUB AND PUSH1 0x1 PUSH1 0x1 PUSH1 0xA0 SHL SUB AND DUP2 MSTORE PUSH1 0x20 ADD SWAP1 DUP2 MSTORE PUSH1 0x20 ADD PUSH1 0x0 KECCAK256 PUSH1 0x0 DUP3 DUP3 SLOAD PUSH2 0x1960 SWAP2 SWAP1 PUSH2 0x52F5 JUMP JUMPDEST SWAP1 SWAP2 SSTORE POP PUSH2 0x1B39 SWAP1 POP JUMP JUMPDEST DUP2 PUSH1 0x5 ADD PUSH1 0x0 DUP5 PUSH1 0x0 ADD MLOAD DUP4 DUP2 MLOAD DUP2 LT PUSH2 0x1987 JUMPI PUSH2 0x1987 PUSH2 0x5106 JUMP JUMPDEST PUSH1 0x20 MUL PUSH1 0x20 ADD ADD MLOAD PUSH1 0x1 PUSH1 0x1 PUSH1 0xA0 SHL SUB AND PUSH1 0x1 PUSH1 0x1 PUSH1 0xA0 SHL SUB AND DUP2 MSTORE PUSH1 0x20 ADD SWAP1 DUP2 MSTORE PUSH1 0x20 ADD PUSH1 0x0 KECCAK256 SLOAD DUP4 PUSH1 0x20 ADD MLOAD DUP3 DUP2 MLOAD DUP2 LT PUSH2 0x19C6 JUMPI PUSH2 0x19C6 PUSH2 0x5106 JUMP JUMPDEST PUSH1 0x20 MUL PUSH1 0x20 ADD ADD MLOAD PUSH1 0x8 PUSH1 0x0 DUP7 PUSH1 0x60 ADD MLOAD PUSH1 0x1 PUSH1 0x1 PUSH1 0xA0 SHL SUB AND PUSH1 0x1 PUSH1 0x1 PUSH1 0xA0 SHL SUB AND DUP2 MSTORE PUSH1 0x20 ADD SWAP1 DUP2 MSTORE PUSH1 0x20 ADD PUSH1 0x0 KECCAK256 PUSH1 0x0 DUP7 PUSH1 0x0 ADD MLOAD DUP6 DUP2 MLOAD DUP2 LT PUSH2 0x1A0F JUMPI PUSH2 0x1A0F PUSH2 0x5106 JUMP JUMPDEST PUSH1 0x20 MUL PUSH1 0x20 ADD ADD MLOAD PUSH1 0x1 PUSH1 0x1 PUSH1 0xA0 SHL SUB AND PUSH1 0x1 PUSH1 0x1 PUSH1 0xA0 SHL SUB AND DUP2 MSTORE PUSH1 0x20 ADD SWAP1 DUP2 MSTORE PUSH1 0x20 ADD PUSH1 0x0 KECCAK256 SLOAD PUSH2 0x1A42 SWAP2 SWAP1 PUSH2 0x52F5 JUMP JUMPDEST GT ISZERO PUSH2 0x1A9D JUMPI PUSH1 0x40 MLOAD PUSH3 0x461BCD PUSH1 0xE5 SHL DUP2 MSTORE PUSH1 0x20 PUSH1 0x4 DUP3 ADD MSTORE PUSH1 0x36 PUSH1 0x24 DUP3 ADD MSTORE PUSH1 0x0 DUP1 MLOAD PUSH1 0x20 PUSH2 0x551B DUP4 CODECOPY DUP2 MLOAD SWAP2 MSTORE PUSH1 0x44 DUP3 ADD MSTORE PUSH22 0x1B191A5B99C81BD9881D1C985919481858D8DBDD5B9D PUSH1 0x52 SHL PUSH1 0x64 DUP3 ADD MSTORE PUSH1 0x84 ADD PUSH2 0x893 JUMP JUMPDEST DUP3 PUSH1 0x20 ADD MLOAD DUP2 DUP2 MLOAD DUP2 LT PUSH2 0x1AB3 JUMPI PUSH2 0x1AB3 PUSH2 0x5106 JUMP JUMPDEST PUSH1 0x20 MUL PUSH1 0x20 ADD ADD MLOAD PUSH1 0x8 PUSH1 0x0 DUP6 PUSH1 0x60 ADD MLOAD PUSH1 0x1 PUSH1 0x1 PUSH1 0xA0 SHL SUB AND PUSH1 0x1 PUSH1 0x1 PUSH1 0xA0 SHL SUB AND DUP2 MSTORE PUSH1 0x20 ADD SWAP1 DUP2 MSTORE PUSH1 0x20 ADD PUSH1 0x0 KECCAK256 PUSH1 0x0 DUP6 PUSH1 0x0 ADD MLOAD DUP5 DUP2 MLOAD DUP2 LT PUSH2 0x1AFC JUMPI PUSH2 0x1AFC PUSH2 0x5106 JUMP JUMPDEST PUSH1 0x20 MUL PUSH1 0x20 ADD ADD MLOAD PUSH1 0x1 PUSH1 0x1 PUSH1 0xA0 SHL SUB AND PUSH1 0x1 PUSH1 0x1 PUSH1 0xA0 SHL SUB AND DUP2 MSTORE PUSH1 0x20 ADD SWAP1 DUP2 MSTORE PUSH1 0x20 ADD PUSH1 0x0 KECCAK256 PUSH1 0x0 DUP3 DUP3 SLOAD PUSH2 0x1B33 SWAP2 SWAP1 PUSH2 0x52F5 JUMP JUMPDEST SWAP1 SWAP2 SSTORE POP POP JUMPDEST DUP1 PUSH2 0x1B43 DUP2 PUSH2 0x5132 JUMP JUMPDEST SWAP2 POP POP PUSH2 0x1782 JUMP JUMPDEST POP PUSH32 0x5D7461671A77EFEECFBFC989455D1457392C775E662834B07D5D77ADC7402F45 DUP3 PUSH1 0x0 ADD MLOAD DUP4 PUSH1 0x20 ADD MLOAD DUP5 PUSH1 0x40 ADD MLOAD DUP6 PUSH1 0x60 ADD MLOAD PUSH1 0x40 MLOAD PUSH2 0x1B91 SWAP5 SWAP4 SWAP3 SWAP2 SWAP1 PUSH2 0x5308 JUMP JUMPDEST PUSH1 0x40 MLOAD DUP1 SWAP2 SUB SWAP1 LOG1 POP POP JUMP JUMPDEST PUSH1 0xB PUSH1 0x20 MSTORE DUP2 PUSH1 0x0 MSTORE PUSH1 0x40 PUSH1 0x0 KECCAK256 DUP2 DUP2 SLOAD DUP2 LT PUSH2 0x11CA JUMPI PUSH1 0x0 DUP1 REVERT JUMPDEST PUSH2 0x1BC1 PUSH2 0x1D31 JUMP JUMPDEST PUSH2 0x126E PUSH1 0x0 DUP1 MLOAD PUSH1 0x20 PUSH2 0x557B DUP4 CODECOPY DUP2 MLOAD SWAP2 MSTORE DUP3 PUSH2 0x43C4 JUMP JUMPDEST PUSH1 0x1 SLOAD PUSH1 0x1 PUSH1 0x1 PUSH1 0xA0 SHL SUB AND SWAP1 JUMP JUMPDEST PUSH1 0x0 DUP2 PUSH1 0x40 MLOAD PUSH1 0x20 ADD PUSH2 0x1BFD SWAP2 DUP2 MSTORE PUSH1 0x20 ADD SWAP1 JUMP JUMPDEST PUSH1 0x40 DUP1 MLOAD PUSH1 0x1F NOT DUP2 DUP5 SUB ADD DUP2 MSTORE DUP3 DUP3 MSTORE DUP1 MLOAD PUSH1 0x20 SWAP2 DUP3 ADD KECCAK256 SWAP1 DUP4 ADD DUP7 SWAP1 MSTORE SWAP2 ADD PUSH1 0x40 MLOAD PUSH1 0x20 DUP2 DUP4 SUB SUB DUP2 MSTORE SWAP1 PUSH1 0x40 MSTORE DUP1 MLOAD SWAP1 PUSH1 0x20 ADD KECCAK256 SUB PUSH2 0x1C62 JUMPI PUSH1 0x40 DUP1 MLOAD PUSH1 0x20 DUP2 ADD DUP6 SWAP1 MSTORE ADD JUMPDEST PUSH1 0x40 MLOAD PUSH1 0x20 DUP2 DUP4 SUB SUB DUP2 MSTORE SWAP1 PUSH1 0x40 MSTORE DUP1 MLOAD SWAP1 PUSH1 0x20 ADD KECCAK256 SWAP1 POP PUSH2 0x1307 JUMP JUMPDEST PUSH1 0x40 DUP1 MLOAD PUSH1 0x20 DUP2 ADD DUP6 SWAP1 MSTORE SWAP1 DUP2 ADD DUP4 SWAP1 MSTORE PUSH1 0x60 ADD PUSH2 0x1C45 JUMP JUMPDEST PUSH2 0x1C83 PUSH2 0x1D31 JUMP JUMPDEST PUSH1 0x1 DUP1 SLOAD PUSH1 0x1 PUSH1 0x1 PUSH1 0xA0 SHL SUB NOT AND PUSH1 0x1 PUSH1 0x1 PUSH1 0xA0 SHL SUB DUP4 AND SWAP1 DUP2 OR SWAP1 SWAP2 SSTORE PUSH2 0x1CA9 PUSH2 0x1271 JUMP JUMPDEST PUSH1 0x1 PUSH1 0x1 PUSH1 0xA0 SHL SUB AND PUSH32 0x38D16B8CAC22D99FC7C124B9CD0DE2D3FA1FAEF420BFE791D8C362D765E22700 PUSH1 0x40 MLOAD PUSH1 0x40 MLOAD DUP1 SWAP2 SUB SWAP1 LOG3 POP JUMP JUMPDEST PUSH1 0x0 DUP1 SLOAD PUSH1 0x1 PUSH1 0x1 PUSH1 0xA0 SHL SUB DUP4 DUP2 AND PUSH1 0x1 PUSH1 0x1 PUSH1 0xA0 SHL SUB NOT DUP4 AND DUP2 OR DUP5 SSTORE PUSH1 0x40 MLOAD SWAP2 SWAP1 SWAP3 AND SWAP3 DUP4 SWAP2 PUSH32 0x8BE0079C531659141344CD1FD0A4F28419497F9722A3DAAFE3B4186F6B6457E0 SWAP2 SWAP1 LOG3 POP POP JUMP JUMPDEST CALLER PUSH2 0x1D3A PUSH2 0x1271 JUMP JUMPDEST PUSH1 0x1 PUSH1 0x1 PUSH1 0xA0 SHL SUB AND EQ PUSH2 0x11F1 JUMPI PUSH1 0x40 MLOAD PUSH3 0x461BCD PUSH1 0xE5 SHL DUP2 MSTORE PUSH1 0x20 PUSH1 0x4 DUP3 ADD DUP2 SWAP1 MSTORE PUSH1 0x24 DUP3 ADD MSTORE PUSH32 0x4F776E61626C653A2063616C6C6572206973206E6F7420746865206F776E6572 PUSH1 0x44 DUP3 ADD MSTORE PUSH1 0x64 ADD PUSH2 0x893 JUMP JUMPDEST DUP1 MLOAD DUP1 MLOAD PUSH1 0x1 SWAP1 DUP2 LT PUSH2 0x1DA5 JUMPI PUSH2 0x1DA5 PUSH2 0x5106 JUMP JUMPDEST PUSH1 0x20 MUL PUSH1 0x20 ADD ADD MLOAD PUSH1 0xC0 ADD MLOAD PUSH1 0x1 PUSH1 0x1 PUSH1 0xA0 SHL SUB AND DUP2 PUSH1 0x0 ADD MLOAD PUSH1 0x0 DUP2 MLOAD DUP2 LT PUSH2 0x1DD1 JUMPI PUSH2 0x1DD1 PUSH2 0x5106 JUMP JUMPDEST PUSH1 0x20 MUL PUSH1 0x20 ADD ADD MLOAD PUSH1 0xC0 ADD MLOAD PUSH1 0x1 PUSH1 0x1 PUSH1 0xA0 SHL SUB AND EQ DUP1 ISZERO PUSH2 0x1E34 JUMPI POP DUP1 MLOAD DUP1 MLOAD PUSH1 0x1 SWAP1 DUP2 LT PUSH2 0x1E03 JUMPI PUSH2 0x1E03 PUSH2 0x5106 JUMP JUMPDEST PUSH1 0x20 MUL PUSH1 0x20 ADD ADD MLOAD PUSH1 0xA0 ADD MLOAD DUP2 PUSH1 0x0 ADD MLOAD PUSH1 0x0 DUP2 MLOAD DUP2 LT PUSH2 0x1E26 JUMPI PUSH2 0x1E26 PUSH2 0x5106 JUMP JUMPDEST PUSH1 0x20 MUL PUSH1 0x20 ADD ADD MLOAD PUSH1 0xA0 ADD MLOAD EQ JUMPDEST DUP1 ISZERO PUSH2 0x1E5F JUMPI POP DUP1 MLOAD DUP1 MLOAD PUSH1 0x0 SWAP1 PUSH2 0x1E4E JUMPI PUSH2 0x1E4E PUSH2 0x5106 JUMP JUMPDEST PUSH1 0x20 SWAP1 DUP2 MUL SWAP2 SWAP1 SWAP2 ADD ADD MLOAD PUSH1 0xE0 ADD MLOAD ISZERO JUMPDEST DUP1 ISZERO PUSH2 0x1E8F JUMPI POP DUP1 MLOAD DUP1 MLOAD PUSH1 0x1 SWAP1 DUP2 LT PUSH2 0x1E7B JUMPI PUSH2 0x1E7B PUSH2 0x5106 JUMP JUMPDEST PUSH1 0x20 MUL PUSH1 0x20 ADD ADD MLOAD PUSH1 0xE0 ADD MLOAD ISZERO ISZERO PUSH1 0x1 ISZERO ISZERO EQ JUMPDEST PUSH2 0x1EFC JUMPI PUSH1 0x40 MLOAD PUSH3 0x461BCD PUSH1 0xE5 SHL DUP2 MSTORE PUSH1 0x20 PUSH1 0x4 DUP3 ADD MSTORE PUSH1 0x38 PUSH1 0x24 DUP3 ADD MSTORE PUSH32 0x7665726966795369676E6174757265423A20636F696E206D69736D6174636820 PUSH1 0x44 DUP3 ADD MSTORE PUSH24 0x3132BA3BB2B2B710313ABCB2B91030B7321039B2B63632B9 PUSH1 0x41 SHL PUSH1 0x64 DUP3 ADD MSTORE PUSH1 0x84 ADD PUSH2 0x893 JUMP JUMPDEST DUP1 MLOAD DUP1 MLOAD PUSH1 0x1 SWAP1 DUP2 LT PUSH2 0x1F11 JUMPI PUSH2 0x1F11 PUSH2 0x5106 JUMP JUMPDEST PUSH1 0x20 MUL PUSH1 0x20 ADD ADD MLOAD PUSH1 0x60 ADD MLOAD PUSH1 0x1 PUSH1 0x1 PUSH1 0xA0 SHL SUB AND DUP2 PUSH1 0x0 ADD MLOAD PUSH1 0x0 DUP2 MLOAD DUP2 LT PUSH2 0x1F3D JUMPI PUSH2 0x1F3D PUSH2 0x5106 JUMP JUMPDEST PUSH1 0x20 MUL PUSH1 0x20 ADD ADD MLOAD PUSH1 0x60 ADD MLOAD PUSH1 0x1 PUSH1 0x1 PUSH1 0xA0 SHL SUB AND EQ DUP1 ISZERO PUSH2 0x1FA0 JUMPI POP DUP1 MLOAD DUP1 MLOAD PUSH1 0x1 SWAP1 DUP2 LT PUSH2 0x1F6F JUMPI PUSH2 0x1F6F PUSH2 0x5106 JUMP JUMPDEST PUSH1 0x20 MUL PUSH1 0x20 ADD ADD MLOAD PUSH1 0x40 ADD MLOAD DUP2 PUSH1 0x0 ADD MLOAD PUSH1 0x0 DUP2 MLOAD DUP2 LT PUSH2 0x1F92 JUMPI PUSH2 0x1F92 PUSH2 0x5106 JUMP JUMPDEST PUSH1 0x20 MUL PUSH1 0x20 ADD ADD MLOAD PUSH1 0x40 ADD MLOAD EQ JUMPDEST DUP1 ISZERO PUSH2 0x1FCE JUMPI POP DUP1 MLOAD DUP1 MLOAD PUSH1 0x0 SWAP1 PUSH2 0x1FBA JUMPI PUSH2 0x1FBA PUSH2 0x5106 JUMP JUMPDEST PUSH1 0x20 MUL PUSH1 0x20 ADD ADD MLOAD PUSH1 0x80 ADD MLOAD ISZERO ISZERO PUSH1 0x1 ISZERO ISZERO EQ JUMPDEST DUP1 ISZERO PUSH2 0x1FFB JUMPI POP DUP1 MLOAD DUP1 MLOAD PUSH1 0x1 SWAP1 DUP2 LT PUSH2 0x1FEA JUMPI PUSH2 0x1FEA PUSH2 0x5106 JUMP JUMPDEST PUSH1 0x20 SWAP1 DUP2 MUL SWAP2 SWAP1 SWAP2 ADD ADD MLOAD PUSH1 0x80 ADD MLOAD ISZERO JUMPDEST PUSH2 0x2069 JUMPI PUSH1 0x40 MLOAD PUSH3 0x461BCD PUSH1 0xE5 SHL DUP2 MSTORE PUSH1 0x20 PUSH1 0x4 DUP3 ADD MSTORE PUSH1 0x39 PUSH1 0x24 DUP3 ADD MSTORE PUSH32 0x7665726966795369676E6174757265423A20676F6F6473206D69736D61746368 PUSH1 0x44 DUP3 ADD MSTORE PUSH25 0x103132BA3BB2B2B710313ABCB2B91030B7321039B2B63632B9 PUSH1 0x39 SHL PUSH1 0x64 DUP3 ADD MSTORE PUSH1 0x84 ADD PUSH2 0x893 JUMP JUMPDEST DUP1 MLOAD DUP1 MLOAD PUSH1 0x0 SWAP1 PUSH2 0x207C JUMPI PUSH2 0x207C PUSH2 0x5106 JUMP JUMPDEST PUSH1 0x20 MUL PUSH1 0x20 ADD ADD MLOAD PUSH1 0x60 ADD MLOAD PUSH1 0x1 PUSH1 0x1 PUSH1 0xA0 SHL SUB AND DUP2 PUSH1 0x0 ADD MLOAD PUSH1 0x0 DUP2 MLOAD DUP2 LT PUSH2 0x20A8 JUMPI PUSH2 0x20A8 PUSH2 0x5106 JUMP JUMPDEST PUSH1 0x20 MUL PUSH1 0x20 ADD ADD MLOAD PUSH2 0x120 ADD MLOAD PUSH1 0x1 PUSH1 0x1 PUSH1 0xA0 SHL SUB AND EQ DUP1 ISZERO PUSH2 0x211F JUMPI POP DUP1 MLOAD DUP1 MLOAD PUSH1 0x1 SWAP1 DUP2 LT PUSH2 0x20DB JUMPI PUSH2 0x20DB PUSH2 0x5106 JUMP JUMPDEST PUSH1 0x20 MUL PUSH1 0x20 ADD ADD MLOAD PUSH1 0xC0 ADD MLOAD PUSH1 0x1 PUSH1 0x1 PUSH1 0xA0 SHL SUB AND DUP2 PUSH1 0x0 ADD MLOAD PUSH1 0x1 DUP2 MLOAD DUP2 LT PUSH2 0x2107 JUMPI PUSH2 0x2107 PUSH2 0x5106 JUMP JUMPDEST PUSH1 0x20 MUL PUSH1 0x20 ADD ADD MLOAD PUSH2 0x120 ADD MLOAD PUSH1 0x1 PUSH1 0x1 PUSH1 0xA0 SHL SUB AND EQ JUMPDEST PUSH2 0x218B JUMPI PUSH1 0x40 MLOAD PUSH3 0x461BCD PUSH1 0xE5 SHL DUP2 MSTORE PUSH1 0x20 PUSH1 0x4 DUP3 ADD MSTORE PUSH1 0x37 PUSH1 0x24 DUP3 ADD MSTORE PUSH32 0x7665726966795369676E6174757265423A20666565206D69736D617463682062 PUSH1 0x44 DUP3 ADD MSTORE PUSH23 0x32BA3BB2B2B710313ABCB2B91030B7321039B2B63632B9 PUSH1 0x49 SHL PUSH1 0x64 DUP3 ADD MSTORE PUSH1 0x84 ADD PUSH2 0x893 JUMP JUMPDEST PUSH1 0x0 JUMPDEST PUSH1 0x2 DUP2 LT ISZERO PUSH2 0x232D JUMPI PUSH1 0x0 DUP3 PUSH1 0x0 ADD MLOAD DUP3 DUP2 MLOAD DUP2 LT PUSH2 0x21AF JUMPI PUSH2 0x21AF PUSH2 0x5106 JUMP JUMPDEST PUSH1 0x20 MUL PUSH1 0x20 ADD ADD MLOAD SWAP1 POP DUP1 PUSH2 0x160 ADD MLOAD DUP2 PUSH1 0x0 ADD MLOAD DUP3 PUSH1 0x20 ADD MLOAD DUP4 PUSH1 0x40 ADD MLOAD DUP5 PUSH1 0x60 ADD MLOAD DUP6 PUSH1 0x80 ADD MLOAD DUP7 PUSH1 0xA0 ADD MLOAD DUP8 PUSH1 0xC0 ADD MLOAD DUP9 PUSH1 0xE0 ADD MLOAD DUP10 PUSH2 0x100 ADD MLOAD DUP11 PUSH2 0x120 ADD MLOAD PUSH1 0x40 MLOAD PUSH1 0x20 ADD PUSH2 0x220C SWAP11 SWAP10 SWAP9 SWAP8 SWAP7 SWAP6 SWAP5 SWAP4 SWAP3 SWAP2 SWAP1 PUSH2 0x5377 JUMP JUMPDEST PUSH1 0x40 MLOAD PUSH1 0x20 DUP2 DUP4 SUB SUB DUP2 MSTORE SWAP1 PUSH1 0x40 MSTORE DUP1 MLOAD SWAP1 PUSH1 0x20 ADD KECCAK256 EQ PUSH2 0x226F JUMPI PUSH1 0x40 MLOAD PUSH3 0x461BCD PUSH1 0xE5 SHL DUP2 MSTORE PUSH1 0x20 PUSH1 0x4 DUP3 ADD MSTORE PUSH1 0x1F PUSH1 0x24 DUP3 ADD MSTORE PUSH32 0x7665726966795369676E6174757265423A2068617368206973206572726F7200 PUSH1 0x44 DUP3 ADD MSTORE PUSH1 0x64 ADD PUSH2 0x893 JUMP JUMPDEST PUSH1 0x6 PUSH1 0x0 DUP3 PUSH1 0x20 ADD MLOAD PUSH1 0x1 PUSH1 0x1 PUSH1 0xA0 SHL SUB AND PUSH1 0x1 PUSH1 0x1 PUSH1 0xA0 SHL SUB AND DUP2 MSTORE PUSH1 0x20 ADD SWAP1 DUP2 MSTORE PUSH1 0x20 ADD PUSH1 0x0 KECCAK256 PUSH1 0x0 PUSH2 0x22AE DUP4 PUSH2 0x160 ADD MLOAD DUP5 PUSH2 0x180 ADD MLOAD PUSH2 0x144E JUMP JUMPDEST PUSH1 0x1 PUSH1 0x1 PUSH1 0xA0 SHL SUB AND DUP2 MSTORE PUSH1 0x20 DUP2 ADD SWAP2 SWAP1 SWAP2 MSTORE PUSH1 0x40 ADD PUSH1 0x0 KECCAK256 SLOAD PUSH1 0xFF AND DUP1 PUSH2 0x22FE JUMPI POP DUP1 PUSH1 0x20 ADD MLOAD PUSH1 0x1 PUSH1 0x1 PUSH1 0xA0 SHL SUB AND PUSH2 0x22F3 DUP3 PUSH2 0x160 ADD MLOAD DUP4 PUSH2 0x180 ADD MLOAD PUSH2 0x144E JUMP JUMPDEST PUSH1 0x1 PUSH1 0x1 PUSH1 0xA0 SHL SUB AND EQ JUMPDEST PUSH2 0x231A JUMPI PUSH1 0x40 MLOAD PUSH3 0x461BCD PUSH1 0xE5 SHL DUP2 MSTORE PUSH1 0x4 ADD PUSH2 0x893 SWAP1 PUSH2 0x5293 JUMP JUMPDEST POP DUP1 PUSH2 0x2325 DUP2 PUSH2 0x5132 JUMP JUMPDEST SWAP2 POP POP PUSH2 0x218E JUMP JUMPDEST POP POP JUMP JUMPDEST PUSH1 0x0 DUP1 DUP1 DUP1 DUP1 DUP1 JUMPDEST PUSH1 0x2 DUP2 LT ISZERO PUSH2 0x34DC JUMPI PUSH1 0xF DUP8 PUSH1 0x0 ADD MLOAD DUP3 DUP2 MLOAD DUP2 LT PUSH2 0x235A JUMPI PUSH2 0x235A PUSH2 0x5106 JUMP JUMPDEST PUSH1 0x20 MUL PUSH1 0x20 ADD ADD MLOAD PUSH1 0x0 ADD MLOAD PUSH1 0x40 MLOAD PUSH2 0x2373 SWAP2 SWAP1 PUSH2 0x51B8 JUMP JUMPDEST SWAP1 DUP2 MSTORE PUSH1 0x40 MLOAD SWAP1 DUP2 SWAP1 SUB PUSH1 0x20 ADD SWAP1 KECCAK256 SLOAD PUSH1 0xFF AND ISZERO PUSH2 0x23D3 JUMPI PUSH1 0x40 MLOAD PUSH3 0x461BCD PUSH1 0xE5 SHL DUP2 MSTORE PUSH1 0x20 PUSH1 0x4 DUP3 ADD MSTORE PUSH1 0x1E PUSH1 0x24 DUP3 ADD MSTORE PUSH32 0x5F74726164654275696C643A20696420616C7265616479206578697374730000 PUSH1 0x44 DUP3 ADD MSTORE PUSH1 0x64 ADD PUSH2 0x893 JUMP JUMPDEST PUSH1 0x1 PUSH1 0xF DUP9 PUSH1 0x0 ADD MLOAD DUP4 DUP2 MLOAD DUP2 LT PUSH2 0x23ED JUMPI PUSH2 0x23ED PUSH2 0x5106 JUMP JUMPDEST PUSH1 0x20 MUL PUSH1 0x20 ADD ADD MLOAD PUSH1 0x0 ADD MLOAD PUSH1 0x40 MLOAD PUSH2 0x2406 SWAP2 SWAP1 PUSH2 0x51B8 JUMP JUMPDEST SWAP1 DUP2 MSTORE PUSH1 0x20 ADD PUSH1 0x40 MLOAD DUP1 SWAP2 SUB SWAP1 KECCAK256 PUSH1 0x0 PUSH2 0x100 EXP DUP2 SLOAD DUP2 PUSH1 0xFF MUL NOT AND SWAP1 DUP4 ISZERO ISZERO MUL OR SWAP1 SSTORE POP PUSH1 0x0 PUSH1 0x7 PUSH1 0x0 DUP10 PUSH1 0x0 ADD MLOAD DUP5 DUP2 MLOAD DUP2 LT PUSH2 0x2447 JUMPI PUSH2 0x2447 PUSH2 0x5106 JUMP JUMPDEST PUSH1 0x20 MUL PUSH1 0x20 ADD ADD MLOAD PUSH1 0x20 ADD MLOAD PUSH1 0x1 PUSH1 0x1 PUSH1 0xA0 SHL SUB AND PUSH1 0x1 PUSH1 0x1 PUSH1 0xA0 SHL SUB AND DUP2 MSTORE PUSH1 0x20 ADD SWAP1 DUP2 MSTORE PUSH1 0x20 ADD PUSH1 0x0 KECCAK256 PUSH1 0x6 ADD SLOAD PUSH1 0x1 PUSH2 0x2483 SWAP2 SWAP1 PUSH2 0x52F5 JUMP JUMPDEST DUP9 MLOAD DUP1 MLOAD DUP5 SWAP1 DUP2 LT PUSH2 0x2497 JUMPI PUSH2 0x2497 PUSH2 0x5106 JUMP JUMPDEST PUSH1 0x20 MUL PUSH1 0x20 ADD ADD MLOAD PUSH2 0x140 ADD MLOAD EQ PUSH2 0x24C1 JUMPI PUSH1 0x40 MLOAD PUSH3 0x461BCD PUSH1 0xE5 SHL DUP2 MSTORE PUSH1 0x4 ADD PUSH2 0x893 SWAP1 PUSH2 0x53E8 JUMP JUMPDEST PUSH1 0xB PUSH1 0x0 DUP10 PUSH1 0x0 ADD MLOAD DUP5 DUP2 MLOAD DUP2 LT PUSH2 0x24DB JUMPI PUSH2 0x24DB PUSH2 0x5106 JUMP JUMPDEST PUSH1 0x20 MUL PUSH1 0x20 ADD ADD MLOAD PUSH1 0x20 ADD MLOAD PUSH1 0x1 PUSH1 0x1 PUSH1 0xA0 SHL SUB AND PUSH1 0x1 PUSH1 0x1 PUSH1 0xA0 SHL SUB AND DUP2 MSTORE PUSH1 0x20 ADD SWAP1 DUP2 MSTORE PUSH1 0x20 ADD PUSH1 0x0 KECCAK256 DUP1 SLOAD SWAP1 POP PUSH1 0x0 EQ PUSH2 0x2605 JUMPI PUSH1 0x0 PUSH1 0xB PUSH1 0x0 DUP11 PUSH1 0x0 ADD MLOAD DUP6 DUP2 MLOAD DUP2 LT PUSH2 0x252E JUMPI PUSH2 0x252E PUSH2 0x5106 JUMP JUMPDEST PUSH1 0x20 MUL PUSH1 0x20 ADD ADD MLOAD PUSH1 0x20 ADD MLOAD PUSH1 0x1 PUSH1 0x1 PUSH1 0xA0 SHL SUB AND PUSH1 0x1 PUSH1 0x1 PUSH1 0xA0 SHL SUB AND DUP2 MSTORE PUSH1 0x20 ADD SWAP1 DUP2 MSTORE PUSH1 0x20 ADD PUSH1 0x0 KECCAK256 DUP1 SLOAD DUP1 PUSH1 0x20 MUL PUSH1 0x20 ADD PUSH1 0x40 MLOAD SWAP1 DUP2 ADD PUSH1 0x40 MSTORE DUP1 SWAP3 SWAP2 SWAP1 DUP2 DUP2 MSTORE PUSH1 0x20 ADD DUP3 DUP1 SLOAD DUP1 ISZERO PUSH2 0x25A4 JUMPI PUSH1 0x20 MUL DUP3 ADD SWAP2 SWAP1 PUSH1 0x0 MSTORE PUSH1 0x20 PUSH1 0x0 KECCAK256 SWAP1 JUMPDEST DUP2 SLOAD DUP2 MSTORE PUSH1 0x20 ADD SWAP1 PUSH1 0x1 ADD SWAP1 DUP1 DUP4 GT PUSH2 0x2590 JUMPI JUMPDEST POP POP POP POP POP SWAP1 POP PUSH2 0x25FD DUP2 PUSH1 0x1 DUP4 MLOAD PUSH2 0x25BD SWAP2 SWAP1 PUSH2 0x51F0 JUMP JUMPDEST DUP2 MLOAD DUP2 LT PUSH2 0x25CD JUMPI PUSH2 0x25CD PUSH2 0x5106 JUMP JUMPDEST PUSH1 0x20 MUL PUSH1 0x20 ADD ADD MLOAD DUP11 PUSH1 0x0 ADD MLOAD DUP6 DUP2 MLOAD DUP2 LT PUSH2 0x25EB JUMPI PUSH2 0x25EB PUSH2 0x5106 JUMP JUMPDEST PUSH1 0x20 MUL PUSH1 0x20 ADD ADD MLOAD PUSH2 0x160 ADD MLOAD PUSH2 0x1BE8 JUMP JUMPDEST SWAP2 POP POP PUSH2 0x2644 JUMP JUMPDEST PUSH2 0x2641 DUP9 PUSH1 0x0 ADD MLOAD DUP4 DUP2 MLOAD DUP2 LT PUSH2 0x261E JUMPI PUSH2 0x261E PUSH2 0x5106 JUMP JUMPDEST PUSH1 0x20 MUL PUSH1 0x20 ADD ADD MLOAD PUSH2 0x160 ADD MLOAD DUP10 PUSH1 0x0 ADD MLOAD DUP5 DUP2 MLOAD DUP2 LT PUSH2 0x25EB JUMPI PUSH2 0x25EB PUSH2 0x5106 JUMP JUMPDEST SWAP1 POP JUMPDEST DUP8 MLOAD DUP1 MLOAD DUP4 SWAP1 DUP2 LT PUSH2 0x2658 JUMPI PUSH2 0x2658 PUSH2 0x5106 JUMP JUMPDEST PUSH1 0x20 MUL PUSH1 0x20 ADD ADD MLOAD PUSH1 0x80 ADD MLOAD ISZERO PUSH2 0x28F1 JUMPI DUP8 MLOAD DUP1 MLOAD DUP4 SWAP1 DUP2 LT PUSH2 0x267D JUMPI PUSH2 0x267D PUSH2 0x5106 JUMP JUMPDEST PUSH1 0x20 MUL PUSH1 0x20 ADD ADD MLOAD PUSH1 0x40 ADD MLOAD PUSH1 0x7 PUSH1 0x0 DUP11 PUSH1 0x0 ADD MLOAD DUP6 DUP2 MLOAD DUP2 LT PUSH2 0x26A3 JUMPI PUSH2 0x26A3 PUSH2 0x5106 JUMP JUMPDEST PUSH1 0x20 MUL PUSH1 0x20 ADD ADD MLOAD PUSH1 0x20 ADD MLOAD PUSH1 0x1 PUSH1 0x1 PUSH1 0xA0 SHL SUB AND PUSH1 0x1 PUSH1 0x1 PUSH1 0xA0 SHL SUB AND DUP2 MSTORE PUSH1 0x20 ADD SWAP1 DUP2 MSTORE PUSH1 0x20 ADD PUSH1 0x0 KECCAK256 PUSH1 0x5 ADD PUSH1 0x0 DUP11 PUSH1 0x0 ADD MLOAD DUP6 DUP2 MLOAD DUP2 LT PUSH2 0x26EA JUMPI PUSH2 0x26EA PUSH2 0x5106 JUMP JUMPDEST PUSH1 0x20 MUL PUSH1 0x20 ADD ADD MLOAD PUSH1 0x60 ADD MLOAD PUSH1 0x1 PUSH1 0x1 PUSH1 0xA0 SHL SUB AND PUSH1 0x1 PUSH1 0x1 PUSH1 0xA0 SHL SUB AND DUP2 MSTORE PUSH1 0x20 ADD SWAP1 DUP2 MSTORE PUSH1 0x20 ADD PUSH1 0x0 KECCAK256 PUSH1 0x0 DUP3 DUP3 SLOAD PUSH2 0x2725 SWAP2 SWAP1 PUSH2 0x52F5 JUMP JUMPDEST SWAP1 SWAP2 SSTORE POP POP DUP8 MLOAD DUP1 MLOAD PUSH1 0xD SWAP2 PUSH1 0x0 SWAP2 DUP6 SWAP1 DUP2 LT PUSH2 0x2744 JUMPI PUSH2 0x2744 PUSH2 0x5106 JUMP JUMPDEST PUSH1 0x20 SWAP1 DUP2 MUL SWAP2 SWAP1 SWAP2 ADD DUP2 ADD MLOAD PUSH1 0x60 ADD MLOAD PUSH1 0x1 PUSH1 0x1 PUSH1 0xA0 SHL SUB AND DUP3 MSTORE DUP2 ADD SWAP2 SWAP1 SWAP2 MSTORE PUSH1 0x40 ADD PUSH1 0x0 KECCAK256 SLOAD PUSH1 0xFF AND ISZERO PUSH2 0x28EC JUMPI PUSH1 0x4 SLOAD DUP9 MLOAD DUP1 MLOAD PUSH1 0x1 PUSH1 0x1 PUSH1 0xA0 SHL SUB SWAP1 SWAP3 AND SWAP2 PUSH4 0x47E8CA4D SWAP2 SWAP1 DUP6 SWAP1 DUP2 LT PUSH2 0x279E JUMPI PUSH2 0x279E PUSH2 0x5106 JUMP JUMPDEST PUSH1 0x20 MUL PUSH1 0x20 ADD ADD MLOAD PUSH1 0x20 ADD MLOAD DUP11 PUSH1 0x0 ADD MLOAD DUP6 DUP2 MLOAD DUP2 LT PUSH2 0x27C0 JUMPI PUSH2 0x27C0 PUSH2 0x5106 JUMP JUMPDEST PUSH1 0x20 MUL PUSH1 0x20 ADD ADD MLOAD PUSH1 0x40 ADD MLOAD PUSH1 0x1 DUP13 PUSH1 0x0 ADD MLOAD DUP8 DUP2 MLOAD DUP2 LT PUSH2 0x27E4 JUMPI PUSH2 0x27E4 PUSH2 0x5106 JUMP JUMPDEST PUSH1 0x20 MUL PUSH1 0x20 ADD ADD MLOAD PUSH1 0x60 ADD MLOAD PUSH1 0x40 MLOAD DUP6 PUSH4 0xFFFFFFFF AND PUSH1 0xE0 SHL DUP2 MSTORE PUSH1 0x4 ADD PUSH2 0x280F SWAP5 SWAP4 SWAP3 SWAP2 SWAP1 PUSH2 0x5416 JUMP JUMPDEST PUSH1 0x0 PUSH1 0x40 MLOAD DUP1 DUP4 SUB DUP2 PUSH1 0x0 DUP8 DUP1 EXTCODESIZE ISZERO DUP1 ISZERO PUSH2 0x2829 JUMPI PUSH1 0x0 DUP1 REVERT JUMPDEST POP GAS CALL ISZERO DUP1 ISZERO PUSH2 0x283D JUMPI RETURNDATASIZE PUSH1 0x0 DUP1 RETURNDATACOPY RETURNDATASIZE PUSH1 0x0 REVERT JUMPDEST POP POP PUSH1 0x3 SLOAD DUP11 MLOAD DUP1 MLOAD PUSH1 0x1 PUSH1 0x1 PUSH1 0xA0 SHL SUB SWAP1 SWAP3 AND SWAP4 POP PUSH4 0x4D025BD5 SWAP3 POP SWAP1 DUP6 SWAP1 DUP2 LT PUSH2 0x286B JUMPI PUSH2 0x286B PUSH2 0x5106 JUMP JUMPDEST PUSH1 0x20 MUL PUSH1 0x20 ADD ADD MLOAD PUSH1 0x20 ADD MLOAD DUP11 PUSH1 0x0 ADD MLOAD DUP6 DUP2 MLOAD DUP2 LT PUSH2 0x288D JUMPI PUSH2 0x288D PUSH2 0x5106 JUMP JUMPDEST PUSH1 0x20 MUL PUSH1 0x20 ADD ADD MLOAD PUSH1 0x40 ADD MLOAD PUSH1 0x1 PUSH1 0x40 MLOAD DUP5 PUSH4 0xFFFFFFFF AND PUSH1 0xE0 SHL DUP2 MSTORE PUSH1 0x4 ADD PUSH2 0x28B9 SWAP4 SWAP3 SWAP2 SWAP1 PUSH2 0x5441 JUMP JUMPDEST PUSH1 0x0 PUSH1 0x40 MLOAD DUP1 DUP4 SUB DUP2 PUSH1 0x0 DUP8 DUP1 EXTCODESIZE ISZERO DUP1 ISZERO PUSH2 0x28D3 JUMPI PUSH1 0x0 DUP1 REVERT JUMPDEST POP GAS CALL ISZERO DUP1 ISZERO PUSH2 0x28E7 JUMPI RETURNDATASIZE PUSH1 0x0 DUP1 RETURNDATACOPY RETURNDATASIZE PUSH1 0x0 REVERT JUMPDEST POP POP POP POP JUMPDEST PUSH2 0x2C7A JUMP JUMPDEST DUP8 MLOAD DUP1 MLOAD DUP4 SWAP1 DUP2 LT PUSH2 0x2905 JUMPI PUSH2 0x2905 PUSH2 0x5106 JUMP JUMPDEST PUSH1 0x20 MUL PUSH1 0x20 ADD ADD MLOAD PUSH1 0x40 ADD MLOAD PUSH1 0x7 PUSH1 0x0 DUP11 PUSH1 0x0 ADD MLOAD DUP6 DUP2 MLOAD DUP2 LT PUSH2 0x292B JUMPI PUSH2 0x292B PUSH2 0x5106 JUMP JUMPDEST PUSH1 0x20 MUL PUSH1 0x20 ADD ADD MLOAD PUSH1 0x20 ADD MLOAD PUSH1 0x1 PUSH1 0x1 PUSH1 0xA0 SHL SUB AND PUSH1 0x1 PUSH1 0x1 PUSH1 0xA0 SHL SUB AND DUP2 MSTORE PUSH1 0x20 ADD SWAP1 DUP2 MSTORE PUSH1 0x20 ADD PUSH1 0x0 KECCAK256 PUSH1 0x5 ADD PUSH1 0x0 DUP11 PUSH1 0x0 ADD MLOAD DUP6 DUP2 MLOAD DUP2 LT PUSH2 0x2972 JUMPI PUSH2 0x2972 PUSH2 0x5106 JUMP JUMPDEST PUSH1 0x20 MUL PUSH1 0x20 ADD ADD MLOAD PUSH1 0x60 ADD MLOAD PUSH1 0x1 PUSH1 0x1 PUSH1 0xA0 SHL SUB AND PUSH1 0x1 PUSH1 0x1 PUSH1 0xA0 SHL SUB AND DUP2 MSTORE PUSH1 0x20 ADD SWAP1 DUP2 MSTORE PUSH1 0x20 ADD PUSH1 0x0 KECCAK256 SLOAD LT ISZERO PUSH2 0x29F7 JUMPI PUSH1 0x40 MLOAD PUSH3 0x461BCD PUSH1 0xE5 SHL DUP2 MSTORE PUSH1 0x20 PUSH1 0x4 DUP3 ADD MSTORE PUSH1 0x21 PUSH1 0x24 DUP3 ADD MSTORE PUSH32 0x74726164696E6720676F6F64732062616C616E6365206973206E656761746976 PUSH1 0x44 DUP3 ADD MSTORE PUSH1 0x65 PUSH1 0xF8 SHL PUSH1 0x64 DUP3 ADD MSTORE PUSH1 0x84 ADD PUSH2 0x893 JUMP JUMPDEST DUP8 MLOAD DUP1 MLOAD DUP4 SWAP1 DUP2 LT PUSH2 0x2A0B JUMPI PUSH2 0x2A0B PUSH2 0x5106 JUMP JUMPDEST PUSH1 0x20 MUL PUSH1 0x20 ADD ADD MLOAD PUSH1 0x40 ADD MLOAD PUSH1 0x7 PUSH1 0x0 DUP11 PUSH1 0x0 ADD MLOAD DUP6 DUP2 MLOAD DUP2 LT PUSH2 0x2A31 JUMPI PUSH2 0x2A31 PUSH2 0x5106 JUMP JUMPDEST PUSH1 0x20 MUL PUSH1 0x20 ADD ADD MLOAD PUSH1 0x20 ADD MLOAD PUSH1 0x1 PUSH1 0x1 PUSH1 0xA0 SHL SUB AND PUSH1 0x1 PUSH1 0x1 PUSH1 0xA0 SHL SUB AND DUP2 MSTORE PUSH1 0x20 ADD SWAP1 DUP2 MSTORE PUSH1 0x20 ADD PUSH1 0x0 KECCAK256 PUSH1 0x5 ADD PUSH1 0x0 DUP11 PUSH1 0x0 ADD MLOAD DUP6 DUP2 MLOAD DUP2 LT PUSH2 0x2A78 JUMPI PUSH2 0x2A78 PUSH2 0x5106 JUMP JUMPDEST PUSH1 0x20 MUL PUSH1 0x20 ADD ADD MLOAD PUSH1 0x60 ADD MLOAD PUSH1 0x1 PUSH1 0x1 PUSH1 0xA0 SHL SUB AND PUSH1 0x1 PUSH1 0x1 PUSH1 0xA0 SHL SUB AND DUP2 MSTORE PUSH1 0x20 ADD SWAP1 DUP2 MSTORE PUSH1 0x20 ADD PUSH1 0x0 KECCAK256 PUSH1 0x0 DUP3 DUP3 SLOAD PUSH2 0x2AB3 SWAP2 SWAP1 PUSH2 0x51F0 JUMP JUMPDEST SWAP1 SWAP2 SSTORE POP POP DUP8 MLOAD DUP1 MLOAD PUSH1 0xD SWAP2 PUSH1 0x0 SWAP2 DUP6 SWAP1 DUP2 LT PUSH2 0x2AD2 JUMPI PUSH2 0x2AD2 PUSH2 0x5106 JUMP JUMPDEST PUSH1 0x20 SWAP1 DUP2 MUL SWAP2 SWAP1 SWAP2 ADD DUP2 ADD MLOAD PUSH1 0x60 ADD MLOAD PUSH1 0x1 PUSH1 0x1 PUSH1 0xA0 SHL SUB AND DUP3 MSTORE DUP2 ADD SWAP2 SWAP1 SWAP2 MSTORE PUSH1 0x40 ADD PUSH1 0x0 KECCAK256 SLOAD PUSH1 0xFF AND ISZERO PUSH2 0x2C7A JUMPI PUSH1 0x4 SLOAD DUP9 MLOAD DUP1 MLOAD PUSH1 0x1 PUSH1 0x1 PUSH1 0xA0 SHL SUB SWAP1 SWAP3 AND SWAP2 PUSH4 0x47E8CA4D SWAP2 SWAP1 DUP6 SWAP1 DUP2 LT PUSH2 0x2B2C JUMPI PUSH2 0x2B2C PUSH2 0x5106 JUMP JUMPDEST PUSH1 0x20 MUL PUSH1 0x20 ADD ADD MLOAD PUSH1 0x20 ADD MLOAD DUP11 PUSH1 0x0 ADD MLOAD DUP6 DUP2 MLOAD DUP2 LT PUSH2 0x2B4E JUMPI PUSH2 0x2B4E PUSH2 0x5106 JUMP JUMPDEST PUSH1 0x20 MUL PUSH1 0x20 ADD ADD MLOAD PUSH1 0x40 ADD MLOAD PUSH1 0x0 DUP13 PUSH1 0x0 ADD MLOAD DUP8 DUP2 MLOAD DUP2 LT PUSH2 0x2B72 JUMPI PUSH2 0x2B72 PUSH2 0x5106 JUMP JUMPDEST PUSH1 0x20 MUL PUSH1 0x20 ADD ADD MLOAD PUSH1 0x60 ADD MLOAD PUSH1 0x40 MLOAD DUP6 PUSH4 0xFFFFFFFF AND PUSH1 0xE0 SHL DUP2 MSTORE PUSH1 0x4 ADD PUSH2 0x2B9D SWAP5 SWAP4 SWAP3 SWAP2 SWAP1 PUSH2 0x5416 JUMP JUMPDEST PUSH1 0x0 PUSH1 0x40 MLOAD DUP1 DUP4 SUB DUP2 PUSH1 0x0 DUP8 DUP1 EXTCODESIZE ISZERO DUP1 ISZERO PUSH2 0x2BB7 JUMPI PUSH1 0x0 DUP1 REVERT JUMPDEST POP GAS CALL ISZERO DUP1 ISZERO PUSH2 0x2BCB JUMPI RETURNDATASIZE PUSH1 0x0 DUP1 RETURNDATACOPY RETURNDATASIZE PUSH1 0x0 REVERT JUMPDEST POP POP PUSH1 0x3 SLOAD DUP11 MLOAD DUP1 MLOAD PUSH1 0x1 PUSH1 0x1 PUSH1 0xA0 SHL SUB SWAP1 SWAP3 AND SWAP4 POP PUSH4 0x4D025BD5 SWAP3 POP SWAP1 DUP6 SWAP1 DUP2 LT PUSH2 0x2BF9 JUMPI PUSH2 0x2BF9 PUSH2 0x5106 JUMP JUMPDEST PUSH1 0x20 MUL PUSH1 0x20 ADD ADD MLOAD PUSH1 0x20 ADD MLOAD DUP11 PUSH1 0x0 ADD MLOAD DUP6 DUP2 MLOAD DUP2 LT PUSH2 0x2C1B JUMPI PUSH2 0x2C1B PUSH2 0x5106 JUMP JUMPDEST PUSH1 0x20 MUL PUSH1 0x20 ADD ADD MLOAD PUSH1 0x40 ADD MLOAD PUSH1 0x0 PUSH1 0x40 MLOAD DUP5 PUSH4 0xFFFFFFFF AND PUSH1 0xE0 SHL DUP2 MSTORE PUSH1 0x4 ADD PUSH2 0x2C47 SWAP4 SWAP3 SWAP2 SWAP1 PUSH2 0x5441 JUMP JUMPDEST PUSH1 0x0 PUSH1 0x40 MLOAD DUP1 DUP4 SUB DUP2 PUSH1 0x0 DUP8 DUP1 EXTCODESIZE ISZERO DUP1 ISZERO PUSH2 0x2C61 JUMPI PUSH1 0x0 DUP1 REVERT JUMPDEST POP GAS CALL ISZERO DUP1 ISZERO PUSH2 0x2C75 JUMPI RETURNDATASIZE PUSH1 0x0 DUP1 RETURNDATACOPY RETURNDATASIZE PUSH1 0x0 REVERT JUMPDEST POP POP POP POP JUMPDEST DUP8 MLOAD DUP1 MLOAD DUP4 SWAP1 DUP2 LT PUSH2 0x2C8E JUMPI PUSH2 0x2C8E PUSH2 0x5106 JUMP JUMPDEST PUSH1 0x20 MUL PUSH1 0x20 ADD ADD MLOAD PUSH1 0xE0 ADD MLOAD ISZERO PUSH2 0x2F27 JUMPI DUP8 MLOAD DUP1 MLOAD DUP4 SWAP1 DUP2 LT PUSH2 0x2CB3 JUMPI PUSH2 0x2CB3 PUSH2 0x5106 JUMP JUMPDEST PUSH1 0x20 MUL PUSH1 0x20 ADD ADD MLOAD PUSH1 0xA0 ADD MLOAD PUSH1 0x7 PUSH1 0x0 DUP11 PUSH1 0x0 ADD MLOAD DUP6 DUP2 MLOAD DUP2 LT PUSH2 0x2CD9 JUMPI PUSH2 0x2CD9 PUSH2 0x5106 JUMP JUMPDEST PUSH1 0x20 MUL PUSH1 0x20 ADD ADD MLOAD PUSH1 0x20 ADD MLOAD PUSH1 0x1 PUSH1 0x1 PUSH1 0xA0 SHL SUB AND PUSH1 0x1 PUSH1 0x1 PUSH1 0xA0 SHL SUB AND DUP2 MSTORE PUSH1 0x20 ADD SWAP1 DUP2 MSTORE PUSH1 0x20 ADD PUSH1 0x0 KECCAK256 PUSH1 0x5 ADD PUSH1 0x0 DUP11 PUSH1 0x0 ADD MLOAD DUP6 DUP2 MLOAD DUP2 LT PUSH2 0x2D20 JUMPI PUSH2 0x2D20 PUSH2 0x5106 JUMP JUMPDEST PUSH1 0x20 MUL PUSH1 0x20 ADD ADD MLOAD PUSH1 0xC0 ADD MLOAD PUSH1 0x1 PUSH1 0x1 PUSH1 0xA0 SHL SUB AND PUSH1 0x1 PUSH1 0x1 PUSH1 0xA0 SHL SUB AND DUP2 MSTORE PUSH1 0x20 ADD SWAP1 DUP2 MSTORE PUSH1 0x20 ADD PUSH1 0x0 KECCAK256 PUSH1 0x0 DUP3 DUP3 SLOAD PUSH2 0x2D5B SWAP2 SWAP1 PUSH2 0x52F5 JUMP JUMPDEST SWAP1 SWAP2 SSTORE POP POP DUP8 MLOAD DUP1 MLOAD PUSH1 0xD SWAP2 PUSH1 0x0 SWAP2 DUP6 SWAP1 DUP2 LT PUSH2 0x2D7A JUMPI PUSH2 0x2D7A PUSH2 0x5106 JUMP JUMPDEST PUSH1 0x20 SWAP1 DUP2 MUL SWAP2 SWAP1 SWAP2 ADD DUP2 ADD MLOAD PUSH1 0xC0 ADD MLOAD PUSH1 0x1 PUSH1 0x1 PUSH1 0xA0 SHL SUB AND DUP3 MSTORE DUP2 ADD SWAP2 SWAP1 SWAP2 MSTORE PUSH1 0x40 ADD PUSH1 0x0 KECCAK256 SLOAD PUSH1 0xFF AND ISZERO PUSH2 0x2F22 JUMPI PUSH1 0x4 SLOAD DUP9 MLOAD DUP1 MLOAD PUSH1 0x1 PUSH1 0x1 PUSH1 0xA0 SHL SUB SWAP1 SWAP3 AND SWAP2 PUSH4 0x47E8CA4D SWAP2 SWAP1 DUP6 SWAP1 DUP2 LT PUSH2 0x2DD4 JUMPI PUSH2 0x2DD4 PUSH2 0x5106 JUMP JUMPDEST PUSH1 0x20 MUL PUSH1 0x20 ADD ADD MLOAD PUSH1 0x20 ADD MLOAD DUP11 PUSH1 0x0 ADD MLOAD DUP6 DUP2 MLOAD DUP2 LT PUSH2 0x2DF6 JUMPI PUSH2 0x2DF6 PUSH2 0x5106 JUMP JUMPDEST PUSH1 0x20 MUL PUSH1 0x20 ADD ADD MLOAD PUSH1 0xA0 ADD MLOAD PUSH1 0x1 DUP13 PUSH1 0x0 ADD MLOAD DUP8 DUP2 MLOAD DUP2 LT PUSH2 0x2E1A JUMPI PUSH2 0x2E1A PUSH2 0x5106 JUMP JUMPDEST PUSH1 0x20 MUL PUSH1 0x20 ADD ADD MLOAD PUSH1 0xC0 ADD MLOAD PUSH1 0x40 MLOAD DUP6 PUSH4 0xFFFFFFFF AND PUSH1 0xE0 SHL DUP2 MSTORE PUSH1 0x4 ADD PUSH2 0x2E45 SWAP5 SWAP4 SWAP3 SWAP2 SWAP1 PUSH2 0x5416 JUMP JUMPDEST PUSH1 0x0 PUSH1 0x40 MLOAD DUP1 DUP4 SUB DUP2 PUSH1 0x0 DUP8 DUP1 EXTCODESIZE ISZERO DUP1 ISZERO PUSH2 0x2E5F JUMPI PUSH1 0x0 DUP1 REVERT JUMPDEST POP GAS CALL ISZERO DUP1 ISZERO PUSH2 0x2E73 JUMPI RETURNDATASIZE PUSH1 0x0 DUP1 RETURNDATACOPY RETURNDATASIZE PUSH1 0x0 REVERT JUMPDEST POP POP PUSH1 0x3 SLOAD DUP11 MLOAD DUP1 MLOAD PUSH1 0x1 PUSH1 0x1 PUSH1 0xA0 SHL SUB SWAP1 SWAP3 AND SWAP4 POP PUSH4 0x4D025BD5 SWAP3 POP SWAP1 DUP6 SWAP1 DUP2 LT PUSH2 0x2EA1 JUMPI PUSH2 0x2EA1 PUSH2 0x5106 JUMP JUMPDEST PUSH1 0x20 MUL PUSH1 0x20 ADD ADD MLOAD PUSH1 0x20 ADD MLOAD DUP11 PUSH1 0x0 ADD MLOAD DUP6 DUP2 MLOAD DUP2 LT PUSH2 0x2EC3 JUMPI PUSH2 0x2EC3 PUSH2 0x5106 JUMP JUMPDEST PUSH1 0x20 MUL PUSH1 0x20 ADD ADD MLOAD PUSH1 0xA0 ADD MLOAD PUSH1 0x1 PUSH1 0x40 MLOAD DUP5 PUSH4 0xFFFFFFFF AND PUSH1 0xE0 SHL DUP2 MSTORE PUSH1 0x4 ADD PUSH2 0x2EEF SWAP4 SWAP3 SWAP2 SWAP1 PUSH2 0x5441 JUMP JUMPDEST PUSH1 0x0 PUSH1 0x40 MLOAD DUP1 DUP4 SUB DUP2 PUSH1 0x0 DUP8 DUP1 EXTCODESIZE ISZERO DUP1 ISZERO PUSH2 0x2F09 JUMPI PUSH1 0x0 DUP1 REVERT JUMPDEST POP GAS CALL ISZERO DUP1 ISZERO PUSH2 0x2F1D JUMPI RETURNDATASIZE PUSH1 0x0 DUP1 RETURNDATACOPY RETURNDATASIZE PUSH1 0x0 REVERT JUMPDEST POP POP POP POP JUMPDEST PUSH2 0x32A6 JUMP JUMPDEST DUP8 MLOAD DUP1 MLOAD DUP4 SWAP1 DUP2 LT PUSH2 0x2F3B JUMPI PUSH2 0x2F3B PUSH2 0x5106 JUMP JUMPDEST PUSH1 0x20 MUL PUSH1 0x20 ADD ADD MLOAD PUSH1 0xA0 ADD MLOAD PUSH1 0x7 PUSH1 0x0 DUP11 PUSH1 0x0 ADD MLOAD DUP6 DUP2 MLOAD DUP2 LT PUSH2 0x2F61 JUMPI PUSH2 0x2F61 PUSH2 0x5106 JUMP JUMPDEST PUSH1 0x20 MUL PUSH1 0x20 ADD ADD MLOAD PUSH1 0x20 ADD MLOAD PUSH1 0x1 PUSH1 0x1 PUSH1 0xA0 SHL SUB AND PUSH1 0x1 PUSH1 0x1 PUSH1 0xA0 SHL SUB AND DUP2 MSTORE PUSH1 0x20 ADD SWAP1 DUP2 MSTORE PUSH1 0x20 ADD PUSH1 0x0 KECCAK256 PUSH1 0x5 ADD PUSH1 0x0 DUP11 PUSH1 0x0 ADD MLOAD DUP6 DUP2 MLOAD DUP2 LT PUSH2 0x2FA8 JUMPI PUSH2 0x2FA8 PUSH2 0x5106 JUMP JUMPDEST PUSH1 0x20 MUL PUSH1 0x20 ADD ADD MLOAD PUSH1 0xC0 ADD MLOAD PUSH1 0x1 PUSH1 0x1 PUSH1 0xA0 SHL SUB AND PUSH1 0x1 PUSH1 0x1 PUSH1 0xA0 SHL SUB AND DUP2 MSTORE PUSH1 0x20 ADD SWAP1 DUP2 MSTORE PUSH1 0x20 ADD PUSH1 0x0 KECCAK256 SLOAD LT ISZERO PUSH2 0x3023 JUMPI PUSH1 0x40 MLOAD PUSH3 0x461BCD PUSH1 0xE5 SHL DUP2 MSTORE PUSH1 0x20 PUSH1 0x4 DUP3 ADD DUP2 SWAP1 MSTORE PUSH1 0x24 DUP3 ADD MSTORE PUSH32 0x74726164696E6720636F696E2062616C616E6365206973206E65676174697665 PUSH1 0x44 DUP3 ADD MSTORE PUSH1 0x64 ADD PUSH2 0x893 JUMP JUMPDEST DUP8 MLOAD DUP1 MLOAD DUP4 SWAP1 DUP2 LT PUSH2 0x3037 JUMPI PUSH2 0x3037 PUSH2 0x5106 JUMP JUMPDEST PUSH1 0x20 MUL PUSH1 0x20 ADD ADD MLOAD PUSH1 0xA0 ADD MLOAD PUSH1 0x7 PUSH1 0x0 DUP11 PUSH1 0x0 ADD MLOAD DUP6 DUP2 MLOAD DUP2 LT PUSH2 0x305D JUMPI PUSH2 0x305D PUSH2 0x5106 JUMP JUMPDEST PUSH1 0x20 MUL PUSH1 0x20 ADD ADD MLOAD PUSH1 0x20 ADD MLOAD PUSH1 0x1 PUSH1 0x1 PUSH1 0xA0 SHL SUB AND PUSH1 0x1 PUSH1 0x1 PUSH1 0xA0 SHL SUB AND DUP2 MSTORE PUSH1 0x20 ADD SWAP1 DUP2 MSTORE PUSH1 0x20 ADD PUSH1 0x0 KECCAK256 PUSH1 0x5 ADD PUSH1 0x0 DUP11 PUSH1 0x0 ADD MLOAD DUP6 DUP2 MLOAD DUP2 LT PUSH2 0x30A4 JUMPI PUSH2 0x30A4 PUSH2 0x5106 JUMP JUMPDEST PUSH1 0x20 MUL PUSH1 0x20 ADD ADD MLOAD PUSH1 0xC0 ADD MLOAD PUSH1 0x1 PUSH1 0x1 PUSH1 0xA0 SHL SUB AND PUSH1 0x1 PUSH1 0x1 PUSH1 0xA0 SHL SUB AND DUP2 MSTORE PUSH1 0x20 ADD SWAP1 DUP2 MSTORE PUSH1 0x20 ADD PUSH1 0x0 KECCAK256 PUSH1 0x0 DUP3 DUP3 SLOAD PUSH2 0x30DF SWAP2 SWAP1 PUSH2 0x51F0 JUMP JUMPDEST SWAP1 SWAP2 SSTORE POP POP DUP8 MLOAD DUP1 MLOAD PUSH1 0xD SWAP2 PUSH1 0x0 SWAP2 DUP6 SWAP1 DUP2 LT PUSH2 0x30FE JUMPI PUSH2 0x30FE PUSH2 0x5106 JUMP JUMPDEST PUSH1 0x20 SWAP1 DUP2 MUL SWAP2 SWAP1 SWAP2 ADD DUP2 ADD MLOAD PUSH1 0xC0 ADD MLOAD PUSH1 0x1 PUSH1 0x1 PUSH1 0xA0 SHL SUB AND DUP3 MSTORE DUP2 ADD SWAP2 SWAP1 SWAP2 MSTORE PUSH1 0x40 ADD PUSH1 0x0 KECCAK256 SLOAD PUSH1 0xFF AND ISZERO PUSH2 0x32A6 JUMPI PUSH1 0x4 SLOAD DUP9 MLOAD DUP1 MLOAD PUSH1 0x1 PUSH1 0x1 PUSH1 0xA0 SHL SUB SWAP1 SWAP3 AND SWAP2 PUSH4 0x47E8CA4D SWAP2 SWAP1 DUP6 SWAP1 DUP2 LT PUSH2 0x3158 JUMPI PUSH2 0x3158 PUSH2 0x5106 JUMP JUMPDEST PUSH1 0x20 MUL PUSH1 0x20 ADD ADD MLOAD PUSH1 0x20 ADD MLOAD DUP11 PUSH1 0x0 ADD MLOAD DUP6 DUP2 MLOAD DUP2 LT PUSH2 0x317A JUMPI PUSH2 0x317A PUSH2 0x5106 JUMP JUMPDEST PUSH1 0x20 MUL PUSH1 0x20 ADD ADD MLOAD PUSH1 0xA0 ADD MLOAD PUSH1 0x0 DUP13 PUSH1 0x0 ADD MLOAD DUP8 DUP2 MLOAD DUP2 LT PUSH2 0x319E JUMPI PUSH2 0x319E PUSH2 0x5106 JUMP JUMPDEST PUSH1 0x20 MUL PUSH1 0x20 ADD ADD MLOAD PUSH1 0xC0 ADD MLOAD PUSH1 0x40 MLOAD DUP6 PUSH4 0xFFFFFFFF AND PUSH1 0xE0 SHL DUP2 MSTORE PUSH1 0x4 ADD PUSH2 0x31C9 SWAP5 SWAP4 SWAP3 SWAP2 SWAP1 PUSH2 0x5416 JUMP JUMPDEST PUSH1 0x0 PUSH1 0x40 MLOAD DUP1 DUP4 SUB DUP2 PUSH1 0x0 DUP8 DUP1 EXTCODESIZE ISZERO DUP1 ISZERO PUSH2 0x31E3 JUMPI PUSH1 0x0 DUP1 REVERT JUMPDEST POP GAS CALL ISZERO DUP1 ISZERO PUSH2 0x31F7 JUMPI RETURNDATASIZE PUSH1 0x0 DUP1 RETURNDATACOPY RETURNDATASIZE PUSH1 0x0 REVERT JUMPDEST POP POP PUSH1 0x3 SLOAD DUP11 MLOAD DUP1 MLOAD PUSH1 0x1 PUSH1 0x1 PUSH1 0xA0 SHL SUB SWAP1 SWAP3 AND SWAP4 POP PUSH4 0x4D025BD5 SWAP3 POP SWAP1 DUP6 SWAP1 DUP2 LT PUSH2 0x3225 JUMPI PUSH2 0x3225 PUSH2 0x5106 JUMP JUMPDEST PUSH1 0x20 MUL PUSH1 0x20 ADD ADD MLOAD PUSH1 0x20 ADD MLOAD DUP11 PUSH1 0x0 ADD MLOAD DUP6 DUP2 MLOAD DUP2 LT PUSH2 0x3247 JUMPI PUSH2 0x3247 PUSH2 0x5106 JUMP JUMPDEST PUSH1 0x20 MUL PUSH1 0x20 ADD ADD MLOAD PUSH1 0xA0 ADD MLOAD PUSH1 0x0 PUSH1 0x40 MLOAD DUP5 PUSH4 0xFFFFFFFF AND PUSH1 0xE0 SHL DUP2 MSTORE PUSH1 0x4 ADD PUSH2 0x3273 SWAP4 SWAP3 SWAP2 SWAP1 PUSH2 0x5441 JUMP JUMPDEST PUSH1 0x0 PUSH1 0x40 MLOAD DUP1 DUP4 SUB DUP2 PUSH1 0x0 DUP8 DUP1 EXTCODESIZE ISZERO DUP1 ISZERO PUSH2 0x328D JUMPI PUSH1 0x0 DUP1 REVERT JUMPDEST POP GAS CALL ISZERO DUP1 ISZERO PUSH2 0x32A1 JUMPI RETURNDATASIZE PUSH1 0x0 DUP1 RETURNDATACOPY RETURNDATASIZE PUSH1 0x0 REVERT JUMPDEST POP POP POP POP JUMPDEST DUP8 MLOAD DUP1 MLOAD DUP4 SWAP1 DUP2 LT PUSH2 0x32BA JUMPI PUSH2 0x32BA PUSH2 0x5106 JUMP JUMPDEST PUSH1 0x20 MUL PUSH1 0x20 ADD ADD MLOAD PUSH2 0x100 ADD MLOAD PUSH1 0x7 PUSH1 0x0 DUP11 PUSH1 0x0 ADD MLOAD DUP6 DUP2 MLOAD DUP2 LT PUSH2 0x32E1 JUMPI PUSH2 0x32E1 PUSH2 0x5106 JUMP JUMPDEST PUSH1 0x20 MUL PUSH1 0x20 ADD ADD MLOAD PUSH1 0x20 ADD MLOAD PUSH1 0x1 PUSH1 0x1 PUSH1 0xA0 SHL SUB AND PUSH1 0x1 PUSH1 0x1 PUSH1 0xA0 SHL SUB AND DUP2 MSTORE PUSH1 0x20 ADD SWAP1 DUP2 MSTORE PUSH1 0x20 ADD PUSH1 0x0 KECCAK256 PUSH1 0x5 ADD PUSH1 0x0 DUP11 PUSH1 0x0 ADD MLOAD DUP6 DUP2 MLOAD DUP2 LT PUSH2 0x3328 JUMPI PUSH2 0x3328 PUSH2 0x5106 JUMP JUMPDEST PUSH1 0x20 MUL PUSH1 0x20 ADD ADD MLOAD PUSH2 0x120 ADD MLOAD PUSH1 0x1 PUSH1 0x1 PUSH1 0xA0 SHL SUB AND PUSH1 0x1 PUSH1 0x1 PUSH1 0xA0 SHL SUB AND DUP2 MSTORE PUSH1 0x20 ADD SWAP1 DUP2 MSTORE PUSH1 0x20 ADD PUSH1 0x0 KECCAK256 PUSH1 0x0 DUP3 DUP3 SLOAD PUSH2 0x3364 SWAP2 SWAP1 PUSH2 0x51F0 JUMP JUMPDEST SWAP1 SWAP2 SSTORE POP POP DUP8 MLOAD DUP1 MLOAD PUSH2 0x33B7 SWAP2 SWAP1 DUP5 SWAP1 DUP2 LT PUSH2 0x3382 JUMPI PUSH2 0x3382 PUSH2 0x5106 JUMP JUMPDEST PUSH1 0x20 MUL PUSH1 0x20 ADD ADD MLOAD PUSH2 0x120 ADD MLOAD DUP10 PUSH1 0x0 ADD MLOAD DUP5 DUP2 MLOAD DUP2 LT PUSH2 0x33A5 JUMPI PUSH2 0x33A5 PUSH2 0x5106 JUMP JUMPDEST PUSH1 0x20 MUL PUSH1 0x20 ADD ADD MLOAD PUSH2 0x100 ADD MLOAD PUSH2 0x43CE JUMP JUMPDEST PUSH1 0xB PUSH1 0x0 DUP10 PUSH1 0x0 ADD MLOAD DUP5 DUP2 MLOAD DUP2 LT PUSH2 0x33D1 JUMPI PUSH2 0x33D1 PUSH2 0x5106 JUMP JUMPDEST PUSH1 0x20 SWAP1 DUP2 MUL SWAP2 SWAP1 SWAP2 ADD DUP2 ADD MLOAD DUP2 ADD MLOAD PUSH1 0x1 PUSH1 0x1 PUSH1 0xA0 SHL SUB AND DUP3 MSTORE DUP2 DUP2 ADD SWAP3 SWAP1 SWAP3 MSTORE PUSH1 0x40 ADD PUSH1 0x0 SWAP1 DUP2 KECCAK256 DUP1 SLOAD PUSH1 0x1 DUP2 ADD DUP3 SSTORE SWAP1 DUP3 MSTORE SWAP2 SWAP1 KECCAK256 ADD DUP2 SWAP1 SSTORE DUP8 MLOAD DUP1 MLOAD DUP4 SWAP1 DUP2 LT PUSH2 0x3420 JUMPI PUSH2 0x3420 PUSH2 0x5106 JUMP JUMPDEST PUSH1 0x20 MUL PUSH1 0x20 ADD ADD MLOAD PUSH2 0x140 ADD MLOAD PUSH1 0x7 PUSH1 0x0 DUP11 PUSH1 0x0 ADD MLOAD DUP6 DUP2 MLOAD DUP2 LT PUSH2 0x3447 JUMPI PUSH2 0x3447 PUSH2 0x5106 JUMP JUMPDEST PUSH1 0x20 MUL PUSH1 0x20 ADD ADD MLOAD PUSH1 0x20 ADD MLOAD PUSH1 0x1 PUSH1 0x1 PUSH1 0xA0 SHL SUB AND PUSH1 0x1 PUSH1 0x1 PUSH1 0xA0 SHL SUB AND DUP2 MSTORE PUSH1 0x20 ADD SWAP1 DUP2 MSTORE PUSH1 0x20 ADD PUSH1 0x0 KECCAK256 PUSH1 0x6 ADD DUP2 SWAP1 SSTORE POP DUP1 PUSH1 0x7 PUSH1 0x0 DUP11 PUSH1 0x0 ADD MLOAD DUP6 DUP2 MLOAD DUP2 LT PUSH2 0x3495 JUMPI PUSH2 0x3495 PUSH2 0x5106 JUMP JUMPDEST PUSH1 0x20 MUL PUSH1 0x20 ADD ADD MLOAD PUSH1 0x20 ADD MLOAD PUSH1 0x1 PUSH1 0x1 PUSH1 0xA0 SHL SUB AND PUSH1 0x1 PUSH1 0x1 PUSH1 0xA0 SHL SUB AND DUP2 MSTORE PUSH1 0x20 ADD SWAP1 DUP2 MSTORE PUSH1 0x20 ADD PUSH1 0x0 KECCAK256 PUSH1 0x4 ADD DUP2 SWAP1 SSTORE POP POP DUP1 DUP1 PUSH2 0x34D4 SWAP1 PUSH2 0x5132 JUMP JUMPDEST SWAP2 POP POP PUSH2 0x2339 JUMP JUMPDEST POP SWAP2 SWAP4 SWAP6 SWAP1 SWAP3 SWAP5 POP JUMP JUMPDEST DUP2 PUSH2 0x160 ADD MLOAD DUP3 PUSH1 0x0 ADD MLOAD DUP4 PUSH1 0x20 ADD MLOAD DUP5 PUSH1 0x40 ADD MLOAD DUP6 PUSH1 0x60 ADD MLOAD DUP7 PUSH1 0x80 ADD MLOAD DUP8 PUSH1 0xA0 ADD MLOAD DUP9 PUSH1 0xC0 ADD MLOAD DUP10 PUSH1 0xE0 ADD MLOAD DUP11 PUSH2 0x100 ADD MLOAD DUP12 PUSH2 0x140 ADD MLOAD PUSH1 0x40 MLOAD PUSH1 0x20 ADD PUSH2 0x3539 SWAP11 SWAP10 SWAP9 SWAP8 SWAP7 SWAP6 SWAP5 SWAP4 SWAP3 SWAP2 SWAP1 PUSH2 0x5464 JUMP JUMPDEST PUSH1 0x40 MLOAD PUSH1 0x20 DUP2 DUP4 SUB SUB DUP2 MSTORE SWAP1 PUSH1 0x40 MSTORE DUP1 MLOAD SWAP1 PUSH1 0x20 ADD KECCAK256 EQ PUSH2 0x359C JUMPI PUSH1 0x40 MLOAD PUSH3 0x461BCD PUSH1 0xE5 SHL DUP2 MSTORE PUSH1 0x20 PUSH1 0x4 DUP3 ADD MSTORE PUSH1 0x1F PUSH1 0x24 DUP3 ADD MSTORE PUSH32 0x7665726966795369676E6174757265413A2068617368206973206572726F7200 PUSH1 0x44 DUP3 ADD MSTORE PUSH1 0x64 ADD PUSH2 0x893 JUMP JUMPDEST PUSH2 0x35C2 PUSH1 0x0 DUP1 MLOAD PUSH1 0x20 PUSH2 0x557B DUP4 CODECOPY DUP2 MLOAD SWAP2 MSTORE PUSH2 0x5AC DUP5 PUSH2 0x160 ADD MLOAD DUP6 PUSH2 0x180 ADD MLOAD PUSH2 0x144E JUMP JUMPDEST PUSH2 0x232D JUMPI PUSH1 0x40 MLOAD PUSH3 0x461BCD PUSH1 0xE5 SHL DUP2 MSTORE PUSH1 0x4 ADD PUSH2 0x893 SWAP1 PUSH2 0x52C3 JUMP JUMPDEST PUSH1 0x1 PUSH1 0x1 PUSH1 0xA0 SHL SUB DUP2 AND PUSH1 0x0 SWAP1 DUP2 MSTORE PUSH1 0x7 PUSH1 0x20 MSTORE PUSH1 0x40 DUP2 KECCAK256 PUSH1 0xC0 DUP5 ADD MLOAD DUP3 SWAP2 DUP3 SWAP2 DUP3 SWAP2 DUP3 SWAP2 DUP3 SWAP2 SWAP1 PUSH2 0x3610 SWAP1 DUP1 PUSH2 0x4473 JUMP JUMPDEST PUSH1 0x3 DUP2 ADD SLOAD PUSH2 0x3620 SWAP1 PUSH1 0x1 PUSH2 0x52F5 JUMP JUMPDEST DUP10 PUSH2 0x120 ADD MLOAD EQ PUSH2 0x3643 JUMPI PUSH1 0x40 MLOAD PUSH3 0x461BCD PUSH1 0xE5 SHL DUP2 MSTORE PUSH1 0x4 ADD PUSH2 0x893 SWAP1 PUSH2 0x54EC JUMP JUMPDEST DUP9 PUSH2 0x140 ADD MLOAD PUSH2 0xFFFF AND PUSH1 0x1 SUB PUSH2 0x378F JUMPI PUSH1 0xA0 DUP10 ADD MLOAD PUSH1 0x1 PUSH1 0x1 PUSH1 0xA0 SHL SUB DUP1 DUP11 AND PUSH1 0x0 SWAP1 DUP2 MSTORE PUSH1 0xC PUSH1 0x20 SWAP1 DUP2 MSTORE PUSH1 0x40 DUP1 DUP4 KECCAK256 PUSH1 0xC0 DUP16 ADD MLOAD SWAP1 SWAP5 AND DUP4 MSTORE SWAP3 SWAP1 MSTORE KECCAK256 SLOAD PUSH2 0x368E SWAP2 SWAP1 PUSH2 0x52F5 JUMP JUMPDEST PUSH1 0x3 SLOAD PUSH1 0xC0 DUP12 ADD MLOAD PUSH1 0x40 MLOAD PUSH4 0xDE45E98D PUSH1 0xE0 SHL DUP2 MSTORE PUSH1 0x1 PUSH1 0x1 PUSH1 0xA0 SHL SUB DUP13 DUP2 AND PUSH1 0x4 DUP4 ADD MSTORE SWAP2 DUP3 AND PUSH1 0x24 DUP3 ADD MSTORE SWAP2 AND SWAP1 PUSH4 0xDE45E98D SWAP1 PUSH1 0x44 ADD PUSH1 0x20 PUSH1 0x40 MLOAD DUP1 DUP4 SUB DUP2 DUP7 GAS STATICCALL ISZERO DUP1 ISZERO PUSH2 0x36E4 JUMPI RETURNDATASIZE PUSH1 0x0 DUP1 RETURNDATACOPY RETURNDATASIZE PUSH1 0x0 REVERT JUMPDEST POP POP POP POP PUSH1 0x40 MLOAD RETURNDATASIZE PUSH1 0x1F NOT PUSH1 0x1F DUP3 ADD AND DUP3 ADD DUP1 PUSH1 0x40 MSTORE POP DUP2 ADD SWAP1 PUSH2 0x3708 SWAP2 SWAP1 PUSH2 0x516F JUMP JUMPDEST LT ISZERO PUSH2 0x3748 JUMPI PUSH1 0x40 MLOAD PUSH3 0x461BCD PUSH1 0xE5 SHL DUP2 MSTORE PUSH1 0x20 PUSH1 0x4 DUP3 ADD MSTORE PUSH1 0xF PUSH1 0x24 DUP3 ADD MSTORE PUSH15 0x4465706F736974206661696C757265 PUSH1 0x88 SHL PUSH1 0x44 DUP3 ADD MSTORE PUSH1 0x64 ADD PUSH2 0x893 JUMP JUMPDEST PUSH1 0xA0 DUP10 ADD MLOAD PUSH1 0x1 PUSH1 0x1 PUSH1 0xA0 SHL SUB DUP1 DUP11 AND PUSH1 0x0 SWAP1 DUP2 MSTORE PUSH1 0xC PUSH1 0x20 SWAP1 DUP2 MSTORE PUSH1 0x40 DUP1 DUP4 KECCAK256 PUSH1 0xC0 DUP16 ADD MLOAD SWAP1 SWAP5 AND DUP4 MSTORE SWAP3 SWAP1 MSTORE SWAP1 DUP2 KECCAK256 DUP1 SLOAD SWAP1 SWAP2 SWAP1 PUSH2 0x3789 SWAP1 DUP5 SWAP1 PUSH2 0x52F5 JUMP JUMPDEST SWAP1 SWAP2 SSTORE POP POP JUMPDEST PUSH1 0x20 DUP1 DUP11 ADD MLOAD PUSH1 0x1 PUSH1 0x1 PUSH1 0xA0 SHL SUB AND PUSH1 0x0 SWAP1 DUP2 MSTORE PUSH1 0xA SWAP1 SWAP2 MSTORE PUSH1 0x40 SWAP1 KECCAK256 SLOAD ISZERO PUSH2 0x3859 JUMPI PUSH1 0x20 DUP1 DUP11 ADD MLOAD PUSH1 0x1 PUSH1 0x1 PUSH1 0xA0 SHL SUB AND PUSH1 0x0 SWAP1 DUP2 MSTORE PUSH1 0xA DUP3 MSTORE PUSH1 0x40 DUP1 DUP3 KECCAK256 DUP1 SLOAD DUP3 MLOAD DUP2 DUP7 MUL DUP2 ADD DUP7 ADD SWAP1 SWAP4 MSTORE DUP1 DUP4 MSTORE SWAP3 SWAP4 SWAP2 SWAP3 SWAP1 SWAP2 DUP4 ADD DUP3 DUP3 DUP1 ISZERO PUSH2 0x3815 JUMPI PUSH1 0x20 MUL DUP3 ADD SWAP2 SWAP1 PUSH1 0x0 MSTORE PUSH1 0x20 PUSH1 0x0 KECCAK256 SWAP1 JUMPDEST DUP2 SLOAD DUP2 MSTORE PUSH1 0x20 ADD SWAP1 PUSH1 0x1 ADD SWAP1 DUP1 DUP4 GT PUSH2 0x3801 JUMPI JUMPDEST POP POP POP POP POP SWAP1 POP PUSH2 0x3851 DUP2 PUSH1 0x1 DUP4 MLOAD PUSH2 0x382E SWAP2 SWAP1 PUSH2 0x51F0 JUMP JUMPDEST DUP2 MLOAD DUP2 LT PUSH2 0x383E JUMPI PUSH2 0x383E PUSH2 0x5106 JUMP JUMPDEST PUSH1 0x20 MUL PUSH1 0x20 ADD ADD MLOAD DUP12 PUSH2 0x160 ADD MLOAD PUSH2 0x1BE8 JUMP JUMPDEST SWAP3 POP POP PUSH2 0x386C JUMP JUMPDEST PUSH2 0x160 DUP10 ADD MLOAD PUSH2 0x3869 SWAP1 DUP1 PUSH2 0x1BE8 JUMP JUMPDEST SWAP2 POP JUMPDEST DUP9 PUSH2 0x140 ADD MLOAD PUSH2 0xFFFF AND PUSH1 0x2 EQ PUSH2 0x3970 JUMPI DUP9 PUSH1 0xE0 ADD MLOAD ISZERO PUSH2 0x38C5 JUMPI PUSH1 0xA0 DUP10 ADD MLOAD PUSH1 0xC0 DUP11 ADD MLOAD PUSH1 0x1 PUSH1 0x1 PUSH1 0xA0 SHL SUB AND PUSH1 0x0 SWAP1 DUP2 MSTORE PUSH1 0x2 DUP4 ADD PUSH1 0x20 MSTORE PUSH1 0x40 DUP2 KECCAK256 DUP1 SLOAD SWAP1 SWAP2 SWAP1 PUSH2 0x38BA SWAP1 DUP5 SWAP1 PUSH2 0x52F5 JUMP JUMPDEST SWAP1 SWAP2 SSTORE POP PUSH2 0x3970 SWAP1 POP JUMP JUMPDEST PUSH1 0xA0 DUP10 ADD MLOAD PUSH1 0xC0 DUP11 ADD MLOAD PUSH1 0x1 PUSH1 0x1 PUSH1 0xA0 SHL SUB AND PUSH1 0x0 SWAP1 DUP2 MSTORE PUSH1 0x2 DUP4 ADD PUSH1 0x20 MSTORE PUSH1 0x40 SWAP1 KECCAK256 SLOAD LT ISZERO PUSH2 0x3937 JUMPI PUSH1 0x40 MLOAD PUSH3 0x461BCD PUSH1 0xE5 SHL DUP2 MSTORE PUSH1 0x20 PUSH1 0x4 DUP3 ADD DUP2 SWAP1 MSTORE PUSH1 0x24 DUP3 ADD MSTORE PUSH32 0x6361706974616C20636F696E2062616C616E6365206973206E65676174697665 PUSH1 0x44 DUP3 ADD MSTORE PUSH1 0x64 ADD PUSH2 0x893 JUMP JUMPDEST PUSH1 0xA0 DUP10 ADD MLOAD PUSH1 0xC0 DUP11 ADD MLOAD PUSH1 0x1 PUSH1 0x1 PUSH1 0xA0 SHL SUB AND PUSH1 0x0 SWAP1 DUP2 MSTORE PUSH1 0x2 DUP4 ADD PUSH1 0x20 MSTORE PUSH1 0x40 DUP2 KECCAK256 DUP1 SLOAD SWAP1 SWAP2 SWAP1 PUSH2 0x396A SWAP1 DUP5 SWAP1 PUSH2 0x51F0 JUMP JUMPDEST SWAP1 SWAP2 SSTORE POP POP JUMPDEST PUSH1 0x20 DUP1 DUP11 ADD MLOAD PUSH1 0x1 PUSH1 0x1 PUSH1 0xA0 SHL SUB AND PUSH1 0x0 SWAP1 DUP2 MSTORE PUSH1 0xA DUP3 MSTORE PUSH1 0x40 DUP2 KECCAK256 DUP1 SLOAD PUSH1 0x1 DUP2 DUP2 ADD DUP4 SSTORE SWAP2 DUP4 MSTORE SWAP3 SWAP1 SWAP2 KECCAK256 SWAP1 SWAP2 ADD DUP4 SWAP1 SSTORE PUSH2 0x120 SWAP1 SWAP10 ADD MLOAD PUSH1 0x3 DUP3 ADD SSTORE SWAP1 SWAP8 ADD SWAP7 SWAP1 SWAP7 SSTORE SWAP3 SWAP6 SWAP2 SWAP5 SWAP1 SWAP4 POP SWAP1 JUMP JUMPDEST PUSH1 0x1 DUP1 SLOAD PUSH1 0x0 SWAP2 PUSH1 0x1 PUSH1 0xA0 SHL SWAP1 SWAP2 DIV PUSH1 0xFF AND ISZERO ISZERO EQ PUSH2 0x3A0A JUMPI PUSH1 0x40 MLOAD PUSH3 0x461BCD PUSH1 0xE5 SHL DUP2 MSTORE PUSH1 0x20 PUSH1 0x4 DUP3 ADD MSTORE PUSH1 0x7 PUSH1 0x24 DUP3 ADD MSTORE PUSH7 0x636C6F73696E67 PUSH1 0xC8 SHL PUSH1 0x44 DUP3 ADD MSTORE PUSH1 0x64 ADD PUSH2 0x893 JUMP JUMPDEST PUSH1 0x1 PUSH1 0x1 PUSH1 0xA0 SHL SUB DUP3 AND PUSH1 0x0 SWAP1 DUP2 MSTORE PUSH1 0x7 PUSH1 0x20 MSTORE PUSH1 0x40 SWAP1 DUP2 SWAP1 KECCAK256 PUSH1 0x60 DUP6 ADD MLOAD MLOAD SWAP2 DUP6 ADD MLOAD MLOAD SWAP1 SWAP2 EQ PUSH2 0x3A6D JUMPI PUSH1 0x40 MLOAD PUSH3 0x461BCD PUSH1 0xE5 SHL DUP2 MSTORE PUSH1 0x20 PUSH1 0x4 DUP3 ADD MSTORE PUSH1 0xC PUSH1 0x24 DUP3 ADD MSTORE PUSH12 0x13195B99DD1A0819985A5B19 PUSH1 0xA2 SHL PUSH1 0x44 DUP3 ADD MSTORE PUSH1 0x64 ADD PUSH2 0x893 JUMP JUMPDEST PUSH1 0x1 PUSH1 0x1 PUSH1 0xA0 SHL SUB DUP4 AND PUSH1 0x0 SWAP1 DUP2 MSTORE PUSH1 0xA PUSH1 0x20 SWAP1 DUP2 MSTORE PUSH1 0x40 DUP1 DUP4 KECCAK256 DUP1 SLOAD DUP3 MLOAD DUP2 DUP6 MUL DUP2 ADD DUP6 ADD SWAP1 SWAP4 MSTORE DUP1 DUP4 MSTORE SWAP2 SWAP3 SWAP1 SWAP2 SWAP1 DUP4 ADD DUP3 DUP3 DUP1 ISZERO PUSH2 0x3ACD JUMPI PUSH1 0x20 MUL DUP3 ADD SWAP2 SWAP1 PUSH1 0x0 MSTORE PUSH1 0x20 PUSH1 0x0 KECCAK256 SWAP1 JUMPDEST DUP2 SLOAD DUP2 MSTORE PUSH1 0x20 ADD SWAP1 PUSH1 0x1 ADD SWAP1 DUP1 DUP4 GT PUSH2 0x3AB9 JUMPI JUMPDEST POP POP POP POP PUSH1 0x1 PUSH1 0x1 PUSH1 0xA0 SHL SUB DUP7 AND PUSH1 0x0 SWAP1 DUP2 MSTORE PUSH1 0xB PUSH1 0x20 SWAP1 DUP2 MSTORE PUSH1 0x40 DUP1 DUP4 KECCAK256 DUP1 SLOAD DUP3 MLOAD DUP2 DUP6 MUL DUP2 ADD DUP6 ADD SWAP1 SWAP4 MSTORE DUP1 DUP4 MSTORE SWAP6 SWAP7 POP SWAP3 SWAP5 SWAP1 SWAP4 POP SWAP1 DUP4 ADD DUP3 DUP3 DUP1 ISZERO PUSH2 0x3B35 JUMPI PUSH1 0x20 MUL DUP3 ADD SWAP2 SWAP1 PUSH1 0x0 MSTORE PUSH1 0x20 PUSH1 0x0 KECCAK256 SWAP1 JUMPDEST DUP2 SLOAD DUP2 MSTORE PUSH1 0x20 ADD SWAP1 PUSH1 0x1 ADD SWAP1 DUP1 DUP4 GT PUSH2 0x3B21 JUMPI JUMPDEST POP POP POP POP POP SWAP1 POP PUSH1 0x0 JUMPDEST DUP7 PUSH1 0x40 ADD MLOAD MLOAD DUP2 LT ISZERO PUSH2 0x41B0 JUMPI DUP7 PUSH1 0x80 ADD MLOAD ISZERO PUSH2 0x3E98 JUMPI DUP7 PUSH2 0x100 ADD MLOAD ISZERO PUSH2 0x3E27 JUMPI DUP7 PUSH1 0x40 ADD MLOAD DUP2 DUP2 MLOAD DUP2 LT PUSH2 0x3B77 JUMPI PUSH2 0x3B77 PUSH2 0x5106 JUMP JUMPDEST PUSH1 0x20 MUL PUSH1 0x20 ADD ADD MLOAD PUSH1 0x9 PUSH1 0x0 DUP10 PUSH1 0x20 ADD MLOAD PUSH1 0x1 PUSH1 0x1 PUSH1 0xA0 SHL SUB AND PUSH1 0x1 PUSH1 0x1 PUSH1 0xA0 SHL SUB AND DUP2 MSTORE PUSH1 0x20 ADD SWAP1 DUP2 MSTORE PUSH1 0x20 ADD PUSH1 0x0 KECCAK256 PUSH1 0x0 DUP10 PUSH1 0x60 ADD MLOAD DUP5 DUP2 MLOAD DUP2 LT PUSH2 0x3BC0 JUMPI PUSH2 0x3BC0 PUSH2 0x5106 JUMP JUMPDEST PUSH1 0x20 MUL PUSH1 0x20 ADD ADD MLOAD PUSH1 0x1 PUSH1 0x1 PUSH1 0xA0 SHL SUB AND PUSH1 0x1 PUSH1 0x1 PUSH1 0xA0 SHL SUB AND DUP2 MSTORE PUSH1 0x20 ADD SWAP1 DUP2 MSTORE PUSH1 0x20 ADD PUSH1 0x0 KECCAK256 SLOAD LT ISZERO PUSH2 0x3C48 JUMPI PUSH1 0x40 MLOAD PUSH3 0x461BCD PUSH1 0xE5 SHL DUP2 MSTORE PUSH1 0x20 PUSH1 0x4 DUP3 ADD MSTORE PUSH1 0x3A PUSH1 0x24 DUP3 ADD MSTORE PUSH1 0x0 DUP1 MLOAD PUSH1 0x20 PUSH2 0x555B DUP4 CODECOPY DUP2 MLOAD SWAP2 MSTORE PUSH1 0x44 DUP3 ADD MSTORE PUSH26 0x1D1A1A1BDB191A5B99C81BD9881D1C985919481858D8DBDD5B9D PUSH1 0x32 SHL PUSH1 0x64 DUP3 ADD MSTORE PUSH1 0x84 ADD PUSH2 0x893 JUMP JUMPDEST DUP7 PUSH1 0x40 ADD MLOAD DUP2 DUP2 MLOAD DUP2 LT PUSH2 0x3C5E JUMPI PUSH2 0x3C5E PUSH2 0x5106 JUMP JUMPDEST PUSH1 0x20 MUL PUSH1 0x20 ADD ADD MLOAD DUP5 PUSH1 0x2 ADD PUSH1 0x0 DUP10 PUSH1 0x60 ADD MLOAD DUP5 DUP2 MLOAD DUP2 LT PUSH2 0x3C82 JUMPI PUSH2 0x3C82 PUSH2 0x5106 JUMP JUMPDEST PUSH1 0x20 MUL PUSH1 0x20 ADD ADD MLOAD PUSH1 0x1 PUSH1 0x1 PUSH1 0xA0 SHL SUB AND PUSH1 0x1 PUSH1 0x1 PUSH1 0xA0 SHL SUB AND DUP2 MSTORE PUSH1 0x20 ADD SWAP1 DUP2 MSTORE PUSH1 0x20 ADD PUSH1 0x0 KECCAK256 SLOAD LT ISZERO PUSH2 0x3D0F JUMPI PUSH1 0x40 MLOAD PUSH3 0x461BCD PUSH1 0xE5 SHL DUP2 MSTORE PUSH1 0x20 PUSH1 0x4 DUP3 ADD MSTORE PUSH1 0x2D PUSH1 0x24 DUP3 ADD MSTORE PUSH32 0x7472616E736665724F6646756E64733A20496E73756666696369656E74206361 PUSH1 0x44 DUP3 ADD MSTORE PUSH13 0x1C1A5D185B081858D8DBDD5B9D PUSH1 0x9A SHL PUSH1 0x64 DUP3 ADD MSTORE PUSH1 0x84 ADD PUSH2 0x893 JUMP JUMPDEST DUP7 PUSH1 0x40 ADD MLOAD DUP2 DUP2 MLOAD DUP2 LT PUSH2 0x3D25 JUMPI PUSH2 0x3D25 PUSH2 0x5106 JUMP JUMPDEST PUSH1 0x20 MUL PUSH1 0x20 ADD ADD MLOAD PUSH1 0x9 PUSH1 0x0 DUP10 PUSH1 0x20 ADD MLOAD PUSH1 0x1 PUSH1 0x1 PUSH1 0xA0 SHL SUB AND PUSH1 0x1 PUSH1 0x1 PUSH1 0xA0 SHL SUB AND DUP2 MSTORE PUSH1 0x20 ADD SWAP1 DUP2 MSTORE PUSH1 0x20 ADD PUSH1 0x0 KECCAK256 PUSH1 0x0 DUP10 PUSH1 0x60 ADD MLOAD DUP5 DUP2 MLOAD DUP2 LT PUSH2 0x3D6E JUMPI PUSH2 0x3D6E PUSH2 0x5106 JUMP JUMPDEST PUSH1 0x20 MUL PUSH1 0x20 ADD ADD MLOAD PUSH1 0x1 PUSH1 0x1 PUSH1 0xA0 SHL SUB AND PUSH1 0x1 PUSH1 0x1 PUSH1 0xA0 SHL SUB AND DUP2 MSTORE PUSH1 0x20 ADD SWAP1 DUP2 MSTORE PUSH1 0x20 ADD PUSH1 0x0 KECCAK256 PUSH1 0x0 DUP3 DUP3 SLOAD PUSH2 0x3DA5 SWAP2 SWAP1 PUSH2 0x51F0 JUMP JUMPDEST SWAP1 SWAP2 SSTORE POP POP PUSH1 0x40 DUP8 ADD MLOAD DUP1 MLOAD DUP3 SWAP1 DUP2 LT PUSH2 0x3DC1 JUMPI PUSH2 0x3DC1 PUSH2 0x5106 JUMP JUMPDEST PUSH1 0x20 MUL PUSH1 0x20 ADD ADD MLOAD DUP5 PUSH1 0x2 ADD PUSH1 0x0 DUP10 PUSH1 0x60 ADD MLOAD DUP5 DUP2 MLOAD DUP2 LT PUSH2 0x3DE5 JUMPI PUSH2 0x3DE5 PUSH2 0x5106 JUMP JUMPDEST PUSH1 0x20 MUL PUSH1 0x20 ADD ADD MLOAD PUSH1 0x1 PUSH1 0x1 PUSH1 0xA0 SHL SUB AND PUSH1 0x1 PUSH1 0x1 PUSH1 0xA0 SHL SUB AND DUP2 MSTORE PUSH1 0x20 ADD SWAP1 DUP2 MSTORE PUSH1 0x20 ADD PUSH1 0x0 KECCAK256 PUSH1 0x0 DUP3 DUP3 SLOAD PUSH2 0x3E1C SWAP2 SWAP1 PUSH2 0x51F0 JUMP JUMPDEST SWAP1 SWAP2 SSTORE POP PUSH2 0x419E SWAP1 POP JUMP JUMPDEST DUP7 PUSH1 0x40 ADD MLOAD DUP2 DUP2 MLOAD DUP2 LT PUSH2 0x3E3D JUMPI PUSH2 0x3E3D PUSH2 0x5106 JUMP JUMPDEST PUSH1 0x20 MUL PUSH1 0x20 ADD ADD MLOAD DUP5 PUSH1 0x2 ADD PUSH1 0x0 DUP10 PUSH1 0x60 ADD MLOAD DUP5 DUP2 MLOAD DUP2 LT PUSH2 0x3E61 JUMPI PUSH2 0x3E61 PUSH2 0x5106 JUMP JUMPDEST PUSH1 0x20 MUL PUSH1 0x20 ADD ADD MLOAD PUSH1 0x1 PUSH1 0x1 PUSH1 0xA0 SHL SUB AND PUSH1 0x1 PUSH1 0x1 PUSH1 0xA0 SHL SUB AND DUP2 MSTORE PUSH1 0x20 ADD SWAP1 DUP2 MSTORE PUSH1 0x20 ADD PUSH1 0x0 KECCAK256 PUSH1 0x0 DUP3 DUP3 SLOAD PUSH2 0x3E1C SWAP2 SWAP1 PUSH2 0x52F5 JUMP JUMPDEST DUP7 PUSH2 0x100 ADD MLOAD ISZERO PUSH2 0x4127 JUMPI DUP7 PUSH1 0x40 ADD MLOAD DUP2 DUP2 MLOAD DUP2 LT PUSH2 0x3EB9 JUMPI PUSH2 0x3EB9 PUSH2 0x5106 JUMP JUMPDEST PUSH1 0x20 MUL PUSH1 0x20 ADD ADD MLOAD PUSH1 0x8 PUSH1 0x0 DUP10 PUSH1 0x20 ADD MLOAD PUSH1 0x1 PUSH1 0x1 PUSH1 0xA0 SHL SUB AND PUSH1 0x1 PUSH1 0x1 PUSH1 0xA0 SHL SUB AND DUP2 MSTORE PUSH1 0x20 ADD SWAP1 DUP2 MSTORE PUSH1 0x20 ADD PUSH1 0x0 KECCAK256 PUSH1 0x0 DUP10 PUSH1 0x60 ADD MLOAD DUP5 DUP2 MLOAD DUP2 LT PUSH2 0x3F02 JUMPI PUSH2 0x3F02 PUSH2 0x5106 JUMP JUMPDEST PUSH1 0x20 MUL PUSH1 0x20 ADD ADD MLOAD PUSH1 0x1 PUSH1 0x1 PUSH1 0xA0 SHL SUB AND PUSH1 0x1 PUSH1 0x1 PUSH1 0xA0 SHL SUB AND DUP2 MSTORE PUSH1 0x20 ADD SWAP1 DUP2 MSTORE PUSH1 0x20 ADD PUSH1 0x0 KECCAK256 SLOAD LT ISZERO PUSH2 0x3F8C JUMPI PUSH1 0x40 MLOAD PUSH3 0x461BCD PUSH1 0xE5 SHL DUP2 MSTORE PUSH1 0x20 PUSH1 0x4 DUP3 ADD MSTORE PUSH1 0x3C PUSH1 0x24 DUP3 ADD MSTORE PUSH1 0x0 DUP1 MLOAD PUSH1 0x20 PUSH2 0x555B DUP4 CODECOPY DUP2 MLOAD SWAP2 MSTORE PUSH1 0x44 DUP3 ADD MSTORE PUSH28 0x1D1A1A1BDB191A5B99C81BD98818D85C1A5D185B081858D8DBDD5B9D PUSH1 0x22 SHL PUSH1 0x64 DUP3 ADD MSTORE PUSH1 0x84 ADD PUSH2 0x893 JUMP JUMPDEST DUP7 PUSH1 0x40 ADD MLOAD DUP2 DUP2 MLOAD DUP2 LT PUSH2 0x3FA2 JUMPI PUSH2 0x3FA2 PUSH2 0x5106 JUMP JUMPDEST PUSH1 0x20 MUL PUSH1 0x20 ADD ADD MLOAD DUP5 PUSH1 0x5 ADD PUSH1 0x0 DUP10 PUSH1 0x60 ADD MLOAD DUP5 DUP2 MLOAD DUP2 LT PUSH2 0x3FC6 JUMPI PUSH2 0x3FC6 PUSH2 0x5106 JUMP JUMPDEST PUSH1 0x20 MUL PUSH1 0x20 ADD ADD MLOAD PUSH1 0x1 PUSH1 0x1 PUSH1 0xA0 SHL SUB AND PUSH1 0x1 PUSH1 0x1 PUSH1 0xA0 SHL SUB AND DUP2 MSTORE PUSH1 0x20 ADD SWAP1 DUP2 MSTORE PUSH1 0x20 ADD PUSH1 0x0 KECCAK256 SLOAD LT ISZERO PUSH2 0x4051 JUMPI PUSH1 0x40 MLOAD PUSH3 0x461BCD PUSH1 0xE5 SHL DUP2 MSTORE PUSH1 0x20 PUSH1 0x4 DUP3 ADD MSTORE PUSH1 0x2B PUSH1 0x24 DUP3 ADD MSTORE PUSH32 0x7472616E736665724F6646756E64733A20496E73756666696369656E74207472 PUSH1 0x44 DUP3 ADD MSTORE PUSH11 0x185919481858D8DBDD5B9D PUSH1 0xAA SHL PUSH1 0x64 DUP3 ADD MSTORE PUSH1 0x84 ADD PUSH2 0x893 JUMP JUMPDEST DUP7 PUSH1 0x40 ADD MLOAD DUP2 DUP2 MLOAD DUP2 LT PUSH2 0x4067 JUMPI PUSH2 0x4067 PUSH2 0x5106 JUMP JUMPDEST PUSH1 0x20 MUL PUSH1 0x20 ADD ADD MLOAD PUSH1 0x8 PUSH1 0x0 DUP10 PUSH1 0x20 ADD MLOAD PUSH1 0x1 PUSH1 0x1 PUSH1 0xA0 SHL SUB AND PUSH1 0x1 PUSH1 0x1 PUSH1 0xA0 SHL SUB AND DUP2 MSTORE PUSH1 0x20 ADD SWAP1 DUP2 MSTORE PUSH1 0x20 ADD PUSH1 0x0 KECCAK256 PUSH1 0x0 DUP10 PUSH1 0x60 ADD MLOAD DUP5 DUP2 MLOAD DUP2 LT PUSH2 0x40B0 JUMPI PUSH2 0x40B0 PUSH2 0x5106 JUMP JUMPDEST PUSH1 0x20 MUL PUSH1 0x20 ADD ADD MLOAD PUSH1 0x1 PUSH1 0x1 PUSH1 0xA0 SHL SUB AND PUSH1 0x1 PUSH1 0x1 PUSH1 0xA0 SHL SUB AND DUP2 MSTORE PUSH1 0x20 ADD SWAP1 DUP2 MSTORE PUSH1 0x20 ADD PUSH1 0x0 KECCAK256 PUSH1 0x0 DUP3 DUP3 SLOAD PUSH2 0x40E7 SWAP2 SWAP1 PUSH2 0x51F0 JUMP JUMPDEST SWAP1 SWAP2 SSTORE POP POP PUSH1 0x40 DUP8 ADD MLOAD DUP1 MLOAD DUP3 SWAP1 DUP2 LT PUSH2 0x4103 JUMPI PUSH2 0x4103 PUSH2 0x5106 JUMP JUMPDEST PUSH1 0x20 MUL PUSH1 0x20 ADD ADD MLOAD DUP5 PUSH1 0x5 ADD PUSH1 0x0 DUP10 PUSH1 0x60 ADD MLOAD DUP5 DUP2 MLOAD DUP2 LT PUSH2 0x3DE5 JUMPI PUSH2 0x3DE5 PUSH2 0x5106 JUMP JUMPDEST DUP7 PUSH1 0x40 ADD MLOAD DUP2 DUP2 MLOAD DUP2 LT PUSH2 0x413D JUMPI PUSH2 0x413D PUSH2 0x5106 JUMP JUMPDEST PUSH1 0x20 MUL PUSH1 0x20 ADD ADD MLOAD DUP5 PUSH1 0x5 ADD PUSH1 0x0 DUP10 PUSH1 0x60 ADD MLOAD DUP5 DUP2 MLOAD DUP2 LT PUSH2 0x4161 JUMPI PUSH2 0x4161 PUSH2 0x5106 JUMP JUMPDEST PUSH1 0x20 MUL PUSH1 0x20 ADD ADD MLOAD PUSH1 0x1 PUSH1 0x1 PUSH1 0xA0 SHL SUB AND PUSH1 0x1 PUSH1 0x1 PUSH1 0xA0 SHL SUB AND DUP2 MSTORE PUSH1 0x20 ADD SWAP1 DUP2 MSTORE PUSH1 0x20 ADD PUSH1 0x0 KECCAK256 PUSH1 0x0 DUP3 DUP3 SLOAD PUSH2 0x4198 SWAP2 SWAP1 PUSH2 0x52F5 JUMP JUMPDEST SWAP1 SWAP2 SSTORE POP POP JUMPDEST DUP1 PUSH2 0x41A8 DUP2 PUSH2 0x5132 JUMP JUMPDEST SWAP2 POP POP PUSH2 0x3B3F JUMP JUMPDEST POP DUP6 PUSH1 0x80 ADD MLOAD ISZERO PUSH2 0x428B JUMPI PUSH1 0x3 DUP4 ADD SLOAD PUSH2 0x41CB SWAP1 PUSH1 0x1 PUSH2 0x52F5 JUMP JUMPDEST DUP7 PUSH2 0x120 ADD MLOAD EQ PUSH2 0x41EE JUMPI PUSH1 0x40 MLOAD PUSH3 0x461BCD PUSH1 0xE5 SHL DUP2 MSTORE PUSH1 0x4 ADD PUSH2 0x893 SWAP1 PUSH2 0x54EC JUMP JUMPDEST DUP2 MLOAD ISZERO PUSH2 0x4231 JUMPI PUSH2 0x422A DUP3 PUSH1 0x1 DUP5 MLOAD PUSH2 0x4207 SWAP2 SWAP1 PUSH2 0x51F0 JUMP JUMPDEST DUP2 MLOAD DUP2 LT PUSH2 0x4217 JUMPI PUSH2 0x4217 PUSH2 0x5106 JUMP JUMPDEST PUSH1 0x20 MUL PUSH1 0x20 ADD ADD MLOAD DUP8 PUSH2 0x160 ADD MLOAD PUSH2 0x1BE8 JUMP JUMPDEST SWAP4 POP PUSH2 0x4244 JUMP JUMPDEST PUSH2 0x160 DUP7 ADD MLOAD PUSH2 0x4241 SWAP1 DUP1 PUSH2 0x1BE8 JUMP JUMPDEST SWAP4 POP JUMPDEST PUSH1 0x20 DUP1 DUP8 ADD MLOAD PUSH1 0x1 PUSH1 0x1 PUSH1 0xA0 SHL SUB AND PUSH1 0x0 SWAP1 DUP2 MSTORE PUSH1 0xA DUP3 MSTORE PUSH1 0x40 DUP2 KECCAK256 DUP1 SLOAD PUSH1 0x1 DUP2 DUP2 ADD DUP4 SSTORE SWAP2 DUP4 MSTORE SWAP3 SWAP1 SWAP2 KECCAK256 SWAP1 SWAP2 ADD DUP6 SWAP1 SSTORE PUSH2 0x120 DUP8 ADD MLOAD PUSH1 0x3 DUP6 ADD SSTORE DUP4 ADD DUP5 SWAP1 SSTORE PUSH2 0x13E9 JUMP JUMPDEST PUSH1 0x6 DUP4 ADD SLOAD PUSH2 0x429B SWAP1 PUSH1 0x1 PUSH2 0x52F5 JUMP JUMPDEST DUP7 PUSH2 0x120 ADD MLOAD EQ PUSH2 0x42BE JUMPI PUSH1 0x40 MLOAD PUSH3 0x461BCD PUSH1 0xE5 SHL DUP2 MSTORE PUSH1 0x4 ADD PUSH2 0x893 SWAP1 PUSH2 0x53E8 JUMP JUMPDEST DUP1 MLOAD ISZERO PUSH2 0x42DE JUMPI PUSH2 0x42D7 DUP2 PUSH1 0x1 DUP4 MLOAD PUSH2 0x4207 SWAP2 SWAP1 PUSH2 0x51F0 JUMP JUMPDEST SWAP4 POP PUSH2 0x42F1 JUMP JUMPDEST PUSH2 0x160 DUP7 ADD MLOAD PUSH2 0x42EE SWAP1 DUP1 PUSH2 0x1BE8 JUMP JUMPDEST SWAP4 POP JUMPDEST PUSH1 0x20 DUP1 DUP8 ADD MLOAD PUSH1 0x1 PUSH1 0x1 PUSH1 0xA0 SHL SUB AND PUSH1 0x0 SWAP1 DUP2 MSTORE PUSH1 0xB DUP3 MSTORE PUSH1 0x40 DUP2 KECCAK256 DUP1 SLOAD PUSH1 0x1 DUP2 ADD DUP3 SSTORE SWAP1 DUP3 MSTORE SWAP2 SWAP1 KECCAK256 ADD DUP5 SWAP1 SSTORE PUSH2 0x120 DUP7 ADD MLOAD PUSH1 0x6 DUP5 ADD SSTORE PUSH1 0x4 DUP4 ADD DUP5 SWAP1 SSTORE POP POP POP POP POP POP JUMP JUMPDEST PUSH1 0x1 DUP1 SLOAD PUSH1 0x1 PUSH1 0x1 PUSH1 0xA0 SHL SUB NOT AND SWAP1 SSTORE PUSH2 0x126E DUP2 PUSH2 0x1CE1 JUMP JUMPDEST PUSH1 0x0 DUP1 PUSH1 0x0 DUP4 MLOAD PUSH1 0x41 EQ PUSH2 0x43A8 JUMPI PUSH1 0x40 MLOAD PUSH3 0x461BCD PUSH1 0xE5 SHL DUP2 MSTORE PUSH1 0x20 PUSH1 0x4 DUP3 ADD MSTORE PUSH1 0x1F PUSH1 0x24 DUP3 ADD MSTORE PUSH32 0x45434453413A20696E76616C6964207369676E6174757265206C656E67746800 PUSH1 0x44 DUP3 ADD MSTORE PUSH1 0x64 ADD PUSH2 0x893 JUMP JUMPDEST POP POP POP PUSH1 0x20 DUP2 ADD MLOAD PUSH1 0x40 DUP3 ADD MLOAD PUSH1 0x60 SWAP1 SWAP3 ADD MLOAD PUSH1 0x0 BYTE SWAP3 SWAP1 SWAP2 SWAP1 JUMP JUMPDEST PUSH2 0x232D DUP3 DUP3 PUSH2 0x4564 JUMP JUMPDEST PUSH1 0x1 PUSH1 0x1 PUSH1 0xA0 SHL SUB DUP3 AND PUSH1 0x0 SWAP1 DUP2 MSTORE PUSH1 0x12 PUSH1 0x20 MSTORE PUSH1 0x40 SWAP1 KECCAK256 SLOAD PUSH1 0xFF AND ISZERO PUSH2 0x440B JUMPI PUSH1 0x1 PUSH1 0x1 PUSH1 0xA0 SHL SUB DUP3 AND PUSH1 0x0 SWAP1 DUP2 MSTORE PUSH1 0x11 PUSH1 0x20 MSTORE PUSH1 0x40 SWAP1 KECCAK256 DUP2 SWAP1 SSTORE JUMPDEST POP PUSH1 0x10 DUP1 SLOAD PUSH1 0x1 DUP2 DUP2 ADD SWAP1 SWAP3 SSTORE PUSH32 0x1B6847DC741A1B0CD08D278845F9D819D87B734759AFB55FE2DE5CB82A9AE672 ADD DUP1 SLOAD PUSH1 0x1 PUSH1 0x1 PUSH1 0xA0 SHL SUB SWAP1 SWAP4 AND PUSH1 0x1 PUSH1 0x1 PUSH1 0xA0 SHL SUB NOT SWAP1 SWAP4 AND DUP4 OR SWAP1 SSTORE PUSH1 0x0 SWAP2 DUP3 MSTORE PUSH1 0x12 PUSH1 0x20 MSTORE PUSH1 0x40 SWAP1 SWAP2 KECCAK256 DUP1 SLOAD PUSH1 0xFF NOT AND SWAP1 SWAP2 OR SWAP1 SSTORE JUMP JUMPDEST PUSH1 0x1 PUSH1 0x1 PUSH1 0xA0 SHL SUB DUP3 AND PUSH1 0x0 SWAP1 DUP2 MSTORE PUSH1 0xE PUSH1 0x20 MSTORE PUSH1 0x40 DUP2 KECCAK256 SLOAD PUSH1 0xFF AND ISZERO ISZERO SWAP1 SUB PUSH2 0x44EB JUMPI PUSH1 0x1 PUSH1 0x1 PUSH1 0xA0 SHL SUB DUP3 AND PUSH1 0x0 DUP2 DUP2 MSTORE PUSH1 0xE PUSH1 0x20 MSTORE PUSH1 0x40 DUP2 KECCAK256 DUP1 SLOAD PUSH1 0xFF NOT AND PUSH1 0x1 SWAP1 DUP2 OR SWAP1 SWAP2 SSTORE PUSH1 0x2 DUP1 SLOAD SWAP2 DUP3 ADD DUP2 SSTORE SWAP1 SWAP2 MSTORE PUSH1 0x0 DUP1 MLOAD PUSH1 0x20 PUSH2 0x553B DUP4 CODECOPY DUP2 MLOAD SWAP2 MSTORE ADD DUP1 SLOAD PUSH1 0x1 PUSH1 0x1 PUSH1 0xA0 SHL SUB NOT AND SWAP1 SWAP2 OR SWAP1 SSTORE JUMPDEST PUSH1 0x1 PUSH1 0x1 PUSH1 0xA0 SHL SUB DUP2 AND PUSH1 0x0 SWAP1 DUP2 MSTORE PUSH1 0xE PUSH1 0x20 MSTORE PUSH1 0x40 DUP2 KECCAK256 SLOAD PUSH1 0xFF AND ISZERO ISZERO SWAP1 SUB PUSH2 0x232D JUMPI PUSH1 0x1 PUSH1 0x1 PUSH1 0xA0 SHL SUB AND PUSH1 0x0 DUP2 DUP2 MSTORE PUSH1 0xE PUSH1 0x20 MSTORE PUSH1 0x40 DUP2 KECCAK256 DUP1 SLOAD PUSH1 0xFF NOT AND PUSH1 0x1 SWAP1 DUP2 OR SWAP1 SWAP2 SSTORE PUSH1 0x2 DUP1 SLOAD SWAP2 DUP3 ADD DUP2 SSTORE SWAP1 SWAP2 MSTORE PUSH1 0x0 DUP1 MLOAD PUSH1 0x20 PUSH2 0x553B DUP4 CODECOPY DUP2 MLOAD SWAP2 MSTORE ADD DUP1 SLOAD PUSH1 0x1 PUSH1 0x1 PUSH1 0xA0 SHL SUB NOT AND SWAP1 SWAP2 OR SWAP1 SSTORE POP JUMP JUMPDEST PUSH2 0x456E DUP3 DUP3 PUSH2 0x12E0 JUMP JUMPDEST PUSH2 0x232D JUMPI PUSH1 0x0 DUP3 DUP2 MSTORE PUSH1 0x5 PUSH1 0x20 SWAP1 DUP2 MSTORE PUSH1 0x40 DUP1 DUP4 KECCAK256 PUSH1 0x1 PUSH1 0x1 PUSH1 0xA0 SHL SUB DUP6 AND DUP5 MSTORE SWAP1 SWAP2 MSTORE SWAP1 KECCAK256 DUP1 SLOAD PUSH1 0xFF NOT AND PUSH1 0x1 OR SWAP1 SSTORE POP POP JUMP JUMPDEST DUP1 ISZERO ISZERO DUP2 EQ PUSH2 0x126E JUMPI PUSH1 0x0 DUP1 REVERT JUMPDEST DUP1 CALLDATALOAD PUSH2 0x45BC DUP2 PUSH2 0x45A3 JUMP JUMPDEST SWAP2 SWAP1 POP JUMP JUMPDEST PUSH1 0x0 PUSH1 0x20 DUP3 DUP5 SUB SLT ISZERO PUSH2 0x45D3 JUMPI PUSH1 0x0 DUP1 REVERT JUMPDEST DUP2 CALLDATALOAD PUSH2 0x45DE DUP2 PUSH2 0x45A3 JUMP JUMPDEST SWAP4 SWAP3 POP POP POP JUMP JUMPDEST DUP1 CALLDATALOAD PUSH1 0x1 PUSH1 0x1 PUSH1 0xA0 SHL SUB DUP2 AND DUP2 EQ PUSH2 0x45BC JUMPI PUSH1 0x0 DUP1 REVERT JUMPDEST PUSH1 0x0 PUSH1 0x20 DUP3 DUP5 SUB SLT ISZERO PUSH2 0x460E JUMPI PUSH1 0x0 DUP1 REVERT JUMPDEST PUSH2 0x45DE DUP3 PUSH2 0x45E5 JUMP JUMPDEST PUSH4 0x4E487B71 PUSH1 0xE0 SHL PUSH1 0x0 MSTORE PUSH1 0x41 PUSH1 0x4 MSTORE PUSH1 0x24 PUSH1 0x0 REVERT JUMPDEST PUSH1 0x40 MLOAD PUSH1 0x20 DUP2 ADD PUSH1 0x1 PUSH1 0x1 PUSH1 0x40 SHL SUB DUP2 GT DUP3 DUP3 LT OR ISZERO PUSH2 0x464F JUMPI PUSH2 0x464F PUSH2 0x4617 JUMP JUMPDEST PUSH1 0x40 MSTORE SWAP1 JUMP JUMPDEST PUSH1 0x40 MLOAD PUSH2 0x1A0 DUP2 ADD PUSH1 0x1 PUSH1 0x1 PUSH1 0x40 SHL SUB DUP2 GT DUP3 DUP3 LT OR ISZERO PUSH2 0x464F JUMPI PUSH2 0x464F PUSH2 0x4617 JUMP JUMPDEST PUSH1 0x40 MLOAD PUSH2 0x100 DUP2 ADD PUSH1 0x1 PUSH1 0x1 PUSH1 0x40 SHL SUB DUP2 GT DUP3 DUP3 LT OR ISZERO PUSH2 0x464F JUMPI PUSH2 0x464F PUSH2 0x4617 JUMP JUMPDEST PUSH1 0x40 MLOAD PUSH1 0x1F DUP3 ADD PUSH1 0x1F NOT AND DUP2 ADD PUSH1 0x1 PUSH1 0x1 PUSH1 0x40 SHL SUB DUP2 GT DUP3 DUP3 LT OR ISZERO PUSH2 0x46C3 JUMPI PUSH2 0x46C3 PUSH2 0x4617 JUMP JUMPDEST PUSH1 0x40 MSTORE SWAP2 SWAP1 POP JUMP JUMPDEST PUSH1 0x0 PUSH1 0x1 PUSH1 0x1 PUSH1 0x40 SHL SUB DUP3 GT ISZERO PUSH2 0x46E4 JUMPI PUSH2 0x46E4 PUSH2 0x4617 JUMP JUMPDEST POP PUSH1 0x5 SHL PUSH1 0x20 ADD SWAP1 JUMP JUMPDEST PUSH1 0x0 DUP3 PUSH1 0x1F DUP4 ADD SLT PUSH2 0x46FF JUMPI PUSH1 0x0 DUP1 REVERT JUMPDEST DUP2 CALLDATALOAD PUSH1 0x1 PUSH1 0x1 PUSH1 0x40 SHL SUB DUP2 GT ISZERO PUSH2 0x4718 JUMPI PUSH2 0x4718 PUSH2 0x4617 JUMP JUMPDEST PUSH2 0x472B PUSH1 0x1F DUP3 ADD PUSH1 0x1F NOT AND PUSH1 0x20 ADD PUSH2 0x469B JUMP JUMPDEST DUP2 DUP2 MSTORE DUP5 PUSH1 0x20 DUP4 DUP7 ADD ADD GT ISZERO PUSH2 0x4740 JUMPI PUSH1 0x0 DUP1 REVERT JUMPDEST DUP2 PUSH1 0x20 DUP6 ADD PUSH1 0x20 DUP4 ADD CALLDATACOPY PUSH1 0x0 SWAP2 DUP2 ADD PUSH1 0x20 ADD SWAP2 SWAP1 SWAP2 MSTORE SWAP4 SWAP3 POP POP POP JUMP JUMPDEST PUSH1 0x0 PUSH1 0x20 DUP3 DUP5 SUB SLT ISZERO PUSH2 0x476F JUMPI PUSH1 0x0 DUP1 REVERT JUMPDEST PUSH1 0x1 PUSH1 0x1 PUSH1 0x40 SHL SUB DUP3 CALLDATALOAD GT ISZERO PUSH2 0x4784 JUMPI PUSH1 0x0 DUP1 REVERT JUMPDEST DUP2 CALLDATALOAD DUP3 ADD DUP4 PUSH1 0x1F DUP3 ADD SLT PUSH2 0x4797 JUMPI PUSH1 0x0 DUP1 REVERT JUMPDEST PUSH2 0x47A9 PUSH2 0x47A4 DUP3 CALLDATALOAD PUSH2 0x46CB JUMP JUMPDEST PUSH2 0x469B JUMP JUMPDEST DUP2 CALLDATALOAD DUP1 DUP3 MSTORE PUSH1 0x20 DUP1 DUP4 ADD SWAP3 SWAP2 PUSH1 0x5 SHL DUP5 ADD ADD DUP7 LT ISZERO PUSH2 0x47C7 JUMPI PUSH1 0x0 DUP1 REVERT JUMPDEST PUSH1 0x20 DUP4 ADD JUMPDEST PUSH1 0x20 DUP5 CALLDATALOAD PUSH1 0x5 SHL DUP6 ADD ADD DUP2 LT ISZERO PUSH2 0x49E9 JUMPI PUSH1 0x1 PUSH1 0x1 PUSH1 0x40 SHL SUB DUP2 CALLDATALOAD GT ISZERO PUSH2 0x47F2 JUMPI PUSH1 0x0 DUP1 REVERT JUMPDEST PUSH1 0x20 DUP2 CALLDATALOAD DUP6 ADD DUP9 SUB PUSH1 0x1F NOT ADD SLT ISZERO PUSH2 0x4809 JUMPI PUSH1 0x0 DUP1 REVERT JUMPDEST PUSH2 0x4811 PUSH2 0x462D JUMP JUMPDEST PUSH1 0x1 PUSH1 0x1 PUSH1 0x40 SHL SUB DUP3 CALLDATALOAD DUP7 ADD PUSH1 0x20 ADD CALLDATALOAD GT ISZERO PUSH2 0x482C JUMPI PUSH1 0x0 DUP1 REVERT JUMPDEST DUP2 CALLDATALOAD DUP6 ADD PUSH1 0x20 DUP2 ADD CALLDATALOAD ADD PUSH1 0x3F DUP2 ADD DUP10 SGT PUSH2 0x4845 JUMPI PUSH1 0x0 DUP1 REVERT JUMPDEST PUSH2 0x4855 PUSH2 0x47A4 PUSH1 0x20 DUP4 ADD CALLDATALOAD PUSH2 0x46CB JUMP JUMPDEST PUSH1 0x20 DUP3 DUP2 ADD CALLDATALOAD DUP1 DUP4 MSTORE SWAP1 DUP3 ADD SWAP2 SWAP1 PUSH1 0x5 SHL DUP4 ADD PUSH1 0x40 ADD DUP12 LT ISZERO PUSH2 0x4877 JUMPI PUSH1 0x0 DUP1 REVERT JUMPDEST PUSH1 0x40 DUP4 ADD JUMPDEST PUSH1 0x40 PUSH1 0x20 DUP6 ADD CALLDATALOAD PUSH1 0x5 SHL DUP6 ADD ADD DUP2 LT ISZERO PUSH2 0x49D6 JUMPI PUSH1 0x1 PUSH1 0x1 PUSH1 0x40 SHL SUB DUP2 CALLDATALOAD GT ISZERO PUSH2 0x48A5 JUMPI PUSH1 0x0 DUP1 REVERT JUMPDEST DUP1 CALLDATALOAD DUP5 ADD PUSH2 0x1A0 DUP2 DUP15 SUB PUSH1 0x3F NOT ADD SLT ISZERO PUSH2 0x48BE JUMPI PUSH1 0x0 DUP1 REVERT JUMPDEST PUSH2 0x48C6 PUSH2 0x4655 JUMP JUMPDEST PUSH1 0x1 PUSH1 0x1 PUSH1 0x40 SHL SUB PUSH1 0x40 DUP4 ADD CALLDATALOAD GT ISZERO PUSH2 0x48DE JUMPI PUSH1 0x0 DUP1 REVERT JUMPDEST PUSH2 0x48F0 DUP15 PUSH1 0x40 DUP1 DUP6 ADD CALLDATALOAD DUP6 ADD ADD PUSH2 0x46EE JUMP JUMPDEST DUP2 MSTORE PUSH2 0x48FE PUSH1 0x60 DUP4 ADD PUSH2 0x45E5 JUMP JUMPDEST PUSH1 0x20 DUP3 ADD MSTORE PUSH1 0x80 DUP3 ADD CALLDATALOAD PUSH1 0x40 DUP3 ADD MSTORE PUSH2 0x4919 PUSH1 0xA0 DUP4 ADD PUSH2 0x45E5 JUMP JUMPDEST PUSH1 0x60 DUP3 ADD MSTORE PUSH2 0x492A PUSH1 0xC0 DUP4 ADD PUSH2 0x45B1 JUMP JUMPDEST PUSH1 0x80 DUP3 ADD MSTORE PUSH1 0xE0 DUP3 ADD CALLDATALOAD PUSH1 0xA0 DUP3 ADD MSTORE PUSH2 0x4946 PUSH2 0x100 DUP4 ADD PUSH2 0x45E5 JUMP JUMPDEST PUSH1 0xC0 DUP3 ADD MSTORE PUSH2 0x4958 PUSH2 0x120 DUP4 ADD PUSH2 0x45B1 JUMP JUMPDEST PUSH1 0xE0 DUP3 ADD MSTORE PUSH2 0x140 DUP3 ADD CALLDATALOAD PUSH2 0x100 DUP3 ADD MSTORE PUSH2 0x4976 PUSH2 0x160 DUP4 ADD PUSH2 0x45E5 JUMP JUMPDEST PUSH2 0x120 DUP3 ADD MSTORE PUSH2 0x180 DUP3 ADD CALLDATALOAD PUSH2 0x140 DUP3 ADD MSTORE PUSH2 0x1A0 DUP3 ADD CALLDATALOAD PUSH2 0x160 DUP3 ADD MSTORE PUSH1 0x1 PUSH1 0x1 PUSH1 0x40 SHL SUB PUSH2 0x1C0 DUP4 ADD CALLDATALOAD GT ISZERO PUSH2 0x49AD JUMPI PUSH1 0x0 DUP1 REVERT JUMPDEST PUSH2 0x49C1 DUP15 PUSH1 0x40 PUSH2 0x1C0 DUP6 ADD CALLDATALOAD DUP6 ADD ADD PUSH2 0x46EE JUMP JUMPDEST PUSH2 0x180 DUP3 ADD MSTORE DUP5 MSTORE POP PUSH1 0x20 SWAP3 DUP4 ADD SWAP3 ADD PUSH2 0x487C JUMP JUMPDEST POP DUP4 MSTORE POP POP DUP4 MSTORE PUSH1 0x20 SWAP3 DUP4 ADD SWAP3 ADD PUSH2 0x47CC JUMP JUMPDEST POP SWAP6 SWAP5 POP POP POP POP POP JUMP JUMPDEST PUSH1 0x1 PUSH1 0x1 PUSH1 0xA0 SHL SUB SWAP2 SWAP1 SWAP2 AND DUP2 MSTORE PUSH1 0x20 ADD SWAP1 JUMP JUMPDEST PUSH1 0x0 DUP1 PUSH1 0x0 DUP1 PUSH1 0x0 PUSH1 0xA0 DUP7 DUP9 SUB SLT ISZERO PUSH2 0x4A1F JUMPI PUSH1 0x0 DUP1 REVERT JUMPDEST PUSH2 0x4A28 DUP7 PUSH2 0x45E5 JUMP JUMPDEST SWAP5 POP PUSH1 0x20 DUP7 ADD CALLDATALOAD PUSH2 0x4A38 DUP2 PUSH2 0x45A3 JUMP JUMPDEST SWAP4 POP PUSH2 0x4A46 PUSH1 0x40 DUP8 ADD PUSH2 0x45E5 JUMP JUMPDEST SWAP3 POP PUSH1 0x60 DUP7 ADD CALLDATALOAD SWAP2 POP PUSH1 0x80 DUP7 ADD CALLDATALOAD PUSH1 0x1 PUSH1 0x1 PUSH1 0x40 SHL SUB DUP2 GT ISZERO PUSH2 0x4A68 JUMPI PUSH1 0x0 DUP1 REVERT JUMPDEST PUSH2 0x4A74 DUP9 DUP3 DUP10 ADD PUSH2 0x46EE JUMP JUMPDEST SWAP2 POP POP SWAP3 SWAP6 POP SWAP3 SWAP6 SWAP1 SWAP4 POP JUMP JUMPDEST PUSH1 0x0 DUP2 MLOAD DUP1 DUP5 MSTORE PUSH1 0x20 DUP1 DUP6 ADD SWAP5 POP DUP1 DUP5 ADD PUSH1 0x0 JUMPDEST DUP4 DUP2 LT ISZERO PUSH2 0x4ABA JUMPI DUP2 MLOAD PUSH1 0x1 PUSH1 0x1 PUSH1 0xA0 SHL SUB AND DUP8 MSTORE SWAP6 DUP3 ADD SWAP6 SWAP1 DUP3 ADD SWAP1 PUSH1 0x1 ADD PUSH2 0x4A95 JUMP JUMPDEST POP SWAP5 SWAP6 SWAP5 POP POP POP POP POP JUMP JUMPDEST PUSH1 0x20 DUP2 MSTORE PUSH1 0x0 PUSH2 0x45DE PUSH1 0x20 DUP4 ADD DUP5 PUSH2 0x4A81 JUMP JUMPDEST PUSH1 0x0 PUSH1 0x20 DUP3 DUP5 SUB SLT ISZERO PUSH2 0x4AEA JUMPI PUSH1 0x0 DUP1 REVERT JUMPDEST POP CALLDATALOAD SWAP2 SWAP1 POP JUMP JUMPDEST PUSH1 0x0 DUP3 PUSH1 0x1F DUP4 ADD SLT PUSH2 0x4B02 JUMPI PUSH1 0x0 DUP1 REVERT JUMPDEST DUP2 CALLDATALOAD PUSH1 0x20 PUSH2 0x4B12 PUSH2 0x47A4 DUP4 PUSH2 0x46CB JUMP JUMPDEST DUP3 DUP2 MSTORE PUSH1 0x5 SWAP3 SWAP1 SWAP3 SHL DUP5 ADD DUP2 ADD SWAP2 DUP2 DUP2 ADD SWAP1 DUP7 DUP5 GT ISZERO PUSH2 0x4B31 JUMPI PUSH1 0x0 DUP1 REVERT JUMPDEST DUP3 DUP7 ADD JUMPDEST DUP5 DUP2 LT ISZERO PUSH2 0x4B4C JUMPI DUP1 CALLDATALOAD DUP4 MSTORE SWAP2 DUP4 ADD SWAP2 DUP4 ADD PUSH2 0x4B35 JUMP JUMPDEST POP SWAP7 SWAP6 POP POP POP POP POP POP JUMP JUMPDEST PUSH1 0x0 DUP3 PUSH1 0x1F DUP4 ADD SLT PUSH2 0x4B68 JUMPI PUSH1 0x0 DUP1 REVERT JUMPDEST DUP2 CALLDATALOAD PUSH1 0x20 PUSH2 0x4B78 PUSH2 0x47A4 DUP4 PUSH2 0x46CB JUMP JUMPDEST DUP3 DUP2 MSTORE PUSH1 0x5 SWAP3 SWAP1 SWAP3 SHL DUP5 ADD DUP2 ADD SWAP2 DUP2 DUP2 ADD SWAP1 DUP7 DUP5 GT ISZERO PUSH2 0x4B97 JUMPI PUSH1 0x0 DUP1 REVERT JUMPDEST DUP3 DUP7 ADD JUMPDEST DUP5 DUP2 LT ISZERO PUSH2 0x4B4C JUMPI PUSH2 0x4BAC DUP2 PUSH2 0x45E5 JUMP JUMPDEST DUP4 MSTORE SWAP2 DUP4 ADD SWAP2 DUP4 ADD PUSH2 0x4B9B JUMP JUMPDEST DUP1 CALLDATALOAD PUSH2 0xFFFF DUP2 AND DUP2 EQ PUSH2 0x45BC JUMPI PUSH1 0x0 DUP1 REVERT JUMPDEST PUSH1 0x0 DUP1 PUSH1 0x40 DUP4 DUP6 SUB SLT ISZERO PUSH2 0x4BDE JUMPI PUSH1 0x0 DUP1 REVERT JUMPDEST DUP3 CALLDATALOAD PUSH1 0x1 PUSH1 0x1 PUSH1 0x40 SHL SUB DUP1 DUP3 GT ISZERO PUSH2 0x4BF5 JUMPI PUSH1 0x0 DUP1 REVERT JUMPDEST DUP2 DUP6 ADD SWAP2 POP DUP6 PUSH1 0x1F DUP4 ADD SLT PUSH2 0x4C09 JUMPI PUSH1 0x0 DUP1 REVERT JUMPDEST DUP2 CALLDATALOAD PUSH1 0x20 PUSH2 0x4C19 PUSH2 0x47A4 DUP4 PUSH2 0x46CB JUMP JUMPDEST DUP3 DUP2 MSTORE PUSH1 0x5 SWAP3 SWAP1 SWAP3 SHL DUP5 ADD DUP2 ADD SWAP2 DUP2 DUP2 ADD SWAP1 DUP10 DUP5 GT ISZERO PUSH2 0x4C38 JUMPI PUSH1 0x0 DUP1 REVERT JUMPDEST DUP3 DUP7 ADD JUMPDEST DUP5 DUP2 LT ISZERO PUSH2 0x4DA7 JUMPI DUP1 CALLDATALOAD DUP7 DUP2 GT ISZERO PUSH2 0x4C53 JUMPI PUSH1 0x0 DUP1 REVERT JUMPDEST DUP8 ADD PUSH2 0x1A0 DUP2 DUP14 SUB PUSH1 0x1F NOT ADD DUP2 SGT ISZERO PUSH2 0x4C6B JUMPI PUSH1 0x0 DUP1 REVERT JUMPDEST PUSH2 0x4C73 PUSH2 0x4655 JUMP JUMPDEST DUP7 DUP4 ADD CALLDATALOAD DUP10 DUP2 GT ISZERO PUSH2 0x4C84 JUMPI PUSH1 0x0 DUP1 REVERT JUMPDEST PUSH2 0x4C92 DUP16 DUP10 DUP4 DUP8 ADD ADD PUSH2 0x46EE JUMP JUMPDEST DUP3 MSTORE POP PUSH2 0x4CA1 PUSH1 0x40 DUP5 ADD PUSH2 0x45E5 JUMP JUMPDEST DUP8 DUP3 ADD MSTORE PUSH1 0x60 DUP4 ADD CALLDATALOAD DUP10 DUP2 GT ISZERO PUSH2 0x4CB7 JUMPI PUSH1 0x0 DUP1 REVERT JUMPDEST PUSH2 0x4CC5 DUP16 DUP10 DUP4 DUP8 ADD ADD PUSH2 0x4AF1 JUMP JUMPDEST PUSH1 0x40 DUP4 ADD MSTORE POP PUSH1 0x80 DUP4 ADD CALLDATALOAD DUP10 DUP2 GT ISZERO PUSH2 0x4CDD JUMPI PUSH1 0x0 DUP1 REVERT JUMPDEST PUSH2 0x4CEB DUP16 DUP10 DUP4 DUP8 ADD ADD PUSH2 0x4B57 JUMP JUMPDEST PUSH1 0x60 DUP4 ADD MSTORE POP PUSH2 0x4CFD PUSH1 0xA0 DUP5 ADD PUSH2 0x45B1 JUMP JUMPDEST PUSH1 0x80 DUP3 ADD MSTORE PUSH1 0xC0 DUP1 DUP5 ADD CALLDATALOAD PUSH1 0xA0 DUP4 ADD MSTORE PUSH1 0xE0 PUSH2 0x4D1A DUP2 DUP7 ADD PUSH2 0x45E5 JUMP JUMPDEST DUP3 DUP5 ADD MSTORE PUSH2 0x100 SWAP2 POP PUSH2 0x4D2E DUP3 DUP7 ADD PUSH2 0x45B1 JUMP JUMPDEST SWAP1 DUP4 ADD MSTORE PUSH2 0x120 PUSH2 0x4D40 DUP6 DUP3 ADD PUSH2 0x45B1 JUMP JUMPDEST DUP3 DUP5 ADD MSTORE PUSH2 0x140 SWAP2 POP DUP2 DUP6 ADD CALLDATALOAD DUP2 DUP5 ADD MSTORE POP PUSH2 0x160 PUSH2 0x4D60 DUP2 DUP7 ADD PUSH2 0x4BB9 JUMP JUMPDEST DUP3 DUP5 ADD MSTORE PUSH2 0x180 SWAP2 POP DUP2 DUP6 ADD CALLDATALOAD DUP2 DUP5 ADD MSTORE POP DUP3 DUP5 ADD CALLDATALOAD SWAP3 POP DUP10 DUP4 GT ISZERO PUSH2 0x4D86 JUMPI PUSH1 0x0 DUP1 DUP2 REVERT JUMPDEST PUSH2 0x4D94 DUP16 DUP10 DUP6 DUP8 ADD ADD PUSH2 0x46EE JUMP JUMPDEST SWAP1 DUP3 ADD MSTORE DUP6 MSTORE POP POP SWAP2 DUP4 ADD SWAP2 DUP4 ADD PUSH2 0x4C3C JUMP JUMPDEST POP SWAP7 POP PUSH2 0x4DB7 SWAP1 POP DUP8 DUP3 ADD PUSH2 0x45E5 JUMP JUMPDEST SWAP5 POP POP POP POP POP SWAP3 POP SWAP3 SWAP1 POP JUMP JUMPDEST PUSH1 0x0 DUP1 PUSH1 0x40 DUP4 DUP6 SUB SLT ISZERO PUSH2 0x4DD7 JUMPI PUSH1 0x0 DUP1 REVERT JUMPDEST PUSH2 0x4DE0 DUP4 PUSH2 0x45E5 JUMP JUMPDEST SWAP2 POP PUSH2 0x4DEE PUSH1 0x20 DUP5 ADD PUSH2 0x45E5 JUMP JUMPDEST SWAP1 POP SWAP3 POP SWAP3 SWAP1 POP JUMP JUMPDEST PUSH1 0x0 DUP1 PUSH1 0x40 DUP4 DUP6 SUB SLT ISZERO PUSH2 0x4E0A JUMPI PUSH1 0x0 DUP1 REVERT JUMPDEST PUSH2 0x4E13 DUP4 PUSH2 0x45E5 JUMP JUMPDEST SWAP5 PUSH1 0x20 SWAP4 SWAP1 SWAP4 ADD CALLDATALOAD SWAP4 POP POP POP JUMP JUMPDEST PUSH1 0x0 PUSH1 0x20 DUP3 DUP5 SUB SLT ISZERO PUSH2 0x4E33 JUMPI PUSH1 0x0 DUP1 REVERT JUMPDEST DUP2 CALLDATALOAD PUSH1 0x1 PUSH1 0x1 PUSH1 0x40 SHL SUB DUP2 GT ISZERO PUSH2 0x4E49 JUMPI PUSH1 0x0 DUP1 REVERT JUMPDEST PUSH2 0x4E55 DUP5 DUP3 DUP6 ADD PUSH2 0x46EE JUMP JUMPDEST SWAP5 SWAP4 POP POP POP POP JUMP JUMPDEST PUSH1 0x0 DUP1 PUSH1 0x40 DUP4 DUP6 SUB SLT ISZERO PUSH2 0x4E70 JUMPI PUSH1 0x0 DUP1 REVERT JUMPDEST DUP3 CALLDATALOAD SWAP2 POP PUSH2 0x4DEE PUSH1 0x20 DUP5 ADD PUSH2 0x45E5 JUMP JUMPDEST PUSH1 0x0 DUP1 PUSH1 0x0 DUP1 PUSH1 0x0 PUSH1 0xA0 DUP7 DUP9 SUB SLT ISZERO PUSH2 0x4E98 JUMPI PUSH1 0x0 DUP1 REVERT JUMPDEST PUSH2 0x4EA1 DUP7 PUSH2 0x45E5 JUMP JUMPDEST SWAP5 POP PUSH2 0x4EAF PUSH1 0x20 DUP8 ADD PUSH2 0x45E5 JUMP JUMPDEST SWAP4 POP PUSH1 0x40 DUP7 ADD CALLDATALOAD SWAP3 POP PUSH1 0x60 DUP7 ADD CALLDATALOAD SWAP2 POP PUSH1 0x80 DUP7 ADD CALLDATALOAD PUSH2 0x4ECD DUP2 PUSH2 0x45A3 JUMP JUMPDEST DUP1 SWAP2 POP POP SWAP3 SWAP6 POP SWAP3 SWAP6 SWAP1 SWAP4 POP JUMP JUMPDEST PUSH1 0x0 DUP1 PUSH1 0x40 DUP4 DUP6 SUB SLT ISZERO PUSH2 0x4EEE JUMPI PUSH1 0x0 DUP1 REVERT JUMPDEST PUSH2 0x4EF7 DUP4 PUSH2 0x45E5 JUMP JUMPDEST SWAP2 POP PUSH1 0x20 DUP4 ADD CALLDATALOAD PUSH2 0x4F07 DUP2 PUSH2 0x45A3 JUMP JUMPDEST DUP1 SWAP2 POP POP SWAP3 POP SWAP3 SWAP1 POP JUMP JUMPDEST PUSH1 0x0 DUP1 PUSH1 0x40 DUP4 DUP6 SUB SLT ISZERO PUSH2 0x4F25 JUMPI PUSH1 0x0 DUP1 REVERT JUMPDEST DUP3 CALLDATALOAD SWAP2 POP PUSH1 0x20 DUP4 ADD CALLDATALOAD PUSH1 0x1 PUSH1 0x1 PUSH1 0x40 SHL SUB DUP2 GT ISZERO PUSH2 0x4F42 JUMPI PUSH1 0x0 DUP1 REVERT JUMPDEST PUSH2 0x4F4E DUP6 DUP3 DUP7 ADD PUSH2 0x46EE JUMP JUMPDEST SWAP2 POP POP SWAP3 POP SWAP3 SWAP1 POP JUMP JUMPDEST PUSH1 0x0 PUSH1 0x20 DUP3 DUP5 SUB SLT ISZERO PUSH2 0x4F6A JUMPI PUSH1 0x0 DUP1 REVERT JUMPDEST DUP2 CALLDATALOAD PUSH1 0x1 PUSH1 0x1 PUSH1 0x40 SHL SUB DUP1 DUP3 GT ISZERO PUSH2 0x4F81 JUMPI PUSH1 0x0 DUP1 REVERT JUMPDEST SWAP1 DUP4 ADD SWAP1 PUSH2 0x100 DUP3 DUP7 SUB SLT ISZERO PUSH2 0x4F96 JUMPI PUSH1 0x0 DUP1 REVERT JUMPDEST PUSH2 0x4F9E PUSH2 0x4678 JUMP JUMPDEST DUP3 CALLDATALOAD DUP3 DUP2 GT ISZERO PUSH2 0x4FAD JUMPI PUSH1 0x0 DUP1 REVERT JUMPDEST PUSH2 0x4FB9 DUP8 DUP3 DUP7 ADD PUSH2 0x4B57 JUMP JUMPDEST DUP3 MSTORE POP PUSH1 0x20 DUP4 ADD CALLDATALOAD DUP3 DUP2 GT ISZERO PUSH2 0x4FCE JUMPI PUSH1 0x0 DUP1 REVERT JUMPDEST PUSH2 0x4FDA DUP8 DUP3 DUP7 ADD PUSH2 0x4AF1 JUMP JUMPDEST PUSH1 0x20 DUP4 ADD MSTORE POP PUSH2 0x4FEC PUSH1 0x40 DUP5 ADD PUSH2 0x45B1 JUMP JUMPDEST PUSH1 0x40 DUP3 ADD MSTORE PUSH2 0x4FFD PUSH1 0x60 DUP5 ADD PUSH2 0x45E5 JUMP JUMPDEST PUSH1 0x60 DUP3 ADD MSTORE PUSH1 0x80 DUP4 ADD CALLDATALOAD PUSH1 0x80 DUP3 ADD MSTORE PUSH1 0xA0 DUP4 ADD CALLDATALOAD DUP3 DUP2 GT ISZERO PUSH2 0x501E JUMPI PUSH1 0x0 DUP1 REVERT JUMPDEST PUSH2 0x502A DUP8 DUP3 DUP7 ADD PUSH2 0x46EE JUMP JUMPDEST PUSH1 0xA0 DUP4 ADD MSTORE POP PUSH1 0xC0 DUP4 ADD CALLDATALOAD PUSH1 0xC0 DUP3 ADD MSTORE PUSH1 0xE0 DUP4 ADD CALLDATALOAD DUP3 DUP2 GT ISZERO PUSH2 0x504C JUMPI PUSH1 0x0 DUP1 REVERT JUMPDEST PUSH2 0x5058 DUP8 DUP3 DUP7 ADD PUSH2 0x46EE JUMP JUMPDEST PUSH1 0xE0 DUP4 ADD MSTORE POP SWAP6 SWAP5 POP POP POP POP POP JUMP JUMPDEST PUSH1 0x0 DUP1 PUSH1 0x40 DUP4 DUP6 SUB SLT ISZERO PUSH2 0x507A JUMPI PUSH1 0x0 DUP1 REVERT JUMPDEST POP POP DUP1 CALLDATALOAD SWAP3 PUSH1 0x20 SWAP1 SWAP2 ADD CALLDATALOAD SWAP2 POP JUMP JUMPDEST PUSH1 0x20 DUP1 DUP3 MSTORE PUSH1 0x18 SWAP1 DUP3 ADD MSTORE PUSH24 0x27B7363C903737B2329031B0B71031B0B636103A3434B997 PUSH1 0x41 SHL PUSH1 0x40 DUP3 ADD MSTORE PUSH1 0x60 ADD SWAP1 JUMP JUMPDEST PUSH1 0x0 PUSH1 0x20 DUP3 DUP5 SUB SLT ISZERO PUSH2 0x50CD JUMPI PUSH1 0x0 DUP1 REVERT JUMPDEST DUP2 MLOAD PUSH2 0x45DE DUP2 PUSH2 0x45A3 JUMP JUMPDEST PUSH1 0x20 DUP1 DUP3 MSTORE PUSH1 0x14 SWAP1 DUP3 ADD MSTORE PUSH20 0x131BD8DAC81A185CC81899595B8818DB1BDCD959 PUSH1 0x62 SHL PUSH1 0x40 DUP3 ADD MSTORE PUSH1 0x60 ADD SWAP1 JUMP JUMPDEST PUSH4 0x4E487B71 PUSH1 0xE0 SHL PUSH1 0x0 MSTORE PUSH1 0x32 PUSH1 0x4 MSTORE PUSH1 0x24 PUSH1 0x0 REVERT JUMPDEST PUSH4 0x4E487B71 PUSH1 0xE0 SHL PUSH1 0x0 MSTORE PUSH1 0x11 PUSH1 0x4 MSTORE PUSH1 0x24 PUSH1 0x0 REVERT JUMPDEST PUSH1 0x0 PUSH1 0x1 DUP3 ADD PUSH2 0x5144 JUMPI PUSH2 0x5144 PUSH2 0x511C JUMP JUMPDEST POP PUSH1 0x1 ADD SWAP1 JUMP JUMPDEST PUSH1 0x0 DUP1 PUSH1 0x40 DUP4 DUP6 SUB SLT ISZERO PUSH2 0x515E JUMPI PUSH1 0x0 DUP1 REVERT JUMPDEST POP POP DUP1 MLOAD PUSH1 0x20 SWAP1 SWAP2 ADD MLOAD SWAP1 SWAP3 SWAP1 SWAP2 POP JUMP JUMPDEST PUSH1 0x0 PUSH1 0x20 DUP3 DUP5 SUB SLT ISZERO PUSH2 0x5181 JUMPI PUSH1 0x0 DUP1 REVERT JUMPDEST POP MLOAD SWAP2 SWAP1 POP JUMP JUMPDEST PUSH1 0x0 DUP2 MLOAD PUSH1 0x0 JUMPDEST DUP2 DUP2 LT ISZERO PUSH2 0x51A9 JUMPI PUSH1 0x20 DUP2 DUP6 ADD DUP2 ADD MLOAD DUP7 DUP4 ADD MSTORE ADD PUSH2 0x518F JUMP JUMPDEST POP PUSH1 0x0 SWAP4 ADD SWAP3 DUP4 MSTORE POP SWAP1 SWAP2 SWAP1 POP JUMP JUMPDEST PUSH1 0x0 PUSH2 0x45DE DUP3 DUP5 PUSH2 0x5188 JUMP JUMPDEST PUSH1 0x20 DUP1 DUP3 MSTORE PUSH1 0x12 SWAP1 DUP3 ADD MSTORE PUSH18 0x1B9BC81B185C99D954D95D1D1B195B595B9D PUSH1 0x72 SHL PUSH1 0x40 DUP3 ADD MSTORE PUSH1 0x60 ADD SWAP1 JUMP JUMPDEST DUP2 DUP2 SUB DUP2 DUP2 GT ISZERO PUSH2 0x1307 JUMPI PUSH2 0x1307 PUSH2 0x511C JUMP JUMPDEST DUP1 MLOAD PUSH1 0x0 SWAP1 PUSH1 0x20 DUP1 DUP5 ADD DUP4 DUP4 ISZERO PUSH2 0x4ABA JUMPI DUP2 MLOAD PUSH1 0x1 PUSH1 0x1 PUSH1 0xA0 SHL SUB AND DUP8 MSTORE SWAP6 DUP3 ADD SWAP6 SWAP1 DUP3 ADD SWAP1 PUSH1 0x1 ADD PUSH2 0x4A95 JUMP JUMPDEST PUSH1 0x0 DUP2 MLOAD PUSH1 0x20 DUP1 DUP5 ADD PUSH1 0x0 JUMPDEST DUP4 DUP2 LT ISZERO PUSH2 0x4ABA JUMPI DUP2 MLOAD DUP8 MSTORE SWAP6 DUP3 ADD SWAP6 SWAP1 DUP3 ADD SWAP1 PUSH1 0x1 ADD PUSH2 0x523D JUMP JUMPDEST PUSH1 0x0 PUSH2 0x526E PUSH2 0x5268 DUP4 DUP9 PUSH2 0x5203 JUMP JUMPDEST DUP7 PUSH2 0x5231 JUMP JUMPDEST SWAP4 ISZERO ISZERO PUSH1 0xF8 SHL DUP5 MSTORE POP POP PUSH1 0x60 SHL PUSH1 0x1 PUSH1 0x1 PUSH1 0x60 SHL SUB NOT AND PUSH1 0x1 DUP3 ADD MSTORE PUSH1 0x15 ADD SWAP3 SWAP2 POP POP JUMP JUMPDEST PUSH1 0x20 DUP1 DUP3 MSTORE PUSH1 0x16 SWAP1 DUP3 ADD MSTORE PUSH22 0x2A34329039B4B3B732B91034B9903737BA103AB9B2B9 PUSH1 0x51 SHL PUSH1 0x40 DUP3 ADD MSTORE PUSH1 0x60 ADD SWAP1 JUMP JUMPDEST PUSH1 0x20 DUP1 DUP3 MSTORE PUSH1 0x18 SWAP1 DUP3 ADD MSTORE PUSH24 0x546865207369676E6572206973206E6F742061206E6F6465 PUSH1 0x40 SHL PUSH1 0x40 DUP3 ADD MSTORE PUSH1 0x60 ADD SWAP1 JUMP JUMPDEST DUP1 DUP3 ADD DUP1 DUP3 GT ISZERO PUSH2 0x1307 JUMPI PUSH2 0x1307 PUSH2 0x511C JUMP JUMPDEST PUSH1 0x80 DUP2 MSTORE PUSH1 0x0 PUSH2 0x531B PUSH1 0x80 DUP4 ADD DUP8 PUSH2 0x4A81 JUMP JUMPDEST DUP3 DUP2 SUB PUSH1 0x20 DUP5 DUP2 ADD SWAP2 SWAP1 SWAP2 MSTORE DUP7 MLOAD DUP1 DUP4 MSTORE DUP8 DUP3 ADD SWAP3 DUP3 ADD SWAP1 PUSH1 0x0 JUMPDEST DUP2 DUP2 LT ISZERO PUSH2 0x5352 JUMPI DUP5 MLOAD DUP4 MSTORE SWAP4 DUP4 ADD SWAP4 SWAP2 DUP4 ADD SWAP2 PUSH1 0x1 ADD PUSH2 0x5336 JUMP JUMPDEST POP POP SWAP6 ISZERO ISZERO PUSH1 0x40 DUP6 ADD MSTORE POP POP POP PUSH1 0x1 PUSH1 0x1 PUSH1 0xA0 SHL SUB SWAP2 SWAP1 SWAP2 AND PUSH1 0x60 SWAP1 SWAP2 ADD MSTORE SWAP3 SWAP2 POP POP JUMP JUMPDEST PUSH1 0x0 PUSH2 0x5383 DUP3 DUP14 PUSH2 0x5188 JUMP JUMPDEST PUSH1 0x1 PUSH1 0x1 PUSH1 0x60 SHL SUB NOT PUSH1 0x60 SWAP13 DUP14 SHL DUP2 AND DUP3 MSTORE PUSH1 0x14 DUP3 ADD SWAP12 SWAP1 SWAP12 MSTORE SWAP9 DUP12 SHL DUP11 AND PUSH1 0x34 DUP11 ADD MSTORE POP POP SWAP5 ISZERO ISZERO PUSH1 0xF8 SWAP1 DUP2 SHL PUSH1 0x48 DUP9 ADD MSTORE PUSH1 0x49 DUP8 ADD SWAP5 SWAP1 SWAP5 MSTORE SWAP2 DUP8 SHL DUP7 AND PUSH1 0x69 DUP7 ADD MSTORE ISZERO ISZERO SWAP1 SWAP2 SHL PUSH1 0x7D DUP5 ADD MSTORE PUSH1 0x7E DUP4 ADD MSTORE SWAP1 SWAP3 SHL AND PUSH1 0x9E DUP3 ADD MSTORE PUSH1 0xB2 ADD SWAP2 SWAP1 POP JUMP JUMPDEST PUSH1 0x20 DUP1 DUP3 MSTORE PUSH1 0x14 SWAP1 DUP3 ADD MSTORE PUSH20 0x1D1C98591A5B99C81B9BDB98D94819985A5B1959 PUSH1 0x62 SHL PUSH1 0x40 DUP3 ADD MSTORE PUSH1 0x60 ADD SWAP1 JUMP JUMPDEST PUSH1 0x1 PUSH1 0x1 PUSH1 0xA0 SHL SUB SWAP5 DUP6 AND DUP2 MSTORE PUSH1 0x20 DUP2 ADD SWAP4 SWAP1 SWAP4 MSTORE SWAP1 ISZERO ISZERO PUSH1 0x40 DUP4 ADD MSTORE SWAP1 SWAP2 AND PUSH1 0x60 DUP3 ADD MSTORE PUSH1 0x80 ADD SWAP1 JUMP JUMPDEST PUSH1 0x1 PUSH1 0x1 PUSH1 0xA0 SHL SUB SWAP4 SWAP1 SWAP4 AND DUP4 MSTORE PUSH1 0x20 DUP4 ADD SWAP2 SWAP1 SWAP2 MSTORE ISZERO ISZERO PUSH1 0x40 DUP3 ADD MSTORE PUSH1 0x60 ADD SWAP1 JUMP JUMPDEST PUSH1 0x0 PUSH2 0x5470 DUP3 DUP14 PUSH2 0x5188 JUMP JUMPDEST PUSH1 0x1 PUSH1 0x1 PUSH1 0x60 SHL SUB NOT PUSH1 0x60 DUP14 SWAP1 SHL DUP2 AND DUP3 MSTORE PUSH2 0x5498 PUSH2 0x5492 PUSH1 0x14 DUP5 ADD DUP15 PUSH2 0x5231 JUMP JUMPDEST DUP13 PUSH2 0x5203 JUMP JUMPDEST SWAP10 ISZERO ISZERO PUSH1 0xF8 SWAP1 DUP2 SHL DUP12 MSTORE PUSH1 0x1 DUP12 ADD SWAP10 SWAP1 SWAP10 MSTORE PUSH1 0x60 SWAP8 SWAP1 SWAP8 SHL SWAP1 SWAP7 AND PUSH1 0x21 DUP10 ADD MSTORE POP POP SWAP2 ISZERO ISZERO DUP5 SHL PUSH1 0x35 DUP7 ADD MSTORE ISZERO ISZERO SWAP1 SWAP3 SHL PUSH1 0x36 DUP5 ADD MSTORE POP PUSH1 0xF0 SHL PUSH1 0x1 PUSH1 0x1 PUSH1 0xF0 SHL SUB NOT AND PUSH1 0x37 DUP3 ADD MSTORE PUSH1 0x39 ADD SWAP5 SWAP4 POP POP POP POP JUMP JUMPDEST PUSH1 0x20 DUP1 DUP3 MSTORE PUSH1 0x14 SWAP1 DUP3 ADD MSTORE PUSH20 0x18D85C1A5D185B081B9BDB98D94819985A5B1959 PUSH1 0x62 SHL PUSH1 0x40 DUP3 ADD MSTORE PUSH1 0x60 ADD SWAP1 JUMP INVALID PUSH24 0x697468686F6C64696E673A20496E73756666696369656E74 KECCAK256 PUSH24 0x697468686F405787FA12A823E0F2B7631CC41B3BA8828B33 0x21 0xCA DUP2 GT GT STATICCALL PUSH22 0xCD3AA3BB5ACE7472616E736665724F6646756E64733A KECCAK256 0x49 PUSH15 0x73756666696369656E7420776957C8 PUSH19 0x46F094B8A493EC5EB6EA374EAFBC3C05951E4 0xD 0xE3 0xC4 ADDRESS 0x2A COINBASE RETURN CALL 0x27 0xBA LOG2 PUSH5 0x6970667358 0x22 SLT KECCAK256 LT SIGNEXTEND 0xC4 SAR PUSH18 0xB8E80ACF2FF1EAA0995E1BF89F67FD5733B 0x2B PUSH26 0xBB09A3D1DE76464736F6C634300081100330000000000000000 "},"gasEstimates":{"creation":{"codeDepositCost":"4393600","executionCost":"infinite","totalCost":"infinite"},"external":{"NODE_ROLE()":"infinite","OWENER_ROLE()":"305","_buildMerkleTree(bytes32,bytes32)":"1679","_coinList(uint256)":"2280","_roles(bytes32)":"1914","acceptOwnership()":"infinite","accounts(address)":"4979","auobject(address,address)":"infinite","budgeCa(address,address)":"infinite","budgetrd(address,address)":"infinite","capitaMRoot(address,uint256)":"2540","coinFeeAdd(uint256)":"2236","coinFeeMa(address)":"1363","coinList(uint256)":"2395","coinListLength()":"1047","deAmountL2(address,address)":"infinite","getAccount(address,address)":"infinite","getCoinFeeAdd()":"infinite","getCoinList()":"infinite","getData(address)":"infinite","getNonce(address)":"2239","getTotalFee(address)":"1743","hasRole(bytes32,address)":"1939","hashMessage(bytes32)":"1154","ids(string)":"infinite","interests()":"1105","isOpen()":"1285","isSupDe(address)":"2243","isTrueForCoin(address)":"1517","largeSettlement()":"1875","owner()":"1598","pendingOwner()":"1950","renounceOwnership()":"infinite","setAccount(address,address,uint256,uint256,bool)":"infinite","setAuobject(address,bool,address,bytes32,bytes)":"infinite","setInterests(address)":"22740","setIsOpen(bool)":"22036","setLargeSettlement(address)":"22080","setSupDe(address,bool)":"22870","setTotalFee(address)":"6977","setWhilLlist(address)":"24171","totalFee(address)":"1681","tradingMRoot(address,uint256)":"2980","transferOwnership(address)":"infinite","verificationBook((string,address,uint256[],address[],bool,uint256,address,bool,bool,uint256,uint16,bytes32,bytes)[],address)":"infinite","verificationBookFoTrade(((string,address,uint256,address,bool,uint256,address,bool,uint256,address,uint256,bytes32,bytes)[])[])":"infinite","verifyEcrecover(bytes32,bytes)":"infinite","withholding((address[],uint256[],bool,address,bytes32,bytes,bytes32,bytes))":"infinite"},"internal":{"_build(struct SmallSettlementData.Bill memory,address)":"infinite","_grantRole(bytes32,address)":"22018","_setupRole(bytes32,address)":"22052","_tradeBuild(struct SmallSettlementData.TradeBills memory)":"infinite","addFee(address,uint256)":"83615","isCoinList(address,address)":"127101","recover(bytes memory)":"infinite","transferOfFunds(struct SmallSettlementData.Bill memory,address)":"infinite","verifySignatureA(struct SmallSettlementData.Bill memory,address)":"infinite","verifySignatureB(struct SmallSettlementData.TradeBills memory)":"infinite"}},"methodIdentifiers":{"NODE_ROLE()":"fb895733","OWENER_ROLE()":"19fc2e61","_buildMerkleTree(bytes32,bytes32)":"e3c808bc","_coinList(uint256)":"39a6f16f","_roles(bytes32)":"bd99d7e1","acceptOwnership()":"79ba5097","accounts(address)":"5e5c06e2","auobject(address,address)":"f9cad2ac","budgeCa(address,address)":"b886dbcd","budgetrd(address,address)":"4efa685a","capitaMRoot(address,uint256)":"6cadcbd9","coinFeeAdd(uint256)":"3657c293","coinFeeMa(address)":"2428d38f","coinList(uint256)":"50414c35","coinListLength()":"1715fab0","deAmountL2(address,address)":"9d3089f5","getAccount(address,address)":"fd590847","getCoinFeeAdd()":"31c329e6","getCoinList()":"8dfad597","getData(address)":"38266b22","getNonce(address)":"2d0335ab","getTotalFee(address)":"8c232838","hasRole(bytes32,address)":"91d14854","hashMessage(bytes32)":"b3cb890f","ids(string)":"8a08677d","interests()":"14a3db2d","isOpen()":"47535d7b","isSupDe(address)":"ff464d3f","isTrueForCoin(address)":"4893c26a","largeSettlement()":"c13d2b9e","owner()":"8da5cb5b","pendingOwner()":"e30c3978","renounceOwnership()":"715018a6","setAccount(address,address,uint256,uint256,bool)":"98ea1f1f","setAuobject(address,bool,address,bytes32,bytes)":"176060de","setInterests(address)":"a69e5862","setIsOpen(bool)":"085a10cf","setLargeSettlement(address)":"0ae35e5c","setSupDe(address,bool)":"a304dcf4","setTotalFee(address)":"bbb92337","setWhilLlist(address)":"e251e96d","totalFee(address)":"7a4fda3d","tradingMRoot(address,uint256)":"ce5c8e14","transferOwnership(address)":"f2fde38b","verificationBook((string,address,uint256[],address[],bool,uint256,address,bool,bool,uint256,uint16,bytes32,bytes)[],address)":"4ab81ce9","verificationBookFoTrade(((string,address,uint256,address,bool,uint256,address,bool,uint256,address,uint256,bytes32,bytes)[])[])":"0b857a47","verifyEcrecover(bytes32,bytes)":"b273f207","withholding((address[],uint256[],bool,address,bytes32,bytes,bytes32,bytes))":"bfef22ac"}},"storageLayout":{"storage":[{"astId":7,"contract":"contracts/L2/SmallSettlement.sol:SmallSettlement","label":"_owner","offset":0,"slot":"0","type":"t_address"},{"astId":120,"contract":"contracts/L2/SmallSettlement.sol:SmallSettlement","label":"_pendingOwner","offset":0,"slot":"1","type":"t_address"},{"astId":2748,"contract":"contracts/L2/SmallSettlement.sol:SmallSettlement","label":"_isOpen","offset":20,"slot":"1","type":"t_bool"},{"astId":2751,"contract":"contracts/L2/SmallSettlement.sol:SmallSettlement","label":"_coinList","offset":0,"slot":"2","type":"t_array(t_address)dyn_storage"},{"astId":2753,"contract":"contracts/L2/SmallSettlement.sol:SmallSettlement","label":"largeSettlement","offset":0,"slot":"3","type":"t_address"},{"astId":2755,"contract":"contracts/L2/SmallSettlement.sol:SmallSettlement","label":"interests","offset":0,"slot":"4","type":"t_address"},{"astId":2760,"contract":"contracts/L2/SmallSettlement.sol:SmallSettlement","label":"_roles","offset":0,"slot":"5","type":"t_mapping(t_bytes32,t_struct(RoleData)2697_storage)"},{"astId":2766,"contract":"contracts/L2/SmallSettlement.sol:SmallSettlement","label":"auobject","offset":0,"slot":"6","type":"t_mapping(t_address,t_mapping(t_address,t_bool))"},{"astId":2771,"contract":"contracts/L2/SmallSettlement.sol:SmallSettlement","label":"accounts","offset":0,"slot":"7","type":"t_mapping(t_address,t_struct(Account)2716_storage)"},{"astId":2777,"contract":"contracts/L2/SmallSettlement.sol:SmallSettlement","label":"budgeCa","offset":0,"slot":"8","type":"t_mapping(t_address,t_mapping(t_address,t_uint256))"},{"astId":2783,"contract":"contracts/L2/SmallSettlement.sol:SmallSettlement","label":"budgetrd","offset":0,"slot":"9","type":"t_mapping(t_address,t_mapping(t_address,t_uint256))"},{"astId":2788,"contract":"contracts/L2/SmallSettlement.sol:SmallSettlement","label":"capitaMRoot","offset":0,"slot":"10","type":"t_mapping(t_address,t_array(t_bytes32)dyn_storage)"},{"astId":2793,"contract":"contracts/L2/SmallSettlement.sol:SmallSettlement","label":"tradingMRoot","offset":0,"slot":"11","type":"t_mapping(t_address,t_array(t_bytes32)dyn_storage)"},{"astId":2799,"contract":"contracts/L2/SmallSettlement.sol:SmallSettlement","label":"deAmountL2","offset":0,"slot":"12","type":"t_mapping(t_address,t_mapping(t_address,t_uint256))"},{"astId":2803,"contract":"contracts/L2/SmallSettlement.sol:SmallSettlement","label":"isSupDe","offset":0,"slot":"13","type":"t_mapping(t_address,t_bool)"},{"astId":2807,"contract":"contracts/L2/SmallSettlement.sol:SmallSettlement","label":"isTrueForCoin","offset":0,"slot":"14","type":"t_mapping(t_address,t_bool)"},{"astId":2811,"contract":"contracts/L2/SmallSettlement.sol:SmallSettlement","label":"ids","offset":0,"slot":"15","type":"t_mapping(t_string_memory_ptr,t_bool)"},{"astId":2875,"contract":"contracts/L2/SmallSettlement.sol:SmallSettlement","label":"coinFeeAdd","offset":0,"slot":"16","type":"t_array(t_address)dyn_storage"},{"astId":2879,"contract":"contracts/L2/SmallSettlement.sol:SmallSettlement","label":"totalFee","offset":0,"slot":"17","type":"t_mapping(t_address,t_uint256)"},{"astId":235,"contract":"contracts/L2/SmallSettlement.sol:SmallSettlement","label":"coinFeeMa","offset":0,"slot":"18","type":"t_mapping(t_address,t_bool)"}],"types":{"t_address":{"encoding":"inplace","label":"address","numberOfBytes":"20"},"t_array(t_address)dyn_storage":{"base":"t_address","encoding":"dynamic_array","label":"address[]","numberOfBytes":"32"},"t_array(t_bytes32)dyn_storage":{"base":"t_bytes32","encoding":"dynamic_array","label":"bytes32[]","numberOfBytes":"32"},"t_bool":{"encoding":"inplace","label":"bool","numberOfBytes":"1"},"t_bytes32":{"encoding":"inplace","label":"bytes32","numberOfBytes":"32"},"t_mapping(t_address,t_array(t_bytes32)dyn_storage)":{"encoding":"mapping","key":"t_address","label":"mapping(address => bytes32[])","numberOfBytes":"32","value":"t_array(t_bytes32)dyn_storage"},"t_mapping(t_address,t_bool)":{"encoding":"mapping","key":"t_address","label":"mapping(address => bool)","numberOfBytes":"32","value":"t_bool"},"t_mapping(t_address,t_mapping(t_address,t_bool))":{"encoding":"mapping","key":"t_address","label":"mapping(address => mapping(address => bool))","numberOfBytes":"32","value":"t_mapping(t_address,t_bool)"},"t_mapping(t_address,t_mapping(t_address,t_uint256))":{"encoding":"mapping","key":"t_address","label":"mapping(address => mapping(address => uint256))","numberOfBytes":"32","value":"t_mapping(t_address,t_uint256)"},"t_mapping(t_address,t_struct(Account)2716_storage)":{"encoding":"mapping","key":"t_address","label":"mapping(address => struct SmallSettlementData.Account)","numberOfBytes":"32","value":"t_struct(Account)2716_storage"},"t_mapping(t_address,t_uint256)":{"encoding":"mapping","key":"t_address","label":"mapping(address => uint256)","numberOfBytes":"32","value":"t_uint256"},"t_mapping(t_bytes32,t_struct(RoleData)2697_storage)":{"encoding":"mapping","key":"t_bytes32","label":"mapping(bytes32 => struct SmallSettlementData.RoleData)","numberOfBytes":"32","value":"t_struct(RoleData)2697_storage"},"t_mapping(t_string_memory_ptr,t_bool)":{"encoding":"mapping","key":"t_string_memory_ptr","label":"mapping(string => bool)","numberOfBytes":"32","value":"t_bool"},"t_string_memory_ptr":{"encoding":"bytes","label":"string","numberOfBytes":"32"},"t_struct(Account)2716_storage":{"encoding":"inplace","label":"struct SmallSettlementData.Account","members":[{"astId":2699,"contract":"contracts/L2/SmallSettlement.sol:SmallSettlement","label":"user","offset":0,"slot":"0","type":"t_address"},{"astId":2701,"contract":"contracts/L2/SmallSettlement.sol:SmallSettlement","label":"capitalMerkleRoot","offset":0,"slot":"1","type":"t_bytes32"},{"astId":2705,"contract":"contracts/L2/SmallSettlement.sol:SmallSettlement","label":"capitalBalance","offset":0,"slot":"2","type":"t_mapping(t_address,t_uint256)"},{"astId":2707,"contract":"contracts/L2/SmallSettlement.sol:SmallSettlement","label":"capitalNonce","offset":0,"slot":"3","type":"t_uint256"},{"astId":2709,"contract":"contracts/L2/SmallSettlement.sol:SmallSettlement","label":"tradingMerkleRoot","offset":0,"slot":"4","type":"t_bytes32"},{"astId":2713,"contract":"contracts/L2/SmallSettlement.sol:SmallSettlement","label":"tradingBalance","offset":0,"slot":"5","type":"t_mapping(t_address,t_uint256)"},{"astId":2715,"contract":"contracts/L2/SmallSettlement.sol:SmallSettlement","label":"tradingNonce","offset":0,"slot":"6","type":"t_uint256"}],"numberOfBytes":"224"},"t_struct(RoleData)2697_storage":{"encoding":"inplace","label":"struct SmallSettlementData.RoleData","members":[{"astId":2694,"contract":"contracts/L2/SmallSettlement.sol:SmallSettlement","label":"members","offset":0,"slot":"0","type":"t_mapping(t_address,t_bool)"},{"astId":2696,"contract":"contracts/L2/SmallSettlement.sol:SmallSettlement","label":"adminRole","offset":0,"slot":"1","type":"t_bytes32"}],"numberOfBytes":"64"},"t_uint256":{"encoding":"inplace","label":"uint256","numberOfBytes":"32"}}},"userdoc":{"kind":"user","methods":{},"version":1}}}}