{"contracts/L2/data/LargeSettlementData.sol":{"LargeSettlementData":{"abi":[{"inputs":[],"name":"NODE_ROLE","outputs":[{"internalType":"bytes32","name":"","type":"bytes32"}],"stateMutability":"view","type":"function"},{"inputs":[],"name":"adapterParams","outputs":[{"internalType":"bytes","name":"","type":"bytes"}],"stateMutability":"view","type":"function"},{"inputs":[],"name":"apy","outputs":[{"internalType":"uint256","name":"","type":"uint256"}],"stateMutability":"view","type":"function"},{"inputs":[],"name":"dstChainId","outputs":[{"internalType":"uint16","name":"","type":"uint16"}],"stateMutability":"view","type":"function"},{"inputs":[],"name":"interests","outputs":[{"internalType":"address","name":"","type":"address"}],"stateMutability":"view","type":"function"},{"inputs":[],"name":"lastSmallsettlement","outputs":[{"internalType":"uint256","name":"","type":"uint256"}],"stateMutability":"view","type":"function"},{"inputs":[],"name":"smallSettlement","outputs":[{"internalType":"address","name":"","type":"address"}],"stateMutability":"view","type":"function"},{"inputs":[],"name":"totalValue","outputs":[{"internalType":"uint256","name":"","type":"uint256"}],"stateMutability":"view","type":"function"},{"inputs":[],"name":"usdt","outputs":[{"internalType":"address","name":"","type":"address"}],"stateMutability":"view","type":"function"},{"inputs":[],"name":"withdrawalTime","outputs":[{"internalType":"uint256","name":"","type":"uint256"}],"stateMutability":"view","type":"function"}],"devdoc":{"kind":"dev","methods":{},"version":1},"evm":{"bytecode":{"linkReferences":{},"object":"608060405234801561001057600080fd5b506102ce806100206000396000f3fe608060405234801561001057600080fd5b506004361061008e5760003560e01c8063083118d51461009357806314a3db2d146100b1578063231fccdf146100dc5780632f48ab7d146100f557806330c593f714610108578063389eb9f9146101295780633bcfc4b814610140578063bd40ecab14610149578063d4c3eea014610152578063fb8957331461015b575b600080fd5b61009b610182565b6040516100a89190610210565b60405180910390f35b6001546100c4906001600160a01b031681565b6040516001600160a01b0390911681526020016100a8565b6000546100c4906201000090046001600160a01b031681565b6005546100c4906001600160a01b031681565b6000546101169061ffff1681565b60405161ffff90911681526020016100a8565b61013260065481565b6040519081526020016100a8565b61013260085481565b61013260075481565b61013260045481565b6101327f57c872046f094b8a493ec5eb6ea374eafbc3c05951e40de3c4302a41f3f127ba81565b6002805461018f9061025e565b80601f01602080910402602001604051908101604052809291908181526020018280546101bb9061025e565b80156102085780601f106101dd57610100808354040283529160200191610208565b820191906000526020600020905b8154815290600101906020018083116101eb57829003601f168201915b505050505081565b600060208083528351808285015260005b8181101561023d57858101830151858201604001528201610221565b506000604082860101526040601f19601f8301168501019250505092915050565b600181811c9082168061027257607f821691505b60208210810361029257634e487b7160e01b600052602260045260246000fd5b5091905056fea264697066735822122032f2043b604d7f0948177b99c601de173f345a1f00e031541697b89b631bbbbb64736f6c63430008110033","opcodes":"PUSH1 0x80 PUSH1 0x40 MSTORE CALLVALUE DUP1 ISZERO PUSH2 0x10 JUMPI PUSH1 0x0 DUP1 REVERT JUMPDEST POP PUSH2 0x2CE DUP1 PUSH2 0x20 PUSH1 0x0 CODECOPY PUSH1 0x0 RETURN INVALID PUSH1 0x80 PUSH1 0x40 MSTORE CALLVALUE DUP1 ISZERO PUSH2 0x10 JUMPI PUSH1 0x0 DUP1 REVERT JUMPDEST POP PUSH1 0x4 CALLDATASIZE LT PUSH2 0x8E JUMPI PUSH1 0x0 CALLDATALOAD PUSH1 0xE0 SHR DUP1 PUSH4 0x83118D5 EQ PUSH2 0x93 JUMPI DUP1 PUSH4 0x14A3DB2D EQ PUSH2 0xB1 JUMPI DUP1 PUSH4 0x231FCCDF EQ PUSH2 0xDC JUMPI DUP1 PUSH4 0x2F48AB7D EQ PUSH2 0xF5 JUMPI DUP1 PUSH4 0x30C593F7 EQ PUSH2 0x108 JUMPI DUP1 PUSH4 0x389EB9F9 EQ PUSH2 0x129 JUMPI DUP1 PUSH4 0x3BCFC4B8 EQ PUSH2 0x140 JUMPI DUP1 PUSH4 0xBD40ECAB EQ PUSH2 0x149 JUMPI DUP1 PUSH4 0xD4C3EEA0 EQ PUSH2 0x152 JUMPI DUP1 PUSH4 0xFB895733 EQ PUSH2 0x15B JUMPI JUMPDEST PUSH1 0x0 DUP1 REVERT JUMPDEST PUSH2 0x9B PUSH2 0x182 JUMP JUMPDEST PUSH1 0x40 MLOAD PUSH2 0xA8 SWAP2 SWAP1 PUSH2 0x210 JUMP JUMPDEST PUSH1 0x40 MLOAD DUP1 SWAP2 SUB SWAP1 RETURN JUMPDEST PUSH1 0x1 SLOAD PUSH2 0xC4 SWAP1 PUSH1 0x1 PUSH1 0x1 PUSH1 0xA0 SHL SUB AND DUP2 JUMP JUMPDEST PUSH1 0x40 MLOAD PUSH1 0x1 PUSH1 0x1 PUSH1 0xA0 SHL SUB SWAP1 SWAP2 AND DUP2 MSTORE PUSH1 0x20 ADD PUSH2 0xA8 JUMP JUMPDEST PUSH1 0x0 SLOAD PUSH2 0xC4 SWAP1 PUSH3 0x10000 SWAP1 DIV PUSH1 0x1 PUSH1 0x1 PUSH1 0xA0 SHL SUB AND DUP2 JUMP JUMPDEST PUSH1 0x5 SLOAD PUSH2 0xC4 SWAP1 PUSH1 0x1 PUSH1 0x1 PUSH1 0xA0 SHL SUB AND DUP2 JUMP JUMPDEST PUSH1 0x0 SLOAD PUSH2 0x116 SWAP1 PUSH2 0xFFFF AND DUP2 JUMP JUMPDEST PUSH1 0x40 MLOAD PUSH2 0xFFFF SWAP1 SWAP2 AND DUP2 MSTORE PUSH1 0x20 ADD PUSH2 0xA8 JUMP JUMPDEST PUSH2 0x132 PUSH1 0x6 SLOAD DUP2 JUMP JUMPDEST PUSH1 0x40 MLOAD SWAP1 DUP2 MSTORE PUSH1 0x20 ADD PUSH2 0xA8 JUMP JUMPDEST PUSH2 0x132 PUSH1 0x8 SLOAD DUP2 JUMP JUMPDEST PUSH2 0x132 PUSH1 0x7 SLOAD DUP2 JUMP JUMPDEST PUSH2 0x132 PUSH1 0x4 SLOAD DUP2 JUMP JUMPDEST PUSH2 0x132 PUSH32 0x57C872046F094B8A493EC5EB6EA374EAFBC3C05951E40DE3C4302A41F3F127BA DUP2 JUMP JUMPDEST PUSH1 0x2 DUP1 SLOAD PUSH2 0x18F SWAP1 PUSH2 0x25E JUMP JUMPDEST DUP1 PUSH1 0x1F ADD PUSH1 0x20 DUP1 SWAP2 DIV MUL PUSH1 0x20 ADD PUSH1 0x40 MLOAD SWAP1 DUP2 ADD PUSH1 0x40 MSTORE DUP1 SWAP3 SWAP2 SWAP1 DUP2 DUP2 MSTORE PUSH1 0x20 ADD DUP3 DUP1 SLOAD PUSH2 0x1BB SWAP1 PUSH2 0x25E JUMP JUMPDEST DUP1 ISZERO PUSH2 0x208 JUMPI DUP1 PUSH1 0x1F LT PUSH2 0x1DD JUMPI PUSH2 0x100 DUP1 DUP4 SLOAD DIV MUL DUP4 MSTORE SWAP2 PUSH1 0x20 ADD SWAP2 PUSH2 0x208 JUMP JUMPDEST DUP3 ADD SWAP2 SWAP1 PUSH1 0x0 MSTORE PUSH1 0x20 PUSH1 0x0 KECCAK256 SWAP1 JUMPDEST DUP2 SLOAD DUP2 MSTORE SWAP1 PUSH1 0x1 ADD SWAP1 PUSH1 0x20 ADD DUP1 DUP4 GT PUSH2 0x1EB JUMPI DUP3 SWAP1 SUB PUSH1 0x1F AND DUP3 ADD SWAP2 JUMPDEST POP POP POP POP POP DUP2 JUMP JUMPDEST PUSH1 0x0 PUSH1 0x20 DUP1 DUP4 MSTORE DUP4 MLOAD DUP1 DUP3 DUP6 ADD MSTORE PUSH1 0x0 JUMPDEST DUP2 DUP2 LT ISZERO PUSH2 0x23D JUMPI DUP6 DUP2 ADD DUP4 ADD MLOAD DUP6 DUP3 ADD PUSH1 0x40 ADD MSTORE DUP3 ADD PUSH2 0x221 JUMP JUMPDEST POP PUSH1 0x0 PUSH1 0x40 DUP3 DUP7 ADD ADD MSTORE PUSH1 0x40 PUSH1 0x1F NOT PUSH1 0x1F DUP4 ADD AND DUP6 ADD ADD SWAP3 POP POP POP SWAP3 SWAP2 POP POP JUMP JUMPDEST PUSH1 0x1 DUP2 DUP2 SHR SWAP1 DUP3 AND DUP1 PUSH2 0x272 JUMPI PUSH1 0x7F DUP3 AND SWAP2 POP JUMPDEST PUSH1 0x20 DUP3 LT DUP2 SUB PUSH2 0x292 JUMPI PUSH4 0x4E487B71 PUSH1 0xE0 SHL PUSH1 0x0 MSTORE PUSH1 0x22 PUSH1 0x4 MSTORE PUSH1 0x24 PUSH1 0x0 REVERT JUMPDEST POP SWAP2 SWAP1 POP JUMP INVALID LOG2 PUSH5 0x6970667358 0x22 SLT KECCAK256 ORIGIN CALLCODE DIV EXTCODESIZE PUSH1 0x4D PUSH32 0x948177B99C601DE173F345A1F00E031541697B89B631BBBBB64736F6C634300 ADDMOD GT STOP CALLER "},"gasEstimates":{"creation":{"codeDepositCost":"143600","executionCost":"190","totalCost":"143790"},"external":{"NODE_ROLE()":"371","adapterParams()":"infinite","apy()":"1105","dstChainId()":"1079","interests()":"1037","lastSmallsettlement()":"1127","smallSettlement()":"1070","totalValue()":"1149","usdt()":"1081","withdrawalTime()":"1083"}},"methodIdentifiers":{"NODE_ROLE()":"fb895733","adapterParams()":"083118d5","apy()":"3bcfc4b8","dstChainId()":"30c593f7","interests()":"14a3db2d","lastSmallsettlement()":"bd40ecab","smallSettlement()":"231fccdf","totalValue()":"d4c3eea0","usdt()":"2f48ab7d","withdrawalTime()":"389eb9f9"}},"storageLayout":{"storage":[{"astId":2655,"contract":"contracts/L2/data/LargeSettlementData.sol:LargeSettlementData","label":"dstChainId","offset":0,"slot":"0","type":"t_uint16"},{"astId":2657,"contract":"contracts/L2/data/LargeSettlementData.sol:LargeSettlementData","label":"smallSettlement","offset":2,"slot":"0","type":"t_address"},{"astId":2659,"contract":"contracts/L2/data/LargeSettlementData.sol:LargeSettlementData","label":"interests","offset":0,"slot":"1","type":"t_address"},{"astId":2661,"contract":"contracts/L2/data/LargeSettlementData.sol:LargeSettlementData","label":"adapterParams","offset":0,"slot":"2","type":"t_bytes_storage"},{"astId":2667,"contract":"contracts/L2/data/LargeSettlementData.sol:LargeSettlementData","label":"_deAmountL1","offset":0,"slot":"3","type":"t_mapping(t_address,t_mapping(t_address,t_uint256))"},{"astId":2669,"contract":"contracts/L2/data/LargeSettlementData.sol:LargeSettlementData","label":"totalValue","offset":0,"slot":"4","type":"t_uint256"},{"astId":2671,"contract":"contracts/L2/data/LargeSettlementData.sol:LargeSettlementData","label":"usdt","offset":0,"slot":"5","type":"t_address"},{"astId":2673,"contract":"contracts/L2/data/LargeSettlementData.sol:LargeSettlementData","label":"withdrawalTime","offset":0,"slot":"6","type":"t_uint256"},{"astId":2675,"contract":"contracts/L2/data/LargeSettlementData.sol:LargeSettlementData","label":"lastSmallsettlement","offset":0,"slot":"7","type":"t_uint256"},{"astId":2677,"contract":"contracts/L2/data/LargeSettlementData.sol:LargeSettlementData","label":"apy","offset":0,"slot":"8","type":"t_uint256"}],"types":{"t_address":{"encoding":"inplace","label":"address","numberOfBytes":"20"},"t_bytes_storage":{"encoding":"bytes","label":"bytes","numberOfBytes":"32"},"t_mapping(t_address,t_mapping(t_address,t_uint256))":{"encoding":"mapping","key":"t_address","label":"mapping(address => mapping(address => uint256))","numberOfBytes":"32","value":"t_mapping(t_address,t_uint256)"},"t_mapping(t_address,t_uint256)":{"encoding":"mapping","key":"t_address","label":"mapping(address => uint256)","numberOfBytes":"32","value":"t_uint256"},"t_uint16":{"encoding":"inplace","label":"uint16","numberOfBytes":"2"},"t_uint256":{"encoding":"inplace","label":"uint256","numberOfBytes":"32"}}},"userdoc":{"kind":"user","methods":{},"version":1}}}}