{"contracts/L1/Vault.sol":{"Vault":{"abi":[{"inputs":[{"internalType":"address","name":"lendingPool_","type":"address"},{"internalType":"address","name":"lzEndpoint_","type":"address"},{"internalType":"uint16","name":"dstChainId_","type":"uint16"},{"internalType":"address","name":"usdt_","type":"address"}],"stateMutability":"nonpayable","type":"constructor"},{"anonymous":false,"inputs":[{"indexed":false,"internalType":"uint16","name":"_srcChainId","type":"uint16"},{"indexed":false,"internalType":"bytes","name":"_srcAddress","type":"bytes"},{"indexed":false,"internalType":"uint64","name":"_nonce","type":"uint64"},{"indexed":false,"internalType":"bytes","name":"_payload","type":"bytes"},{"indexed":false,"internalType":"bytes","name":"_reason","type":"bytes"}],"name":"MessageFailed","type":"event"},{"anonymous":false,"inputs":[{"indexed":true,"internalType":"address","name":"previousOwner","type":"address"},{"indexed":true,"internalType":"address","name":"newOwner","type":"address"}],"name":"OwnershipTransferStarted","type":"event"},{"anonymous":false,"inputs":[{"indexed":true,"internalType":"address","name":"previousOwner","type":"address"},{"indexed":true,"internalType":"address","name":"newOwner","type":"address"}],"name":"OwnershipTransferred","type":"event"},{"anonymous":false,"inputs":[{"indexed":false,"internalType":"uint16","name":"_srcChainId","type":"uint16"},{"indexed":false,"internalType":"bytes","name":"_srcAddress","type":"bytes"},{"indexed":false,"internalType":"uint64","name":"_nonce","type":"uint64"},{"indexed":false,"internalType":"bytes32","name":"_payloadHash","type":"bytes32"}],"name":"RetryMessageSuccess","type":"event"},{"anonymous":false,"inputs":[{"indexed":false,"internalType":"uint16","name":"_dstChainId","type":"uint16"},{"indexed":false,"internalType":"uint16","name":"_type","type":"uint16"},{"indexed":false,"internalType":"uint256","name":"_minDstGas","type":"uint256"}],"name":"SetMinDstGas","type":"event"},{"anonymous":false,"inputs":[{"indexed":false,"internalType":"address","name":"precrime","type":"address"}],"name":"SetPrecrime","type":"event"},{"anonymous":false,"inputs":[{"indexed":false,"internalType":"uint16","name":"_remoteChainId","type":"uint16"},{"indexed":false,"internalType":"bytes","name":"_path","type":"bytes"}],"name":"SetTrustedRemote","type":"event"},{"anonymous":false,"inputs":[{"indexed":false,"internalType":"uint16","name":"_remoteChainId","type":"uint16"},{"indexed":false,"internalType":"bytes","name":"_remoteAddress","type":"bytes"}],"name":"SetTrustedRemoteAddress","type":"event"},{"anonymous":false,"inputs":[{"indexed":false,"internalType":"address","name":"user_","type":"address"},{"indexed":false,"internalType":"address","name":"coin_","type":"address"},{"indexed":false,"internalType":"uint256","name":"interest_","type":"uint256"}],"name":"eventCheckOutInterest","type":"event"},{"anonymous":false,"inputs":[{"indexed":false,"internalType":"address","name":"type_","type":"address"},{"indexed":false,"internalType":"uint256","name":"amount_","type":"uint256"},{"indexed":false,"internalType":"address","name":"sender_","type":"address"}],"name":"eventDeposit","type":"event"},{"anonymous":false,"inputs":[{"indexed":false,"internalType":"uint256","name":"amount_","type":"uint256"},{"indexed":false,"internalType":"address","name":"sender_","type":"address"}],"name":"eventDepositETH","type":"event"},{"anonymous":false,"inputs":[{"indexed":false,"internalType":"address","name":"user","type":"address"},{"indexed":false,"internalType":"address[]","name":"coinAdd_","type":"address[]"},{"indexed":false,"internalType":"uint256[]","name":"capitalValues_","type":"uint256[]"},{"indexed":false,"internalType":"uint8","name":"checkOutType","type":"uint8"}],"name":"eventReceive","type":"event"},{"anonymous":false,"inputs":[{"indexed":false,"internalType":"address","name":"user_","type":"address"},{"indexed":false,"internalType":"bool","name":"re_","type":"bool"}],"name":"eventSetWhilLlist","type":"event"},{"anonymous":false,"inputs":[{"indexed":false,"internalType":"address[]","name":"type_","type":"address[]"},{"indexed":false,"internalType":"uint256[]","name":"amount_","type":"uint256[]"},{"indexed":false,"internalType":"address","name":"sender_","type":"address"}],"name":"eventWithdraw","type":"event"},{"anonymous":false,"inputs":[{"indexed":false,"internalType":"address","name":"user","type":"address"},{"indexed":false,"internalType":"address","name":"coinType","type":"address"},{"indexed":false,"internalType":"uint256","name":"interestBalance","type":"uint256"}],"name":"eventWithdrawInterest","type":"event"},{"inputs":[],"name":"DEFAULT_ADMIN_ROLE","outputs":[{"internalType":"bytes32","name":"","type":"bytes32"}],"stateMutability":"view","type":"function"},{"inputs":[],"name":"FEE_ROLE","outputs":[{"internalType":"bytes32","name":"","type":"bytes32"}],"stateMutability":"view","type":"function"},{"inputs":[],"name":"NODE_ROLE","outputs":[{"internalType":"bytes32","name":"","type":"bytes32"}],"stateMutability":"view","type":"function"},{"inputs":[],"name":"OWENER_ROLE","outputs":[{"internalType":"bytes32","name":"","type":"bytes32"}],"stateMutability":"view","type":"function"},{"inputs":[{"internalType":"bytes32","name":"","type":"bytes32"}],"name":"_roles","outputs":[{"internalType":"bytes32","name":"adminRole","type":"bytes32"}],"stateMutability":"view","type":"function"},{"inputs":[],"name":"aave","outputs":[{"internalType":"address","name":"","type":"address"}],"stateMutability":"view","type":"function"},{"inputs":[],"name":"acceptOwnership","outputs":[],"stateMutability":"nonpayable","type":"function"},{"inputs":[{"internalType":"address","name":"","type":"address"}],"name":"accounts","outputs":[{"internalType":"address","name":"user","type":"address"},{"internalType":"bytes32","name":"capitalMerkleRoot","type":"bytes32"},{"internalType":"uint256","name":"capitalNonce","type":"uint256"},{"internalType":"bytes32","name":"tradingMerkleRoot","type":"bytes32"},{"internalType":"uint256","name":"tradingNonce","type":"uint256"},{"internalType":"uint256","name":"nativeFee","type":"uint256"}],"stateMutability":"view","type":"function"},{"inputs":[],"name":"adapterParams","outputs":[{"internalType":"bytes","name":"","type":"bytes"}],"stateMutability":"view","type":"function"},{"inputs":[{"internalType":"address","name":"","type":"address"}],"name":"deCoinList","outputs":[{"internalType":"bool","name":"","type":"bool"}],"stateMutability":"view","type":"function"},{"inputs":[{"internalType":"address","name":"type_","type":"address"},{"internalType":"uint256","name":"amount_","type":"uint256"}],"name":"deposit","outputs":[],"stateMutability":"payable","type":"function"},{"inputs":[{"internalType":"uint256","name":"amount_","type":"uint256"}],"name":"depositETH","outputs":[],"stateMutability":"payable","type":"function"},{"inputs":[],"name":"dstChainId","outputs":[{"internalType":"uint16","name":"","type":"uint16"}],"stateMutability":"view","type":"function"},{"inputs":[{"internalType":"address","name":"user_","type":"address"}],"name":"estimateFee","outputs":[{"internalType":"uint256","name":"nativeFee","type":"uint256"},{"internalType":"uint256","name":"zroFee","type":"uint256"}],"stateMutability":"view","type":"function"},{"inputs":[{"internalType":"uint16","name":"","type":"uint16"},{"internalType":"bytes","name":"","type":"bytes"},{"internalType":"uint64","name":"","type":"uint64"}],"name":"failedMessages","outputs":[{"internalType":"bytes32","name":"","type":"bytes32"}],"stateMutability":"view","type":"function"},{"inputs":[{"internalType":"uint16","name":"_srcChainId","type":"uint16"},{"internalType":"bytes","name":"_srcAddress","type":"bytes"}],"name":"forceResumeReceive","outputs":[],"stateMutability":"nonpayable","type":"function"},{"inputs":[{"internalType":"address","name":"add_","type":"address"}],"name":"getATokenWithToken","outputs":[{"internalType":"address","name":"","type":"address"}],"stateMutability":"view","type":"function"},{"inputs":[],"name":"getAllFee","outputs":[{"internalType":"address[]","name":"coin","type":"address[]"},{"internalType":"uint256[]","name":"amount","type":"uint256[]"}],"stateMutability":"nonpayable","type":"function"},{"inputs":[{"internalType":"address","name":"address_","type":"address"}],"name":"getBalance","outputs":[{"internalType":"address","name":"","type":"address"},{"internalType":"bytes32","name":"","type":"bytes32"},{"internalType":"address[]","name":"","type":"address[]"},{"internalType":"uint256[]","name":"","type":"uint256[]"},{"internalType":"uint256","name":"","type":"uint256"}],"stateMutability":"view","type":"function"},{"inputs":[{"internalType":"address","name":"type_","type":"address"},{"internalType":"address","name":"fromAdd_","type":"address"}],"name":"getBalanceFromAAVE","outputs":[{"internalType":"uint256","name":"","type":"uint256"}],"stateMutability":"view","type":"function"},{"inputs":[{"internalType":"uint16","name":"_version","type":"uint16"},{"internalType":"uint16","name":"_chainId","type":"uint16"},{"internalType":"address","name":"","type":"address"},{"internalType":"uint256","name":"_configType","type":"uint256"}],"name":"getConfig","outputs":[{"internalType":"bytes","name":"","type":"bytes"}],"stateMutability":"view","type":"function"},{"inputs":[{"internalType":"address","name":"user_","type":"address"}],"name":"getInterest","outputs":[{"internalType":"uint256","name":"","type":"uint256"}],"stateMutability":"view","type":"function"},{"inputs":[{"internalType":"address","name":"user_","type":"address"}],"name":"getNativeFee","outputs":[{"internalType":"uint256","name":"","type":"uint256"}],"stateMutability":"view","type":"function"},{"inputs":[{"internalType":"uint16","name":"remoteChainId","type":"uint16"}],"name":"getOracle","outputs":[{"internalType":"address","name":"_oracle","type":"address"}],"stateMutability":"view","type":"function"},{"inputs":[{"internalType":"address","name":"user_","type":"address"}],"name":"getSize","outputs":[{"internalType":"bytes","name":"encoded","type":"bytes"}],"stateMutability":"view","type":"function"},{"inputs":[{"internalType":"address","name":"asset","type":"address"}],"name":"getTotalValue","outputs":[{"internalType":"uint256","name":"currentATokenBalance","type":"uint256"}],"stateMutability":"view","type":"function"},{"inputs":[{"internalType":"uint16","name":"_remoteChainId","type":"uint16"}],"name":"getTrustedRemoteAddress","outputs":[{"internalType":"bytes","name":"","type":"bytes"}],"stateMutability":"view","type":"function"},{"inputs":[{"internalType":"address","name":"asset","type":"address"},{"internalType":"address","name":"user","type":"address"}],"name":"getUserReserveData","outputs":[{"internalType":"uint256","name":"currentATokenBalance","type":"uint256"},{"internalType":"uint256","name":"currentStableDebt","type":"uint256"},{"internalType":"uint256","name":"currentVariableDebt","type":"uint256"},{"internalType":"uint256","name":"principalStableDebt","type":"uint256"},{"internalType":"uint256","name":"scaledVariableDebt","type":"uint256"},{"internalType":"uint256","name":"stableBorrowRate","type":"uint256"},{"internalType":"uint256","name":"liquidityRate","type":"uint256"},{"internalType":"uint40","name":"stableRateLastUpdated","type":"uint40"}],"stateMutability":"view","type":"function"},{"inputs":[{"internalType":"bytes32","name":"role","type":"bytes32"},{"internalType":"address","name":"account","type":"address"}],"name":"hasRole","outputs":[{"internalType":"bool","name":"","type":"bool"}],"stateMutability":"view","type":"function"},{"inputs":[{"internalType":"uint16","name":"_srcChainId","type":"uint16"},{"internalType":"bytes","name":"_srcAddress","type":"bytes"}],"name":"hasStoredPayload","outputs":[],"stateMutability":"nonpayable","type":"function"},{"inputs":[{"internalType":"bytes32","name":"message","type":"bytes32"}],"name":"hashMessage","outputs":[{"internalType":"bytes32","name":"messageHash","type":"bytes32"}],"stateMutability":"pure","type":"function"},{"inputs":[],"name":"interest","outputs":[{"internalType":"address","name":"","type":"address"}],"stateMutability":"view","type":"function"},{"inputs":[{"internalType":"address","name":"","type":"address"}],"name":"interestAmount","outputs":[{"internalType":"uint256","name":"","type":"uint256"}],"stateMutability":"view","type":"function"},{"inputs":[],"name":"isOpen","outputs":[{"internalType":"bool","name":"","type":"bool"}],"stateMutability":"view","type":"function"},{"inputs":[{"internalType":"address","name":"","type":"address"}],"name":"isSupDe","outputs":[{"internalType":"bool","name":"","type":"bool"}],"stateMutability":"view","type":"function"},{"inputs":[{"internalType":"address","name":"","type":"address"}],"name":"isTrueForCoin","outputs":[{"internalType":"bool","name":"","type":"bool"}],"stateMutability":"view","type":"function"},{"inputs":[{"internalType":"uint16","name":"_srcChainId","type":"uint16"},{"internalType":"bytes","name":"_srcAddress","type":"bytes"}],"name":"isTrustedRemote","outputs":[{"internalType":"bool","name":"","type":"bool"}],"stateMutability":"view","type":"function"},{"inputs":[],"name":"lzEndpoint","outputs":[{"internalType":"contract ILayerZeroEndpoint","name":"","type":"address"}],"stateMutability":"view","type":"function"},{"inputs":[{"internalType":"uint16","name":"_srcChainId","type":"uint16"},{"internalType":"bytes","name":"_srcAddress","type":"bytes"},{"internalType":"uint64","name":"_nonce","type":"uint64"},{"internalType":"bytes","name":"_payload","type":"bytes"}],"name":"lzReceive","outputs":[],"stateMutability":"nonpayable","type":"function"},{"inputs":[{"internalType":"uint16","name":"","type":"uint16"},{"internalType":"uint16","name":"","type":"uint16"}],"name":"minDstGasLookup","outputs":[{"internalType":"uint256","name":"","type":"uint256"}],"stateMutability":"view","type":"function"},{"inputs":[{"internalType":"uint16","name":"_srcChainId","type":"uint16"},{"internalType":"bytes","name":"_srcAddress","type":"bytes"},{"internalType":"uint64","name":"_nonce","type":"uint64"},{"internalType":"bytes","name":"_payload","type":"bytes"}],"name":"nonblockingLzReceive","outputs":[],"stateMutability":"nonpayable","type":"function"},{"inputs":[],"name":"owner","outputs":[{"internalType":"address","name":"","type":"address"}],"stateMutability":"view","type":"function"},{"inputs":[],"name":"pendingOwner","outputs":[{"internalType":"address","name":"","type":"address"}],"stateMutability":"view","type":"function"},{"inputs":[],"name":"precrime","outputs":[{"internalType":"address","name":"","type":"address"}],"stateMutability":"view","type":"function"},{"inputs":[],"name":"renounceOwnership","outputs":[],"stateMutability":"nonpayable","type":"function"},{"inputs":[{"internalType":"uint16","name":"_srcChainId","type":"uint16"},{"internalType":"bytes","name":"_srcAddress","type":"bytes"},{"internalType":"uint64","name":"_nonce","type":"uint64"},{"internalType":"bytes","name":"_payload","type":"bytes"}],"name":"retryMessage","outputs":[],"stateMutability":"payable","type":"function"},{"inputs":[{"internalType":"uint16","name":"_srcChainId","type":"uint16"},{"internalType":"bytes","name":"_srcAddress","type":"bytes"},{"internalType":"bytes","name":"_payload","type":"bytes"}],"name":"retryPayload","outputs":[],"stateMutability":"nonpayable","type":"function"},{"inputs":[{"internalType":"uint16","name":"version","type":"uint16"},{"internalType":"uint256","name":"gasForDestinationLzReceive","type":"uint256"}],"name":"setAdapterParams","outputs":[],"stateMutability":"nonpayable","type":"function"},{"inputs":[{"internalType":"uint16","name":"_version","type":"uint16"},{"internalType":"uint16","name":"_chainId","type":"uint16"},{"internalType":"uint256","name":"_configType","type":"uint256"},{"internalType":"bytes","name":"_config","type":"bytes"}],"name":"setConfig","outputs":[],"stateMutability":"nonpayable","type":"function"},{"inputs":[{"internalType":"address[]","name":"coin_","type":"address[]"},{"internalType":"bool","name":"re_","type":"bool"}],"name":"setDeCoinList","outputs":[],"stateMutability":"nonpayable","type":"function"},{"inputs":[{"internalType":"bool","name":"re_","type":"bool"}],"name":"setIsOpen","outputs":[],"stateMutability":"nonpayable","type":"function"},{"inputs":[{"internalType":"uint16","name":"_dstChainId","type":"uint16"},{"internalType":"uint16","name":"_packetType","type":"uint16"},{"internalType":"uint256","name":"_minGas","type":"uint256"}],"name":"setMinDstGas","outputs":[],"stateMutability":"nonpayable","type":"function"},{"inputs":[{"internalType":"uint16","name":"dstChainId","type":"uint16"},{"internalType":"address","name":"oracle","type":"address"}],"name":"setOracle","outputs":[],"stateMutability":"nonpayable","type":"function"},{"inputs":[{"internalType":"address","name":"_precrime","type":"address"}],"name":"setPrecrime","outputs":[],"stateMutability":"nonpayable","type":"function"},{"inputs":[{"internalType":"uint16","name":"_version","type":"uint16"}],"name":"setReceiveVersion","outputs":[],"stateMutability":"nonpayable","type":"function"},{"inputs":[{"internalType":"uint16","name":"_version","type":"uint16"}],"name":"setSendVersion","outputs":[],"stateMutability":"nonpayable","type":"function"},{"inputs":[{"internalType":"address","name":"add_","type":"address"},{"internalType":"bool","name":"re","type":"bool"}],"name":"setSupDe","outputs":[],"stateMutability":"nonpayable","type":"function"},{"inputs":[{"internalType":"uint16","name":"_srcChainId","type":"uint16"},{"internalType":"bytes","name":"_path","type":"bytes"}],"name":"setTrustedRemote","outputs":[],"stateMutability":"nonpayable","type":"function"},{"inputs":[{"internalType":"uint16","name":"_remoteChainId","type":"uint16"},{"internalType":"bytes","name":"_remoteAddress","type":"bytes"}],"name":"setTrustedRemoteAddress","outputs":[],"stateMutability":"nonpayable","type":"function"},{"inputs":[{"internalType":"address","name":"add","type":"address"},{"internalType":"uint256","name":"type_","type":"uint256"}],"name":"setWhilLlist","outputs":[],"stateMutability":"nonpayable","type":"function"},{"inputs":[{"internalType":"address","name":"","type":"address"}],"name":"totalFee","outputs":[{"internalType":"uint256","name":"","type":"uint256"}],"stateMutability":"view","type":"function"},{"inputs":[{"internalType":"address","name":"newOwner","type":"address"}],"name":"transferOwnership","outputs":[],"stateMutability":"nonpayable","type":"function"},{"inputs":[{"internalType":"uint16","name":"","type":"uint16"}],"name":"trustedRemoteLookup","outputs":[{"internalType":"bytes","name":"","type":"bytes"}],"stateMutability":"view","type":"function"},{"inputs":[],"name":"usdt","outputs":[{"internalType":"address","name":"","type":"address"}],"stateMutability":"view","type":"function"},{"inputs":[{"internalType":"bytes32","name":"messageHash","type":"bytes32"},{"internalType":"bytes","name":"signature","type":"bytes"}],"name":"verifyEcrecover","outputs":[{"internalType":"address","name":"recoveredAddress","type":"address"}],"stateMutability":"pure","type":"function"},{"inputs":[{"internalType":"address","name":"","type":"address"}],"name":"whlieList","outputs":[{"internalType":"bool","name":"","type":"bool"}],"stateMutability":"view","type":"function"},{"inputs":[{"internalType":"uint256[]","name":"amount_","type":"uint256[]"},{"internalType":"address[]","name":"coinType_","type":"address[]"}],"name":"withdraw","outputs":[],"stateMutability":"nonpayable","type":"function"},{"inputs":[{"internalType":"address","name":"add_","type":"address"},{"internalType":"uint256","name":"amount_","type":"uint256"}],"name":"withdrawFee","outputs":[],"stateMutability":"nonpayable","type":"function"},{"inputs":[{"internalType":"uint256","name":"amount_","type":"uint256"},{"internalType":"address","name":"coinType_","type":"address"}],"name":"withdrawInterest","outputs":[],"stateMutability":"nonpayable","type":"function"}],"devdoc":{"kind":"dev","methods":{"acceptOwnership()":{"details":"The new owner accepts the ownership transfer."},"owner()":{"details":"Returns the address of the current owner."},"pendingOwner()":{"details":"Returns the address of the pending owner."},"renounceOwnership()":{"details":"Leaves the contract without owner. It will not be possible to call `onlyOwner` functions anymore. Can only be called by the current owner. NOTE: Renouncing ownership will leave the contract without an owner, thereby removing any functionality that is only available to the owner."},"transferOwnership(address)":{"details":"Starts the ownership transfer of the contract to a new account. Replaces the pending transfer if there is one. Can only be called by the current owner."}},"version":1},"evm":{"bytecode":{"linkReferences":{},"object":"60a06040523480156200001157600080fd5b5060405162005e5238038062005e5283398101604081905262000034916200013b565b82806200004133620000a2565b6001600160a01b03908116608052600180546001600160a01b03199081169783169790971781556000805461ffff191661ffff96909616959095179094556006805460ff191690941790935550600a805490941691161790915550620001a0565b600c80546001600160a01b0319169055620000c981620000cc602090811b6200370e17901c565b50565b600b80546001600160a01b038381166001600160a01b0319831681179093556040519116919082907f8be0079c531659141344cd1fd0a4f28419497f9722a3daafe3b4186f6b6457e090600090a35050565b80516001600160a01b03811681146200013657600080fd5b919050565b600080600080608085870312156200015257600080fd5b6200015d856200011e565b93506200016d602086016200011e565b9250604085015161ffff811681146200018557600080fd5b915062000195606086016200011e565b905092959194509250565b608051615c3b6200021760003960008181610a9d01528181610d830152818161104f015281816111770152818161121801528181611b6f015281816120bf015281816123520152818161296c01528181612b3e01528181613075015281816130a4015281816132cf015261435f0152615c3b6000f3fe6080604052600436106103095760003560e01c80621d35671461030e578063021b9359146103305780630707a0f01461036657806307e0db17146103ad578063083118d5146103cd578063085a10cf146103ef5780630eaf6ea61461040f57806310ddb1371461042f5780631210aac21461044f57806316e576521461046f57806319fc2e611461048f57806328dd2d01146104c357806329e26b10146105255780632a0276f8146105655780632f48ab7d1461058757806330c593f7146105a75780633d8b38f6146105d557806342d65a8d146105f557806347535d7b1461061557806347e7ef241461062f5780634893c26a14610642578063492e527e14610672578063504f1671146106925780635358fbda146106b257806357463d35146106c55780635b8c41e6146106fa5780635e5c06e21461074957806366ad5c8a146107dc57806368637549146107fc5780636d1daa281461081c578063715018a61461083c5780637533d7881461085157806379ba5097146108715780637a4fda3d146108865780637aaa3470146108b3578063806b834d146108e9578063819faf7b146109095780638cfd8f5c146109295780638da5cb5b1461096157806391d1485414610976578063950c8a74146109965780639f38369a146109b6578063a217fddf146109d6578063a304dcf4146109eb578063a4ca74db14610a0b578063a6c3d16514610a2b578063aaff5f1614610a4b578063b273f20714610a6b578063b353aaa714610a8b578063b3cb890f14610abf578063b7a745c614610adf578063baf3292d14610b0f578063bd99d7e114610b2f578063c392f76614610b5f578063c779c1c314610b85578063cbed8b9c14610bb2578063d1deba1f14610bd2578063d667a5da14610be5578063df2a5b3b14610c08578063e2f2882414610c28578063e30c397814610c48578063e52249e314610c5d578063eb8d72b714610c7d578063f2fde38b14610c9d578063f5ecbdbc14610cbd578063f8b2cb4f14610cdd578063fb89573314610d0e578063fd9be52214610d30578063ff464d3f14610d50575b600080fd5b34801561031a57600080fd5b5061032e610329366004614598565b610d80565b005b34801561033c57600080fd5b5061035061034b366004614642565b610fb1565b60405161035d919061465f565b60405180910390f35b34801561037257600080fd5b5061039f610381366004614642565b6001600160a01b031660009081526003602052604090206007015490565b60405190815260200161035d565b3480156103b957600080fd5b5061032e6103c8366004614673565b61102e565b3480156103d957600080fd5b506103e26110b7565b60405161035d91906146e0565b3480156103fb57600080fd5b5061032e61040a366004614701565b611145565b34801561041b57600080fd5b5061032e61042a36600461471e565b611160565b34801561043b57600080fd5b5061032e61044a366004614673565b6111f7565b34801561045b57600080fd5b5061032e61046a366004614772565b61124f565b34801561047b57600080fd5b5061032e61048a3660046148cb565b61137a565b34801561049b57600080fd5b5061039f7f52941335797217779ab62cf10a3ae2b6d453b5f3a1285e7a816eb9f63a58d66981565b3480156104cf57600080fd5b506104e36104de366004614983565b6116b0565b604080519889526020890197909752958701949094526060860192909252608085015260a084015260c083015264ffffffffff1660e08201526101000161035d565b34801561053157600080fd5b50610555610540366004614642565b60126020526000908152604090205460ff1681565b604051901515815260200161035d565b34801561057157600080fd5b5061039f600080516020615bc683398151915281565b34801561059357600080fd5b50600a54610350906001600160a01b031681565b3480156105b357600080fd5b506000546105c29061ffff1681565b60405161ffff909116815260200161035d565b3480156105e157600080fd5b506105556105f036600461471e565b611a84565b34801561060157600080fd5b5061032e61061036600461471e565b611b50565b34801561062157600080fd5b506006546105559060ff1681565b61032e61063d3660046149b1565b611bd6565b34801561064e57600080fd5b5061055561065d366004614642565b60096020526000908152604090205460ff1681565b34801561067e57600080fd5b5061032e61068d3660046149dd565b61209d565b34801561069e57600080fd5b506103e26106ad366004614642565b61217e565b61032e6106c03660046149fb565b612212565b3480156106d157600080fd5b506106e56106e0366004614642565b61233e565b6040805192835260208301919091520161035d565b34801561070657600080fd5b5061039f610715366004614a8c565b6010602090815260009384526040808520845180860184018051928152908401958401959095209452929052825290205481565b34801561075557600080fd5b506107a5610764366004614642565b60036020819052600091825260409091208054600182015492820154600483015460068401546007909401546001600160a01b039093169493919290919086565b604080516001600160a01b0390971687526020870195909552938501929092526060840152608083015260a082015260c00161035d565b3480156107e857600080fd5b5061032e6107f7366004614598565b6123f7565b34801561080857600080fd5b5061039f610817366004614642565b6124d3565b34801561082857600080fd5b5061032e610837366004614aeb565b6125c5565b34801561084857600080fd5b5061032e612610565b34801561085d57600080fd5b506103e261086c366004614673565b612624565b34801561087d57600080fd5b5061032e61263d565b34801561089257600080fd5b5061039f6108a1366004614642565b60136020526000908152604090205481565b3480156108bf57600080fd5b5061039f6108ce366004614642565b6001600160a01b031660009081526011602052604090205490565b3480156108f557600080fd5b5061039f610904366004614983565b6126bb565b34801561091557600080fd5b50600154610350906001600160a01b031681565b34801561093557600080fd5b5061039f610944366004614b09565b600e60209081526000928352604080842090915290825290205481565b34801561096d57600080fd5b506103506126ee565b34801561098257600080fd5b50610555610991366004614772565b6126fd565b3480156109a257600080fd5b50600f54610350906001600160a01b031681565b3480156109c257600080fd5b506103e26109d1366004614673565b612728565b3480156109e257600080fd5b5061039f600081565b3480156109f757600080fd5b5061032e610a06366004614b37565b612837565b348015610a1757600080fd5b5061032e610a26366004614b65565b61286a565b348015610a3757600080fd5b5061032e610a4636600461471e565b6128d9565b348015610a5757600080fd5b5061032e610a66366004614bab565b612955565b348015610a7757600080fd5b50610350610a86366004614c2d565b6129e2565b348015610a9757600080fd5b506103507f000000000000000000000000000000000000000000000000000000000000000081565b348015610acb57600080fd5b5061039f610ada3660046149fb565b612a6f565b348015610aeb57600080fd5b50610555610afa366004614642565b60146020526000908152604090205460ff1681565b348015610b1b57600080fd5b5061032e610b2a366004614642565b612ac1565b348015610b3b57600080fd5b5061039f610b4a3660046149fb565b60076020526000908152604090206001015481565b348015610b6b57600080fd5b50600054610350906201000090046001600160a01b031681565b348015610b9157600080fd5b5061039f610ba0366004614642565b60116020526000908152604090205481565b348015610bbe57600080fd5b5061032e610bcd366004614c69565b612b1f565b61032e610be0366004614598565b612b7b565b348015610bf157600080fd5b50610bfa612d91565b60405161035d929190614d3e565b348015610c1457600080fd5b5061032e610c23366004614d63565b612fbe565b348015610c3457600080fd5b50610350610c43366004614673565b613070565b348015610c5457600080fd5b506103506131a2565b348015610c6957600080fd5b5061032e610c783660046149b1565b6131b1565b348015610c8957600080fd5b5061032e610c9836600461471e565b6131f5565b348015610ca957600080fd5b5061032e610cb8366004614642565b61324f565b348015610cc957600080fd5b506103e2610cd8366004614da4565b6132b5565b348015610ce957600080fd5b50610cfd610cf8366004614642565b613358565b60405161035d959493929190614df5565b348015610d1a57600080fd5b5061039f600080516020615be683398151915281565b348015610d3c57600080fd5b5061032e610d4b3660046149b1565b6135d3565b348015610d5c57600080fd5b50610555610d6b366004614642565b60046020526000908152604090205460ff1681565b337f00000000000000000000000000000000000000000000000000000000000000006001600160a01b031614610dfd5760405162461bcd60e51b815260206004820152601e60248201527f4c7a4170703a20696e76616c696420656e64706f696e742063616c6c6572000060448201526064015b60405180910390fd5b61ffff86166000908152600d602052604081208054610e1b90614e41565b80601f0160208091040260200160405190810160405280929190818152602001828054610e4790614e41565b8015610e945780601f10610e6957610100808354040283529160200191610e94565b820191906000526020600020905b815481529060010190602001808311610e7757829003601f168201915b50505050509050805186869050148015610eaf575060008151115b8015610ed7575080516020820120604051610ecd9088908890614e7b565b6040518091039020145b610f325760405162461bcd60e51b815260206004820152602660248201527f4c7a4170703a20696e76616c696420736f757263652073656e64696e6720636f6044820152651b9d1c9858dd60d21b6064820152608401610df4565b610fa88787878080601f01602080910402602001604051908101604052809392919081815260200183838082843760009201919091525050604080516020601f8a018190048102820181019092528881528a93509150889088908190840183828082843760009201919091525061376092505050565b50505050505050565b6001546040516335ea6a7560e01b81526000916001600160a01b0316906335ea6a7590610fe290859060040161465f565b61018060405180830381865afa158015611000573d6000803e3d6000fd5b505050506040513d601f19601f820116820180604052508101906110249190614f14565b60e0015192915050565b6110366137d9565b6040516307e0db1760e01b815261ffff821660048201527f00000000000000000000000000000000000000000000000000000000000000006001600160a01b0316906307e0db17906024015b600060405180830381600087803b15801561109c57600080fd5b505af11580156110b0573d6000803e3d6000fd5b5050505050565b600280546110c490614e41565b80601f01602080910402602001604051908101604052809291908181526020018280546110f090614e41565b801561113d5780601f106111125761010080835404028352916020019161113d565b820191906000526020600020905b81548152906001019060200180831161112057829003601f168201915b505050505081565b61114d6137d9565b6006805460ff1916911515919091179055565b604051630757b75360e11b81526001600160a01b037f00000000000000000000000000000000000000000000000000000000000000001690630eaf6ea6906111b09086908690869060040161502a565b602060405180830381865afa1580156111cd573d6000803e3d6000fd5b505050506040513d601f19601f820116820180604052508101906111f19190615053565b50505050565b6111ff6137d9565b6040516310ddb13760e01b815261ffff821660048201527f00000000000000000000000000000000000000000000000000000000000000006001600160a01b0316906310ddb13790602401611082565b60065460ff1615156001146112765760405162461bcd60e51b8152600401610df490615070565b336000908152601160205260409020548211156112a55760405162461bcd60e51b8152600401610df490615091565b33600090815260116020526040812080548492906112c49084906150d5565b909155505060405163a9059cbb60e01b81526001600160a01b0382169063a9059cbb906112f790339086906004016150e8565b6020604051808303816000875af1158015611316573d6000803e3d6000fd5b505050506040513d601f19601f8201168201806040525081019061133a9190615053565b507fbb992170d0382feeb939a59875390a636bd942134e6e58925caf64c99432820a33828460405161136e93929190615101565b60405180910390a15050565b60065460ff1615156001146113a15760405162461bcd60e51b8152600401610df490615070565b33600090815260036020526040902081518351146113f25760405162461bcd60e51b815260206004820152600e60248201526d082e4e4c2f240dad2e6dac2e8c6d60931b6044820152606401610df4565b60005b835181101561166f57600082600201600085848151811061141857611418615125565b60200260200101516001600160a01b03166001600160a01b0316815260200190815260200160002054905084828151811061145557611455615125565b602002602001015181101561147c5760405162461bcd60e51b8152600401610df49061513b565b84828151811061148e5761148e615125565b60200260200101518360020160008685815181106114ae576114ae615125565b60200260200101516001600160a01b03166001600160a01b0316815260200190815260200160002060008282546114e591906150d5565b9091555050835160009085908490811061150157611501615125565b60200260200101516001600160a01b03160361156f57336001600160a01b03166108fc86848151811061153657611536615125565b60200260200101519081150290604051600060405180830381858888f19350505050158015611569573d6000803e3d6000fd5b5061165c565b600084838151811061158357611583615125565b60200260200101516001600160a01b031663a9059cbb338886815181106115ac576115ac615125565b60200260200101516040518363ffffffff1660e01b81526004016115d19291906150e8565b6020604051808303816000875af11580156115f0573d6000803e3d6000fd5b505050506040513d601f19601f820116820180604052508101906116149190615053565b905060018115151461165a5760405162461bcd60e51b815260206004820152600f60248201526e15da5d1a191c985dc819985a5b1959608a1b6044820152606401610df4565b505b508061166781615169565b9150506113f5565b507fd4de851ae1bdf4ea540c1d68657b95bdc9710e532c03bf807c1a7107d238706b8284336040516116a393929190615182565b60405180910390a1505050565b6001546040516335ea6a7560e01b8152600091829182918291829182918291829182916001600160a01b0316906335ea6a75906116f1908e9060040161465f565b61018060405180830381865afa15801561170f573d6000803e3d6000fd5b505050506040513d601f19601f820116820180604052508101906117339190614f14565b60e08101516040516370a0823160e01b81529192506001600160a01b0316906370a0823190611766908d9060040161465f565b602060405180830381865afa158015611783573d6000803e3d6000fd5b505050506040513d601f19601f820116820180604052508101906117a791906151c0565b6101208201516040516370a0823160e01b8152919a506001600160a01b0316906370a08231906117db908d9060040161465f565b602060405180830381865afa1580156117f8573d6000803e3d6000fd5b505050506040513d601f19601f8201168201806040525081019061181c91906151c0565b6101008201516040516370a0823160e01b81529198506001600160a01b0316906370a0823190611850908d9060040161465f565b602060405180830381865afa15801561186d573d6000803e3d6000fd5b505050506040513d601f19601f8201168201806040525081019061189191906151c0565b61010082015160405163631a6fd560e11b81529199506001600160a01b03169063c634dfaa906118c5908d9060040161465f565b602060405180830381865afa1580156118e2573d6000803e3d6000fd5b505050506040513d601f19601f8201168201806040525081019061190691906151c0565b610120820151604051630ed1279f60e11b81529197506001600160a01b031690631da24f3e9061193a908d9060040161465f565b602060405180830381865afa158015611957573d6000803e3d6000fd5b505050506040513d601f19601f8201168201806040525081019061197b91906151c0565b945080606001516001600160801b031692508061010001516001600160a01b031663e78c9b3b8b6040518263ffffffff1660e01b81526004016119be919061465f565b602060405180830381865afa1580156119db573d6000803e3d6000fd5b505050506040513d601f19601f820116820180604052508101906119ff91906151c0565b610100820151604051631e739ae360e21b81529195506001600160a01b0316906379ce6b8c90611a33908d9060040161465f565b602060405180830381865afa158015611a50573d6000803e3d6000fd5b505050506040513d601f19601f82011682018060405250810190611a7491906151d9565b9150509295985092959890939650565b61ffff83166000908152600d602052604081208054829190611aa590614e41565b80601f0160208091040260200160405190810160405280929190818152602001828054611ad190614e41565b8015611b1e5780601f10611af357610100808354040283529160200191611b1e565b820191906000526020600020905b815481529060010190602001808311611b0157829003601f168201915b505050505090508383604051611b35929190614e7b565b60405180910390208180519060200120149150509392505050565b611b586137d9565b6040516342d65a8d60e01b81526001600160a01b037f000000000000000000000000000000000000000000000000000000000000000016906342d65a8d90611ba89086908690869060040161502a565b600060405180830381600087803b158015611bc257600080fd5b505af1158015610fa8573d6000803e3d6000fd5b600654600090819060ff161515600114611c1c5760405162461bcd60e51b8152602060048201526007602482015266436c6f73696e6760c81b6044820152606401610df4565b6001600160a01b03841660009081526012602052604090205460ff161515600114611c9c5760405162461bcd60e51b815260206004820152602a60248201527f526563686172676520696e20746869732063757272656e6379206973206e6f74604482015269081cdd5c1c1bdc9d195960b21b6064820152608401610df4565b6040516370a0823160e01b815283906001600160a01b038616906370a0823190611cca90339060040161465f565b602060405180830381865afa158015611ce7573d6000803e3d6000fd5b505050506040513d601f19601f82011682018060405250810190611d0b91906151c0565b1015611d295760405162461bcd60e51b8152600401610df49061513b565b604051636eb1769f60e11b815283906001600160a01b0386169063dd62ed3e90611d5990339030906004016151f4565b602060405180830381865afa158015611d76573d6000803e3d6000fd5b505050506040513d601f19601f82011682018060405250810190611d9a91906151c0565b1015611db85760405162461bcd60e51b8152600401610df49061520e565b6040516370a0823160e01b81526000906001600160a01b038616906370a0823190611de790339060040161465f565b602060405180830381865afa158015611e04573d6000803e3d6000fd5b505050506040513d601f19601f82011682018060405250810190611e2891906151c0565b6040516323b872dd60e01b81529091506001600160a01b038616906323b872dd90611e5b90339030908990600401615101565b6020604051808303816000875af1158015611e7a573d6000803e3d6000fd5b505050506040513d601f19601f82011682018060405250810190611e9e9190615053565b50611ea984826150d5565b6040516370a0823160e01b81526001600160a01b038716906370a0823190611ed590339060040161465f565b602060405180830381865afa158015611ef2573d6000803e3d6000fd5b505050506040513d601f19601f82011682018060405250810190611f1691906151c0565b14611f335760405162461bcd60e51b8152600401610df49061513b565b6000611f3e3361233e565b50905034811115611f615760405162461bcd60e51b8152600401610df490615238565b6001600160a01b03861660009081526004602052604090205460ff16151560010361200357600a5460019450600090611fa2906001600160a01b03166124d3565b9050611fae8787613838565b600a54611fc3906001600160a01b03166124d3565b611fcd828861526c565b611fd791906150d5565b60010361200157600a54611ff3906001600160a01b03166124d3565b611ffe90600161526c565b93505b505b600a54612018906001600160a01b03166124d3565b60005460405191945061205a9161ffff909116906120459033908a908a908a906001908b9060200161527f565b604051602081830303815290604052346139b3565b7f448d2b6792a74a21bfa5114f7cd01a036f36236f4e3687339032e97103e653ce86863360405161208d939291906152d8565b60405180910390a1505050505050565b6120a56137d9565b6040516304b2b47b60e11b81526006906001600160a01b037f0000000000000000000000000000000000000000000000000000000000000000169063cbed8b9c90829063096568f6906120fc90309060040161465f565b602060405180830381865afa158015612119573d6000803e3d6000fd5b505050506040513d601f19601f8201168201806040525081019061213d91906152fb565b858486604051602001612150919061465f565b6040516020818303038152906040526040518563ffffffff1660e01b8152600401611ba89493929190615318565b6060816000806127106000600a6121a9600a60009054906101000a90046001600160a01b03166124d3565b604080516001600160a01b03909816602089015260ff96871690880152938516606087015261ffff9092166080860152831660a08501529190911660c083015260e0820152620f4240610100820152610120016040516020818303038152906040529050919050565b60065460ff1615156001146122395760405162461bcd60e51b8152600401610df490615070565b60006122443361233e565b50905034612252828461526c565b11156122925760405162461bcd60e51b815260206004820152600f60248201526e0c2dadeeadce840dcde40dac2e8c6d608b1b6044820152606401610df4565b348111156122b25760405162461bcd60e51b8152600401610df490615238565b60008054600a546123099261ffff909216913391869082906002906122df906001600160a01b03166124d3565b6040516020016122f49695949392919061527f565b604051602081830303815290604052836139b3565b604080518381523360208201527f0f007803da765bf8bfb79898e5892989976c0f6b9f69dd946cb8b949c781587a910161136e565b600080548190819081906001600160a01b037f000000000000000000000000000000000000000000000000000000000000000016906340a7bb109061ffff16306123878961217e565b600060026040518663ffffffff1660e01b81526004016123ab95949392919061534f565b6040805180830381865afa1580156123c7573d6000803e3d6000fd5b505050506040513d601f19601f820116820180604052508101906123eb919061540d565b90969095509350505050565b3330146124555760405162461bcd60e51b815260206004820152602660248201527f4e6f6e626c6f636b696e674c7a4170703a2063616c6c6572206d7573742062656044820152650204c7a4170760d41b6064820152608401610df4565b6124cb8686868080601f01602080910402602001604051908101604052809392919081815260200183838082843760009201919091525050604080516020601f890181900481028201810190925287815289935091508790879081908401838280828437600092019190915250613a4c92505050565b505050505050565b6001546040516335ea6a7560e01b815260009182916001600160a01b03909116906335ea6a759061250890869060040161465f565b61018060405180830381865afa158015612526573d6000803e3d6000fd5b505050506040513d601f19601f8201168201806040525081019061254a9190614f14565b60e08101516040516370a0823160e01b81529192506001600160a01b0316906370a082319061257d90309060040161465f565b602060405180830381865afa15801561259a573d6000803e3d6000fd5b505050506040513d601f19601f820116820180604052508101906125be91906151c0565b9392505050565b6125cd6137d9565b6040516001600160f01b031960f084901b166020820152602281018290526042016040516020818303038152906040526002908161260b919061548c565b505050565b6126186137d9565b6126226000613f78565b565b600d60205260009081526040902080546110c490614e41565b33806126476131a2565b6001600160a01b0316146126af5760405162461bcd60e51b815260206004820152602960248201527f4f776e61626c6532537465703a2063616c6c6572206973206e6f7420746865206044820152683732bb9037bbb732b960b91b6064820152608401610df4565b6126b881613f78565b50565b60008060006126ca85856116b0565b50505050509250509150600081836126e291906150d5565b93505050505b92915050565b600b546001600160a01b031690565b60009182526007602090815260408084206001600160a01b0393909316845291905290205460ff1690565b61ffff81166000908152600d602052604081208054606092919061274b90614e41565b80601f016020809104026020016040519081016040528092919081815260200182805461277790614e41565b80156127c45780601f10612799576101008083540402835291602001916127c4565b820191906000526020600020905b8154815290600101906020018083116127a757829003601f168201915b50505050509050805160000361281c5760405162461bcd60e51b815260206004820152601d60248201527f4c7a4170703a206e6f20747275737465642070617468207265636f72640000006044820152606401610df4565b6125be60006014835161282f91906150d5565b839190613f91565b61283f6137d9565b6001600160a01b03919091166000908152600460205260409020805460ff1916911515919091179055565b6128726137d9565b60005b825181101561260b57816012600085848151811061289557612895615125565b6020908102919091018101516001600160a01b03168252810191909152604001600020805460ff1916911515919091179055806128d181615169565b915050612875565b6128e16137d9565b8181306040516020016128f693929190615545565b60408051601f1981840301815291815261ffff85166000908152600d6020522090612921908261548c565b507f8c0400cfe2d1199b1a725c78960bcc2a344d869b80590d0f2bd005db15a572ce8383836040516116a39392919061502a565b60405163557faf8b60e11b81526001600160a01b037f0000000000000000000000000000000000000000000000000000000000000000169063aaff5f16906129a99088908890889088908890600401615566565b600060405180830381600087803b1580156129c357600080fd5b505af11580156129d7573d6000803e3d6000fd5b505050505050505050565b6000806129ee84612a6f565b905060008060006129fe8661409e565b60408051600081526020810180835289905260ff8516918101919091526060810183905260808101829052929550909350915060019060a0016020604051602081039080840390855afa158015612a59573d6000803e3d6000fd5b5050604051601f19015198975050505050505050565b6040517b0ca2ba3432b932bab69029b4b3b732b21026b2b9b9b0b3b29d05199960211b6020820152603c8101829052600090605c01604051602081830303815290604052805190602001209050919050565b612ac96137d9565b600f80546001600160a01b0319166001600160a01b0383161790556040517f5db758e995a17ec1ad84bdef7e8c3293a0bd6179bcce400dff5d4c3d87db726b90612b1490839061465f565b60405180910390a150565b612b276137d9565b6040516332fb62e760e21b81526001600160a01b037f0000000000000000000000000000000000000000000000000000000000000000169063cbed8b9c906129a990889088908890889088906004016155a3565b61ffff86166000908152601060205260408082209051612b9e9088908890614e7b565b90815260408051602092819003830190206001600160401b03871660009081529252902054905080612c1e5760405162461bcd60e51b815260206004820152602360248201527f4e6f6e626c6f636b696e674c7a4170703a206e6f2073746f726564206d65737360448201526261676560e81b6064820152608401610df4565b808383604051612c2f929190614e7b565b604051809103902014612c8e5760405162461bcd60e51b815260206004820152602160248201527f4e6f6e626c6f636b696e674c7a4170703a20696e76616c6964207061796c6f616044820152601960fa1b6064820152608401610df4565b61ffff87166000908152601060205260408082209051612cb19089908990614e7b565b90815260408051602092819003830181206001600160401b038916600090815290845282902093909355601f88018290048202830182019052868252612d49918991899089908190840183828082843760009201919091525050604080516020601f8a018190048102820181019092528881528a935091508890889081908401838280828437600092019190915250613a4c92505050565b7fc264d91f3adc5588250e1551f547752ca0cfa8f6b530d243b9f9f4cab10ea8e58787878785604051612d809594939291906155dc565b60405180910390a150505050505050565b6060806000805b600854811015612e065760006013600060088481548110612dbb57612dbb615125565b60009182526020808320909101546001600160a01b031683528201929092526040019020541115612df45781612df081615169565b9250505b80612dfe81615169565b915050612d98565b506000816001600160401b03811115612e2157612e216147a2565b604051908082528060200260200182016040528015612e4a578160200160208202803683370190505b5090506000826001600160401b03811115612e6757612e676147a2565b604051908082528060200260200182016040528015612e90578160200160208202803683370190505b50905060005b600854811015612fb65760006013600060088481548110612eb957612eb9615125565b60009182526020808320909101546001600160a01b031683528201929092526040019020541115612fa45760088181548110612ef757612ef7615125565b9060005260206000200160009054906101000a90046001600160a01b0316838281518110612f2757612f27615125565b60200260200101906001600160a01b031690816001600160a01b0316815250506013600060088381548110612f5e57612f5e615125565b60009182526020808320909101546001600160a01b031683528201929092526040019020548251839083908110612f9757612f97615125565b6020026020010181815250505b80612fae81615169565b915050612e96565b505050509091565b612fc66137d9565b6000811161300e5760405162461bcd60e51b81526020600482015260156024820152744c7a4170703a20696e76616c6964206d696e47617360581b6044820152606401610df4565b61ffff8381166000818152600e602090815260408083209487168084529482529182902085905581519283528201929092529081018290527f9d5c7c0b934da8fefa9c7760c98383778a12dfbfc0c3b3106518f43fb9508ac0906060016116a3565b6000807f00000000000000000000000000000000000000000000000000000000000000006001600160a01b031663f5ecbdbc7f00000000000000000000000000000000000000000000000000000000000000006001600160a01b031663096568f6306040518263ffffffff1660e01b81526004016130ee919061465f565b602060405180830381865afa15801561310b573d6000803e3d6000fd5b505050506040513d601f19601f8201168201806040525081019061312f91906152fb565b853060066040518563ffffffff1660e01b81526004016131529493929190615617565b600060405180830381865afa15801561316f573d6000803e3d6000fd5b505050506040513d6000823e601f3d908101601f191682016040526131979190810190615689565b602001519392505050565b600c546001600160a01b031690565b6131b96137d9565b806001036131dd576131d9600080516020615be683398151915283614110565b5050565b6131d9600080516020615bc683398151915283614110565b6131fd6137d9565b61ffff83166000908152600d6020526040902061321b8284836156bd565b507ffa41487ad5d6728f0b19276fa1eddc16558578f5109fc39d2dc33c3230470dab8383836040516116a39392919061502a565b6132576137d9565b600c80546001600160a01b0319166001600160a01b03831690811790915561327d6126ee565b6001600160a01b03167f38d16b8cac22d99fc7c124b9cd0de2d3fa1faef420bfe791d8c362d765e2270060405160405180910390a350565b604051633d7b2f6f60e21b81526060906001600160a01b037f0000000000000000000000000000000000000000000000000000000000000000169063f5ecbdbc9061330a908890889030908890600401615617565b600060405180830381865afa158015613327573d6000803e3d6000fd5b505050506040513d6000823e601f3d908101601f1916820160405261334f9190810190615689565b95945050505050565b6001600160a01b038116600090815260036020526040812081906060908190839081805b6008548110156133e9578260020160006008838154811061339f5761339f615125565b60009182526020808320909101546001600160a01b03168352820192909252604001902054156133d757816133d381615169565b9250505b806133e181615169565b91505061337c565b506000816001600160401b03811115613404576134046147a2565b60405190808252806020026020018201604052801561342d578160200160208202803683370190505b5090506000826001600160401b0381111561344a5761344a6147a2565b604051908082528060200260200182016040528015613473578160200160208202803683370190505b5090506000805b6008548110156135a7578560020160006008838154811061349d5761349d615125565b60009182526020808320909101546001600160a01b031683528201929092526040019020541561359557600881815481106134da576134da615125565b9060005260206000200160009054906101000a90046001600160a01b031684838151811061350a5761350a615125565b60200260200101906001600160a01b031690816001600160a01b0316815250508560020160006008838154811061354357613543615125565b60009182526020808320909101546001600160a01b03168352820192909252604001902054835184908490811061357c5761357c615125565b60209081029190910101528161359181615169565b9250505b8061359f81615169565b91505061347a565b5050835460018501546003909501546001600160a01b039091169b949a50919850965094509092505050565b6135db6137d9565b6001600160a01b0382166000908152601360205260409020548111156136135760405162461bcd60e51b8152600401610df490615091565b61362b600080516020615bc6833981519152336126fd565b15156001146136705760405162461bcd60e51b815260206004820152601160248201527014195c9b5a5cdcda5bdb8811195b9a5959607a1b6044820152606401610df4565b6001600160a01b038216600090815260136020526040812080548392906136989084906150d5565b909155505060405163a9059cbb60e01b81526001600160a01b0383169063a9059cbb906136cb90339085906004016150e8565b6020604051808303816000875af11580156136ea573d6000803e3d6000fd5b505050506040513d601f19601f8201168201806040525081019061260b9190615053565b600b80546001600160a01b038381166001600160a01b0319831681179093556040519116919082907f8be0079c531659141344cd1fd0a4f28419497f9722a3daafe3b4186f6b6457e090600090a35050565b6000806137c35a60966366ad5c8a60e01b898989896040516024016137889493929190615776565b60408051601f198184030181529190526020810180516001600160e01b03166001600160e01b0319909316929092179091523092919061411a565b91509150816124cb576124cb86868686856141a4565b336137e26126ee565b6001600160a01b0316146126225760405162461bcd60e51b815260206004820181905260248201527f4f776e61626c653a2063616c6c6572206973206e6f7420746865206f776e65726044820152606401610df4565b60015460405163095ea7b360e01b81526001600160a01b038481169263095ea7b39261386c929091169085906004016150e8565b6020604051808303816000875af115801561388b573d6000803e3d6000fd5b505050506040513d601f19601f820116820180604052508101906138af9190615053565b50600154604051636eb1769f60e11b815282916001600160a01b038086169263dd62ed3e926138e59230929116906004016151f4565b602060405180830381865afa158015613902573d6000803e3d6000fd5b505050506040513d601f19601f8201168201806040525081019061392691906151c0565b10156139445760405162461bcd60e51b8152600401610df49061520e565b60015460405163e8eda9df60e01b81526001600160a01b03848116600483015260248201849052306044830152600060648301529091169063e8eda9df90608401600060405180830381600087803b15801561399f57600080fd5b505af11580156124cb573d6000803e3d6000fd5b61260b8383336000600280546139c890614e41565b80601f01602080910402602001604051908101604052809291908181526020018280546139f490614e41565b8015613a415780601f10613a1657610100808354040283529160200191613a41565b820191906000526020600020905b815481529060010190602001808311613a2457829003601f168201915b505050505086614241565b60008060008060008086806020019051810190613a699190615873565b945094509450945094506000856000015186602001518760400151604051602001613a9491906159cd565b6040516020818303038152906040528860600151604051602001613ab89190615a0c565b60408051601f198184030181529082905260808b015160a08c0151613ae296959493602001615a36565b60405160208183030381529060405290508315613bb657613b1d600080516020615be68339815191526109918860c001518960e001516129e2565b1515600114613b695760405162461bcd60e51b8152602060048201526018602482015277546865207369676e6572206973206e6f742061206e6f646560401b6044820152606401610df4565b8051602082012060c08701518114613bb45760405162461bcd60e51b815260206004820152600e60248201526d496e636f7272656374206461746160901b6044820152606401610df4565b505b85516001600160a01b0390811660009081526003602090815260408220895181546001600160a01b03191694169390931783558801516001830155608088015160078301555b8451811015613cf457838181518110613c1757613c17615125565b602002602001015160136000878481518110613c3557613c35615125565b60200260200101516001600160a01b03166001600160a01b031681526020019081526020016000208190555060046000868381518110613c7757613c77615125565b6020908102919091018101516001600160a01b031682528101919091526040016000205460ff1615613ce2576000848281518110613cb757613cb7615125565b60200260200101511115613ce257838181518110613cd757613cd7615125565b602002602001015198505b80613cec81615169565b915050613bfc565b506000805b886040015151811015613ebe57613d2c89604001518281518110613d1f57613d1f615125565b60200260200101516143db565b88606001518181518110613d4257613d42615125565b60200260200101518360020160008b604001518481518110613d6657613d66615125565b60200260200101516001600160a01b03166001600160a01b031681526020019081526020016000206000828254613d9d919061526c565b92505081905550600460008a604001518381518110613dbe57613dbe615125565b6020908102919091018101516001600160a01b031682528101919091526040016000205460ff1615613eac5760019150600089606001518281518110613e0657613e06615125565b602002602001015189613e19919061526c565b1115613eac5788516001600160a01b0316600090815260116020526040812080548a9290613e4890849061526c565b92505081905550613eaa89604001518281518110613e6857613e68615125565b60200260200101518b8b606001518481518110613e8757613e87615125565b60200260200101518b613e9a919061526c565b613ea4919061526c565b30614465565b505b80613eb681615169565b915050613cf9565b5080158015613ecd5750600087115b15613f1c5787516001600160a01b031660009081526011602052604081208054899290613efb90849061526c565b9091555050600a54613f1a906001600160a01b0316613ea48b8a61526c565b505b7fc53f0aae5ad30d5251e6054a1874116c45eaf54274cdb1940ee106d67c10b3a5886000015189604001518a606001518b60a00151604051613f619493929190615aa5565b60405180910390a150505050505050505050505050565b600c80546001600160a01b03191690556126b88161370e565b606081613f9f81601f61526c565b1015613fde5760405162461bcd60e51b815260206004820152600e60248201526d736c6963655f6f766572666c6f7760901b6044820152606401610df4565b613fe8828461526c565b8451101561402c5760405162461bcd60e51b8152602060048201526011602482015270736c6963655f6f75744f66426f756e647360781b6044820152606401610df4565b60608215801561404b5760405191506000825260208201604052614095565b6040519150601f8416801560200281840101858101878315602002848b0101015b8183101561408457805183526020928301920161406c565b5050858452601f01601f1916604052505b50949350505050565b600080600083516041146140f45760405162461bcd60e51b815260206004820152601f60248201527f45434453413a20696e76616c6964207369676e6174757265206c656e677468006044820152606401610df4565b5050506020810151604082015160609092015160001a92909190565b6131d982826144e5565b6000606060008060008661ffff166001600160401b0381111561413f5761413f6147a2565b6040519080825280601f01601f191660200182016040528015614169576020820181803683370190505b50905060008087516020890160008d8df191503d92508683111561418b578692505b828152826000602083013e909890975095505050505050565b8180519060200120601060008761ffff1661ffff168152602001908152602001600020856040516141d59190615af0565b9081526040805191829003602090810183206001600160401b0388166000908152915220919091557fe183f33de2837795525b4792ca4cd60535bd77c53b7e7030060bfcf5734d6b0c906142329087908790879087908790615b0c565b60405180910390a15050505050565b61ffff86166000908152600d60205260408120805461425f90614e41565b80601f016020809104026020016040519081016040528092919081815260200182805461428b90614e41565b80156142d85780601f106142ad576101008083540402835291602001916142d8565b820191906000526020600020905b8154815290600101906020018083116142bb57829003601f168201915b5050505050905080516000036143495760405162461bcd60e51b815260206004820152603060248201527f4c7a4170703a2064657374696e6174696f6e20636861696e206973206e6f742060448201526f61207472757374656420736f7572636560801b6064820152608401610df4565b60405162c5803160e81b81526001600160a01b037f0000000000000000000000000000000000000000000000000000000000000000169063c58031009084906143a0908b9086908c908c908c908c90600401615b5e565b6000604051808303818588803b1580156143b957600080fd5b505af11580156143cd573d6000803e3d6000fd5b505050505050505050505050565b6001600160a01b03811660009081526009602052604081205460ff16151590036126b8576001600160a01b03166000818152600960205260408120805460ff191660019081179091556008805491820181559091527ff3f7a9fe364faab93b216da50a3214154f22a0a2b415b23a84c8169e8b636ee30180546001600160a01b0319169091179055565b600154604051631a4ca37b60e21b81526000916001600160a01b0316906369328dec9061449a908790879087906004016152d8565b6020604051808303816000875af11580156144b9573d6000803e3d6000fd5b505050506040513d601f19601f820116820180604052508101906144dd91906151c0565b949350505050565b6144ef82826126fd565b6131d95760008281526007602090815260408083206001600160a01b03851684529091529020805460ff191660011790555050565b61ffff811681146126b857600080fd5b60008083601f84011261454657600080fd5b5081356001600160401b0381111561455d57600080fd5b60208301915083602082850101111561457557600080fd5b9250929050565b80356001600160401b038116811461459357600080fd5b919050565b600080600080600080608087890312156145b157600080fd5b86356145bc81614524565b955060208701356001600160401b03808211156145d857600080fd5b6145e48a838b01614534565b90975095508591506145f860408a0161457c565b9450606089013591508082111561460e57600080fd5b5061461b89828a01614534565b979a9699509497509295939492505050565b6001600160a01b03811681146126b857600080fd5b60006020828403121561465457600080fd5b81356125be8161462d565b6001600160a01b0391909116815260200190565b60006020828403121561468557600080fd5b81356125be81614524565b60005b838110156146ab578181015183820152602001614693565b50506000910152565b600081518084526146cc816020860160208601614690565b601f01601f19169290920160200192915050565b6020815260006125be60208301846146b4565b80151581146126b857600080fd5b60006020828403121561471357600080fd5b81356125be816146f3565b60008060006040848603121561473357600080fd5b833561473e81614524565b925060208401356001600160401b0381111561475957600080fd5b61476586828701614534565b9497909650939450505050565b6000806040838503121561478557600080fd5b8235915060208301356147978161462d565b809150509250929050565b634e487b7160e01b600052604160045260246000fd5b60405161018081016001600160401b03811182821017156147db576147db6147a2565b60405290565b60405161010081016001600160401b03811182821017156147db576147db6147a2565b604051601f8201601f191681016001600160401b038111828210171561482c5761482c6147a2565b604052919050565b60006001600160401b0382111561484d5761484d6147a2565b5060051b60200190565b600082601f83011261486857600080fd5b8135602061487d61487883614834565b614804565b82815260059290921b8401810191818101908684111561489c57600080fd5b8286015b848110156148c05780356148b38161462d565b83529183019183016148a0565b509695505050505050565b600080604083850312156148de57600080fd5b82356001600160401b03808211156148f557600080fd5b818501915085601f83011261490957600080fd5b8135602061491961487883614834565b82815260059290921b8401810191818101908984111561493857600080fd5b948201945b838610156149565785358252948201949082019061493d565b9650508601359250508082111561496c57600080fd5b5061497985828601614857565b9150509250929050565b6000806040838503121561499657600080fd5b82356149a18161462d565b915060208301356147978161462d565b600080604083850312156149c457600080fd5b82356149cf8161462d565b946020939093013593505050565b600080604083850312156149f057600080fd5b82356149a181614524565b600060208284031215614a0d57600080fd5b5035919050565b60006001600160401b03821115614a2d57614a2d6147a2565b50601f01601f191660200190565b600082601f830112614a4c57600080fd5b8135614a5a61487882614a14565b818152846020838601011115614a6f57600080fd5b816020850160208301376000918101602001919091529392505050565b600080600060608486031215614aa157600080fd5b8335614aac81614524565b925060208401356001600160401b03811115614ac757600080fd5b614ad386828701614a3b565b925050614ae26040850161457c565b90509250925092565b60008060408385031215614afe57600080fd5b82356149cf81614524565b60008060408385031215614b1c57600080fd5b8235614b2781614524565b9150602083013561479781614524565b60008060408385031215614b4a57600080fd5b8235614b558161462d565b91506020830135614797816146f3565b60008060408385031215614b7857600080fd5b82356001600160401b03811115614b8e57600080fd5b614b9a85828601614857565b9250506020830135614797816146f3565b600080600080600060608688031215614bc357600080fd5b8535614bce81614524565b945060208601356001600160401b0380821115614bea57600080fd5b614bf689838a01614534565b90965094506040880135915080821115614c0f57600080fd5b50614c1c88828901614534565b969995985093965092949392505050565b60008060408385031215614c4057600080fd5b8235915060208301356001600160401b03811115614c5d57600080fd5b61497985828601614a3b565b600080600080600060808688031215614c8157600080fd5b8535614c8c81614524565b94506020860135614c9c81614524565b93506040860135925060608601356001600160401b03811115614cbe57600080fd5b614c1c88828901614534565b600081518084526020808501945080840160005b83811015614d035781516001600160a01b031687529582019590820190600101614cde565b509495945050505050565b600081518084526020808501945080840160005b83811015614d0357815187529582019590820190600101614d22565b604081526000614d516040830185614cca565b828103602084015261334f8185614d0e565b600080600060608486031215614d7857600080fd5b8335614d8381614524565b92506020840135614d9381614524565b929592945050506040919091013590565b60008060008060808587031215614dba57600080fd5b8435614dc581614524565b93506020850135614dd581614524565b92506040850135614de58161462d565b9396929550929360600135925050565b60018060a01b038616815284602082015260a060408201526000614e1c60a0830186614cca565b8281036060840152614e2e8186614d0e565b9150508260808301529695505050505050565b600181811c90821680614e5557607f821691505b602082108103614e7557634e487b7160e01b600052602260045260246000fd5b50919050565b8183823760009101908152919050565b600060208284031215614e9d57600080fd5b604051602081016001600160401b0381118282101715614ebf57614ebf6147a2565b6040529151825250919050565b80516001600160801b038116811461459357600080fd5b805164ffffffffff8116811461459357600080fd5b80516145938161462d565b805160ff8116811461459357600080fd5b60006101808284031215614f2757600080fd5b614f2f6147b8565b614f398484614e8b565b8152614f4760208401614ecc565b6020820152614f5860408401614ecc565b6040820152614f6960608401614ecc565b6060820152614f7a60808401614ecc565b6080820152614f8b60a08401614ecc565b60a0820152614f9c60c08401614ee3565b60c0820152614fad60e08401614ef8565b60e0820152610100614fc0818501614ef8565b90820152610120614fd2848201614ef8565b90820152610140614fe4848201614ef8565b90820152610160614ff6848201614f03565b908201529392505050565b81835281816020850137506000828201602090810191909152601f909101601f19169091010190565b61ffff8416815260406020820152600061334f604083018486615001565b8051614593816146f3565b60006020828403121561506557600080fd5b81516125be816146f3565b602080825260079082015266636c6f73696e6760c81b604082015260600190565b6020808252601490820152734e6f742073756666696369656e742066756e647360601b604082015260600190565b634e487b7160e01b600052601160045260246000fd5b818103818111156126e8576126e86150bf565b6001600160a01b03929092168252602082015260400190565b6001600160a01b039384168152919092166020820152604081019190915260600190565b634e487b7160e01b600052603260045260246000fd5b60208082526014908201527310985b185b98d9481a5b9cdd59999a58da595b9d60621b604082015260600190565b60006001820161517b5761517b6150bf565b5060010190565b6060815260006151956060830186614cca565b82810360208401526151a78186614d0e565b91505060018060a01b0383166040830152949350505050565b6000602082840312156151d257600080fd5b5051919050565b6000602082840312156151eb57600080fd5b6125be82614ee3565b6001600160a01b0392831681529116602082015260400190565b60208082526010908201526f27379030baba3437b934bd30ba34b7b760811b604082015260600190565b6020808252601a90820152796e6f7420656e6f756768206e617469766520666f72206665657360301b604082015260600190565b808201808211156126e8576126e86150bf565b6001600160a01b0387811682528616602082015260408101859052831515606082015260c08101600584106152c457634e487b7160e01b600052602160045260246000fd5b608082019390935260a00152949350505050565b6001600160a01b0393841681526020810192909252909116604082015260600190565b60006020828403121561530d57600080fd5b81516125be81614524565b600061ffff80871683528086166020840152508360408301526080606083015261534560808301846146b4565b9695505050505050565b61ffff861681526000602060018060a01b0387168184015260a0604084015261537b60a08401876146b4565b851515606085015283810360808501526000855461539881614e41565b808452600182811680156153b357600181146153cd576153fb565b60ff1984168688015282151560051b8601870194506153fb565b896000528660002060005b848110156153f35781548882018a01529083019088016153d8565b870188019550505b50929c9b505050505050505050505050565b6000806040838503121561542057600080fd5b505080516020909101519092909150565b601f82111561260b57600081815260208120601f850160051c810160208610156154585750805b601f850160051c820191505b818110156124cb57828155600101615464565b600019600383901b1c191660019190911b1790565b81516001600160401b038111156154a5576154a56147a2565b6154b9816154b38454614e41565b84615431565b602080601f8311600181146154e857600084156154d65750858301515b6154e08582615477565b8655506124cb565b600085815260208120601f198616915b82811015615517578886015182559484019460019091019084016154f8565b50858210156155355787850151600019600388901b60f8161c191681555b5050505050600190811b01905550565b8284823760609190911b6001600160601b0319169101908152601401919050565b61ffff86168152606060208201526000615584606083018688615001565b8281036040840152615597818587615001565b98975050505050505050565b600061ffff8088168352808716602084015250846040830152608060608301526155d1608083018486615001565b979650505050505050565b61ffff861681526080602082015260006155fa608083018688615001565b6001600160401b0394909416604083015250606001529392505050565b61ffff94851681529290931660208301526001600160a01b03166040820152606081019190915260800190565b600082601f83011261565557600080fd5b815161566361487882614a14565b81815284602083860101111561567857600080fd5b6144dd826020830160208701614690565b60006020828403121561569b57600080fd5b81516001600160401b038111156156b157600080fd5b6144dd84828501615644565b6001600160401b038311156156d4576156d46147a2565b6156e8836156e28354614e41565b83615431565b6000601f84116001811461571657600085156157045750838201355b61570e8682615477565b8455506110b0565b600083815260209020601f19861690835b828110156157475786850135825560209485019460019092019101615727565b50868210156157645760001960f88860031b161c19848701351681555b505060018560011b0183555050505050565b61ffff8516815260806020820152600061579360808301866146b4565b6001600160401b038516604084015282810360608401526155d181856146b4565b600082601f8301126157c557600080fd5b815160206157d561487883614834565b82815260059290921b840181019181810190868411156157f457600080fd5b8286015b848110156148c057805161580b8161462d565b83529183019183016157f8565b600082601f83011261582957600080fd5b8151602061583961487883614834565b82815260059290921b8401810191818101908684111561585857600080fd5b8286015b848110156148c0578051835291830191830161585c565b600080600080600060a0868803121561588b57600080fd5b85516001600160401b03808211156158a257600080fd5b90870190610100828a0312156158b757600080fd5b6158bf6147e1565b6158c883614ef8565b8152602083015160208201526040830151828111156158e657600080fd5b6158f28b8286016157b4565b60408301525060608301518281111561590a57600080fd5b6159168b828601615818565b6060830152506080830151608082015261593260a08401614f03565b60a082015260c083015160c082015260e08301518281111561595357600080fd5b61595f8b828601615644565b60e0830152506020890151909750955061597b60408901615048565b9450606088015191508082111561599157600080fd5b61599d89838a016157b4565b935060808801519150808211156159b357600080fd5b506159c088828901615818565b9150509295509295909350565b815160009082906020808601845b83811015615a005781516001600160a01b0316855293820193908201906001016159db565b50929695505050505050565b815160009082906020808601845b83811015615a0057815185529382019390820190600101615a1a565b606087901b6001600160601b0319168152601481018690528451600090615a64816034850160208a01614690565b855190830190615a7b816034840160208a01614690565b6034910190810194909452505060f81b6001600160f81b0319166054820152605501949350505050565b6001600160a01b0385168152608060208201819052600090615ac990830186614cca565b8281036040840152615adb8186614d0e565b91505060ff8316606083015295945050505050565b60008251615b02818460208701614690565b9190910192915050565b61ffff8616815260a060208201526000615b2960a08301876146b4565b6001600160401b03861660408401528281036060840152615b4a81866146b4565b9050828103608084015261559781856146b4565b61ffff8716815260c060208201526000615b7b60c08301886146b4565b8281036040840152615b8d81886146b4565b6001600160a01b0387811660608601528616608085015283810360a08501529050615bb881856146b4565b999850505050505050505056fef33fe78eb7c840e8bf68670029904b6f0da8e79346941c278a4e7676d473df1557c872046f094b8a493ec5eb6ea374eafbc3c05951e40de3c4302a41f3f127baa2646970667358221220e7879c436a9da870317fc799e00fdd3394d53b0532d2b806f362206f43f5b98e64736f6c63430008110033","opcodes":"PUSH1 0xA0 PUSH1 0x40 MSTORE CALLVALUE DUP1 ISZERO PUSH3 0x11 JUMPI PUSH1 0x0 DUP1 REVERT JUMPDEST POP PUSH1 0x40 MLOAD PUSH3 0x5E52 CODESIZE SUB DUP1 PUSH3 0x5E52 DUP4 CODECOPY DUP2 ADD PUSH1 0x40 DUP2 SWAP1 MSTORE PUSH3 0x34 SWAP2 PUSH3 0x13B JUMP JUMPDEST DUP3 DUP1 PUSH3 0x41 CALLER PUSH3 0xA2 JUMP JUMPDEST PUSH1 0x1 PUSH1 0x1 PUSH1 0xA0 SHL SUB SWAP1 DUP2 AND PUSH1 0x80 MSTORE PUSH1 0x1 DUP1 SLOAD PUSH1 0x1 PUSH1 0x1 PUSH1 0xA0 SHL SUB NOT SWAP1 DUP2 AND SWAP8 DUP4 AND SWAP8 SWAP1 SWAP8 OR DUP2 SSTORE PUSH1 0x0 DUP1 SLOAD PUSH2 0xFFFF NOT AND PUSH2 0xFFFF SWAP7 SWAP1 SWAP7 AND SWAP6 SWAP1 SWAP6 OR SWAP1 SWAP5 SSTORE PUSH1 0x6 DUP1 SLOAD PUSH1 0xFF NOT AND SWAP1 SWAP5 OR SWAP1 SWAP4 SSTORE POP PUSH1 0xA DUP1 SLOAD SWAP1 SWAP5 AND SWAP2 AND OR SWAP1 SWAP2 SSTORE POP PUSH3 0x1A0 JUMP JUMPDEST PUSH1 0xC DUP1 SLOAD PUSH1 0x1 PUSH1 0x1 PUSH1 0xA0 SHL SUB NOT AND SWAP1 SSTORE PUSH3 0xC9 DUP2 PUSH3 0xCC PUSH1 0x20 SWAP1 DUP2 SHL PUSH3 0x370E OR SWAP1 SHR JUMP JUMPDEST POP JUMP JUMPDEST PUSH1 0xB DUP1 SLOAD PUSH1 0x1 PUSH1 0x1 PUSH1 0xA0 SHL SUB DUP4 DUP2 AND PUSH1 0x1 PUSH1 0x1 PUSH1 0xA0 SHL SUB NOT DUP4 AND DUP2 OR SWAP1 SWAP4 SSTORE PUSH1 0x40 MLOAD SWAP2 AND SWAP2 SWAP1 DUP3 SWAP1 PUSH32 0x8BE0079C531659141344CD1FD0A4F28419497F9722A3DAAFE3B4186F6B6457E0 SWAP1 PUSH1 0x0 SWAP1 LOG3 POP POP JUMP JUMPDEST DUP1 MLOAD PUSH1 0x1 PUSH1 0x1 PUSH1 0xA0 SHL SUB DUP2 AND DUP2 EQ PUSH3 0x136 JUMPI PUSH1 0x0 DUP1 REVERT JUMPDEST SWAP2 SWAP1 POP JUMP JUMPDEST PUSH1 0x0 DUP1 PUSH1 0x0 DUP1 PUSH1 0x80 DUP6 DUP8 SUB SLT ISZERO PUSH3 0x152 JUMPI PUSH1 0x0 DUP1 REVERT JUMPDEST PUSH3 0x15D DUP6 PUSH3 0x11E JUMP JUMPDEST SWAP4 POP PUSH3 0x16D PUSH1 0x20 DUP7 ADD PUSH3 0x11E JUMP JUMPDEST SWAP3 POP PUSH1 0x40 DUP6 ADD MLOAD PUSH2 0xFFFF DUP2 AND DUP2 EQ PUSH3 0x185 JUMPI PUSH1 0x0 DUP1 REVERT JUMPDEST SWAP2 POP PUSH3 0x195 PUSH1 0x60 DUP7 ADD PUSH3 0x11E JUMP JUMPDEST SWAP1 POP SWAP3 SWAP6 SWAP2 SWAP5 POP SWAP3 POP JUMP JUMPDEST PUSH1 0x80 MLOAD PUSH2 0x5C3B PUSH3 0x217 PUSH1 0x0 CODECOPY PUSH1 0x0 DUP2 DUP2 PUSH2 0xA9D ADD MSTORE DUP2 DUP2 PUSH2 0xD83 ADD MSTORE DUP2 DUP2 PUSH2 0x104F ADD MSTORE DUP2 DUP2 PUSH2 0x1177 ADD MSTORE DUP2 DUP2 PUSH2 0x1218 ADD MSTORE DUP2 DUP2 PUSH2 0x1B6F ADD MSTORE DUP2 DUP2 PUSH2 0x20BF ADD MSTORE DUP2 DUP2 PUSH2 0x2352 ADD MSTORE DUP2 DUP2 PUSH2 0x296C ADD MSTORE DUP2 DUP2 PUSH2 0x2B3E ADD MSTORE DUP2 DUP2 PUSH2 0x3075 ADD MSTORE DUP2 DUP2 PUSH2 0x30A4 ADD MSTORE DUP2 DUP2 PUSH2 0x32CF ADD MSTORE PUSH2 0x435F ADD MSTORE PUSH2 0x5C3B PUSH1 0x0 RETURN INVALID PUSH1 0x80 PUSH1 0x40 MSTORE PUSH1 0x4 CALLDATASIZE LT PUSH2 0x309 JUMPI PUSH1 0x0 CALLDATALOAD PUSH1 0xE0 SHR DUP1 PUSH3 0x1D3567 EQ PUSH2 0x30E JUMPI DUP1 PUSH4 0x21B9359 EQ PUSH2 0x330 JUMPI DUP1 PUSH4 0x707A0F0 EQ PUSH2 0x366 JUMPI DUP1 PUSH4 0x7E0DB17 EQ PUSH2 0x3AD JUMPI DUP1 PUSH4 0x83118D5 EQ PUSH2 0x3CD JUMPI DUP1 PUSH4 0x85A10CF EQ PUSH2 0x3EF JUMPI DUP1 PUSH4 0xEAF6EA6 EQ PUSH2 0x40F JUMPI DUP1 PUSH4 0x10DDB137 EQ PUSH2 0x42F JUMPI DUP1 PUSH4 0x1210AAC2 EQ PUSH2 0x44F JUMPI DUP1 PUSH4 0x16E57652 EQ PUSH2 0x46F JUMPI DUP1 PUSH4 0x19FC2E61 EQ PUSH2 0x48F JUMPI DUP1 PUSH4 0x28DD2D01 EQ PUSH2 0x4C3 JUMPI DUP1 PUSH4 0x29E26B10 EQ PUSH2 0x525 JUMPI DUP1 PUSH4 0x2A0276F8 EQ PUSH2 0x565 JUMPI DUP1 PUSH4 0x2F48AB7D EQ PUSH2 0x587 JUMPI DUP1 PUSH4 0x30C593F7 EQ PUSH2 0x5A7 JUMPI DUP1 PUSH4 0x3D8B38F6 EQ PUSH2 0x5D5 JUMPI DUP1 PUSH4 0x42D65A8D EQ PUSH2 0x5F5 JUMPI DUP1 PUSH4 0x47535D7B EQ PUSH2 0x615 JUMPI DUP1 PUSH4 0x47E7EF24 EQ PUSH2 0x62F JUMPI DUP1 PUSH4 0x4893C26A EQ PUSH2 0x642 JUMPI DUP1 PUSH4 0x492E527E EQ PUSH2 0x672 JUMPI DUP1 PUSH4 0x504F1671 EQ PUSH2 0x692 JUMPI DUP1 PUSH4 0x5358FBDA EQ PUSH2 0x6B2 JUMPI DUP1 PUSH4 0x57463D35 EQ PUSH2 0x6C5 JUMPI DUP1 PUSH4 0x5B8C41E6 EQ PUSH2 0x6FA JUMPI DUP1 PUSH4 0x5E5C06E2 EQ PUSH2 0x749 JUMPI DUP1 PUSH4 0x66AD5C8A EQ PUSH2 0x7DC JUMPI DUP1 PUSH4 0x68637549 EQ PUSH2 0x7FC JUMPI DUP1 PUSH4 0x6D1DAA28 EQ PUSH2 0x81C JUMPI DUP1 PUSH4 0x715018A6 EQ PUSH2 0x83C JUMPI DUP1 PUSH4 0x7533D788 EQ PUSH2 0x851 JUMPI DUP1 PUSH4 0x79BA5097 EQ PUSH2 0x871 JUMPI DUP1 PUSH4 0x7A4FDA3D EQ PUSH2 0x886 JUMPI DUP1 PUSH4 0x7AAA3470 EQ PUSH2 0x8B3 JUMPI DUP1 PUSH4 0x806B834D EQ PUSH2 0x8E9 JUMPI DUP1 PUSH4 0x819FAF7B EQ PUSH2 0x909 JUMPI DUP1 PUSH4 0x8CFD8F5C EQ PUSH2 0x929 JUMPI DUP1 PUSH4 0x8DA5CB5B EQ PUSH2 0x961 JUMPI DUP1 PUSH4 0x91D14854 EQ PUSH2 0x976 JUMPI DUP1 PUSH4 0x950C8A74 EQ PUSH2 0x996 JUMPI DUP1 PUSH4 0x9F38369A EQ PUSH2 0x9B6 JUMPI DUP1 PUSH4 0xA217FDDF EQ PUSH2 0x9D6 JUMPI DUP1 PUSH4 0xA304DCF4 EQ PUSH2 0x9EB JUMPI DUP1 PUSH4 0xA4CA74DB EQ PUSH2 0xA0B JUMPI DUP1 PUSH4 0xA6C3D165 EQ PUSH2 0xA2B JUMPI DUP1 PUSH4 0xAAFF5F16 EQ PUSH2 0xA4B JUMPI DUP1 PUSH4 0xB273F207 EQ PUSH2 0xA6B JUMPI DUP1 PUSH4 0xB353AAA7 EQ PUSH2 0xA8B JUMPI DUP1 PUSH4 0xB3CB890F EQ PUSH2 0xABF JUMPI DUP1 PUSH4 0xB7A745C6 EQ PUSH2 0xADF JUMPI DUP1 PUSH4 0xBAF3292D EQ PUSH2 0xB0F JUMPI DUP1 PUSH4 0xBD99D7E1 EQ PUSH2 0xB2F JUMPI DUP1 PUSH4 0xC392F766 EQ PUSH2 0xB5F JUMPI DUP1 PUSH4 0xC779C1C3 EQ PUSH2 0xB85 JUMPI DUP1 PUSH4 0xCBED8B9C EQ PUSH2 0xBB2 JUMPI DUP1 PUSH4 0xD1DEBA1F EQ PUSH2 0xBD2 JUMPI DUP1 PUSH4 0xD667A5DA EQ PUSH2 0xBE5 JUMPI DUP1 PUSH4 0xDF2A5B3B EQ PUSH2 0xC08 JUMPI DUP1 PUSH4 0xE2F28824 EQ PUSH2 0xC28 JUMPI DUP1 PUSH4 0xE30C3978 EQ PUSH2 0xC48 JUMPI DUP1 PUSH4 0xE52249E3 EQ PUSH2 0xC5D JUMPI DUP1 PUSH4 0xEB8D72B7 EQ PUSH2 0xC7D JUMPI DUP1 PUSH4 0xF2FDE38B EQ PUSH2 0xC9D JUMPI DUP1 PUSH4 0xF5ECBDBC EQ PUSH2 0xCBD JUMPI DUP1 PUSH4 0xF8B2CB4F EQ PUSH2 0xCDD JUMPI DUP1 PUSH4 0xFB895733 EQ PUSH2 0xD0E JUMPI DUP1 PUSH4 0xFD9BE522 EQ PUSH2 0xD30 JUMPI DUP1 PUSH4 0xFF464D3F EQ PUSH2 0xD50 JUMPI JUMPDEST PUSH1 0x0 DUP1 REVERT JUMPDEST CALLVALUE DUP1 ISZERO PUSH2 0x31A JUMPI PUSH1 0x0 DUP1 REVERT JUMPDEST POP PUSH2 0x32E PUSH2 0x329 CALLDATASIZE PUSH1 0x4 PUSH2 0x4598 JUMP JUMPDEST PUSH2 0xD80 JUMP JUMPDEST STOP JUMPDEST CALLVALUE DUP1 ISZERO PUSH2 0x33C JUMPI PUSH1 0x0 DUP1 REVERT JUMPDEST POP PUSH2 0x350 PUSH2 0x34B CALLDATASIZE PUSH1 0x4 PUSH2 0x4642 JUMP JUMPDEST PUSH2 0xFB1 JUMP JUMPDEST PUSH1 0x40 MLOAD PUSH2 0x35D SWAP2 SWAP1 PUSH2 0x465F JUMP JUMPDEST PUSH1 0x40 MLOAD DUP1 SWAP2 SUB SWAP1 RETURN JUMPDEST CALLVALUE DUP1 ISZERO PUSH2 0x372 JUMPI PUSH1 0x0 DUP1 REVERT JUMPDEST POP PUSH2 0x39F PUSH2 0x381 CALLDATASIZE PUSH1 0x4 PUSH2 0x4642 JUMP JUMPDEST PUSH1 0x1 PUSH1 0x1 PUSH1 0xA0 SHL SUB AND PUSH1 0x0 SWAP1 DUP2 MSTORE PUSH1 0x3 PUSH1 0x20 MSTORE PUSH1 0x40 SWAP1 KECCAK256 PUSH1 0x7 ADD SLOAD SWAP1 JUMP JUMPDEST PUSH1 0x40 MLOAD SWAP1 DUP2 MSTORE PUSH1 0x20 ADD PUSH2 0x35D JUMP JUMPDEST CALLVALUE DUP1 ISZERO PUSH2 0x3B9 JUMPI PUSH1 0x0 DUP1 REVERT JUMPDEST POP PUSH2 0x32E PUSH2 0x3C8 CALLDATASIZE PUSH1 0x4 PUSH2 0x4673 JUMP JUMPDEST PUSH2 0x102E JUMP JUMPDEST CALLVALUE DUP1 ISZERO PUSH2 0x3D9 JUMPI PUSH1 0x0 DUP1 REVERT JUMPDEST POP PUSH2 0x3E2 PUSH2 0x10B7 JUMP JUMPDEST PUSH1 0x40 MLOAD PUSH2 0x35D SWAP2 SWAP1 PUSH2 0x46E0 JUMP JUMPDEST CALLVALUE DUP1 ISZERO PUSH2 0x3FB JUMPI PUSH1 0x0 DUP1 REVERT JUMPDEST POP PUSH2 0x32E PUSH2 0x40A CALLDATASIZE PUSH1 0x4 PUSH2 0x4701 JUMP JUMPDEST PUSH2 0x1145 JUMP JUMPDEST CALLVALUE DUP1 ISZERO PUSH2 0x41B JUMPI PUSH1 0x0 DUP1 REVERT JUMPDEST POP PUSH2 0x32E PUSH2 0x42A CALLDATASIZE PUSH1 0x4 PUSH2 0x471E JUMP JUMPDEST PUSH2 0x1160 JUMP JUMPDEST CALLVALUE DUP1 ISZERO PUSH2 0x43B JUMPI PUSH1 0x0 DUP1 REVERT JUMPDEST POP PUSH2 0x32E PUSH2 0x44A CALLDATASIZE PUSH1 0x4 PUSH2 0x4673 JUMP JUMPDEST PUSH2 0x11F7 JUMP JUMPDEST CALLVALUE DUP1 ISZERO PUSH2 0x45B JUMPI PUSH1 0x0 DUP1 REVERT JUMPDEST POP PUSH2 0x32E PUSH2 0x46A CALLDATASIZE PUSH1 0x4 PUSH2 0x4772 JUMP JUMPDEST PUSH2 0x124F JUMP JUMPDEST CALLVALUE DUP1 ISZERO PUSH2 0x47B JUMPI PUSH1 0x0 DUP1 REVERT JUMPDEST POP PUSH2 0x32E PUSH2 0x48A CALLDATASIZE PUSH1 0x4 PUSH2 0x48CB JUMP JUMPDEST PUSH2 0x137A JUMP JUMPDEST CALLVALUE DUP1 ISZERO PUSH2 0x49B JUMPI PUSH1 0x0 DUP1 REVERT JUMPDEST POP PUSH2 0x39F PUSH32 0x52941335797217779AB62CF10A3AE2B6D453B5F3A1285E7A816EB9F63A58D669 DUP2 JUMP JUMPDEST CALLVALUE DUP1 ISZERO PUSH2 0x4CF JUMPI PUSH1 0x0 DUP1 REVERT JUMPDEST POP PUSH2 0x4E3 PUSH2 0x4DE CALLDATASIZE PUSH1 0x4 PUSH2 0x4983 JUMP JUMPDEST PUSH2 0x16B0 JUMP JUMPDEST PUSH1 0x40 DUP1 MLOAD SWAP9 DUP10 MSTORE PUSH1 0x20 DUP10 ADD SWAP8 SWAP1 SWAP8 MSTORE SWAP6 DUP8 ADD SWAP5 SWAP1 SWAP5 MSTORE PUSH1 0x60 DUP7 ADD SWAP3 SWAP1 SWAP3 MSTORE PUSH1 0x80 DUP6 ADD MSTORE PUSH1 0xA0 DUP5 ADD MSTORE PUSH1 0xC0 DUP4 ADD MSTORE PUSH5 0xFFFFFFFFFF AND PUSH1 0xE0 DUP3 ADD MSTORE PUSH2 0x100 ADD PUSH2 0x35D JUMP JUMPDEST CALLVALUE DUP1 ISZERO PUSH2 0x531 JUMPI PUSH1 0x0 DUP1 REVERT JUMPDEST POP PUSH2 0x555 PUSH2 0x540 CALLDATASIZE PUSH1 0x4 PUSH2 0x4642 JUMP JUMPDEST PUSH1 0x12 PUSH1 0x20 MSTORE PUSH1 0x0 SWAP1 DUP2 MSTORE PUSH1 0x40 SWAP1 KECCAK256 SLOAD PUSH1 0xFF AND DUP2 JUMP JUMPDEST PUSH1 0x40 MLOAD SWAP1 ISZERO ISZERO DUP2 MSTORE PUSH1 0x20 ADD PUSH2 0x35D JUMP JUMPDEST CALLVALUE DUP1 ISZERO PUSH2 0x571 JUMPI PUSH1 0x0 DUP1 REVERT JUMPDEST POP PUSH2 0x39F PUSH1 0x0 DUP1 MLOAD PUSH1 0x20 PUSH2 0x5BC6 DUP4 CODECOPY DUP2 MLOAD SWAP2 MSTORE DUP2 JUMP JUMPDEST CALLVALUE DUP1 ISZERO PUSH2 0x593 JUMPI PUSH1 0x0 DUP1 REVERT JUMPDEST POP PUSH1 0xA SLOAD PUSH2 0x350 SWAP1 PUSH1 0x1 PUSH1 0x1 PUSH1 0xA0 SHL SUB AND DUP2 JUMP JUMPDEST CALLVALUE DUP1 ISZERO PUSH2 0x5B3 JUMPI PUSH1 0x0 DUP1 REVERT JUMPDEST POP PUSH1 0x0 SLOAD PUSH2 0x5C2 SWAP1 PUSH2 0xFFFF AND DUP2 JUMP JUMPDEST PUSH1 0x40 MLOAD PUSH2 0xFFFF SWAP1 SWAP2 AND DUP2 MSTORE PUSH1 0x20 ADD PUSH2 0x35D JUMP JUMPDEST CALLVALUE DUP1 ISZERO PUSH2 0x5E1 JUMPI PUSH1 0x0 DUP1 REVERT JUMPDEST POP PUSH2 0x555 PUSH2 0x5F0 CALLDATASIZE PUSH1 0x4 PUSH2 0x471E JUMP JUMPDEST PUSH2 0x1A84 JUMP JUMPDEST CALLVALUE DUP1 ISZERO PUSH2 0x601 JUMPI PUSH1 0x0 DUP1 REVERT JUMPDEST POP PUSH2 0x32E PUSH2 0x610 CALLDATASIZE PUSH1 0x4 PUSH2 0x471E JUMP JUMPDEST PUSH2 0x1B50 JUMP JUMPDEST CALLVALUE DUP1 ISZERO PUSH2 0x621 JUMPI PUSH1 0x0 DUP1 REVERT JUMPDEST POP PUSH1 0x6 SLOAD PUSH2 0x555 SWAP1 PUSH1 0xFF AND DUP2 JUMP JUMPDEST PUSH2 0x32E PUSH2 0x63D CALLDATASIZE PUSH1 0x4 PUSH2 0x49B1 JUMP JUMPDEST PUSH2 0x1BD6 JUMP JUMPDEST CALLVALUE DUP1 ISZERO PUSH2 0x64E JUMPI PUSH1 0x0 DUP1 REVERT JUMPDEST POP PUSH2 0x555 PUSH2 0x65D CALLDATASIZE PUSH1 0x4 PUSH2 0x4642 JUMP JUMPDEST PUSH1 0x9 PUSH1 0x20 MSTORE PUSH1 0x0 SWAP1 DUP2 MSTORE PUSH1 0x40 SWAP1 KECCAK256 SLOAD PUSH1 0xFF AND DUP2 JUMP JUMPDEST CALLVALUE DUP1 ISZERO PUSH2 0x67E JUMPI PUSH1 0x0 DUP1 REVERT JUMPDEST POP PUSH2 0x32E PUSH2 0x68D CALLDATASIZE PUSH1 0x4 PUSH2 0x49DD JUMP JUMPDEST PUSH2 0x209D JUMP JUMPDEST CALLVALUE DUP1 ISZERO PUSH2 0x69E JUMPI PUSH1 0x0 DUP1 REVERT JUMPDEST POP PUSH2 0x3E2 PUSH2 0x6AD CALLDATASIZE PUSH1 0x4 PUSH2 0x4642 JUMP JUMPDEST PUSH2 0x217E JUMP JUMPDEST PUSH2 0x32E PUSH2 0x6C0 CALLDATASIZE PUSH1 0x4 PUSH2 0x49FB JUMP JUMPDEST PUSH2 0x2212 JUMP JUMPDEST CALLVALUE DUP1 ISZERO PUSH2 0x6D1 JUMPI PUSH1 0x0 DUP1 REVERT JUMPDEST POP PUSH2 0x6E5 PUSH2 0x6E0 CALLDATASIZE PUSH1 0x4 PUSH2 0x4642 JUMP JUMPDEST PUSH2 0x233E JUMP JUMPDEST PUSH1 0x40 DUP1 MLOAD SWAP3 DUP4 MSTORE PUSH1 0x20 DUP4 ADD SWAP2 SWAP1 SWAP2 MSTORE ADD PUSH2 0x35D JUMP JUMPDEST CALLVALUE DUP1 ISZERO PUSH2 0x706 JUMPI PUSH1 0x0 DUP1 REVERT JUMPDEST POP PUSH2 0x39F PUSH2 0x715 CALLDATASIZE PUSH1 0x4 PUSH2 0x4A8C JUMP JUMPDEST PUSH1 0x10 PUSH1 0x20 SWAP1 DUP2 MSTORE PUSH1 0x0 SWAP4 DUP5 MSTORE PUSH1 0x40 DUP1 DUP6 KECCAK256 DUP5 MLOAD DUP1 DUP7 ADD DUP5 ADD DUP1 MLOAD SWAP3 DUP2 MSTORE SWAP1 DUP5 ADD SWAP6 DUP5 ADD SWAP6 SWAP1 SWAP6 KECCAK256 SWAP5 MSTORE SWAP3 SWAP1 MSTORE DUP3 MSTORE SWAP1 KECCAK256 SLOAD DUP2 JUMP JUMPDEST CALLVALUE DUP1 ISZERO PUSH2 0x755 JUMPI PUSH1 0x0 DUP1 REVERT JUMPDEST POP PUSH2 0x7A5 PUSH2 0x764 CALLDATASIZE PUSH1 0x4 PUSH2 0x4642 JUMP JUMPDEST PUSH1 0x3 PUSH1 0x20 DUP2 SWAP1 MSTORE PUSH1 0x0 SWAP2 DUP3 MSTORE PUSH1 0x40 SWAP1 SWAP2 KECCAK256 DUP1 SLOAD PUSH1 0x1 DUP3 ADD SLOAD SWAP3 DUP3 ADD SLOAD PUSH1 0x4 DUP4 ADD SLOAD PUSH1 0x6 DUP5 ADD SLOAD PUSH1 0x7 SWAP1 SWAP5 ADD SLOAD PUSH1 0x1 PUSH1 0x1 PUSH1 0xA0 SHL SUB SWAP1 SWAP4 AND SWAP5 SWAP4 SWAP2 SWAP3 SWAP1 SWAP2 SWAP1 DUP7 JUMP JUMPDEST PUSH1 0x40 DUP1 MLOAD PUSH1 0x1 PUSH1 0x1 PUSH1 0xA0 SHL SUB SWAP1 SWAP8 AND DUP8 MSTORE PUSH1 0x20 DUP8 ADD SWAP6 SWAP1 SWAP6 MSTORE SWAP4 DUP6 ADD SWAP3 SWAP1 SWAP3 MSTORE PUSH1 0x60 DUP5 ADD MSTORE PUSH1 0x80 DUP4 ADD MSTORE PUSH1 0xA0 DUP3 ADD MSTORE PUSH1 0xC0 ADD PUSH2 0x35D JUMP JUMPDEST CALLVALUE DUP1 ISZERO PUSH2 0x7E8 JUMPI PUSH1 0x0 DUP1 REVERT JUMPDEST POP PUSH2 0x32E PUSH2 0x7F7 CALLDATASIZE PUSH1 0x4 PUSH2 0x4598 JUMP JUMPDEST PUSH2 0x23F7 JUMP JUMPDEST CALLVALUE DUP1 ISZERO PUSH2 0x808 JUMPI PUSH1 0x0 DUP1 REVERT JUMPDEST POP PUSH2 0x39F PUSH2 0x817 CALLDATASIZE PUSH1 0x4 PUSH2 0x4642 JUMP JUMPDEST PUSH2 0x24D3 JUMP JUMPDEST CALLVALUE DUP1 ISZERO PUSH2 0x828 JUMPI PUSH1 0x0 DUP1 REVERT JUMPDEST POP PUSH2 0x32E PUSH2 0x837 CALLDATASIZE PUSH1 0x4 PUSH2 0x4AEB JUMP JUMPDEST PUSH2 0x25C5 JUMP JUMPDEST CALLVALUE DUP1 ISZERO PUSH2 0x848 JUMPI PUSH1 0x0 DUP1 REVERT JUMPDEST POP PUSH2 0x32E PUSH2 0x2610 JUMP JUMPDEST CALLVALUE DUP1 ISZERO PUSH2 0x85D JUMPI PUSH1 0x0 DUP1 REVERT JUMPDEST POP PUSH2 0x3E2 PUSH2 0x86C CALLDATASIZE PUSH1 0x4 PUSH2 0x4673 JUMP JUMPDEST PUSH2 0x2624 JUMP JUMPDEST CALLVALUE DUP1 ISZERO PUSH2 0x87D JUMPI PUSH1 0x0 DUP1 REVERT JUMPDEST POP PUSH2 0x32E PUSH2 0x263D JUMP JUMPDEST CALLVALUE DUP1 ISZERO PUSH2 0x892 JUMPI PUSH1 0x0 DUP1 REVERT JUMPDEST POP PUSH2 0x39F PUSH2 0x8A1 CALLDATASIZE PUSH1 0x4 PUSH2 0x4642 JUMP JUMPDEST PUSH1 0x13 PUSH1 0x20 MSTORE PUSH1 0x0 SWAP1 DUP2 MSTORE PUSH1 0x40 SWAP1 KECCAK256 SLOAD DUP2 JUMP JUMPDEST CALLVALUE DUP1 ISZERO PUSH2 0x8BF JUMPI PUSH1 0x0 DUP1 REVERT JUMPDEST POP PUSH2 0x39F PUSH2 0x8CE CALLDATASIZE PUSH1 0x4 PUSH2 0x4642 JUMP JUMPDEST PUSH1 0x1 PUSH1 0x1 PUSH1 0xA0 SHL SUB AND PUSH1 0x0 SWAP1 DUP2 MSTORE PUSH1 0x11 PUSH1 0x20 MSTORE PUSH1 0x40 SWAP1 KECCAK256 SLOAD SWAP1 JUMP JUMPDEST CALLVALUE DUP1 ISZERO PUSH2 0x8F5 JUMPI PUSH1 0x0 DUP1 REVERT JUMPDEST POP PUSH2 0x39F PUSH2 0x904 CALLDATASIZE PUSH1 0x4 PUSH2 0x4983 JUMP JUMPDEST PUSH2 0x26BB JUMP JUMPDEST CALLVALUE DUP1 ISZERO PUSH2 0x915 JUMPI PUSH1 0x0 DUP1 REVERT JUMPDEST POP PUSH1 0x1 SLOAD PUSH2 0x350 SWAP1 PUSH1 0x1 PUSH1 0x1 PUSH1 0xA0 SHL SUB AND DUP2 JUMP JUMPDEST CALLVALUE DUP1 ISZERO PUSH2 0x935 JUMPI PUSH1 0x0 DUP1 REVERT JUMPDEST POP PUSH2 0x39F PUSH2 0x944 CALLDATASIZE PUSH1 0x4 PUSH2 0x4B09 JUMP JUMPDEST PUSH1 0xE PUSH1 0x20 SWAP1 DUP2 MSTORE PUSH1 0x0 SWAP3 DUP4 MSTORE PUSH1 0x40 DUP1 DUP5 KECCAK256 SWAP1 SWAP2 MSTORE SWAP1 DUP3 MSTORE SWAP1 KECCAK256 SLOAD DUP2 JUMP JUMPDEST CALLVALUE DUP1 ISZERO PUSH2 0x96D JUMPI PUSH1 0x0 DUP1 REVERT JUMPDEST POP PUSH2 0x350 PUSH2 0x26EE JUMP JUMPDEST CALLVALUE DUP1 ISZERO PUSH2 0x982 JUMPI PUSH1 0x0 DUP1 REVERT JUMPDEST POP PUSH2 0x555 PUSH2 0x991 CALLDATASIZE PUSH1 0x4 PUSH2 0x4772 JUMP JUMPDEST PUSH2 0x26FD JUMP JUMPDEST CALLVALUE DUP1 ISZERO PUSH2 0x9A2 JUMPI PUSH1 0x0 DUP1 REVERT JUMPDEST POP PUSH1 0xF SLOAD PUSH2 0x350 SWAP1 PUSH1 0x1 PUSH1 0x1 PUSH1 0xA0 SHL SUB AND DUP2 JUMP JUMPDEST CALLVALUE DUP1 ISZERO PUSH2 0x9C2 JUMPI PUSH1 0x0 DUP1 REVERT JUMPDEST POP PUSH2 0x3E2 PUSH2 0x9D1 CALLDATASIZE PUSH1 0x4 PUSH2 0x4673 JUMP JUMPDEST PUSH2 0x2728 JUMP JUMPDEST CALLVALUE DUP1 ISZERO PUSH2 0x9E2 JUMPI PUSH1 0x0 DUP1 REVERT JUMPDEST POP PUSH2 0x39F PUSH1 0x0 DUP2 JUMP JUMPDEST CALLVALUE DUP1 ISZERO PUSH2 0x9F7 JUMPI PUSH1 0x0 DUP1 REVERT JUMPDEST POP PUSH2 0x32E PUSH2 0xA06 CALLDATASIZE PUSH1 0x4 PUSH2 0x4B37 JUMP JUMPDEST PUSH2 0x2837 JUMP JUMPDEST CALLVALUE DUP1 ISZERO PUSH2 0xA17 JUMPI PUSH1 0x0 DUP1 REVERT JUMPDEST POP PUSH2 0x32E PUSH2 0xA26 CALLDATASIZE PUSH1 0x4 PUSH2 0x4B65 JUMP JUMPDEST PUSH2 0x286A JUMP JUMPDEST CALLVALUE DUP1 ISZERO PUSH2 0xA37 JUMPI PUSH1 0x0 DUP1 REVERT JUMPDEST POP PUSH2 0x32E PUSH2 0xA46 CALLDATASIZE PUSH1 0x4 PUSH2 0x471E JUMP JUMPDEST PUSH2 0x28D9 JUMP JUMPDEST CALLVALUE DUP1 ISZERO PUSH2 0xA57 JUMPI PUSH1 0x0 DUP1 REVERT JUMPDEST POP PUSH2 0x32E PUSH2 0xA66 CALLDATASIZE PUSH1 0x4 PUSH2 0x4BAB JUMP JUMPDEST PUSH2 0x2955 JUMP JUMPDEST CALLVALUE DUP1 ISZERO PUSH2 0xA77 JUMPI PUSH1 0x0 DUP1 REVERT JUMPDEST POP PUSH2 0x350 PUSH2 0xA86 CALLDATASIZE PUSH1 0x4 PUSH2 0x4C2D JUMP JUMPDEST PUSH2 0x29E2 JUMP JUMPDEST CALLVALUE DUP1 ISZERO PUSH2 0xA97 JUMPI PUSH1 0x0 DUP1 REVERT JUMPDEST POP PUSH2 0x350 PUSH32 0x0 DUP2 JUMP JUMPDEST CALLVALUE DUP1 ISZERO PUSH2 0xACB JUMPI PUSH1 0x0 DUP1 REVERT JUMPDEST POP PUSH2 0x39F PUSH2 0xADA CALLDATASIZE PUSH1 0x4 PUSH2 0x49FB JUMP JUMPDEST PUSH2 0x2A6F JUMP JUMPDEST CALLVALUE DUP1 ISZERO PUSH2 0xAEB JUMPI PUSH1 0x0 DUP1 REVERT JUMPDEST POP PUSH2 0x555 PUSH2 0xAFA CALLDATASIZE PUSH1 0x4 PUSH2 0x4642 JUMP JUMPDEST PUSH1 0x14 PUSH1 0x20 MSTORE PUSH1 0x0 SWAP1 DUP2 MSTORE PUSH1 0x40 SWAP1 KECCAK256 SLOAD PUSH1 0xFF AND DUP2 JUMP JUMPDEST CALLVALUE DUP1 ISZERO PUSH2 0xB1B JUMPI PUSH1 0x0 DUP1 REVERT JUMPDEST POP PUSH2 0x32E PUSH2 0xB2A CALLDATASIZE PUSH1 0x4 PUSH2 0x4642 JUMP JUMPDEST PUSH2 0x2AC1 JUMP JUMPDEST CALLVALUE DUP1 ISZERO PUSH2 0xB3B JUMPI PUSH1 0x0 DUP1 REVERT JUMPDEST POP PUSH2 0x39F PUSH2 0xB4A CALLDATASIZE PUSH1 0x4 PUSH2 0x49FB JUMP JUMPDEST PUSH1 0x7 PUSH1 0x20 MSTORE PUSH1 0x0 SWAP1 DUP2 MSTORE PUSH1 0x40 SWAP1 KECCAK256 PUSH1 0x1 ADD SLOAD DUP2 JUMP JUMPDEST CALLVALUE DUP1 ISZERO PUSH2 0xB6B JUMPI PUSH1 0x0 DUP1 REVERT JUMPDEST POP PUSH1 0x0 SLOAD PUSH2 0x350 SWAP1 PUSH3 0x10000 SWAP1 DIV PUSH1 0x1 PUSH1 0x1 PUSH1 0xA0 SHL SUB AND DUP2 JUMP JUMPDEST CALLVALUE DUP1 ISZERO PUSH2 0xB91 JUMPI PUSH1 0x0 DUP1 REVERT JUMPDEST POP PUSH2 0x39F PUSH2 0xBA0 CALLDATASIZE PUSH1 0x4 PUSH2 0x4642 JUMP JUMPDEST PUSH1 0x11 PUSH1 0x20 MSTORE PUSH1 0x0 SWAP1 DUP2 MSTORE PUSH1 0x40 SWAP1 KECCAK256 SLOAD DUP2 JUMP JUMPDEST CALLVALUE DUP1 ISZERO PUSH2 0xBBE JUMPI PUSH1 0x0 DUP1 REVERT JUMPDEST POP PUSH2 0x32E PUSH2 0xBCD CALLDATASIZE PUSH1 0x4 PUSH2 0x4C69 JUMP JUMPDEST PUSH2 0x2B1F JUMP JUMPDEST PUSH2 0x32E PUSH2 0xBE0 CALLDATASIZE PUSH1 0x4 PUSH2 0x4598 JUMP JUMPDEST PUSH2 0x2B7B JUMP JUMPDEST CALLVALUE DUP1 ISZERO PUSH2 0xBF1 JUMPI PUSH1 0x0 DUP1 REVERT JUMPDEST POP PUSH2 0xBFA PUSH2 0x2D91 JUMP JUMPDEST PUSH1 0x40 MLOAD PUSH2 0x35D SWAP3 SWAP2 SWAP1 PUSH2 0x4D3E JUMP JUMPDEST CALLVALUE DUP1 ISZERO PUSH2 0xC14 JUMPI PUSH1 0x0 DUP1 REVERT JUMPDEST POP PUSH2 0x32E PUSH2 0xC23 CALLDATASIZE PUSH1 0x4 PUSH2 0x4D63 JUMP JUMPDEST PUSH2 0x2FBE JUMP JUMPDEST CALLVALUE DUP1 ISZERO PUSH2 0xC34 JUMPI PUSH1 0x0 DUP1 REVERT JUMPDEST POP PUSH2 0x350 PUSH2 0xC43 CALLDATASIZE PUSH1 0x4 PUSH2 0x4673 JUMP JUMPDEST PUSH2 0x3070 JUMP JUMPDEST CALLVALUE DUP1 ISZERO PUSH2 0xC54 JUMPI PUSH1 0x0 DUP1 REVERT JUMPDEST POP PUSH2 0x350 PUSH2 0x31A2 JUMP JUMPDEST CALLVALUE DUP1 ISZERO PUSH2 0xC69 JUMPI PUSH1 0x0 DUP1 REVERT JUMPDEST POP PUSH2 0x32E PUSH2 0xC78 CALLDATASIZE PUSH1 0x4 PUSH2 0x49B1 JUMP JUMPDEST PUSH2 0x31B1 JUMP JUMPDEST CALLVALUE DUP1 ISZERO PUSH2 0xC89 JUMPI PUSH1 0x0 DUP1 REVERT JUMPDEST POP PUSH2 0x32E PUSH2 0xC98 CALLDATASIZE PUSH1 0x4 PUSH2 0x471E JUMP JUMPDEST PUSH2 0x31F5 JUMP JUMPDEST CALLVALUE DUP1 ISZERO PUSH2 0xCA9 JUMPI PUSH1 0x0 DUP1 REVERT JUMPDEST POP PUSH2 0x32E PUSH2 0xCB8 CALLDATASIZE PUSH1 0x4 PUSH2 0x4642 JUMP JUMPDEST PUSH2 0x324F JUMP JUMPDEST CALLVALUE DUP1 ISZERO PUSH2 0xCC9 JUMPI PUSH1 0x0 DUP1 REVERT JUMPDEST POP PUSH2 0x3E2 PUSH2 0xCD8 CALLDATASIZE PUSH1 0x4 PUSH2 0x4DA4 JUMP JUMPDEST PUSH2 0x32B5 JUMP JUMPDEST CALLVALUE DUP1 ISZERO PUSH2 0xCE9 JUMPI PUSH1 0x0 DUP1 REVERT JUMPDEST POP PUSH2 0xCFD PUSH2 0xCF8 CALLDATASIZE PUSH1 0x4 PUSH2 0x4642 JUMP JUMPDEST PUSH2 0x3358 JUMP JUMPDEST PUSH1 0x40 MLOAD PUSH2 0x35D SWAP6 SWAP5 SWAP4 SWAP3 SWAP2 SWAP1 PUSH2 0x4DF5 JUMP JUMPDEST CALLVALUE DUP1 ISZERO PUSH2 0xD1A JUMPI PUSH1 0x0 DUP1 REVERT JUMPDEST POP PUSH2 0x39F PUSH1 0x0 DUP1 MLOAD PUSH1 0x20 PUSH2 0x5BE6 DUP4 CODECOPY DUP2 MLOAD SWAP2 MSTORE DUP2 JUMP JUMPDEST CALLVALUE DUP1 ISZERO PUSH2 0xD3C JUMPI PUSH1 0x0 DUP1 REVERT JUMPDEST POP PUSH2 0x32E PUSH2 0xD4B CALLDATASIZE PUSH1 0x4 PUSH2 0x49B1 JUMP JUMPDEST PUSH2 0x35D3 JUMP JUMPDEST CALLVALUE DUP1 ISZERO PUSH2 0xD5C JUMPI PUSH1 0x0 DUP1 REVERT JUMPDEST POP PUSH2 0x555 PUSH2 0xD6B CALLDATASIZE PUSH1 0x4 PUSH2 0x4642 JUMP JUMPDEST PUSH1 0x4 PUSH1 0x20 MSTORE PUSH1 0x0 SWAP1 DUP2 MSTORE PUSH1 0x40 SWAP1 KECCAK256 SLOAD PUSH1 0xFF AND DUP2 JUMP JUMPDEST CALLER PUSH32 0x0 PUSH1 0x1 PUSH1 0x1 PUSH1 0xA0 SHL SUB AND EQ PUSH2 0xDFD JUMPI PUSH1 0x40 MLOAD PUSH3 0x461BCD PUSH1 0xE5 SHL DUP2 MSTORE PUSH1 0x20 PUSH1 0x4 DUP3 ADD MSTORE PUSH1 0x1E PUSH1 0x24 DUP3 ADD MSTORE PUSH32 0x4C7A4170703A20696E76616C696420656E64706F696E742063616C6C65720000 PUSH1 0x44 DUP3 ADD MSTORE PUSH1 0x64 ADD JUMPDEST PUSH1 0x40 MLOAD DUP1 SWAP2 SUB SWAP1 REVERT JUMPDEST PUSH2 0xFFFF DUP7 AND PUSH1 0x0 SWAP1 DUP2 MSTORE PUSH1 0xD PUSH1 0x20 MSTORE PUSH1 0x40 DUP2 KECCAK256 DUP1 SLOAD PUSH2 0xE1B SWAP1 PUSH2 0x4E41 JUMP JUMPDEST DUP1 PUSH1 0x1F ADD PUSH1 0x20 DUP1 SWAP2 DIV MUL PUSH1 0x20 ADD PUSH1 0x40 MLOAD SWAP1 DUP2 ADD PUSH1 0x40 MSTORE DUP1 SWAP3 SWAP2 SWAP1 DUP2 DUP2 MSTORE PUSH1 0x20 ADD DUP3 DUP1 SLOAD PUSH2 0xE47 SWAP1 PUSH2 0x4E41 JUMP JUMPDEST DUP1 ISZERO PUSH2 0xE94 JUMPI DUP1 PUSH1 0x1F LT PUSH2 0xE69 JUMPI PUSH2 0x100 DUP1 DUP4 SLOAD DIV MUL DUP4 MSTORE SWAP2 PUSH1 0x20 ADD SWAP2 PUSH2 0xE94 JUMP JUMPDEST DUP3 ADD SWAP2 SWAP1 PUSH1 0x0 MSTORE PUSH1 0x20 PUSH1 0x0 KECCAK256 SWAP1 JUMPDEST DUP2 SLOAD DUP2 MSTORE SWAP1 PUSH1 0x1 ADD SWAP1 PUSH1 0x20 ADD DUP1 DUP4 GT PUSH2 0xE77 JUMPI DUP3 SWAP1 SUB PUSH1 0x1F AND DUP3 ADD SWAP2 JUMPDEST POP POP POP POP POP SWAP1 POP DUP1 MLOAD DUP7 DUP7 SWAP1 POP EQ DUP1 ISZERO PUSH2 0xEAF JUMPI POP PUSH1 0x0 DUP2 MLOAD GT JUMPDEST DUP1 ISZERO PUSH2 0xED7 JUMPI POP DUP1 MLOAD PUSH1 0x20 DUP3 ADD KECCAK256 PUSH1 0x40 MLOAD PUSH2 0xECD SWAP1 DUP9 SWAP1 DUP9 SWAP1 PUSH2 0x4E7B JUMP JUMPDEST PUSH1 0x40 MLOAD DUP1 SWAP2 SUB SWAP1 KECCAK256 EQ JUMPDEST PUSH2 0xF32 JUMPI PUSH1 0x40 MLOAD PUSH3 0x461BCD PUSH1 0xE5 SHL DUP2 MSTORE PUSH1 0x20 PUSH1 0x4 DUP3 ADD MSTORE PUSH1 0x26 PUSH1 0x24 DUP3 ADD MSTORE PUSH32 0x4C7A4170703A20696E76616C696420736F757263652073656E64696E6720636F PUSH1 0x44 DUP3 ADD MSTORE PUSH6 0x1B9D1C9858DD PUSH1 0xD2 SHL PUSH1 0x64 DUP3 ADD MSTORE PUSH1 0x84 ADD PUSH2 0xDF4 JUMP JUMPDEST PUSH2 0xFA8 DUP8 DUP8 DUP8 DUP1 DUP1 PUSH1 0x1F ADD PUSH1 0x20 DUP1 SWAP2 DIV MUL PUSH1 0x20 ADD PUSH1 0x40 MLOAD SWAP1 DUP2 ADD PUSH1 0x40 MSTORE DUP1 SWAP4 SWAP3 SWAP2 SWAP1 DUP2 DUP2 MSTORE PUSH1 0x20 ADD DUP4 DUP4 DUP1 DUP3 DUP5 CALLDATACOPY PUSH1 0x0 SWAP3 ADD SWAP2 SWAP1 SWAP2 MSTORE POP POP PUSH1 0x40 DUP1 MLOAD PUSH1 0x20 PUSH1 0x1F DUP11 ADD DUP2 SWAP1 DIV DUP2 MUL DUP3 ADD DUP2 ADD SWAP1 SWAP3 MSTORE DUP9 DUP2 MSTORE DUP11 SWAP4 POP SWAP2 POP DUP9 SWAP1 DUP9 SWAP1 DUP2 SWAP1 DUP5 ADD DUP4 DUP3 DUP1 DUP3 DUP5 CALLDATACOPY PUSH1 0x0 SWAP3 ADD SWAP2 SWAP1 SWAP2 MSTORE POP PUSH2 0x3760 SWAP3 POP POP POP JUMP JUMPDEST POP POP POP POP POP POP POP JUMP JUMPDEST PUSH1 0x1 SLOAD PUSH1 0x40 MLOAD PUSH4 0x35EA6A75 PUSH1 0xE0 SHL DUP2 MSTORE PUSH1 0x0 SWAP2 PUSH1 0x1 PUSH1 0x1 PUSH1 0xA0 SHL SUB AND SWAP1 PUSH4 0x35EA6A75 SWAP1 PUSH2 0xFE2 SWAP1 DUP6 SWAP1 PUSH1 0x4 ADD PUSH2 0x465F JUMP JUMPDEST PUSH2 0x180 PUSH1 0x40 MLOAD DUP1 DUP4 SUB DUP2 DUP7 GAS STATICCALL ISZERO DUP1 ISZERO PUSH2 0x1000 JUMPI RETURNDATASIZE PUSH1 0x0 DUP1 RETURNDATACOPY RETURNDATASIZE PUSH1 0x0 REVERT JUMPDEST POP POP POP POP PUSH1 0x40 MLOAD RETURNDATASIZE PUSH1 0x1F NOT PUSH1 0x1F DUP3 ADD AND DUP3 ADD DUP1 PUSH1 0x40 MSTORE POP DUP2 ADD SWAP1 PUSH2 0x1024 SWAP2 SWAP1 PUSH2 0x4F14 JUMP JUMPDEST PUSH1 0xE0 ADD MLOAD SWAP3 SWAP2 POP POP JUMP JUMPDEST PUSH2 0x1036 PUSH2 0x37D9 JUMP JUMPDEST PUSH1 0x40 MLOAD PUSH4 0x7E0DB17 PUSH1 0xE0 SHL DUP2 MSTORE PUSH2 0xFFFF DUP3 AND PUSH1 0x4 DUP3 ADD MSTORE PUSH32 0x0 PUSH1 0x1 PUSH1 0x1 PUSH1 0xA0 SHL SUB AND SWAP1 PUSH4 0x7E0DB17 SWAP1 PUSH1 0x24 ADD JUMPDEST PUSH1 0x0 PUSH1 0x40 MLOAD DUP1 DUP4 SUB DUP2 PUSH1 0x0 DUP8 DUP1 EXTCODESIZE ISZERO DUP1 ISZERO PUSH2 0x109C JUMPI PUSH1 0x0 DUP1 REVERT JUMPDEST POP GAS CALL ISZERO DUP1 ISZERO PUSH2 0x10B0 JUMPI RETURNDATASIZE PUSH1 0x0 DUP1 RETURNDATACOPY RETURNDATASIZE PUSH1 0x0 REVERT JUMPDEST POP POP POP POP POP JUMP JUMPDEST PUSH1 0x2 DUP1 SLOAD PUSH2 0x10C4 SWAP1 PUSH2 0x4E41 JUMP JUMPDEST DUP1 PUSH1 0x1F ADD PUSH1 0x20 DUP1 SWAP2 DIV MUL PUSH1 0x20 ADD PUSH1 0x40 MLOAD SWAP1 DUP2 ADD PUSH1 0x40 MSTORE DUP1 SWAP3 SWAP2 SWAP1 DUP2 DUP2 MSTORE PUSH1 0x20 ADD DUP3 DUP1 SLOAD PUSH2 0x10F0 SWAP1 PUSH2 0x4E41 JUMP JUMPDEST DUP1 ISZERO PUSH2 0x113D JUMPI DUP1 PUSH1 0x1F LT PUSH2 0x1112 JUMPI PUSH2 0x100 DUP1 DUP4 SLOAD DIV MUL DUP4 MSTORE SWAP2 PUSH1 0x20 ADD SWAP2 PUSH2 0x113D JUMP JUMPDEST DUP3 ADD SWAP2 SWAP1 PUSH1 0x0 MSTORE PUSH1 0x20 PUSH1 0x0 KECCAK256 SWAP1 JUMPDEST DUP2 SLOAD DUP2 MSTORE SWAP1 PUSH1 0x1 ADD SWAP1 PUSH1 0x20 ADD DUP1 DUP4 GT PUSH2 0x1120 JUMPI DUP3 SWAP1 SUB PUSH1 0x1F AND DUP3 ADD SWAP2 JUMPDEST POP POP POP POP POP DUP2 JUMP JUMPDEST PUSH2 0x114D PUSH2 0x37D9 JUMP JUMPDEST PUSH1 0x6 DUP1 SLOAD PUSH1 0xFF NOT AND SWAP2 ISZERO ISZERO SWAP2 SWAP1 SWAP2 OR SWAP1 SSTORE JUMP JUMPDEST PUSH1 0x40 MLOAD PUSH4 0x757B753 PUSH1 0xE1 SHL DUP2 MSTORE PUSH1 0x1 PUSH1 0x1 PUSH1 0xA0 SHL SUB PUSH32 0x0 AND SWAP1 PUSH4 0xEAF6EA6 SWAP1 PUSH2 0x11B0 SWAP1 DUP7 SWAP1 DUP7 SWAP1 DUP7 SWAP1 PUSH1 0x4 ADD PUSH2 0x502A JUMP JUMPDEST PUSH1 0x20 PUSH1 0x40 MLOAD DUP1 DUP4 SUB DUP2 DUP7 GAS STATICCALL ISZERO DUP1 ISZERO PUSH2 0x11CD JUMPI RETURNDATASIZE PUSH1 0x0 DUP1 RETURNDATACOPY RETURNDATASIZE PUSH1 0x0 REVERT JUMPDEST POP POP POP POP PUSH1 0x40 MLOAD RETURNDATASIZE PUSH1 0x1F NOT PUSH1 0x1F DUP3 ADD AND DUP3 ADD DUP1 PUSH1 0x40 MSTORE POP DUP2 ADD SWAP1 PUSH2 0x11F1 SWAP2 SWAP1 PUSH2 0x5053 JUMP JUMPDEST POP POP POP POP JUMP JUMPDEST PUSH2 0x11FF PUSH2 0x37D9 JUMP JUMPDEST PUSH1 0x40 MLOAD PUSH4 0x10DDB137 PUSH1 0xE0 SHL DUP2 MSTORE PUSH2 0xFFFF DUP3 AND PUSH1 0x4 DUP3 ADD MSTORE PUSH32 0x0 PUSH1 0x1 PUSH1 0x1 PUSH1 0xA0 SHL SUB AND SWAP1 PUSH4 0x10DDB137 SWAP1 PUSH1 0x24 ADD PUSH2 0x1082 JUMP JUMPDEST PUSH1 0x6 SLOAD PUSH1 0xFF AND ISZERO ISZERO PUSH1 0x1 EQ PUSH2 0x1276 JUMPI PUSH1 0x40 MLOAD PUSH3 0x461BCD PUSH1 0xE5 SHL DUP2 MSTORE PUSH1 0x4 ADD PUSH2 0xDF4 SWAP1 PUSH2 0x5070 JUMP JUMPDEST CALLER PUSH1 0x0 SWAP1 DUP2 MSTORE PUSH1 0x11 PUSH1 0x20 MSTORE PUSH1 0x40 SWAP1 KECCAK256 SLOAD DUP3 GT ISZERO PUSH2 0x12A5 JUMPI PUSH1 0x40 MLOAD PUSH3 0x461BCD PUSH1 0xE5 SHL DUP2 MSTORE PUSH1 0x4 ADD PUSH2 0xDF4 SWAP1 PUSH2 0x5091 JUMP JUMPDEST CALLER PUSH1 0x0 SWAP1 DUP2 MSTORE PUSH1 0x11 PUSH1 0x20 MSTORE PUSH1 0x40 DUP2 KECCAK256 DUP1 SLOAD DUP5 SWAP3 SWAP1 PUSH2 0x12C4 SWAP1 DUP5 SWAP1 PUSH2 0x50D5 JUMP JUMPDEST SWAP1 SWAP2 SSTORE POP POP PUSH1 0x40 MLOAD PUSH4 0xA9059CBB PUSH1 0xE0 SHL DUP2 MSTORE PUSH1 0x1 PUSH1 0x1 PUSH1 0xA0 SHL SUB DUP3 AND SWAP1 PUSH4 0xA9059CBB SWAP1 PUSH2 0x12F7 SWAP1 CALLER SWAP1 DUP7 SWAP1 PUSH1 0x4 ADD PUSH2 0x50E8 JUMP JUMPDEST PUSH1 0x20 PUSH1 0x40 MLOAD DUP1 DUP4 SUB DUP2 PUSH1 0x0 DUP8 GAS CALL ISZERO DUP1 ISZERO PUSH2 0x1316 JUMPI RETURNDATASIZE PUSH1 0x0 DUP1 RETURNDATACOPY RETURNDATASIZE PUSH1 0x0 REVERT JUMPDEST POP POP POP POP PUSH1 0x40 MLOAD RETURNDATASIZE PUSH1 0x1F NOT PUSH1 0x1F DUP3 ADD AND DUP3 ADD DUP1 PUSH1 0x40 MSTORE POP DUP2 ADD SWAP1 PUSH2 0x133A SWAP2 SWAP1 PUSH2 0x5053 JUMP JUMPDEST POP PUSH32 0xBB992170D0382FEEB939A59875390A636BD942134E6E58925CAF64C99432820A CALLER DUP3 DUP5 PUSH1 0x40 MLOAD PUSH2 0x136E SWAP4 SWAP3 SWAP2 SWAP1 PUSH2 0x5101 JUMP JUMPDEST PUSH1 0x40 MLOAD DUP1 SWAP2 SUB SWAP1 LOG1 POP POP JUMP JUMPDEST PUSH1 0x6 SLOAD PUSH1 0xFF AND ISZERO ISZERO PUSH1 0x1 EQ PUSH2 0x13A1 JUMPI PUSH1 0x40 MLOAD PUSH3 0x461BCD PUSH1 0xE5 SHL DUP2 MSTORE PUSH1 0x4 ADD PUSH2 0xDF4 SWAP1 PUSH2 0x5070 JUMP JUMPDEST CALLER PUSH1 0x0 SWAP1 DUP2 MSTORE PUSH1 0x3 PUSH1 0x20 MSTORE PUSH1 0x40 SWAP1 KECCAK256 DUP2 MLOAD DUP4 MLOAD EQ PUSH2 0x13F2 JUMPI PUSH1 0x40 MLOAD PUSH3 0x461BCD PUSH1 0xE5 SHL DUP2 MSTORE PUSH1 0x20 PUSH1 0x4 DUP3 ADD MSTORE PUSH1 0xE PUSH1 0x24 DUP3 ADD MSTORE PUSH14 0x82E4E4C2F240DAD2E6DAC2E8C6D PUSH1 0x93 SHL PUSH1 0x44 DUP3 ADD MSTORE PUSH1 0x64 ADD PUSH2 0xDF4 JUMP JUMPDEST PUSH1 0x0 JUMPDEST DUP4 MLOAD DUP2 LT ISZERO PUSH2 0x166F JUMPI PUSH1 0x0 DUP3 PUSH1 0x2 ADD PUSH1 0x0 DUP6 DUP5 DUP2 MLOAD DUP2 LT PUSH2 0x1418 JUMPI PUSH2 0x1418 PUSH2 0x5125 JUMP JUMPDEST PUSH1 0x20 MUL PUSH1 0x20 ADD ADD MLOAD PUSH1 0x1 PUSH1 0x1 PUSH1 0xA0 SHL SUB AND PUSH1 0x1 PUSH1 0x1 PUSH1 0xA0 SHL SUB AND DUP2 MSTORE PUSH1 0x20 ADD SWAP1 DUP2 MSTORE PUSH1 0x20 ADD PUSH1 0x0 KECCAK256 SLOAD SWAP1 POP DUP5 DUP3 DUP2 MLOAD DUP2 LT PUSH2 0x1455 JUMPI PUSH2 0x1455 PUSH2 0x5125 JUMP JUMPDEST PUSH1 0x20 MUL PUSH1 0x20 ADD ADD MLOAD DUP2 LT ISZERO PUSH2 0x147C JUMPI PUSH1 0x40 MLOAD PUSH3 0x461BCD PUSH1 0xE5 SHL DUP2 MSTORE PUSH1 0x4 ADD PUSH2 0xDF4 SWAP1 PUSH2 0x513B JUMP JUMPDEST DUP5 DUP3 DUP2 MLOAD DUP2 LT PUSH2 0x148E JUMPI PUSH2 0x148E PUSH2 0x5125 JUMP JUMPDEST PUSH1 0x20 MUL PUSH1 0x20 ADD ADD MLOAD DUP4 PUSH1 0x2 ADD PUSH1 0x0 DUP7 DUP6 DUP2 MLOAD DUP2 LT PUSH2 0x14AE JUMPI PUSH2 0x14AE PUSH2 0x5125 JUMP JUMPDEST PUSH1 0x20 MUL PUSH1 0x20 ADD ADD MLOAD PUSH1 0x1 PUSH1 0x1 PUSH1 0xA0 SHL SUB AND PUSH1 0x1 PUSH1 0x1 PUSH1 0xA0 SHL SUB AND DUP2 MSTORE PUSH1 0x20 ADD SWAP1 DUP2 MSTORE PUSH1 0x20 ADD PUSH1 0x0 KECCAK256 PUSH1 0x0 DUP3 DUP3 SLOAD PUSH2 0x14E5 SWAP2 SWAP1 PUSH2 0x50D5 JUMP JUMPDEST SWAP1 SWAP2 SSTORE POP POP DUP4 MLOAD PUSH1 0x0 SWAP1 DUP6 SWAP1 DUP5 SWAP1 DUP2 LT PUSH2 0x1501 JUMPI PUSH2 0x1501 PUSH2 0x5125 JUMP JUMPDEST PUSH1 0x20 MUL PUSH1 0x20 ADD ADD MLOAD PUSH1 0x1 PUSH1 0x1 PUSH1 0xA0 SHL SUB AND SUB PUSH2 0x156F JUMPI CALLER PUSH1 0x1 PUSH1 0x1 PUSH1 0xA0 SHL SUB AND PUSH2 0x8FC DUP7 DUP5 DUP2 MLOAD DUP2 LT PUSH2 0x1536 JUMPI PUSH2 0x1536 PUSH2 0x5125 JUMP JUMPDEST PUSH1 0x20 MUL PUSH1 0x20 ADD ADD MLOAD SWAP1 DUP2 ISZERO MUL SWAP1 PUSH1 0x40 MLOAD PUSH1 0x0 PUSH1 0x40 MLOAD DUP1 DUP4 SUB DUP2 DUP6 DUP9 DUP9 CALL SWAP4 POP POP POP POP ISZERO DUP1 ISZERO PUSH2 0x1569 JUMPI RETURNDATASIZE PUSH1 0x0 DUP1 RETURNDATACOPY RETURNDATASIZE PUSH1 0x0 REVERT JUMPDEST POP PUSH2 0x165C JUMP JUMPDEST PUSH1 0x0 DUP5 DUP4 DUP2 MLOAD DUP2 LT PUSH2 0x1583 JUMPI PUSH2 0x1583 PUSH2 0x5125 JUMP JUMPDEST PUSH1 0x20 MUL PUSH1 0x20 ADD ADD MLOAD PUSH1 0x1 PUSH1 0x1 PUSH1 0xA0 SHL SUB AND PUSH4 0xA9059CBB CALLER DUP9 DUP7 DUP2 MLOAD DUP2 LT PUSH2 0x15AC JUMPI PUSH2 0x15AC PUSH2 0x5125 JUMP JUMPDEST PUSH1 0x20 MUL PUSH1 0x20 ADD ADD MLOAD PUSH1 0x40 MLOAD DUP4 PUSH4 0xFFFFFFFF AND PUSH1 0xE0 SHL DUP2 MSTORE PUSH1 0x4 ADD PUSH2 0x15D1 SWAP3 SWAP2 SWAP1 PUSH2 0x50E8 JUMP JUMPDEST PUSH1 0x20 PUSH1 0x40 MLOAD DUP1 DUP4 SUB DUP2 PUSH1 0x0 DUP8 GAS CALL ISZERO DUP1 ISZERO PUSH2 0x15F0 JUMPI RETURNDATASIZE PUSH1 0x0 DUP1 RETURNDATACOPY RETURNDATASIZE PUSH1 0x0 REVERT JUMPDEST POP POP POP POP PUSH1 0x40 MLOAD RETURNDATASIZE PUSH1 0x1F NOT PUSH1 0x1F DUP3 ADD AND DUP3 ADD DUP1 PUSH1 0x40 MSTORE POP DUP2 ADD SWAP1 PUSH2 0x1614 SWAP2 SWAP1 PUSH2 0x5053 JUMP JUMPDEST SWAP1 POP PUSH1 0x1 DUP2 ISZERO ISZERO EQ PUSH2 0x165A JUMPI PUSH1 0x40 MLOAD PUSH3 0x461BCD PUSH1 0xE5 SHL DUP2 MSTORE PUSH1 0x20 PUSH1 0x4 DUP3 ADD MSTORE PUSH1 0xF PUSH1 0x24 DUP3 ADD MSTORE PUSH15 0x15DA5D1A191C985DC819985A5B1959 PUSH1 0x8A SHL PUSH1 0x44 DUP3 ADD MSTORE PUSH1 0x64 ADD PUSH2 0xDF4 JUMP JUMPDEST POP JUMPDEST POP DUP1 PUSH2 0x1667 DUP2 PUSH2 0x5169 JUMP JUMPDEST SWAP2 POP POP PUSH2 0x13F5 JUMP JUMPDEST POP PUSH32 0xD4DE851AE1BDF4EA540C1D68657B95BDC9710E532C03BF807C1A7107D238706B DUP3 DUP5 CALLER PUSH1 0x40 MLOAD PUSH2 0x16A3 SWAP4 SWAP3 SWAP2 SWAP1 PUSH2 0x5182 JUMP JUMPDEST PUSH1 0x40 MLOAD DUP1 SWAP2 SUB SWAP1 LOG1 POP POP POP JUMP JUMPDEST PUSH1 0x1 SLOAD PUSH1 0x40 MLOAD PUSH4 0x35EA6A75 PUSH1 0xE0 SHL DUP2 MSTORE PUSH1 0x0 SWAP2 DUP3 SWAP2 DUP3 SWAP2 DUP3 SWAP2 DUP3 SWAP2 DUP3 SWAP2 DUP3 SWAP2 DUP3 SWAP2 DUP3 SWAP2 PUSH1 0x1 PUSH1 0x1 PUSH1 0xA0 SHL SUB AND SWAP1 PUSH4 0x35EA6A75 SWAP1 PUSH2 0x16F1 SWAP1 DUP15 SWAP1 PUSH1 0x4 ADD PUSH2 0x465F JUMP JUMPDEST PUSH2 0x180 PUSH1 0x40 MLOAD DUP1 DUP4 SUB DUP2 DUP7 GAS STATICCALL ISZERO DUP1 ISZERO PUSH2 0x170F JUMPI RETURNDATASIZE PUSH1 0x0 DUP1 RETURNDATACOPY RETURNDATASIZE PUSH1 0x0 REVERT JUMPDEST POP POP POP POP PUSH1 0x40 MLOAD RETURNDATASIZE PUSH1 0x1F NOT PUSH1 0x1F DUP3 ADD AND DUP3 ADD DUP1 PUSH1 0x40 MSTORE POP DUP2 ADD SWAP1 PUSH2 0x1733 SWAP2 SWAP1 PUSH2 0x4F14 JUMP JUMPDEST PUSH1 0xE0 DUP2 ADD MLOAD PUSH1 0x40 MLOAD PUSH4 0x70A08231 PUSH1 0xE0 SHL DUP2 MSTORE SWAP2 SWAP3 POP PUSH1 0x1 PUSH1 0x1 PUSH1 0xA0 SHL SUB AND SWAP1 PUSH4 0x70A08231 SWAP1 PUSH2 0x1766 SWAP1 DUP14 SWAP1 PUSH1 0x4 ADD PUSH2 0x465F JUMP JUMPDEST PUSH1 0x20 PUSH1 0x40 MLOAD DUP1 DUP4 SUB DUP2 DUP7 GAS STATICCALL ISZERO DUP1 ISZERO PUSH2 0x1783 JUMPI RETURNDATASIZE PUSH1 0x0 DUP1 RETURNDATACOPY RETURNDATASIZE PUSH1 0x0 REVERT JUMPDEST POP POP POP POP PUSH1 0x40 MLOAD RETURNDATASIZE PUSH1 0x1F NOT PUSH1 0x1F DUP3 ADD AND DUP3 ADD DUP1 PUSH1 0x40 MSTORE POP DUP2 ADD SWAP1 PUSH2 0x17A7 SWAP2 SWAP1 PUSH2 0x51C0 JUMP JUMPDEST PUSH2 0x120 DUP3 ADD MLOAD PUSH1 0x40 MLOAD PUSH4 0x70A08231 PUSH1 0xE0 SHL DUP2 MSTORE SWAP2 SWAP11 POP PUSH1 0x1 PUSH1 0x1 PUSH1 0xA0 SHL SUB AND SWAP1 PUSH4 0x70A08231 SWAP1 PUSH2 0x17DB SWAP1 DUP14 SWAP1 PUSH1 0x4 ADD PUSH2 0x465F JUMP JUMPDEST PUSH1 0x20 PUSH1 0x40 MLOAD DUP1 DUP4 SUB DUP2 DUP7 GAS STATICCALL ISZERO DUP1 ISZERO PUSH2 0x17F8 JUMPI RETURNDATASIZE PUSH1 0x0 DUP1 RETURNDATACOPY RETURNDATASIZE PUSH1 0x0 REVERT JUMPDEST POP POP POP POP PUSH1 0x40 MLOAD RETURNDATASIZE PUSH1 0x1F NOT PUSH1 0x1F DUP3 ADD AND DUP3 ADD DUP1 PUSH1 0x40 MSTORE POP DUP2 ADD SWAP1 PUSH2 0x181C SWAP2 SWAP1 PUSH2 0x51C0 JUMP JUMPDEST PUSH2 0x100 DUP3 ADD MLOAD PUSH1 0x40 MLOAD PUSH4 0x70A08231 PUSH1 0xE0 SHL DUP2 MSTORE SWAP2 SWAP9 POP PUSH1 0x1 PUSH1 0x1 PUSH1 0xA0 SHL SUB AND SWAP1 PUSH4 0x70A08231 SWAP1 PUSH2 0x1850 SWAP1 DUP14 SWAP1 PUSH1 0x4 ADD PUSH2 0x465F JUMP JUMPDEST PUSH1 0x20 PUSH1 0x40 MLOAD DUP1 DUP4 SUB DUP2 DUP7 GAS STATICCALL ISZERO DUP1 ISZERO PUSH2 0x186D JUMPI RETURNDATASIZE PUSH1 0x0 DUP1 RETURNDATACOPY RETURNDATASIZE PUSH1 0x0 REVERT JUMPDEST POP POP POP POP PUSH1 0x40 MLOAD RETURNDATASIZE PUSH1 0x1F NOT PUSH1 0x1F DUP3 ADD AND DUP3 ADD DUP1 PUSH1 0x40 MSTORE POP DUP2 ADD SWAP1 PUSH2 0x1891 SWAP2 SWAP1 PUSH2 0x51C0 JUMP JUMPDEST PUSH2 0x100 DUP3 ADD MLOAD PUSH1 0x40 MLOAD PUSH4 0x631A6FD5 PUSH1 0xE1 SHL DUP2 MSTORE SWAP2 SWAP10 POP PUSH1 0x1 PUSH1 0x1 PUSH1 0xA0 SHL SUB AND SWAP1 PUSH4 0xC634DFAA SWAP1 PUSH2 0x18C5 SWAP1 DUP14 SWAP1 PUSH1 0x4 ADD PUSH2 0x465F JUMP JUMPDEST PUSH1 0x20 PUSH1 0x40 MLOAD DUP1 DUP4 SUB DUP2 DUP7 GAS STATICCALL ISZERO DUP1 ISZERO PUSH2 0x18E2 JUMPI RETURNDATASIZE PUSH1 0x0 DUP1 RETURNDATACOPY RETURNDATASIZE PUSH1 0x0 REVERT JUMPDEST POP POP POP POP PUSH1 0x40 MLOAD RETURNDATASIZE PUSH1 0x1F NOT PUSH1 0x1F DUP3 ADD AND DUP3 ADD DUP1 PUSH1 0x40 MSTORE POP DUP2 ADD SWAP1 PUSH2 0x1906 SWAP2 SWAP1 PUSH2 0x51C0 JUMP JUMPDEST PUSH2 0x120 DUP3 ADD MLOAD PUSH1 0x40 MLOAD PUSH4 0xED1279F PUSH1 0xE1 SHL DUP2 MSTORE SWAP2 SWAP8 POP PUSH1 0x1 PUSH1 0x1 PUSH1 0xA0 SHL SUB AND SWAP1 PUSH4 0x1DA24F3E SWAP1 PUSH2 0x193A SWAP1 DUP14 SWAP1 PUSH1 0x4 ADD PUSH2 0x465F JUMP JUMPDEST PUSH1 0x20 PUSH1 0x40 MLOAD DUP1 DUP4 SUB DUP2 DUP7 GAS STATICCALL ISZERO DUP1 ISZERO PUSH2 0x1957 JUMPI RETURNDATASIZE PUSH1 0x0 DUP1 RETURNDATACOPY RETURNDATASIZE PUSH1 0x0 REVERT JUMPDEST POP POP POP POP PUSH1 0x40 MLOAD RETURNDATASIZE PUSH1 0x1F NOT PUSH1 0x1F DUP3 ADD AND DUP3 ADD DUP1 PUSH1 0x40 MSTORE POP DUP2 ADD SWAP1 PUSH2 0x197B SWAP2 SWAP1 PUSH2 0x51C0 JUMP JUMPDEST SWAP5 POP DUP1 PUSH1 0x60 ADD MLOAD PUSH1 0x1 PUSH1 0x1 PUSH1 0x80 SHL SUB AND SWAP3 POP DUP1 PUSH2 0x100 ADD MLOAD PUSH1 0x1 PUSH1 0x1 PUSH1 0xA0 SHL SUB AND PUSH4 0xE78C9B3B DUP12 PUSH1 0x40 MLOAD DUP3 PUSH4 0xFFFFFFFF AND PUSH1 0xE0 SHL DUP2 MSTORE PUSH1 0x4 ADD PUSH2 0x19BE SWAP2 SWAP1 PUSH2 0x465F JUMP JUMPDEST PUSH1 0x20 PUSH1 0x40 MLOAD DUP1 DUP4 SUB DUP2 DUP7 GAS STATICCALL ISZERO DUP1 ISZERO PUSH2 0x19DB JUMPI RETURNDATASIZE PUSH1 0x0 DUP1 RETURNDATACOPY RETURNDATASIZE PUSH1 0x0 REVERT JUMPDEST POP POP POP POP PUSH1 0x40 MLOAD RETURNDATASIZE PUSH1 0x1F NOT PUSH1 0x1F DUP3 ADD AND DUP3 ADD DUP1 PUSH1 0x40 MSTORE POP DUP2 ADD SWAP1 PUSH2 0x19FF SWAP2 SWAP1 PUSH2 0x51C0 JUMP JUMPDEST PUSH2 0x100 DUP3 ADD MLOAD PUSH1 0x40 MLOAD PUSH4 0x1E739AE3 PUSH1 0xE2 SHL DUP2 MSTORE SWAP2 SWAP6 POP PUSH1 0x1 PUSH1 0x1 PUSH1 0xA0 SHL SUB AND SWAP1 PUSH4 0x79CE6B8C SWAP1 PUSH2 0x1A33 SWAP1 DUP14 SWAP1 PUSH1 0x4 ADD PUSH2 0x465F JUMP JUMPDEST PUSH1 0x20 PUSH1 0x40 MLOAD DUP1 DUP4 SUB DUP2 DUP7 GAS STATICCALL ISZERO DUP1 ISZERO PUSH2 0x1A50 JUMPI RETURNDATASIZE PUSH1 0x0 DUP1 RETURNDATACOPY RETURNDATASIZE PUSH1 0x0 REVERT JUMPDEST POP POP POP POP PUSH1 0x40 MLOAD RETURNDATASIZE PUSH1 0x1F NOT PUSH1 0x1F DUP3 ADD AND DUP3 ADD DUP1 PUSH1 0x40 MSTORE POP DUP2 ADD SWAP1 PUSH2 0x1A74 SWAP2 SWAP1 PUSH2 0x51D9 JUMP JUMPDEST SWAP2 POP POP SWAP3 SWAP6 SWAP9 POP SWAP3 SWAP6 SWAP9 SWAP1 SWAP4 SWAP7 POP JUMP JUMPDEST PUSH2 0xFFFF DUP4 AND PUSH1 0x0 SWAP1 DUP2 MSTORE PUSH1 0xD PUSH1 0x20 MSTORE PUSH1 0x40 DUP2 KECCAK256 DUP1 SLOAD DUP3 SWAP2 SWAP1 PUSH2 0x1AA5 SWAP1 PUSH2 0x4E41 JUMP JUMPDEST DUP1 PUSH1 0x1F ADD PUSH1 0x20 DUP1 SWAP2 DIV MUL PUSH1 0x20 ADD PUSH1 0x40 MLOAD SWAP1 DUP2 ADD PUSH1 0x40 MSTORE DUP1 SWAP3 SWAP2 SWAP1 DUP2 DUP2 MSTORE PUSH1 0x20 ADD DUP3 DUP1 SLOAD PUSH2 0x1AD1 SWAP1 PUSH2 0x4E41 JUMP JUMPDEST DUP1 ISZERO PUSH2 0x1B1E JUMPI DUP1 PUSH1 0x1F LT PUSH2 0x1AF3 JUMPI PUSH2 0x100 DUP1 DUP4 SLOAD DIV MUL DUP4 MSTORE SWAP2 PUSH1 0x20 ADD SWAP2 PUSH2 0x1B1E JUMP JUMPDEST DUP3 ADD SWAP2 SWAP1 PUSH1 0x0 MSTORE PUSH1 0x20 PUSH1 0x0 KECCAK256 SWAP1 JUMPDEST DUP2 SLOAD DUP2 MSTORE SWAP1 PUSH1 0x1 ADD SWAP1 PUSH1 0x20 ADD DUP1 DUP4 GT PUSH2 0x1B01 JUMPI DUP3 SWAP1 SUB PUSH1 0x1F AND DUP3 ADD SWAP2 JUMPDEST POP POP POP POP POP SWAP1 POP DUP4 DUP4 PUSH1 0x40 MLOAD PUSH2 0x1B35 SWAP3 SWAP2 SWAP1 PUSH2 0x4E7B JUMP JUMPDEST PUSH1 0x40 MLOAD DUP1 SWAP2 SUB SWAP1 KECCAK256 DUP2 DUP1 MLOAD SWAP1 PUSH1 0x20 ADD KECCAK256 EQ SWAP2 POP POP SWAP4 SWAP3 POP POP POP JUMP JUMPDEST PUSH2 0x1B58 PUSH2 0x37D9 JUMP JUMPDEST PUSH1 0x40 MLOAD PUSH4 0x42D65A8D PUSH1 0xE0 SHL DUP2 MSTORE PUSH1 0x1 PUSH1 0x1 PUSH1 0xA0 SHL SUB PUSH32 0x0 AND SWAP1 PUSH4 0x42D65A8D SWAP1 PUSH2 0x1BA8 SWAP1 DUP7 SWAP1 DUP7 SWAP1 DUP7 SWAP1 PUSH1 0x4 ADD PUSH2 0x502A JUMP JUMPDEST PUSH1 0x0 PUSH1 0x40 MLOAD DUP1 DUP4 SUB DUP2 PUSH1 0x0 DUP8 DUP1 EXTCODESIZE ISZERO DUP1 ISZERO PUSH2 0x1BC2 JUMPI PUSH1 0x0 DUP1 REVERT JUMPDEST POP GAS CALL ISZERO DUP1 ISZERO PUSH2 0xFA8 JUMPI RETURNDATASIZE PUSH1 0x0 DUP1 RETURNDATACOPY RETURNDATASIZE PUSH1 0x0 REVERT JUMPDEST PUSH1 0x6 SLOAD PUSH1 0x0 SWAP1 DUP2 SWAP1 PUSH1 0xFF AND ISZERO ISZERO PUSH1 0x1 EQ PUSH2 0x1C1C JUMPI PUSH1 0x40 MLOAD PUSH3 0x461BCD PUSH1 0xE5 SHL DUP2 MSTORE PUSH1 0x20 PUSH1 0x4 DUP3 ADD MSTORE PUSH1 0x7 PUSH1 0x24 DUP3 ADD MSTORE PUSH7 0x436C6F73696E67 PUSH1 0xC8 SHL PUSH1 0x44 DUP3 ADD MSTORE PUSH1 0x64 ADD PUSH2 0xDF4 JUMP JUMPDEST PUSH1 0x1 PUSH1 0x1 PUSH1 0xA0 SHL SUB DUP5 AND PUSH1 0x0 SWAP1 DUP2 MSTORE PUSH1 0x12 PUSH1 0x20 MSTORE PUSH1 0x40 SWAP1 KECCAK256 SLOAD PUSH1 0xFF AND ISZERO ISZERO PUSH1 0x1 EQ PUSH2 0x1C9C JUMPI PUSH1 0x40 MLOAD PUSH3 0x461BCD PUSH1 0xE5 SHL DUP2 MSTORE PUSH1 0x20 PUSH1 0x4 DUP3 ADD MSTORE PUSH1 0x2A PUSH1 0x24 DUP3 ADD MSTORE PUSH32 0x526563686172676520696E20746869732063757272656E6379206973206E6F74 PUSH1 0x44 DUP3 ADD MSTORE PUSH10 0x81CDD5C1C1BDC9D1959 PUSH1 0xB2 SHL PUSH1 0x64 DUP3 ADD MSTORE PUSH1 0x84 ADD PUSH2 0xDF4 JUMP JUMPDEST PUSH1 0x40 MLOAD PUSH4 0x70A08231 PUSH1 0xE0 SHL DUP2 MSTORE DUP4 SWAP1 PUSH1 0x1 PUSH1 0x1 PUSH1 0xA0 SHL SUB DUP7 AND SWAP1 PUSH4 0x70A08231 SWAP1 PUSH2 0x1CCA SWAP1 CALLER SWAP1 PUSH1 0x4 ADD PUSH2 0x465F JUMP JUMPDEST PUSH1 0x20 PUSH1 0x40 MLOAD DUP1 DUP4 SUB DUP2 DUP7 GAS STATICCALL ISZERO DUP1 ISZERO PUSH2 0x1CE7 JUMPI RETURNDATASIZE PUSH1 0x0 DUP1 RETURNDATACOPY RETURNDATASIZE PUSH1 0x0 REVERT JUMPDEST POP POP POP POP PUSH1 0x40 MLOAD RETURNDATASIZE PUSH1 0x1F NOT PUSH1 0x1F DUP3 ADD AND DUP3 ADD DUP1 PUSH1 0x40 MSTORE POP DUP2 ADD SWAP1 PUSH2 0x1D0B SWAP2 SWAP1 PUSH2 0x51C0 JUMP JUMPDEST LT ISZERO PUSH2 0x1D29 JUMPI PUSH1 0x40 MLOAD PUSH3 0x461BCD PUSH1 0xE5 SHL DUP2 MSTORE PUSH1 0x4 ADD PUSH2 0xDF4 SWAP1 PUSH2 0x513B JUMP JUMPDEST PUSH1 0x40 MLOAD PUSH4 0x6EB1769F PUSH1 0xE1 SHL DUP2 MSTORE DUP4 SWAP1 PUSH1 0x1 PUSH1 0x1 PUSH1 0xA0 SHL SUB DUP7 AND SWAP1 PUSH4 0xDD62ED3E SWAP1 PUSH2 0x1D59 SWAP1 CALLER SWAP1 ADDRESS SWAP1 PUSH1 0x4 ADD PUSH2 0x51F4 JUMP JUMPDEST PUSH1 0x20 PUSH1 0x40 MLOAD DUP1 DUP4 SUB DUP2 DUP7 GAS STATICCALL ISZERO DUP1 ISZERO PUSH2 0x1D76 JUMPI RETURNDATASIZE PUSH1 0x0 DUP1 RETURNDATACOPY RETURNDATASIZE PUSH1 0x0 REVERT JUMPDEST POP POP POP POP PUSH1 0x40 MLOAD RETURNDATASIZE PUSH1 0x1F NOT PUSH1 0x1F DUP3 ADD AND DUP3 ADD DUP1 PUSH1 0x40 MSTORE POP DUP2 ADD SWAP1 PUSH2 0x1D9A SWAP2 SWAP1 PUSH2 0x51C0 JUMP JUMPDEST LT ISZERO PUSH2 0x1DB8 JUMPI PUSH1 0x40 MLOAD PUSH3 0x461BCD PUSH1 0xE5 SHL DUP2 MSTORE PUSH1 0x4 ADD PUSH2 0xDF4 SWAP1 PUSH2 0x520E JUMP JUMPDEST PUSH1 0x40 MLOAD PUSH4 0x70A08231 PUSH1 0xE0 SHL DUP2 MSTORE PUSH1 0x0 SWAP1 PUSH1 0x1 PUSH1 0x1 PUSH1 0xA0 SHL SUB DUP7 AND SWAP1 PUSH4 0x70A08231 SWAP1 PUSH2 0x1DE7 SWAP1 CALLER SWAP1 PUSH1 0x4 ADD PUSH2 0x465F JUMP JUMPDEST PUSH1 0x20 PUSH1 0x40 MLOAD DUP1 DUP4 SUB DUP2 DUP7 GAS STATICCALL ISZERO DUP1 ISZERO PUSH2 0x1E04 JUMPI RETURNDATASIZE PUSH1 0x0 DUP1 RETURNDATACOPY RETURNDATASIZE PUSH1 0x0 REVERT JUMPDEST POP POP POP POP PUSH1 0x40 MLOAD RETURNDATASIZE PUSH1 0x1F NOT PUSH1 0x1F DUP3 ADD AND DUP3 ADD DUP1 PUSH1 0x40 MSTORE POP DUP2 ADD SWAP1 PUSH2 0x1E28 SWAP2 SWAP1 PUSH2 0x51C0 JUMP JUMPDEST PUSH1 0x40 MLOAD PUSH4 0x23B872DD PUSH1 0xE0 SHL DUP2 MSTORE SWAP1 SWAP2 POP PUSH1 0x1 PUSH1 0x1 PUSH1 0xA0 SHL SUB DUP7 AND SWAP1 PUSH4 0x23B872DD SWAP1 PUSH2 0x1E5B SWAP1 CALLER SWAP1 ADDRESS SWAP1 DUP10 SWAP1 PUSH1 0x4 ADD PUSH2 0x5101 JUMP JUMPDEST PUSH1 0x20 PUSH1 0x40 MLOAD DUP1 DUP4 SUB DUP2 PUSH1 0x0 DUP8 GAS CALL ISZERO DUP1 ISZERO PUSH2 0x1E7A JUMPI RETURNDATASIZE PUSH1 0x0 DUP1 RETURNDATACOPY RETURNDATASIZE PUSH1 0x0 REVERT JUMPDEST POP POP POP POP PUSH1 0x40 MLOAD RETURNDATASIZE PUSH1 0x1F NOT PUSH1 0x1F DUP3 ADD AND DUP3 ADD DUP1 PUSH1 0x40 MSTORE POP DUP2 ADD SWAP1 PUSH2 0x1E9E SWAP2 SWAP1 PUSH2 0x5053 JUMP JUMPDEST POP PUSH2 0x1EA9 DUP5 DUP3 PUSH2 0x50D5 JUMP JUMPDEST PUSH1 0x40 MLOAD PUSH4 0x70A08231 PUSH1 0xE0 SHL DUP2 MSTORE PUSH1 0x1 PUSH1 0x1 PUSH1 0xA0 SHL SUB DUP8 AND SWAP1 PUSH4 0x70A08231 SWAP1 PUSH2 0x1ED5 SWAP1 CALLER SWAP1 PUSH1 0x4 ADD PUSH2 0x465F JUMP JUMPDEST PUSH1 0x20 PUSH1 0x40 MLOAD DUP1 DUP4 SUB DUP2 DUP7 GAS STATICCALL ISZERO DUP1 ISZERO PUSH2 0x1EF2 JUMPI RETURNDATASIZE PUSH1 0x0 DUP1 RETURNDATACOPY RETURNDATASIZE PUSH1 0x0 REVERT JUMPDEST POP POP POP POP PUSH1 0x40 MLOAD RETURNDATASIZE PUSH1 0x1F NOT PUSH1 0x1F DUP3 ADD AND DUP3 ADD DUP1 PUSH1 0x40 MSTORE POP DUP2 ADD SWAP1 PUSH2 0x1F16 SWAP2 SWAP1 PUSH2 0x51C0 JUMP JUMPDEST EQ PUSH2 0x1F33 JUMPI PUSH1 0x40 MLOAD PUSH3 0x461BCD PUSH1 0xE5 SHL DUP2 MSTORE PUSH1 0x4 ADD PUSH2 0xDF4 SWAP1 PUSH2 0x513B JUMP JUMPDEST PUSH1 0x0 PUSH2 0x1F3E CALLER PUSH2 0x233E JUMP JUMPDEST POP SWAP1 POP CALLVALUE DUP2 GT ISZERO PUSH2 0x1F61 JUMPI PUSH1 0x40 MLOAD PUSH3 0x461BCD PUSH1 0xE5 SHL DUP2 MSTORE PUSH1 0x4 ADD PUSH2 0xDF4 SWAP1 PUSH2 0x5238 JUMP JUMPDEST PUSH1 0x1 PUSH1 0x1 PUSH1 0xA0 SHL SUB DUP7 AND PUSH1 0x0 SWAP1 DUP2 MSTORE PUSH1 0x4 PUSH1 0x20 MSTORE PUSH1 0x40 SWAP1 KECCAK256 SLOAD PUSH1 0xFF AND ISZERO ISZERO PUSH1 0x1 SUB PUSH2 0x2003 JUMPI PUSH1 0xA SLOAD PUSH1 0x1 SWAP5 POP PUSH1 0x0 SWAP1 PUSH2 0x1FA2 SWAP1 PUSH1 0x1 PUSH1 0x1 PUSH1 0xA0 SHL SUB AND PUSH2 0x24D3 JUMP JUMPDEST SWAP1 POP PUSH2 0x1FAE DUP8 DUP8 PUSH2 0x3838 JUMP JUMPDEST PUSH1 0xA SLOAD PUSH2 0x1FC3 SWAP1 PUSH1 0x1 PUSH1 0x1 PUSH1 0xA0 SHL SUB AND PUSH2 0x24D3 JUMP JUMPDEST PUSH2 0x1FCD DUP3 DUP9 PUSH2 0x526C JUMP JUMPDEST PUSH2 0x1FD7 SWAP2 SWAP1 PUSH2 0x50D5 JUMP JUMPDEST PUSH1 0x1 SUB PUSH2 0x2001 JUMPI PUSH1 0xA SLOAD PUSH2 0x1FF3 SWAP1 PUSH1 0x1 PUSH1 0x1 PUSH1 0xA0 SHL SUB AND PUSH2 0x24D3 JUMP JUMPDEST PUSH2 0x1FFE SWAP1 PUSH1 0x1 PUSH2 0x526C JUMP JUMPDEST SWAP4 POP JUMPDEST POP JUMPDEST PUSH1 0xA SLOAD PUSH2 0x2018 SWAP1 PUSH1 0x1 PUSH1 0x1 PUSH1 0xA0 SHL SUB AND PUSH2 0x24D3 JUMP JUMPDEST PUSH1 0x0 SLOAD PUSH1 0x40 MLOAD SWAP2 SWAP5 POP PUSH2 0x205A SWAP2 PUSH2 0xFFFF SWAP1 SWAP2 AND SWAP1 PUSH2 0x2045 SWAP1 CALLER SWAP1 DUP11 SWAP1 DUP11 SWAP1 DUP11 SWAP1 PUSH1 0x1 SWAP1 DUP12 SWAP1 PUSH1 0x20 ADD PUSH2 0x527F JUMP JUMPDEST PUSH1 0x40 MLOAD PUSH1 0x20 DUP2 DUP4 SUB SUB DUP2 MSTORE SWAP1 PUSH1 0x40 MSTORE CALLVALUE PUSH2 0x39B3 JUMP JUMPDEST PUSH32 0x448D2B6792A74A21BFA5114F7CD01A036F36236F4E3687339032E97103E653CE DUP7 DUP7 CALLER PUSH1 0x40 MLOAD PUSH2 0x208D SWAP4 SWAP3 SWAP2 SWAP1 PUSH2 0x52D8 JUMP JUMPDEST PUSH1 0x40 MLOAD DUP1 SWAP2 SUB SWAP1 LOG1 POP POP POP POP POP POP JUMP JUMPDEST PUSH2 0x20A5 PUSH2 0x37D9 JUMP JUMPDEST PUSH1 0x40 MLOAD PUSH4 0x4B2B47B PUSH1 0xE1 SHL DUP2 MSTORE PUSH1 0x6 SWAP1 PUSH1 0x1 PUSH1 0x1 PUSH1 0xA0 SHL SUB PUSH32 0x0 AND SWAP1 PUSH4 0xCBED8B9C SWAP1 DUP3 SWAP1 PUSH4 0x96568F6 SWAP1 PUSH2 0x20FC SWAP1 ADDRESS SWAP1 PUSH1 0x4 ADD PUSH2 0x465F JUMP JUMPDEST PUSH1 0x20 PUSH1 0x40 MLOAD DUP1 DUP4 SUB DUP2 DUP7 GAS STATICCALL ISZERO DUP1 ISZERO PUSH2 0x2119 JUMPI RETURNDATASIZE PUSH1 0x0 DUP1 RETURNDATACOPY RETURNDATASIZE PUSH1 0x0 REVERT JUMPDEST POP POP POP POP PUSH1 0x40 MLOAD RETURNDATASIZE PUSH1 0x1F NOT PUSH1 0x1F DUP3 ADD AND DUP3 ADD DUP1 PUSH1 0x40 MSTORE POP DUP2 ADD SWAP1 PUSH2 0x213D SWAP2 SWAP1 PUSH2 0x52FB JUMP JUMPDEST DUP6 DUP5 DUP7 PUSH1 0x40 MLOAD PUSH1 0x20 ADD PUSH2 0x2150 SWAP2 SWAP1 PUSH2 0x465F JUMP JUMPDEST PUSH1 0x40 MLOAD PUSH1 0x20 DUP2 DUP4 SUB SUB DUP2 MSTORE SWAP1 PUSH1 0x40 MSTORE PUSH1 0x40 MLOAD DUP6 PUSH4 0xFFFFFFFF AND PUSH1 0xE0 SHL DUP2 MSTORE PUSH1 0x4 ADD PUSH2 0x1BA8 SWAP5 SWAP4 SWAP3 SWAP2 SWAP1 PUSH2 0x5318 JUMP JUMPDEST PUSH1 0x60 DUP2 PUSH1 0x0 DUP1 PUSH2 0x2710 PUSH1 0x0 PUSH1 0xA PUSH2 0x21A9 PUSH1 0xA PUSH1 0x0 SWAP1 SLOAD SWAP1 PUSH2 0x100 EXP SWAP1 DIV PUSH1 0x1 PUSH1 0x1 PUSH1 0xA0 SHL SUB AND PUSH2 0x24D3 JUMP JUMPDEST PUSH1 0x40 DUP1 MLOAD PUSH1 0x1 PUSH1 0x1 PUSH1 0xA0 SHL SUB SWAP1 SWAP9 AND PUSH1 0x20 DUP10 ADD MSTORE PUSH1 0xFF SWAP7 DUP8 AND SWAP1 DUP9 ADD MSTORE SWAP4 DUP6 AND PUSH1 0x60 DUP8 ADD MSTORE PUSH2 0xFFFF SWAP1 SWAP3 AND PUSH1 0x80 DUP7 ADD MSTORE DUP4 AND PUSH1 0xA0 DUP6 ADD MSTORE SWAP2 SWAP1 SWAP2 AND PUSH1 0xC0 DUP4 ADD MSTORE PUSH1 0xE0 DUP3 ADD MSTORE PUSH3 0xF4240 PUSH2 0x100 DUP3 ADD MSTORE PUSH2 0x120 ADD PUSH1 0x40 MLOAD PUSH1 0x20 DUP2 DUP4 SUB SUB DUP2 MSTORE SWAP1 PUSH1 0x40 MSTORE SWAP1 POP SWAP2 SWAP1 POP JUMP JUMPDEST PUSH1 0x6 SLOAD PUSH1 0xFF AND ISZERO ISZERO PUSH1 0x1 EQ PUSH2 0x2239 JUMPI PUSH1 0x40 MLOAD PUSH3 0x461BCD PUSH1 0xE5 SHL DUP2 MSTORE PUSH1 0x4 ADD PUSH2 0xDF4 SWAP1 PUSH2 0x5070 JUMP JUMPDEST PUSH1 0x0 PUSH2 0x2244 CALLER PUSH2 0x233E JUMP JUMPDEST POP SWAP1 POP CALLVALUE PUSH2 0x2252 DUP3 DUP5 PUSH2 0x526C JUMP JUMPDEST GT ISZERO PUSH2 0x2292 JUMPI PUSH1 0x40 MLOAD PUSH3 0x461BCD PUSH1 0xE5 SHL DUP2 MSTORE PUSH1 0x20 PUSH1 0x4 DUP3 ADD MSTORE PUSH1 0xF PUSH1 0x24 DUP3 ADD MSTORE PUSH15 0xC2DADEEADCE840DCDE40DAC2E8C6D PUSH1 0x8B SHL PUSH1 0x44 DUP3 ADD MSTORE PUSH1 0x64 ADD PUSH2 0xDF4 JUMP JUMPDEST CALLVALUE DUP2 GT ISZERO PUSH2 0x22B2 JUMPI PUSH1 0x40 MLOAD PUSH3 0x461BCD PUSH1 0xE5 SHL DUP2 MSTORE PUSH1 0x4 ADD PUSH2 0xDF4 SWAP1 PUSH2 0x5238 JUMP JUMPDEST PUSH1 0x0 DUP1 SLOAD PUSH1 0xA SLOAD PUSH2 0x2309 SWAP3 PUSH2 0xFFFF SWAP1 SWAP3 AND SWAP2 CALLER SWAP2 DUP7 SWAP1 DUP3 SWAP1 PUSH1 0x2 SWAP1 PUSH2 0x22DF SWAP1 PUSH1 0x1 PUSH1 0x1 PUSH1 0xA0 SHL SUB AND PUSH2 0x24D3 JUMP JUMPDEST PUSH1 0x40 MLOAD PUSH1 0x20 ADD PUSH2 0x22F4 SWAP7 SWAP6 SWAP5 SWAP4 SWAP3 SWAP2 SWAP1 PUSH2 0x527F JUMP JUMPDEST PUSH1 0x40 MLOAD PUSH1 0x20 DUP2 DUP4 SUB SUB DUP2 MSTORE SWAP1 PUSH1 0x40 MSTORE DUP4 PUSH2 0x39B3 JUMP JUMPDEST PUSH1 0x40 DUP1 MLOAD DUP4 DUP2 MSTORE CALLER PUSH1 0x20 DUP3 ADD MSTORE PUSH32 0xF007803DA765BF8BFB79898E5892989976C0F6B9F69DD946CB8B949C781587A SWAP2 ADD PUSH2 0x136E JUMP JUMPDEST PUSH1 0x0 DUP1 SLOAD DUP2 SWAP1 DUP2 SWAP1 DUP2 SWAP1 PUSH1 0x1 PUSH1 0x1 PUSH1 0xA0 SHL SUB PUSH32 0x0 AND SWAP1 PUSH4 0x40A7BB10 SWAP1 PUSH2 0xFFFF AND ADDRESS PUSH2 0x2387 DUP10 PUSH2 0x217E JUMP JUMPDEST PUSH1 0x0 PUSH1 0x2 PUSH1 0x40 MLOAD DUP7 PUSH4 0xFFFFFFFF AND PUSH1 0xE0 SHL DUP2 MSTORE PUSH1 0x4 ADD PUSH2 0x23AB SWAP6 SWAP5 SWAP4 SWAP3 SWAP2 SWAP1 PUSH2 0x534F JUMP JUMPDEST PUSH1 0x40 DUP1 MLOAD DUP1 DUP4 SUB DUP2 DUP7 GAS STATICCALL ISZERO DUP1 ISZERO PUSH2 0x23C7 JUMPI RETURNDATASIZE PUSH1 0x0 DUP1 RETURNDATACOPY RETURNDATASIZE PUSH1 0x0 REVERT JUMPDEST POP POP POP POP PUSH1 0x40 MLOAD RETURNDATASIZE PUSH1 0x1F NOT PUSH1 0x1F DUP3 ADD AND DUP3 ADD DUP1 PUSH1 0x40 MSTORE POP DUP2 ADD SWAP1 PUSH2 0x23EB SWAP2 SWAP1 PUSH2 0x540D JUMP JUMPDEST SWAP1 SWAP7 SWAP1 SWAP6 POP SWAP4 POP POP POP POP JUMP JUMPDEST CALLER ADDRESS EQ PUSH2 0x2455 JUMPI PUSH1 0x40 MLOAD PUSH3 0x461BCD PUSH1 0xE5 SHL DUP2 MSTORE PUSH1 0x20 PUSH1 0x4 DUP3 ADD MSTORE PUSH1 0x26 PUSH1 0x24 DUP3 ADD MSTORE PUSH32 0x4E6F6E626C6F636B696E674C7A4170703A2063616C6C6572206D757374206265 PUSH1 0x44 DUP3 ADD MSTORE PUSH6 0x204C7A41707 PUSH1 0xD4 SHL PUSH1 0x64 DUP3 ADD MSTORE PUSH1 0x84 ADD PUSH2 0xDF4 JUMP JUMPDEST PUSH2 0x24CB DUP7 DUP7 DUP7 DUP1 DUP1 PUSH1 0x1F ADD PUSH1 0x20 DUP1 SWAP2 DIV MUL PUSH1 0x20 ADD PUSH1 0x40 MLOAD SWAP1 DUP2 ADD PUSH1 0x40 MSTORE DUP1 SWAP4 SWAP3 SWAP2 SWAP1 DUP2 DUP2 MSTORE PUSH1 0x20 ADD DUP4 DUP4 DUP1 DUP3 DUP5 CALLDATACOPY PUSH1 0x0 SWAP3 ADD SWAP2 SWAP1 SWAP2 MSTORE POP POP PUSH1 0x40 DUP1 MLOAD PUSH1 0x20 PUSH1 0x1F DUP10 ADD DUP2 SWAP1 DIV DUP2 MUL DUP3 ADD DUP2 ADD SWAP1 SWAP3 MSTORE DUP8 DUP2 MSTORE DUP10 SWAP4 POP SWAP2 POP DUP8 SWAP1 DUP8 SWAP1 DUP2 SWAP1 DUP5 ADD DUP4 DUP3 DUP1 DUP3 DUP5 CALLDATACOPY PUSH1 0x0 SWAP3 ADD SWAP2 SWAP1 SWAP2 MSTORE POP PUSH2 0x3A4C SWAP3 POP POP POP JUMP JUMPDEST POP POP POP POP POP POP JUMP JUMPDEST PUSH1 0x1 SLOAD PUSH1 0x40 MLOAD PUSH4 0x35EA6A75 PUSH1 0xE0 SHL DUP2 MSTORE PUSH1 0x0 SWAP2 DUP3 SWAP2 PUSH1 0x1 PUSH1 0x1 PUSH1 0xA0 SHL SUB SWAP1 SWAP2 AND SWAP1 PUSH4 0x35EA6A75 SWAP1 PUSH2 0x2508 SWAP1 DUP7 SWAP1 PUSH1 0x4 ADD PUSH2 0x465F JUMP JUMPDEST PUSH2 0x180 PUSH1 0x40 MLOAD DUP1 DUP4 SUB DUP2 DUP7 GAS STATICCALL ISZERO DUP1 ISZERO PUSH2 0x2526 JUMPI RETURNDATASIZE PUSH1 0x0 DUP1 RETURNDATACOPY RETURNDATASIZE PUSH1 0x0 REVERT JUMPDEST POP POP POP POP PUSH1 0x40 MLOAD RETURNDATASIZE PUSH1 0x1F NOT PUSH1 0x1F DUP3 ADD AND DUP3 ADD DUP1 PUSH1 0x40 MSTORE POP DUP2 ADD SWAP1 PUSH2 0x254A SWAP2 SWAP1 PUSH2 0x4F14 JUMP JUMPDEST PUSH1 0xE0 DUP2 ADD MLOAD PUSH1 0x40 MLOAD PUSH4 0x70A08231 PUSH1 0xE0 SHL DUP2 MSTORE SWAP2 SWAP3 POP PUSH1 0x1 PUSH1 0x1 PUSH1 0xA0 SHL SUB AND SWAP1 PUSH4 0x70A08231 SWAP1 PUSH2 0x257D SWAP1 ADDRESS SWAP1 PUSH1 0x4 ADD PUSH2 0x465F JUMP JUMPDEST PUSH1 0x20 PUSH1 0x40 MLOAD DUP1 DUP4 SUB DUP2 DUP7 GAS STATICCALL ISZERO DUP1 ISZERO PUSH2 0x259A JUMPI RETURNDATASIZE PUSH1 0x0 DUP1 RETURNDATACOPY RETURNDATASIZE PUSH1 0x0 REVERT JUMPDEST POP POP POP POP PUSH1 0x40 MLOAD RETURNDATASIZE PUSH1 0x1F NOT PUSH1 0x1F DUP3 ADD AND DUP3 ADD DUP1 PUSH1 0x40 MSTORE POP DUP2 ADD SWAP1 PUSH2 0x25BE SWAP2 SWAP1 PUSH2 0x51C0 JUMP JUMPDEST SWAP4 SWAP3 POP POP POP JUMP JUMPDEST PUSH2 0x25CD PUSH2 0x37D9 JUMP JUMPDEST PUSH1 0x40 MLOAD PUSH1 0x1 PUSH1 0x1 PUSH1 0xF0 SHL SUB NOT PUSH1 0xF0 DUP5 SWAP1 SHL AND PUSH1 0x20 DUP3 ADD MSTORE PUSH1 0x22 DUP2 ADD DUP3 SWAP1 MSTORE PUSH1 0x42 ADD PUSH1 0x40 MLOAD PUSH1 0x20 DUP2 DUP4 SUB SUB DUP2 MSTORE SWAP1 PUSH1 0x40 MSTORE PUSH1 0x2 SWAP1 DUP2 PUSH2 0x260B SWAP2 SWAP1 PUSH2 0x548C JUMP JUMPDEST POP POP POP JUMP JUMPDEST PUSH2 0x2618 PUSH2 0x37D9 JUMP JUMPDEST PUSH2 0x2622 PUSH1 0x0 PUSH2 0x3F78 JUMP JUMPDEST JUMP JUMPDEST PUSH1 0xD PUSH1 0x20 MSTORE PUSH1 0x0 SWAP1 DUP2 MSTORE PUSH1 0x40 SWAP1 KECCAK256 DUP1 SLOAD PUSH2 0x10C4 SWAP1 PUSH2 0x4E41 JUMP JUMPDEST CALLER DUP1 PUSH2 0x2647 PUSH2 0x31A2 JUMP JUMPDEST PUSH1 0x1 PUSH1 0x1 PUSH1 0xA0 SHL SUB AND EQ PUSH2 0x26AF JUMPI PUSH1 0x40 MLOAD PUSH3 0x461BCD PUSH1 0xE5 SHL DUP2 MSTORE PUSH1 0x20 PUSH1 0x4 DUP3 ADD MSTORE PUSH1 0x29 PUSH1 0x24 DUP3 ADD MSTORE PUSH32 0x4F776E61626C6532537465703A2063616C6C6572206973206E6F742074686520 PUSH1 0x44 DUP3 ADD MSTORE PUSH9 0x3732BB9037BBB732B9 PUSH1 0xB9 SHL PUSH1 0x64 DUP3 ADD MSTORE PUSH1 0x84 ADD PUSH2 0xDF4 JUMP JUMPDEST PUSH2 0x26B8 DUP2 PUSH2 0x3F78 JUMP JUMPDEST POP JUMP JUMPDEST PUSH1 0x0 DUP1 PUSH1 0x0 PUSH2 0x26CA DUP6 DUP6 PUSH2 0x16B0 JUMP JUMPDEST POP POP POP POP POP SWAP3 POP POP SWAP2 POP PUSH1 0x0 DUP2 DUP4 PUSH2 0x26E2 SWAP2 SWAP1 PUSH2 0x50D5 JUMP JUMPDEST SWAP4 POP POP POP POP JUMPDEST SWAP3 SWAP2 POP POP JUMP JUMPDEST PUSH1 0xB SLOAD PUSH1 0x1 PUSH1 0x1 PUSH1 0xA0 SHL SUB AND SWAP1 JUMP JUMPDEST PUSH1 0x0 SWAP2 DUP3 MSTORE PUSH1 0x7 PUSH1 0x20 SWAP1 DUP2 MSTORE PUSH1 0x40 DUP1 DUP5 KECCAK256 PUSH1 0x1 PUSH1 0x1 PUSH1 0xA0 SHL SUB SWAP4 SWAP1 SWAP4 AND DUP5 MSTORE SWAP2 SWAP1 MSTORE SWAP1 KECCAK256 SLOAD PUSH1 0xFF AND SWAP1 JUMP JUMPDEST PUSH2 0xFFFF DUP2 AND PUSH1 0x0 SWAP1 DUP2 MSTORE PUSH1 0xD PUSH1 0x20 MSTORE PUSH1 0x40 DUP2 KECCAK256 DUP1 SLOAD PUSH1 0x60 SWAP3 SWAP2 SWAP1 PUSH2 0x274B SWAP1 PUSH2 0x4E41 JUMP JUMPDEST DUP1 PUSH1 0x1F ADD PUSH1 0x20 DUP1 SWAP2 DIV MUL PUSH1 0x20 ADD PUSH1 0x40 MLOAD SWAP1 DUP2 ADD PUSH1 0x40 MSTORE DUP1 SWAP3 SWAP2 SWAP1 DUP2 DUP2 MSTORE PUSH1 0x20 ADD DUP3 DUP1 SLOAD PUSH2 0x2777 SWAP1 PUSH2 0x4E41 JUMP JUMPDEST DUP1 ISZERO PUSH2 0x27C4 JUMPI DUP1 PUSH1 0x1F LT PUSH2 0x2799 JUMPI PUSH2 0x100 DUP1 DUP4 SLOAD DIV MUL DUP4 MSTORE SWAP2 PUSH1 0x20 ADD SWAP2 PUSH2 0x27C4 JUMP JUMPDEST DUP3 ADD SWAP2 SWAP1 PUSH1 0x0 MSTORE PUSH1 0x20 PUSH1 0x0 KECCAK256 SWAP1 JUMPDEST DUP2 SLOAD DUP2 MSTORE SWAP1 PUSH1 0x1 ADD SWAP1 PUSH1 0x20 ADD DUP1 DUP4 GT PUSH2 0x27A7 JUMPI DUP3 SWAP1 SUB PUSH1 0x1F AND DUP3 ADD SWAP2 JUMPDEST POP POP POP POP POP SWAP1 POP DUP1 MLOAD PUSH1 0x0 SUB PUSH2 0x281C JUMPI PUSH1 0x40 MLOAD PUSH3 0x461BCD PUSH1 0xE5 SHL DUP2 MSTORE PUSH1 0x20 PUSH1 0x4 DUP3 ADD MSTORE PUSH1 0x1D PUSH1 0x24 DUP3 ADD MSTORE PUSH32 0x4C7A4170703A206E6F20747275737465642070617468207265636F7264000000 PUSH1 0x44 DUP3 ADD MSTORE PUSH1 0x64 ADD PUSH2 0xDF4 JUMP JUMPDEST PUSH2 0x25BE PUSH1 0x0 PUSH1 0x14 DUP4 MLOAD PUSH2 0x282F SWAP2 SWAP1 PUSH2 0x50D5 JUMP JUMPDEST DUP4 SWAP2 SWAP1 PUSH2 0x3F91 JUMP JUMPDEST PUSH2 0x283F PUSH2 0x37D9 JUMP JUMPDEST PUSH1 0x1 PUSH1 0x1 PUSH1 0xA0 SHL SUB SWAP2 SWAP1 SWAP2 AND PUSH1 0x0 SWAP1 DUP2 MSTORE PUSH1 0x4 PUSH1 0x20 MSTORE PUSH1 0x40 SWAP1 KECCAK256 DUP1 SLOAD PUSH1 0xFF NOT AND SWAP2 ISZERO ISZERO SWAP2 SWAP1 SWAP2 OR SWAP1 SSTORE JUMP JUMPDEST PUSH2 0x2872 PUSH2 0x37D9 JUMP JUMPDEST PUSH1 0x0 JUMPDEST DUP3 MLOAD DUP2 LT ISZERO PUSH2 0x260B JUMPI DUP2 PUSH1 0x12 PUSH1 0x0 DUP6 DUP5 DUP2 MLOAD DUP2 LT PUSH2 0x2895 JUMPI PUSH2 0x2895 PUSH2 0x5125 JUMP JUMPDEST PUSH1 0x20 SWAP1 DUP2 MUL SWAP2 SWAP1 SWAP2 ADD DUP2 ADD MLOAD PUSH1 0x1 PUSH1 0x1 PUSH1 0xA0 SHL SUB AND DUP3 MSTORE DUP2 ADD SWAP2 SWAP1 SWAP2 MSTORE PUSH1 0x40 ADD PUSH1 0x0 KECCAK256 DUP1 SLOAD PUSH1 0xFF NOT AND SWAP2 ISZERO ISZERO SWAP2 SWAP1 SWAP2 OR SWAP1 SSTORE DUP1 PUSH2 0x28D1 DUP2 PUSH2 0x5169 JUMP JUMPDEST SWAP2 POP POP PUSH2 0x2875 JUMP JUMPDEST PUSH2 0x28E1 PUSH2 0x37D9 JUMP JUMPDEST DUP2 DUP2 ADDRESS PUSH1 0x40 MLOAD PUSH1 0x20 ADD PUSH2 0x28F6 SWAP4 SWAP3 SWAP2 SWAP1 PUSH2 0x5545 JUMP JUMPDEST PUSH1 0x40 DUP1 MLOAD PUSH1 0x1F NOT DUP2 DUP5 SUB ADD DUP2 MSTORE SWAP2 DUP2 MSTORE PUSH2 0xFFFF DUP6 AND PUSH1 0x0 SWAP1 DUP2 MSTORE PUSH1 0xD PUSH1 0x20 MSTORE KECCAK256 SWAP1 PUSH2 0x2921 SWAP1 DUP3 PUSH2 0x548C JUMP JUMPDEST POP PUSH32 0x8C0400CFE2D1199B1A725C78960BCC2A344D869B80590D0F2BD005DB15A572CE DUP4 DUP4 DUP4 PUSH1 0x40 MLOAD PUSH2 0x16A3 SWAP4 SWAP3 SWAP2 SWAP1 PUSH2 0x502A JUMP JUMPDEST PUSH1 0x40 MLOAD PUSH4 0x557FAF8B PUSH1 0xE1 SHL DUP2 MSTORE PUSH1 0x1 PUSH1 0x1 PUSH1 0xA0 SHL SUB PUSH32 0x0 AND SWAP1 PUSH4 0xAAFF5F16 SWAP1 PUSH2 0x29A9 SWAP1 DUP9 SWAP1 DUP9 SWAP1 DUP9 SWAP1 DUP9 SWAP1 DUP9 SWAP1 PUSH1 0x4 ADD PUSH2 0x5566 JUMP JUMPDEST PUSH1 0x0 PUSH1 0x40 MLOAD DUP1 DUP4 SUB DUP2 PUSH1 0x0 DUP8 DUP1 EXTCODESIZE ISZERO DUP1 ISZERO PUSH2 0x29C3 JUMPI PUSH1 0x0 DUP1 REVERT JUMPDEST POP GAS CALL ISZERO DUP1 ISZERO PUSH2 0x29D7 JUMPI RETURNDATASIZE PUSH1 0x0 DUP1 RETURNDATACOPY RETURNDATASIZE PUSH1 0x0 REVERT JUMPDEST POP POP POP POP POP POP POP POP POP JUMP JUMPDEST PUSH1 0x0 DUP1 PUSH2 0x29EE DUP5 PUSH2 0x2A6F JUMP JUMPDEST SWAP1 POP PUSH1 0x0 DUP1 PUSH1 0x0 PUSH2 0x29FE DUP7 PUSH2 0x409E JUMP JUMPDEST PUSH1 0x40 DUP1 MLOAD PUSH1 0x0 DUP2 MSTORE PUSH1 0x20 DUP2 ADD DUP1 DUP4 MSTORE DUP10 SWAP1 MSTORE PUSH1 0xFF DUP6 AND SWAP2 DUP2 ADD SWAP2 SWAP1 SWAP2 MSTORE PUSH1 0x60 DUP2 ADD DUP4 SWAP1 MSTORE PUSH1 0x80 DUP2 ADD DUP3 SWAP1 MSTORE SWAP3 SWAP6 POP SWAP1 SWAP4 POP SWAP2 POP PUSH1 0x1 SWAP1 PUSH1 0xA0 ADD PUSH1 0x20 PUSH1 0x40 MLOAD PUSH1 0x20 DUP2 SUB SWAP1 DUP1 DUP5 SUB SWAP1 DUP6 GAS STATICCALL ISZERO DUP1 ISZERO PUSH2 0x2A59 JUMPI RETURNDATASIZE PUSH1 0x0 DUP1 RETURNDATACOPY RETURNDATASIZE PUSH1 0x0 REVERT JUMPDEST POP POP PUSH1 0x40 MLOAD PUSH1 0x1F NOT ADD MLOAD SWAP9 SWAP8 POP POP POP POP POP POP POP POP JUMP JUMPDEST PUSH1 0x40 MLOAD PUSH28 0xCA2BA3432B932BAB69029B4B3B732B21026B2B9B9B0B3B29D051999 PUSH1 0x21 SHL PUSH1 0x20 DUP3 ADD MSTORE PUSH1 0x3C DUP2 ADD DUP3 SWAP1 MSTORE PUSH1 0x0 SWAP1 PUSH1 0x5C ADD PUSH1 0x40 MLOAD PUSH1 0x20 DUP2 DUP4 SUB SUB DUP2 MSTORE SWAP1 PUSH1 0x40 MSTORE DUP1 MLOAD SWAP1 PUSH1 0x20 ADD KECCAK256 SWAP1 POP SWAP2 SWAP1 POP JUMP JUMPDEST PUSH2 0x2AC9 PUSH2 0x37D9 JUMP JUMPDEST PUSH1 0xF DUP1 SLOAD PUSH1 0x1 PUSH1 0x1 PUSH1 0xA0 SHL SUB NOT AND PUSH1 0x1 PUSH1 0x1 PUSH1 0xA0 SHL SUB DUP4 AND OR SWAP1 SSTORE PUSH1 0x40 MLOAD PUSH32 0x5DB758E995A17EC1AD84BDEF7E8C3293A0BD6179BCCE400DFF5D4C3D87DB726B SWAP1 PUSH2 0x2B14 SWAP1 DUP4 SWAP1 PUSH2 0x465F JUMP JUMPDEST PUSH1 0x40 MLOAD DUP1 SWAP2 SUB SWAP1 LOG1 POP JUMP JUMPDEST PUSH2 0x2B27 PUSH2 0x37D9 JUMP JUMPDEST PUSH1 0x40 MLOAD PUSH4 0x32FB62E7 PUSH1 0xE2 SHL DUP2 MSTORE PUSH1 0x1 PUSH1 0x1 PUSH1 0xA0 SHL SUB PUSH32 0x0 AND SWAP1 PUSH4 0xCBED8B9C SWAP1 PUSH2 0x29A9 SWAP1 DUP9 SWAP1 DUP9 SWAP1 DUP9 SWAP1 DUP9 SWAP1 DUP9 SWAP1 PUSH1 0x4 ADD PUSH2 0x55A3 JUMP JUMPDEST PUSH2 0xFFFF DUP7 AND PUSH1 0x0 SWAP1 DUP2 MSTORE PUSH1 0x10 PUSH1 0x20 MSTORE PUSH1 0x40 DUP1 DUP3 KECCAK256 SWAP1 MLOAD PUSH2 0x2B9E SWAP1 DUP9 SWAP1 DUP9 SWAP1 PUSH2 0x4E7B JUMP JUMPDEST SWAP1 DUP2 MSTORE PUSH1 0x40 DUP1 MLOAD PUSH1 0x20 SWAP3 DUP2 SWAP1 SUB DUP4 ADD SWAP1 KECCAK256 PUSH1 0x1 PUSH1 0x1 PUSH1 0x40 SHL SUB DUP8 AND PUSH1 0x0 SWAP1 DUP2 MSTORE SWAP3 MSTORE SWAP1 KECCAK256 SLOAD SWAP1 POP DUP1 PUSH2 0x2C1E JUMPI PUSH1 0x40 MLOAD PUSH3 0x461BCD PUSH1 0xE5 SHL DUP2 MSTORE PUSH1 0x20 PUSH1 0x4 DUP3 ADD MSTORE PUSH1 0x23 PUSH1 0x24 DUP3 ADD MSTORE PUSH32 0x4E6F6E626C6F636B696E674C7A4170703A206E6F2073746F726564206D657373 PUSH1 0x44 DUP3 ADD MSTORE PUSH3 0x616765 PUSH1 0xE8 SHL PUSH1 0x64 DUP3 ADD MSTORE PUSH1 0x84 ADD PUSH2 0xDF4 JUMP JUMPDEST DUP1 DUP4 DUP4 PUSH1 0x40 MLOAD PUSH2 0x2C2F SWAP3 SWAP2 SWAP1 PUSH2 0x4E7B JUMP JUMPDEST PUSH1 0x40 MLOAD DUP1 SWAP2 SUB SWAP1 KECCAK256 EQ PUSH2 0x2C8E JUMPI PUSH1 0x40 MLOAD PUSH3 0x461BCD PUSH1 0xE5 SHL DUP2 MSTORE PUSH1 0x20 PUSH1 0x4 DUP3 ADD MSTORE PUSH1 0x21 PUSH1 0x24 DUP3 ADD MSTORE PUSH32 0x4E6F6E626C6F636B696E674C7A4170703A20696E76616C6964207061796C6F61 PUSH1 0x44 DUP3 ADD MSTORE PUSH1 0x19 PUSH1 0xFA SHL PUSH1 0x64 DUP3 ADD MSTORE PUSH1 0x84 ADD PUSH2 0xDF4 JUMP JUMPDEST PUSH2 0xFFFF DUP8 AND PUSH1 0x0 SWAP1 DUP2 MSTORE PUSH1 0x10 PUSH1 0x20 MSTORE PUSH1 0x40 DUP1 DUP3 KECCAK256 SWAP1 MLOAD PUSH2 0x2CB1 SWAP1 DUP10 SWAP1 DUP10 SWAP1 PUSH2 0x4E7B JUMP JUMPDEST SWAP1 DUP2 MSTORE PUSH1 0x40 DUP1 MLOAD PUSH1 0x20 SWAP3 DUP2 SWAP1 SUB DUP4 ADD DUP2 KECCAK256 PUSH1 0x1 PUSH1 0x1 PUSH1 0x40 SHL SUB DUP10 AND PUSH1 0x0 SWAP1 DUP2 MSTORE SWAP1 DUP5 MSTORE DUP3 SWAP1 KECCAK256 SWAP4 SWAP1 SWAP4 SSTORE PUSH1 0x1F DUP9 ADD DUP3 SWAP1 DIV DUP3 MUL DUP4 ADD DUP3 ADD SWAP1 MSTORE DUP7 DUP3 MSTORE PUSH2 0x2D49 SWAP2 DUP10 SWAP2 DUP10 SWAP1 DUP10 SWAP1 DUP2 SWAP1 DUP5 ADD DUP4 DUP3 DUP1 DUP3 DUP5 CALLDATACOPY PUSH1 0x0 SWAP3 ADD SWAP2 SWAP1 SWAP2 MSTORE POP POP PUSH1 0x40 DUP1 MLOAD PUSH1 0x20 PUSH1 0x1F DUP11 ADD DUP2 SWAP1 DIV DUP2 MUL DUP3 ADD DUP2 ADD SWAP1 SWAP3 MSTORE DUP9 DUP2 MSTORE DUP11 SWAP4 POP SWAP2 POP DUP9 SWAP1 DUP9 SWAP1 DUP2 SWAP1 DUP5 ADD DUP4 DUP3 DUP1 DUP3 DUP5 CALLDATACOPY PUSH1 0x0 SWAP3 ADD SWAP2 SWAP1 SWAP2 MSTORE POP PUSH2 0x3A4C SWAP3 POP POP POP JUMP JUMPDEST PUSH32 0xC264D91F3ADC5588250E1551F547752CA0CFA8F6B530D243B9F9F4CAB10EA8E5 DUP8 DUP8 DUP8 DUP8 DUP6 PUSH1 0x40 MLOAD PUSH2 0x2D80 SWAP6 SWAP5 SWAP4 SWAP3 SWAP2 SWAP1 PUSH2 0x55DC JUMP JUMPDEST PUSH1 0x40 MLOAD DUP1 SWAP2 SUB SWAP1 LOG1 POP POP POP POP POP POP POP JUMP JUMPDEST PUSH1 0x60 DUP1 PUSH1 0x0 DUP1 JUMPDEST PUSH1 0x8 SLOAD DUP2 LT ISZERO PUSH2 0x2E06 JUMPI PUSH1 0x0 PUSH1 0x13 PUSH1 0x0 PUSH1 0x8 DUP5 DUP2 SLOAD DUP2 LT PUSH2 0x2DBB JUMPI PUSH2 0x2DBB PUSH2 0x5125 JUMP JUMPDEST PUSH1 0x0 SWAP2 DUP3 MSTORE PUSH1 0x20 DUP1 DUP4 KECCAK256 SWAP1 SWAP2 ADD SLOAD PUSH1 0x1 PUSH1 0x1 PUSH1 0xA0 SHL SUB AND DUP4 MSTORE DUP3 ADD SWAP3 SWAP1 SWAP3 MSTORE PUSH1 0x40 ADD SWAP1 KECCAK256 SLOAD GT ISZERO PUSH2 0x2DF4 JUMPI DUP2 PUSH2 0x2DF0 DUP2 PUSH2 0x5169 JUMP JUMPDEST SWAP3 POP POP JUMPDEST DUP1 PUSH2 0x2DFE DUP2 PUSH2 0x5169 JUMP JUMPDEST SWAP2 POP POP PUSH2 0x2D98 JUMP JUMPDEST POP PUSH1 0x0 DUP2 PUSH1 0x1 PUSH1 0x1 PUSH1 0x40 SHL SUB DUP2 GT ISZERO PUSH2 0x2E21 JUMPI PUSH2 0x2E21 PUSH2 0x47A2 JUMP JUMPDEST PUSH1 0x40 MLOAD SWAP1 DUP1 DUP3 MSTORE DUP1 PUSH1 0x20 MUL PUSH1 0x20 ADD DUP3 ADD PUSH1 0x40 MSTORE DUP1 ISZERO PUSH2 0x2E4A JUMPI DUP2 PUSH1 0x20 ADD PUSH1 0x20 DUP3 MUL DUP1 CALLDATASIZE DUP4 CALLDATACOPY ADD SWAP1 POP JUMPDEST POP SWAP1 POP PUSH1 0x0 DUP3 PUSH1 0x1 PUSH1 0x1 PUSH1 0x40 SHL SUB DUP2 GT ISZERO PUSH2 0x2E67 JUMPI PUSH2 0x2E67 PUSH2 0x47A2 JUMP JUMPDEST PUSH1 0x40 MLOAD SWAP1 DUP1 DUP3 MSTORE DUP1 PUSH1 0x20 MUL PUSH1 0x20 ADD DUP3 ADD PUSH1 0x40 MSTORE DUP1 ISZERO PUSH2 0x2E90 JUMPI DUP2 PUSH1 0x20 ADD PUSH1 0x20 DUP3 MUL DUP1 CALLDATASIZE DUP4 CALLDATACOPY ADD SWAP1 POP JUMPDEST POP SWAP1 POP PUSH1 0x0 JUMPDEST PUSH1 0x8 SLOAD DUP2 LT ISZERO PUSH2 0x2FB6 JUMPI PUSH1 0x0 PUSH1 0x13 PUSH1 0x0 PUSH1 0x8 DUP5 DUP2 SLOAD DUP2 LT PUSH2 0x2EB9 JUMPI PUSH2 0x2EB9 PUSH2 0x5125 JUMP JUMPDEST PUSH1 0x0 SWAP2 DUP3 MSTORE PUSH1 0x20 DUP1 DUP4 KECCAK256 SWAP1 SWAP2 ADD SLOAD PUSH1 0x1 PUSH1 0x1 PUSH1 0xA0 SHL SUB AND DUP4 MSTORE DUP3 ADD SWAP3 SWAP1 SWAP3 MSTORE PUSH1 0x40 ADD SWAP1 KECCAK256 SLOAD GT ISZERO PUSH2 0x2FA4 JUMPI PUSH1 0x8 DUP2 DUP2 SLOAD DUP2 LT PUSH2 0x2EF7 JUMPI PUSH2 0x2EF7 PUSH2 0x5125 JUMP JUMPDEST SWAP1 PUSH1 0x0 MSTORE PUSH1 0x20 PUSH1 0x0 KECCAK256 ADD PUSH1 0x0 SWAP1 SLOAD SWAP1 PUSH2 0x100 EXP SWAP1 DIV PUSH1 0x1 PUSH1 0x1 PUSH1 0xA0 SHL SUB AND DUP4 DUP3 DUP2 MLOAD DUP2 LT PUSH2 0x2F27 JUMPI PUSH2 0x2F27 PUSH2 0x5125 JUMP JUMPDEST PUSH1 0x20 MUL PUSH1 0x20 ADD ADD SWAP1 PUSH1 0x1 PUSH1 0x1 PUSH1 0xA0 SHL SUB AND SWAP1 DUP2 PUSH1 0x1 PUSH1 0x1 PUSH1 0xA0 SHL SUB AND DUP2 MSTORE POP POP PUSH1 0x13 PUSH1 0x0 PUSH1 0x8 DUP4 DUP2 SLOAD DUP2 LT PUSH2 0x2F5E JUMPI PUSH2 0x2F5E PUSH2 0x5125 JUMP JUMPDEST PUSH1 0x0 SWAP2 DUP3 MSTORE PUSH1 0x20 DUP1 DUP4 KECCAK256 SWAP1 SWAP2 ADD SLOAD PUSH1 0x1 PUSH1 0x1 PUSH1 0xA0 SHL SUB AND DUP4 MSTORE DUP3 ADD SWAP3 SWAP1 SWAP3 MSTORE PUSH1 0x40 ADD SWAP1 KECCAK256 SLOAD DUP3 MLOAD DUP4 SWAP1 DUP4 SWAP1 DUP2 LT PUSH2 0x2F97 JUMPI PUSH2 0x2F97 PUSH2 0x5125 JUMP JUMPDEST PUSH1 0x20 MUL PUSH1 0x20 ADD ADD DUP2 DUP2 MSTORE POP POP JUMPDEST DUP1 PUSH2 0x2FAE DUP2 PUSH2 0x5169 JUMP JUMPDEST SWAP2 POP POP PUSH2 0x2E96 JUMP JUMPDEST POP POP POP POP SWAP1 SWAP2 JUMP JUMPDEST PUSH2 0x2FC6 PUSH2 0x37D9 JUMP JUMPDEST PUSH1 0x0 DUP2 GT PUSH2 0x300E JUMPI PUSH1 0x40 MLOAD PUSH3 0x461BCD PUSH1 0xE5 SHL DUP2 MSTORE PUSH1 0x20 PUSH1 0x4 DUP3 ADD MSTORE PUSH1 0x15 PUSH1 0x24 DUP3 ADD MSTORE PUSH21 0x4C7A4170703A20696E76616C6964206D696E476173 PUSH1 0x58 SHL PUSH1 0x44 DUP3 ADD MSTORE PUSH1 0x64 ADD PUSH2 0xDF4 JUMP JUMPDEST PUSH2 0xFFFF DUP4 DUP2 AND PUSH1 0x0 DUP2 DUP2 MSTORE PUSH1 0xE PUSH1 0x20 SWAP1 DUP2 MSTORE PUSH1 0x40 DUP1 DUP4 KECCAK256 SWAP5 DUP8 AND DUP1 DUP5 MSTORE SWAP5 DUP3 MSTORE SWAP2 DUP3 SWAP1 KECCAK256 DUP6 SWAP1 SSTORE DUP2 MLOAD SWAP3 DUP4 MSTORE DUP3 ADD SWAP3 SWAP1 SWAP3 MSTORE SWAP1 DUP2 ADD DUP3 SWAP1 MSTORE PUSH32 0x9D5C7C0B934DA8FEFA9C7760C98383778A12DFBFC0C3B3106518F43FB9508AC0 SWAP1 PUSH1 0x60 ADD PUSH2 0x16A3 JUMP JUMPDEST PUSH1 0x0 DUP1 PUSH32 0x0 PUSH1 0x1 PUSH1 0x1 PUSH1 0xA0 SHL SUB AND PUSH4 0xF5ECBDBC PUSH32 0x0 PUSH1 0x1 PUSH1 0x1 PUSH1 0xA0 SHL SUB AND PUSH4 0x96568F6 ADDRESS PUSH1 0x40 MLOAD DUP3 PUSH4 0xFFFFFFFF AND PUSH1 0xE0 SHL DUP2 MSTORE PUSH1 0x4 ADD PUSH2 0x30EE SWAP2 SWAP1 PUSH2 0x465F JUMP JUMPDEST PUSH1 0x20 PUSH1 0x40 MLOAD DUP1 DUP4 SUB DUP2 DUP7 GAS STATICCALL ISZERO DUP1 ISZERO PUSH2 0x310B JUMPI RETURNDATASIZE PUSH1 0x0 DUP1 RETURNDATACOPY RETURNDATASIZE PUSH1 0x0 REVERT JUMPDEST POP POP POP POP PUSH1 0x40 MLOAD RETURNDATASIZE PUSH1 0x1F NOT PUSH1 0x1F DUP3 ADD AND DUP3 ADD DUP1 PUSH1 0x40 MSTORE POP DUP2 ADD SWAP1 PUSH2 0x312F SWAP2 SWAP1 PUSH2 0x52FB JUMP JUMPDEST DUP6 ADDRESS PUSH1 0x6 PUSH1 0x40 MLOAD DUP6 PUSH4 0xFFFFFFFF AND PUSH1 0xE0 SHL DUP2 MSTORE PUSH1 0x4 ADD PUSH2 0x3152 SWAP5 SWAP4 SWAP3 SWAP2 SWAP1 PUSH2 0x5617 JUMP JUMPDEST PUSH1 0x0 PUSH1 0x40 MLOAD DUP1 DUP4 SUB DUP2 DUP7 GAS STATICCALL ISZERO DUP1 ISZERO PUSH2 0x316F JUMPI RETURNDATASIZE PUSH1 0x0 DUP1 RETURNDATACOPY RETURNDATASIZE PUSH1 0x0 REVERT JUMPDEST POP POP POP POP PUSH1 0x40 MLOAD RETURNDATASIZE PUSH1 0x0 DUP3 RETURNDATACOPY PUSH1 0x1F RETURNDATASIZE SWAP1 DUP2 ADD PUSH1 0x1F NOT AND DUP3 ADD PUSH1 0x40 MSTORE PUSH2 0x3197 SWAP2 SWAP1 DUP2 ADD SWAP1 PUSH2 0x5689 JUMP JUMPDEST PUSH1 0x20 ADD MLOAD SWAP4 SWAP3 POP POP POP JUMP JUMPDEST PUSH1 0xC SLOAD PUSH1 0x1 PUSH1 0x1 PUSH1 0xA0 SHL SUB AND SWAP1 JUMP JUMPDEST PUSH2 0x31B9 PUSH2 0x37D9 JUMP JUMPDEST DUP1 PUSH1 0x1 SUB PUSH2 0x31DD JUMPI PUSH2 0x31D9 PUSH1 0x0 DUP1 MLOAD PUSH1 0x20 PUSH2 0x5BE6 DUP4 CODECOPY DUP2 MLOAD SWAP2 MSTORE DUP4 PUSH2 0x4110 JUMP JUMPDEST POP POP JUMP JUMPDEST PUSH2 0x31D9 PUSH1 0x0 DUP1 MLOAD PUSH1 0x20 PUSH2 0x5BC6 DUP4 CODECOPY DUP2 MLOAD SWAP2 MSTORE DUP4 PUSH2 0x4110 JUMP JUMPDEST PUSH2 0x31FD PUSH2 0x37D9 JUMP JUMPDEST PUSH2 0xFFFF DUP4 AND PUSH1 0x0 SWAP1 DUP2 MSTORE PUSH1 0xD PUSH1 0x20 MSTORE PUSH1 0x40 SWAP1 KECCAK256 PUSH2 0x321B DUP3 DUP5 DUP4 PUSH2 0x56BD JUMP JUMPDEST POP PUSH32 0xFA41487AD5D6728F0B19276FA1EDDC16558578F5109FC39D2DC33C3230470DAB DUP4 DUP4 DUP4 PUSH1 0x40 MLOAD PUSH2 0x16A3 SWAP4 SWAP3 SWAP2 SWAP1 PUSH2 0x502A JUMP JUMPDEST PUSH2 0x3257 PUSH2 0x37D9 JUMP JUMPDEST PUSH1 0xC DUP1 SLOAD PUSH1 0x1 PUSH1 0x1 PUSH1 0xA0 SHL SUB NOT AND PUSH1 0x1 PUSH1 0x1 PUSH1 0xA0 SHL SUB DUP4 AND SWAP1 DUP2 OR SWAP1 SWAP2 SSTORE PUSH2 0x327D PUSH2 0x26EE JUMP JUMPDEST PUSH1 0x1 PUSH1 0x1 PUSH1 0xA0 SHL SUB AND PUSH32 0x38D16B8CAC22D99FC7C124B9CD0DE2D3FA1FAEF420BFE791D8C362D765E22700 PUSH1 0x40 MLOAD PUSH1 0x40 MLOAD DUP1 SWAP2 SUB SWAP1 LOG3 POP JUMP JUMPDEST PUSH1 0x40 MLOAD PUSH4 0x3D7B2F6F PUSH1 0xE2 SHL DUP2 MSTORE PUSH1 0x60 SWAP1 PUSH1 0x1 PUSH1 0x1 PUSH1 0xA0 SHL SUB PUSH32 0x0 AND SWAP1 PUSH4 0xF5ECBDBC SWAP1 PUSH2 0x330A SWAP1 DUP9 SWAP1 DUP9 SWAP1 ADDRESS SWAP1 DUP9 SWAP1 PUSH1 0x4 ADD PUSH2 0x5617 JUMP JUMPDEST PUSH1 0x0 PUSH1 0x40 MLOAD DUP1 DUP4 SUB DUP2 DUP7 GAS STATICCALL ISZERO DUP1 ISZERO PUSH2 0x3327 JUMPI RETURNDATASIZE PUSH1 0x0 DUP1 RETURNDATACOPY RETURNDATASIZE PUSH1 0x0 REVERT JUMPDEST POP POP POP POP PUSH1 0x40 MLOAD RETURNDATASIZE PUSH1 0x0 DUP3 RETURNDATACOPY PUSH1 0x1F RETURNDATASIZE SWAP1 DUP2 ADD PUSH1 0x1F NOT AND DUP3 ADD PUSH1 0x40 MSTORE PUSH2 0x334F SWAP2 SWAP1 DUP2 ADD SWAP1 PUSH2 0x5689 JUMP JUMPDEST SWAP6 SWAP5 POP POP POP POP POP JUMP JUMPDEST PUSH1 0x1 PUSH1 0x1 PUSH1 0xA0 SHL SUB DUP2 AND PUSH1 0x0 SWAP1 DUP2 MSTORE PUSH1 0x3 PUSH1 0x20 MSTORE PUSH1 0x40 DUP2 KECCAK256 DUP2 SWAP1 PUSH1 0x60 SWAP1 DUP2 SWAP1 DUP4 SWAP1 DUP2 DUP1 JUMPDEST PUSH1 0x8 SLOAD DUP2 LT ISZERO PUSH2 0x33E9 JUMPI DUP3 PUSH1 0x2 ADD PUSH1 0x0 PUSH1 0x8 DUP4 DUP2 SLOAD DUP2 LT PUSH2 0x339F JUMPI PUSH2 0x339F PUSH2 0x5125 JUMP JUMPDEST PUSH1 0x0 SWAP2 DUP3 MSTORE PUSH1 0x20 DUP1 DUP4 KECCAK256 SWAP1 SWAP2 ADD SLOAD PUSH1 0x1 PUSH1 0x1 PUSH1 0xA0 SHL SUB AND DUP4 MSTORE DUP3 ADD SWAP3 SWAP1 SWAP3 MSTORE PUSH1 0x40 ADD SWAP1 KECCAK256 SLOAD ISZERO PUSH2 0x33D7 JUMPI DUP2 PUSH2 0x33D3 DUP2 PUSH2 0x5169 JUMP JUMPDEST SWAP3 POP POP JUMPDEST DUP1 PUSH2 0x33E1 DUP2 PUSH2 0x5169 JUMP JUMPDEST SWAP2 POP POP PUSH2 0x337C JUMP JUMPDEST POP PUSH1 0x0 DUP2 PUSH1 0x1 PUSH1 0x1 PUSH1 0x40 SHL SUB DUP2 GT ISZERO PUSH2 0x3404 JUMPI PUSH2 0x3404 PUSH2 0x47A2 JUMP JUMPDEST PUSH1 0x40 MLOAD SWAP1 DUP1 DUP3 MSTORE DUP1 PUSH1 0x20 MUL PUSH1 0x20 ADD DUP3 ADD PUSH1 0x40 MSTORE DUP1 ISZERO PUSH2 0x342D JUMPI DUP2 PUSH1 0x20 ADD PUSH1 0x20 DUP3 MUL DUP1 CALLDATASIZE DUP4 CALLDATACOPY ADD SWAP1 POP JUMPDEST POP SWAP1 POP PUSH1 0x0 DUP3 PUSH1 0x1 PUSH1 0x1 PUSH1 0x40 SHL SUB DUP2 GT ISZERO PUSH2 0x344A JUMPI PUSH2 0x344A PUSH2 0x47A2 JUMP JUMPDEST PUSH1 0x40 MLOAD SWAP1 DUP1 DUP3 MSTORE DUP1 PUSH1 0x20 MUL PUSH1 0x20 ADD DUP3 ADD PUSH1 0x40 MSTORE DUP1 ISZERO PUSH2 0x3473 JUMPI DUP2 PUSH1 0x20 ADD PUSH1 0x20 DUP3 MUL DUP1 CALLDATASIZE DUP4 CALLDATACOPY ADD SWAP1 POP JUMPDEST POP SWAP1 POP PUSH1 0x0 DUP1 JUMPDEST PUSH1 0x8 SLOAD DUP2 LT ISZERO PUSH2 0x35A7 JUMPI DUP6 PUSH1 0x2 ADD PUSH1 0x0 PUSH1 0x8 DUP4 DUP2 SLOAD DUP2 LT PUSH2 0x349D JUMPI PUSH2 0x349D PUSH2 0x5125 JUMP JUMPDEST PUSH1 0x0 SWAP2 DUP3 MSTORE PUSH1 0x20 DUP1 DUP4 KECCAK256 SWAP1 SWAP2 ADD SLOAD PUSH1 0x1 PUSH1 0x1 PUSH1 0xA0 SHL SUB AND DUP4 MSTORE DUP3 ADD SWAP3 SWAP1 SWAP3 MSTORE PUSH1 0x40 ADD SWAP1 KECCAK256 SLOAD ISZERO PUSH2 0x3595 JUMPI PUSH1 0x8 DUP2 DUP2 SLOAD DUP2 LT PUSH2 0x34DA JUMPI PUSH2 0x34DA PUSH2 0x5125 JUMP JUMPDEST SWAP1 PUSH1 0x0 MSTORE PUSH1 0x20 PUSH1 0x0 KECCAK256 ADD PUSH1 0x0 SWAP1 SLOAD SWAP1 PUSH2 0x100 EXP SWAP1 DIV PUSH1 0x1 PUSH1 0x1 PUSH1 0xA0 SHL SUB AND DUP5 DUP4 DUP2 MLOAD DUP2 LT PUSH2 0x350A JUMPI PUSH2 0x350A PUSH2 0x5125 JUMP JUMPDEST PUSH1 0x20 MUL PUSH1 0x20 ADD ADD SWAP1 PUSH1 0x1 PUSH1 0x1 PUSH1 0xA0 SHL SUB AND SWAP1 DUP2 PUSH1 0x1 PUSH1 0x1 PUSH1 0xA0 SHL SUB AND DUP2 MSTORE POP POP DUP6 PUSH1 0x2 ADD PUSH1 0x0 PUSH1 0x8 DUP4 DUP2 SLOAD DUP2 LT PUSH2 0x3543 JUMPI PUSH2 0x3543 PUSH2 0x5125 JUMP JUMPDEST PUSH1 0x0 SWAP2 DUP3 MSTORE PUSH1 0x20 DUP1 DUP4 KECCAK256 SWAP1 SWAP2 ADD SLOAD PUSH1 0x1 PUSH1 0x1 PUSH1 0xA0 SHL SUB AND DUP4 MSTORE DUP3 ADD SWAP3 SWAP1 SWAP3 MSTORE PUSH1 0x40 ADD SWAP1 KECCAK256 SLOAD DUP4 MLOAD DUP5 SWAP1 DUP5 SWAP1 DUP2 LT PUSH2 0x357C JUMPI PUSH2 0x357C PUSH2 0x5125 JUMP JUMPDEST PUSH1 0x20 SWAP1 DUP2 MUL SWAP2 SWAP1 SWAP2 ADD ADD MSTORE DUP2 PUSH2 0x3591 DUP2 PUSH2 0x5169 JUMP JUMPDEST SWAP3 POP POP JUMPDEST DUP1 PUSH2 0x359F DUP2 PUSH2 0x5169 JUMP JUMPDEST SWAP2 POP POP PUSH2 0x347A JUMP JUMPDEST POP POP DUP4 SLOAD PUSH1 0x1 DUP6 ADD SLOAD PUSH1 0x3 SWAP1 SWAP6 ADD SLOAD PUSH1 0x1 PUSH1 0x1 PUSH1 0xA0 SHL SUB SWAP1 SWAP2 AND SWAP12 SWAP5 SWAP11 POP SWAP2 SWAP9 POP SWAP7 POP SWAP5 POP SWAP1 SWAP3 POP POP POP JUMP JUMPDEST PUSH2 0x35DB PUSH2 0x37D9 JUMP JUMPDEST PUSH1 0x1 PUSH1 0x1 PUSH1 0xA0 SHL SUB DUP3 AND PUSH1 0x0 SWAP1 DUP2 MSTORE PUSH1 0x13 PUSH1 0x20 MSTORE PUSH1 0x40 SWAP1 KECCAK256 SLOAD DUP2 GT ISZERO PUSH2 0x3613 JUMPI PUSH1 0x40 MLOAD PUSH3 0x461BCD PUSH1 0xE5 SHL DUP2 MSTORE PUSH1 0x4 ADD PUSH2 0xDF4 SWAP1 PUSH2 0x5091 JUMP JUMPDEST PUSH2 0x362B PUSH1 0x0 DUP1 MLOAD PUSH1 0x20 PUSH2 0x5BC6 DUP4 CODECOPY DUP2 MLOAD SWAP2 MSTORE CALLER PUSH2 0x26FD JUMP JUMPDEST ISZERO ISZERO PUSH1 0x1 EQ PUSH2 0x3670 JUMPI PUSH1 0x40 MLOAD PUSH3 0x461BCD PUSH1 0xE5 SHL DUP2 MSTORE PUSH1 0x20 PUSH1 0x4 DUP3 ADD MSTORE PUSH1 0x11 PUSH1 0x24 DUP3 ADD MSTORE PUSH17 0x14195C9B5A5CDCDA5BDB8811195B9A5959 PUSH1 0x7A SHL PUSH1 0x44 DUP3 ADD MSTORE PUSH1 0x64 ADD PUSH2 0xDF4 JUMP JUMPDEST PUSH1 0x1 PUSH1 0x1 PUSH1 0xA0 SHL SUB DUP3 AND PUSH1 0x0 SWAP1 DUP2 MSTORE PUSH1 0x13 PUSH1 0x20 MSTORE PUSH1 0x40 DUP2 KECCAK256 DUP1 SLOAD DUP4 SWAP3 SWAP1 PUSH2 0x3698 SWAP1 DUP5 SWAP1 PUSH2 0x50D5 JUMP JUMPDEST SWAP1 SWAP2 SSTORE POP POP PUSH1 0x40 MLOAD PUSH4 0xA9059CBB PUSH1 0xE0 SHL DUP2 MSTORE PUSH1 0x1 PUSH1 0x1 PUSH1 0xA0 SHL SUB DUP4 AND SWAP1 PUSH4 0xA9059CBB SWAP1 PUSH2 0x36CB SWAP1 CALLER SWAP1 DUP6 SWAP1 PUSH1 0x4 ADD PUSH2 0x50E8 JUMP JUMPDEST PUSH1 0x20 PUSH1 0x40 MLOAD DUP1 DUP4 SUB DUP2 PUSH1 0x0 DUP8 GAS CALL ISZERO DUP1 ISZERO PUSH2 0x36EA JUMPI RETURNDATASIZE PUSH1 0x0 DUP1 RETURNDATACOPY RETURNDATASIZE PUSH1 0x0 REVERT JUMPDEST POP POP POP POP PUSH1 0x40 MLOAD RETURNDATASIZE PUSH1 0x1F NOT PUSH1 0x1F DUP3 ADD AND DUP3 ADD DUP1 PUSH1 0x40 MSTORE POP DUP2 ADD SWAP1 PUSH2 0x260B SWAP2 SWAP1 PUSH2 0x5053 JUMP JUMPDEST PUSH1 0xB DUP1 SLOAD PUSH1 0x1 PUSH1 0x1 PUSH1 0xA0 SHL SUB DUP4 DUP2 AND PUSH1 0x1 PUSH1 0x1 PUSH1 0xA0 SHL SUB NOT DUP4 AND DUP2 OR SWAP1 SWAP4 SSTORE PUSH1 0x40 MLOAD SWAP2 AND SWAP2 SWAP1 DUP3 SWAP1 PUSH32 0x8BE0079C531659141344CD1FD0A4F28419497F9722A3DAAFE3B4186F6B6457E0 SWAP1 PUSH1 0x0 SWAP1 LOG3 POP POP JUMP JUMPDEST PUSH1 0x0 DUP1 PUSH2 0x37C3 GAS PUSH1 0x96 PUSH4 0x66AD5C8A PUSH1 0xE0 SHL DUP10 DUP10 DUP10 DUP10 PUSH1 0x40 MLOAD PUSH1 0x24 ADD PUSH2 0x3788 SWAP5 SWAP4 SWAP3 SWAP2 SWAP1 PUSH2 0x5776 JUMP JUMPDEST PUSH1 0x40 DUP1 MLOAD PUSH1 0x1F NOT DUP2 DUP5 SUB ADD DUP2 MSTORE SWAP2 SWAP1 MSTORE PUSH1 0x20 DUP2 ADD DUP1 MLOAD PUSH1 0x1 PUSH1 0x1 PUSH1 0xE0 SHL SUB AND PUSH1 0x1 PUSH1 0x1 PUSH1 0xE0 SHL SUB NOT SWAP1 SWAP4 AND SWAP3 SWAP1 SWAP3 OR SWAP1 SWAP2 MSTORE ADDRESS SWAP3 SWAP2 SWAP1 PUSH2 0x411A JUMP JUMPDEST SWAP2 POP SWAP2 POP DUP2 PUSH2 0x24CB JUMPI PUSH2 0x24CB DUP7 DUP7 DUP7 DUP7 DUP6 PUSH2 0x41A4 JUMP JUMPDEST CALLER PUSH2 0x37E2 PUSH2 0x26EE JUMP JUMPDEST PUSH1 0x1 PUSH1 0x1 PUSH1 0xA0 SHL SUB AND EQ PUSH2 0x2622 JUMPI PUSH1 0x40 MLOAD PUSH3 0x461BCD PUSH1 0xE5 SHL DUP2 MSTORE PUSH1 0x20 PUSH1 0x4 DUP3 ADD DUP2 SWAP1 MSTORE PUSH1 0x24 DUP3 ADD MSTORE PUSH32 0x4F776E61626C653A2063616C6C6572206973206E6F7420746865206F776E6572 PUSH1 0x44 DUP3 ADD MSTORE PUSH1 0x64 ADD PUSH2 0xDF4 JUMP JUMPDEST PUSH1 0x1 SLOAD PUSH1 0x40 MLOAD PUSH4 0x95EA7B3 PUSH1 0xE0 SHL DUP2 MSTORE PUSH1 0x1 PUSH1 0x1 PUSH1 0xA0 SHL SUB DUP5 DUP2 AND SWAP3 PUSH4 0x95EA7B3 SWAP3 PUSH2 0x386C SWAP3 SWAP1 SWAP2 AND SWAP1 DUP6 SWAP1 PUSH1 0x4 ADD PUSH2 0x50E8 JUMP JUMPDEST PUSH1 0x20 PUSH1 0x40 MLOAD DUP1 DUP4 SUB DUP2 PUSH1 0x0 DUP8 GAS CALL ISZERO DUP1 ISZERO PUSH2 0x388B JUMPI RETURNDATASIZE PUSH1 0x0 DUP1 RETURNDATACOPY RETURNDATASIZE PUSH1 0x0 REVERT JUMPDEST POP POP POP POP PUSH1 0x40 MLOAD RETURNDATASIZE PUSH1 0x1F NOT PUSH1 0x1F DUP3 ADD AND DUP3 ADD DUP1 PUSH1 0x40 MSTORE POP DUP2 ADD SWAP1 PUSH2 0x38AF SWAP2 SWAP1 PUSH2 0x5053 JUMP JUMPDEST POP PUSH1 0x1 SLOAD PUSH1 0x40 MLOAD PUSH4 0x6EB1769F PUSH1 0xE1 SHL DUP2 MSTORE DUP3 SWAP2 PUSH1 0x1 PUSH1 0x1 PUSH1 0xA0 SHL SUB DUP1 DUP7 AND SWAP3 PUSH4 0xDD62ED3E SWAP3 PUSH2 0x38E5 SWAP3 ADDRESS SWAP3 SWAP2 AND SWAP1 PUSH1 0x4 ADD PUSH2 0x51F4 JUMP JUMPDEST PUSH1 0x20 PUSH1 0x40 MLOAD DUP1 DUP4 SUB DUP2 DUP7 GAS STATICCALL ISZERO DUP1 ISZERO PUSH2 0x3902 JUMPI RETURNDATASIZE PUSH1 0x0 DUP1 RETURNDATACOPY RETURNDATASIZE PUSH1 0x0 REVERT JUMPDEST POP POP POP POP PUSH1 0x40 MLOAD RETURNDATASIZE PUSH1 0x1F NOT PUSH1 0x1F DUP3 ADD AND DUP3 ADD DUP1 PUSH1 0x40 MSTORE POP DUP2 ADD SWAP1 PUSH2 0x3926 SWAP2 SWAP1 PUSH2 0x51C0 JUMP JUMPDEST LT ISZERO PUSH2 0x3944 JUMPI PUSH1 0x40 MLOAD PUSH3 0x461BCD PUSH1 0xE5 SHL DUP2 MSTORE PUSH1 0x4 ADD PUSH2 0xDF4 SWAP1 PUSH2 0x520E JUMP JUMPDEST PUSH1 0x1 SLOAD PUSH1 0x40 MLOAD PUSH4 0xE8EDA9DF PUSH1 0xE0 SHL DUP2 MSTORE PUSH1 0x1 PUSH1 0x1 PUSH1 0xA0 SHL SUB DUP5 DUP2 AND PUSH1 0x4 DUP4 ADD MSTORE PUSH1 0x24 DUP3 ADD DUP5 SWAP1 MSTORE ADDRESS PUSH1 0x44 DUP4 ADD MSTORE PUSH1 0x0 PUSH1 0x64 DUP4 ADD MSTORE SWAP1 SWAP2 AND SWAP1 PUSH4 0xE8EDA9DF SWAP1 PUSH1 0x84 ADD PUSH1 0x0 PUSH1 0x40 MLOAD DUP1 DUP4 SUB DUP2 PUSH1 0x0 DUP8 DUP1 EXTCODESIZE ISZERO DUP1 ISZERO PUSH2 0x399F JUMPI PUSH1 0x0 DUP1 REVERT JUMPDEST POP GAS CALL ISZERO DUP1 ISZERO PUSH2 0x24CB JUMPI RETURNDATASIZE PUSH1 0x0 DUP1 RETURNDATACOPY RETURNDATASIZE PUSH1 0x0 REVERT JUMPDEST PUSH2 0x260B DUP4 DUP4 CALLER PUSH1 0x0 PUSH1 0x2 DUP1 SLOAD PUSH2 0x39C8 SWAP1 PUSH2 0x4E41 JUMP JUMPDEST DUP1 PUSH1 0x1F ADD PUSH1 0x20 DUP1 SWAP2 DIV MUL PUSH1 0x20 ADD PUSH1 0x40 MLOAD SWAP1 DUP2 ADD PUSH1 0x40 MSTORE DUP1 SWAP3 SWAP2 SWAP1 DUP2 DUP2 MSTORE PUSH1 0x20 ADD DUP3 DUP1 SLOAD PUSH2 0x39F4 SWAP1 PUSH2 0x4E41 JUMP JUMPDEST DUP1 ISZERO PUSH2 0x3A41 JUMPI DUP1 PUSH1 0x1F LT PUSH2 0x3A16 JUMPI PUSH2 0x100 DUP1 DUP4 SLOAD DIV MUL DUP4 MSTORE SWAP2 PUSH1 0x20 ADD SWAP2 PUSH2 0x3A41 JUMP JUMPDEST DUP3 ADD SWAP2 SWAP1 PUSH1 0x0 MSTORE PUSH1 0x20 PUSH1 0x0 KECCAK256 SWAP1 JUMPDEST DUP2 SLOAD DUP2 MSTORE SWAP1 PUSH1 0x1 ADD SWAP1 PUSH1 0x20 ADD DUP1 DUP4 GT PUSH2 0x3A24 JUMPI DUP3 SWAP1 SUB PUSH1 0x1F AND DUP3 ADD SWAP2 JUMPDEST POP POP POP POP POP DUP7 PUSH2 0x4241 JUMP JUMPDEST PUSH1 0x0 DUP1 PUSH1 0x0 DUP1 PUSH1 0x0 DUP1 DUP7 DUP1 PUSH1 0x20 ADD SWAP1 MLOAD DUP2 ADD SWAP1 PUSH2 0x3A69 SWAP2 SWAP1 PUSH2 0x5873 JUMP JUMPDEST SWAP5 POP SWAP5 POP SWAP5 POP SWAP5 POP SWAP5 POP PUSH1 0x0 DUP6 PUSH1 0x0 ADD MLOAD DUP7 PUSH1 0x20 ADD MLOAD DUP8 PUSH1 0x40 ADD MLOAD PUSH1 0x40 MLOAD PUSH1 0x20 ADD PUSH2 0x3A94 SWAP2 SWAP1 PUSH2 0x59CD JUMP JUMPDEST PUSH1 0x40 MLOAD PUSH1 0x20 DUP2 DUP4 SUB SUB DUP2 MSTORE SWAP1 PUSH1 0x40 MSTORE DUP9 PUSH1 0x60 ADD MLOAD PUSH1 0x40 MLOAD PUSH1 0x20 ADD PUSH2 0x3AB8 SWAP2 SWAP1 PUSH2 0x5A0C JUMP JUMPDEST PUSH1 0x40 DUP1 MLOAD PUSH1 0x1F NOT DUP2 DUP5 SUB ADD DUP2 MSTORE SWAP1 DUP3 SWAP1 MSTORE PUSH1 0x80 DUP12 ADD MLOAD PUSH1 0xA0 DUP13 ADD MLOAD PUSH2 0x3AE2 SWAP7 SWAP6 SWAP5 SWAP4 PUSH1 0x20 ADD PUSH2 0x5A36 JUMP JUMPDEST PUSH1 0x40 MLOAD PUSH1 0x20 DUP2 DUP4 SUB SUB DUP2 MSTORE SWAP1 PUSH1 0x40 MSTORE SWAP1 POP DUP4 ISZERO PUSH2 0x3BB6 JUMPI PUSH2 0x3B1D PUSH1 0x0 DUP1 MLOAD PUSH1 0x20 PUSH2 0x5BE6 DUP4 CODECOPY DUP2 MLOAD SWAP2 MSTORE PUSH2 0x991 DUP9 PUSH1 0xC0 ADD MLOAD DUP10 PUSH1 0xE0 ADD MLOAD PUSH2 0x29E2 JUMP JUMPDEST ISZERO ISZERO PUSH1 0x1 EQ PUSH2 0x3B69 JUMPI PUSH1 0x40 MLOAD PUSH3 0x461BCD PUSH1 0xE5 SHL DUP2 MSTORE PUSH1 0x20 PUSH1 0x4 DUP3 ADD MSTORE PUSH1 0x18 PUSH1 0x24 DUP3 ADD MSTORE PUSH24 0x546865207369676E6572206973206E6F742061206E6F6465 PUSH1 0x40 SHL PUSH1 0x44 DUP3 ADD MSTORE PUSH1 0x64 ADD PUSH2 0xDF4 JUMP JUMPDEST DUP1 MLOAD PUSH1 0x20 DUP3 ADD KECCAK256 PUSH1 0xC0 DUP8 ADD MLOAD DUP2 EQ PUSH2 0x3BB4 JUMPI PUSH1 0x40 MLOAD PUSH3 0x461BCD PUSH1 0xE5 SHL DUP2 MSTORE PUSH1 0x20 PUSH1 0x4 DUP3 ADD MSTORE PUSH1 0xE PUSH1 0x24 DUP3 ADD MSTORE PUSH14 0x496E636F72726563742064617461 PUSH1 0x90 SHL PUSH1 0x44 DUP3 ADD MSTORE PUSH1 0x64 ADD PUSH2 0xDF4 JUMP JUMPDEST POP JUMPDEST DUP6 MLOAD PUSH1 0x1 PUSH1 0x1 PUSH1 0xA0 SHL SUB SWAP1 DUP2 AND PUSH1 0x0 SWAP1 DUP2 MSTORE PUSH1 0x3 PUSH1 0x20 SWAP1 DUP2 MSTORE PUSH1 0x40 DUP3 KECCAK256 DUP10 MLOAD DUP2 SLOAD PUSH1 0x1 PUSH1 0x1 PUSH1 0xA0 SHL SUB NOT AND SWAP5 AND SWAP4 SWAP1 SWAP4 OR DUP4 SSTORE DUP9 ADD MLOAD PUSH1 0x1 DUP4 ADD SSTORE PUSH1 0x80 DUP9 ADD MLOAD PUSH1 0x7 DUP4 ADD SSTORE JUMPDEST DUP5 MLOAD DUP2 LT ISZERO PUSH2 0x3CF4 JUMPI DUP4 DUP2 DUP2 MLOAD DUP2 LT PUSH2 0x3C17 JUMPI PUSH2 0x3C17 PUSH2 0x5125 JUMP JUMPDEST PUSH1 0x20 MUL PUSH1 0x20 ADD ADD MLOAD PUSH1 0x13 PUSH1 0x0 DUP8 DUP5 DUP2 MLOAD DUP2 LT PUSH2 0x3C35 JUMPI PUSH2 0x3C35 PUSH2 0x5125 JUMP JUMPDEST PUSH1 0x20 MUL PUSH1 0x20 ADD ADD MLOAD PUSH1 0x1 PUSH1 0x1 PUSH1 0xA0 SHL SUB AND PUSH1 0x1 PUSH1 0x1 PUSH1 0xA0 SHL SUB AND DUP2 MSTORE PUSH1 0x20 ADD SWAP1 DUP2 MSTORE PUSH1 0x20 ADD PUSH1 0x0 KECCAK256 DUP2 SWAP1 SSTORE POP PUSH1 0x4 PUSH1 0x0 DUP7 DUP4 DUP2 MLOAD DUP2 LT PUSH2 0x3C77 JUMPI PUSH2 0x3C77 PUSH2 0x5125 JUMP JUMPDEST PUSH1 0x20 SWAP1 DUP2 MUL SWAP2 SWAP1 SWAP2 ADD DUP2 ADD MLOAD PUSH1 0x1 PUSH1 0x1 PUSH1 0xA0 SHL SUB AND DUP3 MSTORE DUP2 ADD SWAP2 SWAP1 SWAP2 MSTORE PUSH1 0x40 ADD PUSH1 0x0 KECCAK256 SLOAD PUSH1 0xFF AND ISZERO PUSH2 0x3CE2 JUMPI PUSH1 0x0 DUP5 DUP3 DUP2 MLOAD DUP2 LT PUSH2 0x3CB7 JUMPI PUSH2 0x3CB7 PUSH2 0x5125 JUMP JUMPDEST PUSH1 0x20 MUL PUSH1 0x20 ADD ADD MLOAD GT ISZERO PUSH2 0x3CE2 JUMPI DUP4 DUP2 DUP2 MLOAD DUP2 LT PUSH2 0x3CD7 JUMPI PUSH2 0x3CD7 PUSH2 0x5125 JUMP JUMPDEST PUSH1 0x20 MUL PUSH1 0x20 ADD ADD MLOAD SWAP9 POP JUMPDEST DUP1 PUSH2 0x3CEC DUP2 PUSH2 0x5169 JUMP JUMPDEST SWAP2 POP POP PUSH2 0x3BFC JUMP JUMPDEST POP PUSH1 0x0 DUP1 JUMPDEST DUP9 PUSH1 0x40 ADD MLOAD MLOAD DUP2 LT ISZERO PUSH2 0x3EBE JUMPI PUSH2 0x3D2C DUP10 PUSH1 0x40 ADD MLOAD DUP3 DUP2 MLOAD DUP2 LT PUSH2 0x3D1F JUMPI PUSH2 0x3D1F PUSH2 0x5125 JUMP JUMPDEST PUSH1 0x20 MUL PUSH1 0x20 ADD ADD MLOAD PUSH2 0x43DB JUMP JUMPDEST DUP9 PUSH1 0x60 ADD MLOAD DUP2 DUP2 MLOAD DUP2 LT PUSH2 0x3D42 JUMPI PUSH2 0x3D42 PUSH2 0x5125 JUMP JUMPDEST PUSH1 0x20 MUL PUSH1 0x20 ADD ADD MLOAD DUP4 PUSH1 0x2 ADD PUSH1 0x0 DUP12 PUSH1 0x40 ADD MLOAD DUP5 DUP2 MLOAD DUP2 LT PUSH2 0x3D66 JUMPI PUSH2 0x3D66 PUSH2 0x5125 JUMP JUMPDEST PUSH1 0x20 MUL PUSH1 0x20 ADD ADD MLOAD PUSH1 0x1 PUSH1 0x1 PUSH1 0xA0 SHL SUB AND PUSH1 0x1 PUSH1 0x1 PUSH1 0xA0 SHL SUB AND DUP2 MSTORE PUSH1 0x20 ADD SWAP1 DUP2 MSTORE PUSH1 0x20 ADD PUSH1 0x0 KECCAK256 PUSH1 0x0 DUP3 DUP3 SLOAD PUSH2 0x3D9D SWAP2 SWAP1 PUSH2 0x526C JUMP JUMPDEST SWAP3 POP POP DUP2 SWAP1 SSTORE POP PUSH1 0x4 PUSH1 0x0 DUP11 PUSH1 0x40 ADD MLOAD DUP4 DUP2 MLOAD DUP2 LT PUSH2 0x3DBE JUMPI PUSH2 0x3DBE PUSH2 0x5125 JUMP JUMPDEST PUSH1 0x20 SWAP1 DUP2 MUL SWAP2 SWAP1 SWAP2 ADD DUP2 ADD MLOAD PUSH1 0x1 PUSH1 0x1 PUSH1 0xA0 SHL SUB AND DUP3 MSTORE DUP2 ADD SWAP2 SWAP1 SWAP2 MSTORE PUSH1 0x40 ADD PUSH1 0x0 KECCAK256 SLOAD PUSH1 0xFF AND ISZERO PUSH2 0x3EAC JUMPI PUSH1 0x1 SWAP2 POP PUSH1 0x0 DUP10 PUSH1 0x60 ADD MLOAD DUP3 DUP2 MLOAD DUP2 LT PUSH2 0x3E06 JUMPI PUSH2 0x3E06 PUSH2 0x5125 JUMP JUMPDEST PUSH1 0x20 MUL PUSH1 0x20 ADD ADD MLOAD DUP10 PUSH2 0x3E19 SWAP2 SWAP1 PUSH2 0x526C JUMP JUMPDEST GT ISZERO PUSH2 0x3EAC JUMPI DUP9 MLOAD PUSH1 0x1 PUSH1 0x1 PUSH1 0xA0 SHL SUB AND PUSH1 0x0 SWAP1 DUP2 MSTORE PUSH1 0x11 PUSH1 0x20 MSTORE PUSH1 0x40 DUP2 KECCAK256 DUP1 SLOAD DUP11 SWAP3 SWAP1 PUSH2 0x3E48 SWAP1 DUP5 SWAP1 PUSH2 0x526C JUMP JUMPDEST SWAP3 POP POP DUP2 SWAP1 SSTORE POP PUSH2 0x3EAA DUP10 PUSH1 0x40 ADD MLOAD DUP3 DUP2 MLOAD DUP2 LT PUSH2 0x3E68 JUMPI PUSH2 0x3E68 PUSH2 0x5125 JUMP JUMPDEST PUSH1 0x20 MUL PUSH1 0x20 ADD ADD MLOAD DUP12 DUP12 PUSH1 0x60 ADD MLOAD DUP5 DUP2 MLOAD DUP2 LT PUSH2 0x3E87 JUMPI PUSH2 0x3E87 PUSH2 0x5125 JUMP JUMPDEST PUSH1 0x20 MUL PUSH1 0x20 ADD ADD MLOAD DUP12 PUSH2 0x3E9A SWAP2 SWAP1 PUSH2 0x526C JUMP JUMPDEST PUSH2 0x3EA4 SWAP2 SWAP1 PUSH2 0x526C JUMP JUMPDEST ADDRESS PUSH2 0x4465 JUMP JUMPDEST POP JUMPDEST DUP1 PUSH2 0x3EB6 DUP2 PUSH2 0x5169 JUMP JUMPDEST SWAP2 POP POP PUSH2 0x3CF9 JUMP JUMPDEST POP DUP1 ISZERO DUP1 ISZERO PUSH2 0x3ECD JUMPI POP PUSH1 0x0 DUP8 GT JUMPDEST ISZERO PUSH2 0x3F1C JUMPI DUP8 MLOAD PUSH1 0x1 PUSH1 0x1 PUSH1 0xA0 SHL SUB AND PUSH1 0x0 SWAP1 DUP2 MSTORE PUSH1 0x11 PUSH1 0x20 MSTORE PUSH1 0x40 DUP2 KECCAK256 DUP1 SLOAD DUP10 SWAP3 SWAP1 PUSH2 0x3EFB SWAP1 DUP5 SWAP1 PUSH2 0x526C JUMP JUMPDEST SWAP1 SWAP2 SSTORE POP POP PUSH1 0xA SLOAD PUSH2 0x3F1A SWAP1 PUSH1 0x1 PUSH1 0x1 PUSH1 0xA0 SHL SUB AND PUSH2 0x3EA4 DUP12 DUP11 PUSH2 0x526C JUMP JUMPDEST POP JUMPDEST PUSH32 0xC53F0AAE5AD30D5251E6054A1874116C45EAF54274CDB1940EE106D67C10B3A5 DUP9 PUSH1 0x0 ADD MLOAD DUP10 PUSH1 0x40 ADD MLOAD DUP11 PUSH1 0x60 ADD MLOAD DUP12 PUSH1 0xA0 ADD MLOAD PUSH1 0x40 MLOAD PUSH2 0x3F61 SWAP5 SWAP4 SWAP3 SWAP2 SWAP1 PUSH2 0x5AA5 JUMP JUMPDEST PUSH1 0x40 MLOAD DUP1 SWAP2 SUB SWAP1 LOG1 POP POP POP POP POP POP POP POP POP POP POP POP POP JUMP JUMPDEST PUSH1 0xC DUP1 SLOAD PUSH1 0x1 PUSH1 0x1 PUSH1 0xA0 SHL SUB NOT AND SWAP1 SSTORE PUSH2 0x26B8 DUP2 PUSH2 0x370E JUMP JUMPDEST PUSH1 0x60 DUP2 PUSH2 0x3F9F DUP2 PUSH1 0x1F PUSH2 0x526C JUMP JUMPDEST LT ISZERO PUSH2 0x3FDE JUMPI PUSH1 0x40 MLOAD PUSH3 0x461BCD PUSH1 0xE5 SHL DUP2 MSTORE PUSH1 0x20 PUSH1 0x4 DUP3 ADD MSTORE PUSH1 0xE PUSH1 0x24 DUP3 ADD MSTORE PUSH14 0x736C6963655F6F766572666C6F77 PUSH1 0x90 SHL PUSH1 0x44 DUP3 ADD MSTORE PUSH1 0x64 ADD PUSH2 0xDF4 JUMP JUMPDEST PUSH2 0x3FE8 DUP3 DUP5 PUSH2 0x526C JUMP JUMPDEST DUP5 MLOAD LT ISZERO PUSH2 0x402C JUMPI PUSH1 0x40 MLOAD PUSH3 0x461BCD PUSH1 0xE5 SHL DUP2 MSTORE PUSH1 0x20 PUSH1 0x4 DUP3 ADD MSTORE PUSH1 0x11 PUSH1 0x24 DUP3 ADD MSTORE PUSH17 0x736C6963655F6F75744F66426F756E6473 PUSH1 0x78 SHL PUSH1 0x44 DUP3 ADD MSTORE PUSH1 0x64 ADD PUSH2 0xDF4 JUMP JUMPDEST PUSH1 0x60 DUP3 ISZERO DUP1 ISZERO PUSH2 0x404B JUMPI PUSH1 0x40 MLOAD SWAP2 POP PUSH1 0x0 DUP3 MSTORE PUSH1 0x20 DUP3 ADD PUSH1 0x40 MSTORE PUSH2 0x4095 JUMP JUMPDEST PUSH1 0x40 MLOAD SWAP2 POP PUSH1 0x1F DUP5 AND DUP1 ISZERO PUSH1 0x20 MUL DUP2 DUP5 ADD ADD DUP6 DUP2 ADD DUP8 DUP4 ISZERO PUSH1 0x20 MUL DUP5 DUP12 ADD ADD ADD JUMPDEST DUP2 DUP4 LT ISZERO PUSH2 0x4084 JUMPI DUP1 MLOAD DUP4 MSTORE PUSH1 0x20 SWAP3 DUP4 ADD SWAP3 ADD PUSH2 0x406C JUMP JUMPDEST POP POP DUP6 DUP5 MSTORE PUSH1 0x1F ADD PUSH1 0x1F NOT AND PUSH1 0x40 MSTORE POP JUMPDEST POP SWAP5 SWAP4 POP POP POP POP JUMP JUMPDEST PUSH1 0x0 DUP1 PUSH1 0x0 DUP4 MLOAD PUSH1 0x41 EQ PUSH2 0x40F4 JUMPI PUSH1 0x40 MLOAD PUSH3 0x461BCD PUSH1 0xE5 SHL DUP2 MSTORE PUSH1 0x20 PUSH1 0x4 DUP3 ADD MSTORE PUSH1 0x1F PUSH1 0x24 DUP3 ADD MSTORE PUSH32 0x45434453413A20696E76616C6964207369676E6174757265206C656E67746800 PUSH1 0x44 DUP3 ADD MSTORE PUSH1 0x64 ADD PUSH2 0xDF4 JUMP JUMPDEST POP POP POP PUSH1 0x20 DUP2 ADD MLOAD PUSH1 0x40 DUP3 ADD MLOAD PUSH1 0x60 SWAP1 SWAP3 ADD MLOAD PUSH1 0x0 BYTE SWAP3 SWAP1 SWAP2 SWAP1 JUMP JUMPDEST PUSH2 0x31D9 DUP3 DUP3 PUSH2 0x44E5 JUMP JUMPDEST PUSH1 0x0 PUSH1 0x60 PUSH1 0x0 DUP1 PUSH1 0x0 DUP7 PUSH2 0xFFFF AND PUSH1 0x1 PUSH1 0x1 PUSH1 0x40 SHL SUB DUP2 GT ISZERO PUSH2 0x413F JUMPI PUSH2 0x413F PUSH2 0x47A2 JUMP JUMPDEST PUSH1 0x40 MLOAD SWAP1 DUP1 DUP3 MSTORE DUP1 PUSH1 0x1F ADD PUSH1 0x1F NOT AND PUSH1 0x20 ADD DUP3 ADD PUSH1 0x40 MSTORE DUP1 ISZERO PUSH2 0x4169 JUMPI PUSH1 0x20 DUP3 ADD DUP2 DUP1 CALLDATASIZE DUP4 CALLDATACOPY ADD SWAP1 POP JUMPDEST POP SWAP1 POP PUSH1 0x0 DUP1 DUP8 MLOAD PUSH1 0x20 DUP10 ADD PUSH1 0x0 DUP14 DUP14 CALL SWAP2 POP RETURNDATASIZE SWAP3 POP DUP7 DUP4 GT ISZERO PUSH2 0x418B JUMPI DUP7 SWAP3 POP JUMPDEST DUP3 DUP2 MSTORE DUP3 PUSH1 0x0 PUSH1 0x20 DUP4 ADD RETURNDATACOPY SWAP1 SWAP9 SWAP1 SWAP8 POP SWAP6 POP POP POP POP POP POP JUMP JUMPDEST DUP2 DUP1 MLOAD SWAP1 PUSH1 0x20 ADD KECCAK256 PUSH1 0x10 PUSH1 0x0 DUP8 PUSH2 0xFFFF AND PUSH2 0xFFFF AND DUP2 MSTORE PUSH1 0x20 ADD SWAP1 DUP2 MSTORE PUSH1 0x20 ADD PUSH1 0x0 KECCAK256 DUP6 PUSH1 0x40 MLOAD PUSH2 0x41D5 SWAP2 SWAP1 PUSH2 0x5AF0 JUMP JUMPDEST SWAP1 DUP2 MSTORE PUSH1 0x40 DUP1 MLOAD SWAP2 DUP3 SWAP1 SUB PUSH1 0x20 SWAP1 DUP2 ADD DUP4 KECCAK256 PUSH1 0x1 PUSH1 0x1 PUSH1 0x40 SHL SUB DUP9 AND PUSH1 0x0 SWAP1 DUP2 MSTORE SWAP2 MSTORE KECCAK256 SWAP2 SWAP1 SWAP2 SSTORE PUSH32 0xE183F33DE2837795525B4792CA4CD60535BD77C53B7E7030060BFCF5734D6B0C SWAP1 PUSH2 0x4232 SWAP1 DUP8 SWAP1 DUP8 SWAP1 DUP8 SWAP1 DUP8 SWAP1 DUP8 SWAP1 PUSH2 0x5B0C JUMP JUMPDEST PUSH1 0x40 MLOAD DUP1 SWAP2 SUB SWAP1 LOG1 POP POP POP POP POP JUMP JUMPDEST PUSH2 0xFFFF DUP7 AND PUSH1 0x0 SWAP1 DUP2 MSTORE PUSH1 0xD PUSH1 0x20 MSTORE PUSH1 0x40 DUP2 KECCAK256 DUP1 SLOAD PUSH2 0x425F SWAP1 PUSH2 0x4E41 JUMP JUMPDEST DUP1 PUSH1 0x1F ADD PUSH1 0x20 DUP1 SWAP2 DIV MUL PUSH1 0x20 ADD PUSH1 0x40 MLOAD SWAP1 DUP2 ADD PUSH1 0x40 MSTORE DUP1 SWAP3 SWAP2 SWAP1 DUP2 DUP2 MSTORE PUSH1 0x20 ADD DUP3 DUP1 SLOAD PUSH2 0x428B SWAP1 PUSH2 0x4E41 JUMP JUMPDEST DUP1 ISZERO PUSH2 0x42D8 JUMPI DUP1 PUSH1 0x1F LT PUSH2 0x42AD JUMPI PUSH2 0x100 DUP1 DUP4 SLOAD DIV MUL DUP4 MSTORE SWAP2 PUSH1 0x20 ADD SWAP2 PUSH2 0x42D8 JUMP JUMPDEST DUP3 ADD SWAP2 SWAP1 PUSH1 0x0 MSTORE PUSH1 0x20 PUSH1 0x0 KECCAK256 SWAP1 JUMPDEST DUP2 SLOAD DUP2 MSTORE SWAP1 PUSH1 0x1 ADD SWAP1 PUSH1 0x20 ADD DUP1 DUP4 GT PUSH2 0x42BB JUMPI DUP3 SWAP1 SUB PUSH1 0x1F AND DUP3 ADD SWAP2 JUMPDEST POP POP POP POP POP SWAP1 POP DUP1 MLOAD PUSH1 0x0 SUB PUSH2 0x4349 JUMPI PUSH1 0x40 MLOAD PUSH3 0x461BCD PUSH1 0xE5 SHL DUP2 MSTORE PUSH1 0x20 PUSH1 0x4 DUP3 ADD MSTORE PUSH1 0x30 PUSH1 0x24 DUP3 ADD MSTORE PUSH32 0x4C7A4170703A2064657374696E6174696F6E20636861696E206973206E6F7420 PUSH1 0x44 DUP3 ADD MSTORE PUSH16 0x61207472757374656420736F75726365 PUSH1 0x80 SHL PUSH1 0x64 DUP3 ADD MSTORE PUSH1 0x84 ADD PUSH2 0xDF4 JUMP JUMPDEST PUSH1 0x40 MLOAD PUSH3 0xC58031 PUSH1 0xE8 SHL DUP2 MSTORE PUSH1 0x1 PUSH1 0x1 PUSH1 0xA0 SHL SUB PUSH32 0x0 AND SWAP1 PUSH4 0xC5803100 SWAP1 DUP5 SWAP1 PUSH2 0x43A0 SWAP1 DUP12 SWAP1 DUP7 SWAP1 DUP13 SWAP1 DUP13 SWAP1 DUP13 SWAP1 DUP13 SWAP1 PUSH1 0x4 ADD PUSH2 0x5B5E JUMP JUMPDEST PUSH1 0x0 PUSH1 0x40 MLOAD DUP1 DUP4 SUB DUP2 DUP6 DUP9 DUP1 EXTCODESIZE ISZERO DUP1 ISZERO PUSH2 0x43B9 JUMPI PUSH1 0x0 DUP1 REVERT JUMPDEST POP GAS CALL ISZERO DUP1 ISZERO PUSH2 0x43CD JUMPI RETURNDATASIZE PUSH1 0x0 DUP1 RETURNDATACOPY RETURNDATASIZE PUSH1 0x0 REVERT JUMPDEST POP POP POP POP POP POP POP POP POP POP POP POP JUMP JUMPDEST PUSH1 0x1 PUSH1 0x1 PUSH1 0xA0 SHL SUB DUP2 AND PUSH1 0x0 SWAP1 DUP2 MSTORE PUSH1 0x9 PUSH1 0x20 MSTORE PUSH1 0x40 DUP2 KECCAK256 SLOAD PUSH1 0xFF AND ISZERO ISZERO SWAP1 SUB PUSH2 0x26B8 JUMPI PUSH1 0x1 PUSH1 0x1 PUSH1 0xA0 SHL SUB AND PUSH1 0x0 DUP2 DUP2 MSTORE PUSH1 0x9 PUSH1 0x20 MSTORE PUSH1 0x40 DUP2 KECCAK256 DUP1 SLOAD PUSH1 0xFF NOT AND PUSH1 0x1 SWAP1 DUP2 OR SWAP1 SWAP2 SSTORE PUSH1 0x8 DUP1 SLOAD SWAP2 DUP3 ADD DUP2 SSTORE SWAP1 SWAP2 MSTORE PUSH32 0xF3F7A9FE364FAAB93B216DA50A3214154F22A0A2B415B23A84C8169E8B636EE3 ADD DUP1 SLOAD PUSH1 0x1 PUSH1 0x1 PUSH1 0xA0 SHL SUB NOT AND SWAP1 SWAP2 OR SWAP1 SSTORE JUMP JUMPDEST PUSH1 0x1 SLOAD PUSH1 0x40 MLOAD PUSH4 0x1A4CA37B PUSH1 0xE2 SHL DUP2 MSTORE PUSH1 0x0 SWAP2 PUSH1 0x1 PUSH1 0x1 PUSH1 0xA0 SHL SUB AND SWAP1 PUSH4 0x69328DEC SWAP1 PUSH2 0x449A SWAP1 DUP8 SWAP1 DUP8 SWAP1 DUP8 SWAP1 PUSH1 0x4 ADD PUSH2 0x52D8 JUMP JUMPDEST PUSH1 0x20 PUSH1 0x40 MLOAD DUP1 DUP4 SUB DUP2 PUSH1 0x0 DUP8 GAS CALL ISZERO DUP1 ISZERO PUSH2 0x44B9 JUMPI RETURNDATASIZE PUSH1 0x0 DUP1 RETURNDATACOPY RETURNDATASIZE PUSH1 0x0 REVERT JUMPDEST POP POP POP POP PUSH1 0x40 MLOAD RETURNDATASIZE PUSH1 0x1F NOT PUSH1 0x1F DUP3 ADD AND DUP3 ADD DUP1 PUSH1 0x40 MSTORE POP DUP2 ADD SWAP1 PUSH2 0x44DD SWAP2 SWAP1 PUSH2 0x51C0 JUMP JUMPDEST SWAP5 SWAP4 POP POP POP POP JUMP JUMPDEST PUSH2 0x44EF DUP3 DUP3 PUSH2 0x26FD JUMP JUMPDEST PUSH2 0x31D9 JUMPI PUSH1 0x0 DUP3 DUP2 MSTORE PUSH1 0x7 PUSH1 0x20 SWAP1 DUP2 MSTORE PUSH1 0x40 DUP1 DUP4 KECCAK256 PUSH1 0x1 PUSH1 0x1 PUSH1 0xA0 SHL SUB DUP6 AND DUP5 MSTORE SWAP1 SWAP2 MSTORE SWAP1 KECCAK256 DUP1 SLOAD PUSH1 0xFF NOT AND PUSH1 0x1 OR SWAP1 SSTORE POP POP JUMP JUMPDEST PUSH2 0xFFFF DUP2 AND DUP2 EQ PUSH2 0x26B8 JUMPI PUSH1 0x0 DUP1 REVERT JUMPDEST PUSH1 0x0 DUP1 DUP4 PUSH1 0x1F DUP5 ADD SLT PUSH2 0x4546 JUMPI PUSH1 0x0 DUP1 REVERT JUMPDEST POP DUP2 CALLDATALOAD PUSH1 0x1 PUSH1 0x1 PUSH1 0x40 SHL SUB DUP2 GT ISZERO PUSH2 0x455D JUMPI PUSH1 0x0 DUP1 REVERT JUMPDEST PUSH1 0x20 DUP4 ADD SWAP2 POP DUP4 PUSH1 0x20 DUP3 DUP6 ADD ADD GT ISZERO PUSH2 0x4575 JUMPI PUSH1 0x0 DUP1 REVERT JUMPDEST SWAP3 POP SWAP3 SWAP1 POP JUMP JUMPDEST DUP1 CALLDATALOAD PUSH1 0x1 PUSH1 0x1 PUSH1 0x40 SHL SUB DUP2 AND DUP2 EQ PUSH2 0x4593 JUMPI PUSH1 0x0 DUP1 REVERT JUMPDEST SWAP2 SWAP1 POP JUMP JUMPDEST PUSH1 0x0 DUP1 PUSH1 0x0 DUP1 PUSH1 0x0 DUP1 PUSH1 0x80 DUP8 DUP10 SUB SLT ISZERO PUSH2 0x45B1 JUMPI PUSH1 0x0 DUP1 REVERT JUMPDEST DUP7 CALLDATALOAD PUSH2 0x45BC DUP2 PUSH2 0x4524 JUMP JUMPDEST SWAP6 POP PUSH1 0x20 DUP8 ADD CALLDATALOAD PUSH1 0x1 PUSH1 0x1 PUSH1 0x40 SHL SUB DUP1 DUP3 GT ISZERO PUSH2 0x45D8 JUMPI PUSH1 0x0 DUP1 REVERT JUMPDEST PUSH2 0x45E4 DUP11 DUP4 DUP12 ADD PUSH2 0x4534 JUMP JUMPDEST SWAP1 SWAP8 POP SWAP6 POP DUP6 SWAP2 POP PUSH2 0x45F8 PUSH1 0x40 DUP11 ADD PUSH2 0x457C JUMP JUMPDEST SWAP5 POP PUSH1 0x60 DUP10 ADD CALLDATALOAD SWAP2 POP DUP1 DUP3 GT ISZERO PUSH2 0x460E JUMPI PUSH1 0x0 DUP1 REVERT JUMPDEST POP PUSH2 0x461B DUP10 DUP3 DUP11 ADD PUSH2 0x4534 JUMP JUMPDEST SWAP8 SWAP11 SWAP7 SWAP10 POP SWAP5 SWAP8 POP SWAP3 SWAP6 SWAP4 SWAP5 SWAP3 POP POP POP JUMP JUMPDEST PUSH1 0x1 PUSH1 0x1 PUSH1 0xA0 SHL SUB DUP2 AND DUP2 EQ PUSH2 0x26B8 JUMPI PUSH1 0x0 DUP1 REVERT JUMPDEST PUSH1 0x0 PUSH1 0x20 DUP3 DUP5 SUB SLT ISZERO PUSH2 0x4654 JUMPI PUSH1 0x0 DUP1 REVERT JUMPDEST DUP2 CALLDATALOAD PUSH2 0x25BE DUP2 PUSH2 0x462D JUMP JUMPDEST PUSH1 0x1 PUSH1 0x1 PUSH1 0xA0 SHL SUB SWAP2 SWAP1 SWAP2 AND DUP2 MSTORE PUSH1 0x20 ADD SWAP1 JUMP JUMPDEST PUSH1 0x0 PUSH1 0x20 DUP3 DUP5 SUB SLT ISZERO PUSH2 0x4685 JUMPI PUSH1 0x0 DUP1 REVERT JUMPDEST DUP2 CALLDATALOAD PUSH2 0x25BE DUP2 PUSH2 0x4524 JUMP JUMPDEST PUSH1 0x0 JUMPDEST DUP4 DUP2 LT ISZERO PUSH2 0x46AB JUMPI DUP2 DUP2 ADD MLOAD DUP4 DUP3 ADD MSTORE PUSH1 0x20 ADD PUSH2 0x4693 JUMP JUMPDEST POP POP PUSH1 0x0 SWAP2 ADD MSTORE JUMP JUMPDEST PUSH1 0x0 DUP2 MLOAD DUP1 DUP5 MSTORE PUSH2 0x46CC DUP2 PUSH1 0x20 DUP7 ADD PUSH1 0x20 DUP7 ADD PUSH2 0x4690 JUMP JUMPDEST PUSH1 0x1F ADD PUSH1 0x1F NOT AND SWAP3 SWAP1 SWAP3 ADD PUSH1 0x20 ADD SWAP3 SWAP2 POP POP JUMP JUMPDEST PUSH1 0x20 DUP2 MSTORE PUSH1 0x0 PUSH2 0x25BE PUSH1 0x20 DUP4 ADD DUP5 PUSH2 0x46B4 JUMP JUMPDEST DUP1 ISZERO ISZERO DUP2 EQ PUSH2 0x26B8 JUMPI PUSH1 0x0 DUP1 REVERT JUMPDEST PUSH1 0x0 PUSH1 0x20 DUP3 DUP5 SUB SLT ISZERO PUSH2 0x4713 JUMPI PUSH1 0x0 DUP1 REVERT JUMPDEST DUP2 CALLDATALOAD PUSH2 0x25BE DUP2 PUSH2 0x46F3 JUMP JUMPDEST PUSH1 0x0 DUP1 PUSH1 0x0 PUSH1 0x40 DUP5 DUP7 SUB SLT ISZERO PUSH2 0x4733 JUMPI PUSH1 0x0 DUP1 REVERT JUMPDEST DUP4 CALLDATALOAD PUSH2 0x473E DUP2 PUSH2 0x4524 JUMP JUMPDEST SWAP3 POP PUSH1 0x20 DUP5 ADD CALLDATALOAD PUSH1 0x1 PUSH1 0x1 PUSH1 0x40 SHL SUB DUP2 GT ISZERO PUSH2 0x4759 JUMPI PUSH1 0x0 DUP1 REVERT JUMPDEST PUSH2 0x4765 DUP7 DUP3 DUP8 ADD PUSH2 0x4534 JUMP JUMPDEST SWAP5 SWAP8 SWAP1 SWAP7 POP SWAP4 SWAP5 POP POP POP POP JUMP JUMPDEST PUSH1 0x0 DUP1 PUSH1 0x40 DUP4 DUP6 SUB SLT ISZERO PUSH2 0x4785 JUMPI PUSH1 0x0 DUP1 REVERT JUMPDEST DUP3 CALLDATALOAD SWAP2 POP PUSH1 0x20 DUP4 ADD CALLDATALOAD PUSH2 0x4797 DUP2 PUSH2 0x462D JUMP JUMPDEST DUP1 SWAP2 POP POP SWAP3 POP SWAP3 SWAP1 POP JUMP JUMPDEST PUSH4 0x4E487B71 PUSH1 0xE0 SHL PUSH1 0x0 MSTORE PUSH1 0x41 PUSH1 0x4 MSTORE PUSH1 0x24 PUSH1 0x0 REVERT JUMPDEST PUSH1 0x40 MLOAD PUSH2 0x180 DUP2 ADD PUSH1 0x1 PUSH1 0x1 PUSH1 0x40 SHL SUB DUP2 GT DUP3 DUP3 LT OR ISZERO PUSH2 0x47DB JUMPI PUSH2 0x47DB PUSH2 0x47A2 JUMP JUMPDEST PUSH1 0x40 MSTORE SWAP1 JUMP JUMPDEST PUSH1 0x40 MLOAD PUSH2 0x100 DUP2 ADD PUSH1 0x1 PUSH1 0x1 PUSH1 0x40 SHL SUB DUP2 GT DUP3 DUP3 LT OR ISZERO PUSH2 0x47DB JUMPI PUSH2 0x47DB PUSH2 0x47A2 JUMP JUMPDEST PUSH1 0x40 MLOAD PUSH1 0x1F DUP3 ADD PUSH1 0x1F NOT AND DUP2 ADD PUSH1 0x1 PUSH1 0x1 PUSH1 0x40 SHL SUB DUP2 GT DUP3 DUP3 LT OR ISZERO PUSH2 0x482C JUMPI PUSH2 0x482C PUSH2 0x47A2 JUMP JUMPDEST PUSH1 0x40 MSTORE SWAP2 SWAP1 POP JUMP JUMPDEST PUSH1 0x0 PUSH1 0x1 PUSH1 0x1 PUSH1 0x40 SHL SUB DUP3 GT ISZERO PUSH2 0x484D JUMPI PUSH2 0x484D PUSH2 0x47A2 JUMP JUMPDEST POP PUSH1 0x5 SHL PUSH1 0x20 ADD SWAP1 JUMP JUMPDEST PUSH1 0x0 DUP3 PUSH1 0x1F DUP4 ADD SLT PUSH2 0x4868 JUMPI PUSH1 0x0 DUP1 REVERT JUMPDEST DUP2 CALLDATALOAD PUSH1 0x20 PUSH2 0x487D PUSH2 0x4878 DUP4 PUSH2 0x4834 JUMP JUMPDEST PUSH2 0x4804 JUMP JUMPDEST DUP3 DUP2 MSTORE PUSH1 0x5 SWAP3 SWAP1 SWAP3 SHL DUP5 ADD DUP2 ADD SWAP2 DUP2 DUP2 ADD SWAP1 DUP7 DUP5 GT ISZERO PUSH2 0x489C JUMPI PUSH1 0x0 DUP1 REVERT JUMPDEST DUP3 DUP7 ADD JUMPDEST DUP5 DUP2 LT ISZERO PUSH2 0x48C0 JUMPI DUP1 CALLDATALOAD PUSH2 0x48B3 DUP2 PUSH2 0x462D JUMP JUMPDEST DUP4 MSTORE SWAP2 DUP4 ADD SWAP2 DUP4 ADD PUSH2 0x48A0 JUMP JUMPDEST POP SWAP7 SWAP6 POP POP POP POP POP POP JUMP JUMPDEST PUSH1 0x0 DUP1 PUSH1 0x40 DUP4 DUP6 SUB SLT ISZERO PUSH2 0x48DE JUMPI PUSH1 0x0 DUP1 REVERT JUMPDEST DUP3 CALLDATALOAD PUSH1 0x1 PUSH1 0x1 PUSH1 0x40 SHL SUB DUP1 DUP3 GT ISZERO PUSH2 0x48F5 JUMPI PUSH1 0x0 DUP1 REVERT JUMPDEST DUP2 DUP6 ADD SWAP2 POP DUP6 PUSH1 0x1F DUP4 ADD SLT PUSH2 0x4909 JUMPI PUSH1 0x0 DUP1 REVERT JUMPDEST DUP2 CALLDATALOAD PUSH1 0x20 PUSH2 0x4919 PUSH2 0x4878 DUP4 PUSH2 0x4834 JUMP JUMPDEST DUP3 DUP2 MSTORE PUSH1 0x5 SWAP3 SWAP1 SWAP3 SHL DUP5 ADD DUP2 ADD SWAP2 DUP2 DUP2 ADD SWAP1 DUP10 DUP5 GT ISZERO PUSH2 0x4938 JUMPI PUSH1 0x0 DUP1 REVERT JUMPDEST SWAP5 DUP3 ADD SWAP5 JUMPDEST DUP4 DUP7 LT ISZERO PUSH2 0x4956 JUMPI DUP6 CALLDATALOAD DUP3 MSTORE SWAP5 DUP3 ADD SWAP5 SWAP1 DUP3 ADD SWAP1 PUSH2 0x493D JUMP JUMPDEST SWAP7 POP POP DUP7 ADD CALLDATALOAD SWAP3 POP POP DUP1 DUP3 GT ISZERO PUSH2 0x496C JUMPI PUSH1 0x0 DUP1 REVERT JUMPDEST POP PUSH2 0x4979 DUP6 DUP3 DUP7 ADD PUSH2 0x4857 JUMP JUMPDEST SWAP2 POP POP SWAP3 POP SWAP3 SWAP1 POP JUMP JUMPDEST PUSH1 0x0 DUP1 PUSH1 0x40 DUP4 DUP6 SUB SLT ISZERO PUSH2 0x4996 JUMPI PUSH1 0x0 DUP1 REVERT JUMPDEST DUP3 CALLDATALOAD PUSH2 0x49A1 DUP2 PUSH2 0x462D JUMP JUMPDEST SWAP2 POP PUSH1 0x20 DUP4 ADD CALLDATALOAD PUSH2 0x4797 DUP2 PUSH2 0x462D JUMP JUMPDEST PUSH1 0x0 DUP1 PUSH1 0x40 DUP4 DUP6 SUB SLT ISZERO PUSH2 0x49C4 JUMPI PUSH1 0x0 DUP1 REVERT JUMPDEST DUP3 CALLDATALOAD PUSH2 0x49CF DUP2 PUSH2 0x462D JUMP JUMPDEST SWAP5 PUSH1 0x20 SWAP4 SWAP1 SWAP4 ADD CALLDATALOAD SWAP4 POP POP POP JUMP JUMPDEST PUSH1 0x0 DUP1 PUSH1 0x40 DUP4 DUP6 SUB SLT ISZERO PUSH2 0x49F0 JUMPI PUSH1 0x0 DUP1 REVERT JUMPDEST DUP3 CALLDATALOAD PUSH2 0x49A1 DUP2 PUSH2 0x4524 JUMP JUMPDEST PUSH1 0x0 PUSH1 0x20 DUP3 DUP5 SUB SLT ISZERO PUSH2 0x4A0D JUMPI PUSH1 0x0 DUP1 REVERT JUMPDEST POP CALLDATALOAD SWAP2 SWAP1 POP JUMP JUMPDEST PUSH1 0x0 PUSH1 0x1 PUSH1 0x1 PUSH1 0x40 SHL SUB DUP3 GT ISZERO PUSH2 0x4A2D JUMPI PUSH2 0x4A2D PUSH2 0x47A2 JUMP JUMPDEST POP PUSH1 0x1F ADD PUSH1 0x1F NOT AND PUSH1 0x20 ADD SWAP1 JUMP JUMPDEST PUSH1 0x0 DUP3 PUSH1 0x1F DUP4 ADD SLT PUSH2 0x4A4C JUMPI PUSH1 0x0 DUP1 REVERT JUMPDEST DUP2 CALLDATALOAD PUSH2 0x4A5A PUSH2 0x4878 DUP3 PUSH2 0x4A14 JUMP JUMPDEST DUP2 DUP2 MSTORE DUP5 PUSH1 0x20 DUP4 DUP7 ADD ADD GT ISZERO PUSH2 0x4A6F JUMPI PUSH1 0x0 DUP1 REVERT JUMPDEST DUP2 PUSH1 0x20 DUP6 ADD PUSH1 0x20 DUP4 ADD CALLDATACOPY PUSH1 0x0 SWAP2 DUP2 ADD PUSH1 0x20 ADD SWAP2 SWAP1 SWAP2 MSTORE SWAP4 SWAP3 POP POP POP JUMP JUMPDEST PUSH1 0x0 DUP1 PUSH1 0x0 PUSH1 0x60 DUP5 DUP7 SUB SLT ISZERO PUSH2 0x4AA1 JUMPI PUSH1 0x0 DUP1 REVERT JUMPDEST DUP4 CALLDATALOAD PUSH2 0x4AAC DUP2 PUSH2 0x4524 JUMP JUMPDEST SWAP3 POP PUSH1 0x20 DUP5 ADD CALLDATALOAD PUSH1 0x1 PUSH1 0x1 PUSH1 0x40 SHL SUB DUP2 GT ISZERO PUSH2 0x4AC7 JUMPI PUSH1 0x0 DUP1 REVERT JUMPDEST PUSH2 0x4AD3 DUP7 DUP3 DUP8 ADD PUSH2 0x4A3B JUMP JUMPDEST SWAP3 POP POP PUSH2 0x4AE2 PUSH1 0x40 DUP6 ADD PUSH2 0x457C JUMP JUMPDEST SWAP1 POP SWAP3 POP SWAP3 POP SWAP3 JUMP JUMPDEST PUSH1 0x0 DUP1 PUSH1 0x40 DUP4 DUP6 SUB SLT ISZERO PUSH2 0x4AFE JUMPI PUSH1 0x0 DUP1 REVERT JUMPDEST DUP3 CALLDATALOAD PUSH2 0x49CF DUP2 PUSH2 0x4524 JUMP JUMPDEST PUSH1 0x0 DUP1 PUSH1 0x40 DUP4 DUP6 SUB SLT ISZERO PUSH2 0x4B1C JUMPI PUSH1 0x0 DUP1 REVERT JUMPDEST DUP3 CALLDATALOAD PUSH2 0x4B27 DUP2 PUSH2 0x4524 JUMP JUMPDEST SWAP2 POP PUSH1 0x20 DUP4 ADD CALLDATALOAD PUSH2 0x4797 DUP2 PUSH2 0x4524 JUMP JUMPDEST PUSH1 0x0 DUP1 PUSH1 0x40 DUP4 DUP6 SUB SLT ISZERO PUSH2 0x4B4A JUMPI PUSH1 0x0 DUP1 REVERT JUMPDEST DUP3 CALLDATALOAD PUSH2 0x4B55 DUP2 PUSH2 0x462D JUMP JUMPDEST SWAP2 POP PUSH1 0x20 DUP4 ADD CALLDATALOAD PUSH2 0x4797 DUP2 PUSH2 0x46F3 JUMP JUMPDEST PUSH1 0x0 DUP1 PUSH1 0x40 DUP4 DUP6 SUB SLT ISZERO PUSH2 0x4B78 JUMPI PUSH1 0x0 DUP1 REVERT JUMPDEST DUP3 CALLDATALOAD PUSH1 0x1 PUSH1 0x1 PUSH1 0x40 SHL SUB DUP2 GT ISZERO PUSH2 0x4B8E JUMPI PUSH1 0x0 DUP1 REVERT JUMPDEST PUSH2 0x4B9A DUP6 DUP3 DUP7 ADD PUSH2 0x4857 JUMP JUMPDEST SWAP3 POP POP PUSH1 0x20 DUP4 ADD CALLDATALOAD PUSH2 0x4797 DUP2 PUSH2 0x46F3 JUMP JUMPDEST PUSH1 0x0 DUP1 PUSH1 0x0 DUP1 PUSH1 0x0 PUSH1 0x60 DUP7 DUP9 SUB SLT ISZERO PUSH2 0x4BC3 JUMPI PUSH1 0x0 DUP1 REVERT JUMPDEST DUP6 CALLDATALOAD PUSH2 0x4BCE DUP2 PUSH2 0x4524 JUMP JUMPDEST SWAP5 POP PUSH1 0x20 DUP7 ADD CALLDATALOAD PUSH1 0x1 PUSH1 0x1 PUSH1 0x40 SHL SUB DUP1 DUP3 GT ISZERO PUSH2 0x4BEA JUMPI PUSH1 0x0 DUP1 REVERT JUMPDEST PUSH2 0x4BF6 DUP10 DUP4 DUP11 ADD PUSH2 0x4534 JUMP JUMPDEST SWAP1 SWAP7 POP SWAP5 POP PUSH1 0x40 DUP9 ADD CALLDATALOAD SWAP2 POP DUP1 DUP3 GT ISZERO PUSH2 0x4C0F JUMPI PUSH1 0x0 DUP1 REVERT JUMPDEST POP PUSH2 0x4C1C DUP9 DUP3 DUP10 ADD PUSH2 0x4534 JUMP JUMPDEST SWAP7 SWAP10 SWAP6 SWAP9 POP SWAP4 SWAP7 POP SWAP3 SWAP5 SWAP4 SWAP3 POP POP POP JUMP JUMPDEST PUSH1 0x0 DUP1 PUSH1 0x40 DUP4 DUP6 SUB SLT ISZERO PUSH2 0x4C40 JUMPI PUSH1 0x0 DUP1 REVERT JUMPDEST DUP3 CALLDATALOAD SWAP2 POP PUSH1 0x20 DUP4 ADD CALLDATALOAD PUSH1 0x1 PUSH1 0x1 PUSH1 0x40 SHL SUB DUP2 GT ISZERO PUSH2 0x4C5D JUMPI PUSH1 0x0 DUP1 REVERT JUMPDEST PUSH2 0x4979 DUP6 DUP3 DUP7 ADD PUSH2 0x4A3B JUMP JUMPDEST PUSH1 0x0 DUP1 PUSH1 0x0 DUP1 PUSH1 0x0 PUSH1 0x80 DUP7 DUP9 SUB SLT ISZERO PUSH2 0x4C81 JUMPI PUSH1 0x0 DUP1 REVERT JUMPDEST DUP6 CALLDATALOAD PUSH2 0x4C8C DUP2 PUSH2 0x4524 JUMP JUMPDEST SWAP5 POP PUSH1 0x20 DUP7 ADD CALLDATALOAD PUSH2 0x4C9C DUP2 PUSH2 0x4524 JUMP JUMPDEST SWAP4 POP PUSH1 0x40 DUP7 ADD CALLDATALOAD SWAP3 POP PUSH1 0x60 DUP7 ADD CALLDATALOAD PUSH1 0x1 PUSH1 0x1 PUSH1 0x40 SHL SUB DUP2 GT ISZERO PUSH2 0x4CBE JUMPI PUSH1 0x0 DUP1 REVERT JUMPDEST PUSH2 0x4C1C DUP9 DUP3 DUP10 ADD PUSH2 0x4534 JUMP JUMPDEST PUSH1 0x0 DUP2 MLOAD DUP1 DUP5 MSTORE PUSH1 0x20 DUP1 DUP6 ADD SWAP5 POP DUP1 DUP5 ADD PUSH1 0x0 JUMPDEST DUP4 DUP2 LT ISZERO PUSH2 0x4D03 JUMPI DUP2 MLOAD PUSH1 0x1 PUSH1 0x1 PUSH1 0xA0 SHL SUB AND DUP8 MSTORE SWAP6 DUP3 ADD SWAP6 SWAP1 DUP3 ADD SWAP1 PUSH1 0x1 ADD PUSH2 0x4CDE JUMP JUMPDEST POP SWAP5 SWAP6 SWAP5 POP POP POP POP POP JUMP JUMPDEST PUSH1 0x0 DUP2 MLOAD DUP1 DUP5 MSTORE PUSH1 0x20 DUP1 DUP6 ADD SWAP5 POP DUP1 DUP5 ADD PUSH1 0x0 JUMPDEST DUP4 DUP2 LT ISZERO PUSH2 0x4D03 JUMPI DUP2 MLOAD DUP8 MSTORE SWAP6 DUP3 ADD SWAP6 SWAP1 DUP3 ADD SWAP1 PUSH1 0x1 ADD PUSH2 0x4D22 JUMP JUMPDEST PUSH1 0x40 DUP2 MSTORE PUSH1 0x0 PUSH2 0x4D51 PUSH1 0x40 DUP4 ADD DUP6 PUSH2 0x4CCA JUMP JUMPDEST DUP3 DUP2 SUB PUSH1 0x20 DUP5 ADD MSTORE PUSH2 0x334F DUP2 DUP6 PUSH2 0x4D0E JUMP JUMPDEST PUSH1 0x0 DUP1 PUSH1 0x0 PUSH1 0x60 DUP5 DUP7 SUB SLT ISZERO PUSH2 0x4D78 JUMPI PUSH1 0x0 DUP1 REVERT JUMPDEST DUP4 CALLDATALOAD PUSH2 0x4D83 DUP2 PUSH2 0x4524 JUMP JUMPDEST SWAP3 POP PUSH1 0x20 DUP5 ADD CALLDATALOAD PUSH2 0x4D93 DUP2 PUSH2 0x4524 JUMP JUMPDEST SWAP3 SWAP6 SWAP3 SWAP5 POP POP POP PUSH1 0x40 SWAP2 SWAP1 SWAP2 ADD CALLDATALOAD SWAP1 JUMP JUMPDEST PUSH1 0x0 DUP1 PUSH1 0x0 DUP1 PUSH1 0x80 DUP6 DUP8 SUB SLT ISZERO PUSH2 0x4DBA JUMPI PUSH1 0x0 DUP1 REVERT JUMPDEST DUP5 CALLDATALOAD PUSH2 0x4DC5 DUP2 PUSH2 0x4524 JUMP JUMPDEST SWAP4 POP PUSH1 0x20 DUP6 ADD CALLDATALOAD PUSH2 0x4DD5 DUP2 PUSH2 0x4524 JUMP JUMPDEST SWAP3 POP PUSH1 0x40 DUP6 ADD CALLDATALOAD PUSH2 0x4DE5 DUP2 PUSH2 0x462D JUMP JUMPDEST SWAP4 SWAP7 SWAP3 SWAP6 POP SWAP3 SWAP4 PUSH1 0x60 ADD CALLDATALOAD SWAP3 POP POP JUMP JUMPDEST PUSH1 0x1 DUP1 PUSH1 0xA0 SHL SUB DUP7 AND DUP2 MSTORE DUP5 PUSH1 0x20 DUP3 ADD MSTORE PUSH1 0xA0 PUSH1 0x40 DUP3 ADD MSTORE PUSH1 0x0 PUSH2 0x4E1C PUSH1 0xA0 DUP4 ADD DUP7 PUSH2 0x4CCA JUMP JUMPDEST DUP3 DUP2 SUB PUSH1 0x60 DUP5 ADD MSTORE PUSH2 0x4E2E DUP2 DUP7 PUSH2 0x4D0E JUMP JUMPDEST SWAP2 POP POP DUP3 PUSH1 0x80 DUP4 ADD MSTORE SWAP7 SWAP6 POP POP POP POP POP POP JUMP JUMPDEST PUSH1 0x1 DUP2 DUP2 SHR SWAP1 DUP3 AND DUP1 PUSH2 0x4E55 JUMPI PUSH1 0x7F DUP3 AND SWAP2 POP JUMPDEST PUSH1 0x20 DUP3 LT DUP2 SUB PUSH2 0x4E75 JUMPI PUSH4 0x4E487B71 PUSH1 0xE0 SHL PUSH1 0x0 MSTORE PUSH1 0x22 PUSH1 0x4 MSTORE PUSH1 0x24 PUSH1 0x0 REVERT JUMPDEST POP SWAP2 SWAP1 POP JUMP JUMPDEST DUP2 DUP4 DUP3 CALLDATACOPY PUSH1 0x0 SWAP2 ADD SWAP1 DUP2 MSTORE SWAP2 SWAP1 POP JUMP JUMPDEST PUSH1 0x0 PUSH1 0x20 DUP3 DUP5 SUB SLT ISZERO PUSH2 0x4E9D JUMPI PUSH1 0x0 DUP1 REVERT JUMPDEST PUSH1 0x40 MLOAD PUSH1 0x20 DUP2 ADD PUSH1 0x1 PUSH1 0x1 PUSH1 0x40 SHL SUB DUP2 GT DUP3 DUP3 LT OR ISZERO PUSH2 0x4EBF JUMPI PUSH2 0x4EBF PUSH2 0x47A2 JUMP JUMPDEST PUSH1 0x40 MSTORE SWAP2 MLOAD DUP3 MSTORE POP SWAP2 SWAP1 POP JUMP JUMPDEST DUP1 MLOAD PUSH1 0x1 PUSH1 0x1 PUSH1 0x80 SHL SUB DUP2 AND DUP2 EQ PUSH2 0x4593 JUMPI PUSH1 0x0 DUP1 REVERT JUMPDEST DUP1 MLOAD PUSH5 0xFFFFFFFFFF DUP2 AND DUP2 EQ PUSH2 0x4593 JUMPI PUSH1 0x0 DUP1 REVERT JUMPDEST DUP1 MLOAD PUSH2 0x4593 DUP2 PUSH2 0x462D JUMP JUMPDEST DUP1 MLOAD PUSH1 0xFF DUP2 AND DUP2 EQ PUSH2 0x4593 JUMPI PUSH1 0x0 DUP1 REVERT JUMPDEST PUSH1 0x0 PUSH2 0x180 DUP3 DUP5 SUB SLT ISZERO PUSH2 0x4F27 JUMPI PUSH1 0x0 DUP1 REVERT JUMPDEST PUSH2 0x4F2F PUSH2 0x47B8 JUMP JUMPDEST PUSH2 0x4F39 DUP5 DUP5 PUSH2 0x4E8B JUMP JUMPDEST DUP2 MSTORE PUSH2 0x4F47 PUSH1 0x20 DUP5 ADD PUSH2 0x4ECC JUMP JUMPDEST PUSH1 0x20 DUP3 ADD MSTORE PUSH2 0x4F58 PUSH1 0x40 DUP5 ADD PUSH2 0x4ECC JUMP JUMPDEST PUSH1 0x40 DUP3 ADD MSTORE PUSH2 0x4F69 PUSH1 0x60 DUP5 ADD PUSH2 0x4ECC JUMP JUMPDEST PUSH1 0x60 DUP3 ADD MSTORE PUSH2 0x4F7A PUSH1 0x80 DUP5 ADD PUSH2 0x4ECC JUMP JUMPDEST PUSH1 0x80 DUP3 ADD MSTORE PUSH2 0x4F8B PUSH1 0xA0 DUP5 ADD PUSH2 0x4ECC JUMP JUMPDEST PUSH1 0xA0 DUP3 ADD MSTORE PUSH2 0x4F9C PUSH1 0xC0 DUP5 ADD PUSH2 0x4EE3 JUMP JUMPDEST PUSH1 0xC0 DUP3 ADD MSTORE PUSH2 0x4FAD PUSH1 0xE0 DUP5 ADD PUSH2 0x4EF8 JUMP JUMPDEST PUSH1 0xE0 DUP3 ADD MSTORE PUSH2 0x100 PUSH2 0x4FC0 DUP2 DUP6 ADD PUSH2 0x4EF8 JUMP JUMPDEST SWAP1 DUP3 ADD MSTORE PUSH2 0x120 PUSH2 0x4FD2 DUP5 DUP3 ADD PUSH2 0x4EF8 JUMP JUMPDEST SWAP1 DUP3 ADD MSTORE PUSH2 0x140 PUSH2 0x4FE4 DUP5 DUP3 ADD PUSH2 0x4EF8 JUMP JUMPDEST SWAP1 DUP3 ADD MSTORE PUSH2 0x160 PUSH2 0x4FF6 DUP5 DUP3 ADD PUSH2 0x4F03 JUMP JUMPDEST SWAP1 DUP3 ADD MSTORE SWAP4 SWAP3 POP POP POP JUMP JUMPDEST DUP2 DUP4 MSTORE DUP2 DUP2 PUSH1 0x20 DUP6 ADD CALLDATACOPY POP PUSH1 0x0 DUP3 DUP3 ADD PUSH1 0x20 SWAP1 DUP2 ADD SWAP2 SWAP1 SWAP2 MSTORE PUSH1 0x1F SWAP1 SWAP2 ADD PUSH1 0x1F NOT AND SWAP1 SWAP2 ADD ADD SWAP1 JUMP JUMPDEST PUSH2 0xFFFF DUP5 AND DUP2 MSTORE PUSH1 0x40 PUSH1 0x20 DUP3 ADD MSTORE PUSH1 0x0 PUSH2 0x334F PUSH1 0x40 DUP4 ADD DUP5 DUP7 PUSH2 0x5001 JUMP JUMPDEST DUP1 MLOAD PUSH2 0x4593 DUP2 PUSH2 0x46F3 JUMP JUMPDEST PUSH1 0x0 PUSH1 0x20 DUP3 DUP5 SUB SLT ISZERO PUSH2 0x5065 JUMPI PUSH1 0x0 DUP1 REVERT JUMPDEST DUP2 MLOAD PUSH2 0x25BE DUP2 PUSH2 0x46F3 JUMP JUMPDEST PUSH1 0x20 DUP1 DUP3 MSTORE PUSH1 0x7 SWAP1 DUP3 ADD MSTORE PUSH7 0x636C6F73696E67 PUSH1 0xC8 SHL PUSH1 0x40 DUP3 ADD MSTORE PUSH1 0x60 ADD SWAP1 JUMP JUMPDEST PUSH1 0x20 DUP1 DUP3 MSTORE PUSH1 0x14 SWAP1 DUP3 ADD MSTORE PUSH20 0x4E6F742073756666696369656E742066756E6473 PUSH1 0x60 SHL PUSH1 0x40 DUP3 ADD MSTORE PUSH1 0x60 ADD SWAP1 JUMP JUMPDEST PUSH4 0x4E487B71 PUSH1 0xE0 SHL PUSH1 0x0 MSTORE PUSH1 0x11 PUSH1 0x4 MSTORE PUSH1 0x24 PUSH1 0x0 REVERT JUMPDEST DUP2 DUP2 SUB DUP2 DUP2 GT ISZERO PUSH2 0x26E8 JUMPI PUSH2 0x26E8 PUSH2 0x50BF JUMP JUMPDEST PUSH1 0x1 PUSH1 0x1 PUSH1 0xA0 SHL SUB SWAP3 SWAP1 SWAP3 AND DUP3 MSTORE PUSH1 0x20 DUP3 ADD MSTORE PUSH1 0x40 ADD SWAP1 JUMP JUMPDEST PUSH1 0x1 PUSH1 0x1 PUSH1 0xA0 SHL SUB SWAP4 DUP5 AND DUP2 MSTORE SWAP2 SWAP1 SWAP3 AND PUSH1 0x20 DUP3 ADD MSTORE PUSH1 0x40 DUP2 ADD SWAP2 SWAP1 SWAP2 MSTORE PUSH1 0x60 ADD SWAP1 JUMP JUMPDEST PUSH4 0x4E487B71 PUSH1 0xE0 SHL PUSH1 0x0 MSTORE PUSH1 0x32 PUSH1 0x4 MSTORE PUSH1 0x24 PUSH1 0x0 REVERT JUMPDEST PUSH1 0x20 DUP1 DUP3 MSTORE PUSH1 0x14 SWAP1 DUP3 ADD MSTORE PUSH20 0x10985B185B98D9481A5B9CDD59999A58DA595B9D PUSH1 0x62 SHL PUSH1 0x40 DUP3 ADD MSTORE PUSH1 0x60 ADD SWAP1 JUMP JUMPDEST PUSH1 0x0 PUSH1 0x1 DUP3 ADD PUSH2 0x517B JUMPI PUSH2 0x517B PUSH2 0x50BF JUMP JUMPDEST POP PUSH1 0x1 ADD SWAP1 JUMP JUMPDEST PUSH1 0x60 DUP2 MSTORE PUSH1 0x0 PUSH2 0x5195 PUSH1 0x60 DUP4 ADD DUP7 PUSH2 0x4CCA JUMP JUMPDEST DUP3 DUP2 SUB PUSH1 0x20 DUP5 ADD MSTORE PUSH2 0x51A7 DUP2 DUP7 PUSH2 0x4D0E JUMP JUMPDEST SWAP2 POP POP PUSH1 0x1 DUP1 PUSH1 0xA0 SHL SUB DUP4 AND PUSH1 0x40 DUP4 ADD MSTORE SWAP5 SWAP4 POP POP POP POP JUMP JUMPDEST PUSH1 0x0 PUSH1 0x20 DUP3 DUP5 SUB SLT ISZERO PUSH2 0x51D2 JUMPI PUSH1 0x0 DUP1 REVERT JUMPDEST POP MLOAD SWAP2 SWAP1 POP JUMP JUMPDEST PUSH1 0x0 PUSH1 0x20 DUP3 DUP5 SUB SLT ISZERO PUSH2 0x51EB JUMPI PUSH1 0x0 DUP1 REVERT JUMPDEST PUSH2 0x25BE DUP3 PUSH2 0x4EE3 JUMP JUMPDEST PUSH1 0x1 PUSH1 0x1 PUSH1 0xA0 SHL SUB SWAP3 DUP4 AND DUP2 MSTORE SWAP2 AND PUSH1 0x20 DUP3 ADD MSTORE PUSH1 0x40 ADD SWAP1 JUMP JUMPDEST PUSH1 0x20 DUP1 DUP3 MSTORE PUSH1 0x10 SWAP1 DUP3 ADD MSTORE PUSH16 0x27379030BABA3437B934BD30BA34B7B7 PUSH1 0x81 SHL PUSH1 0x40 DUP3 ADD MSTORE PUSH1 0x60 ADD SWAP1 JUMP JUMPDEST PUSH1 0x20 DUP1 DUP3 MSTORE PUSH1 0x1A SWAP1 DUP3 ADD MSTORE PUSH26 0x6E6F7420656E6F756768206E617469766520666F722066656573 PUSH1 0x30 SHL PUSH1 0x40 DUP3 ADD MSTORE PUSH1 0x60 ADD SWAP1 JUMP JUMPDEST DUP1 DUP3 ADD DUP1 DUP3 GT ISZERO PUSH2 0x26E8 JUMPI PUSH2 0x26E8 PUSH2 0x50BF JUMP JUMPDEST PUSH1 0x1 PUSH1 0x1 PUSH1 0xA0 SHL SUB DUP8 DUP2 AND DUP3 MSTORE DUP7 AND PUSH1 0x20 DUP3 ADD MSTORE PUSH1 0x40 DUP2 ADD DUP6 SWAP1 MSTORE DUP4 ISZERO ISZERO PUSH1 0x60 DUP3 ADD MSTORE PUSH1 0xC0 DUP2 ADD PUSH1 0x5 DUP5 LT PUSH2 0x52C4 JUMPI PUSH4 0x4E487B71 PUSH1 0xE0 SHL PUSH1 0x0 MSTORE PUSH1 0x21 PUSH1 0x4 MSTORE PUSH1 0x24 PUSH1 0x0 REVERT JUMPDEST PUSH1 0x80 DUP3 ADD SWAP4 SWAP1 SWAP4 MSTORE PUSH1 0xA0 ADD MSTORE SWAP5 SWAP4 POP POP POP POP JUMP JUMPDEST PUSH1 0x1 PUSH1 0x1 PUSH1 0xA0 SHL SUB SWAP4 DUP5 AND DUP2 MSTORE PUSH1 0x20 DUP2 ADD SWAP3 SWAP1 SWAP3 MSTORE SWAP1 SWAP2 AND PUSH1 0x40 DUP3 ADD MSTORE PUSH1 0x60 ADD SWAP1 JUMP JUMPDEST PUSH1 0x0 PUSH1 0x20 DUP3 DUP5 SUB SLT ISZERO PUSH2 0x530D JUMPI PUSH1 0x0 DUP1 REVERT JUMPDEST DUP2 MLOAD PUSH2 0x25BE DUP2 PUSH2 0x4524 JUMP JUMPDEST PUSH1 0x0 PUSH2 0xFFFF DUP1 DUP8 AND DUP4 MSTORE DUP1 DUP7 AND PUSH1 0x20 DUP5 ADD MSTORE POP DUP4 PUSH1 0x40 DUP4 ADD MSTORE PUSH1 0x80 PUSH1 0x60 DUP4 ADD MSTORE PUSH2 0x5345 PUSH1 0x80 DUP4 ADD DUP5 PUSH2 0x46B4 JUMP JUMPDEST SWAP7 SWAP6 POP POP POP POP POP POP JUMP JUMPDEST PUSH2 0xFFFF DUP7 AND DUP2 MSTORE PUSH1 0x0 PUSH1 0x20 PUSH1 0x1 DUP1 PUSH1 0xA0 SHL SUB DUP8 AND DUP2 DUP5 ADD MSTORE PUSH1 0xA0 PUSH1 0x40 DUP5 ADD MSTORE PUSH2 0x537B PUSH1 0xA0 DUP5 ADD DUP8 PUSH2 0x46B4 JUMP JUMPDEST DUP6 ISZERO ISZERO PUSH1 0x60 DUP6 ADD MSTORE DUP4 DUP2 SUB PUSH1 0x80 DUP6 ADD MSTORE PUSH1 0x0 DUP6 SLOAD PUSH2 0x5398 DUP2 PUSH2 0x4E41 JUMP JUMPDEST DUP1 DUP5 MSTORE PUSH1 0x1 DUP3 DUP2 AND DUP1 ISZERO PUSH2 0x53B3 JUMPI PUSH1 0x1 DUP2 EQ PUSH2 0x53CD JUMPI PUSH2 0x53FB JUMP JUMPDEST PUSH1 0xFF NOT DUP5 AND DUP7 DUP9 ADD MSTORE DUP3 ISZERO ISZERO PUSH1 0x5 SHL DUP7 ADD DUP8 ADD SWAP5 POP PUSH2 0x53FB JUMP JUMPDEST DUP10 PUSH1 0x0 MSTORE DUP7 PUSH1 0x0 KECCAK256 PUSH1 0x0 JUMPDEST DUP5 DUP2 LT ISZERO PUSH2 0x53F3 JUMPI DUP2 SLOAD DUP9 DUP3 ADD DUP11 ADD MSTORE SWAP1 DUP4 ADD SWAP1 DUP9 ADD PUSH2 0x53D8 JUMP JUMPDEST DUP8 ADD DUP9 ADD SWAP6 POP POP JUMPDEST POP SWAP3 SWAP13 SWAP12 POP POP POP POP POP POP POP POP POP POP POP POP JUMP JUMPDEST PUSH1 0x0 DUP1 PUSH1 0x40 DUP4 DUP6 SUB SLT ISZERO PUSH2 0x5420 JUMPI PUSH1 0x0 DUP1 REVERT JUMPDEST POP POP DUP1 MLOAD PUSH1 0x20 SWAP1 SWAP2 ADD MLOAD SWAP1 SWAP3 SWAP1 SWAP2 POP JUMP JUMPDEST PUSH1 0x1F DUP3 GT ISZERO PUSH2 0x260B JUMPI PUSH1 0x0 DUP2 DUP2 MSTORE PUSH1 0x20 DUP2 KECCAK256 PUSH1 0x1F DUP6 ADD PUSH1 0x5 SHR DUP2 ADD PUSH1 0x20 DUP7 LT ISZERO PUSH2 0x5458 JUMPI POP DUP1 JUMPDEST PUSH1 0x1F DUP6 ADD PUSH1 0x5 SHR DUP3 ADD SWAP2 POP JUMPDEST DUP2 DUP2 LT ISZERO PUSH2 0x24CB JUMPI DUP3 DUP2 SSTORE PUSH1 0x1 ADD PUSH2 0x5464 JUMP JUMPDEST PUSH1 0x0 NOT PUSH1 0x3 DUP4 SWAP1 SHL SHR NOT AND PUSH1 0x1 SWAP2 SWAP1 SWAP2 SHL OR SWAP1 JUMP JUMPDEST DUP2 MLOAD PUSH1 0x1 PUSH1 0x1 PUSH1 0x40 SHL SUB DUP2 GT ISZERO PUSH2 0x54A5 JUMPI PUSH2 0x54A5 PUSH2 0x47A2 JUMP JUMPDEST PUSH2 0x54B9 DUP2 PUSH2 0x54B3 DUP5 SLOAD PUSH2 0x4E41 JUMP JUMPDEST DUP5 PUSH2 0x5431 JUMP JUMPDEST PUSH1 0x20 DUP1 PUSH1 0x1F DUP4 GT PUSH1 0x1 DUP2 EQ PUSH2 0x54E8 JUMPI PUSH1 0x0 DUP5 ISZERO PUSH2 0x54D6 JUMPI POP DUP6 DUP4 ADD MLOAD JUMPDEST PUSH2 0x54E0 DUP6 DUP3 PUSH2 0x5477 JUMP JUMPDEST DUP7 SSTORE POP PUSH2 0x24CB JUMP JUMPDEST PUSH1 0x0 DUP6 DUP2 MSTORE PUSH1 0x20 DUP2 KECCAK256 PUSH1 0x1F NOT DUP7 AND SWAP2 JUMPDEST DUP3 DUP2 LT ISZERO PUSH2 0x5517 JUMPI DUP9 DUP7 ADD MLOAD DUP3 SSTORE SWAP5 DUP5 ADD SWAP5 PUSH1 0x1 SWAP1 SWAP2 ADD SWAP1 DUP5 ADD PUSH2 0x54F8 JUMP JUMPDEST POP DUP6 DUP3 LT ISZERO PUSH2 0x5535 JUMPI DUP8 DUP6 ADD MLOAD PUSH1 0x0 NOT PUSH1 0x3 DUP9 SWAP1 SHL PUSH1 0xF8 AND SHR NOT AND DUP2 SSTORE JUMPDEST POP POP POP POP POP PUSH1 0x1 SWAP1 DUP2 SHL ADD SWAP1 SSTORE POP JUMP JUMPDEST DUP3 DUP5 DUP3 CALLDATACOPY PUSH1 0x60 SWAP2 SWAP1 SWAP2 SHL PUSH1 0x1 PUSH1 0x1 PUSH1 0x60 SHL SUB NOT AND SWAP2 ADD SWAP1 DUP2 MSTORE PUSH1 0x14 ADD SWAP2 SWAP1 POP JUMP JUMPDEST PUSH2 0xFFFF DUP7 AND DUP2 MSTORE PUSH1 0x60 PUSH1 0x20 DUP3 ADD MSTORE PUSH1 0x0 PUSH2 0x5584 PUSH1 0x60 DUP4 ADD DUP7 DUP9 PUSH2 0x5001 JUMP JUMPDEST DUP3 DUP2 SUB PUSH1 0x40 DUP5 ADD MSTORE PUSH2 0x5597 DUP2 DUP6 DUP8 PUSH2 0x5001 JUMP JUMPDEST SWAP9 SWAP8 POP POP POP POP POP POP POP POP JUMP JUMPDEST PUSH1 0x0 PUSH2 0xFFFF DUP1 DUP9 AND DUP4 MSTORE DUP1 DUP8 AND PUSH1 0x20 DUP5 ADD MSTORE POP DUP5 PUSH1 0x40 DUP4 ADD MSTORE PUSH1 0x80 PUSH1 0x60 DUP4 ADD MSTORE PUSH2 0x55D1 PUSH1 0x80 DUP4 ADD DUP5 DUP7 PUSH2 0x5001 JUMP JUMPDEST SWAP8 SWAP7 POP POP POP POP POP POP POP JUMP JUMPDEST PUSH2 0xFFFF DUP7 AND DUP2 MSTORE PUSH1 0x80 PUSH1 0x20 DUP3 ADD MSTORE PUSH1 0x0 PUSH2 0x55FA PUSH1 0x80 DUP4 ADD DUP7 DUP9 PUSH2 0x5001 JUMP JUMPDEST PUSH1 0x1 PUSH1 0x1 PUSH1 0x40 SHL SUB SWAP5 SWAP1 SWAP5 AND PUSH1 0x40 DUP4 ADD MSTORE POP PUSH1 0x60 ADD MSTORE SWAP4 SWAP3 POP POP POP JUMP JUMPDEST PUSH2 0xFFFF SWAP5 DUP6 AND DUP2 MSTORE SWAP3 SWAP1 SWAP4 AND PUSH1 0x20 DUP4 ADD MSTORE PUSH1 0x1 PUSH1 0x1 PUSH1 0xA0 SHL SUB AND PUSH1 0x40 DUP3 ADD MSTORE PUSH1 0x60 DUP2 ADD SWAP2 SWAP1 SWAP2 MSTORE PUSH1 0x80 ADD SWAP1 JUMP JUMPDEST PUSH1 0x0 DUP3 PUSH1 0x1F DUP4 ADD SLT PUSH2 0x5655 JUMPI PUSH1 0x0 DUP1 REVERT JUMPDEST DUP2 MLOAD PUSH2 0x5663 PUSH2 0x4878 DUP3 PUSH2 0x4A14 JUMP JUMPDEST DUP2 DUP2 MSTORE DUP5 PUSH1 0x20 DUP4 DUP7 ADD ADD GT ISZERO PUSH2 0x5678 JUMPI PUSH1 0x0 DUP1 REVERT JUMPDEST PUSH2 0x44DD DUP3 PUSH1 0x20 DUP4 ADD PUSH1 0x20 DUP8 ADD PUSH2 0x4690 JUMP JUMPDEST PUSH1 0x0 PUSH1 0x20 DUP3 DUP5 SUB SLT ISZERO PUSH2 0x569B JUMPI PUSH1 0x0 DUP1 REVERT JUMPDEST DUP2 MLOAD PUSH1 0x1 PUSH1 0x1 PUSH1 0x40 SHL SUB DUP2 GT ISZERO PUSH2 0x56B1 JUMPI PUSH1 0x0 DUP1 REVERT JUMPDEST PUSH2 0x44DD DUP5 DUP3 DUP6 ADD PUSH2 0x5644 JUMP JUMPDEST PUSH1 0x1 PUSH1 0x1 PUSH1 0x40 SHL SUB DUP4 GT ISZERO PUSH2 0x56D4 JUMPI PUSH2 0x56D4 PUSH2 0x47A2 JUMP JUMPDEST PUSH2 0x56E8 DUP4 PUSH2 0x56E2 DUP4 SLOAD PUSH2 0x4E41 JUMP JUMPDEST DUP4 PUSH2 0x5431 JUMP JUMPDEST PUSH1 0x0 PUSH1 0x1F DUP5 GT PUSH1 0x1 DUP2 EQ PUSH2 0x5716 JUMPI PUSH1 0x0 DUP6 ISZERO PUSH2 0x5704 JUMPI POP DUP4 DUP3 ADD CALLDATALOAD JUMPDEST PUSH2 0x570E DUP7 DUP3 PUSH2 0x5477 JUMP JUMPDEST DUP5 SSTORE POP PUSH2 0x10B0 JUMP JUMPDEST PUSH1 0x0 DUP4 DUP2 MSTORE PUSH1 0x20 SWAP1 KECCAK256 PUSH1 0x1F NOT DUP7 AND SWAP1 DUP4 JUMPDEST DUP3 DUP2 LT ISZERO PUSH2 0x5747 JUMPI DUP7 DUP6 ADD CALLDATALOAD DUP3 SSTORE PUSH1 0x20 SWAP5 DUP6 ADD SWAP5 PUSH1 0x1 SWAP1 SWAP3 ADD SWAP2 ADD PUSH2 0x5727 JUMP JUMPDEST POP DUP7 DUP3 LT ISZERO PUSH2 0x5764 JUMPI PUSH1 0x0 NOT PUSH1 0xF8 DUP9 PUSH1 0x3 SHL AND SHR NOT DUP5 DUP8 ADD CALLDATALOAD AND DUP2 SSTORE JUMPDEST POP POP PUSH1 0x1 DUP6 PUSH1 0x1 SHL ADD DUP4 SSTORE POP POP POP POP POP JUMP JUMPDEST PUSH2 0xFFFF DUP6 AND DUP2 MSTORE PUSH1 0x80 PUSH1 0x20 DUP3 ADD MSTORE PUSH1 0x0 PUSH2 0x5793 PUSH1 0x80 DUP4 ADD DUP7 PUSH2 0x46B4 JUMP JUMPDEST PUSH1 0x1 PUSH1 0x1 PUSH1 0x40 SHL SUB DUP6 AND PUSH1 0x40 DUP5 ADD MSTORE DUP3 DUP2 SUB PUSH1 0x60 DUP5 ADD MSTORE PUSH2 0x55D1 DUP2 DUP6 PUSH2 0x46B4 JUMP JUMPDEST PUSH1 0x0 DUP3 PUSH1 0x1F DUP4 ADD SLT PUSH2 0x57C5 JUMPI PUSH1 0x0 DUP1 REVERT JUMPDEST DUP2 MLOAD PUSH1 0x20 PUSH2 0x57D5 PUSH2 0x4878 DUP4 PUSH2 0x4834 JUMP JUMPDEST DUP3 DUP2 MSTORE PUSH1 0x5 SWAP3 SWAP1 SWAP3 SHL DUP5 ADD DUP2 ADD SWAP2 DUP2 DUP2 ADD SWAP1 DUP7 DUP5 GT ISZERO PUSH2 0x57F4 JUMPI PUSH1 0x0 DUP1 REVERT JUMPDEST DUP3 DUP7 ADD JUMPDEST DUP5 DUP2 LT ISZERO PUSH2 0x48C0 JUMPI DUP1 MLOAD PUSH2 0x580B DUP2 PUSH2 0x462D JUMP JUMPDEST DUP4 MSTORE SWAP2 DUP4 ADD SWAP2 DUP4 ADD PUSH2 0x57F8 JUMP JUMPDEST PUSH1 0x0 DUP3 PUSH1 0x1F DUP4 ADD SLT PUSH2 0x5829 JUMPI PUSH1 0x0 DUP1 REVERT JUMPDEST DUP2 MLOAD PUSH1 0x20 PUSH2 0x5839 PUSH2 0x4878 DUP4 PUSH2 0x4834 JUMP JUMPDEST DUP3 DUP2 MSTORE PUSH1 0x5 SWAP3 SWAP1 SWAP3 SHL DUP5 ADD DUP2 ADD SWAP2 DUP2 DUP2 ADD SWAP1 DUP7 DUP5 GT ISZERO PUSH2 0x5858 JUMPI PUSH1 0x0 DUP1 REVERT JUMPDEST DUP3 DUP7 ADD JUMPDEST DUP5 DUP2 LT ISZERO PUSH2 0x48C0 JUMPI DUP1 MLOAD DUP4 MSTORE SWAP2 DUP4 ADD SWAP2 DUP4 ADD PUSH2 0x585C JUMP JUMPDEST PUSH1 0x0 DUP1 PUSH1 0x0 DUP1 PUSH1 0x0 PUSH1 0xA0 DUP7 DUP9 SUB SLT ISZERO PUSH2 0x588B JUMPI PUSH1 0x0 DUP1 REVERT JUMPDEST DUP6 MLOAD PUSH1 0x1 PUSH1 0x1 PUSH1 0x40 SHL SUB DUP1 DUP3 GT ISZERO PUSH2 0x58A2 JUMPI PUSH1 0x0 DUP1 REVERT JUMPDEST SWAP1 DUP8 ADD SWAP1 PUSH2 0x100 DUP3 DUP11 SUB SLT ISZERO PUSH2 0x58B7 JUMPI PUSH1 0x0 DUP1 REVERT JUMPDEST PUSH2 0x58BF PUSH2 0x47E1 JUMP JUMPDEST PUSH2 0x58C8 DUP4 PUSH2 0x4EF8 JUMP JUMPDEST DUP2 MSTORE PUSH1 0x20 DUP4 ADD MLOAD PUSH1 0x20 DUP3 ADD MSTORE PUSH1 0x40 DUP4 ADD MLOAD DUP3 DUP2 GT ISZERO PUSH2 0x58E6 JUMPI PUSH1 0x0 DUP1 REVERT JUMPDEST PUSH2 0x58F2 DUP12 DUP3 DUP7 ADD PUSH2 0x57B4 JUMP JUMPDEST PUSH1 0x40 DUP4 ADD MSTORE POP PUSH1 0x60 DUP4 ADD MLOAD DUP3 DUP2 GT ISZERO PUSH2 0x590A JUMPI PUSH1 0x0 DUP1 REVERT JUMPDEST PUSH2 0x5916 DUP12 DUP3 DUP7 ADD PUSH2 0x5818 JUMP JUMPDEST PUSH1 0x60 DUP4 ADD MSTORE POP PUSH1 0x80 DUP4 ADD MLOAD PUSH1 0x80 DUP3 ADD MSTORE PUSH2 0x5932 PUSH1 0xA0 DUP5 ADD PUSH2 0x4F03 JUMP JUMPDEST PUSH1 0xA0 DUP3 ADD MSTORE PUSH1 0xC0 DUP4 ADD MLOAD PUSH1 0xC0 DUP3 ADD MSTORE PUSH1 0xE0 DUP4 ADD MLOAD DUP3 DUP2 GT ISZERO PUSH2 0x5953 JUMPI PUSH1 0x0 DUP1 REVERT JUMPDEST PUSH2 0x595F DUP12 DUP3 DUP7 ADD PUSH2 0x5644 JUMP JUMPDEST PUSH1 0xE0 DUP4 ADD MSTORE POP PUSH1 0x20 DUP10 ADD MLOAD SWAP1 SWAP8 POP SWAP6 POP PUSH2 0x597B PUSH1 0x40 DUP10 ADD PUSH2 0x5048 JUMP JUMPDEST SWAP5 POP PUSH1 0x60 DUP9 ADD MLOAD SWAP2 POP DUP1 DUP3 GT ISZERO PUSH2 0x5991 JUMPI PUSH1 0x0 DUP1 REVERT JUMPDEST PUSH2 0x599D DUP10 DUP4 DUP11 ADD PUSH2 0x57B4 JUMP JUMPDEST SWAP4 POP PUSH1 0x80 DUP9 ADD MLOAD SWAP2 POP DUP1 DUP3 GT ISZERO PUSH2 0x59B3 JUMPI PUSH1 0x0 DUP1 REVERT JUMPDEST POP PUSH2 0x59C0 DUP9 DUP3 DUP10 ADD PUSH2 0x5818 JUMP JUMPDEST SWAP2 POP POP SWAP3 SWAP6 POP SWAP3 SWAP6 SWAP1 SWAP4 POP JUMP JUMPDEST DUP2 MLOAD PUSH1 0x0 SWAP1 DUP3 SWAP1 PUSH1 0x20 DUP1 DUP7 ADD DUP5 JUMPDEST DUP4 DUP2 LT ISZERO PUSH2 0x5A00 JUMPI DUP2 MLOAD PUSH1 0x1 PUSH1 0x1 PUSH1 0xA0 SHL SUB AND DUP6 MSTORE SWAP4 DUP3 ADD SWAP4 SWAP1 DUP3 ADD SWAP1 PUSH1 0x1 ADD PUSH2 0x59DB JUMP JUMPDEST POP SWAP3 SWAP7 SWAP6 POP POP POP POP POP POP JUMP JUMPDEST DUP2 MLOAD PUSH1 0x0 SWAP1 DUP3 SWAP1 PUSH1 0x20 DUP1 DUP7 ADD DUP5 JUMPDEST DUP4 DUP2 LT ISZERO PUSH2 0x5A00 JUMPI DUP2 MLOAD DUP6 MSTORE SWAP4 DUP3 ADD SWAP4 SWAP1 DUP3 ADD SWAP1 PUSH1 0x1 ADD PUSH2 0x5A1A JUMP JUMPDEST PUSH1 0x60 DUP8 SWAP1 SHL PUSH1 0x1 PUSH1 0x1 PUSH1 0x60 SHL SUB NOT AND DUP2 MSTORE PUSH1 0x14 DUP2 ADD DUP7 SWAP1 MSTORE DUP5 MLOAD PUSH1 0x0 SWAP1 PUSH2 0x5A64 DUP2 PUSH1 0x34 DUP6 ADD PUSH1 0x20 DUP11 ADD PUSH2 0x4690 JUMP JUMPDEST DUP6 MLOAD SWAP1 DUP4 ADD SWAP1 PUSH2 0x5A7B DUP2 PUSH1 0x34 DUP5 ADD PUSH1 0x20 DUP11 ADD PUSH2 0x4690 JUMP JUMPDEST PUSH1 0x34 SWAP2 ADD SWAP1 DUP2 ADD SWAP5 SWAP1 SWAP5 MSTORE POP POP PUSH1 0xF8 SHL PUSH1 0x1 PUSH1 0x1 PUSH1 0xF8 SHL SUB NOT AND PUSH1 0x54 DUP3 ADD MSTORE PUSH1 0x55 ADD SWAP5 SWAP4 POP POP POP POP JUMP JUMPDEST PUSH1 0x1 PUSH1 0x1 PUSH1 0xA0 SHL SUB DUP6 AND DUP2 MSTORE PUSH1 0x80 PUSH1 0x20 DUP3 ADD DUP2 SWAP1 MSTORE PUSH1 0x0 SWAP1 PUSH2 0x5AC9 SWAP1 DUP4 ADD DUP7 PUSH2 0x4CCA JUMP JUMPDEST DUP3 DUP2 SUB PUSH1 0x40 DUP5 ADD MSTORE PUSH2 0x5ADB DUP2 DUP7 PUSH2 0x4D0E JUMP JUMPDEST SWAP2 POP POP PUSH1 0xFF DUP4 AND PUSH1 0x60 DUP4 ADD MSTORE SWAP6 SWAP5 POP POP POP POP POP JUMP JUMPDEST PUSH1 0x0 DUP3 MLOAD PUSH2 0x5B02 DUP2 DUP5 PUSH1 0x20 DUP8 ADD PUSH2 0x4690 JUMP JUMPDEST SWAP2 SWAP1 SWAP2 ADD SWAP3 SWAP2 POP POP JUMP JUMPDEST PUSH2 0xFFFF DUP7 AND DUP2 MSTORE PUSH1 0xA0 PUSH1 0x20 DUP3 ADD MSTORE PUSH1 0x0 PUSH2 0x5B29 PUSH1 0xA0 DUP4 ADD DUP8 PUSH2 0x46B4 JUMP JUMPDEST PUSH1 0x1 PUSH1 0x1 PUSH1 0x40 SHL SUB DUP7 AND PUSH1 0x40 DUP5 ADD MSTORE DUP3 DUP2 SUB PUSH1 0x60 DUP5 ADD MSTORE PUSH2 0x5B4A DUP2 DUP7 PUSH2 0x46B4 JUMP JUMPDEST SWAP1 POP DUP3 DUP2 SUB PUSH1 0x80 DUP5 ADD MSTORE PUSH2 0x5597 DUP2 DUP6 PUSH2 0x46B4 JUMP JUMPDEST PUSH2 0xFFFF DUP8 AND DUP2 MSTORE PUSH1 0xC0 PUSH1 0x20 DUP3 ADD MSTORE PUSH1 0x0 PUSH2 0x5B7B PUSH1 0xC0 DUP4 ADD DUP9 PUSH2 0x46B4 JUMP JUMPDEST DUP3 DUP2 SUB PUSH1 0x40 DUP5 ADD MSTORE PUSH2 0x5B8D DUP2 DUP9 PUSH2 0x46B4 JUMP JUMPDEST PUSH1 0x1 PUSH1 0x1 PUSH1 0xA0 SHL SUB DUP8 DUP2 AND PUSH1 0x60 DUP7 ADD MSTORE DUP7 AND PUSH1 0x80 DUP6 ADD MSTORE DUP4 DUP2 SUB PUSH1 0xA0 DUP6 ADD MSTORE SWAP1 POP PUSH2 0x5BB8 DUP2 DUP6 PUSH2 0x46B4 JUMP JUMPDEST SWAP10 SWAP9 POP POP POP POP POP POP POP POP POP JUMP INVALID RETURN EXTCODEHASH 0xE7 DUP15 0xB7 0xC8 BLOCKHASH 0xE8 0xBF PUSH9 0x670029904B6F0DA8E7 SWAP4 CHAINID SWAP5 SHR 0x27 DUP11 0x4E PUSH23 0x76D473DF1557C872046F094B8A493EC5EB6EA374EAFBC3 0xC0 MSIZE MLOAD 0xE4 0xD 0xE3 0xC4 ADDRESS 0x2A COINBASE RETURN CALL 0x27 0xBA LOG2 PUSH5 0x6970667358 0x22 SLT KECCAK256 0xE7 DUP8 SWAP13 NUMBER PUSH11 0x9DA870317FC799E00FDD33 SWAP5 0xD5 EXTCODESIZE SDIV ORIGIN 0xD2 0xB8 MOD RETURN PUSH3 0x206F43 CREATE2 0xB9 DUP15 PUSH5 0x736F6C6343 STOP ADDMOD GT STOP CALLER "},"gasEstimates":{"creation":{"codeDepositCost":"4722200","executionCost":"infinite","totalCost":"infinite"},"external":{"DEFAULT_ADMIN_ROLE()":"1097","FEE_ROLE()":"infinite","NODE_ROLE()":"infinite","OWENER_ROLE()":"393","_roles(bytes32)":"2266","aave()":"1831","acceptOwnership()":"infinite","accounts(address)":"5985","adapterParams()":"infinite","deCoinList(address)":"1467","deposit(address,uint256)":"infinite","depositETH(uint256)":"infinite","dstChainId()":"1321","estimateFee(address)":"infinite","failedMessages(uint16,bytes,uint64)":"infinite","forceResumeReceive(uint16,bytes)":"infinite","getATokenWithToken(address)":"infinite","getAllFee()":"infinite","getBalance(address)":"infinite","getBalanceFromAAVE(address,address)":"infinite","getConfig(uint16,uint16,address,uint256)":"infinite","getInterest(address)":"1957","getNativeFee(address)":"1259","getOracle(uint16)":"infinite","getSize(address)":"infinite","getTotalValue(address)":"infinite","getTrustedRemoteAddress(uint16)":"infinite","getUserReserveData(address,address)":"infinite","hasRole(bytes32,address)":"2200","hasStoredPayload(uint16,bytes)":"infinite","hashMessage(bytes32)":"1506","interest()":"2216","interestAmount(address)":"2379","isOpen()":"1384","isSupDe(address)":"2699","isTrueForCoin(address)":"1643","isTrustedRemote(uint16,bytes)":"infinite","lzEndpoint()":"infinite","lzReceive(uint16,bytes,uint64,bytes)":"infinite","minDstGasLookup(uint16,uint16)":"infinite","nonblockingLzReceive(uint16,bytes,uint64,bytes)":"infinite","owner()":"1884","pendingOwner()":"2368","precrime()":"1919","renounceOwnership()":"infinite","retryMessage(uint16,bytes,uint64,bytes)":"infinite","retryPayload(uint16,bytes,bytes)":"infinite","setAdapterParams(uint16,uint256)":"infinite","setConfig(uint16,uint16,uint256,bytes)":"infinite","setDeCoinList(address[],bool)":"infinite","setIsOpen(bool)":"22120","setMinDstGas(uint16,uint16,uint256)":"infinite","setOracle(uint16,address)":"infinite","setPrecrime(address)":"24278","setReceiveVersion(uint16)":"infinite","setSendVersion(uint16)":"infinite","setSupDe(address,bool)":"infinite","setTrustedRemote(uint16,bytes)":"infinite","setTrustedRemoteAddress(uint16,bytes)":"infinite","setWhilLlist(address,uint256)":"infinite","totalFee(address)":"1917","transferOwnership(address)":"infinite","trustedRemoteLookup(uint16)":"infinite","usdt()":"1347","verifyEcrecover(bytes32,bytes)":"infinite","whlieList(address)":"2303","withdraw(uint256[],address[])":"infinite","withdrawFee(address,uint256)":"infinite","withdrawInterest(uint256,address)":"infinite"},"internal":{"_depositToAAVE(address,uint256)":"infinite","_grantRole(bytes32,address)":"22016","_nonblockingLzReceive(uint16,bytes memory,uint64,bytes memory)":"infinite","_sentToL1(uint16,bytes memory,uint256)":"infinite","_setupRole(bytes32,address)":"22050","_withdrawFromAAVE(address,uint256,address)":"infinite","isCoinList(address)":"63522","recover(bytes memory)":"infinite"}},"methodIdentifiers":{"DEFAULT_ADMIN_ROLE()":"a217fddf","FEE_ROLE()":"2a0276f8","NODE_ROLE()":"fb895733","OWENER_ROLE()":"19fc2e61","_roles(bytes32)":"bd99d7e1","aave()":"819faf7b","acceptOwnership()":"79ba5097","accounts(address)":"5e5c06e2","adapterParams()":"083118d5","deCoinList(address)":"29e26b10","deposit(address,uint256)":"47e7ef24","depositETH(uint256)":"5358fbda","dstChainId()":"30c593f7","estimateFee(address)":"57463d35","failedMessages(uint16,bytes,uint64)":"5b8c41e6","forceResumeReceive(uint16,bytes)":"42d65a8d","getATokenWithToken(address)":"021b9359","getAllFee()":"d667a5da","getBalance(address)":"f8b2cb4f","getBalanceFromAAVE(address,address)":"806b834d","getConfig(uint16,uint16,address,uint256)":"f5ecbdbc","getInterest(address)":"7aaa3470","getNativeFee(address)":"0707a0f0","getOracle(uint16)":"e2f28824","getSize(address)":"504f1671","getTotalValue(address)":"68637549","getTrustedRemoteAddress(uint16)":"9f38369a","getUserReserveData(address,address)":"28dd2d01","hasRole(bytes32,address)":"91d14854","hasStoredPayload(uint16,bytes)":"0eaf6ea6","hashMessage(bytes32)":"b3cb890f","interest()":"c392f766","interestAmount(address)":"c779c1c3","isOpen()":"47535d7b","isSupDe(address)":"ff464d3f","isTrueForCoin(address)":"4893c26a","isTrustedRemote(uint16,bytes)":"3d8b38f6","lzEndpoint()":"b353aaa7","lzReceive(uint16,bytes,uint64,bytes)":"001d3567","minDstGasLookup(uint16,uint16)":"8cfd8f5c","nonblockingLzReceive(uint16,bytes,uint64,bytes)":"66ad5c8a","owner()":"8da5cb5b","pendingOwner()":"e30c3978","precrime()":"950c8a74","renounceOwnership()":"715018a6","retryMessage(uint16,bytes,uint64,bytes)":"d1deba1f","retryPayload(uint16,bytes,bytes)":"aaff5f16","setAdapterParams(uint16,uint256)":"6d1daa28","setConfig(uint16,uint16,uint256,bytes)":"cbed8b9c","setDeCoinList(address[],bool)":"a4ca74db","setIsOpen(bool)":"085a10cf","setMinDstGas(uint16,uint16,uint256)":"df2a5b3b","setOracle(uint16,address)":"492e527e","setPrecrime(address)":"baf3292d","setReceiveVersion(uint16)":"10ddb137","setSendVersion(uint16)":"07e0db17","setSupDe(address,bool)":"a304dcf4","setTrustedRemote(uint16,bytes)":"eb8d72b7","setTrustedRemoteAddress(uint16,bytes)":"a6c3d165","setWhilLlist(address,uint256)":"e52249e3","totalFee(address)":"7a4fda3d","transferOwnership(address)":"f2fde38b","trustedRemoteLookup(uint16)":"7533d788","usdt()":"2f48ab7d","verifyEcrecover(bytes32,bytes)":"b273f207","whlieList(address)":"b7a745c6","withdraw(uint256[],address[])":"16e57652","withdrawFee(address,uint256)":"fd9be522","withdrawInterest(uint256,address)":"1210aac2"}},"storageLayout":{"storage":[{"astId":2881,"contract":"contracts/L1/Vault.sol:Vault","label":"dstChainId","offset":0,"slot":"0","type":"t_uint16"},{"astId":2883,"contract":"contracts/L1/Vault.sol:Vault","label":"interest","offset":2,"slot":"0","type":"t_address"},{"astId":2885,"contract":"contracts/L1/Vault.sol:Vault","label":"aave","offset":0,"slot":"1","type":"t_address"},{"astId":2887,"contract":"contracts/L1/Vault.sol:Vault","label":"adapterParams","offset":0,"slot":"2","type":"t_bytes_storage"},{"astId":2913,"contract":"contracts/L1/Vault.sol:Vault","label":"accounts","offset":0,"slot":"3","type":"t_mapping(t_address,t_struct(Account)2908_storage)"},{"astId":2917,"contract":"contracts/L1/Vault.sol:Vault","label":"isSupDe","offset":0,"slot":"4","type":"t_mapping(t_address,t_bool)"},{"astId":2921,"contract":"contracts/L1/Vault.sol:Vault","label":"latestShare","offset":0,"slot":"5","type":"t_mapping(t_address,t_uint256)"},{"astId":2923,"contract":"contracts/L1/Vault.sol:Vault","label":"isOpen","offset":0,"slot":"6","type":"t_bool"},{"astId":2954,"contract":"contracts/L1/Vault.sol:Vault","label":"_roles","offset":0,"slot":"7","type":"t_mapping(t_bytes32,t_struct(RoleData)2949_storage)"},{"astId":2960,"contract":"contracts/L1/Vault.sol:Vault","label":"coinList","offset":0,"slot":"8","type":"t_array(t_address)dyn_storage"},{"astId":2964,"contract":"contracts/L1/Vault.sol:Vault","label":"isTrueForCoin","offset":0,"slot":"9","type":"t_mapping(t_address,t_bool)"},{"astId":2966,"contract":"contracts/L1/Vault.sol:Vault","label":"usdt","offset":0,"slot":"10","type":"t_address"},{"astId":7,"contract":"contracts/L1/Vault.sol:Vault","label":"_owner","offset":0,"slot":"11","type":"t_address"},{"astId":120,"contract":"contracts/L1/Vault.sol:Vault","label":"_pendingOwner","offset":0,"slot":"12","type":"t_address"},{"astId":3072,"contract":"contracts/L1/Vault.sol:Vault","label":"trustedRemoteLookup","offset":0,"slot":"13","type":"t_mapping(t_uint16,t_bytes_storage)"},{"astId":3078,"contract":"contracts/L1/Vault.sol:Vault","label":"minDstGasLookup","offset":0,"slot":"14","type":"t_mapping(t_uint16,t_mapping(t_uint16,t_uint256))"},{"astId":3080,"contract":"contracts/L1/Vault.sol:Vault","label":"precrime","offset":0,"slot":"15","type":"t_address"},{"astId":3598,"contract":"contracts/L1/Vault.sol:Vault","label":"failedMessages","offset":0,"slot":"16","type":"t_mapping(t_uint16,t_mapping(t_bytes_memory_ptr,t_mapping(t_uint64,t_bytes32)))"},{"astId":1105,"contract":"contracts/L1/Vault.sol:Vault","label":"interestAmount","offset":0,"slot":"17","type":"t_mapping(t_address,t_uint256)"},{"astId":1109,"contract":"contracts/L1/Vault.sol:Vault","label":"deCoinList","offset":0,"slot":"18","type":"t_mapping(t_address,t_bool)"},{"astId":1113,"contract":"contracts/L1/Vault.sol:Vault","label":"totalFee","offset":0,"slot":"19","type":"t_mapping(t_address,t_uint256)"},{"astId":1117,"contract":"contracts/L1/Vault.sol:Vault","label":"whlieList","offset":0,"slot":"20","type":"t_mapping(t_address,t_bool)"}],"types":{"t_address":{"encoding":"inplace","label":"address","numberOfBytes":"20"},"t_array(t_address)dyn_storage":{"base":"t_address","encoding":"dynamic_array","label":"address[]","numberOfBytes":"32"},"t_bool":{"encoding":"inplace","label":"bool","numberOfBytes":"1"},"t_bytes32":{"encoding":"inplace","label":"bytes32","numberOfBytes":"32"},"t_bytes_memory_ptr":{"encoding":"bytes","label":"bytes","numberOfBytes":"32"},"t_bytes_storage":{"encoding":"bytes","label":"bytes","numberOfBytes":"32"},"t_mapping(t_address,t_bool)":{"encoding":"mapping","key":"t_address","label":"mapping(address => bool)","numberOfBytes":"32","value":"t_bool"},"t_mapping(t_address,t_struct(Account)2908_storage)":{"encoding":"mapping","key":"t_address","label":"mapping(address => struct VaultData.Account)","numberOfBytes":"32","value":"t_struct(Account)2908_storage"},"t_mapping(t_address,t_uint256)":{"encoding":"mapping","key":"t_address","label":"mapping(address => uint256)","numberOfBytes":"32","value":"t_uint256"},"t_mapping(t_bytes32,t_struct(RoleData)2949_storage)":{"encoding":"mapping","key":"t_bytes32","label":"mapping(bytes32 => struct VaultData.RoleData)","numberOfBytes":"32","value":"t_struct(RoleData)2949_storage"},"t_mapping(t_bytes_memory_ptr,t_mapping(t_uint64,t_bytes32))":{"encoding":"mapping","key":"t_bytes_memory_ptr","label":"mapping(bytes => mapping(uint64 => bytes32))","numberOfBytes":"32","value":"t_mapping(t_uint64,t_bytes32)"},"t_mapping(t_uint16,t_bytes_storage)":{"encoding":"mapping","key":"t_uint16","label":"mapping(uint16 => bytes)","numberOfBytes":"32","value":"t_bytes_storage"},"t_mapping(t_uint16,t_mapping(t_bytes_memory_ptr,t_mapping(t_uint64,t_bytes32)))":{"encoding":"mapping","key":"t_uint16","label":"mapping(uint16 => mapping(bytes => mapping(uint64 => bytes32)))","numberOfBytes":"32","value":"t_mapping(t_bytes_memory_ptr,t_mapping(t_uint64,t_bytes32))"},"t_mapping(t_uint16,t_mapping(t_uint16,t_uint256))":{"encoding":"mapping","key":"t_uint16","label":"mapping(uint16 => mapping(uint16 => uint256))","numberOfBytes":"32","value":"t_mapping(t_uint16,t_uint256)"},"t_mapping(t_uint16,t_uint256)":{"encoding":"mapping","key":"t_uint16","label":"mapping(uint16 => uint256)","numberOfBytes":"32","value":"t_uint256"},"t_mapping(t_uint64,t_bytes32)":{"encoding":"mapping","key":"t_uint64","label":"mapping(uint64 => bytes32)","numberOfBytes":"32","value":"t_bytes32"},"t_struct(Account)2908_storage":{"encoding":"inplace","label":"struct VaultData.Account","members":[{"astId":2889,"contract":"contracts/L1/Vault.sol:Vault","label":"user","offset":0,"slot":"0","type":"t_address"},{"astId":2891,"contract":"contracts/L1/Vault.sol:Vault","label":"capitalMerkleRoot","offset":0,"slot":"1","type":"t_bytes32"},{"astId":2895,"contract":"contracts/L1/Vault.sol:Vault","label":"capitalBalance","offset":0,"slot":"2","type":"t_mapping(t_address,t_uint256)"},{"astId":2897,"contract":"contracts/L1/Vault.sol:Vault","label":"capitalNonce","offset":0,"slot":"3","type":"t_uint256"},{"astId":2899,"contract":"contracts/L1/Vault.sol:Vault","label":"tradingMerkleRoot","offset":0,"slot":"4","type":"t_bytes32"},{"astId":2903,"contract":"contracts/L1/Vault.sol:Vault","label":"tradingBalance","offset":0,"slot":"5","type":"t_mapping(t_address,t_uint256)"},{"astId":2905,"contract":"contracts/L1/Vault.sol:Vault","label":"tradingNonce","offset":0,"slot":"6","type":"t_uint256"},{"astId":2907,"contract":"contracts/L1/Vault.sol:Vault","label":"nativeFee","offset":0,"slot":"7","type":"t_uint256"}],"numberOfBytes":"256"},"t_struct(RoleData)2949_storage":{"encoding":"inplace","label":"struct VaultData.RoleData","members":[{"astId":2946,"contract":"contracts/L1/Vault.sol:Vault","label":"members","offset":0,"slot":"0","type":"t_mapping(t_address,t_bool)"},{"astId":2948,"contract":"contracts/L1/Vault.sol:Vault","label":"adminRole","offset":0,"slot":"1","type":"t_bytes32"}],"numberOfBytes":"64"},"t_uint16":{"encoding":"inplace","label":"uint16","numberOfBytes":"2"},"t_uint256":{"encoding":"inplace","label":"uint256","numberOfBytes":"32"},"t_uint64":{"encoding":"inplace","label":"uint64","numberOfBytes":"8"}}},"userdoc":{"kind":"user","methods":{},"version":1}}}}