{"contracts/L1/Vault.sol":{"Vault":{"abi":[{"inputs":[{"internalType":"address","name":"lendingPool_","type":"address"},{"internalType":"address","name":"lzEndpoint_","type":"address"},{"internalType":"uint16","name":"dstChainId_","type":"uint16"},{"internalType":"address","name":"usdt_","type":"address"}],"stateMutability":"nonpayable","type":"constructor"},{"anonymous":false,"inputs":[{"indexed":false,"internalType":"uint16","name":"_srcChainId","type":"uint16"},{"indexed":false,"internalType":"bytes","name":"_srcAddress","type":"bytes"},{"indexed":false,"internalType":"uint64","name":"_nonce","type":"uint64"},{"indexed":false,"internalType":"bytes","name":"_payload","type":"bytes"},{"indexed":false,"internalType":"bytes","name":"_reason","type":"bytes"}],"name":"MessageFailed","type":"event"},{"anonymous":false,"inputs":[{"indexed":true,"internalType":"address","name":"previousOwner","type":"address"},{"indexed":true,"internalType":"address","name":"newOwner","type":"address"}],"name":"OwnershipTransferStarted","type":"event"},{"anonymous":false,"inputs":[{"indexed":true,"internalType":"address","name":"previousOwner","type":"address"},{"indexed":true,"internalType":"address","name":"newOwner","type":"address"}],"name":"OwnershipTransferred","type":"event"},{"anonymous":false,"inputs":[{"indexed":false,"internalType":"uint16","name":"_srcChainId","type":"uint16"},{"indexed":false,"internalType":"bytes","name":"_srcAddress","type":"bytes"},{"indexed":false,"internalType":"uint64","name":"_nonce","type":"uint64"},{"indexed":false,"internalType":"bytes32","name":"_payloadHash","type":"bytes32"}],"name":"RetryMessageSuccess","type":"event"},{"anonymous":false,"inputs":[{"indexed":false,"internalType":"uint16","name":"_dstChainId","type":"uint16"},{"indexed":false,"internalType":"uint16","name":"_type","type":"uint16"},{"indexed":false,"internalType":"uint256","name":"_minDstGas","type":"uint256"}],"name":"SetMinDstGas","type":"event"},{"anonymous":false,"inputs":[{"indexed":false,"internalType":"address","name":"precrime","type":"address"}],"name":"SetPrecrime","type":"event"},{"anonymous":false,"inputs":[{"indexed":false,"internalType":"uint16","name":"_remoteChainId","type":"uint16"},{"indexed":false,"internalType":"bytes","name":"_path","type":"bytes"}],"name":"SetTrustedRemote","type":"event"},{"anonymous":false,"inputs":[{"indexed":false,"internalType":"uint16","name":"_remoteChainId","type":"uint16"},{"indexed":false,"internalType":"bytes","name":"_remoteAddress","type":"bytes"}],"name":"SetTrustedRemoteAddress","type":"event"},{"anonymous":false,"inputs":[{"indexed":false,"internalType":"address","name":"user_","type":"address"},{"indexed":false,"internalType":"address","name":"coin_","type":"address"},{"indexed":false,"internalType":"uint256","name":"interest_","type":"uint256"}],"name":"eventCheckOutInterest","type":"event"},{"anonymous":false,"inputs":[{"indexed":false,"internalType":"address","name":"type_","type":"address"},{"indexed":false,"internalType":"uint256","name":"amount_","type":"uint256"},{"indexed":false,"internalType":"address","name":"sender_","type":"address"}],"name":"eventDeposit","type":"event"},{"anonymous":false,"inputs":[{"indexed":false,"internalType":"uint256","name":"amount_","type":"uint256"},{"indexed":false,"internalType":"address","name":"sender_","type":"address"}],"name":"eventDepositETH","type":"event"},{"anonymous":false,"inputs":[{"indexed":false,"internalType":"address","name":"user","type":"address"},{"indexed":false,"internalType":"address[]","name":"coinAdd_","type":"address[]"},{"indexed":false,"internalType":"uint256[]","name":"capitalValues_","type":"uint256[]"},{"indexed":false,"internalType":"uint8","name":"checkOutType","type":"uint8"}],"name":"eventReceive","type":"event"},{"anonymous":false,"inputs":[{"indexed":false,"internalType":"address[]","name":"type_","type":"address[]"},{"indexed":false,"internalType":"uint256[]","name":"amount_","type":"uint256[]"},{"indexed":false,"internalType":"address","name":"sender_","type":"address"}],"name":"eventWithdraw","type":"event"},{"anonymous":false,"inputs":[{"indexed":false,"internalType":"address","name":"user","type":"address"},{"indexed":false,"internalType":"address","name":"coinType","type":"address"},{"indexed":false,"internalType":"uint256","name":"interestBalance","type":"uint256"}],"name":"eventWithdrawInterest","type":"event"},{"inputs":[],"name":"DEFAULT_ADMIN_ROLE","outputs":[{"internalType":"bytes32","name":"","type":"bytes32"}],"stateMutability":"view","type":"function"},{"inputs":[],"name":"NODE_ROLE","outputs":[{"internalType":"bytes32","name":"","type":"bytes32"}],"stateMutability":"view","type":"function"},{"inputs":[],"name":"OWENER_ROLE","outputs":[{"internalType":"bytes32","name":"","type":"bytes32"}],"stateMutability":"view","type":"function"},{"inputs":[{"internalType":"bytes32","name":"","type":"bytes32"}],"name":"_roles","outputs":[{"internalType":"bytes32","name":"adminRole","type":"bytes32"}],"stateMutability":"view","type":"function"},{"inputs":[],"name":"aave","outputs":[{"internalType":"address","name":"","type":"address"}],"stateMutability":"view","type":"function"},{"inputs":[],"name":"acceptOwnership","outputs":[],"stateMutability":"nonpayable","type":"function"},{"inputs":[{"internalType":"address","name":"","type":"address"}],"name":"accounts","outputs":[{"internalType":"address","name":"user","type":"address"},{"internalType":"bytes32","name":"capitalMerkleRoot","type":"bytes32"},{"internalType":"uint256","name":"capitalNonce","type":"uint256"},{"internalType":"bytes32","name":"tradingMerkleRoot","type":"bytes32"},{"internalType":"uint256","name":"tradingNonce","type":"uint256"},{"internalType":"uint256","name":"nativeFee","type":"uint256"}],"stateMutability":"view","type":"function"},{"inputs":[],"name":"adapterParams","outputs":[{"internalType":"bytes","name":"","type":"bytes"}],"stateMutability":"view","type":"function"},{"inputs":[{"internalType":"address","name":"","type":"address"}],"name":"deCoinList","outputs":[{"internalType":"bool","name":"","type":"bool"}],"stateMutability":"view","type":"function"},{"inputs":[{"internalType":"address","name":"type_","type":"address"},{"internalType":"uint256","name":"amount_","type":"uint256"}],"name":"deposit","outputs":[],"stateMutability":"payable","type":"function"},{"inputs":[{"internalType":"uint256","name":"amount_","type":"uint256"}],"name":"depositETH","outputs":[],"stateMutability":"payable","type":"function"},{"inputs":[],"name":"dstChainId","outputs":[{"internalType":"uint16","name":"","type":"uint16"}],"stateMutability":"view","type":"function"},{"inputs":[{"internalType":"address","name":"user_","type":"address"}],"name":"estimateFee","outputs":[{"internalType":"uint256","name":"nativeFee","type":"uint256"},{"internalType":"uint256","name":"zroFee","type":"uint256"}],"stateMutability":"view","type":"function"},{"inputs":[{"internalType":"uint16","name":"","type":"uint16"},{"internalType":"bytes","name":"","type":"bytes"},{"internalType":"uint64","name":"","type":"uint64"}],"name":"failedMessages","outputs":[{"internalType":"bytes32","name":"","type":"bytes32"}],"stateMutability":"view","type":"function"},{"inputs":[{"internalType":"uint16","name":"_srcChainId","type":"uint16"},{"internalType":"bytes","name":"_srcAddress","type":"bytes"}],"name":"forceResumeReceive","outputs":[],"stateMutability":"nonpayable","type":"function"},{"inputs":[{"internalType":"address","name":"add_","type":"address"}],"name":"getATokenWithToken","outputs":[{"internalType":"address","name":"","type":"address"}],"stateMutability":"view","type":"function"},{"inputs":[{"internalType":"address","name":"address_","type":"address"}],"name":"getBalance","outputs":[{"internalType":"address","name":"","type":"address"},{"internalType":"bytes32","name":"","type":"bytes32"},{"internalType":"address[]","name":"","type":"address[]"},{"internalType":"uint256[]","name":"","type":"uint256[]"},{"internalType":"uint256","name":"","type":"uint256"}],"stateMutability":"view","type":"function"},{"inputs":[{"internalType":"address","name":"type_","type":"address"},{"internalType":"address","name":"fromAdd_","type":"address"}],"name":"getBalanceFromAAVE","outputs":[{"internalType":"uint256","name":"","type":"uint256"}],"stateMutability":"view","type":"function"},{"inputs":[{"internalType":"uint16","name":"_version","type":"uint16"},{"internalType":"uint16","name":"_chainId","type":"uint16"},{"internalType":"address","name":"","type":"address"},{"internalType":"uint256","name":"_configType","type":"uint256"}],"name":"getConfig","outputs":[{"internalType":"bytes","name":"","type":"bytes"}],"stateMutability":"view","type":"function"},{"inputs":[{"internalType":"address","name":"user_","type":"address"}],"name":"getInterest","outputs":[{"internalType":"uint256","name":"","type":"uint256"}],"stateMutability":"view","type":"function"},{"inputs":[{"internalType":"address","name":"user_","type":"address"}],"name":"getNativeFee","outputs":[{"internalType":"uint256","name":"","type":"uint256"}],"stateMutability":"view","type":"function"},{"inputs":[{"internalType":"uint16","name":"remoteChainId","type":"uint16"}],"name":"getOracle","outputs":[{"internalType":"address","name":"_oracle","type":"address"}],"stateMutability":"view","type":"function"},{"inputs":[{"internalType":"address","name":"user_","type":"address"}],"name":"getSize","outputs":[{"internalType":"bytes","name":"encoded","type":"bytes"}],"stateMutability":"view","type":"function"},{"inputs":[{"internalType":"address","name":"asset","type":"address"}],"name":"getTotalValue","outputs":[{"internalType":"uint256","name":"currentATokenBalance","type":"uint256"}],"stateMutability":"view","type":"function"},{"inputs":[{"internalType":"uint16","name":"_remoteChainId","type":"uint16"}],"name":"getTrustedRemoteAddress","outputs":[{"internalType":"bytes","name":"","type":"bytes"}],"stateMutability":"view","type":"function"},{"inputs":[{"internalType":"address","name":"asset","type":"address"},{"internalType":"address","name":"user","type":"address"}],"name":"getUserReserveData","outputs":[{"internalType":"uint256","name":"currentATokenBalance","type":"uint256"},{"internalType":"uint256","name":"currentStableDebt","type":"uint256"},{"internalType":"uint256","name":"currentVariableDebt","type":"uint256"},{"internalType":"uint256","name":"principalStableDebt","type":"uint256"},{"internalType":"uint256","name":"scaledVariableDebt","type":"uint256"},{"internalType":"uint256","name":"stableBorrowRate","type":"uint256"},{"internalType":"uint256","name":"liquidityRate","type":"uint256"},{"internalType":"uint40","name":"stableRateLastUpdated","type":"uint40"}],"stateMutability":"view","type":"function"},{"inputs":[{"internalType":"bytes32","name":"role","type":"bytes32"},{"internalType":"address","name":"account","type":"address"}],"name":"hasRole","outputs":[{"internalType":"bool","name":"","type":"bool"}],"stateMutability":"view","type":"function"},{"inputs":[{"internalType":"uint16","name":"_srcChainId","type":"uint16"},{"internalType":"bytes","name":"_srcAddress","type":"bytes"}],"name":"hasStoredPayload","outputs":[],"stateMutability":"nonpayable","type":"function"},{"inputs":[{"internalType":"bytes32","name":"message","type":"bytes32"}],"name":"hashMessage","outputs":[{"internalType":"bytes32","name":"messageHash","type":"bytes32"}],"stateMutability":"pure","type":"function"},{"inputs":[],"name":"interest","outputs":[{"internalType":"address","name":"","type":"address"}],"stateMutability":"view","type":"function"},{"inputs":[{"internalType":"address","name":"","type":"address"}],"name":"interestAmount","outputs":[{"internalType":"uint256","name":"","type":"uint256"}],"stateMutability":"view","type":"function"},{"inputs":[],"name":"isOpen","outputs":[{"internalType":"bool","name":"","type":"bool"}],"stateMutability":"view","type":"function"},{"inputs":[{"internalType":"address","name":"","type":"address"}],"name":"isSupDe","outputs":[{"internalType":"bool","name":"","type":"bool"}],"stateMutability":"view","type":"function"},{"inputs":[{"internalType":"address","name":"","type":"address"}],"name":"isTrueForCoin","outputs":[{"internalType":"bool","name":"","type":"bool"}],"stateMutability":"view","type":"function"},{"inputs":[{"internalType":"uint16","name":"_srcChainId","type":"uint16"},{"internalType":"bytes","name":"_srcAddress","type":"bytes"}],"name":"isTrustedRemote","outputs":[{"internalType":"bool","name":"","type":"bool"}],"stateMutability":"view","type":"function"},{"inputs":[],"name":"lzEndpoint","outputs":[{"internalType":"contract ILayerZeroEndpoint","name":"","type":"address"}],"stateMutability":"view","type":"function"},{"inputs":[{"internalType":"uint16","name":"_srcChainId","type":"uint16"},{"internalType":"bytes","name":"_srcAddress","type":"bytes"},{"internalType":"uint64","name":"_nonce","type":"uint64"},{"internalType":"bytes","name":"_payload","type":"bytes"}],"name":"lzReceive","outputs":[],"stateMutability":"nonpayable","type":"function"},{"inputs":[{"internalType":"uint16","name":"","type":"uint16"},{"internalType":"uint16","name":"","type":"uint16"}],"name":"minDstGasLookup","outputs":[{"internalType":"uint256","name":"","type":"uint256"}],"stateMutability":"view","type":"function"},{"inputs":[{"internalType":"uint16","name":"_srcChainId","type":"uint16"},{"internalType":"bytes","name":"_srcAddress","type":"bytes"},{"internalType":"uint64","name":"_nonce","type":"uint64"},{"internalType":"bytes","name":"_payload","type":"bytes"}],"name":"nonblockingLzReceive","outputs":[],"stateMutability":"nonpayable","type":"function"},{"inputs":[],"name":"owner","outputs":[{"internalType":"address","name":"","type":"address"}],"stateMutability":"view","type":"function"},{"inputs":[],"name":"pendingOwner","outputs":[{"internalType":"address","name":"","type":"address"}],"stateMutability":"view","type":"function"},{"inputs":[],"name":"precrime","outputs":[{"internalType":"address","name":"","type":"address"}],"stateMutability":"view","type":"function"},{"inputs":[],"name":"renounceOwnership","outputs":[],"stateMutability":"nonpayable","type":"function"},{"inputs":[{"internalType":"uint16","name":"_srcChainId","type":"uint16"},{"internalType":"bytes","name":"_srcAddress","type":"bytes"},{"internalType":"uint64","name":"_nonce","type":"uint64"},{"internalType":"bytes","name":"_payload","type":"bytes"}],"name":"retryMessage","outputs":[],"stateMutability":"payable","type":"function"},{"inputs":[{"internalType":"uint16","name":"_srcChainId","type":"uint16"},{"internalType":"bytes","name":"_srcAddress","type":"bytes"},{"internalType":"bytes","name":"_payload","type":"bytes"}],"name":"retryPayload","outputs":[],"stateMutability":"nonpayable","type":"function"},{"inputs":[{"internalType":"uint16","name":"version","type":"uint16"},{"internalType":"uint256","name":"gasForDestinationLzReceive","type":"uint256"}],"name":"setAdapterParams","outputs":[],"stateMutability":"nonpayable","type":"function"},{"inputs":[{"internalType":"uint16","name":"_version","type":"uint16"},{"internalType":"uint16","name":"_chainId","type":"uint16"},{"internalType":"uint256","name":"_configType","type":"uint256"},{"internalType":"bytes","name":"_config","type":"bytes"}],"name":"setConfig","outputs":[],"stateMutability":"nonpayable","type":"function"},{"inputs":[{"internalType":"address[]","name":"coin_","type":"address[]"},{"internalType":"bool","name":"re_","type":"bool"}],"name":"setDeCoinList","outputs":[],"stateMutability":"nonpayable","type":"function"},{"inputs":[{"internalType":"bool","name":"re_","type":"bool"}],"name":"setIsOpen","outputs":[],"stateMutability":"nonpayable","type":"function"},{"inputs":[{"internalType":"uint16","name":"_dstChainId","type":"uint16"},{"internalType":"uint16","name":"_packetType","type":"uint16"},{"internalType":"uint256","name":"_minGas","type":"uint256"}],"name":"setMinDstGas","outputs":[],"stateMutability":"nonpayable","type":"function"},{"inputs":[{"internalType":"uint16","name":"dstChainId","type":"uint16"},{"internalType":"address","name":"oracle","type":"address"}],"name":"setOracle","outputs":[],"stateMutability":"nonpayable","type":"function"},{"inputs":[{"internalType":"address","name":"_precrime","type":"address"}],"name":"setPrecrime","outputs":[],"stateMutability":"nonpayable","type":"function"},{"inputs":[{"internalType":"uint16","name":"_version","type":"uint16"}],"name":"setReceiveVersion","outputs":[],"stateMutability":"nonpayable","type":"function"},{"inputs":[{"internalType":"uint16","name":"_version","type":"uint16"}],"name":"setSendVersion","outputs":[],"stateMutability":"nonpayable","type":"function"},{"inputs":[{"internalType":"address","name":"add_","type":"address"},{"internalType":"bool","name":"re","type":"bool"}],"name":"setSupDe","outputs":[],"stateMutability":"nonpayable","type":"function"},{"inputs":[{"internalType":"uint16","name":"_srcChainId","type":"uint16"},{"internalType":"bytes","name":"_path","type":"bytes"}],"name":"setTrustedRemote","outputs":[],"stateMutability":"nonpayable","type":"function"},{"inputs":[{"internalType":"uint16","name":"_remoteChainId","type":"uint16"},{"internalType":"bytes","name":"_remoteAddress","type":"bytes"}],"name":"setTrustedRemoteAddress","outputs":[],"stateMutability":"nonpayable","type":"function"},{"inputs":[{"internalType":"address","name":"add","type":"address"}],"name":"setWhilLlist","outputs":[],"stateMutability":"nonpayable","type":"function"},{"inputs":[{"internalType":"address","name":"newOwner","type":"address"}],"name":"transferOwnership","outputs":[],"stateMutability":"nonpayable","type":"function"},{"inputs":[{"internalType":"uint16","name":"","type":"uint16"}],"name":"trustedRemoteLookup","outputs":[{"internalType":"bytes","name":"","type":"bytes"}],"stateMutability":"view","type":"function"},{"inputs":[],"name":"usdt","outputs":[{"internalType":"address","name":"","type":"address"}],"stateMutability":"view","type":"function"},{"inputs":[{"internalType":"bytes32","name":"messageHash","type":"bytes32"},{"internalType":"bytes","name":"signature","type":"bytes"}],"name":"verifyEcrecover","outputs":[{"internalType":"address","name":"recoveredAddress","type":"address"}],"stateMutability":"pure","type":"function"},{"inputs":[{"internalType":"uint256[]","name":"amount_","type":"uint256[]"},{"internalType":"address[]","name":"coinType_","type":"address[]"}],"name":"withdraw","outputs":[],"stateMutability":"nonpayable","type":"function"},{"inputs":[{"internalType":"uint256","name":"amount_","type":"uint256"},{"internalType":"address","name":"coinType_","type":"address"}],"name":"withdrawInterest","outputs":[],"stateMutability":"nonpayable","type":"function"},{"inputs":[{"internalType":"uint256","name":"amount_","type":"uint256"},{"internalType":"address","name":"coinType_","type":"address"}],"name":"withdrawTest","outputs":[],"stateMutability":"nonpayable","type":"function"}],"devdoc":{"kind":"dev","methods":{"acceptOwnership()":{"details":"The new owner accepts the ownership transfer."},"owner()":{"details":"Returns the address of the current owner."},"pendingOwner()":{"details":"Returns the address of the pending owner."},"renounceOwnership()":{"details":"Leaves the contract without owner. It will not be possible to call `onlyOwner` functions anymore. Can only be called by the current owner. NOTE: Renouncing ownership will leave the contract without an owner, thereby removing any functionality that is only available to the owner."},"transferOwnership(address)":{"details":"Starts the ownership transfer of the contract to a new account. Replaces the pending transfer if there is one. Can only be called by the current owner."}},"version":1},"evm":{"bytecode":{"linkReferences":{},"object":"60a06040523480156200001157600080fd5b50604051620059783803806200597883398101604081905262000034916200013b565b82806200004133620000a2565b6001600160a01b03908116608052600180546001600160a01b03199081169783169790971781556000805461ffff191661ffff96909616959095179094556006805460ff191690941790935550600a805490941691161790915550620001a0565b600c80546001600160a01b0319169055620000c981620000cc602090811b6200340e17901c565b50565b600b80546001600160a01b038381166001600160a01b0319831681179093556040519116919082907f8be0079c531659141344cd1fd0a4f28419497f9722a3daafe3b4186f6b6457e090600090a35050565b80516001600160a01b03811681146200013657600080fd5b919050565b600080600080608085870312156200015257600080fd5b6200015d856200011e565b93506200016d602086016200011e565b9250604085015161ffff811681146200018557600080fd5b915062000195606086016200011e565b905092959194509250565b6080516157616200021760003960008181610a4201528181610cb501528181610f81015281816110a90152818161114a01528181611c0001528181612150015281816123e3015281816129f801528181612bca01528181612ef401528181612f230152818161310a0152613fca01526157616000f3fe6080604052600436106102dd5760003560e01c80621d3567146102e2578063021b9359146103045780630707a0f01461033a57806307e0db1714610381578063083118d5146103a1578063085a10cf146103c35780630eaf6ea6146103e357806310ddb137146104035780631210aac2146104235780631371e2e11461044357806316e576521461046357806319fc2e611461048357806328dd2d01146104b757806329e26b10146105195780632f48ab7d1461055957806330c593f7146105795780633d8b38f6146105a757806342d65a8d146105c757806347535d7b146105e757806347e7ef24146106015780634893c26a14610614578063492e527e14610644578063504f1671146106645780635358fbda1461068457806357463d35146106975780635b8c41e6146106cc5780635e5c06e21461071b57806366ad5c8a146107ae57806368637549146107ce5780636d1daa28146107ee578063715018a61461080e5780637533d7881461082357806379ba5097146108435780637aaa347014610858578063806b834d1461088e578063819faf7b146108ae5780638cfd8f5c146108ce5780638da5cb5b1461090657806391d148541461091b578063950c8a741461093b5780639f38369a1461095b578063a217fddf1461097b578063a304dcf414610990578063a4ca74db146109b0578063a6c3d165146109d0578063aaff5f16146109f0578063b273f20714610a10578063b353aaa714610a30578063b3cb890f14610a64578063baf3292d14610a84578063bd99d7e114610aa4578063c392f76614610ad4578063c779c1c314610afa578063cbed8b9c14610b27578063d1deba1f14610b47578063df2a5b3b14610b5a578063e251e96d14610b7a578063e2f2882414610b9a578063e30c397814610bba578063eb8d72b714610bcf578063f2fde38b14610bef578063f5ecbdbc14610c0f578063f8b2cb4f14610c2f578063fb89573314610c60578063ff464d3f14610c82575b600080fd5b3480156102ee57600080fd5b506103026102fd366004614183565b610cb2565b005b34801561031057600080fd5b5061032461031f36600461422d565b610ee3565b604051610331919061424a565b60405180910390f35b34801561034657600080fd5b5061037361035536600461422d565b6001600160a01b031660009081526003602052604090206007015490565b604051908152602001610331565b34801561038d57600080fd5b5061030261039c36600461425e565b610f60565b3480156103ad57600080fd5b506103b6610fe9565b60405161033191906142cb565b3480156103cf57600080fd5b506103026103de3660046142ec565b611077565b3480156103ef57600080fd5b506103026103fe366004614309565b611092565b34801561040f57600080fd5b5061030261041e36600461425e565b611129565b34801561042f57600080fd5b5061030261043e36600461435d565b611181565b34801561044f57600080fd5b5061030261045e36600461435d565b6112d3565b34801561046f57600080fd5b5061030261047e3660046144b6565b61140b565b34801561048f57600080fd5b506103737f52941335797217779ab62cf10a3ae2b6d453b5f3a1285e7a816eb9f63a58d66981565b3480156104c357600080fd5b506104d76104d236600461456e565b611741565b604080519889526020890197909752958701949094526060860192909252608085015260a084015260c083015264ffffffffff1660e082015261010001610331565b34801561052557600080fd5b5061054961053436600461422d565b60126020526000908152604090205460ff1681565b6040519015158152602001610331565b34801561056557600080fd5b50600a54610324906001600160a01b031681565b34801561058557600080fd5b506000546105949061ffff1681565b60405161ffff9091168152602001610331565b3480156105b357600080fd5b506105496105c2366004614309565b611b15565b3480156105d357600080fd5b506103026105e2366004614309565b611be1565b3480156105f357600080fd5b506006546105499060ff1681565b61030261060f36600461459c565b611c67565b34801561062057600080fd5b5061054961062f36600461422d565b60096020526000908152604090205460ff1681565b34801561065057600080fd5b5061030261065f3660046145c8565b61212e565b34801561067057600080fd5b506103b661067f36600461422d565b61220f565b6103026106923660046145e6565b6122a3565b3480156106a357600080fd5b506106b76106b236600461422d565b6123cf565b60408051928352602083019190915201610331565b3480156106d857600080fd5b506103736106e7366004614677565b6010602090815260009384526040808520845180860184018051928152908401958401959095209452929052825290205481565b34801561072757600080fd5b5061077761073636600461422d565b60036020819052600091825260409091208054600182015492820154600483015460068401546007909401546001600160a01b039093169493919290919086565b604080516001600160a01b0390971687526020870195909552938501929092526060840152608083015260a082015260c001610331565b3480156107ba57600080fd5b506103026107c9366004614183565b612488565b3480156107da57600080fd5b506103736107e936600461422d565b612564565b3480156107fa57600080fd5b506103026108093660046146d6565b612656565b34801561081a57600080fd5b5061030261269c565b34801561082f57600080fd5b506103b661083e36600461425e565b6126b0565b34801561084f57600080fd5b506103026126c9565b34801561086457600080fd5b5061037361087336600461422d565b6001600160a01b031660009081526011602052604090205490565b34801561089a57600080fd5b506103736108a936600461456e565b612747565b3480156108ba57600080fd5b50600154610324906001600160a01b031681565b3480156108da57600080fd5b506103736108e93660046146f4565b600e60209081526000928352604080842090915290825290205481565b34801561091257600080fd5b5061032461277a565b34801561092757600080fd5b5061054961093636600461435d565b612789565b34801561094757600080fd5b50600f54610324906001600160a01b031681565b34801561096757600080fd5b506103b661097636600461425e565b6127b4565b34801561098757600080fd5b50610373600081565b34801561099c57600080fd5b506103026109ab366004614722565b6128c3565b3480156109bc57600080fd5b506103026109cb366004614750565b6128f6565b3480156109dc57600080fd5b506103026109eb366004614309565b612965565b3480156109fc57600080fd5b50610302610a0b366004614796565b6129e1565b348015610a1c57600080fd5b50610324610a2b366004614818565b612a6e565b348015610a3c57600080fd5b506103247f000000000000000000000000000000000000000000000000000000000000000081565b348015610a7057600080fd5b50610373610a7f3660046145e6565b612afb565b348015610a9057600080fd5b50610302610a9f36600461422d565b612b4d565b348015610ab057600080fd5b50610373610abf3660046145e6565b60076020526000908152604090206001015481565b348015610ae057600080fd5b50600054610324906201000090046001600160a01b031681565b348015610b0657600080fd5b50610373610b1536600461422d565b60116020526000908152604090205481565b348015610b3357600080fd5b50610302610b42366004614854565b612bab565b610302610b55366004614183565b612c07565b348015610b6657600080fd5b50610302610b753660046148b5565b612e1d565b348015610b8657600080fd5b50610302610b9536600461422d565b612ecf565b348015610ba657600080fd5b50610324610bb536600461425e565b612eef565b348015610bc657600080fd5b50610324613021565b348015610bdb57600080fd5b50610302610bea366004614309565b613030565b348015610bfb57600080fd5b50610302610c0a36600461422d565b61308a565b348015610c1b57600080fd5b506103b6610c2a3660046148f6565b6130f0565b348015610c3b57600080fd5b50610c4f610c4a36600461422d565b613193565b6040516103319594939291906149bb565b348015610c6c57600080fd5b5061037360008051602061570c83398151915281565b348015610c8e57600080fd5b50610549610c9d36600461422d565b60046020526000908152604090205460ff1681565b337f00000000000000000000000000000000000000000000000000000000000000006001600160a01b031614610d2f5760405162461bcd60e51b815260206004820152601e60248201527f4c7a4170703a20696e76616c696420656e64706f696e742063616c6c6572000060448201526064015b60405180910390fd5b61ffff86166000908152600d602052604081208054610d4d90614a07565b80601f0160208091040260200160405190810160405280929190818152602001828054610d7990614a07565b8015610dc65780601f10610d9b57610100808354040283529160200191610dc6565b820191906000526020600020905b815481529060010190602001808311610da957829003601f168201915b50505050509050805186869050148015610de1575060008151115b8015610e09575080516020820120604051610dff9088908890614a41565b6040518091039020145b610e645760405162461bcd60e51b815260206004820152602660248201527f4c7a4170703a20696e76616c696420736f757263652073656e64696e6720636f6044820152651b9d1c9858dd60d21b6064820152608401610d26565b610eda8787878080601f01602080910402602001604051908101604052809392919081815260200183838082843760009201919091525050604080516020601f8a018190048102820181019092528881528a93509150889088908190840183828082843760009201919091525061346092505050565b50505050505050565b6001546040516335ea6a7560e01b81526000916001600160a01b0316906335ea6a7590610f1490859060040161424a565b61018060405180830381865afa158015610f32573d6000803e3d6000fd5b505050506040513d601f19601f82011682018060405250810190610f569190614ada565b60e0015192915050565b610f686134d9565b6040516307e0db1760e01b815261ffff821660048201527f00000000000000000000000000000000000000000000000000000000000000006001600160a01b0316906307e0db17906024015b600060405180830381600087803b158015610fce57600080fd5b505af1158015610fe2573d6000803e3d6000fd5b5050505050565b60028054610ff690614a07565b80601f016020809104026020016040519081016040528092919081815260200182805461102290614a07565b801561106f5780601f106110445761010080835404028352916020019161106f565b820191906000526020600020905b81548152906001019060200180831161105257829003601f168201915b505050505081565b61107f6134d9565b6006805460ff1916911515919091179055565b604051630757b75360e11b81526001600160a01b037f00000000000000000000000000000000000000000000000000000000000000001690630eaf6ea6906110e290869086908690600401614bf0565b602060405180830381865afa1580156110ff573d6000803e3d6000fd5b505050506040513d601f19601f820116820180604052508101906111239190614c19565b50505050565b6111316134d9565b6040516310ddb13760e01b815261ffff821660048201527f00000000000000000000000000000000000000000000000000000000000000006001600160a01b0316906310ddb13790602401610fb4565b60065460ff1615156001146111a85760405162461bcd60e51b8152600401610d2690614c36565b336000908152601160205260409020548211156111fe5760405162461bcd60e51b81526020600482015260146024820152734e6f742073756666696369656e742066756e647360601b6044820152606401610d26565b336000908152601160205260408120805484929061121d908490614c6d565b909155505060405163a9059cbb60e01b81526001600160a01b0382169063a9059cbb906112509033908690600401614c80565b6020604051808303816000875af115801561126f573d6000803e3d6000fd5b505050506040513d601f19601f820116820180604052508101906112939190614c19565b507fbb992170d0382feeb939a59875390a636bd942134e6e58925caf64c99432820a3382846040516112c793929190614c99565b60405180910390a15050565b6001600160a01b03811661131357604051339083156108fc029084906000818181858888f1935050505015801561130e573d6000803e3d6000fd5b505050565b6001600160a01b03811660009081526004602052604090205460ff161515600103611345576000611123828433613538565b60405163095ea7b360e01b81526001600160a01b0382169063095ea7b3906113739033908690600401614c80565b6020604051808303816000875af1158015611392573d6000803e3d6000fd5b505050506040513d601f19601f820116820180604052508101906113b69190614c19565b5060405163a9059cbb60e01b81526000906001600160a01b0383169063a9059cbb906113e89085908790600401614c80565b6020604051808303816000875af11580156110ff573d6000803e3d6000fd5b5050565b60065460ff1615156001146114325760405162461bcd60e51b8152600401610d2690614c36565b33600090815260036020526040902081518351146114835760405162461bcd60e51b815260206004820152600e60248201526d082e4e4c2f240dad2e6dac2e8c6d60931b6044820152606401610d26565b60005b83518110156117005760008260020160008584815181106114a9576114a9614cbd565b60200260200101516001600160a01b03166001600160a01b031681526020019081526020016000205490508482815181106114e6576114e6614cbd565b602002602001015181101561150d5760405162461bcd60e51b8152600401610d2690614cd3565b84828151811061151f5761151f614cbd565b602002602001015183600201600086858151811061153f5761153f614cbd565b60200260200101516001600160a01b03166001600160a01b0316815260200190815260200160002060008282546115769190614c6d565b9091555050835160009085908490811061159257611592614cbd565b60200260200101516001600160a01b03160361160057336001600160a01b03166108fc8684815181106115c7576115c7614cbd565b60200260200101519081150290604051600060405180830381858888f193505050501580156115fa573d6000803e3d6000fd5b506116ed565b600084838151811061161457611614614cbd565b60200260200101516001600160a01b031663a9059cbb3388868151811061163d5761163d614cbd565b60200260200101516040518363ffffffff1660e01b8152600401611662929190614c80565b6020604051808303816000875af1158015611681573d6000803e3d6000fd5b505050506040513d601f19601f820116820180604052508101906116a59190614c19565b90506001811515146116eb5760405162461bcd60e51b815260206004820152600f60248201526e15da5d1a191c985dc819985a5b1959608a1b6044820152606401610d26565b505b50806116f881614d01565b915050611486565b507fd4de851ae1bdf4ea540c1d68657b95bdc9710e532c03bf807c1a7107d238706b82843360405161173493929190614d1a565b60405180910390a1505050565b6001546040516335ea6a7560e01b8152600091829182918291829182918291829182916001600160a01b0316906335ea6a7590611782908e9060040161424a565b61018060405180830381865afa1580156117a0573d6000803e3d6000fd5b505050506040513d601f19601f820116820180604052508101906117c49190614ada565b60e08101516040516370a0823160e01b81529192506001600160a01b0316906370a08231906117f7908d9060040161424a565b602060405180830381865afa158015611814573d6000803e3d6000fd5b505050506040513d601f19601f820116820180604052508101906118389190614d58565b6101208201516040516370a0823160e01b8152919a506001600160a01b0316906370a082319061186c908d9060040161424a565b602060405180830381865afa158015611889573d6000803e3d6000fd5b505050506040513d601f19601f820116820180604052508101906118ad9190614d58565b6101008201516040516370a0823160e01b81529198506001600160a01b0316906370a08231906118e1908d9060040161424a565b602060405180830381865afa1580156118fe573d6000803e3d6000fd5b505050506040513d601f19601f820116820180604052508101906119229190614d58565b61010082015160405163631a6fd560e11b81529199506001600160a01b03169063c634dfaa90611956908d9060040161424a565b602060405180830381865afa158015611973573d6000803e3d6000fd5b505050506040513d601f19601f820116820180604052508101906119979190614d58565b610120820151604051630ed1279f60e11b81529197506001600160a01b031690631da24f3e906119cb908d9060040161424a565b602060405180830381865afa1580156119e8573d6000803e3d6000fd5b505050506040513d601f19601f82011682018060405250810190611a0c9190614d58565b945080606001516001600160801b031692508061010001516001600160a01b031663e78c9b3b8b6040518263ffffffff1660e01b8152600401611a4f919061424a565b602060405180830381865afa158015611a6c573d6000803e3d6000fd5b505050506040513d601f19601f82011682018060405250810190611a909190614d58565b610100820151604051631e739ae360e21b81529195506001600160a01b0316906379ce6b8c90611ac4908d9060040161424a565b602060405180830381865afa158015611ae1573d6000803e3d6000fd5b505050506040513d601f19601f82011682018060405250810190611b059190614d71565b9150509295985092959890939650565b61ffff83166000908152600d602052604081208054829190611b3690614a07565b80601f0160208091040260200160405190810160405280929190818152602001828054611b6290614a07565b8015611baf5780601f10611b8457610100808354040283529160200191611baf565b820191906000526020600020905b815481529060010190602001808311611b9257829003601f168201915b505050505090508383604051611bc6929190614a41565b60405180910390208180519060200120149150509392505050565b611be96134d9565b6040516342d65a8d60e01b81526001600160a01b037f000000000000000000000000000000000000000000000000000000000000000016906342d65a8d90611c3990869086908690600401614bf0565b600060405180830381600087803b158015611c5357600080fd5b505af1158015610eda573d6000803e3d6000fd5b600654600090819060ff161515600114611cad5760405162461bcd60e51b8152602060048201526007602482015266436c6f73696e6760c81b6044820152606401610d26565b6001600160a01b03841660009081526012602052604090205460ff161515600114611d2d5760405162461bcd60e51b815260206004820152602a60248201527f526563686172676520696e20746869732063757272656e6379206973206e6f74604482015269081cdd5c1c1bdc9d195960b21b6064820152608401610d26565b6040516370a0823160e01b815283906001600160a01b038616906370a0823190611d5b90339060040161424a565b602060405180830381865afa158015611d78573d6000803e3d6000fd5b505050506040513d601f19601f82011682018060405250810190611d9c9190614d58565b1015611dba5760405162461bcd60e51b8152600401610d2690614cd3565b604051636eb1769f60e11b815283906001600160a01b0386169063dd62ed3e90611dea9033903090600401614d8c565b602060405180830381865afa158015611e07573d6000803e3d6000fd5b505050506040513d601f19601f82011682018060405250810190611e2b9190614d58565b1015611e495760405162461bcd60e51b8152600401610d2690614da6565b6040516370a0823160e01b81526000906001600160a01b038616906370a0823190611e7890339060040161424a565b602060405180830381865afa158015611e95573d6000803e3d6000fd5b505050506040513d601f19601f82011682018060405250810190611eb99190614d58565b6040516323b872dd60e01b81529091506001600160a01b038616906323b872dd90611eec90339030908990600401614c99565b6020604051808303816000875af1158015611f0b573d6000803e3d6000fd5b505050506040513d601f19601f82011682018060405250810190611f2f9190614c19565b50611f3a8482614c6d565b6040516370a0823160e01b81526001600160a01b038716906370a0823190611f6690339060040161424a565b602060405180830381865afa158015611f83573d6000803e3d6000fd5b505050506040513d601f19601f82011682018060405250810190611fa79190614d58565b14611fc45760405162461bcd60e51b8152600401610d2690614cd3565b6000611fcf336123cf565b50905034811115611ff25760405162461bcd60e51b8152600401610d2690614dd0565b6001600160a01b03861660009081526004602052604090205460ff16151560010361209457600a5460019450600090612033906001600160a01b0316612564565b905061203f87876135b8565b600a54612054906001600160a01b0316612564565b61205e8288614e04565b6120689190614c6d565b60010361209257600a54612084906001600160a01b0316612564565b61208f906001614e04565b93505b505b600a546120a9906001600160a01b0316612564565b6000546040519194506120eb9161ffff909116906120d69033908a908a908a906001908b90602001614e17565b60405160208183030381529060405234613733565b7f448d2b6792a74a21bfa5114f7cd01a036f36236f4e3687339032e97103e653ce86863360405161211e93929190614e70565b60405180910390a1505050505050565b6121366134d9565b6040516304b2b47b60e11b81526006906001600160a01b037f0000000000000000000000000000000000000000000000000000000000000000169063cbed8b9c90829063096568f69061218d90309060040161424a565b602060405180830381865afa1580156121aa573d6000803e3d6000fd5b505050506040513d601f19601f820116820180604052508101906121ce9190614e93565b8584866040516020016121e1919061424a565b6040516020818303038152906040526040518563ffffffff1660e01b8152600401611c399493929190614eb0565b6060816000806127106000600a61223a600a60009054906101000a90046001600160a01b0316612564565b604080516001600160a01b03909816602089015260ff96871690880152938516606087015261ffff9092166080860152831660a08501529190911660c083015260e0820152620f4240610100820152610120016040516020818303038152906040529050919050565b60065460ff1615156001146122ca5760405162461bcd60e51b8152600401610d2690614c36565b60006122d5336123cf565b509050346122e38284614e04565b11156123235760405162461bcd60e51b815260206004820152600f60248201526e0c2dadeeadce840dcde40dac2e8c6d608b1b6044820152606401610d26565b348111156123435760405162461bcd60e51b8152600401610d2690614dd0565b60008054600a5461239a9261ffff90921691339186908290600290612370906001600160a01b0316612564565b60405160200161238596959493929190614e17565b60405160208183030381529060405283613733565b604080518381523360208201527f0f007803da765bf8bfb79898e5892989976c0f6b9f69dd946cb8b949c781587a91016112c7565b600080548190819081906001600160a01b037f000000000000000000000000000000000000000000000000000000000000000016906340a7bb109061ffff16306124188961220f565b600060026040518663ffffffff1660e01b815260040161243c959493929190614ee7565b6040805180830381865afa158015612458573d6000803e3d6000fd5b505050506040513d601f19601f8201168201806040525081019061247c9190614fa5565b90969095509350505050565b3330146124e65760405162461bcd60e51b815260206004820152602660248201527f4e6f6e626c6f636b696e674c7a4170703a2063616c6c6572206d7573742062656044820152650204c7a4170760d41b6064820152608401610d26565b61255c8686868080601f01602080910402602001604051908101604052809392919081815260200183838082843760009201919091525050604080516020601f8901819004810282018101909252878152899350915087908790819084018382808284376000920191909152506137cc92505050565b505050505050565b6001546040516335ea6a7560e01b815260009182916001600160a01b03909116906335ea6a759061259990869060040161424a565b61018060405180830381865afa1580156125b7573d6000803e3d6000fd5b505050506040513d601f19601f820116820180604052508101906125db9190614ada565b60e08101516040516370a0823160e01b81529192506001600160a01b0316906370a082319061260e90309060040161424a565b602060405180830381865afa15801561262b573d6000803e3d6000fd5b505050506040513d601f19601f8201168201806040525081019061264f9190614d58565b9392505050565b61265e6134d9565b6040516001600160f01b031960f084901b166020820152602281018290526042016040516020818303038152906040526002908161130e9190615024565b6126a46134d9565b6126ae6000613be3565b565b600d6020526000908152604090208054610ff690614a07565b33806126d3613021565b6001600160a01b03161461273b5760405162461bcd60e51b815260206004820152602960248201527f4f776e61626c6532537465703a2063616c6c6572206973206e6f7420746865206044820152683732bb9037bbb732b960b91b6064820152608401610d26565b61274481613be3565b50565b60008060006127568585611741565b505050505092505091506000818361276e9190614c6d565b93505050505b92915050565b600b546001600160a01b031690565b60009182526007602090815260408084206001600160a01b0393909316845291905290205460ff1690565b61ffff81166000908152600d60205260408120805460609291906127d790614a07565b80601f016020809104026020016040519081016040528092919081815260200182805461280390614a07565b80156128505780601f1061282557610100808354040283529160200191612850565b820191906000526020600020905b81548152906001019060200180831161283357829003601f168201915b5050505050905080516000036128a85760405162461bcd60e51b815260206004820152601d60248201527f4c7a4170703a206e6f20747275737465642070617468207265636f72640000006044820152606401610d26565b61264f6000601483516128bb9190614c6d565b839190613bfc565b6128cb6134d9565b6001600160a01b03919091166000908152600460205260409020805460ff1916911515919091179055565b6128fe6134d9565b60005b825181101561130e57816012600085848151811061292157612921614cbd565b6020908102919091018101516001600160a01b03168252810191909152604001600020805460ff19169115159190911790558061295d81614d01565b915050612901565b61296d6134d9565b818130604051602001612982939291906150dd565b60408051601f1981840301815291815261ffff85166000908152600d60205220906129ad9082615024565b507f8c0400cfe2d1199b1a725c78960bcc2a344d869b80590d0f2bd005db15a572ce83838360405161173493929190614bf0565b60405163557faf8b60e11b81526001600160a01b037f0000000000000000000000000000000000000000000000000000000000000000169063aaff5f1690612a3590889088908890889088906004016150fe565b600060405180830381600087803b158015612a4f57600080fd5b505af1158015612a63573d6000803e3d6000fd5b505050505050505050565b600080612a7a84612afb565b90506000806000612a8a86613d09565b60408051600081526020810180835289905260ff8516918101919091526060810183905260808101829052929550909350915060019060a0016020604051602081039080840390855afa158015612ae5573d6000803e3d6000fd5b5050604051601f19015198975050505050505050565b6040517b0ca2ba3432b932bab69029b4b3b732b21026b2b9b9b0b3b29d05199960211b6020820152603c8101829052600090605c01604051602081830303815290604052805190602001209050919050565b612b556134d9565b600f80546001600160a01b0319166001600160a01b0383161790556040517f5db758e995a17ec1ad84bdef7e8c3293a0bd6179bcce400dff5d4c3d87db726b90612ba090839061424a565b60405180910390a150565b612bb36134d9565b6040516332fb62e760e21b81526001600160a01b037f0000000000000000000000000000000000000000000000000000000000000000169063cbed8b9c90612a35908890889088908890889060040161513b565b61ffff86166000908152601060205260408082209051612c2a9088908890614a41565b90815260408051602092819003830190206001600160401b03871660009081529252902054905080612caa5760405162461bcd60e51b815260206004820152602360248201527f4e6f6e626c6f636b696e674c7a4170703a206e6f2073746f726564206d65737360448201526261676560e81b6064820152608401610d26565b808383604051612cbb929190614a41565b604051809103902014612d1a5760405162461bcd60e51b815260206004820152602160248201527f4e6f6e626c6f636b696e674c7a4170703a20696e76616c6964207061796c6f616044820152601960fa1b6064820152608401610d26565b61ffff87166000908152601060205260408082209051612d3d9089908990614a41565b90815260408051602092819003830181206001600160401b038916600090815290845282902093909355601f88018290048202830182019052868252612dd5918991899089908190840183828082843760009201919091525050604080516020601f8a018190048102820181019092528881528a9350915088908890819084018382808284376000920191909152506137cc92505050565b7fc264d91f3adc5588250e1551f547752ca0cfa8f6b530d243b9f9f4cab10ea8e58787878785604051612e0c959493929190615174565b60405180910390a150505050505050565b612e256134d9565b60008111612e6d5760405162461bcd60e51b81526020600482015260156024820152744c7a4170703a20696e76616c6964206d696e47617360581b6044820152606401610d26565b61ffff8381166000818152600e602090815260408083209487168084529482529182902085905581519283528201929092529081018290527f9d5c7c0b934da8fefa9c7760c98383778a12dfbfc0c3b3106518f43fb9508ac090606001611734565b612ed76134d9565b61274460008051602061570c83398151915282613d7b565b6000807f00000000000000000000000000000000000000000000000000000000000000006001600160a01b031663f5ecbdbc7f00000000000000000000000000000000000000000000000000000000000000006001600160a01b031663096568f6306040518263ffffffff1660e01b8152600401612f6d919061424a565b602060405180830381865afa158015612f8a573d6000803e3d6000fd5b505050506040513d601f19601f82011682018060405250810190612fae9190614e93565b853060066040518563ffffffff1660e01b8152600401612fd194939291906151af565b600060405180830381865afa158015612fee573d6000803e3d6000fd5b505050506040513d6000823e601f3d908101601f191682016040526130169190810190615221565b602001519392505050565b600c546001600160a01b031690565b6130386134d9565b61ffff83166000908152600d60205260409020613056828483615255565b507ffa41487ad5d6728f0b19276fa1eddc16558578f5109fc39d2dc33c3230470dab83838360405161173493929190614bf0565b6130926134d9565b600c80546001600160a01b0319166001600160a01b0383169081179091556130b861277a565b6001600160a01b03167f38d16b8cac22d99fc7c124b9cd0de2d3fa1faef420bfe791d8c362d765e2270060405160405180910390a350565b604051633d7b2f6f60e21b81526060906001600160a01b037f0000000000000000000000000000000000000000000000000000000000000000169063f5ecbdbc906131459088908890309088906004016151af565b600060405180830381865afa158015613162573d6000803e3d6000fd5b505050506040513d6000823e601f3d908101601f1916820160405261318a9190810190615221565b95945050505050565b6001600160a01b038116600090815260036020526040812081906060908190839081805b60085481101561322457826002016000600883815481106131da576131da614cbd565b60009182526020808320909101546001600160a01b0316835282019290925260400190205415613212578161320e81614d01565b9250505b8061321c81614d01565b9150506131b7565b506000816001600160401b0381111561323f5761323f61438d565b604051908082528060200260200182016040528015613268578160200160208202803683370190505b5090506000826001600160401b038111156132855761328561438d565b6040519080825280602002602001820160405280156132ae578160200160208202803683370190505b5090506000805b6008548110156133e257856002016000600883815481106132d8576132d8614cbd565b60009182526020808320909101546001600160a01b03168352820192909252604001902054156133d0576008818154811061331557613315614cbd565b9060005260206000200160009054906101000a90046001600160a01b031684838151811061334557613345614cbd565b60200260200101906001600160a01b031690816001600160a01b0316815250508560020160006008838154811061337e5761337e614cbd565b60009182526020808320909101546001600160a01b0316835282019290925260400190205483518490849081106133b7576133b7614cbd565b6020908102919091010152816133cc81614d01565b9250505b806133da81614d01565b9150506132b5565b5050835460018501546003909501546001600160a01b039091169b949a50919850965094509092505050565b600b80546001600160a01b038381166001600160a01b0319831681179093556040519116919082907f8be0079c531659141344cd1fd0a4f28419497f9722a3daafe3b4186f6b6457e090600090a35050565b6000806134c35a60966366ad5c8a60e01b89898989604051602401613488949392919061530e565b60408051601f198184030181529190526020810180516001600160e01b03166001600160e01b03199093169290921790915230929190613d85565b915091508161255c5761255c8686868685613e0f565b336134e261277a565b6001600160a01b0316146126ae5760405162461bcd60e51b815260206004820181905260248201527f4f776e61626c653a2063616c6c6572206973206e6f7420746865206f776e65726044820152606401610d26565b600154604051631a4ca37b60e21b81526000916001600160a01b0316906369328dec9061356d90879087908790600401614e70565b6020604051808303816000875af115801561358c573d6000803e3d6000fd5b505050506040513d601f19601f820116820180604052508101906135b09190614d58565b949350505050565b60015460405163095ea7b360e01b81526001600160a01b038481169263095ea7b3926135ec92909116908590600401614c80565b6020604051808303816000875af115801561360b573d6000803e3d6000fd5b505050506040513d601f19601f8201168201806040525081019061362f9190614c19565b50600154604051636eb1769f60e11b815282916001600160a01b038086169263dd62ed3e92613665923092911690600401614d8c565b602060405180830381865afa158015613682573d6000803e3d6000fd5b505050506040513d601f19601f820116820180604052508101906136a69190614d58565b10156136c45760405162461bcd60e51b8152600401610d2690614da6565b60015460405163e8eda9df60e01b81526001600160a01b03848116600483015260248201849052306044830152600060648301529091169063e8eda9df90608401600060405180830381600087803b15801561371f57600080fd5b505af115801561255c573d6000803e3d6000fd5b61130e83833360006002805461374890614a07565b80601f016020809104026020016040519081016040528092919081815260200182805461377490614a07565b80156137c15780601f10613796576101008083540402835291602001916137c1565b820191906000526020600020905b8154815290600101906020018083116137a457829003601f168201915b505050505086613eac565b6000806000838060200190518101906137e5919061540b565b925092509250600083600001518460200151856040015160405160200161380c9190615513565b60405160208183030381529060405286606001516040516020016138309190615552565b60408051601f1981840301815290829052608089015160a08a015161385a9695949360200161557c565b6040516020818303038152906040529050811561392e5761389560008051602061570c8339815191526109368660c001518760e00151612a6e565b15156001146138e15760405162461bcd60e51b8152602060048201526018602482015277546865207369676e6572206973206e6f742061206e6f646560401b6044820152606401610d26565b8051602082012060c0850151811461392c5760405162461bcd60e51b815260206004820152600e60248201526d496e636f7272656374206461746160901b6044820152606401610d26565b505b83516001600160a01b0390811660009081526003602090815260408220875181546001600160a01b0319169416939093178355860151600183015560808601516007830155805b866040015151811015613b2f576139a88760400151828151811061399b5761399b614cbd565b6020026020010151614046565b866060015181815181106139be576139be614cbd565b6020026020010151836002016000896040015184815181106139e2576139e2614cbd565b60200260200101516001600160a01b03166001600160a01b031681526020019081526020016000206000828254613a199190614e04565b925050819055506004600088604001518381518110613a3a57613a3a614cbd565b6020908102919091018101516001600160a01b031682528101919091526040016000205460ff1615613b1d5760019150600087606001518281518110613a8257613a82614cbd565b602002602001015187613a959190614e04565b1115613b1d5786516001600160a01b031660009081526011602052604081208054889290613ac4908490614e04565b92505081905550613b1b87604001518281518110613ae457613ae4614cbd565b602002602001015188606001518381518110613b0257613b02614cbd565b602002602001015188613b159190614e04565b30613538565b505b80613b2781614d01565b915050613975565b5080158015613b3e5750600085115b15613b8a5785516001600160a01b031660009081526011602052604081208054879290613b6c908490614e04565b9091555050600a54613b88906001600160a01b03168630613538565b505b7fc53f0aae5ad30d5251e6054a1874116c45eaf54274cdb1940ee106d67c10b3a58660000151876040015188606001518960a00151604051613bcf94939291906155eb565b60405180910390a150505050505050505050565b600c80546001600160a01b03191690556127448161340e565b606081613c0a81601f614e04565b1015613c495760405162461bcd60e51b815260206004820152600e60248201526d736c6963655f6f766572666c6f7760901b6044820152606401610d26565b613c538284614e04565b84511015613c975760405162461bcd60e51b8152602060048201526011602482015270736c6963655f6f75744f66426f756e647360781b6044820152606401610d26565b606082158015613cb65760405191506000825260208201604052613d00565b6040519150601f8416801560200281840101858101878315602002848b0101015b81831015613cef578051835260209283019201613cd7565b5050858452601f01601f1916604052505b50949350505050565b60008060008351604114613d5f5760405162461bcd60e51b815260206004820152601f60248201527f45434453413a20696e76616c6964207369676e6174757265206c656e677468006044820152606401610d26565b5050506020810151604082015160609092015160001a92909190565b61140782826140d0565b6000606060008060008661ffff166001600160401b03811115613daa57613daa61438d565b6040519080825280601f01601f191660200182016040528015613dd4576020820181803683370190505b50905060008087516020890160008d8df191503d925086831115613df6578692505b828152826000602083013e909890975095505050505050565b8180519060200120601060008761ffff1661ffff16815260200190815260200160002085604051613e409190615636565b9081526040805191829003602090810183206001600160401b0388166000908152915220919091557fe183f33de2837795525b4792ca4cd60535bd77c53b7e7030060bfcf5734d6b0c90613e9d9087908790879087908790615652565b60405180910390a15050505050565b61ffff86166000908152600d602052604081208054613eca90614a07565b80601f0160208091040260200160405190810160405280929190818152602001828054613ef690614a07565b8015613f435780601f10613f1857610100808354040283529160200191613f43565b820191906000526020600020905b815481529060010190602001808311613f2657829003601f168201915b505050505090508051600003613fb45760405162461bcd60e51b815260206004820152603060248201527f4c7a4170703a2064657374696e6174696f6e20636861696e206973206e6f742060448201526f61207472757374656420736f7572636560801b6064820152608401610d26565b60405162c5803160e81b81526001600160a01b037f0000000000000000000000000000000000000000000000000000000000000000169063c580310090849061400b908b9086908c908c908c908c906004016156a4565b6000604051808303818588803b15801561402457600080fd5b505af1158015614038573d6000803e3d6000fd5b505050505050505050505050565b6001600160a01b03811660009081526009602052604081205460ff1615159003612744576001600160a01b03166000818152600960205260408120805460ff191660019081179091556008805491820181559091527ff3f7a9fe364faab93b216da50a3214154f22a0a2b415b23a84c8169e8b636ee30180546001600160a01b0319169091179055565b6140da8282612789565b6114075760008281526007602090815260408083206001600160a01b03851684529091529020805460ff191660011790555050565b61ffff8116811461274457600080fd5b60008083601f84011261413157600080fd5b5081356001600160401b0381111561414857600080fd5b60208301915083602082850101111561416057600080fd5b9250929050565b80356001600160401b038116811461417e57600080fd5b919050565b6000806000806000806080878903121561419c57600080fd5b86356141a78161410f565b955060208701356001600160401b03808211156141c357600080fd5b6141cf8a838b0161411f565b90975095508591506141e360408a01614167565b945060608901359150808211156141f957600080fd5b5061420689828a0161411f565b979a9699509497509295939492505050565b6001600160a01b038116811461274457600080fd5b60006020828403121561423f57600080fd5b813561264f81614218565b6001600160a01b0391909116815260200190565b60006020828403121561427057600080fd5b813561264f8161410f565b60005b8381101561429657818101518382015260200161427e565b50506000910152565b600081518084526142b781602086016020860161427b565b601f01601f19169290920160200192915050565b60208152600061264f602083018461429f565b801515811461274457600080fd5b6000602082840312156142fe57600080fd5b813561264f816142de565b60008060006040848603121561431e57600080fd5b83356143298161410f565b925060208401356001600160401b0381111561434457600080fd5b6143508682870161411f565b9497909650939450505050565b6000806040838503121561437057600080fd5b82359150602083013561438281614218565b809150509250929050565b634e487b7160e01b600052604160045260246000fd5b60405161018081016001600160401b03811182821017156143c6576143c661438d565b60405290565b60405161010081016001600160401b03811182821017156143c6576143c661438d565b604051601f8201601f191681016001600160401b03811182821017156144175761441761438d565b604052919050565b60006001600160401b038211156144385761443861438d565b5060051b60200190565b600082601f83011261445357600080fd5b813560206144686144638361441f565b6143ef565b82815260059290921b8401810191818101908684111561448757600080fd5b8286015b848110156144ab57803561449e81614218565b835291830191830161448b565b509695505050505050565b600080604083850312156144c957600080fd5b82356001600160401b03808211156144e057600080fd5b818501915085601f8301126144f457600080fd5b813560206145046144638361441f565b82815260059290921b8401810191818101908984111561452357600080fd5b948201945b8386101561454157853582529482019490820190614528565b9650508601359250508082111561455757600080fd5b5061456485828601614442565b9150509250929050565b6000806040838503121561458157600080fd5b823561458c81614218565b9150602083013561438281614218565b600080604083850312156145af57600080fd5b82356145ba81614218565b946020939093013593505050565b600080604083850312156145db57600080fd5b823561458c8161410f565b6000602082840312156145f857600080fd5b5035919050565b60006001600160401b038211156146185761461861438d565b50601f01601f191660200190565b600082601f83011261463757600080fd5b8135614645614463826145ff565b81815284602083860101111561465a57600080fd5b816020850160208301376000918101602001919091529392505050565b60008060006060848603121561468c57600080fd5b83356146978161410f565b925060208401356001600160401b038111156146b257600080fd5b6146be86828701614626565b9250506146cd60408501614167565b90509250925092565b600080604083850312156146e957600080fd5b82356145ba8161410f565b6000806040838503121561470757600080fd5b82356147128161410f565b915060208301356143828161410f565b6000806040838503121561473557600080fd5b823561474081614218565b91506020830135614382816142de565b6000806040838503121561476357600080fd5b82356001600160401b0381111561477957600080fd5b61478585828601614442565b9250506020830135614382816142de565b6000806000806000606086880312156147ae57600080fd5b85356147b98161410f565b945060208601356001600160401b03808211156147d557600080fd5b6147e189838a0161411f565b909650945060408801359150808211156147fa57600080fd5b506148078882890161411f565b969995985093965092949392505050565b6000806040838503121561482b57600080fd5b8235915060208301356001600160401b0381111561484857600080fd5b61456485828601614626565b60008060008060006080868803121561486c57600080fd5b85356148778161410f565b945060208601356148878161410f565b93506040860135925060608601356001600160401b038111156148a957600080fd5b6148078882890161411f565b6000806000606084860312156148ca57600080fd5b83356148d58161410f565b925060208401356148e58161410f565b929592945050506040919091013590565b6000806000806080858703121561490c57600080fd5b84356149178161410f565b935060208501356149278161410f565b9250604085013561493781614218565b9396929550929360600135925050565b600081518084526020808501945080840160005b838110156149805781516001600160a01b03168752958201959082019060010161495b565b509495945050505050565b600081518084526020808501945080840160005b838110156149805781518752958201959082019060010161499f565b60018060a01b038616815284602082015260a0604082015260006149e260a0830186614947565b82810360608401526149f4818661498b565b9150508260808301529695505050505050565b600181811c90821680614a1b57607f821691505b602082108103614a3b57634e487b7160e01b600052602260045260246000fd5b50919050565b8183823760009101908152919050565b600060208284031215614a6357600080fd5b604051602081016001600160401b0381118282101715614a8557614a8561438d565b6040529151825250919050565b80516001600160801b038116811461417e57600080fd5b805164ffffffffff8116811461417e57600080fd5b805161417e81614218565b805160ff8116811461417e57600080fd5b60006101808284031215614aed57600080fd5b614af56143a3565b614aff8484614a51565b8152614b0d60208401614a92565b6020820152614b1e60408401614a92565b6040820152614b2f60608401614a92565b6060820152614b4060808401614a92565b6080820152614b5160a08401614a92565b60a0820152614b6260c08401614aa9565b60c0820152614b7360e08401614abe565b60e0820152610100614b86818501614abe565b90820152610120614b98848201614abe565b90820152610140614baa848201614abe565b90820152610160614bbc848201614ac9565b908201529392505050565b81835281816020850137506000828201602090810191909152601f909101601f19169091010190565b61ffff8416815260406020820152600061318a604083018486614bc7565b805161417e816142de565b600060208284031215614c2b57600080fd5b815161264f816142de565b602080825260079082015266636c6f73696e6760c81b604082015260600190565b634e487b7160e01b600052601160045260246000fd5b8181038181111561277457612774614c57565b6001600160a01b03929092168252602082015260400190565b6001600160a01b039384168152919092166020820152604081019190915260600190565b634e487b7160e01b600052603260045260246000fd5b60208082526014908201527310985b185b98d9481a5b9cdd59999a58da595b9d60621b604082015260600190565b600060018201614d1357614d13614c57565b5060010190565b606081526000614d2d6060830186614947565b8281036020840152614d3f818661498b565b91505060018060a01b0383166040830152949350505050565b600060208284031215614d6a57600080fd5b5051919050565b600060208284031215614d8357600080fd5b61264f82614aa9565b6001600160a01b0392831681529116602082015260400190565b60208082526010908201526f27379030baba3437b934bd30ba34b7b760811b604082015260600190565b6020808252601a90820152796e6f7420656e6f756768206e617469766520666f72206665657360301b604082015260600190565b8082018082111561277457612774614c57565b6001600160a01b0387811682528616602082015260408101859052831515606082015260c0810160058410614e5c57634e487b7160e01b600052602160045260246000fd5b608082019390935260a00152949350505050565b6001600160a01b0393841681526020810192909252909116604082015260600190565b600060208284031215614ea557600080fd5b815161264f8161410f565b600061ffff808716835280861660208401525083604083015260806060830152614edd608083018461429f565b9695505050505050565b61ffff861681526000602060018060a01b0387168184015260a06040840152614f1360a084018761429f565b8515156060850152838103608085015260008554614f3081614a07565b80845260018281168015614f4b5760018114614f6557614f93565b60ff1984168688015282151560051b860187019450614f93565b896000528660002060005b84811015614f8b5781548882018a0152908301908801614f70565b870188019550505b50929c9b505050505050505050505050565b60008060408385031215614fb857600080fd5b505080516020909101519092909150565b601f82111561130e57600081815260208120601f850160051c81016020861015614ff05750805b601f850160051c820191505b8181101561255c57828155600101614ffc565b600019600383901b1c191660019190911b1790565b81516001600160401b0381111561503d5761503d61438d565b6150518161504b8454614a07565b84614fc9565b602080601f831160018114615080576000841561506e5750858301515b615078858261500f565b86555061255c565b600085815260208120601f198616915b828110156150af57888601518255948401946001909101908401615090565b50858210156150cd5787850151600019600388901b60f8161c191681555b5050505050600190811b01905550565b8284823760609190911b6001600160601b0319169101908152601401919050565b61ffff8616815260606020820152600061511c606083018688614bc7565b828103604084015261512f818587614bc7565b98975050505050505050565b600061ffff808816835280871660208401525084604083015260806060830152615169608083018486614bc7565b979650505050505050565b61ffff86168152608060208201526000615192608083018688614bc7565b6001600160401b0394909416604083015250606001529392505050565b61ffff94851681529290931660208301526001600160a01b03166040820152606081019190915260800190565b600082601f8301126151ed57600080fd5b81516151fb614463826145ff565b81815284602083860101111561521057600080fd5b6135b082602083016020870161427b565b60006020828403121561523357600080fd5b81516001600160401b0381111561524957600080fd5b6135b0848285016151dc565b6001600160401b0383111561526c5761526c61438d565b6152808361527a8354614a07565b83614fc9565b6000601f8411600181146152ae576000851561529c5750838201355b6152a6868261500f565b845550610fe2565b600083815260209020601f19861690835b828110156152df57868501358255602094850194600190920191016152bf565b50868210156152fc5760001960f88860031b161c19848701351681555b505060018560011b0183555050505050565b61ffff8516815260806020820152600061532b608083018661429f565b6001600160401b03851660408401528281036060840152615169818561429f565b600082601f83011261535d57600080fd5b8151602061536d6144638361441f565b82815260059290921b8401810191818101908684111561538c57600080fd5b8286015b848110156144ab5780516153a381614218565b8352918301918301615390565b600082601f8301126153c157600080fd5b815160206153d16144638361441f565b82815260059290921b840181019181810190868411156153f057600080fd5b8286015b848110156144ab57805183529183019183016153f4565b60008060006060848603121561542057600080fd5b83516001600160401b038082111561543757600080fd5b90850190610100828803121561544c57600080fd5b6154546143cc565b61545d83614abe565b81526020830151602082015260408301518281111561547b57600080fd5b6154878982860161534c565b60408301525060608301518281111561549f57600080fd5b6154ab898286016153b0565b606083015250608083015160808201526154c760a08401614ac9565b60a082015260c083015160c082015260e0830151828111156154e857600080fd5b6154f4898286016151dc565b60e083015250809550505050602084015191506146cd60408501614c0e565b815160009082906020808601845b838110156155465781516001600160a01b031685529382019390820190600101615521565b50929695505050505050565b815160009082906020808601845b8381101561554657815185529382019390820190600101615560565b606087901b6001600160601b03191681526014810186905284516000906155aa816034850160208a0161427b565b8551908301906155c1816034840160208a0161427b565b6034910190810194909452505060f81b6001600160f81b0319166054820152605501949350505050565b6001600160a01b038516815260806020820181905260009061560f90830186614947565b8281036040840152615621818661498b565b91505060ff8316606083015295945050505050565b6000825161564881846020870161427b565b9190910192915050565b61ffff8616815260a06020820152600061566f60a083018761429f565b6001600160401b03861660408401528281036060840152615690818661429f565b9050828103608084015261512f818561429f565b61ffff8716815260c0602082015260006156c160c083018861429f565b82810360408401526156d3818861429f565b6001600160a01b0387811660608601528616608085015283810360a085015290506156fe818561429f565b999850505050505050505056fe57c872046f094b8a493ec5eb6ea374eafbc3c05951e40de3c4302a41f3f127baa2646970667358221220322007aeeabccabbcaa0595c0a5a4d4ca9813f7329b43d5484396edd9b9e6f3e64736f6c63430008110033","opcodes":"PUSH1 0xA0 PUSH1 0x40 MSTORE CALLVALUE DUP1 ISZERO PUSH3 0x11 JUMPI PUSH1 0x0 DUP1 REVERT JUMPDEST POP PUSH1 0x40 MLOAD PUSH3 0x5978 CODESIZE SUB DUP1 PUSH3 0x5978 DUP4 CODECOPY DUP2 ADD PUSH1 0x40 DUP2 SWAP1 MSTORE PUSH3 0x34 SWAP2 PUSH3 0x13B JUMP JUMPDEST DUP3 DUP1 PUSH3 0x41 CALLER PUSH3 0xA2 JUMP JUMPDEST PUSH1 0x1 PUSH1 0x1 PUSH1 0xA0 SHL SUB SWAP1 DUP2 AND PUSH1 0x80 MSTORE PUSH1 0x1 DUP1 SLOAD PUSH1 0x1 PUSH1 0x1 PUSH1 0xA0 SHL SUB NOT SWAP1 DUP2 AND SWAP8 DUP4 AND SWAP8 SWAP1 SWAP8 OR DUP2 SSTORE PUSH1 0x0 DUP1 SLOAD PUSH2 0xFFFF NOT AND PUSH2 0xFFFF SWAP7 SWAP1 SWAP7 AND SWAP6 SWAP1 SWAP6 OR SWAP1 SWAP5 SSTORE PUSH1 0x6 DUP1 SLOAD PUSH1 0xFF NOT AND SWAP1 SWAP5 OR SWAP1 SWAP4 SSTORE POP PUSH1 0xA DUP1 SLOAD SWAP1 SWAP5 AND SWAP2 AND OR SWAP1 SWAP2 SSTORE POP PUSH3 0x1A0 JUMP JUMPDEST PUSH1 0xC DUP1 SLOAD PUSH1 0x1 PUSH1 0x1 PUSH1 0xA0 SHL SUB NOT AND SWAP1 SSTORE PUSH3 0xC9 DUP2 PUSH3 0xCC PUSH1 0x20 SWAP1 DUP2 SHL PUSH3 0x340E OR SWAP1 SHR JUMP JUMPDEST POP JUMP JUMPDEST PUSH1 0xB DUP1 SLOAD PUSH1 0x1 PUSH1 0x1 PUSH1 0xA0 SHL SUB DUP4 DUP2 AND PUSH1 0x1 PUSH1 0x1 PUSH1 0xA0 SHL SUB NOT DUP4 AND DUP2 OR SWAP1 SWAP4 SSTORE PUSH1 0x40 MLOAD SWAP2 AND SWAP2 SWAP1 DUP3 SWAP1 PUSH32 0x8BE0079C531659141344CD1FD0A4F28419497F9722A3DAAFE3B4186F6B6457E0 SWAP1 PUSH1 0x0 SWAP1 LOG3 POP POP JUMP JUMPDEST DUP1 MLOAD PUSH1 0x1 PUSH1 0x1 PUSH1 0xA0 SHL SUB DUP2 AND DUP2 EQ PUSH3 0x136 JUMPI PUSH1 0x0 DUP1 REVERT JUMPDEST SWAP2 SWAP1 POP JUMP JUMPDEST PUSH1 0x0 DUP1 PUSH1 0x0 DUP1 PUSH1 0x80 DUP6 DUP8 SUB SLT ISZERO PUSH3 0x152 JUMPI PUSH1 0x0 DUP1 REVERT JUMPDEST PUSH3 0x15D DUP6 PUSH3 0x11E JUMP JUMPDEST SWAP4 POP PUSH3 0x16D PUSH1 0x20 DUP7 ADD PUSH3 0x11E JUMP JUMPDEST SWAP3 POP PUSH1 0x40 DUP6 ADD MLOAD PUSH2 0xFFFF DUP2 AND DUP2 EQ PUSH3 0x185 JUMPI PUSH1 0x0 DUP1 REVERT JUMPDEST SWAP2 POP PUSH3 0x195 PUSH1 0x60 DUP7 ADD PUSH3 0x11E JUMP JUMPDEST SWAP1 POP SWAP3 SWAP6 SWAP2 SWAP5 POP SWAP3 POP JUMP JUMPDEST PUSH1 0x80 MLOAD PUSH2 0x5761 PUSH3 0x217 PUSH1 0x0 CODECOPY PUSH1 0x0 DUP2 DUP2 PUSH2 0xA42 ADD MSTORE DUP2 DUP2 PUSH2 0xCB5 ADD MSTORE DUP2 DUP2 PUSH2 0xF81 ADD MSTORE DUP2 DUP2 PUSH2 0x10A9 ADD MSTORE DUP2 DUP2 PUSH2 0x114A ADD MSTORE DUP2 DUP2 PUSH2 0x1C00 ADD MSTORE DUP2 DUP2 PUSH2 0x2150 ADD MSTORE DUP2 DUP2 PUSH2 0x23E3 ADD MSTORE DUP2 DUP2 PUSH2 0x29F8 ADD MSTORE DUP2 DUP2 PUSH2 0x2BCA ADD MSTORE DUP2 DUP2 PUSH2 0x2EF4 ADD MSTORE DUP2 DUP2 PUSH2 0x2F23 ADD MSTORE DUP2 DUP2 PUSH2 0x310A ADD MSTORE PUSH2 0x3FCA ADD MSTORE PUSH2 0x5761 PUSH1 0x0 RETURN INVALID PUSH1 0x80 PUSH1 0x40 MSTORE PUSH1 0x4 CALLDATASIZE LT PUSH2 0x2DD JUMPI PUSH1 0x0 CALLDATALOAD PUSH1 0xE0 SHR DUP1 PUSH3 0x1D3567 EQ PUSH2 0x2E2 JUMPI DUP1 PUSH4 0x21B9359 EQ PUSH2 0x304 JUMPI DUP1 PUSH4 0x707A0F0 EQ PUSH2 0x33A JUMPI DUP1 PUSH4 0x7E0DB17 EQ PUSH2 0x381 JUMPI DUP1 PUSH4 0x83118D5 EQ PUSH2 0x3A1 JUMPI DUP1 PUSH4 0x85A10CF EQ PUSH2 0x3C3 JUMPI DUP1 PUSH4 0xEAF6EA6 EQ PUSH2 0x3E3 JUMPI DUP1 PUSH4 0x10DDB137 EQ PUSH2 0x403 JUMPI DUP1 PUSH4 0x1210AAC2 EQ PUSH2 0x423 JUMPI DUP1 PUSH4 0x1371E2E1 EQ PUSH2 0x443 JUMPI DUP1 PUSH4 0x16E57652 EQ PUSH2 0x463 JUMPI DUP1 PUSH4 0x19FC2E61 EQ PUSH2 0x483 JUMPI DUP1 PUSH4 0x28DD2D01 EQ PUSH2 0x4B7 JUMPI DUP1 PUSH4 0x29E26B10 EQ PUSH2 0x519 JUMPI DUP1 PUSH4 0x2F48AB7D EQ PUSH2 0x559 JUMPI DUP1 PUSH4 0x30C593F7 EQ PUSH2 0x579 JUMPI DUP1 PUSH4 0x3D8B38F6 EQ PUSH2 0x5A7 JUMPI DUP1 PUSH4 0x42D65A8D EQ PUSH2 0x5C7 JUMPI DUP1 PUSH4 0x47535D7B EQ PUSH2 0x5E7 JUMPI DUP1 PUSH4 0x47E7EF24 EQ PUSH2 0x601 JUMPI DUP1 PUSH4 0x4893C26A EQ PUSH2 0x614 JUMPI DUP1 PUSH4 0x492E527E EQ PUSH2 0x644 JUMPI DUP1 PUSH4 0x504F1671 EQ PUSH2 0x664 JUMPI DUP1 PUSH4 0x5358FBDA EQ PUSH2 0x684 JUMPI DUP1 PUSH4 0x57463D35 EQ PUSH2 0x697 JUMPI DUP1 PUSH4 0x5B8C41E6 EQ PUSH2 0x6CC JUMPI DUP1 PUSH4 0x5E5C06E2 EQ PUSH2 0x71B JUMPI DUP1 PUSH4 0x66AD5C8A EQ PUSH2 0x7AE JUMPI DUP1 PUSH4 0x68637549 EQ PUSH2 0x7CE JUMPI DUP1 PUSH4 0x6D1DAA28 EQ PUSH2 0x7EE JUMPI DUP1 PUSH4 0x715018A6 EQ PUSH2 0x80E JUMPI DUP1 PUSH4 0x7533D788 EQ PUSH2 0x823 JUMPI DUP1 PUSH4 0x79BA5097 EQ PUSH2 0x843 JUMPI DUP1 PUSH4 0x7AAA3470 EQ PUSH2 0x858 JUMPI DUP1 PUSH4 0x806B834D EQ PUSH2 0x88E JUMPI DUP1 PUSH4 0x819FAF7B EQ PUSH2 0x8AE JUMPI DUP1 PUSH4 0x8CFD8F5C EQ PUSH2 0x8CE JUMPI DUP1 PUSH4 0x8DA5CB5B EQ PUSH2 0x906 JUMPI DUP1 PUSH4 0x91D14854 EQ PUSH2 0x91B JUMPI DUP1 PUSH4 0x950C8A74 EQ PUSH2 0x93B JUMPI DUP1 PUSH4 0x9F38369A EQ PUSH2 0x95B JUMPI DUP1 PUSH4 0xA217FDDF EQ PUSH2 0x97B JUMPI DUP1 PUSH4 0xA304DCF4 EQ PUSH2 0x990 JUMPI DUP1 PUSH4 0xA4CA74DB EQ PUSH2 0x9B0 JUMPI DUP1 PUSH4 0xA6C3D165 EQ PUSH2 0x9D0 JUMPI DUP1 PUSH4 0xAAFF5F16 EQ PUSH2 0x9F0 JUMPI DUP1 PUSH4 0xB273F207 EQ PUSH2 0xA10 JUMPI DUP1 PUSH4 0xB353AAA7 EQ PUSH2 0xA30 JUMPI DUP1 PUSH4 0xB3CB890F EQ PUSH2 0xA64 JUMPI DUP1 PUSH4 0xBAF3292D EQ PUSH2 0xA84 JUMPI DUP1 PUSH4 0xBD99D7E1 EQ PUSH2 0xAA4 JUMPI DUP1 PUSH4 0xC392F766 EQ PUSH2 0xAD4 JUMPI DUP1 PUSH4 0xC779C1C3 EQ PUSH2 0xAFA JUMPI DUP1 PUSH4 0xCBED8B9C EQ PUSH2 0xB27 JUMPI DUP1 PUSH4 0xD1DEBA1F EQ PUSH2 0xB47 JUMPI DUP1 PUSH4 0xDF2A5B3B EQ PUSH2 0xB5A JUMPI DUP1 PUSH4 0xE251E96D EQ PUSH2 0xB7A JUMPI DUP1 PUSH4 0xE2F28824 EQ PUSH2 0xB9A JUMPI DUP1 PUSH4 0xE30C3978 EQ PUSH2 0xBBA JUMPI DUP1 PUSH4 0xEB8D72B7 EQ PUSH2 0xBCF JUMPI DUP1 PUSH4 0xF2FDE38B EQ PUSH2 0xBEF JUMPI DUP1 PUSH4 0xF5ECBDBC EQ PUSH2 0xC0F JUMPI DUP1 PUSH4 0xF8B2CB4F EQ PUSH2 0xC2F JUMPI DUP1 PUSH4 0xFB895733 EQ PUSH2 0xC60 JUMPI DUP1 PUSH4 0xFF464D3F EQ PUSH2 0xC82 JUMPI JUMPDEST PUSH1 0x0 DUP1 REVERT JUMPDEST CALLVALUE DUP1 ISZERO PUSH2 0x2EE JUMPI PUSH1 0x0 DUP1 REVERT JUMPDEST POP PUSH2 0x302 PUSH2 0x2FD CALLDATASIZE PUSH1 0x4 PUSH2 0x4183 JUMP JUMPDEST PUSH2 0xCB2 JUMP JUMPDEST STOP JUMPDEST CALLVALUE DUP1 ISZERO PUSH2 0x310 JUMPI PUSH1 0x0 DUP1 REVERT JUMPDEST POP PUSH2 0x324 PUSH2 0x31F CALLDATASIZE PUSH1 0x4 PUSH2 0x422D JUMP JUMPDEST PUSH2 0xEE3 JUMP JUMPDEST PUSH1 0x40 MLOAD PUSH2 0x331 SWAP2 SWAP1 PUSH2 0x424A JUMP JUMPDEST PUSH1 0x40 MLOAD DUP1 SWAP2 SUB SWAP1 RETURN JUMPDEST CALLVALUE DUP1 ISZERO PUSH2 0x346 JUMPI PUSH1 0x0 DUP1 REVERT JUMPDEST POP PUSH2 0x373 PUSH2 0x355 CALLDATASIZE PUSH1 0x4 PUSH2 0x422D JUMP JUMPDEST PUSH1 0x1 PUSH1 0x1 PUSH1 0xA0 SHL SUB AND PUSH1 0x0 SWAP1 DUP2 MSTORE PUSH1 0x3 PUSH1 0x20 MSTORE PUSH1 0x40 SWAP1 KECCAK256 PUSH1 0x7 ADD SLOAD SWAP1 JUMP JUMPDEST PUSH1 0x40 MLOAD SWAP1 DUP2 MSTORE PUSH1 0x20 ADD PUSH2 0x331 JUMP JUMPDEST CALLVALUE DUP1 ISZERO PUSH2 0x38D JUMPI PUSH1 0x0 DUP1 REVERT JUMPDEST POP PUSH2 0x302 PUSH2 0x39C CALLDATASIZE PUSH1 0x4 PUSH2 0x425E JUMP JUMPDEST PUSH2 0xF60 JUMP JUMPDEST CALLVALUE DUP1 ISZERO PUSH2 0x3AD JUMPI PUSH1 0x0 DUP1 REVERT JUMPDEST POP PUSH2 0x3B6 PUSH2 0xFE9 JUMP JUMPDEST PUSH1 0x40 MLOAD PUSH2 0x331 SWAP2 SWAP1 PUSH2 0x42CB JUMP JUMPDEST CALLVALUE DUP1 ISZERO PUSH2 0x3CF JUMPI PUSH1 0x0 DUP1 REVERT JUMPDEST POP PUSH2 0x302 PUSH2 0x3DE CALLDATASIZE PUSH1 0x4 PUSH2 0x42EC JUMP JUMPDEST PUSH2 0x1077 JUMP JUMPDEST CALLVALUE DUP1 ISZERO PUSH2 0x3EF JUMPI PUSH1 0x0 DUP1 REVERT JUMPDEST POP PUSH2 0x302 PUSH2 0x3FE CALLDATASIZE PUSH1 0x4 PUSH2 0x4309 JUMP JUMPDEST PUSH2 0x1092 JUMP JUMPDEST CALLVALUE DUP1 ISZERO PUSH2 0x40F JUMPI PUSH1 0x0 DUP1 REVERT JUMPDEST POP PUSH2 0x302 PUSH2 0x41E CALLDATASIZE PUSH1 0x4 PUSH2 0x425E JUMP JUMPDEST PUSH2 0x1129 JUMP JUMPDEST CALLVALUE DUP1 ISZERO PUSH2 0x42F JUMPI PUSH1 0x0 DUP1 REVERT JUMPDEST POP PUSH2 0x302 PUSH2 0x43E CALLDATASIZE PUSH1 0x4 PUSH2 0x435D JUMP JUMPDEST PUSH2 0x1181 JUMP JUMPDEST CALLVALUE DUP1 ISZERO PUSH2 0x44F JUMPI PUSH1 0x0 DUP1 REVERT JUMPDEST POP PUSH2 0x302 PUSH2 0x45E CALLDATASIZE PUSH1 0x4 PUSH2 0x435D JUMP JUMPDEST PUSH2 0x12D3 JUMP JUMPDEST CALLVALUE DUP1 ISZERO PUSH2 0x46F JUMPI PUSH1 0x0 DUP1 REVERT JUMPDEST POP PUSH2 0x302 PUSH2 0x47E CALLDATASIZE PUSH1 0x4 PUSH2 0x44B6 JUMP JUMPDEST PUSH2 0x140B JUMP JUMPDEST CALLVALUE DUP1 ISZERO PUSH2 0x48F JUMPI PUSH1 0x0 DUP1 REVERT JUMPDEST POP PUSH2 0x373 PUSH32 0x52941335797217779AB62CF10A3AE2B6D453B5F3A1285E7A816EB9F63A58D669 DUP2 JUMP JUMPDEST CALLVALUE DUP1 ISZERO PUSH2 0x4C3 JUMPI PUSH1 0x0 DUP1 REVERT JUMPDEST POP PUSH2 0x4D7 PUSH2 0x4D2 CALLDATASIZE PUSH1 0x4 PUSH2 0x456E JUMP JUMPDEST PUSH2 0x1741 JUMP JUMPDEST PUSH1 0x40 DUP1 MLOAD SWAP9 DUP10 MSTORE PUSH1 0x20 DUP10 ADD SWAP8 SWAP1 SWAP8 MSTORE SWAP6 DUP8 ADD SWAP5 SWAP1 SWAP5 MSTORE PUSH1 0x60 DUP7 ADD SWAP3 SWAP1 SWAP3 MSTORE PUSH1 0x80 DUP6 ADD MSTORE PUSH1 0xA0 DUP5 ADD MSTORE PUSH1 0xC0 DUP4 ADD MSTORE PUSH5 0xFFFFFFFFFF AND PUSH1 0xE0 DUP3 ADD MSTORE PUSH2 0x100 ADD PUSH2 0x331 JUMP JUMPDEST CALLVALUE DUP1 ISZERO PUSH2 0x525 JUMPI PUSH1 0x0 DUP1 REVERT JUMPDEST POP PUSH2 0x549 PUSH2 0x534 CALLDATASIZE PUSH1 0x4 PUSH2 0x422D JUMP JUMPDEST PUSH1 0x12 PUSH1 0x20 MSTORE PUSH1 0x0 SWAP1 DUP2 MSTORE PUSH1 0x40 SWAP1 KECCAK256 SLOAD PUSH1 0xFF AND DUP2 JUMP JUMPDEST PUSH1 0x40 MLOAD SWAP1 ISZERO ISZERO DUP2 MSTORE PUSH1 0x20 ADD PUSH2 0x331 JUMP JUMPDEST CALLVALUE DUP1 ISZERO PUSH2 0x565 JUMPI PUSH1 0x0 DUP1 REVERT JUMPDEST POP PUSH1 0xA SLOAD PUSH2 0x324 SWAP1 PUSH1 0x1 PUSH1 0x1 PUSH1 0xA0 SHL SUB AND DUP2 JUMP JUMPDEST CALLVALUE DUP1 ISZERO PUSH2 0x585 JUMPI PUSH1 0x0 DUP1 REVERT JUMPDEST POP PUSH1 0x0 SLOAD PUSH2 0x594 SWAP1 PUSH2 0xFFFF AND DUP2 JUMP JUMPDEST PUSH1 0x40 MLOAD PUSH2 0xFFFF SWAP1 SWAP2 AND DUP2 MSTORE PUSH1 0x20 ADD PUSH2 0x331 JUMP JUMPDEST CALLVALUE DUP1 ISZERO PUSH2 0x5B3 JUMPI PUSH1 0x0 DUP1 REVERT JUMPDEST POP PUSH2 0x549 PUSH2 0x5C2 CALLDATASIZE PUSH1 0x4 PUSH2 0x4309 JUMP JUMPDEST PUSH2 0x1B15 JUMP JUMPDEST CALLVALUE DUP1 ISZERO PUSH2 0x5D3 JUMPI PUSH1 0x0 DUP1 REVERT JUMPDEST POP PUSH2 0x302 PUSH2 0x5E2 CALLDATASIZE PUSH1 0x4 PUSH2 0x4309 JUMP JUMPDEST PUSH2 0x1BE1 JUMP JUMPDEST CALLVALUE DUP1 ISZERO PUSH2 0x5F3 JUMPI PUSH1 0x0 DUP1 REVERT JUMPDEST POP PUSH1 0x6 SLOAD PUSH2 0x549 SWAP1 PUSH1 0xFF AND DUP2 JUMP JUMPDEST PUSH2 0x302 PUSH2 0x60F CALLDATASIZE PUSH1 0x4 PUSH2 0x459C JUMP JUMPDEST PUSH2 0x1C67 JUMP JUMPDEST CALLVALUE DUP1 ISZERO PUSH2 0x620 JUMPI PUSH1 0x0 DUP1 REVERT JUMPDEST POP PUSH2 0x549 PUSH2 0x62F CALLDATASIZE PUSH1 0x4 PUSH2 0x422D JUMP JUMPDEST PUSH1 0x9 PUSH1 0x20 MSTORE PUSH1 0x0 SWAP1 DUP2 MSTORE PUSH1 0x40 SWAP1 KECCAK256 SLOAD PUSH1 0xFF AND DUP2 JUMP JUMPDEST CALLVALUE DUP1 ISZERO PUSH2 0x650 JUMPI PUSH1 0x0 DUP1 REVERT JUMPDEST POP PUSH2 0x302 PUSH2 0x65F CALLDATASIZE PUSH1 0x4 PUSH2 0x45C8 JUMP JUMPDEST PUSH2 0x212E JUMP JUMPDEST CALLVALUE DUP1 ISZERO PUSH2 0x670 JUMPI PUSH1 0x0 DUP1 REVERT JUMPDEST POP PUSH2 0x3B6 PUSH2 0x67F CALLDATASIZE PUSH1 0x4 PUSH2 0x422D JUMP JUMPDEST PUSH2 0x220F JUMP JUMPDEST PUSH2 0x302 PUSH2 0x692 CALLDATASIZE PUSH1 0x4 PUSH2 0x45E6 JUMP JUMPDEST PUSH2 0x22A3 JUMP JUMPDEST CALLVALUE DUP1 ISZERO PUSH2 0x6A3 JUMPI PUSH1 0x0 DUP1 REVERT JUMPDEST POP PUSH2 0x6B7 PUSH2 0x6B2 CALLDATASIZE PUSH1 0x4 PUSH2 0x422D JUMP JUMPDEST PUSH2 0x23CF JUMP JUMPDEST PUSH1 0x40 DUP1 MLOAD SWAP3 DUP4 MSTORE PUSH1 0x20 DUP4 ADD SWAP2 SWAP1 SWAP2 MSTORE ADD PUSH2 0x331 JUMP JUMPDEST CALLVALUE DUP1 ISZERO PUSH2 0x6D8 JUMPI PUSH1 0x0 DUP1 REVERT JUMPDEST POP PUSH2 0x373 PUSH2 0x6E7 CALLDATASIZE PUSH1 0x4 PUSH2 0x4677 JUMP JUMPDEST PUSH1 0x10 PUSH1 0x20 SWAP1 DUP2 MSTORE PUSH1 0x0 SWAP4 DUP5 MSTORE PUSH1 0x40 DUP1 DUP6 KECCAK256 DUP5 MLOAD DUP1 DUP7 ADD DUP5 ADD DUP1 MLOAD SWAP3 DUP2 MSTORE SWAP1 DUP5 ADD SWAP6 DUP5 ADD SWAP6 SWAP1 SWAP6 KECCAK256 SWAP5 MSTORE SWAP3 SWAP1 MSTORE DUP3 MSTORE SWAP1 KECCAK256 SLOAD DUP2 JUMP JUMPDEST CALLVALUE DUP1 ISZERO PUSH2 0x727 JUMPI PUSH1 0x0 DUP1 REVERT JUMPDEST POP PUSH2 0x777 PUSH2 0x736 CALLDATASIZE PUSH1 0x4 PUSH2 0x422D JUMP JUMPDEST PUSH1 0x3 PUSH1 0x20 DUP2 SWAP1 MSTORE PUSH1 0x0 SWAP2 DUP3 MSTORE PUSH1 0x40 SWAP1 SWAP2 KECCAK256 DUP1 SLOAD PUSH1 0x1 DUP3 ADD SLOAD SWAP3 DUP3 ADD SLOAD PUSH1 0x4 DUP4 ADD SLOAD PUSH1 0x6 DUP5 ADD SLOAD PUSH1 0x7 SWAP1 SWAP5 ADD SLOAD PUSH1 0x1 PUSH1 0x1 PUSH1 0xA0 SHL SUB SWAP1 SWAP4 AND SWAP5 SWAP4 SWAP2 SWAP3 SWAP1 SWAP2 SWAP1 DUP7 JUMP JUMPDEST PUSH1 0x40 DUP1 MLOAD PUSH1 0x1 PUSH1 0x1 PUSH1 0xA0 SHL SUB SWAP1 SWAP8 AND DUP8 MSTORE PUSH1 0x20 DUP8 ADD SWAP6 SWAP1 SWAP6 MSTORE SWAP4 DUP6 ADD SWAP3 SWAP1 SWAP3 MSTORE PUSH1 0x60 DUP5 ADD MSTORE PUSH1 0x80 DUP4 ADD MSTORE PUSH1 0xA0 DUP3 ADD MSTORE PUSH1 0xC0 ADD PUSH2 0x331 JUMP JUMPDEST CALLVALUE DUP1 ISZERO PUSH2 0x7BA JUMPI PUSH1 0x0 DUP1 REVERT JUMPDEST POP PUSH2 0x302 PUSH2 0x7C9 CALLDATASIZE PUSH1 0x4 PUSH2 0x4183 JUMP JUMPDEST PUSH2 0x2488 JUMP JUMPDEST CALLVALUE DUP1 ISZERO PUSH2 0x7DA JUMPI PUSH1 0x0 DUP1 REVERT JUMPDEST POP PUSH2 0x373 PUSH2 0x7E9 CALLDATASIZE PUSH1 0x4 PUSH2 0x422D JUMP JUMPDEST PUSH2 0x2564 JUMP JUMPDEST CALLVALUE DUP1 ISZERO PUSH2 0x7FA JUMPI PUSH1 0x0 DUP1 REVERT JUMPDEST POP PUSH2 0x302 PUSH2 0x809 CALLDATASIZE PUSH1 0x4 PUSH2 0x46D6 JUMP JUMPDEST PUSH2 0x2656 JUMP JUMPDEST CALLVALUE DUP1 ISZERO PUSH2 0x81A JUMPI PUSH1 0x0 DUP1 REVERT JUMPDEST POP PUSH2 0x302 PUSH2 0x269C JUMP JUMPDEST CALLVALUE DUP1 ISZERO PUSH2 0x82F JUMPI PUSH1 0x0 DUP1 REVERT JUMPDEST POP PUSH2 0x3B6 PUSH2 0x83E CALLDATASIZE PUSH1 0x4 PUSH2 0x425E JUMP JUMPDEST PUSH2 0x26B0 JUMP JUMPDEST CALLVALUE DUP1 ISZERO PUSH2 0x84F JUMPI PUSH1 0x0 DUP1 REVERT JUMPDEST POP PUSH2 0x302 PUSH2 0x26C9 JUMP JUMPDEST CALLVALUE DUP1 ISZERO PUSH2 0x864 JUMPI PUSH1 0x0 DUP1 REVERT JUMPDEST POP PUSH2 0x373 PUSH2 0x873 CALLDATASIZE PUSH1 0x4 PUSH2 0x422D JUMP JUMPDEST PUSH1 0x1 PUSH1 0x1 PUSH1 0xA0 SHL SUB AND PUSH1 0x0 SWAP1 DUP2 MSTORE PUSH1 0x11 PUSH1 0x20 MSTORE PUSH1 0x40 SWAP1 KECCAK256 SLOAD SWAP1 JUMP JUMPDEST CALLVALUE DUP1 ISZERO PUSH2 0x89A JUMPI PUSH1 0x0 DUP1 REVERT JUMPDEST POP PUSH2 0x373 PUSH2 0x8A9 CALLDATASIZE PUSH1 0x4 PUSH2 0x456E JUMP JUMPDEST PUSH2 0x2747 JUMP JUMPDEST CALLVALUE DUP1 ISZERO PUSH2 0x8BA JUMPI PUSH1 0x0 DUP1 REVERT JUMPDEST POP PUSH1 0x1 SLOAD PUSH2 0x324 SWAP1 PUSH1 0x1 PUSH1 0x1 PUSH1 0xA0 SHL SUB AND DUP2 JUMP JUMPDEST CALLVALUE DUP1 ISZERO PUSH2 0x8DA JUMPI PUSH1 0x0 DUP1 REVERT JUMPDEST POP PUSH2 0x373 PUSH2 0x8E9 CALLDATASIZE PUSH1 0x4 PUSH2 0x46F4 JUMP JUMPDEST PUSH1 0xE PUSH1 0x20 SWAP1 DUP2 MSTORE PUSH1 0x0 SWAP3 DUP4 MSTORE PUSH1 0x40 DUP1 DUP5 KECCAK256 SWAP1 SWAP2 MSTORE SWAP1 DUP3 MSTORE SWAP1 KECCAK256 SLOAD DUP2 JUMP JUMPDEST CALLVALUE DUP1 ISZERO PUSH2 0x912 JUMPI PUSH1 0x0 DUP1 REVERT JUMPDEST POP PUSH2 0x324 PUSH2 0x277A JUMP JUMPDEST CALLVALUE DUP1 ISZERO PUSH2 0x927 JUMPI PUSH1 0x0 DUP1 REVERT JUMPDEST POP PUSH2 0x549 PUSH2 0x936 CALLDATASIZE PUSH1 0x4 PUSH2 0x435D JUMP JUMPDEST PUSH2 0x2789 JUMP JUMPDEST CALLVALUE DUP1 ISZERO PUSH2 0x947 JUMPI PUSH1 0x0 DUP1 REVERT JUMPDEST POP PUSH1 0xF SLOAD PUSH2 0x324 SWAP1 PUSH1 0x1 PUSH1 0x1 PUSH1 0xA0 SHL SUB AND DUP2 JUMP JUMPDEST CALLVALUE DUP1 ISZERO PUSH2 0x967 JUMPI PUSH1 0x0 DUP1 REVERT JUMPDEST POP PUSH2 0x3B6 PUSH2 0x976 CALLDATASIZE PUSH1 0x4 PUSH2 0x425E JUMP JUMPDEST PUSH2 0x27B4 JUMP JUMPDEST CALLVALUE DUP1 ISZERO PUSH2 0x987 JUMPI PUSH1 0x0 DUP1 REVERT JUMPDEST POP PUSH2 0x373 PUSH1 0x0 DUP2 JUMP JUMPDEST CALLVALUE DUP1 ISZERO PUSH2 0x99C JUMPI PUSH1 0x0 DUP1 REVERT JUMPDEST POP PUSH2 0x302 PUSH2 0x9AB CALLDATASIZE PUSH1 0x4 PUSH2 0x4722 JUMP JUMPDEST PUSH2 0x28C3 JUMP JUMPDEST CALLVALUE DUP1 ISZERO PUSH2 0x9BC JUMPI PUSH1 0x0 DUP1 REVERT JUMPDEST POP PUSH2 0x302 PUSH2 0x9CB CALLDATASIZE PUSH1 0x4 PUSH2 0x4750 JUMP JUMPDEST PUSH2 0x28F6 JUMP JUMPDEST CALLVALUE DUP1 ISZERO PUSH2 0x9DC JUMPI PUSH1 0x0 DUP1 REVERT JUMPDEST POP PUSH2 0x302 PUSH2 0x9EB CALLDATASIZE PUSH1 0x4 PUSH2 0x4309 JUMP JUMPDEST PUSH2 0x2965 JUMP JUMPDEST CALLVALUE DUP1 ISZERO PUSH2 0x9FC JUMPI PUSH1 0x0 DUP1 REVERT JUMPDEST POP PUSH2 0x302 PUSH2 0xA0B CALLDATASIZE PUSH1 0x4 PUSH2 0x4796 JUMP JUMPDEST PUSH2 0x29E1 JUMP JUMPDEST CALLVALUE DUP1 ISZERO PUSH2 0xA1C JUMPI PUSH1 0x0 DUP1 REVERT JUMPDEST POP PUSH2 0x324 PUSH2 0xA2B CALLDATASIZE PUSH1 0x4 PUSH2 0x4818 JUMP JUMPDEST PUSH2 0x2A6E JUMP JUMPDEST CALLVALUE DUP1 ISZERO PUSH2 0xA3C JUMPI PUSH1 0x0 DUP1 REVERT JUMPDEST POP PUSH2 0x324 PUSH32 0x0 DUP2 JUMP JUMPDEST CALLVALUE DUP1 ISZERO PUSH2 0xA70 JUMPI PUSH1 0x0 DUP1 REVERT JUMPDEST POP PUSH2 0x373 PUSH2 0xA7F CALLDATASIZE PUSH1 0x4 PUSH2 0x45E6 JUMP JUMPDEST PUSH2 0x2AFB JUMP JUMPDEST CALLVALUE DUP1 ISZERO PUSH2 0xA90 JUMPI PUSH1 0x0 DUP1 REVERT JUMPDEST POP PUSH2 0x302 PUSH2 0xA9F CALLDATASIZE PUSH1 0x4 PUSH2 0x422D JUMP JUMPDEST PUSH2 0x2B4D JUMP JUMPDEST CALLVALUE DUP1 ISZERO PUSH2 0xAB0 JUMPI PUSH1 0x0 DUP1 REVERT JUMPDEST POP PUSH2 0x373 PUSH2 0xABF CALLDATASIZE PUSH1 0x4 PUSH2 0x45E6 JUMP JUMPDEST PUSH1 0x7 PUSH1 0x20 MSTORE PUSH1 0x0 SWAP1 DUP2 MSTORE PUSH1 0x40 SWAP1 KECCAK256 PUSH1 0x1 ADD SLOAD DUP2 JUMP JUMPDEST CALLVALUE DUP1 ISZERO PUSH2 0xAE0 JUMPI PUSH1 0x0 DUP1 REVERT JUMPDEST POP PUSH1 0x0 SLOAD PUSH2 0x324 SWAP1 PUSH3 0x10000 SWAP1 DIV PUSH1 0x1 PUSH1 0x1 PUSH1 0xA0 SHL SUB AND DUP2 JUMP JUMPDEST CALLVALUE DUP1 ISZERO PUSH2 0xB06 JUMPI PUSH1 0x0 DUP1 REVERT JUMPDEST POP PUSH2 0x373 PUSH2 0xB15 CALLDATASIZE PUSH1 0x4 PUSH2 0x422D JUMP JUMPDEST PUSH1 0x11 PUSH1 0x20 MSTORE PUSH1 0x0 SWAP1 DUP2 MSTORE PUSH1 0x40 SWAP1 KECCAK256 SLOAD DUP2 JUMP JUMPDEST CALLVALUE DUP1 ISZERO PUSH2 0xB33 JUMPI PUSH1 0x0 DUP1 REVERT JUMPDEST POP PUSH2 0x302 PUSH2 0xB42 CALLDATASIZE PUSH1 0x4 PUSH2 0x4854 JUMP JUMPDEST PUSH2 0x2BAB JUMP JUMPDEST PUSH2 0x302 PUSH2 0xB55 CALLDATASIZE PUSH1 0x4 PUSH2 0x4183 JUMP JUMPDEST PUSH2 0x2C07 JUMP JUMPDEST CALLVALUE DUP1 ISZERO PUSH2 0xB66 JUMPI PUSH1 0x0 DUP1 REVERT JUMPDEST POP PUSH2 0x302 PUSH2 0xB75 CALLDATASIZE PUSH1 0x4 PUSH2 0x48B5 JUMP JUMPDEST PUSH2 0x2E1D JUMP JUMPDEST CALLVALUE DUP1 ISZERO PUSH2 0xB86 JUMPI PUSH1 0x0 DUP1 REVERT JUMPDEST POP PUSH2 0x302 PUSH2 0xB95 CALLDATASIZE PUSH1 0x4 PUSH2 0x422D JUMP JUMPDEST PUSH2 0x2ECF JUMP JUMPDEST CALLVALUE DUP1 ISZERO PUSH2 0xBA6 JUMPI PUSH1 0x0 DUP1 REVERT JUMPDEST POP PUSH2 0x324 PUSH2 0xBB5 CALLDATASIZE PUSH1 0x4 PUSH2 0x425E JUMP JUMPDEST PUSH2 0x2EEF JUMP JUMPDEST CALLVALUE DUP1 ISZERO PUSH2 0xBC6 JUMPI PUSH1 0x0 DUP1 REVERT JUMPDEST POP PUSH2 0x324 PUSH2 0x3021 JUMP JUMPDEST CALLVALUE DUP1 ISZERO PUSH2 0xBDB JUMPI PUSH1 0x0 DUP1 REVERT JUMPDEST POP PUSH2 0x302 PUSH2 0xBEA CALLDATASIZE PUSH1 0x4 PUSH2 0x4309 JUMP JUMPDEST PUSH2 0x3030 JUMP JUMPDEST CALLVALUE DUP1 ISZERO PUSH2 0xBFB JUMPI PUSH1 0x0 DUP1 REVERT JUMPDEST POP PUSH2 0x302 PUSH2 0xC0A CALLDATASIZE PUSH1 0x4 PUSH2 0x422D JUMP JUMPDEST PUSH2 0x308A JUMP JUMPDEST CALLVALUE DUP1 ISZERO PUSH2 0xC1B JUMPI PUSH1 0x0 DUP1 REVERT JUMPDEST POP PUSH2 0x3B6 PUSH2 0xC2A CALLDATASIZE PUSH1 0x4 PUSH2 0x48F6 JUMP JUMPDEST PUSH2 0x30F0 JUMP JUMPDEST CALLVALUE DUP1 ISZERO PUSH2 0xC3B JUMPI PUSH1 0x0 DUP1 REVERT JUMPDEST POP PUSH2 0xC4F PUSH2 0xC4A CALLDATASIZE PUSH1 0x4 PUSH2 0x422D JUMP JUMPDEST PUSH2 0x3193 JUMP JUMPDEST PUSH1 0x40 MLOAD PUSH2 0x331 SWAP6 SWAP5 SWAP4 SWAP3 SWAP2 SWAP1 PUSH2 0x49BB JUMP JUMPDEST CALLVALUE DUP1 ISZERO PUSH2 0xC6C JUMPI PUSH1 0x0 DUP1 REVERT JUMPDEST POP PUSH2 0x373 PUSH1 0x0 DUP1 MLOAD PUSH1 0x20 PUSH2 0x570C DUP4 CODECOPY DUP2 MLOAD SWAP2 MSTORE DUP2 JUMP JUMPDEST CALLVALUE DUP1 ISZERO PUSH2 0xC8E JUMPI PUSH1 0x0 DUP1 REVERT JUMPDEST POP PUSH2 0x549 PUSH2 0xC9D CALLDATASIZE PUSH1 0x4 PUSH2 0x422D JUMP JUMPDEST PUSH1 0x4 PUSH1 0x20 MSTORE PUSH1 0x0 SWAP1 DUP2 MSTORE PUSH1 0x40 SWAP1 KECCAK256 SLOAD PUSH1 0xFF AND DUP2 JUMP JUMPDEST CALLER PUSH32 0x0 PUSH1 0x1 PUSH1 0x1 PUSH1 0xA0 SHL SUB AND EQ PUSH2 0xD2F JUMPI PUSH1 0x40 MLOAD PUSH3 0x461BCD PUSH1 0xE5 SHL DUP2 MSTORE PUSH1 0x20 PUSH1 0x4 DUP3 ADD MSTORE PUSH1 0x1E PUSH1 0x24 DUP3 ADD MSTORE PUSH32 0x4C7A4170703A20696E76616C696420656E64706F696E742063616C6C65720000 PUSH1 0x44 DUP3 ADD MSTORE PUSH1 0x64 ADD JUMPDEST PUSH1 0x40 MLOAD DUP1 SWAP2 SUB SWAP1 REVERT JUMPDEST PUSH2 0xFFFF DUP7 AND PUSH1 0x0 SWAP1 DUP2 MSTORE PUSH1 0xD PUSH1 0x20 MSTORE PUSH1 0x40 DUP2 KECCAK256 DUP1 SLOAD PUSH2 0xD4D SWAP1 PUSH2 0x4A07 JUMP JUMPDEST DUP1 PUSH1 0x1F ADD PUSH1 0x20 DUP1 SWAP2 DIV MUL PUSH1 0x20 ADD PUSH1 0x40 MLOAD SWAP1 DUP2 ADD PUSH1 0x40 MSTORE DUP1 SWAP3 SWAP2 SWAP1 DUP2 DUP2 MSTORE PUSH1 0x20 ADD DUP3 DUP1 SLOAD PUSH2 0xD79 SWAP1 PUSH2 0x4A07 JUMP JUMPDEST DUP1 ISZERO PUSH2 0xDC6 JUMPI DUP1 PUSH1 0x1F LT PUSH2 0xD9B JUMPI PUSH2 0x100 DUP1 DUP4 SLOAD DIV MUL DUP4 MSTORE SWAP2 PUSH1 0x20 ADD SWAP2 PUSH2 0xDC6 JUMP JUMPDEST DUP3 ADD SWAP2 SWAP1 PUSH1 0x0 MSTORE PUSH1 0x20 PUSH1 0x0 KECCAK256 SWAP1 JUMPDEST DUP2 SLOAD DUP2 MSTORE SWAP1 PUSH1 0x1 ADD SWAP1 PUSH1 0x20 ADD DUP1 DUP4 GT PUSH2 0xDA9 JUMPI DUP3 SWAP1 SUB PUSH1 0x1F AND DUP3 ADD SWAP2 JUMPDEST POP POP POP POP POP SWAP1 POP DUP1 MLOAD DUP7 DUP7 SWAP1 POP EQ DUP1 ISZERO PUSH2 0xDE1 JUMPI POP PUSH1 0x0 DUP2 MLOAD GT JUMPDEST DUP1 ISZERO PUSH2 0xE09 JUMPI POP DUP1 MLOAD PUSH1 0x20 DUP3 ADD KECCAK256 PUSH1 0x40 MLOAD PUSH2 0xDFF SWAP1 DUP9 SWAP1 DUP9 SWAP1 PUSH2 0x4A41 JUMP JUMPDEST PUSH1 0x40 MLOAD DUP1 SWAP2 SUB SWAP1 KECCAK256 EQ JUMPDEST PUSH2 0xE64 JUMPI PUSH1 0x40 MLOAD PUSH3 0x461BCD PUSH1 0xE5 SHL DUP2 MSTORE PUSH1 0x20 PUSH1 0x4 DUP3 ADD MSTORE PUSH1 0x26 PUSH1 0x24 DUP3 ADD MSTORE PUSH32 0x4C7A4170703A20696E76616C696420736F757263652073656E64696E6720636F PUSH1 0x44 DUP3 ADD MSTORE PUSH6 0x1B9D1C9858DD PUSH1 0xD2 SHL PUSH1 0x64 DUP3 ADD MSTORE PUSH1 0x84 ADD PUSH2 0xD26 JUMP JUMPDEST PUSH2 0xEDA DUP8 DUP8 DUP8 DUP1 DUP1 PUSH1 0x1F ADD PUSH1 0x20 DUP1 SWAP2 DIV MUL PUSH1 0x20 ADD PUSH1 0x40 MLOAD SWAP1 DUP2 ADD PUSH1 0x40 MSTORE DUP1 SWAP4 SWAP3 SWAP2 SWAP1 DUP2 DUP2 MSTORE PUSH1 0x20 ADD DUP4 DUP4 DUP1 DUP3 DUP5 CALLDATACOPY PUSH1 0x0 SWAP3 ADD SWAP2 SWAP1 SWAP2 MSTORE POP POP PUSH1 0x40 DUP1 MLOAD PUSH1 0x20 PUSH1 0x1F DUP11 ADD DUP2 SWAP1 DIV DUP2 MUL DUP3 ADD DUP2 ADD SWAP1 SWAP3 MSTORE DUP9 DUP2 MSTORE DUP11 SWAP4 POP SWAP2 POP DUP9 SWAP1 DUP9 SWAP1 DUP2 SWAP1 DUP5 ADD DUP4 DUP3 DUP1 DUP3 DUP5 CALLDATACOPY PUSH1 0x0 SWAP3 ADD SWAP2 SWAP1 SWAP2 MSTORE POP PUSH2 0x3460 SWAP3 POP POP POP JUMP JUMPDEST POP POP POP POP POP POP POP JUMP JUMPDEST PUSH1 0x1 SLOAD PUSH1 0x40 MLOAD PUSH4 0x35EA6A75 PUSH1 0xE0 SHL DUP2 MSTORE PUSH1 0x0 SWAP2 PUSH1 0x1 PUSH1 0x1 PUSH1 0xA0 SHL SUB AND SWAP1 PUSH4 0x35EA6A75 SWAP1 PUSH2 0xF14 SWAP1 DUP6 SWAP1 PUSH1 0x4 ADD PUSH2 0x424A JUMP JUMPDEST PUSH2 0x180 PUSH1 0x40 MLOAD DUP1 DUP4 SUB DUP2 DUP7 GAS STATICCALL ISZERO DUP1 ISZERO PUSH2 0xF32 JUMPI RETURNDATASIZE PUSH1 0x0 DUP1 RETURNDATACOPY RETURNDATASIZE PUSH1 0x0 REVERT JUMPDEST POP POP POP POP PUSH1 0x40 MLOAD RETURNDATASIZE PUSH1 0x1F NOT PUSH1 0x1F DUP3 ADD AND DUP3 ADD DUP1 PUSH1 0x40 MSTORE POP DUP2 ADD SWAP1 PUSH2 0xF56 SWAP2 SWAP1 PUSH2 0x4ADA JUMP JUMPDEST PUSH1 0xE0 ADD MLOAD SWAP3 SWAP2 POP POP JUMP JUMPDEST PUSH2 0xF68 PUSH2 0x34D9 JUMP JUMPDEST PUSH1 0x40 MLOAD PUSH4 0x7E0DB17 PUSH1 0xE0 SHL DUP2 MSTORE PUSH2 0xFFFF DUP3 AND PUSH1 0x4 DUP3 ADD MSTORE PUSH32 0x0 PUSH1 0x1 PUSH1 0x1 PUSH1 0xA0 SHL SUB AND SWAP1 PUSH4 0x7E0DB17 SWAP1 PUSH1 0x24 ADD JUMPDEST PUSH1 0x0 PUSH1 0x40 MLOAD DUP1 DUP4 SUB DUP2 PUSH1 0x0 DUP8 DUP1 EXTCODESIZE ISZERO DUP1 ISZERO PUSH2 0xFCE JUMPI PUSH1 0x0 DUP1 REVERT JUMPDEST POP GAS CALL ISZERO DUP1 ISZERO PUSH2 0xFE2 JUMPI RETURNDATASIZE PUSH1 0x0 DUP1 RETURNDATACOPY RETURNDATASIZE PUSH1 0x0 REVERT JUMPDEST POP POP POP POP POP JUMP JUMPDEST PUSH1 0x2 DUP1 SLOAD PUSH2 0xFF6 SWAP1 PUSH2 0x4A07 JUMP JUMPDEST DUP1 PUSH1 0x1F ADD PUSH1 0x20 DUP1 SWAP2 DIV MUL PUSH1 0x20 ADD PUSH1 0x40 MLOAD SWAP1 DUP2 ADD PUSH1 0x40 MSTORE DUP1 SWAP3 SWAP2 SWAP1 DUP2 DUP2 MSTORE PUSH1 0x20 ADD DUP3 DUP1 SLOAD PUSH2 0x1022 SWAP1 PUSH2 0x4A07 JUMP JUMPDEST DUP1 ISZERO PUSH2 0x106F JUMPI DUP1 PUSH1 0x1F LT PUSH2 0x1044 JUMPI PUSH2 0x100 DUP1 DUP4 SLOAD DIV MUL DUP4 MSTORE SWAP2 PUSH1 0x20 ADD SWAP2 PUSH2 0x106F JUMP JUMPDEST DUP3 ADD SWAP2 SWAP1 PUSH1 0x0 MSTORE PUSH1 0x20 PUSH1 0x0 KECCAK256 SWAP1 JUMPDEST DUP2 SLOAD DUP2 MSTORE SWAP1 PUSH1 0x1 ADD SWAP1 PUSH1 0x20 ADD DUP1 DUP4 GT PUSH2 0x1052 JUMPI DUP3 SWAP1 SUB PUSH1 0x1F AND DUP3 ADD SWAP2 JUMPDEST POP POP POP POP POP DUP2 JUMP JUMPDEST PUSH2 0x107F PUSH2 0x34D9 JUMP JUMPDEST PUSH1 0x6 DUP1 SLOAD PUSH1 0xFF NOT AND SWAP2 ISZERO ISZERO SWAP2 SWAP1 SWAP2 OR SWAP1 SSTORE JUMP JUMPDEST PUSH1 0x40 MLOAD PUSH4 0x757B753 PUSH1 0xE1 SHL DUP2 MSTORE PUSH1 0x1 PUSH1 0x1 PUSH1 0xA0 SHL SUB PUSH32 0x0 AND SWAP1 PUSH4 0xEAF6EA6 SWAP1 PUSH2 0x10E2 SWAP1 DUP7 SWAP1 DUP7 SWAP1 DUP7 SWAP1 PUSH1 0x4 ADD PUSH2 0x4BF0 JUMP JUMPDEST PUSH1 0x20 PUSH1 0x40 MLOAD DUP1 DUP4 SUB DUP2 DUP7 GAS STATICCALL ISZERO DUP1 ISZERO PUSH2 0x10FF JUMPI RETURNDATASIZE PUSH1 0x0 DUP1 RETURNDATACOPY RETURNDATASIZE PUSH1 0x0 REVERT JUMPDEST POP POP POP POP PUSH1 0x40 MLOAD RETURNDATASIZE PUSH1 0x1F NOT PUSH1 0x1F DUP3 ADD AND DUP3 ADD DUP1 PUSH1 0x40 MSTORE POP DUP2 ADD SWAP1 PUSH2 0x1123 SWAP2 SWAP1 PUSH2 0x4C19 JUMP JUMPDEST POP POP POP POP JUMP JUMPDEST PUSH2 0x1131 PUSH2 0x34D9 JUMP JUMPDEST PUSH1 0x40 MLOAD PUSH4 0x10DDB137 PUSH1 0xE0 SHL DUP2 MSTORE PUSH2 0xFFFF DUP3 AND PUSH1 0x4 DUP3 ADD MSTORE PUSH32 0x0 PUSH1 0x1 PUSH1 0x1 PUSH1 0xA0 SHL SUB AND SWAP1 PUSH4 0x10DDB137 SWAP1 PUSH1 0x24 ADD PUSH2 0xFB4 JUMP JUMPDEST PUSH1 0x6 SLOAD PUSH1 0xFF AND ISZERO ISZERO PUSH1 0x1 EQ PUSH2 0x11A8 JUMPI PUSH1 0x40 MLOAD PUSH3 0x461BCD PUSH1 0xE5 SHL DUP2 MSTORE PUSH1 0x4 ADD PUSH2 0xD26 SWAP1 PUSH2 0x4C36 JUMP JUMPDEST CALLER PUSH1 0x0 SWAP1 DUP2 MSTORE PUSH1 0x11 PUSH1 0x20 MSTORE PUSH1 0x40 SWAP1 KECCAK256 SLOAD DUP3 GT ISZERO PUSH2 0x11FE JUMPI PUSH1 0x40 MLOAD PUSH3 0x461BCD PUSH1 0xE5 SHL DUP2 MSTORE PUSH1 0x20 PUSH1 0x4 DUP3 ADD MSTORE PUSH1 0x14 PUSH1 0x24 DUP3 ADD MSTORE PUSH20 0x4E6F742073756666696369656E742066756E6473 PUSH1 0x60 SHL PUSH1 0x44 DUP3 ADD MSTORE PUSH1 0x64 ADD PUSH2 0xD26 JUMP JUMPDEST CALLER PUSH1 0x0 SWAP1 DUP2 MSTORE PUSH1 0x11 PUSH1 0x20 MSTORE PUSH1 0x40 DUP2 KECCAK256 DUP1 SLOAD DUP5 SWAP3 SWAP1 PUSH2 0x121D SWAP1 DUP5 SWAP1 PUSH2 0x4C6D JUMP JUMPDEST SWAP1 SWAP2 SSTORE POP POP PUSH1 0x40 MLOAD PUSH4 0xA9059CBB PUSH1 0xE0 SHL DUP2 MSTORE PUSH1 0x1 PUSH1 0x1 PUSH1 0xA0 SHL SUB DUP3 AND SWAP1 PUSH4 0xA9059CBB SWAP1 PUSH2 0x1250 SWAP1 CALLER SWAP1 DUP7 SWAP1 PUSH1 0x4 ADD PUSH2 0x4C80 JUMP JUMPDEST PUSH1 0x20 PUSH1 0x40 MLOAD DUP1 DUP4 SUB DUP2 PUSH1 0x0 DUP8 GAS CALL ISZERO DUP1 ISZERO PUSH2 0x126F JUMPI RETURNDATASIZE PUSH1 0x0 DUP1 RETURNDATACOPY RETURNDATASIZE PUSH1 0x0 REVERT JUMPDEST POP POP POP POP PUSH1 0x40 MLOAD RETURNDATASIZE PUSH1 0x1F NOT PUSH1 0x1F DUP3 ADD AND DUP3 ADD DUP1 PUSH1 0x40 MSTORE POP DUP2 ADD SWAP1 PUSH2 0x1293 SWAP2 SWAP1 PUSH2 0x4C19 JUMP JUMPDEST POP PUSH32 0xBB992170D0382FEEB939A59875390A636BD942134E6E58925CAF64C99432820A CALLER DUP3 DUP5 PUSH1 0x40 MLOAD PUSH2 0x12C7 SWAP4 SWAP3 SWAP2 SWAP1 PUSH2 0x4C99 JUMP JUMPDEST PUSH1 0x40 MLOAD DUP1 SWAP2 SUB SWAP1 LOG1 POP POP JUMP JUMPDEST PUSH1 0x1 PUSH1 0x1 PUSH1 0xA0 SHL SUB DUP2 AND PUSH2 0x1313 JUMPI PUSH1 0x40 MLOAD CALLER SWAP1 DUP4 ISZERO PUSH2 0x8FC MUL SWAP1 DUP5 SWAP1 PUSH1 0x0 DUP2 DUP2 DUP2 DUP6 DUP9 DUP9 CALL SWAP4 POP POP POP POP ISZERO DUP1 ISZERO PUSH2 0x130E JUMPI RETURNDATASIZE PUSH1 0x0 DUP1 RETURNDATACOPY RETURNDATASIZE PUSH1 0x0 REVERT JUMPDEST POP POP POP JUMP JUMPDEST PUSH1 0x1 PUSH1 0x1 PUSH1 0xA0 SHL SUB DUP2 AND PUSH1 0x0 SWAP1 DUP2 MSTORE PUSH1 0x4 PUSH1 0x20 MSTORE PUSH1 0x40 SWAP1 KECCAK256 SLOAD PUSH1 0xFF AND ISZERO ISZERO PUSH1 0x1 SUB PUSH2 0x1345 JUMPI PUSH1 0x0 PUSH2 0x1123 DUP3 DUP5 CALLER PUSH2 0x3538 JUMP JUMPDEST PUSH1 0x40 MLOAD PUSH4 0x95EA7B3 PUSH1 0xE0 SHL DUP2 MSTORE PUSH1 0x1 PUSH1 0x1 PUSH1 0xA0 SHL SUB DUP3 AND SWAP1 PUSH4 0x95EA7B3 SWAP1 PUSH2 0x1373 SWAP1 CALLER SWAP1 DUP7 SWAP1 PUSH1 0x4 ADD PUSH2 0x4C80 JUMP JUMPDEST PUSH1 0x20 PUSH1 0x40 MLOAD DUP1 DUP4 SUB DUP2 PUSH1 0x0 DUP8 GAS CALL ISZERO DUP1 ISZERO PUSH2 0x1392 JUMPI RETURNDATASIZE PUSH1 0x0 DUP1 RETURNDATACOPY RETURNDATASIZE PUSH1 0x0 REVERT JUMPDEST POP POP POP POP PUSH1 0x40 MLOAD RETURNDATASIZE PUSH1 0x1F NOT PUSH1 0x1F DUP3 ADD AND DUP3 ADD DUP1 PUSH1 0x40 MSTORE POP DUP2 ADD SWAP1 PUSH2 0x13B6 SWAP2 SWAP1 PUSH2 0x4C19 JUMP JUMPDEST POP PUSH1 0x40 MLOAD PUSH4 0xA9059CBB PUSH1 0xE0 SHL DUP2 MSTORE PUSH1 0x0 SWAP1 PUSH1 0x1 PUSH1 0x1 PUSH1 0xA0 SHL SUB DUP4 AND SWAP1 PUSH4 0xA9059CBB SWAP1 PUSH2 0x13E8 SWAP1 DUP6 SWAP1 DUP8 SWAP1 PUSH1 0x4 ADD PUSH2 0x4C80 JUMP JUMPDEST PUSH1 0x20 PUSH1 0x40 MLOAD DUP1 DUP4 SUB DUP2 PUSH1 0x0 DUP8 GAS CALL ISZERO DUP1 ISZERO PUSH2 0x10FF JUMPI RETURNDATASIZE PUSH1 0x0 DUP1 RETURNDATACOPY RETURNDATASIZE PUSH1 0x0 REVERT JUMPDEST POP POP JUMP JUMPDEST PUSH1 0x6 SLOAD PUSH1 0xFF AND ISZERO ISZERO PUSH1 0x1 EQ PUSH2 0x1432 JUMPI PUSH1 0x40 MLOAD PUSH3 0x461BCD PUSH1 0xE5 SHL DUP2 MSTORE PUSH1 0x4 ADD PUSH2 0xD26 SWAP1 PUSH2 0x4C36 JUMP JUMPDEST CALLER PUSH1 0x0 SWAP1 DUP2 MSTORE PUSH1 0x3 PUSH1 0x20 MSTORE PUSH1 0x40 SWAP1 KECCAK256 DUP2 MLOAD DUP4 MLOAD EQ PUSH2 0x1483 JUMPI PUSH1 0x40 MLOAD PUSH3 0x461BCD PUSH1 0xE5 SHL DUP2 MSTORE PUSH1 0x20 PUSH1 0x4 DUP3 ADD MSTORE PUSH1 0xE PUSH1 0x24 DUP3 ADD MSTORE PUSH14 0x82E4E4C2F240DAD2E6DAC2E8C6D PUSH1 0x93 SHL PUSH1 0x44 DUP3 ADD MSTORE PUSH1 0x64 ADD PUSH2 0xD26 JUMP JUMPDEST PUSH1 0x0 JUMPDEST DUP4 MLOAD DUP2 LT ISZERO PUSH2 0x1700 JUMPI PUSH1 0x0 DUP3 PUSH1 0x2 ADD PUSH1 0x0 DUP6 DUP5 DUP2 MLOAD DUP2 LT PUSH2 0x14A9 JUMPI PUSH2 0x14A9 PUSH2 0x4CBD JUMP JUMPDEST PUSH1 0x20 MUL PUSH1 0x20 ADD ADD MLOAD PUSH1 0x1 PUSH1 0x1 PUSH1 0xA0 SHL SUB AND PUSH1 0x1 PUSH1 0x1 PUSH1 0xA0 SHL SUB AND DUP2 MSTORE PUSH1 0x20 ADD SWAP1 DUP2 MSTORE PUSH1 0x20 ADD PUSH1 0x0 KECCAK256 SLOAD SWAP1 POP DUP5 DUP3 DUP2 MLOAD DUP2 LT PUSH2 0x14E6 JUMPI PUSH2 0x14E6 PUSH2 0x4CBD JUMP JUMPDEST PUSH1 0x20 MUL PUSH1 0x20 ADD ADD MLOAD DUP2 LT ISZERO PUSH2 0x150D JUMPI PUSH1 0x40 MLOAD PUSH3 0x461BCD PUSH1 0xE5 SHL DUP2 MSTORE PUSH1 0x4 ADD PUSH2 0xD26 SWAP1 PUSH2 0x4CD3 JUMP JUMPDEST DUP5 DUP3 DUP2 MLOAD DUP2 LT PUSH2 0x151F JUMPI PUSH2 0x151F PUSH2 0x4CBD JUMP JUMPDEST PUSH1 0x20 MUL PUSH1 0x20 ADD ADD MLOAD DUP4 PUSH1 0x2 ADD PUSH1 0x0 DUP7 DUP6 DUP2 MLOAD DUP2 LT PUSH2 0x153F JUMPI PUSH2 0x153F PUSH2 0x4CBD JUMP JUMPDEST PUSH1 0x20 MUL PUSH1 0x20 ADD ADD MLOAD PUSH1 0x1 PUSH1 0x1 PUSH1 0xA0 SHL SUB AND PUSH1 0x1 PUSH1 0x1 PUSH1 0xA0 SHL SUB AND DUP2 MSTORE PUSH1 0x20 ADD SWAP1 DUP2 MSTORE PUSH1 0x20 ADD PUSH1 0x0 KECCAK256 PUSH1 0x0 DUP3 DUP3 SLOAD PUSH2 0x1576 SWAP2 SWAP1 PUSH2 0x4C6D JUMP JUMPDEST SWAP1 SWAP2 SSTORE POP POP DUP4 MLOAD PUSH1 0x0 SWAP1 DUP6 SWAP1 DUP5 SWAP1 DUP2 LT PUSH2 0x1592 JUMPI PUSH2 0x1592 PUSH2 0x4CBD JUMP JUMPDEST PUSH1 0x20 MUL PUSH1 0x20 ADD ADD MLOAD PUSH1 0x1 PUSH1 0x1 PUSH1 0xA0 SHL SUB AND SUB PUSH2 0x1600 JUMPI CALLER PUSH1 0x1 PUSH1 0x1 PUSH1 0xA0 SHL SUB AND PUSH2 0x8FC DUP7 DUP5 DUP2 MLOAD DUP2 LT PUSH2 0x15C7 JUMPI PUSH2 0x15C7 PUSH2 0x4CBD JUMP JUMPDEST PUSH1 0x20 MUL PUSH1 0x20 ADD ADD MLOAD SWAP1 DUP2 ISZERO MUL SWAP1 PUSH1 0x40 MLOAD PUSH1 0x0 PUSH1 0x40 MLOAD DUP1 DUP4 SUB DUP2 DUP6 DUP9 DUP9 CALL SWAP4 POP POP POP POP ISZERO DUP1 ISZERO PUSH2 0x15FA JUMPI RETURNDATASIZE PUSH1 0x0 DUP1 RETURNDATACOPY RETURNDATASIZE PUSH1 0x0 REVERT JUMPDEST POP PUSH2 0x16ED JUMP JUMPDEST PUSH1 0x0 DUP5 DUP4 DUP2 MLOAD DUP2 LT PUSH2 0x1614 JUMPI PUSH2 0x1614 PUSH2 0x4CBD JUMP JUMPDEST PUSH1 0x20 MUL PUSH1 0x20 ADD ADD MLOAD PUSH1 0x1 PUSH1 0x1 PUSH1 0xA0 SHL SUB AND PUSH4 0xA9059CBB CALLER DUP9 DUP7 DUP2 MLOAD DUP2 LT PUSH2 0x163D JUMPI PUSH2 0x163D PUSH2 0x4CBD JUMP JUMPDEST PUSH1 0x20 MUL PUSH1 0x20 ADD ADD MLOAD PUSH1 0x40 MLOAD DUP4 PUSH4 0xFFFFFFFF AND PUSH1 0xE0 SHL DUP2 MSTORE PUSH1 0x4 ADD PUSH2 0x1662 SWAP3 SWAP2 SWAP1 PUSH2 0x4C80 JUMP JUMPDEST PUSH1 0x20 PUSH1 0x40 MLOAD DUP1 DUP4 SUB DUP2 PUSH1 0x0 DUP8 GAS CALL ISZERO DUP1 ISZERO PUSH2 0x1681 JUMPI RETURNDATASIZE PUSH1 0x0 DUP1 RETURNDATACOPY RETURNDATASIZE PUSH1 0x0 REVERT JUMPDEST POP POP POP POP PUSH1 0x40 MLOAD RETURNDATASIZE PUSH1 0x1F NOT PUSH1 0x1F DUP3 ADD AND DUP3 ADD DUP1 PUSH1 0x40 MSTORE POP DUP2 ADD SWAP1 PUSH2 0x16A5 SWAP2 SWAP1 PUSH2 0x4C19 JUMP JUMPDEST SWAP1 POP PUSH1 0x1 DUP2 ISZERO ISZERO EQ PUSH2 0x16EB JUMPI PUSH1 0x40 MLOAD PUSH3 0x461BCD PUSH1 0xE5 SHL DUP2 MSTORE PUSH1 0x20 PUSH1 0x4 DUP3 ADD MSTORE PUSH1 0xF PUSH1 0x24 DUP3 ADD MSTORE PUSH15 0x15DA5D1A191C985DC819985A5B1959 PUSH1 0x8A SHL PUSH1 0x44 DUP3 ADD MSTORE PUSH1 0x64 ADD PUSH2 0xD26 JUMP JUMPDEST POP JUMPDEST POP DUP1 PUSH2 0x16F8 DUP2 PUSH2 0x4D01 JUMP JUMPDEST SWAP2 POP POP PUSH2 0x1486 JUMP JUMPDEST POP PUSH32 0xD4DE851AE1BDF4EA540C1D68657B95BDC9710E532C03BF807C1A7107D238706B DUP3 DUP5 CALLER PUSH1 0x40 MLOAD PUSH2 0x1734 SWAP4 SWAP3 SWAP2 SWAP1 PUSH2 0x4D1A JUMP JUMPDEST PUSH1 0x40 MLOAD DUP1 SWAP2 SUB SWAP1 LOG1 POP POP POP JUMP JUMPDEST PUSH1 0x1 SLOAD PUSH1 0x40 MLOAD PUSH4 0x35EA6A75 PUSH1 0xE0 SHL DUP2 MSTORE PUSH1 0x0 SWAP2 DUP3 SWAP2 DUP3 SWAP2 DUP3 SWAP2 DUP3 SWAP2 DUP3 SWAP2 DUP3 SWAP2 DUP3 SWAP2 DUP3 SWAP2 PUSH1 0x1 PUSH1 0x1 PUSH1 0xA0 SHL SUB AND SWAP1 PUSH4 0x35EA6A75 SWAP1 PUSH2 0x1782 SWAP1 DUP15 SWAP1 PUSH1 0x4 ADD PUSH2 0x424A JUMP JUMPDEST PUSH2 0x180 PUSH1 0x40 MLOAD DUP1 DUP4 SUB DUP2 DUP7 GAS STATICCALL ISZERO DUP1 ISZERO PUSH2 0x17A0 JUMPI RETURNDATASIZE PUSH1 0x0 DUP1 RETURNDATACOPY RETURNDATASIZE PUSH1 0x0 REVERT JUMPDEST POP POP POP POP PUSH1 0x40 MLOAD RETURNDATASIZE PUSH1 0x1F NOT PUSH1 0x1F DUP3 ADD AND DUP3 ADD DUP1 PUSH1 0x40 MSTORE POP DUP2 ADD SWAP1 PUSH2 0x17C4 SWAP2 SWAP1 PUSH2 0x4ADA JUMP JUMPDEST PUSH1 0xE0 DUP2 ADD MLOAD PUSH1 0x40 MLOAD PUSH4 0x70A08231 PUSH1 0xE0 SHL DUP2 MSTORE SWAP2 SWAP3 POP PUSH1 0x1 PUSH1 0x1 PUSH1 0xA0 SHL SUB AND SWAP1 PUSH4 0x70A08231 SWAP1 PUSH2 0x17F7 SWAP1 DUP14 SWAP1 PUSH1 0x4 ADD PUSH2 0x424A JUMP JUMPDEST PUSH1 0x20 PUSH1 0x40 MLOAD DUP1 DUP4 SUB DUP2 DUP7 GAS STATICCALL ISZERO DUP1 ISZERO PUSH2 0x1814 JUMPI RETURNDATASIZE PUSH1 0x0 DUP1 RETURNDATACOPY RETURNDATASIZE PUSH1 0x0 REVERT JUMPDEST POP POP POP POP PUSH1 0x40 MLOAD RETURNDATASIZE PUSH1 0x1F NOT PUSH1 0x1F DUP3 ADD AND DUP3 ADD DUP1 PUSH1 0x40 MSTORE POP DUP2 ADD SWAP1 PUSH2 0x1838 SWAP2 SWAP1 PUSH2 0x4D58 JUMP JUMPDEST PUSH2 0x120 DUP3 ADD MLOAD PUSH1 0x40 MLOAD PUSH4 0x70A08231 PUSH1 0xE0 SHL DUP2 MSTORE SWAP2 SWAP11 POP PUSH1 0x1 PUSH1 0x1 PUSH1 0xA0 SHL SUB AND SWAP1 PUSH4 0x70A08231 SWAP1 PUSH2 0x186C SWAP1 DUP14 SWAP1 PUSH1 0x4 ADD PUSH2 0x424A JUMP JUMPDEST PUSH1 0x20 PUSH1 0x40 MLOAD DUP1 DUP4 SUB DUP2 DUP7 GAS STATICCALL ISZERO DUP1 ISZERO PUSH2 0x1889 JUMPI RETURNDATASIZE PUSH1 0x0 DUP1 RETURNDATACOPY RETURNDATASIZE PUSH1 0x0 REVERT JUMPDEST POP POP POP POP PUSH1 0x40 MLOAD RETURNDATASIZE PUSH1 0x1F NOT PUSH1 0x1F DUP3 ADD AND DUP3 ADD DUP1 PUSH1 0x40 MSTORE POP DUP2 ADD SWAP1 PUSH2 0x18AD SWAP2 SWAP1 PUSH2 0x4D58 JUMP JUMPDEST PUSH2 0x100 DUP3 ADD MLOAD PUSH1 0x40 MLOAD PUSH4 0x70A08231 PUSH1 0xE0 SHL DUP2 MSTORE SWAP2 SWAP9 POP PUSH1 0x1 PUSH1 0x1 PUSH1 0xA0 SHL SUB AND SWAP1 PUSH4 0x70A08231 SWAP1 PUSH2 0x18E1 SWAP1 DUP14 SWAP1 PUSH1 0x4 ADD PUSH2 0x424A JUMP JUMPDEST PUSH1 0x20 PUSH1 0x40 MLOAD DUP1 DUP4 SUB DUP2 DUP7 GAS STATICCALL ISZERO DUP1 ISZERO PUSH2 0x18FE JUMPI RETURNDATASIZE PUSH1 0x0 DUP1 RETURNDATACOPY RETURNDATASIZE PUSH1 0x0 REVERT JUMPDEST POP POP POP POP PUSH1 0x40 MLOAD RETURNDATASIZE PUSH1 0x1F NOT PUSH1 0x1F DUP3 ADD AND DUP3 ADD DUP1 PUSH1 0x40 MSTORE POP DUP2 ADD SWAP1 PUSH2 0x1922 SWAP2 SWAP1 PUSH2 0x4D58 JUMP JUMPDEST PUSH2 0x100 DUP3 ADD MLOAD PUSH1 0x40 MLOAD PUSH4 0x631A6FD5 PUSH1 0xE1 SHL DUP2 MSTORE SWAP2 SWAP10 POP PUSH1 0x1 PUSH1 0x1 PUSH1 0xA0 SHL SUB AND SWAP1 PUSH4 0xC634DFAA SWAP1 PUSH2 0x1956 SWAP1 DUP14 SWAP1 PUSH1 0x4 ADD PUSH2 0x424A JUMP JUMPDEST PUSH1 0x20 PUSH1 0x40 MLOAD DUP1 DUP4 SUB DUP2 DUP7 GAS STATICCALL ISZERO DUP1 ISZERO PUSH2 0x1973 JUMPI RETURNDATASIZE PUSH1 0x0 DUP1 RETURNDATACOPY RETURNDATASIZE PUSH1 0x0 REVERT JUMPDEST POP POP POP POP PUSH1 0x40 MLOAD RETURNDATASIZE PUSH1 0x1F NOT PUSH1 0x1F DUP3 ADD AND DUP3 ADD DUP1 PUSH1 0x40 MSTORE POP DUP2 ADD SWAP1 PUSH2 0x1997 SWAP2 SWAP1 PUSH2 0x4D58 JUMP JUMPDEST PUSH2 0x120 DUP3 ADD MLOAD PUSH1 0x40 MLOAD PUSH4 0xED1279F PUSH1 0xE1 SHL DUP2 MSTORE SWAP2 SWAP8 POP PUSH1 0x1 PUSH1 0x1 PUSH1 0xA0 SHL SUB AND SWAP1 PUSH4 0x1DA24F3E SWAP1 PUSH2 0x19CB SWAP1 DUP14 SWAP1 PUSH1 0x4 ADD PUSH2 0x424A JUMP JUMPDEST PUSH1 0x20 PUSH1 0x40 MLOAD DUP1 DUP4 SUB DUP2 DUP7 GAS STATICCALL ISZERO DUP1 ISZERO PUSH2 0x19E8 JUMPI RETURNDATASIZE PUSH1 0x0 DUP1 RETURNDATACOPY RETURNDATASIZE PUSH1 0x0 REVERT JUMPDEST POP POP POP POP PUSH1 0x40 MLOAD RETURNDATASIZE PUSH1 0x1F NOT PUSH1 0x1F DUP3 ADD AND DUP3 ADD DUP1 PUSH1 0x40 MSTORE POP DUP2 ADD SWAP1 PUSH2 0x1A0C SWAP2 SWAP1 PUSH2 0x4D58 JUMP JUMPDEST SWAP5 POP DUP1 PUSH1 0x60 ADD MLOAD PUSH1 0x1 PUSH1 0x1 PUSH1 0x80 SHL SUB AND SWAP3 POP DUP1 PUSH2 0x100 ADD MLOAD PUSH1 0x1 PUSH1 0x1 PUSH1 0xA0 SHL SUB AND PUSH4 0xE78C9B3B DUP12 PUSH1 0x40 MLOAD DUP3 PUSH4 0xFFFFFFFF AND PUSH1 0xE0 SHL DUP2 MSTORE PUSH1 0x4 ADD PUSH2 0x1A4F SWAP2 SWAP1 PUSH2 0x424A JUMP JUMPDEST PUSH1 0x20 PUSH1 0x40 MLOAD DUP1 DUP4 SUB DUP2 DUP7 GAS STATICCALL ISZERO DUP1 ISZERO PUSH2 0x1A6C JUMPI RETURNDATASIZE PUSH1 0x0 DUP1 RETURNDATACOPY RETURNDATASIZE PUSH1 0x0 REVERT JUMPDEST POP POP POP POP PUSH1 0x40 MLOAD RETURNDATASIZE PUSH1 0x1F NOT PUSH1 0x1F DUP3 ADD AND DUP3 ADD DUP1 PUSH1 0x40 MSTORE POP DUP2 ADD SWAP1 PUSH2 0x1A90 SWAP2 SWAP1 PUSH2 0x4D58 JUMP JUMPDEST PUSH2 0x100 DUP3 ADD MLOAD PUSH1 0x40 MLOAD PUSH4 0x1E739AE3 PUSH1 0xE2 SHL DUP2 MSTORE SWAP2 SWAP6 POP PUSH1 0x1 PUSH1 0x1 PUSH1 0xA0 SHL SUB AND SWAP1 PUSH4 0x79CE6B8C SWAP1 PUSH2 0x1AC4 SWAP1 DUP14 SWAP1 PUSH1 0x4 ADD PUSH2 0x424A JUMP JUMPDEST PUSH1 0x20 PUSH1 0x40 MLOAD DUP1 DUP4 SUB DUP2 DUP7 GAS STATICCALL ISZERO DUP1 ISZERO PUSH2 0x1AE1 JUMPI RETURNDATASIZE PUSH1 0x0 DUP1 RETURNDATACOPY RETURNDATASIZE PUSH1 0x0 REVERT JUMPDEST POP POP POP POP PUSH1 0x40 MLOAD RETURNDATASIZE PUSH1 0x1F NOT PUSH1 0x1F DUP3 ADD AND DUP3 ADD DUP1 PUSH1 0x40 MSTORE POP DUP2 ADD SWAP1 PUSH2 0x1B05 SWAP2 SWAP1 PUSH2 0x4D71 JUMP JUMPDEST SWAP2 POP POP SWAP3 SWAP6 SWAP9 POP SWAP3 SWAP6 SWAP9 SWAP1 SWAP4 SWAP7 POP JUMP JUMPDEST PUSH2 0xFFFF DUP4 AND PUSH1 0x0 SWAP1 DUP2 MSTORE PUSH1 0xD PUSH1 0x20 MSTORE PUSH1 0x40 DUP2 KECCAK256 DUP1 SLOAD DUP3 SWAP2 SWAP1 PUSH2 0x1B36 SWAP1 PUSH2 0x4A07 JUMP JUMPDEST DUP1 PUSH1 0x1F ADD PUSH1 0x20 DUP1 SWAP2 DIV MUL PUSH1 0x20 ADD PUSH1 0x40 MLOAD SWAP1 DUP2 ADD PUSH1 0x40 MSTORE DUP1 SWAP3 SWAP2 SWAP1 DUP2 DUP2 MSTORE PUSH1 0x20 ADD DUP3 DUP1 SLOAD PUSH2 0x1B62 SWAP1 PUSH2 0x4A07 JUMP JUMPDEST DUP1 ISZERO PUSH2 0x1BAF JUMPI DUP1 PUSH1 0x1F LT PUSH2 0x1B84 JUMPI PUSH2 0x100 DUP1 DUP4 SLOAD DIV MUL DUP4 MSTORE SWAP2 PUSH1 0x20 ADD SWAP2 PUSH2 0x1BAF JUMP JUMPDEST DUP3 ADD SWAP2 SWAP1 PUSH1 0x0 MSTORE PUSH1 0x20 PUSH1 0x0 KECCAK256 SWAP1 JUMPDEST DUP2 SLOAD DUP2 MSTORE SWAP1 PUSH1 0x1 ADD SWAP1 PUSH1 0x20 ADD DUP1 DUP4 GT PUSH2 0x1B92 JUMPI DUP3 SWAP1 SUB PUSH1 0x1F AND DUP3 ADD SWAP2 JUMPDEST POP POP POP POP POP SWAP1 POP DUP4 DUP4 PUSH1 0x40 MLOAD PUSH2 0x1BC6 SWAP3 SWAP2 SWAP1 PUSH2 0x4A41 JUMP JUMPDEST PUSH1 0x40 MLOAD DUP1 SWAP2 SUB SWAP1 KECCAK256 DUP2 DUP1 MLOAD SWAP1 PUSH1 0x20 ADD KECCAK256 EQ SWAP2 POP POP SWAP4 SWAP3 POP POP POP JUMP JUMPDEST PUSH2 0x1BE9 PUSH2 0x34D9 JUMP JUMPDEST PUSH1 0x40 MLOAD PUSH4 0x42D65A8D PUSH1 0xE0 SHL DUP2 MSTORE PUSH1 0x1 PUSH1 0x1 PUSH1 0xA0 SHL SUB PUSH32 0x0 AND SWAP1 PUSH4 0x42D65A8D SWAP1 PUSH2 0x1C39 SWAP1 DUP7 SWAP1 DUP7 SWAP1 DUP7 SWAP1 PUSH1 0x4 ADD PUSH2 0x4BF0 JUMP JUMPDEST PUSH1 0x0 PUSH1 0x40 MLOAD DUP1 DUP4 SUB DUP2 PUSH1 0x0 DUP8 DUP1 EXTCODESIZE ISZERO DUP1 ISZERO PUSH2 0x1C53 JUMPI PUSH1 0x0 DUP1 REVERT JUMPDEST POP GAS CALL ISZERO DUP1 ISZERO PUSH2 0xEDA JUMPI RETURNDATASIZE PUSH1 0x0 DUP1 RETURNDATACOPY RETURNDATASIZE PUSH1 0x0 REVERT JUMPDEST PUSH1 0x6 SLOAD PUSH1 0x0 SWAP1 DUP2 SWAP1 PUSH1 0xFF AND ISZERO ISZERO PUSH1 0x1 EQ PUSH2 0x1CAD JUMPI PUSH1 0x40 MLOAD PUSH3 0x461BCD PUSH1 0xE5 SHL DUP2 MSTORE PUSH1 0x20 PUSH1 0x4 DUP3 ADD MSTORE PUSH1 0x7 PUSH1 0x24 DUP3 ADD MSTORE PUSH7 0x436C6F73696E67 PUSH1 0xC8 SHL PUSH1 0x44 DUP3 ADD MSTORE PUSH1 0x64 ADD PUSH2 0xD26 JUMP JUMPDEST PUSH1 0x1 PUSH1 0x1 PUSH1 0xA0 SHL SUB DUP5 AND PUSH1 0x0 SWAP1 DUP2 MSTORE PUSH1 0x12 PUSH1 0x20 MSTORE PUSH1 0x40 SWAP1 KECCAK256 SLOAD PUSH1 0xFF AND ISZERO ISZERO PUSH1 0x1 EQ PUSH2 0x1D2D JUMPI PUSH1 0x40 MLOAD PUSH3 0x461BCD PUSH1 0xE5 SHL DUP2 MSTORE PUSH1 0x20 PUSH1 0x4 DUP3 ADD MSTORE PUSH1 0x2A PUSH1 0x24 DUP3 ADD MSTORE PUSH32 0x526563686172676520696E20746869732063757272656E6379206973206E6F74 PUSH1 0x44 DUP3 ADD MSTORE PUSH10 0x81CDD5C1C1BDC9D1959 PUSH1 0xB2 SHL PUSH1 0x64 DUP3 ADD MSTORE PUSH1 0x84 ADD PUSH2 0xD26 JUMP JUMPDEST PUSH1 0x40 MLOAD PUSH4 0x70A08231 PUSH1 0xE0 SHL DUP2 MSTORE DUP4 SWAP1 PUSH1 0x1 PUSH1 0x1 PUSH1 0xA0 SHL SUB DUP7 AND SWAP1 PUSH4 0x70A08231 SWAP1 PUSH2 0x1D5B SWAP1 CALLER SWAP1 PUSH1 0x4 ADD PUSH2 0x424A JUMP JUMPDEST PUSH1 0x20 PUSH1 0x40 MLOAD DUP1 DUP4 SUB DUP2 DUP7 GAS STATICCALL ISZERO DUP1 ISZERO PUSH2 0x1D78 JUMPI RETURNDATASIZE PUSH1 0x0 DUP1 RETURNDATACOPY RETURNDATASIZE PUSH1 0x0 REVERT JUMPDEST POP POP POP POP PUSH1 0x40 MLOAD RETURNDATASIZE PUSH1 0x1F NOT PUSH1 0x1F DUP3 ADD AND DUP3 ADD DUP1 PUSH1 0x40 MSTORE POP DUP2 ADD SWAP1 PUSH2 0x1D9C SWAP2 SWAP1 PUSH2 0x4D58 JUMP JUMPDEST LT ISZERO PUSH2 0x1DBA JUMPI PUSH1 0x40 MLOAD PUSH3 0x461BCD PUSH1 0xE5 SHL DUP2 MSTORE PUSH1 0x4 ADD PUSH2 0xD26 SWAP1 PUSH2 0x4CD3 JUMP JUMPDEST PUSH1 0x40 MLOAD PUSH4 0x6EB1769F PUSH1 0xE1 SHL DUP2 MSTORE DUP4 SWAP1 PUSH1 0x1 PUSH1 0x1 PUSH1 0xA0 SHL SUB DUP7 AND SWAP1 PUSH4 0xDD62ED3E SWAP1 PUSH2 0x1DEA SWAP1 CALLER SWAP1 ADDRESS SWAP1 PUSH1 0x4 ADD PUSH2 0x4D8C JUMP JUMPDEST PUSH1 0x20 PUSH1 0x40 MLOAD DUP1 DUP4 SUB DUP2 DUP7 GAS STATICCALL ISZERO DUP1 ISZERO PUSH2 0x1E07 JUMPI RETURNDATASIZE PUSH1 0x0 DUP1 RETURNDATACOPY RETURNDATASIZE PUSH1 0x0 REVERT JUMPDEST POP POP POP POP PUSH1 0x40 MLOAD RETURNDATASIZE PUSH1 0x1F NOT PUSH1 0x1F DUP3 ADD AND DUP3 ADD DUP1 PUSH1 0x40 MSTORE POP DUP2 ADD SWAP1 PUSH2 0x1E2B SWAP2 SWAP1 PUSH2 0x4D58 JUMP JUMPDEST LT ISZERO PUSH2 0x1E49 JUMPI PUSH1 0x40 MLOAD PUSH3 0x461BCD PUSH1 0xE5 SHL DUP2 MSTORE PUSH1 0x4 ADD PUSH2 0xD26 SWAP1 PUSH2 0x4DA6 JUMP JUMPDEST PUSH1 0x40 MLOAD PUSH4 0x70A08231 PUSH1 0xE0 SHL DUP2 MSTORE PUSH1 0x0 SWAP1 PUSH1 0x1 PUSH1 0x1 PUSH1 0xA0 SHL SUB DUP7 AND SWAP1 PUSH4 0x70A08231 SWAP1 PUSH2 0x1E78 SWAP1 CALLER SWAP1 PUSH1 0x4 ADD PUSH2 0x424A JUMP JUMPDEST PUSH1 0x20 PUSH1 0x40 MLOAD DUP1 DUP4 SUB DUP2 DUP7 GAS STATICCALL ISZERO DUP1 ISZERO PUSH2 0x1E95 JUMPI RETURNDATASIZE PUSH1 0x0 DUP1 RETURNDATACOPY RETURNDATASIZE PUSH1 0x0 REVERT JUMPDEST POP POP POP POP PUSH1 0x40 MLOAD RETURNDATASIZE PUSH1 0x1F NOT PUSH1 0x1F DUP3 ADD AND DUP3 ADD DUP1 PUSH1 0x40 MSTORE POP DUP2 ADD SWAP1 PUSH2 0x1EB9 SWAP2 SWAP1 PUSH2 0x4D58 JUMP JUMPDEST PUSH1 0x40 MLOAD PUSH4 0x23B872DD PUSH1 0xE0 SHL DUP2 MSTORE SWAP1 SWAP2 POP PUSH1 0x1 PUSH1 0x1 PUSH1 0xA0 SHL SUB DUP7 AND SWAP1 PUSH4 0x23B872DD SWAP1 PUSH2 0x1EEC SWAP1 CALLER SWAP1 ADDRESS SWAP1 DUP10 SWAP1 PUSH1 0x4 ADD PUSH2 0x4C99 JUMP JUMPDEST PUSH1 0x20 PUSH1 0x40 MLOAD DUP1 DUP4 SUB DUP2 PUSH1 0x0 DUP8 GAS CALL ISZERO DUP1 ISZERO PUSH2 0x1F0B JUMPI RETURNDATASIZE PUSH1 0x0 DUP1 RETURNDATACOPY RETURNDATASIZE PUSH1 0x0 REVERT JUMPDEST POP POP POP POP PUSH1 0x40 MLOAD RETURNDATASIZE PUSH1 0x1F NOT PUSH1 0x1F DUP3 ADD AND DUP3 ADD DUP1 PUSH1 0x40 MSTORE POP DUP2 ADD SWAP1 PUSH2 0x1F2F SWAP2 SWAP1 PUSH2 0x4C19 JUMP JUMPDEST POP PUSH2 0x1F3A DUP5 DUP3 PUSH2 0x4C6D JUMP JUMPDEST PUSH1 0x40 MLOAD PUSH4 0x70A08231 PUSH1 0xE0 SHL DUP2 MSTORE PUSH1 0x1 PUSH1 0x1 PUSH1 0xA0 SHL SUB DUP8 AND SWAP1 PUSH4 0x70A08231 SWAP1 PUSH2 0x1F66 SWAP1 CALLER SWAP1 PUSH1 0x4 ADD PUSH2 0x424A JUMP JUMPDEST PUSH1 0x20 PUSH1 0x40 MLOAD DUP1 DUP4 SUB DUP2 DUP7 GAS STATICCALL ISZERO DUP1 ISZERO PUSH2 0x1F83 JUMPI RETURNDATASIZE PUSH1 0x0 DUP1 RETURNDATACOPY RETURNDATASIZE PUSH1 0x0 REVERT JUMPDEST POP POP POP POP PUSH1 0x40 MLOAD RETURNDATASIZE PUSH1 0x1F NOT PUSH1 0x1F DUP3 ADD AND DUP3 ADD DUP1 PUSH1 0x40 MSTORE POP DUP2 ADD SWAP1 PUSH2 0x1FA7 SWAP2 SWAP1 PUSH2 0x4D58 JUMP JUMPDEST EQ PUSH2 0x1FC4 JUMPI PUSH1 0x40 MLOAD PUSH3 0x461BCD PUSH1 0xE5 SHL DUP2 MSTORE PUSH1 0x4 ADD PUSH2 0xD26 SWAP1 PUSH2 0x4CD3 JUMP JUMPDEST PUSH1 0x0 PUSH2 0x1FCF CALLER PUSH2 0x23CF JUMP JUMPDEST POP SWAP1 POP CALLVALUE DUP2 GT ISZERO PUSH2 0x1FF2 JUMPI PUSH1 0x40 MLOAD PUSH3 0x461BCD PUSH1 0xE5 SHL DUP2 MSTORE PUSH1 0x4 ADD PUSH2 0xD26 SWAP1 PUSH2 0x4DD0 JUMP JUMPDEST PUSH1 0x1 PUSH1 0x1 PUSH1 0xA0 SHL SUB DUP7 AND PUSH1 0x0 SWAP1 DUP2 MSTORE PUSH1 0x4 PUSH1 0x20 MSTORE PUSH1 0x40 SWAP1 KECCAK256 SLOAD PUSH1 0xFF AND ISZERO ISZERO PUSH1 0x1 SUB PUSH2 0x2094 JUMPI PUSH1 0xA SLOAD PUSH1 0x1 SWAP5 POP PUSH1 0x0 SWAP1 PUSH2 0x2033 SWAP1 PUSH1 0x1 PUSH1 0x1 PUSH1 0xA0 SHL SUB AND PUSH2 0x2564 JUMP JUMPDEST SWAP1 POP PUSH2 0x203F DUP8 DUP8 PUSH2 0x35B8 JUMP JUMPDEST PUSH1 0xA SLOAD PUSH2 0x2054 SWAP1 PUSH1 0x1 PUSH1 0x1 PUSH1 0xA0 SHL SUB AND PUSH2 0x2564 JUMP JUMPDEST PUSH2 0x205E DUP3 DUP9 PUSH2 0x4E04 JUMP JUMPDEST PUSH2 0x2068 SWAP2 SWAP1 PUSH2 0x4C6D JUMP JUMPDEST PUSH1 0x1 SUB PUSH2 0x2092 JUMPI PUSH1 0xA SLOAD PUSH2 0x2084 SWAP1 PUSH1 0x1 PUSH1 0x1 PUSH1 0xA0 SHL SUB AND PUSH2 0x2564 JUMP JUMPDEST PUSH2 0x208F SWAP1 PUSH1 0x1 PUSH2 0x4E04 JUMP JUMPDEST SWAP4 POP JUMPDEST POP JUMPDEST PUSH1 0xA SLOAD PUSH2 0x20A9 SWAP1 PUSH1 0x1 PUSH1 0x1 PUSH1 0xA0 SHL SUB AND PUSH2 0x2564 JUMP JUMPDEST PUSH1 0x0 SLOAD PUSH1 0x40 MLOAD SWAP2 SWAP5 POP PUSH2 0x20EB SWAP2 PUSH2 0xFFFF SWAP1 SWAP2 AND SWAP1 PUSH2 0x20D6 SWAP1 CALLER SWAP1 DUP11 SWAP1 DUP11 SWAP1 DUP11 SWAP1 PUSH1 0x1 SWAP1 DUP12 SWAP1 PUSH1 0x20 ADD PUSH2 0x4E17 JUMP JUMPDEST PUSH1 0x40 MLOAD PUSH1 0x20 DUP2 DUP4 SUB SUB DUP2 MSTORE SWAP1 PUSH1 0x40 MSTORE CALLVALUE PUSH2 0x3733 JUMP JUMPDEST PUSH32 0x448D2B6792A74A21BFA5114F7CD01A036F36236F4E3687339032E97103E653CE DUP7 DUP7 CALLER PUSH1 0x40 MLOAD PUSH2 0x211E SWAP4 SWAP3 SWAP2 SWAP1 PUSH2 0x4E70 JUMP JUMPDEST PUSH1 0x40 MLOAD DUP1 SWAP2 SUB SWAP1 LOG1 POP POP POP POP POP POP JUMP JUMPDEST PUSH2 0x2136 PUSH2 0x34D9 JUMP JUMPDEST PUSH1 0x40 MLOAD PUSH4 0x4B2B47B PUSH1 0xE1 SHL DUP2 MSTORE PUSH1 0x6 SWAP1 PUSH1 0x1 PUSH1 0x1 PUSH1 0xA0 SHL SUB PUSH32 0x0 AND SWAP1 PUSH4 0xCBED8B9C SWAP1 DUP3 SWAP1 PUSH4 0x96568F6 SWAP1 PUSH2 0x218D SWAP1 ADDRESS SWAP1 PUSH1 0x4 ADD PUSH2 0x424A JUMP JUMPDEST PUSH1 0x20 PUSH1 0x40 MLOAD DUP1 DUP4 SUB DUP2 DUP7 GAS STATICCALL ISZERO DUP1 ISZERO PUSH2 0x21AA JUMPI RETURNDATASIZE PUSH1 0x0 DUP1 RETURNDATACOPY RETURNDATASIZE PUSH1 0x0 REVERT JUMPDEST POP POP POP POP PUSH1 0x40 MLOAD RETURNDATASIZE PUSH1 0x1F NOT PUSH1 0x1F DUP3 ADD AND DUP3 ADD DUP1 PUSH1 0x40 MSTORE POP DUP2 ADD SWAP1 PUSH2 0x21CE SWAP2 SWAP1 PUSH2 0x4E93 JUMP JUMPDEST DUP6 DUP5 DUP7 PUSH1 0x40 MLOAD PUSH1 0x20 ADD PUSH2 0x21E1 SWAP2 SWAP1 PUSH2 0x424A JUMP JUMPDEST PUSH1 0x40 MLOAD PUSH1 0x20 DUP2 DUP4 SUB SUB DUP2 MSTORE SWAP1 PUSH1 0x40 MSTORE PUSH1 0x40 MLOAD DUP6 PUSH4 0xFFFFFFFF AND PUSH1 0xE0 SHL DUP2 MSTORE PUSH1 0x4 ADD PUSH2 0x1C39 SWAP5 SWAP4 SWAP3 SWAP2 SWAP1 PUSH2 0x4EB0 JUMP JUMPDEST PUSH1 0x60 DUP2 PUSH1 0x0 DUP1 PUSH2 0x2710 PUSH1 0x0 PUSH1 0xA PUSH2 0x223A PUSH1 0xA PUSH1 0x0 SWAP1 SLOAD SWAP1 PUSH2 0x100 EXP SWAP1 DIV PUSH1 0x1 PUSH1 0x1 PUSH1 0xA0 SHL SUB AND PUSH2 0x2564 JUMP JUMPDEST PUSH1 0x40 DUP1 MLOAD PUSH1 0x1 PUSH1 0x1 PUSH1 0xA0 SHL SUB SWAP1 SWAP9 AND PUSH1 0x20 DUP10 ADD MSTORE PUSH1 0xFF SWAP7 DUP8 AND SWAP1 DUP9 ADD MSTORE SWAP4 DUP6 AND PUSH1 0x60 DUP8 ADD MSTORE PUSH2 0xFFFF SWAP1 SWAP3 AND PUSH1 0x80 DUP7 ADD MSTORE DUP4 AND PUSH1 0xA0 DUP6 ADD MSTORE SWAP2 SWAP1 SWAP2 AND PUSH1 0xC0 DUP4 ADD MSTORE PUSH1 0xE0 DUP3 ADD MSTORE PUSH3 0xF4240 PUSH2 0x100 DUP3 ADD MSTORE PUSH2 0x120 ADD PUSH1 0x40 MLOAD PUSH1 0x20 DUP2 DUP4 SUB SUB DUP2 MSTORE SWAP1 PUSH1 0x40 MSTORE SWAP1 POP SWAP2 SWAP1 POP JUMP JUMPDEST PUSH1 0x6 SLOAD PUSH1 0xFF AND ISZERO ISZERO PUSH1 0x1 EQ PUSH2 0x22CA JUMPI PUSH1 0x40 MLOAD PUSH3 0x461BCD PUSH1 0xE5 SHL DUP2 MSTORE PUSH1 0x4 ADD PUSH2 0xD26 SWAP1 PUSH2 0x4C36 JUMP JUMPDEST PUSH1 0x0 PUSH2 0x22D5 CALLER PUSH2 0x23CF JUMP JUMPDEST POP SWAP1 POP CALLVALUE PUSH2 0x22E3 DUP3 DUP5 PUSH2 0x4E04 JUMP JUMPDEST GT ISZERO PUSH2 0x2323 JUMPI PUSH1 0x40 MLOAD PUSH3 0x461BCD PUSH1 0xE5 SHL DUP2 MSTORE PUSH1 0x20 PUSH1 0x4 DUP3 ADD MSTORE PUSH1 0xF PUSH1 0x24 DUP3 ADD MSTORE PUSH15 0xC2DADEEADCE840DCDE40DAC2E8C6D PUSH1 0x8B SHL PUSH1 0x44 DUP3 ADD MSTORE PUSH1 0x64 ADD PUSH2 0xD26 JUMP JUMPDEST CALLVALUE DUP2 GT ISZERO PUSH2 0x2343 JUMPI PUSH1 0x40 MLOAD PUSH3 0x461BCD PUSH1 0xE5 SHL DUP2 MSTORE PUSH1 0x4 ADD PUSH2 0xD26 SWAP1 PUSH2 0x4DD0 JUMP JUMPDEST PUSH1 0x0 DUP1 SLOAD PUSH1 0xA SLOAD PUSH2 0x239A SWAP3 PUSH2 0xFFFF SWAP1 SWAP3 AND SWAP2 CALLER SWAP2 DUP7 SWAP1 DUP3 SWAP1 PUSH1 0x2 SWAP1 PUSH2 0x2370 SWAP1 PUSH1 0x1 PUSH1 0x1 PUSH1 0xA0 SHL SUB AND PUSH2 0x2564 JUMP JUMPDEST PUSH1 0x40 MLOAD PUSH1 0x20 ADD PUSH2 0x2385 SWAP7 SWAP6 SWAP5 SWAP4 SWAP3 SWAP2 SWAP1 PUSH2 0x4E17 JUMP JUMPDEST PUSH1 0x40 MLOAD PUSH1 0x20 DUP2 DUP4 SUB SUB DUP2 MSTORE SWAP1 PUSH1 0x40 MSTORE DUP4 PUSH2 0x3733 JUMP JUMPDEST PUSH1 0x40 DUP1 MLOAD DUP4 DUP2 MSTORE CALLER PUSH1 0x20 DUP3 ADD MSTORE PUSH32 0xF007803DA765BF8BFB79898E5892989976C0F6B9F69DD946CB8B949C781587A SWAP2 ADD PUSH2 0x12C7 JUMP JUMPDEST PUSH1 0x0 DUP1 SLOAD DUP2 SWAP1 DUP2 SWAP1 DUP2 SWAP1 PUSH1 0x1 PUSH1 0x1 PUSH1 0xA0 SHL SUB PUSH32 0x0 AND SWAP1 PUSH4 0x40A7BB10 SWAP1 PUSH2 0xFFFF AND ADDRESS PUSH2 0x2418 DUP10 PUSH2 0x220F JUMP JUMPDEST PUSH1 0x0 PUSH1 0x2 PUSH1 0x40 MLOAD DUP7 PUSH4 0xFFFFFFFF AND PUSH1 0xE0 SHL DUP2 MSTORE PUSH1 0x4 ADD PUSH2 0x243C SWAP6 SWAP5 SWAP4 SWAP3 SWAP2 SWAP1 PUSH2 0x4EE7 JUMP JUMPDEST PUSH1 0x40 DUP1 MLOAD DUP1 DUP4 SUB DUP2 DUP7 GAS STATICCALL ISZERO DUP1 ISZERO PUSH2 0x2458 JUMPI RETURNDATASIZE PUSH1 0x0 DUP1 RETURNDATACOPY RETURNDATASIZE PUSH1 0x0 REVERT JUMPDEST POP POP POP POP PUSH1 0x40 MLOAD RETURNDATASIZE PUSH1 0x1F NOT PUSH1 0x1F DUP3 ADD AND DUP3 ADD DUP1 PUSH1 0x40 MSTORE POP DUP2 ADD SWAP1 PUSH2 0x247C SWAP2 SWAP1 PUSH2 0x4FA5 JUMP JUMPDEST SWAP1 SWAP7 SWAP1 SWAP6 POP SWAP4 POP POP POP POP JUMP JUMPDEST CALLER ADDRESS EQ PUSH2 0x24E6 JUMPI PUSH1 0x40 MLOAD PUSH3 0x461BCD PUSH1 0xE5 SHL DUP2 MSTORE PUSH1 0x20 PUSH1 0x4 DUP3 ADD MSTORE PUSH1 0x26 PUSH1 0x24 DUP3 ADD MSTORE PUSH32 0x4E6F6E626C6F636B696E674C7A4170703A2063616C6C6572206D757374206265 PUSH1 0x44 DUP3 ADD MSTORE PUSH6 0x204C7A41707 PUSH1 0xD4 SHL PUSH1 0x64 DUP3 ADD MSTORE PUSH1 0x84 ADD PUSH2 0xD26 JUMP JUMPDEST PUSH2 0x255C DUP7 DUP7 DUP7 DUP1 DUP1 PUSH1 0x1F ADD PUSH1 0x20 DUP1 SWAP2 DIV MUL PUSH1 0x20 ADD PUSH1 0x40 MLOAD SWAP1 DUP2 ADD PUSH1 0x40 MSTORE DUP1 SWAP4 SWAP3 SWAP2 SWAP1 DUP2 DUP2 MSTORE PUSH1 0x20 ADD DUP4 DUP4 DUP1 DUP3 DUP5 CALLDATACOPY PUSH1 0x0 SWAP3 ADD SWAP2 SWAP1 SWAP2 MSTORE POP POP PUSH1 0x40 DUP1 MLOAD PUSH1 0x20 PUSH1 0x1F DUP10 ADD DUP2 SWAP1 DIV DUP2 MUL DUP3 ADD DUP2 ADD SWAP1 SWAP3 MSTORE DUP8 DUP2 MSTORE DUP10 SWAP4 POP SWAP2 POP DUP8 SWAP1 DUP8 SWAP1 DUP2 SWAP1 DUP5 ADD DUP4 DUP3 DUP1 DUP3 DUP5 CALLDATACOPY PUSH1 0x0 SWAP3 ADD SWAP2 SWAP1 SWAP2 MSTORE POP PUSH2 0x37CC SWAP3 POP POP POP JUMP JUMPDEST POP POP POP POP POP POP JUMP JUMPDEST PUSH1 0x1 SLOAD PUSH1 0x40 MLOAD PUSH4 0x35EA6A75 PUSH1 0xE0 SHL DUP2 MSTORE PUSH1 0x0 SWAP2 DUP3 SWAP2 PUSH1 0x1 PUSH1 0x1 PUSH1 0xA0 SHL SUB SWAP1 SWAP2 AND SWAP1 PUSH4 0x35EA6A75 SWAP1 PUSH2 0x2599 SWAP1 DUP7 SWAP1 PUSH1 0x4 ADD PUSH2 0x424A JUMP JUMPDEST PUSH2 0x180 PUSH1 0x40 MLOAD DUP1 DUP4 SUB DUP2 DUP7 GAS STATICCALL ISZERO DUP1 ISZERO PUSH2 0x25B7 JUMPI RETURNDATASIZE PUSH1 0x0 DUP1 RETURNDATACOPY RETURNDATASIZE PUSH1 0x0 REVERT JUMPDEST POP POP POP POP PUSH1 0x40 MLOAD RETURNDATASIZE PUSH1 0x1F NOT PUSH1 0x1F DUP3 ADD AND DUP3 ADD DUP1 PUSH1 0x40 MSTORE POP DUP2 ADD SWAP1 PUSH2 0x25DB SWAP2 SWAP1 PUSH2 0x4ADA JUMP JUMPDEST PUSH1 0xE0 DUP2 ADD MLOAD PUSH1 0x40 MLOAD PUSH4 0x70A08231 PUSH1 0xE0 SHL DUP2 MSTORE SWAP2 SWAP3 POP PUSH1 0x1 PUSH1 0x1 PUSH1 0xA0 SHL SUB AND SWAP1 PUSH4 0x70A08231 SWAP1 PUSH2 0x260E SWAP1 ADDRESS SWAP1 PUSH1 0x4 ADD PUSH2 0x424A JUMP JUMPDEST PUSH1 0x20 PUSH1 0x40 MLOAD DUP1 DUP4 SUB DUP2 DUP7 GAS STATICCALL ISZERO DUP1 ISZERO PUSH2 0x262B JUMPI RETURNDATASIZE PUSH1 0x0 DUP1 RETURNDATACOPY RETURNDATASIZE PUSH1 0x0 REVERT JUMPDEST POP POP POP POP PUSH1 0x40 MLOAD RETURNDATASIZE PUSH1 0x1F NOT PUSH1 0x1F DUP3 ADD AND DUP3 ADD DUP1 PUSH1 0x40 MSTORE POP DUP2 ADD SWAP1 PUSH2 0x264F SWAP2 SWAP1 PUSH2 0x4D58 JUMP JUMPDEST SWAP4 SWAP3 POP POP POP JUMP JUMPDEST PUSH2 0x265E PUSH2 0x34D9 JUMP JUMPDEST PUSH1 0x40 MLOAD PUSH1 0x1 PUSH1 0x1 PUSH1 0xF0 SHL SUB NOT PUSH1 0xF0 DUP5 SWAP1 SHL AND PUSH1 0x20 DUP3 ADD MSTORE PUSH1 0x22 DUP2 ADD DUP3 SWAP1 MSTORE PUSH1 0x42 ADD PUSH1 0x40 MLOAD PUSH1 0x20 DUP2 DUP4 SUB SUB DUP2 MSTORE SWAP1 PUSH1 0x40 MSTORE PUSH1 0x2 SWAP1 DUP2 PUSH2 0x130E SWAP2 SWAP1 PUSH2 0x5024 JUMP JUMPDEST PUSH2 0x26A4 PUSH2 0x34D9 JUMP JUMPDEST PUSH2 0x26AE PUSH1 0x0 PUSH2 0x3BE3 JUMP JUMPDEST JUMP JUMPDEST PUSH1 0xD PUSH1 0x20 MSTORE PUSH1 0x0 SWAP1 DUP2 MSTORE PUSH1 0x40 SWAP1 KECCAK256 DUP1 SLOAD PUSH2 0xFF6 SWAP1 PUSH2 0x4A07 JUMP JUMPDEST CALLER DUP1 PUSH2 0x26D3 PUSH2 0x3021 JUMP JUMPDEST PUSH1 0x1 PUSH1 0x1 PUSH1 0xA0 SHL SUB AND EQ PUSH2 0x273B JUMPI PUSH1 0x40 MLOAD PUSH3 0x461BCD PUSH1 0xE5 SHL DUP2 MSTORE PUSH1 0x20 PUSH1 0x4 DUP3 ADD MSTORE PUSH1 0x29 PUSH1 0x24 DUP3 ADD MSTORE PUSH32 0x4F776E61626C6532537465703A2063616C6C6572206973206E6F742074686520 PUSH1 0x44 DUP3 ADD MSTORE PUSH9 0x3732BB9037BBB732B9 PUSH1 0xB9 SHL PUSH1 0x64 DUP3 ADD MSTORE PUSH1 0x84 ADD PUSH2 0xD26 JUMP JUMPDEST PUSH2 0x2744 DUP2 PUSH2 0x3BE3 JUMP JUMPDEST POP JUMP JUMPDEST PUSH1 0x0 DUP1 PUSH1 0x0 PUSH2 0x2756 DUP6 DUP6 PUSH2 0x1741 JUMP JUMPDEST POP POP POP POP POP SWAP3 POP POP SWAP2 POP PUSH1 0x0 DUP2 DUP4 PUSH2 0x276E SWAP2 SWAP1 PUSH2 0x4C6D JUMP JUMPDEST SWAP4 POP POP POP POP JUMPDEST SWAP3 SWAP2 POP POP JUMP JUMPDEST PUSH1 0xB SLOAD PUSH1 0x1 PUSH1 0x1 PUSH1 0xA0 SHL SUB AND SWAP1 JUMP JUMPDEST PUSH1 0x0 SWAP2 DUP3 MSTORE PUSH1 0x7 PUSH1 0x20 SWAP1 DUP2 MSTORE PUSH1 0x40 DUP1 DUP5 KECCAK256 PUSH1 0x1 PUSH1 0x1 PUSH1 0xA0 SHL SUB SWAP4 SWAP1 SWAP4 AND DUP5 MSTORE SWAP2 SWAP1 MSTORE SWAP1 KECCAK256 SLOAD PUSH1 0xFF AND SWAP1 JUMP JUMPDEST PUSH2 0xFFFF DUP2 AND PUSH1 0x0 SWAP1 DUP2 MSTORE PUSH1 0xD PUSH1 0x20 MSTORE PUSH1 0x40 DUP2 KECCAK256 DUP1 SLOAD PUSH1 0x60 SWAP3 SWAP2 SWAP1 PUSH2 0x27D7 SWAP1 PUSH2 0x4A07 JUMP JUMPDEST DUP1 PUSH1 0x1F ADD PUSH1 0x20 DUP1 SWAP2 DIV MUL PUSH1 0x20 ADD PUSH1 0x40 MLOAD SWAP1 DUP2 ADD PUSH1 0x40 MSTORE DUP1 SWAP3 SWAP2 SWAP1 DUP2 DUP2 MSTORE PUSH1 0x20 ADD DUP3 DUP1 SLOAD PUSH2 0x2803 SWAP1 PUSH2 0x4A07 JUMP JUMPDEST DUP1 ISZERO PUSH2 0x2850 JUMPI DUP1 PUSH1 0x1F LT PUSH2 0x2825 JUMPI PUSH2 0x100 DUP1 DUP4 SLOAD DIV MUL DUP4 MSTORE SWAP2 PUSH1 0x20 ADD SWAP2 PUSH2 0x2850 JUMP JUMPDEST DUP3 ADD SWAP2 SWAP1 PUSH1 0x0 MSTORE PUSH1 0x20 PUSH1 0x0 KECCAK256 SWAP1 JUMPDEST DUP2 SLOAD DUP2 MSTORE SWAP1 PUSH1 0x1 ADD SWAP1 PUSH1 0x20 ADD DUP1 DUP4 GT PUSH2 0x2833 JUMPI DUP3 SWAP1 SUB PUSH1 0x1F AND DUP3 ADD SWAP2 JUMPDEST POP POP POP POP POP SWAP1 POP DUP1 MLOAD PUSH1 0x0 SUB PUSH2 0x28A8 JUMPI PUSH1 0x40 MLOAD PUSH3 0x461BCD PUSH1 0xE5 SHL DUP2 MSTORE PUSH1 0x20 PUSH1 0x4 DUP3 ADD MSTORE PUSH1 0x1D PUSH1 0x24 DUP3 ADD MSTORE PUSH32 0x4C7A4170703A206E6F20747275737465642070617468207265636F7264000000 PUSH1 0x44 DUP3 ADD MSTORE PUSH1 0x64 ADD PUSH2 0xD26 JUMP JUMPDEST PUSH2 0x264F PUSH1 0x0 PUSH1 0x14 DUP4 MLOAD PUSH2 0x28BB SWAP2 SWAP1 PUSH2 0x4C6D JUMP JUMPDEST DUP4 SWAP2 SWAP1 PUSH2 0x3BFC JUMP JUMPDEST PUSH2 0x28CB PUSH2 0x34D9 JUMP JUMPDEST PUSH1 0x1 PUSH1 0x1 PUSH1 0xA0 SHL SUB SWAP2 SWAP1 SWAP2 AND PUSH1 0x0 SWAP1 DUP2 MSTORE PUSH1 0x4 PUSH1 0x20 MSTORE PUSH1 0x40 SWAP1 KECCAK256 DUP1 SLOAD PUSH1 0xFF NOT AND SWAP2 ISZERO ISZERO SWAP2 SWAP1 SWAP2 OR SWAP1 SSTORE JUMP JUMPDEST PUSH2 0x28FE PUSH2 0x34D9 JUMP JUMPDEST PUSH1 0x0 JUMPDEST DUP3 MLOAD DUP2 LT ISZERO PUSH2 0x130E JUMPI DUP2 PUSH1 0x12 PUSH1 0x0 DUP6 DUP5 DUP2 MLOAD DUP2 LT PUSH2 0x2921 JUMPI PUSH2 0x2921 PUSH2 0x4CBD JUMP JUMPDEST PUSH1 0x20 SWAP1 DUP2 MUL SWAP2 SWAP1 SWAP2 ADD DUP2 ADD MLOAD PUSH1 0x1 PUSH1 0x1 PUSH1 0xA0 SHL SUB AND DUP3 MSTORE DUP2 ADD SWAP2 SWAP1 SWAP2 MSTORE PUSH1 0x40 ADD PUSH1 0x0 KECCAK256 DUP1 SLOAD PUSH1 0xFF NOT AND SWAP2 ISZERO ISZERO SWAP2 SWAP1 SWAP2 OR SWAP1 SSTORE DUP1 PUSH2 0x295D DUP2 PUSH2 0x4D01 JUMP JUMPDEST SWAP2 POP POP PUSH2 0x2901 JUMP JUMPDEST PUSH2 0x296D PUSH2 0x34D9 JUMP JUMPDEST DUP2 DUP2 ADDRESS PUSH1 0x40 MLOAD PUSH1 0x20 ADD PUSH2 0x2982 SWAP4 SWAP3 SWAP2 SWAP1 PUSH2 0x50DD JUMP JUMPDEST PUSH1 0x40 DUP1 MLOAD PUSH1 0x1F NOT DUP2 DUP5 SUB ADD DUP2 MSTORE SWAP2 DUP2 MSTORE PUSH2 0xFFFF DUP6 AND PUSH1 0x0 SWAP1 DUP2 MSTORE PUSH1 0xD PUSH1 0x20 MSTORE KECCAK256 SWAP1 PUSH2 0x29AD SWAP1 DUP3 PUSH2 0x5024 JUMP JUMPDEST POP PUSH32 0x8C0400CFE2D1199B1A725C78960BCC2A344D869B80590D0F2BD005DB15A572CE DUP4 DUP4 DUP4 PUSH1 0x40 MLOAD PUSH2 0x1734 SWAP4 SWAP3 SWAP2 SWAP1 PUSH2 0x4BF0 JUMP JUMPDEST PUSH1 0x40 MLOAD PUSH4 0x557FAF8B PUSH1 0xE1 SHL DUP2 MSTORE PUSH1 0x1 PUSH1 0x1 PUSH1 0xA0 SHL SUB PUSH32 0x0 AND SWAP1 PUSH4 0xAAFF5F16 SWAP1 PUSH2 0x2A35 SWAP1 DUP9 SWAP1 DUP9 SWAP1 DUP9 SWAP1 DUP9 SWAP1 DUP9 SWAP1 PUSH1 0x4 ADD PUSH2 0x50FE JUMP JUMPDEST PUSH1 0x0 PUSH1 0x40 MLOAD DUP1 DUP4 SUB DUP2 PUSH1 0x0 DUP8 DUP1 EXTCODESIZE ISZERO DUP1 ISZERO PUSH2 0x2A4F JUMPI PUSH1 0x0 DUP1 REVERT JUMPDEST POP GAS CALL ISZERO DUP1 ISZERO PUSH2 0x2A63 JUMPI RETURNDATASIZE PUSH1 0x0 DUP1 RETURNDATACOPY RETURNDATASIZE PUSH1 0x0 REVERT JUMPDEST POP POP POP POP POP POP POP POP POP JUMP JUMPDEST PUSH1 0x0 DUP1 PUSH2 0x2A7A DUP5 PUSH2 0x2AFB JUMP JUMPDEST SWAP1 POP PUSH1 0x0 DUP1 PUSH1 0x0 PUSH2 0x2A8A DUP7 PUSH2 0x3D09 JUMP JUMPDEST PUSH1 0x40 DUP1 MLOAD PUSH1 0x0 DUP2 MSTORE PUSH1 0x20 DUP2 ADD DUP1 DUP4 MSTORE DUP10 SWAP1 MSTORE PUSH1 0xFF DUP6 AND SWAP2 DUP2 ADD SWAP2 SWAP1 SWAP2 MSTORE PUSH1 0x60 DUP2 ADD DUP4 SWAP1 MSTORE PUSH1 0x80 DUP2 ADD DUP3 SWAP1 MSTORE SWAP3 SWAP6 POP SWAP1 SWAP4 POP SWAP2 POP PUSH1 0x1 SWAP1 PUSH1 0xA0 ADD PUSH1 0x20 PUSH1 0x40 MLOAD PUSH1 0x20 DUP2 SUB SWAP1 DUP1 DUP5 SUB SWAP1 DUP6 GAS STATICCALL ISZERO DUP1 ISZERO PUSH2 0x2AE5 JUMPI RETURNDATASIZE PUSH1 0x0 DUP1 RETURNDATACOPY RETURNDATASIZE PUSH1 0x0 REVERT JUMPDEST POP POP PUSH1 0x40 MLOAD PUSH1 0x1F NOT ADD MLOAD SWAP9 SWAP8 POP POP POP POP POP POP POP POP JUMP JUMPDEST PUSH1 0x40 MLOAD PUSH28 0xCA2BA3432B932BAB69029B4B3B732B21026B2B9B9B0B3B29D051999 PUSH1 0x21 SHL PUSH1 0x20 DUP3 ADD MSTORE PUSH1 0x3C DUP2 ADD DUP3 SWAP1 MSTORE PUSH1 0x0 SWAP1 PUSH1 0x5C ADD PUSH1 0x40 MLOAD PUSH1 0x20 DUP2 DUP4 SUB SUB DUP2 MSTORE SWAP1 PUSH1 0x40 MSTORE DUP1 MLOAD SWAP1 PUSH1 0x20 ADD KECCAK256 SWAP1 POP SWAP2 SWAP1 POP JUMP JUMPDEST PUSH2 0x2B55 PUSH2 0x34D9 JUMP JUMPDEST PUSH1 0xF DUP1 SLOAD PUSH1 0x1 PUSH1 0x1 PUSH1 0xA0 SHL SUB NOT AND PUSH1 0x1 PUSH1 0x1 PUSH1 0xA0 SHL SUB DUP4 AND OR SWAP1 SSTORE PUSH1 0x40 MLOAD PUSH32 0x5DB758E995A17EC1AD84BDEF7E8C3293A0BD6179BCCE400DFF5D4C3D87DB726B SWAP1 PUSH2 0x2BA0 SWAP1 DUP4 SWAP1 PUSH2 0x424A JUMP JUMPDEST PUSH1 0x40 MLOAD DUP1 SWAP2 SUB SWAP1 LOG1 POP JUMP JUMPDEST PUSH2 0x2BB3 PUSH2 0x34D9 JUMP JUMPDEST PUSH1 0x40 MLOAD PUSH4 0x32FB62E7 PUSH1 0xE2 SHL DUP2 MSTORE PUSH1 0x1 PUSH1 0x1 PUSH1 0xA0 SHL SUB PUSH32 0x0 AND SWAP1 PUSH4 0xCBED8B9C SWAP1 PUSH2 0x2A35 SWAP1 DUP9 SWAP1 DUP9 SWAP1 DUP9 SWAP1 DUP9 SWAP1 DUP9 SWAP1 PUSH1 0x4 ADD PUSH2 0x513B JUMP JUMPDEST PUSH2 0xFFFF DUP7 AND PUSH1 0x0 SWAP1 DUP2 MSTORE PUSH1 0x10 PUSH1 0x20 MSTORE PUSH1 0x40 DUP1 DUP3 KECCAK256 SWAP1 MLOAD PUSH2 0x2C2A SWAP1 DUP9 SWAP1 DUP9 SWAP1 PUSH2 0x4A41 JUMP JUMPDEST SWAP1 DUP2 MSTORE PUSH1 0x40 DUP1 MLOAD PUSH1 0x20 SWAP3 DUP2 SWAP1 SUB DUP4 ADD SWAP1 KECCAK256 PUSH1 0x1 PUSH1 0x1 PUSH1 0x40 SHL SUB DUP8 AND PUSH1 0x0 SWAP1 DUP2 MSTORE SWAP3 MSTORE SWAP1 KECCAK256 SLOAD SWAP1 POP DUP1 PUSH2 0x2CAA JUMPI PUSH1 0x40 MLOAD PUSH3 0x461BCD PUSH1 0xE5 SHL DUP2 MSTORE PUSH1 0x20 PUSH1 0x4 DUP3 ADD MSTORE PUSH1 0x23 PUSH1 0x24 DUP3 ADD MSTORE PUSH32 0x4E6F6E626C6F636B696E674C7A4170703A206E6F2073746F726564206D657373 PUSH1 0x44 DUP3 ADD MSTORE PUSH3 0x616765 PUSH1 0xE8 SHL PUSH1 0x64 DUP3 ADD MSTORE PUSH1 0x84 ADD PUSH2 0xD26 JUMP JUMPDEST DUP1 DUP4 DUP4 PUSH1 0x40 MLOAD PUSH2 0x2CBB SWAP3 SWAP2 SWAP1 PUSH2 0x4A41 JUMP JUMPDEST PUSH1 0x40 MLOAD DUP1 SWAP2 SUB SWAP1 KECCAK256 EQ PUSH2 0x2D1A JUMPI PUSH1 0x40 MLOAD PUSH3 0x461BCD PUSH1 0xE5 SHL DUP2 MSTORE PUSH1 0x20 PUSH1 0x4 DUP3 ADD MSTORE PUSH1 0x21 PUSH1 0x24 DUP3 ADD MSTORE PUSH32 0x4E6F6E626C6F636B696E674C7A4170703A20696E76616C6964207061796C6F61 PUSH1 0x44 DUP3 ADD MSTORE PUSH1 0x19 PUSH1 0xFA SHL PUSH1 0x64 DUP3 ADD MSTORE PUSH1 0x84 ADD PUSH2 0xD26 JUMP JUMPDEST PUSH2 0xFFFF DUP8 AND PUSH1 0x0 SWAP1 DUP2 MSTORE PUSH1 0x10 PUSH1 0x20 MSTORE PUSH1 0x40 DUP1 DUP3 KECCAK256 SWAP1 MLOAD PUSH2 0x2D3D SWAP1 DUP10 SWAP1 DUP10 SWAP1 PUSH2 0x4A41 JUMP JUMPDEST SWAP1 DUP2 MSTORE PUSH1 0x40 DUP1 MLOAD PUSH1 0x20 SWAP3 DUP2 SWAP1 SUB DUP4 ADD DUP2 KECCAK256 PUSH1 0x1 PUSH1 0x1 PUSH1 0x40 SHL SUB DUP10 AND PUSH1 0x0 SWAP1 DUP2 MSTORE SWAP1 DUP5 MSTORE DUP3 SWAP1 KECCAK256 SWAP4 SWAP1 SWAP4 SSTORE PUSH1 0x1F DUP9 ADD DUP3 SWAP1 DIV DUP3 MUL DUP4 ADD DUP3 ADD SWAP1 MSTORE DUP7 DUP3 MSTORE PUSH2 0x2DD5 SWAP2 DUP10 SWAP2 DUP10 SWAP1 DUP10 SWAP1 DUP2 SWAP1 DUP5 ADD DUP4 DUP3 DUP1 DUP3 DUP5 CALLDATACOPY PUSH1 0x0 SWAP3 ADD SWAP2 SWAP1 SWAP2 MSTORE POP POP PUSH1 0x40 DUP1 MLOAD PUSH1 0x20 PUSH1 0x1F DUP11 ADD DUP2 SWAP1 DIV DUP2 MUL DUP3 ADD DUP2 ADD SWAP1 SWAP3 MSTORE DUP9 DUP2 MSTORE DUP11 SWAP4 POP SWAP2 POP DUP9 SWAP1 DUP9 SWAP1 DUP2 SWAP1 DUP5 ADD DUP4 DUP3 DUP1 DUP3 DUP5 CALLDATACOPY PUSH1 0x0 SWAP3 ADD SWAP2 SWAP1 SWAP2 MSTORE POP PUSH2 0x37CC SWAP3 POP POP POP JUMP JUMPDEST PUSH32 0xC264D91F3ADC5588250E1551F547752CA0CFA8F6B530D243B9F9F4CAB10EA8E5 DUP8 DUP8 DUP8 DUP8 DUP6 PUSH1 0x40 MLOAD PUSH2 0x2E0C SWAP6 SWAP5 SWAP4 SWAP3 SWAP2 SWAP1 PUSH2 0x5174 JUMP JUMPDEST PUSH1 0x40 MLOAD DUP1 SWAP2 SUB SWAP1 LOG1 POP POP POP POP POP POP POP JUMP JUMPDEST PUSH2 0x2E25 PUSH2 0x34D9 JUMP JUMPDEST PUSH1 0x0 DUP2 GT PUSH2 0x2E6D JUMPI PUSH1 0x40 MLOAD PUSH3 0x461BCD PUSH1 0xE5 SHL DUP2 MSTORE PUSH1 0x20 PUSH1 0x4 DUP3 ADD MSTORE PUSH1 0x15 PUSH1 0x24 DUP3 ADD MSTORE PUSH21 0x4C7A4170703A20696E76616C6964206D696E476173 PUSH1 0x58 SHL PUSH1 0x44 DUP3 ADD MSTORE PUSH1 0x64 ADD PUSH2 0xD26 JUMP JUMPDEST PUSH2 0xFFFF DUP4 DUP2 AND PUSH1 0x0 DUP2 DUP2 MSTORE PUSH1 0xE PUSH1 0x20 SWAP1 DUP2 MSTORE PUSH1 0x40 DUP1 DUP4 KECCAK256 SWAP5 DUP8 AND DUP1 DUP5 MSTORE SWAP5 DUP3 MSTORE SWAP2 DUP3 SWAP1 KECCAK256 DUP6 SWAP1 SSTORE DUP2 MLOAD SWAP3 DUP4 MSTORE DUP3 ADD SWAP3 SWAP1 SWAP3 MSTORE SWAP1 DUP2 ADD DUP3 SWAP1 MSTORE PUSH32 0x9D5C7C0B934DA8FEFA9C7760C98383778A12DFBFC0C3B3106518F43FB9508AC0 SWAP1 PUSH1 0x60 ADD PUSH2 0x1734 JUMP JUMPDEST PUSH2 0x2ED7 PUSH2 0x34D9 JUMP JUMPDEST PUSH2 0x2744 PUSH1 0x0 DUP1 MLOAD PUSH1 0x20 PUSH2 0x570C DUP4 CODECOPY DUP2 MLOAD SWAP2 MSTORE DUP3 PUSH2 0x3D7B JUMP JUMPDEST PUSH1 0x0 DUP1 PUSH32 0x0 PUSH1 0x1 PUSH1 0x1 PUSH1 0xA0 SHL SUB AND PUSH4 0xF5ECBDBC PUSH32 0x0 PUSH1 0x1 PUSH1 0x1 PUSH1 0xA0 SHL SUB AND PUSH4 0x96568F6 ADDRESS PUSH1 0x40 MLOAD DUP3 PUSH4 0xFFFFFFFF AND PUSH1 0xE0 SHL DUP2 MSTORE PUSH1 0x4 ADD PUSH2 0x2F6D SWAP2 SWAP1 PUSH2 0x424A JUMP JUMPDEST PUSH1 0x20 PUSH1 0x40 MLOAD DUP1 DUP4 SUB DUP2 DUP7 GAS STATICCALL ISZERO DUP1 ISZERO PUSH2 0x2F8A JUMPI RETURNDATASIZE PUSH1 0x0 DUP1 RETURNDATACOPY RETURNDATASIZE PUSH1 0x0 REVERT JUMPDEST POP POP POP POP PUSH1 0x40 MLOAD RETURNDATASIZE PUSH1 0x1F NOT PUSH1 0x1F DUP3 ADD AND DUP3 ADD DUP1 PUSH1 0x40 MSTORE POP DUP2 ADD SWAP1 PUSH2 0x2FAE SWAP2 SWAP1 PUSH2 0x4E93 JUMP JUMPDEST DUP6 ADDRESS PUSH1 0x6 PUSH1 0x40 MLOAD DUP6 PUSH4 0xFFFFFFFF AND PUSH1 0xE0 SHL DUP2 MSTORE PUSH1 0x4 ADD PUSH2 0x2FD1 SWAP5 SWAP4 SWAP3 SWAP2 SWAP1 PUSH2 0x51AF JUMP JUMPDEST PUSH1 0x0 PUSH1 0x40 MLOAD DUP1 DUP4 SUB DUP2 DUP7 GAS STATICCALL ISZERO DUP1 ISZERO PUSH2 0x2FEE JUMPI RETURNDATASIZE PUSH1 0x0 DUP1 RETURNDATACOPY RETURNDATASIZE PUSH1 0x0 REVERT JUMPDEST POP POP POP POP PUSH1 0x40 MLOAD RETURNDATASIZE PUSH1 0x0 DUP3 RETURNDATACOPY PUSH1 0x1F RETURNDATASIZE SWAP1 DUP2 ADD PUSH1 0x1F NOT AND DUP3 ADD PUSH1 0x40 MSTORE PUSH2 0x3016 SWAP2 SWAP1 DUP2 ADD SWAP1 PUSH2 0x5221 JUMP JUMPDEST PUSH1 0x20 ADD MLOAD SWAP4 SWAP3 POP POP POP JUMP JUMPDEST PUSH1 0xC SLOAD PUSH1 0x1 PUSH1 0x1 PUSH1 0xA0 SHL SUB AND SWAP1 JUMP JUMPDEST PUSH2 0x3038 PUSH2 0x34D9 JUMP JUMPDEST PUSH2 0xFFFF DUP4 AND PUSH1 0x0 SWAP1 DUP2 MSTORE PUSH1 0xD PUSH1 0x20 MSTORE PUSH1 0x40 SWAP1 KECCAK256 PUSH2 0x3056 DUP3 DUP5 DUP4 PUSH2 0x5255 JUMP JUMPDEST POP PUSH32 0xFA41487AD5D6728F0B19276FA1EDDC16558578F5109FC39D2DC33C3230470DAB DUP4 DUP4 DUP4 PUSH1 0x40 MLOAD PUSH2 0x1734 SWAP4 SWAP3 SWAP2 SWAP1 PUSH2 0x4BF0 JUMP JUMPDEST PUSH2 0x3092 PUSH2 0x34D9 JUMP JUMPDEST PUSH1 0xC DUP1 SLOAD PUSH1 0x1 PUSH1 0x1 PUSH1 0xA0 SHL SUB NOT AND PUSH1 0x1 PUSH1 0x1 PUSH1 0xA0 SHL SUB DUP4 AND SWAP1 DUP2 OR SWAP1 SWAP2 SSTORE PUSH2 0x30B8 PUSH2 0x277A JUMP JUMPDEST PUSH1 0x1 PUSH1 0x1 PUSH1 0xA0 SHL SUB AND PUSH32 0x38D16B8CAC22D99FC7C124B9CD0DE2D3FA1FAEF420BFE791D8C362D765E22700 PUSH1 0x40 MLOAD PUSH1 0x40 MLOAD DUP1 SWAP2 SUB SWAP1 LOG3 POP JUMP JUMPDEST PUSH1 0x40 MLOAD PUSH4 0x3D7B2F6F PUSH1 0xE2 SHL DUP2 MSTORE PUSH1 0x60 SWAP1 PUSH1 0x1 PUSH1 0x1 PUSH1 0xA0 SHL SUB PUSH32 0x0 AND SWAP1 PUSH4 0xF5ECBDBC SWAP1 PUSH2 0x3145 SWAP1 DUP9 SWAP1 DUP9 SWAP1 ADDRESS SWAP1 DUP9 SWAP1 PUSH1 0x4 ADD PUSH2 0x51AF JUMP JUMPDEST PUSH1 0x0 PUSH1 0x40 MLOAD DUP1 DUP4 SUB DUP2 DUP7 GAS STATICCALL ISZERO DUP1 ISZERO PUSH2 0x3162 JUMPI RETURNDATASIZE PUSH1 0x0 DUP1 RETURNDATACOPY RETURNDATASIZE PUSH1 0x0 REVERT JUMPDEST POP POP POP POP PUSH1 0x40 MLOAD RETURNDATASIZE PUSH1 0x0 DUP3 RETURNDATACOPY PUSH1 0x1F RETURNDATASIZE SWAP1 DUP2 ADD PUSH1 0x1F NOT AND DUP3 ADD PUSH1 0x40 MSTORE PUSH2 0x318A SWAP2 SWAP1 DUP2 ADD SWAP1 PUSH2 0x5221 JUMP JUMPDEST SWAP6 SWAP5 POP POP POP POP POP JUMP JUMPDEST PUSH1 0x1 PUSH1 0x1 PUSH1 0xA0 SHL SUB DUP2 AND PUSH1 0x0 SWAP1 DUP2 MSTORE PUSH1 0x3 PUSH1 0x20 MSTORE PUSH1 0x40 DUP2 KECCAK256 DUP2 SWAP1 PUSH1 0x60 SWAP1 DUP2 SWAP1 DUP4 SWAP1 DUP2 DUP1 JUMPDEST PUSH1 0x8 SLOAD DUP2 LT ISZERO PUSH2 0x3224 JUMPI DUP3 PUSH1 0x2 ADD PUSH1 0x0 PUSH1 0x8 DUP4 DUP2 SLOAD DUP2 LT PUSH2 0x31DA JUMPI PUSH2 0x31DA PUSH2 0x4CBD JUMP JUMPDEST PUSH1 0x0 SWAP2 DUP3 MSTORE PUSH1 0x20 DUP1 DUP4 KECCAK256 SWAP1 SWAP2 ADD SLOAD PUSH1 0x1 PUSH1 0x1 PUSH1 0xA0 SHL SUB AND DUP4 MSTORE DUP3 ADD SWAP3 SWAP1 SWAP3 MSTORE PUSH1 0x40 ADD SWAP1 KECCAK256 SLOAD ISZERO PUSH2 0x3212 JUMPI DUP2 PUSH2 0x320E DUP2 PUSH2 0x4D01 JUMP JUMPDEST SWAP3 POP POP JUMPDEST DUP1 PUSH2 0x321C DUP2 PUSH2 0x4D01 JUMP JUMPDEST SWAP2 POP POP PUSH2 0x31B7 JUMP JUMPDEST POP PUSH1 0x0 DUP2 PUSH1 0x1 PUSH1 0x1 PUSH1 0x40 SHL SUB DUP2 GT ISZERO PUSH2 0x323F JUMPI PUSH2 0x323F PUSH2 0x438D JUMP JUMPDEST PUSH1 0x40 MLOAD SWAP1 DUP1 DUP3 MSTORE DUP1 PUSH1 0x20 MUL PUSH1 0x20 ADD DUP3 ADD PUSH1 0x40 MSTORE DUP1 ISZERO PUSH2 0x3268 JUMPI DUP2 PUSH1 0x20 ADD PUSH1 0x20 DUP3 MUL DUP1 CALLDATASIZE DUP4 CALLDATACOPY ADD SWAP1 POP JUMPDEST POP SWAP1 POP PUSH1 0x0 DUP3 PUSH1 0x1 PUSH1 0x1 PUSH1 0x40 SHL SUB DUP2 GT ISZERO PUSH2 0x3285 JUMPI PUSH2 0x3285 PUSH2 0x438D JUMP JUMPDEST PUSH1 0x40 MLOAD SWAP1 DUP1 DUP3 MSTORE DUP1 PUSH1 0x20 MUL PUSH1 0x20 ADD DUP3 ADD PUSH1 0x40 MSTORE DUP1 ISZERO PUSH2 0x32AE JUMPI DUP2 PUSH1 0x20 ADD PUSH1 0x20 DUP3 MUL DUP1 CALLDATASIZE DUP4 CALLDATACOPY ADD SWAP1 POP JUMPDEST POP SWAP1 POP PUSH1 0x0 DUP1 JUMPDEST PUSH1 0x8 SLOAD DUP2 LT ISZERO PUSH2 0x33E2 JUMPI DUP6 PUSH1 0x2 ADD PUSH1 0x0 PUSH1 0x8 DUP4 DUP2 SLOAD DUP2 LT PUSH2 0x32D8 JUMPI PUSH2 0x32D8 PUSH2 0x4CBD JUMP JUMPDEST PUSH1 0x0 SWAP2 DUP3 MSTORE PUSH1 0x20 DUP1 DUP4 KECCAK256 SWAP1 SWAP2 ADD SLOAD PUSH1 0x1 PUSH1 0x1 PUSH1 0xA0 SHL SUB AND DUP4 MSTORE DUP3 ADD SWAP3 SWAP1 SWAP3 MSTORE PUSH1 0x40 ADD SWAP1 KECCAK256 SLOAD ISZERO PUSH2 0x33D0 JUMPI PUSH1 0x8 DUP2 DUP2 SLOAD DUP2 LT PUSH2 0x3315 JUMPI PUSH2 0x3315 PUSH2 0x4CBD JUMP JUMPDEST SWAP1 PUSH1 0x0 MSTORE PUSH1 0x20 PUSH1 0x0 KECCAK256 ADD PUSH1 0x0 SWAP1 SLOAD SWAP1 PUSH2 0x100 EXP SWAP1 DIV PUSH1 0x1 PUSH1 0x1 PUSH1 0xA0 SHL SUB AND DUP5 DUP4 DUP2 MLOAD DUP2 LT PUSH2 0x3345 JUMPI PUSH2 0x3345 PUSH2 0x4CBD JUMP JUMPDEST PUSH1 0x20 MUL PUSH1 0x20 ADD ADD SWAP1 PUSH1 0x1 PUSH1 0x1 PUSH1 0xA0 SHL SUB AND SWAP1 DUP2 PUSH1 0x1 PUSH1 0x1 PUSH1 0xA0 SHL SUB AND DUP2 MSTORE POP POP DUP6 PUSH1 0x2 ADD PUSH1 0x0 PUSH1 0x8 DUP4 DUP2 SLOAD DUP2 LT PUSH2 0x337E JUMPI PUSH2 0x337E PUSH2 0x4CBD JUMP JUMPDEST PUSH1 0x0 SWAP2 DUP3 MSTORE PUSH1 0x20 DUP1 DUP4 KECCAK256 SWAP1 SWAP2 ADD SLOAD PUSH1 0x1 PUSH1 0x1 PUSH1 0xA0 SHL SUB AND DUP4 MSTORE DUP3 ADD SWAP3 SWAP1 SWAP3 MSTORE PUSH1 0x40 ADD SWAP1 KECCAK256 SLOAD DUP4 MLOAD DUP5 SWAP1 DUP5 SWAP1 DUP2 LT PUSH2 0x33B7 JUMPI PUSH2 0x33B7 PUSH2 0x4CBD JUMP JUMPDEST PUSH1 0x20 SWAP1 DUP2 MUL SWAP2 SWAP1 SWAP2 ADD ADD MSTORE DUP2 PUSH2 0x33CC DUP2 PUSH2 0x4D01 JUMP JUMPDEST SWAP3 POP POP JUMPDEST DUP1 PUSH2 0x33DA DUP2 PUSH2 0x4D01 JUMP JUMPDEST SWAP2 POP POP PUSH2 0x32B5 JUMP JUMPDEST POP POP DUP4 SLOAD PUSH1 0x1 DUP6 ADD SLOAD PUSH1 0x3 SWAP1 SWAP6 ADD SLOAD PUSH1 0x1 PUSH1 0x1 PUSH1 0xA0 SHL SUB SWAP1 SWAP2 AND SWAP12 SWAP5 SWAP11 POP SWAP2 SWAP9 POP SWAP7 POP SWAP5 POP SWAP1 SWAP3 POP POP POP JUMP JUMPDEST PUSH1 0xB DUP1 SLOAD PUSH1 0x1 PUSH1 0x1 PUSH1 0xA0 SHL SUB DUP4 DUP2 AND PUSH1 0x1 PUSH1 0x1 PUSH1 0xA0 SHL SUB NOT DUP4 AND DUP2 OR SWAP1 SWAP4 SSTORE PUSH1 0x40 MLOAD SWAP2 AND SWAP2 SWAP1 DUP3 SWAP1 PUSH32 0x8BE0079C531659141344CD1FD0A4F28419497F9722A3DAAFE3B4186F6B6457E0 SWAP1 PUSH1 0x0 SWAP1 LOG3 POP POP JUMP JUMPDEST PUSH1 0x0 DUP1 PUSH2 0x34C3 GAS PUSH1 0x96 PUSH4 0x66AD5C8A PUSH1 0xE0 SHL DUP10 DUP10 DUP10 DUP10 PUSH1 0x40 MLOAD PUSH1 0x24 ADD PUSH2 0x3488 SWAP5 SWAP4 SWAP3 SWAP2 SWAP1 PUSH2 0x530E JUMP JUMPDEST PUSH1 0x40 DUP1 MLOAD PUSH1 0x1F NOT DUP2 DUP5 SUB ADD DUP2 MSTORE SWAP2 SWAP1 MSTORE PUSH1 0x20 DUP2 ADD DUP1 MLOAD PUSH1 0x1 PUSH1 0x1 PUSH1 0xE0 SHL SUB AND PUSH1 0x1 PUSH1 0x1 PUSH1 0xE0 SHL SUB NOT SWAP1 SWAP4 AND SWAP3 SWAP1 SWAP3 OR SWAP1 SWAP2 MSTORE ADDRESS SWAP3 SWAP2 SWAP1 PUSH2 0x3D85 JUMP JUMPDEST SWAP2 POP SWAP2 POP DUP2 PUSH2 0x255C JUMPI PUSH2 0x255C DUP7 DUP7 DUP7 DUP7 DUP6 PUSH2 0x3E0F JUMP JUMPDEST CALLER PUSH2 0x34E2 PUSH2 0x277A JUMP JUMPDEST PUSH1 0x1 PUSH1 0x1 PUSH1 0xA0 SHL SUB AND EQ PUSH2 0x26AE JUMPI PUSH1 0x40 MLOAD PUSH3 0x461BCD PUSH1 0xE5 SHL DUP2 MSTORE PUSH1 0x20 PUSH1 0x4 DUP3 ADD DUP2 SWAP1 MSTORE PUSH1 0x24 DUP3 ADD MSTORE PUSH32 0x4F776E61626C653A2063616C6C6572206973206E6F7420746865206F776E6572 PUSH1 0x44 DUP3 ADD MSTORE PUSH1 0x64 ADD PUSH2 0xD26 JUMP JUMPDEST PUSH1 0x1 SLOAD PUSH1 0x40 MLOAD PUSH4 0x1A4CA37B PUSH1 0xE2 SHL DUP2 MSTORE PUSH1 0x0 SWAP2 PUSH1 0x1 PUSH1 0x1 PUSH1 0xA0 SHL SUB AND SWAP1 PUSH4 0x69328DEC SWAP1 PUSH2 0x356D SWAP1 DUP8 SWAP1 DUP8 SWAP1 DUP8 SWAP1 PUSH1 0x4 ADD PUSH2 0x4E70 JUMP JUMPDEST PUSH1 0x20 PUSH1 0x40 MLOAD DUP1 DUP4 SUB DUP2 PUSH1 0x0 DUP8 GAS CALL ISZERO DUP1 ISZERO PUSH2 0x358C JUMPI RETURNDATASIZE PUSH1 0x0 DUP1 RETURNDATACOPY RETURNDATASIZE PUSH1 0x0 REVERT JUMPDEST POP POP POP POP PUSH1 0x40 MLOAD RETURNDATASIZE PUSH1 0x1F NOT PUSH1 0x1F DUP3 ADD AND DUP3 ADD DUP1 PUSH1 0x40 MSTORE POP DUP2 ADD SWAP1 PUSH2 0x35B0 SWAP2 SWAP1 PUSH2 0x4D58 JUMP JUMPDEST SWAP5 SWAP4 POP POP POP POP JUMP JUMPDEST PUSH1 0x1 SLOAD PUSH1 0x40 MLOAD PUSH4 0x95EA7B3 PUSH1 0xE0 SHL DUP2 MSTORE PUSH1 0x1 PUSH1 0x1 PUSH1 0xA0 SHL SUB DUP5 DUP2 AND SWAP3 PUSH4 0x95EA7B3 SWAP3 PUSH2 0x35EC SWAP3 SWAP1 SWAP2 AND SWAP1 DUP6 SWAP1 PUSH1 0x4 ADD PUSH2 0x4C80 JUMP JUMPDEST PUSH1 0x20 PUSH1 0x40 MLOAD DUP1 DUP4 SUB DUP2 PUSH1 0x0 DUP8 GAS CALL ISZERO DUP1 ISZERO PUSH2 0x360B JUMPI RETURNDATASIZE PUSH1 0x0 DUP1 RETURNDATACOPY RETURNDATASIZE PUSH1 0x0 REVERT JUMPDEST POP POP POP POP PUSH1 0x40 MLOAD RETURNDATASIZE PUSH1 0x1F NOT PUSH1 0x1F DUP3 ADD AND DUP3 ADD DUP1 PUSH1 0x40 MSTORE POP DUP2 ADD SWAP1 PUSH2 0x362F SWAP2 SWAP1 PUSH2 0x4C19 JUMP JUMPDEST POP PUSH1 0x1 SLOAD PUSH1 0x40 MLOAD PUSH4 0x6EB1769F PUSH1 0xE1 SHL DUP2 MSTORE DUP3 SWAP2 PUSH1 0x1 PUSH1 0x1 PUSH1 0xA0 SHL SUB DUP1 DUP7 AND SWAP3 PUSH4 0xDD62ED3E SWAP3 PUSH2 0x3665 SWAP3 ADDRESS SWAP3 SWAP2 AND SWAP1 PUSH1 0x4 ADD PUSH2 0x4D8C JUMP JUMPDEST PUSH1 0x20 PUSH1 0x40 MLOAD DUP1 DUP4 SUB DUP2 DUP7 GAS STATICCALL ISZERO DUP1 ISZERO PUSH2 0x3682 JUMPI RETURNDATASIZE PUSH1 0x0 DUP1 RETURNDATACOPY RETURNDATASIZE PUSH1 0x0 REVERT JUMPDEST POP POP POP POP PUSH1 0x40 MLOAD RETURNDATASIZE PUSH1 0x1F NOT PUSH1 0x1F DUP3 ADD AND DUP3 ADD DUP1 PUSH1 0x40 MSTORE POP DUP2 ADD SWAP1 PUSH2 0x36A6 SWAP2 SWAP1 PUSH2 0x4D58 JUMP JUMPDEST LT ISZERO PUSH2 0x36C4 JUMPI PUSH1 0x40 MLOAD PUSH3 0x461BCD PUSH1 0xE5 SHL DUP2 MSTORE PUSH1 0x4 ADD PUSH2 0xD26 SWAP1 PUSH2 0x4DA6 JUMP JUMPDEST PUSH1 0x1 SLOAD PUSH1 0x40 MLOAD PUSH4 0xE8EDA9DF PUSH1 0xE0 SHL DUP2 MSTORE PUSH1 0x1 PUSH1 0x1 PUSH1 0xA0 SHL SUB DUP5 DUP2 AND PUSH1 0x4 DUP4 ADD MSTORE PUSH1 0x24 DUP3 ADD DUP5 SWAP1 MSTORE ADDRESS PUSH1 0x44 DUP4 ADD MSTORE PUSH1 0x0 PUSH1 0x64 DUP4 ADD MSTORE SWAP1 SWAP2 AND SWAP1 PUSH4 0xE8EDA9DF SWAP1 PUSH1 0x84 ADD PUSH1 0x0 PUSH1 0x40 MLOAD DUP1 DUP4 SUB DUP2 PUSH1 0x0 DUP8 DUP1 EXTCODESIZE ISZERO DUP1 ISZERO PUSH2 0x371F JUMPI PUSH1 0x0 DUP1 REVERT JUMPDEST POP GAS CALL ISZERO DUP1 ISZERO PUSH2 0x255C JUMPI RETURNDATASIZE PUSH1 0x0 DUP1 RETURNDATACOPY RETURNDATASIZE PUSH1 0x0 REVERT JUMPDEST PUSH2 0x130E DUP4 DUP4 CALLER PUSH1 0x0 PUSH1 0x2 DUP1 SLOAD PUSH2 0x3748 SWAP1 PUSH2 0x4A07 JUMP JUMPDEST DUP1 PUSH1 0x1F ADD PUSH1 0x20 DUP1 SWAP2 DIV MUL PUSH1 0x20 ADD PUSH1 0x40 MLOAD SWAP1 DUP2 ADD PUSH1 0x40 MSTORE DUP1 SWAP3 SWAP2 SWAP1 DUP2 DUP2 MSTORE PUSH1 0x20 ADD DUP3 DUP1 SLOAD PUSH2 0x3774 SWAP1 PUSH2 0x4A07 JUMP JUMPDEST DUP1 ISZERO PUSH2 0x37C1 JUMPI DUP1 PUSH1 0x1F LT PUSH2 0x3796 JUMPI PUSH2 0x100 DUP1 DUP4 SLOAD DIV MUL DUP4 MSTORE SWAP2 PUSH1 0x20 ADD SWAP2 PUSH2 0x37C1 JUMP JUMPDEST DUP3 ADD SWAP2 SWAP1 PUSH1 0x0 MSTORE PUSH1 0x20 PUSH1 0x0 KECCAK256 SWAP1 JUMPDEST DUP2 SLOAD DUP2 MSTORE SWAP1 PUSH1 0x1 ADD SWAP1 PUSH1 0x20 ADD DUP1 DUP4 GT PUSH2 0x37A4 JUMPI DUP3 SWAP1 SUB PUSH1 0x1F AND DUP3 ADD SWAP2 JUMPDEST POP POP POP POP POP DUP7 PUSH2 0x3EAC JUMP JUMPDEST PUSH1 0x0 DUP1 PUSH1 0x0 DUP4 DUP1 PUSH1 0x20 ADD SWAP1 MLOAD DUP2 ADD SWAP1 PUSH2 0x37E5 SWAP2 SWAP1 PUSH2 0x540B JUMP JUMPDEST SWAP3 POP SWAP3 POP SWAP3 POP PUSH1 0x0 DUP4 PUSH1 0x0 ADD MLOAD DUP5 PUSH1 0x20 ADD MLOAD DUP6 PUSH1 0x40 ADD MLOAD PUSH1 0x40 MLOAD PUSH1 0x20 ADD PUSH2 0x380C SWAP2 SWAP1 PUSH2 0x5513 JUMP JUMPDEST PUSH1 0x40 MLOAD PUSH1 0x20 DUP2 DUP4 SUB SUB DUP2 MSTORE SWAP1 PUSH1 0x40 MSTORE DUP7 PUSH1 0x60 ADD MLOAD PUSH1 0x40 MLOAD PUSH1 0x20 ADD PUSH2 0x3830 SWAP2 SWAP1 PUSH2 0x5552 JUMP JUMPDEST PUSH1 0x40 DUP1 MLOAD PUSH1 0x1F NOT DUP2 DUP5 SUB ADD DUP2 MSTORE SWAP1 DUP3 SWAP1 MSTORE PUSH1 0x80 DUP10 ADD MLOAD PUSH1 0xA0 DUP11 ADD MLOAD PUSH2 0x385A SWAP7 SWAP6 SWAP5 SWAP4 PUSH1 0x20 ADD PUSH2 0x557C JUMP JUMPDEST PUSH1 0x40 MLOAD PUSH1 0x20 DUP2 DUP4 SUB SUB DUP2 MSTORE SWAP1 PUSH1 0x40 MSTORE SWAP1 POP DUP2 ISZERO PUSH2 0x392E JUMPI PUSH2 0x3895 PUSH1 0x0 DUP1 MLOAD PUSH1 0x20 PUSH2 0x570C DUP4 CODECOPY DUP2 MLOAD SWAP2 MSTORE PUSH2 0x936 DUP7 PUSH1 0xC0 ADD MLOAD DUP8 PUSH1 0xE0 ADD MLOAD PUSH2 0x2A6E JUMP JUMPDEST ISZERO ISZERO PUSH1 0x1 EQ PUSH2 0x38E1 JUMPI PUSH1 0x40 MLOAD PUSH3 0x461BCD PUSH1 0xE5 SHL DUP2 MSTORE PUSH1 0x20 PUSH1 0x4 DUP3 ADD MSTORE PUSH1 0x18 PUSH1 0x24 DUP3 ADD MSTORE PUSH24 0x546865207369676E6572206973206E6F742061206E6F6465 PUSH1 0x40 SHL PUSH1 0x44 DUP3 ADD MSTORE PUSH1 0x64 ADD PUSH2 0xD26 JUMP JUMPDEST DUP1 MLOAD PUSH1 0x20 DUP3 ADD KECCAK256 PUSH1 0xC0 DUP6 ADD MLOAD DUP2 EQ PUSH2 0x392C JUMPI PUSH1 0x40 MLOAD PUSH3 0x461BCD PUSH1 0xE5 SHL DUP2 MSTORE PUSH1 0x20 PUSH1 0x4 DUP3 ADD MSTORE PUSH1 0xE PUSH1 0x24 DUP3 ADD MSTORE PUSH14 0x496E636F72726563742064617461 PUSH1 0x90 SHL PUSH1 0x44 DUP3 ADD MSTORE PUSH1 0x64 ADD PUSH2 0xD26 JUMP JUMPDEST POP JUMPDEST DUP4 MLOAD PUSH1 0x1 PUSH1 0x1 PUSH1 0xA0 SHL SUB SWAP1 DUP2 AND PUSH1 0x0 SWAP1 DUP2 MSTORE PUSH1 0x3 PUSH1 0x20 SWAP1 DUP2 MSTORE PUSH1 0x40 DUP3 KECCAK256 DUP8 MLOAD DUP2 SLOAD PUSH1 0x1 PUSH1 0x1 PUSH1 0xA0 SHL SUB NOT AND SWAP5 AND SWAP4 SWAP1 SWAP4 OR DUP4 SSTORE DUP7 ADD MLOAD PUSH1 0x1 DUP4 ADD SSTORE PUSH1 0x80 DUP7 ADD MLOAD PUSH1 0x7 DUP4 ADD SSTORE DUP1 JUMPDEST DUP7 PUSH1 0x40 ADD MLOAD MLOAD DUP2 LT ISZERO PUSH2 0x3B2F JUMPI PUSH2 0x39A8 DUP8 PUSH1 0x40 ADD MLOAD DUP3 DUP2 MLOAD DUP2 LT PUSH2 0x399B JUMPI PUSH2 0x399B PUSH2 0x4CBD JUMP JUMPDEST PUSH1 0x20 MUL PUSH1 0x20 ADD ADD MLOAD PUSH2 0x4046 JUMP JUMPDEST DUP7 PUSH1 0x60 ADD MLOAD DUP2 DUP2 MLOAD DUP2 LT PUSH2 0x39BE JUMPI PUSH2 0x39BE PUSH2 0x4CBD JUMP JUMPDEST PUSH1 0x20 MUL PUSH1 0x20 ADD ADD MLOAD DUP4 PUSH1 0x2 ADD PUSH1 0x0 DUP10 PUSH1 0x40 ADD MLOAD DUP5 DUP2 MLOAD DUP2 LT PUSH2 0x39E2 JUMPI PUSH2 0x39E2 PUSH2 0x4CBD JUMP JUMPDEST PUSH1 0x20 MUL PUSH1 0x20 ADD ADD MLOAD PUSH1 0x1 PUSH1 0x1 PUSH1 0xA0 SHL SUB AND PUSH1 0x1 PUSH1 0x1 PUSH1 0xA0 SHL SUB AND DUP2 MSTORE PUSH1 0x20 ADD SWAP1 DUP2 MSTORE PUSH1 0x20 ADD PUSH1 0x0 KECCAK256 PUSH1 0x0 DUP3 DUP3 SLOAD PUSH2 0x3A19 SWAP2 SWAP1 PUSH2 0x4E04 JUMP JUMPDEST SWAP3 POP POP DUP2 SWAP1 SSTORE POP PUSH1 0x4 PUSH1 0x0 DUP9 PUSH1 0x40 ADD MLOAD DUP4 DUP2 MLOAD DUP2 LT PUSH2 0x3A3A JUMPI PUSH2 0x3A3A PUSH2 0x4CBD JUMP JUMPDEST PUSH1 0x20 SWAP1 DUP2 MUL SWAP2 SWAP1 SWAP2 ADD DUP2 ADD MLOAD PUSH1 0x1 PUSH1 0x1 PUSH1 0xA0 SHL SUB AND DUP3 MSTORE DUP2 ADD SWAP2 SWAP1 SWAP2 MSTORE PUSH1 0x40 ADD PUSH1 0x0 KECCAK256 SLOAD PUSH1 0xFF AND ISZERO PUSH2 0x3B1D JUMPI PUSH1 0x1 SWAP2 POP PUSH1 0x0 DUP8 PUSH1 0x60 ADD MLOAD DUP3 DUP2 MLOAD DUP2 LT PUSH2 0x3A82 JUMPI PUSH2 0x3A82 PUSH2 0x4CBD JUMP JUMPDEST PUSH1 0x20 MUL PUSH1 0x20 ADD ADD MLOAD DUP8 PUSH2 0x3A95 SWAP2 SWAP1 PUSH2 0x4E04 JUMP JUMPDEST GT ISZERO PUSH2 0x3B1D JUMPI DUP7 MLOAD PUSH1 0x1 PUSH1 0x1 PUSH1 0xA0 SHL SUB AND PUSH1 0x0 SWAP1 DUP2 MSTORE PUSH1 0x11 PUSH1 0x20 MSTORE PUSH1 0x40 DUP2 KECCAK256 DUP1 SLOAD DUP9 SWAP3 SWAP1 PUSH2 0x3AC4 SWAP1 DUP5 SWAP1 PUSH2 0x4E04 JUMP JUMPDEST SWAP3 POP POP DUP2 SWAP1 SSTORE POP PUSH2 0x3B1B DUP8 PUSH1 0x40 ADD MLOAD DUP3 DUP2 MLOAD DUP2 LT PUSH2 0x3AE4 JUMPI PUSH2 0x3AE4 PUSH2 0x4CBD JUMP JUMPDEST PUSH1 0x20 MUL PUSH1 0x20 ADD ADD MLOAD DUP9 PUSH1 0x60 ADD MLOAD DUP4 DUP2 MLOAD DUP2 LT PUSH2 0x3B02 JUMPI PUSH2 0x3B02 PUSH2 0x4CBD JUMP JUMPDEST PUSH1 0x20 MUL PUSH1 0x20 ADD ADD MLOAD DUP9 PUSH2 0x3B15 SWAP2 SWAP1 PUSH2 0x4E04 JUMP JUMPDEST ADDRESS PUSH2 0x3538 JUMP JUMPDEST POP JUMPDEST DUP1 PUSH2 0x3B27 DUP2 PUSH2 0x4D01 JUMP JUMPDEST SWAP2 POP POP PUSH2 0x3975 JUMP JUMPDEST POP DUP1 ISZERO DUP1 ISZERO PUSH2 0x3B3E JUMPI POP PUSH1 0x0 DUP6 GT JUMPDEST ISZERO PUSH2 0x3B8A JUMPI DUP6 MLOAD PUSH1 0x1 PUSH1 0x1 PUSH1 0xA0 SHL SUB AND PUSH1 0x0 SWAP1 DUP2 MSTORE PUSH1 0x11 PUSH1 0x20 MSTORE PUSH1 0x40 DUP2 KECCAK256 DUP1 SLOAD DUP8 SWAP3 SWAP1 PUSH2 0x3B6C SWAP1 DUP5 SWAP1 PUSH2 0x4E04 JUMP JUMPDEST SWAP1 SWAP2 SSTORE POP POP PUSH1 0xA SLOAD PUSH2 0x3B88 SWAP1 PUSH1 0x1 PUSH1 0x1 PUSH1 0xA0 SHL SUB AND DUP7 ADDRESS PUSH2 0x3538 JUMP JUMPDEST POP JUMPDEST PUSH32 0xC53F0AAE5AD30D5251E6054A1874116C45EAF54274CDB1940EE106D67C10B3A5 DUP7 PUSH1 0x0 ADD MLOAD DUP8 PUSH1 0x40 ADD MLOAD DUP9 PUSH1 0x60 ADD MLOAD DUP10 PUSH1 0xA0 ADD MLOAD PUSH1 0x40 MLOAD PUSH2 0x3BCF SWAP5 SWAP4 SWAP3 SWAP2 SWAP1 PUSH2 0x55EB JUMP JUMPDEST PUSH1 0x40 MLOAD DUP1 SWAP2 SUB SWAP1 LOG1 POP POP POP POP POP POP POP POP POP POP JUMP JUMPDEST PUSH1 0xC DUP1 SLOAD PUSH1 0x1 PUSH1 0x1 PUSH1 0xA0 SHL SUB NOT AND SWAP1 SSTORE PUSH2 0x2744 DUP2 PUSH2 0x340E JUMP JUMPDEST PUSH1 0x60 DUP2 PUSH2 0x3C0A DUP2 PUSH1 0x1F PUSH2 0x4E04 JUMP JUMPDEST LT ISZERO PUSH2 0x3C49 JUMPI PUSH1 0x40 MLOAD PUSH3 0x461BCD PUSH1 0xE5 SHL DUP2 MSTORE PUSH1 0x20 PUSH1 0x4 DUP3 ADD MSTORE PUSH1 0xE PUSH1 0x24 DUP3 ADD MSTORE PUSH14 0x736C6963655F6F766572666C6F77 PUSH1 0x90 SHL PUSH1 0x44 DUP3 ADD MSTORE PUSH1 0x64 ADD PUSH2 0xD26 JUMP JUMPDEST PUSH2 0x3C53 DUP3 DUP5 PUSH2 0x4E04 JUMP JUMPDEST DUP5 MLOAD LT ISZERO PUSH2 0x3C97 JUMPI PUSH1 0x40 MLOAD PUSH3 0x461BCD PUSH1 0xE5 SHL DUP2 MSTORE PUSH1 0x20 PUSH1 0x4 DUP3 ADD MSTORE PUSH1 0x11 PUSH1 0x24 DUP3 ADD MSTORE PUSH17 0x736C6963655F6F75744F66426F756E6473 PUSH1 0x78 SHL PUSH1 0x44 DUP3 ADD MSTORE PUSH1 0x64 ADD PUSH2 0xD26 JUMP JUMPDEST PUSH1 0x60 DUP3 ISZERO DUP1 ISZERO PUSH2 0x3CB6 JUMPI PUSH1 0x40 MLOAD SWAP2 POP PUSH1 0x0 DUP3 MSTORE PUSH1 0x20 DUP3 ADD PUSH1 0x40 MSTORE PUSH2 0x3D00 JUMP JUMPDEST PUSH1 0x40 MLOAD SWAP2 POP PUSH1 0x1F DUP5 AND DUP1 ISZERO PUSH1 0x20 MUL DUP2 DUP5 ADD ADD DUP6 DUP2 ADD DUP8 DUP4 ISZERO PUSH1 0x20 MUL DUP5 DUP12 ADD ADD ADD JUMPDEST DUP2 DUP4 LT ISZERO PUSH2 0x3CEF JUMPI DUP1 MLOAD DUP4 MSTORE PUSH1 0x20 SWAP3 DUP4 ADD SWAP3 ADD PUSH2 0x3CD7 JUMP JUMPDEST POP POP DUP6 DUP5 MSTORE PUSH1 0x1F ADD PUSH1 0x1F NOT AND PUSH1 0x40 MSTORE POP JUMPDEST POP SWAP5 SWAP4 POP POP POP POP JUMP JUMPDEST PUSH1 0x0 DUP1 PUSH1 0x0 DUP4 MLOAD PUSH1 0x41 EQ PUSH2 0x3D5F JUMPI PUSH1 0x40 MLOAD PUSH3 0x461BCD PUSH1 0xE5 SHL DUP2 MSTORE PUSH1 0x20 PUSH1 0x4 DUP3 ADD MSTORE PUSH1 0x1F PUSH1 0x24 DUP3 ADD MSTORE PUSH32 0x45434453413A20696E76616C6964207369676E6174757265206C656E67746800 PUSH1 0x44 DUP3 ADD MSTORE PUSH1 0x64 ADD PUSH2 0xD26 JUMP JUMPDEST POP POP POP PUSH1 0x20 DUP2 ADD MLOAD PUSH1 0x40 DUP3 ADD MLOAD PUSH1 0x60 SWAP1 SWAP3 ADD MLOAD PUSH1 0x0 BYTE SWAP3 SWAP1 SWAP2 SWAP1 JUMP JUMPDEST PUSH2 0x1407 DUP3 DUP3 PUSH2 0x40D0 JUMP JUMPDEST PUSH1 0x0 PUSH1 0x60 PUSH1 0x0 DUP1 PUSH1 0x0 DUP7 PUSH2 0xFFFF AND PUSH1 0x1 PUSH1 0x1 PUSH1 0x40 SHL SUB DUP2 GT ISZERO PUSH2 0x3DAA JUMPI PUSH2 0x3DAA PUSH2 0x438D JUMP JUMPDEST PUSH1 0x40 MLOAD SWAP1 DUP1 DUP3 MSTORE DUP1 PUSH1 0x1F ADD PUSH1 0x1F NOT AND PUSH1 0x20 ADD DUP3 ADD PUSH1 0x40 MSTORE DUP1 ISZERO PUSH2 0x3DD4 JUMPI PUSH1 0x20 DUP3 ADD DUP2 DUP1 CALLDATASIZE DUP4 CALLDATACOPY ADD SWAP1 POP JUMPDEST POP SWAP1 POP PUSH1 0x0 DUP1 DUP8 MLOAD PUSH1 0x20 DUP10 ADD PUSH1 0x0 DUP14 DUP14 CALL SWAP2 POP RETURNDATASIZE SWAP3 POP DUP7 DUP4 GT ISZERO PUSH2 0x3DF6 JUMPI DUP7 SWAP3 POP JUMPDEST DUP3 DUP2 MSTORE DUP3 PUSH1 0x0 PUSH1 0x20 DUP4 ADD RETURNDATACOPY SWAP1 SWAP9 SWAP1 SWAP8 POP SWAP6 POP POP POP POP POP POP JUMP JUMPDEST DUP2 DUP1 MLOAD SWAP1 PUSH1 0x20 ADD KECCAK256 PUSH1 0x10 PUSH1 0x0 DUP8 PUSH2 0xFFFF AND PUSH2 0xFFFF AND DUP2 MSTORE PUSH1 0x20 ADD SWAP1 DUP2 MSTORE PUSH1 0x20 ADD PUSH1 0x0 KECCAK256 DUP6 PUSH1 0x40 MLOAD PUSH2 0x3E40 SWAP2 SWAP1 PUSH2 0x5636 JUMP JUMPDEST SWAP1 DUP2 MSTORE PUSH1 0x40 DUP1 MLOAD SWAP2 DUP3 SWAP1 SUB PUSH1 0x20 SWAP1 DUP2 ADD DUP4 KECCAK256 PUSH1 0x1 PUSH1 0x1 PUSH1 0x40 SHL SUB DUP9 AND PUSH1 0x0 SWAP1 DUP2 MSTORE SWAP2 MSTORE KECCAK256 SWAP2 SWAP1 SWAP2 SSTORE PUSH32 0xE183F33DE2837795525B4792CA4CD60535BD77C53B7E7030060BFCF5734D6B0C SWAP1 PUSH2 0x3E9D SWAP1 DUP8 SWAP1 DUP8 SWAP1 DUP8 SWAP1 DUP8 SWAP1 DUP8 SWAP1 PUSH2 0x5652 JUMP JUMPDEST PUSH1 0x40 MLOAD DUP1 SWAP2 SUB SWAP1 LOG1 POP POP POP POP POP JUMP JUMPDEST PUSH2 0xFFFF DUP7 AND PUSH1 0x0 SWAP1 DUP2 MSTORE PUSH1 0xD PUSH1 0x20 MSTORE PUSH1 0x40 DUP2 KECCAK256 DUP1 SLOAD PUSH2 0x3ECA SWAP1 PUSH2 0x4A07 JUMP JUMPDEST DUP1 PUSH1 0x1F ADD PUSH1 0x20 DUP1 SWAP2 DIV MUL PUSH1 0x20 ADD PUSH1 0x40 MLOAD SWAP1 DUP2 ADD PUSH1 0x40 MSTORE DUP1 SWAP3 SWAP2 SWAP1 DUP2 DUP2 MSTORE PUSH1 0x20 ADD DUP3 DUP1 SLOAD PUSH2 0x3EF6 SWAP1 PUSH2 0x4A07 JUMP JUMPDEST DUP1 ISZERO PUSH2 0x3F43 JUMPI DUP1 PUSH1 0x1F LT PUSH2 0x3F18 JUMPI PUSH2 0x100 DUP1 DUP4 SLOAD DIV MUL DUP4 MSTORE SWAP2 PUSH1 0x20 ADD SWAP2 PUSH2 0x3F43 JUMP JUMPDEST DUP3 ADD SWAP2 SWAP1 PUSH1 0x0 MSTORE PUSH1 0x20 PUSH1 0x0 KECCAK256 SWAP1 JUMPDEST DUP2 SLOAD DUP2 MSTORE SWAP1 PUSH1 0x1 ADD SWAP1 PUSH1 0x20 ADD DUP1 DUP4 GT PUSH2 0x3F26 JUMPI DUP3 SWAP1 SUB PUSH1 0x1F AND DUP3 ADD SWAP2 JUMPDEST POP POP POP POP POP SWAP1 POP DUP1 MLOAD PUSH1 0x0 SUB PUSH2 0x3FB4 JUMPI PUSH1 0x40 MLOAD PUSH3 0x461BCD PUSH1 0xE5 SHL DUP2 MSTORE PUSH1 0x20 PUSH1 0x4 DUP3 ADD MSTORE PUSH1 0x30 PUSH1 0x24 DUP3 ADD MSTORE PUSH32 0x4C7A4170703A2064657374696E6174696F6E20636861696E206973206E6F7420 PUSH1 0x44 DUP3 ADD MSTORE PUSH16 0x61207472757374656420736F75726365 PUSH1 0x80 SHL PUSH1 0x64 DUP3 ADD MSTORE PUSH1 0x84 ADD PUSH2 0xD26 JUMP JUMPDEST PUSH1 0x40 MLOAD PUSH3 0xC58031 PUSH1 0xE8 SHL DUP2 MSTORE PUSH1 0x1 PUSH1 0x1 PUSH1 0xA0 SHL SUB PUSH32 0x0 AND SWAP1 PUSH4 0xC5803100 SWAP1 DUP5 SWAP1 PUSH2 0x400B SWAP1 DUP12 SWAP1 DUP7 SWAP1 DUP13 SWAP1 DUP13 SWAP1 DUP13 SWAP1 DUP13 SWAP1 PUSH1 0x4 ADD PUSH2 0x56A4 JUMP JUMPDEST PUSH1 0x0 PUSH1 0x40 MLOAD DUP1 DUP4 SUB DUP2 DUP6 DUP9 DUP1 EXTCODESIZE ISZERO DUP1 ISZERO PUSH2 0x4024 JUMPI PUSH1 0x0 DUP1 REVERT JUMPDEST POP GAS CALL ISZERO DUP1 ISZERO PUSH2 0x4038 JUMPI RETURNDATASIZE PUSH1 0x0 DUP1 RETURNDATACOPY RETURNDATASIZE PUSH1 0x0 REVERT JUMPDEST POP POP POP POP POP POP POP POP POP POP POP POP JUMP JUMPDEST PUSH1 0x1 PUSH1 0x1 PUSH1 0xA0 SHL SUB DUP2 AND PUSH1 0x0 SWAP1 DUP2 MSTORE PUSH1 0x9 PUSH1 0x20 MSTORE PUSH1 0x40 DUP2 KECCAK256 SLOAD PUSH1 0xFF AND ISZERO ISZERO SWAP1 SUB PUSH2 0x2744 JUMPI PUSH1 0x1 PUSH1 0x1 PUSH1 0xA0 SHL SUB AND PUSH1 0x0 DUP2 DUP2 MSTORE PUSH1 0x9 PUSH1 0x20 MSTORE PUSH1 0x40 DUP2 KECCAK256 DUP1 SLOAD PUSH1 0xFF NOT AND PUSH1 0x1 SWAP1 DUP2 OR SWAP1 SWAP2 SSTORE PUSH1 0x8 DUP1 SLOAD SWAP2 DUP3 ADD DUP2 SSTORE SWAP1 SWAP2 MSTORE PUSH32 0xF3F7A9FE364FAAB93B216DA50A3214154F22A0A2B415B23A84C8169E8B636EE3 ADD DUP1 SLOAD PUSH1 0x1 PUSH1 0x1 PUSH1 0xA0 SHL SUB NOT AND SWAP1 SWAP2 OR SWAP1 SSTORE JUMP JUMPDEST PUSH2 0x40DA DUP3 DUP3 PUSH2 0x2789 JUMP JUMPDEST PUSH2 0x1407 JUMPI PUSH1 0x0 DUP3 DUP2 MSTORE PUSH1 0x7 PUSH1 0x20 SWAP1 DUP2 MSTORE PUSH1 0x40 DUP1 DUP4 KECCAK256 PUSH1 0x1 PUSH1 0x1 PUSH1 0xA0 SHL SUB DUP6 AND DUP5 MSTORE SWAP1 SWAP2 MSTORE SWAP1 KECCAK256 DUP1 SLOAD PUSH1 0xFF NOT AND PUSH1 0x1 OR SWAP1 SSTORE POP POP JUMP JUMPDEST PUSH2 0xFFFF DUP2 AND DUP2 EQ PUSH2 0x2744 JUMPI PUSH1 0x0 DUP1 REVERT JUMPDEST PUSH1 0x0 DUP1 DUP4 PUSH1 0x1F DUP5 ADD SLT PUSH2 0x4131 JUMPI PUSH1 0x0 DUP1 REVERT JUMPDEST POP DUP2 CALLDATALOAD PUSH1 0x1 PUSH1 0x1 PUSH1 0x40 SHL SUB DUP2 GT ISZERO PUSH2 0x4148 JUMPI PUSH1 0x0 DUP1 REVERT JUMPDEST PUSH1 0x20 DUP4 ADD SWAP2 POP DUP4 PUSH1 0x20 DUP3 DUP6 ADD ADD GT ISZERO PUSH2 0x4160 JUMPI PUSH1 0x0 DUP1 REVERT JUMPDEST SWAP3 POP SWAP3 SWAP1 POP JUMP JUMPDEST DUP1 CALLDATALOAD PUSH1 0x1 PUSH1 0x1 PUSH1 0x40 SHL SUB DUP2 AND DUP2 EQ PUSH2 0x417E JUMPI PUSH1 0x0 DUP1 REVERT JUMPDEST SWAP2 SWAP1 POP JUMP JUMPDEST PUSH1 0x0 DUP1 PUSH1 0x0 DUP1 PUSH1 0x0 DUP1 PUSH1 0x80 DUP8 DUP10 SUB SLT ISZERO PUSH2 0x419C JUMPI PUSH1 0x0 DUP1 REVERT JUMPDEST DUP7 CALLDATALOAD PUSH2 0x41A7 DUP2 PUSH2 0x410F JUMP JUMPDEST SWAP6 POP PUSH1 0x20 DUP8 ADD CALLDATALOAD PUSH1 0x1 PUSH1 0x1 PUSH1 0x40 SHL SUB DUP1 DUP3 GT ISZERO PUSH2 0x41C3 JUMPI PUSH1 0x0 DUP1 REVERT JUMPDEST PUSH2 0x41CF DUP11 DUP4 DUP12 ADD PUSH2 0x411F JUMP JUMPDEST SWAP1 SWAP8 POP SWAP6 POP DUP6 SWAP2 POP PUSH2 0x41E3 PUSH1 0x40 DUP11 ADD PUSH2 0x4167 JUMP JUMPDEST SWAP5 POP PUSH1 0x60 DUP10 ADD CALLDATALOAD SWAP2 POP DUP1 DUP3 GT ISZERO PUSH2 0x41F9 JUMPI PUSH1 0x0 DUP1 REVERT JUMPDEST POP PUSH2 0x4206 DUP10 DUP3 DUP11 ADD PUSH2 0x411F JUMP JUMPDEST SWAP8 SWAP11 SWAP7 SWAP10 POP SWAP5 SWAP8 POP SWAP3 SWAP6 SWAP4 SWAP5 SWAP3 POP POP POP JUMP JUMPDEST PUSH1 0x1 PUSH1 0x1 PUSH1 0xA0 SHL SUB DUP2 AND DUP2 EQ PUSH2 0x2744 JUMPI PUSH1 0x0 DUP1 REVERT JUMPDEST PUSH1 0x0 PUSH1 0x20 DUP3 DUP5 SUB SLT ISZERO PUSH2 0x423F JUMPI PUSH1 0x0 DUP1 REVERT JUMPDEST DUP2 CALLDATALOAD PUSH2 0x264F DUP2 PUSH2 0x4218 JUMP JUMPDEST PUSH1 0x1 PUSH1 0x1 PUSH1 0xA0 SHL SUB SWAP2 SWAP1 SWAP2 AND DUP2 MSTORE PUSH1 0x20 ADD SWAP1 JUMP JUMPDEST PUSH1 0x0 PUSH1 0x20 DUP3 DUP5 SUB SLT ISZERO PUSH2 0x4270 JUMPI PUSH1 0x0 DUP1 REVERT JUMPDEST DUP2 CALLDATALOAD PUSH2 0x264F DUP2 PUSH2 0x410F JUMP JUMPDEST PUSH1 0x0 JUMPDEST DUP4 DUP2 LT ISZERO PUSH2 0x4296 JUMPI DUP2 DUP2 ADD MLOAD DUP4 DUP3 ADD MSTORE PUSH1 0x20 ADD PUSH2 0x427E JUMP JUMPDEST POP POP PUSH1 0x0 SWAP2 ADD MSTORE JUMP JUMPDEST PUSH1 0x0 DUP2 MLOAD DUP1 DUP5 MSTORE PUSH2 0x42B7 DUP2 PUSH1 0x20 DUP7 ADD PUSH1 0x20 DUP7 ADD PUSH2 0x427B JUMP JUMPDEST PUSH1 0x1F ADD PUSH1 0x1F NOT AND SWAP3 SWAP1 SWAP3 ADD PUSH1 0x20 ADD SWAP3 SWAP2 POP POP JUMP JUMPDEST PUSH1 0x20 DUP2 MSTORE PUSH1 0x0 PUSH2 0x264F PUSH1 0x20 DUP4 ADD DUP5 PUSH2 0x429F JUMP JUMPDEST DUP1 ISZERO ISZERO DUP2 EQ PUSH2 0x2744 JUMPI PUSH1 0x0 DUP1 REVERT JUMPDEST PUSH1 0x0 PUSH1 0x20 DUP3 DUP5 SUB SLT ISZERO PUSH2 0x42FE JUMPI PUSH1 0x0 DUP1 REVERT JUMPDEST DUP2 CALLDATALOAD PUSH2 0x264F DUP2 PUSH2 0x42DE JUMP JUMPDEST PUSH1 0x0 DUP1 PUSH1 0x0 PUSH1 0x40 DUP5 DUP7 SUB SLT ISZERO PUSH2 0x431E JUMPI PUSH1 0x0 DUP1 REVERT JUMPDEST DUP4 CALLDATALOAD PUSH2 0x4329 DUP2 PUSH2 0x410F JUMP JUMPDEST SWAP3 POP PUSH1 0x20 DUP5 ADD CALLDATALOAD PUSH1 0x1 PUSH1 0x1 PUSH1 0x40 SHL SUB DUP2 GT ISZERO PUSH2 0x4344 JUMPI PUSH1 0x0 DUP1 REVERT JUMPDEST PUSH2 0x4350 DUP7 DUP3 DUP8 ADD PUSH2 0x411F JUMP JUMPDEST SWAP5 SWAP8 SWAP1 SWAP7 POP SWAP4 SWAP5 POP POP POP POP JUMP JUMPDEST PUSH1 0x0 DUP1 PUSH1 0x40 DUP4 DUP6 SUB SLT ISZERO PUSH2 0x4370 JUMPI PUSH1 0x0 DUP1 REVERT JUMPDEST DUP3 CALLDATALOAD SWAP2 POP PUSH1 0x20 DUP4 ADD CALLDATALOAD PUSH2 0x4382 DUP2 PUSH2 0x4218 JUMP JUMPDEST DUP1 SWAP2 POP POP SWAP3 POP SWAP3 SWAP1 POP JUMP JUMPDEST PUSH4 0x4E487B71 PUSH1 0xE0 SHL PUSH1 0x0 MSTORE PUSH1 0x41 PUSH1 0x4 MSTORE PUSH1 0x24 PUSH1 0x0 REVERT JUMPDEST PUSH1 0x40 MLOAD PUSH2 0x180 DUP2 ADD PUSH1 0x1 PUSH1 0x1 PUSH1 0x40 SHL SUB DUP2 GT DUP3 DUP3 LT OR ISZERO PUSH2 0x43C6 JUMPI PUSH2 0x43C6 PUSH2 0x438D JUMP JUMPDEST PUSH1 0x40 MSTORE SWAP1 JUMP JUMPDEST PUSH1 0x40 MLOAD PUSH2 0x100 DUP2 ADD PUSH1 0x1 PUSH1 0x1 PUSH1 0x40 SHL SUB DUP2 GT DUP3 DUP3 LT OR ISZERO PUSH2 0x43C6 JUMPI PUSH2 0x43C6 PUSH2 0x438D JUMP JUMPDEST PUSH1 0x40 MLOAD PUSH1 0x1F DUP3 ADD PUSH1 0x1F NOT AND DUP2 ADD PUSH1 0x1 PUSH1 0x1 PUSH1 0x40 SHL SUB DUP2 GT DUP3 DUP3 LT OR ISZERO PUSH2 0x4417 JUMPI PUSH2 0x4417 PUSH2 0x438D JUMP JUMPDEST PUSH1 0x40 MSTORE SWAP2 SWAP1 POP JUMP JUMPDEST PUSH1 0x0 PUSH1 0x1 PUSH1 0x1 PUSH1 0x40 SHL SUB DUP3 GT ISZERO PUSH2 0x4438 JUMPI PUSH2 0x4438 PUSH2 0x438D JUMP JUMPDEST POP PUSH1 0x5 SHL PUSH1 0x20 ADD SWAP1 JUMP JUMPDEST PUSH1 0x0 DUP3 PUSH1 0x1F DUP4 ADD SLT PUSH2 0x4453 JUMPI PUSH1 0x0 DUP1 REVERT JUMPDEST DUP2 CALLDATALOAD PUSH1 0x20 PUSH2 0x4468 PUSH2 0x4463 DUP4 PUSH2 0x441F JUMP JUMPDEST PUSH2 0x43EF JUMP JUMPDEST DUP3 DUP2 MSTORE PUSH1 0x5 SWAP3 SWAP1 SWAP3 SHL DUP5 ADD DUP2 ADD SWAP2 DUP2 DUP2 ADD SWAP1 DUP7 DUP5 GT ISZERO PUSH2 0x4487 JUMPI PUSH1 0x0 DUP1 REVERT JUMPDEST DUP3 DUP7 ADD JUMPDEST DUP5 DUP2 LT ISZERO PUSH2 0x44AB JUMPI DUP1 CALLDATALOAD PUSH2 0x449E DUP2 PUSH2 0x4218 JUMP JUMPDEST DUP4 MSTORE SWAP2 DUP4 ADD SWAP2 DUP4 ADD PUSH2 0x448B JUMP JUMPDEST POP SWAP7 SWAP6 POP POP POP POP POP POP JUMP JUMPDEST PUSH1 0x0 DUP1 PUSH1 0x40 DUP4 DUP6 SUB SLT ISZERO PUSH2 0x44C9 JUMPI PUSH1 0x0 DUP1 REVERT JUMPDEST DUP3 CALLDATALOAD PUSH1 0x1 PUSH1 0x1 PUSH1 0x40 SHL SUB DUP1 DUP3 GT ISZERO PUSH2 0x44E0 JUMPI PUSH1 0x0 DUP1 REVERT JUMPDEST DUP2 DUP6 ADD SWAP2 POP DUP6 PUSH1 0x1F DUP4 ADD SLT PUSH2 0x44F4 JUMPI PUSH1 0x0 DUP1 REVERT JUMPDEST DUP2 CALLDATALOAD PUSH1 0x20 PUSH2 0x4504 PUSH2 0x4463 DUP4 PUSH2 0x441F JUMP JUMPDEST DUP3 DUP2 MSTORE PUSH1 0x5 SWAP3 SWAP1 SWAP3 SHL DUP5 ADD DUP2 ADD SWAP2 DUP2 DUP2 ADD SWAP1 DUP10 DUP5 GT ISZERO PUSH2 0x4523 JUMPI PUSH1 0x0 DUP1 REVERT JUMPDEST SWAP5 DUP3 ADD SWAP5 JUMPDEST DUP4 DUP7 LT ISZERO PUSH2 0x4541 JUMPI DUP6 CALLDATALOAD DUP3 MSTORE SWAP5 DUP3 ADD SWAP5 SWAP1 DUP3 ADD SWAP1 PUSH2 0x4528 JUMP JUMPDEST SWAP7 POP POP DUP7 ADD CALLDATALOAD SWAP3 POP POP DUP1 DUP3 GT ISZERO PUSH2 0x4557 JUMPI PUSH1 0x0 DUP1 REVERT JUMPDEST POP PUSH2 0x4564 DUP6 DUP3 DUP7 ADD PUSH2 0x4442 JUMP JUMPDEST SWAP2 POP POP SWAP3 POP SWAP3 SWAP1 POP JUMP JUMPDEST PUSH1 0x0 DUP1 PUSH1 0x40 DUP4 DUP6 SUB SLT ISZERO PUSH2 0x4581 JUMPI PUSH1 0x0 DUP1 REVERT JUMPDEST DUP3 CALLDATALOAD PUSH2 0x458C DUP2 PUSH2 0x4218 JUMP JUMPDEST SWAP2 POP PUSH1 0x20 DUP4 ADD CALLDATALOAD PUSH2 0x4382 DUP2 PUSH2 0x4218 JUMP JUMPDEST PUSH1 0x0 DUP1 PUSH1 0x40 DUP4 DUP6 SUB SLT ISZERO PUSH2 0x45AF JUMPI PUSH1 0x0 DUP1 REVERT JUMPDEST DUP3 CALLDATALOAD PUSH2 0x45BA DUP2 PUSH2 0x4218 JUMP JUMPDEST SWAP5 PUSH1 0x20 SWAP4 SWAP1 SWAP4 ADD CALLDATALOAD SWAP4 POP POP POP JUMP JUMPDEST PUSH1 0x0 DUP1 PUSH1 0x40 DUP4 DUP6 SUB SLT ISZERO PUSH2 0x45DB JUMPI PUSH1 0x0 DUP1 REVERT JUMPDEST DUP3 CALLDATALOAD PUSH2 0x458C DUP2 PUSH2 0x410F JUMP JUMPDEST PUSH1 0x0 PUSH1 0x20 DUP3 DUP5 SUB SLT ISZERO PUSH2 0x45F8 JUMPI PUSH1 0x0 DUP1 REVERT JUMPDEST POP CALLDATALOAD SWAP2 SWAP1 POP JUMP JUMPDEST PUSH1 0x0 PUSH1 0x1 PUSH1 0x1 PUSH1 0x40 SHL SUB DUP3 GT ISZERO PUSH2 0x4618 JUMPI PUSH2 0x4618 PUSH2 0x438D JUMP JUMPDEST POP PUSH1 0x1F ADD PUSH1 0x1F NOT AND PUSH1 0x20 ADD SWAP1 JUMP JUMPDEST PUSH1 0x0 DUP3 PUSH1 0x1F DUP4 ADD SLT PUSH2 0x4637 JUMPI PUSH1 0x0 DUP1 REVERT JUMPDEST DUP2 CALLDATALOAD PUSH2 0x4645 PUSH2 0x4463 DUP3 PUSH2 0x45FF JUMP JUMPDEST DUP2 DUP2 MSTORE DUP5 PUSH1 0x20 DUP4 DUP7 ADD ADD GT ISZERO PUSH2 0x465A JUMPI PUSH1 0x0 DUP1 REVERT JUMPDEST DUP2 PUSH1 0x20 DUP6 ADD PUSH1 0x20 DUP4 ADD CALLDATACOPY PUSH1 0x0 SWAP2 DUP2 ADD PUSH1 0x20 ADD SWAP2 SWAP1 SWAP2 MSTORE SWAP4 SWAP3 POP POP POP JUMP JUMPDEST PUSH1 0x0 DUP1 PUSH1 0x0 PUSH1 0x60 DUP5 DUP7 SUB SLT ISZERO PUSH2 0x468C JUMPI PUSH1 0x0 DUP1 REVERT JUMPDEST DUP4 CALLDATALOAD PUSH2 0x4697 DUP2 PUSH2 0x410F JUMP JUMPDEST SWAP3 POP PUSH1 0x20 DUP5 ADD CALLDATALOAD PUSH1 0x1 PUSH1 0x1 PUSH1 0x40 SHL SUB DUP2 GT ISZERO PUSH2 0x46B2 JUMPI PUSH1 0x0 DUP1 REVERT JUMPDEST PUSH2 0x46BE DUP7 DUP3 DUP8 ADD PUSH2 0x4626 JUMP JUMPDEST SWAP3 POP POP PUSH2 0x46CD PUSH1 0x40 DUP6 ADD PUSH2 0x4167 JUMP JUMPDEST SWAP1 POP SWAP3 POP SWAP3 POP SWAP3 JUMP JUMPDEST PUSH1 0x0 DUP1 PUSH1 0x40 DUP4 DUP6 SUB SLT ISZERO PUSH2 0x46E9 JUMPI PUSH1 0x0 DUP1 REVERT JUMPDEST DUP3 CALLDATALOAD PUSH2 0x45BA DUP2 PUSH2 0x410F JUMP JUMPDEST PUSH1 0x0 DUP1 PUSH1 0x40 DUP4 DUP6 SUB SLT ISZERO PUSH2 0x4707 JUMPI PUSH1 0x0 DUP1 REVERT JUMPDEST DUP3 CALLDATALOAD PUSH2 0x4712 DUP2 PUSH2 0x410F JUMP JUMPDEST SWAP2 POP PUSH1 0x20 DUP4 ADD CALLDATALOAD PUSH2 0x4382 DUP2 PUSH2 0x410F JUMP JUMPDEST PUSH1 0x0 DUP1 PUSH1 0x40 DUP4 DUP6 SUB SLT ISZERO PUSH2 0x4735 JUMPI PUSH1 0x0 DUP1 REVERT JUMPDEST DUP3 CALLDATALOAD PUSH2 0x4740 DUP2 PUSH2 0x4218 JUMP JUMPDEST SWAP2 POP PUSH1 0x20 DUP4 ADD CALLDATALOAD PUSH2 0x4382 DUP2 PUSH2 0x42DE JUMP JUMPDEST PUSH1 0x0 DUP1 PUSH1 0x40 DUP4 DUP6 SUB SLT ISZERO PUSH2 0x4763 JUMPI PUSH1 0x0 DUP1 REVERT JUMPDEST DUP3 CALLDATALOAD PUSH1 0x1 PUSH1 0x1 PUSH1 0x40 SHL SUB DUP2 GT ISZERO PUSH2 0x4779 JUMPI PUSH1 0x0 DUP1 REVERT JUMPDEST PUSH2 0x4785 DUP6 DUP3 DUP7 ADD PUSH2 0x4442 JUMP JUMPDEST SWAP3 POP POP PUSH1 0x20 DUP4 ADD CALLDATALOAD PUSH2 0x4382 DUP2 PUSH2 0x42DE JUMP JUMPDEST PUSH1 0x0 DUP1 PUSH1 0x0 DUP1 PUSH1 0x0 PUSH1 0x60 DUP7 DUP9 SUB SLT ISZERO PUSH2 0x47AE JUMPI PUSH1 0x0 DUP1 REVERT JUMPDEST DUP6 CALLDATALOAD PUSH2 0x47B9 DUP2 PUSH2 0x410F JUMP JUMPDEST SWAP5 POP PUSH1 0x20 DUP7 ADD CALLDATALOAD PUSH1 0x1 PUSH1 0x1 PUSH1 0x40 SHL SUB DUP1 DUP3 GT ISZERO PUSH2 0x47D5 JUMPI PUSH1 0x0 DUP1 REVERT JUMPDEST PUSH2 0x47E1 DUP10 DUP4 DUP11 ADD PUSH2 0x411F JUMP JUMPDEST SWAP1 SWAP7 POP SWAP5 POP PUSH1 0x40 DUP9 ADD CALLDATALOAD SWAP2 POP DUP1 DUP3 GT ISZERO PUSH2 0x47FA JUMPI PUSH1 0x0 DUP1 REVERT JUMPDEST POP PUSH2 0x4807 DUP9 DUP3 DUP10 ADD PUSH2 0x411F JUMP JUMPDEST SWAP7 SWAP10 SWAP6 SWAP9 POP SWAP4 SWAP7 POP SWAP3 SWAP5 SWAP4 SWAP3 POP POP POP JUMP JUMPDEST PUSH1 0x0 DUP1 PUSH1 0x40 DUP4 DUP6 SUB SLT ISZERO PUSH2 0x482B JUMPI PUSH1 0x0 DUP1 REVERT JUMPDEST DUP3 CALLDATALOAD SWAP2 POP PUSH1 0x20 DUP4 ADD CALLDATALOAD PUSH1 0x1 PUSH1 0x1 PUSH1 0x40 SHL SUB DUP2 GT ISZERO PUSH2 0x4848 JUMPI PUSH1 0x0 DUP1 REVERT JUMPDEST PUSH2 0x4564 DUP6 DUP3 DUP7 ADD PUSH2 0x4626 JUMP JUMPDEST PUSH1 0x0 DUP1 PUSH1 0x0 DUP1 PUSH1 0x0 PUSH1 0x80 DUP7 DUP9 SUB SLT ISZERO PUSH2 0x486C JUMPI PUSH1 0x0 DUP1 REVERT JUMPDEST DUP6 CALLDATALOAD PUSH2 0x4877 DUP2 PUSH2 0x410F JUMP JUMPDEST SWAP5 POP PUSH1 0x20 DUP7 ADD CALLDATALOAD PUSH2 0x4887 DUP2 PUSH2 0x410F JUMP JUMPDEST SWAP4 POP PUSH1 0x40 DUP7 ADD CALLDATALOAD SWAP3 POP PUSH1 0x60 DUP7 ADD CALLDATALOAD PUSH1 0x1 PUSH1 0x1 PUSH1 0x40 SHL SUB DUP2 GT ISZERO PUSH2 0x48A9 JUMPI PUSH1 0x0 DUP1 REVERT JUMPDEST PUSH2 0x4807 DUP9 DUP3 DUP10 ADD PUSH2 0x411F JUMP JUMPDEST PUSH1 0x0 DUP1 PUSH1 0x0 PUSH1 0x60 DUP5 DUP7 SUB SLT ISZERO PUSH2 0x48CA JUMPI PUSH1 0x0 DUP1 REVERT JUMPDEST DUP4 CALLDATALOAD PUSH2 0x48D5 DUP2 PUSH2 0x410F JUMP JUMPDEST SWAP3 POP PUSH1 0x20 DUP5 ADD CALLDATALOAD PUSH2 0x48E5 DUP2 PUSH2 0x410F JUMP JUMPDEST SWAP3 SWAP6 SWAP3 SWAP5 POP POP POP PUSH1 0x40 SWAP2 SWAP1 SWAP2 ADD CALLDATALOAD SWAP1 JUMP JUMPDEST PUSH1 0x0 DUP1 PUSH1 0x0 DUP1 PUSH1 0x80 DUP6 DUP8 SUB SLT ISZERO PUSH2 0x490C JUMPI PUSH1 0x0 DUP1 REVERT JUMPDEST DUP5 CALLDATALOAD PUSH2 0x4917 DUP2 PUSH2 0x410F JUMP JUMPDEST SWAP4 POP PUSH1 0x20 DUP6 ADD CALLDATALOAD PUSH2 0x4927 DUP2 PUSH2 0x410F JUMP JUMPDEST SWAP3 POP PUSH1 0x40 DUP6 ADD CALLDATALOAD PUSH2 0x4937 DUP2 PUSH2 0x4218 JUMP JUMPDEST SWAP4 SWAP7 SWAP3 SWAP6 POP SWAP3 SWAP4 PUSH1 0x60 ADD CALLDATALOAD SWAP3 POP POP JUMP JUMPDEST PUSH1 0x0 DUP2 MLOAD DUP1 DUP5 MSTORE PUSH1 0x20 DUP1 DUP6 ADD SWAP5 POP DUP1 DUP5 ADD PUSH1 0x0 JUMPDEST DUP4 DUP2 LT ISZERO PUSH2 0x4980 JUMPI DUP2 MLOAD PUSH1 0x1 PUSH1 0x1 PUSH1 0xA0 SHL SUB AND DUP8 MSTORE SWAP6 DUP3 ADD SWAP6 SWAP1 DUP3 ADD SWAP1 PUSH1 0x1 ADD PUSH2 0x495B JUMP JUMPDEST POP SWAP5 SWAP6 SWAP5 POP POP POP POP POP JUMP JUMPDEST PUSH1 0x0 DUP2 MLOAD DUP1 DUP5 MSTORE PUSH1 0x20 DUP1 DUP6 ADD SWAP5 POP DUP1 DUP5 ADD PUSH1 0x0 JUMPDEST DUP4 DUP2 LT ISZERO PUSH2 0x4980 JUMPI DUP2 MLOAD DUP8 MSTORE SWAP6 DUP3 ADD SWAP6 SWAP1 DUP3 ADD SWAP1 PUSH1 0x1 ADD PUSH2 0x499F JUMP JUMPDEST PUSH1 0x1 DUP1 PUSH1 0xA0 SHL SUB DUP7 AND DUP2 MSTORE DUP5 PUSH1 0x20 DUP3 ADD MSTORE PUSH1 0xA0 PUSH1 0x40 DUP3 ADD MSTORE PUSH1 0x0 PUSH2 0x49E2 PUSH1 0xA0 DUP4 ADD DUP7 PUSH2 0x4947 JUMP JUMPDEST DUP3 DUP2 SUB PUSH1 0x60 DUP5 ADD MSTORE PUSH2 0x49F4 DUP2 DUP7 PUSH2 0x498B JUMP JUMPDEST SWAP2 POP POP DUP3 PUSH1 0x80 DUP4 ADD MSTORE SWAP7 SWAP6 POP POP POP POP POP POP JUMP JUMPDEST PUSH1 0x1 DUP2 DUP2 SHR SWAP1 DUP3 AND DUP1 PUSH2 0x4A1B JUMPI PUSH1 0x7F DUP3 AND SWAP2 POP JUMPDEST PUSH1 0x20 DUP3 LT DUP2 SUB PUSH2 0x4A3B JUMPI PUSH4 0x4E487B71 PUSH1 0xE0 SHL PUSH1 0x0 MSTORE PUSH1 0x22 PUSH1 0x4 MSTORE PUSH1 0x24 PUSH1 0x0 REVERT JUMPDEST POP SWAP2 SWAP1 POP JUMP JUMPDEST DUP2 DUP4 DUP3 CALLDATACOPY PUSH1 0x0 SWAP2 ADD SWAP1 DUP2 MSTORE SWAP2 SWAP1 POP JUMP JUMPDEST PUSH1 0x0 PUSH1 0x20 DUP3 DUP5 SUB SLT ISZERO PUSH2 0x4A63 JUMPI PUSH1 0x0 DUP1 REVERT JUMPDEST PUSH1 0x40 MLOAD PUSH1 0x20 DUP2 ADD PUSH1 0x1 PUSH1 0x1 PUSH1 0x40 SHL SUB DUP2 GT DUP3 DUP3 LT OR ISZERO PUSH2 0x4A85 JUMPI PUSH2 0x4A85 PUSH2 0x438D JUMP JUMPDEST PUSH1 0x40 MSTORE SWAP2 MLOAD DUP3 MSTORE POP SWAP2 SWAP1 POP JUMP JUMPDEST DUP1 MLOAD PUSH1 0x1 PUSH1 0x1 PUSH1 0x80 SHL SUB DUP2 AND DUP2 EQ PUSH2 0x417E JUMPI PUSH1 0x0 DUP1 REVERT JUMPDEST DUP1 MLOAD PUSH5 0xFFFFFFFFFF DUP2 AND DUP2 EQ PUSH2 0x417E JUMPI PUSH1 0x0 DUP1 REVERT JUMPDEST DUP1 MLOAD PUSH2 0x417E DUP2 PUSH2 0x4218 JUMP JUMPDEST DUP1 MLOAD PUSH1 0xFF DUP2 AND DUP2 EQ PUSH2 0x417E JUMPI PUSH1 0x0 DUP1 REVERT JUMPDEST PUSH1 0x0 PUSH2 0x180 DUP3 DUP5 SUB SLT ISZERO PUSH2 0x4AED JUMPI PUSH1 0x0 DUP1 REVERT JUMPDEST PUSH2 0x4AF5 PUSH2 0x43A3 JUMP JUMPDEST PUSH2 0x4AFF DUP5 DUP5 PUSH2 0x4A51 JUMP JUMPDEST DUP2 MSTORE PUSH2 0x4B0D PUSH1 0x20 DUP5 ADD PUSH2 0x4A92 JUMP JUMPDEST PUSH1 0x20 DUP3 ADD MSTORE PUSH2 0x4B1E PUSH1 0x40 DUP5 ADD PUSH2 0x4A92 JUMP JUMPDEST PUSH1 0x40 DUP3 ADD MSTORE PUSH2 0x4B2F PUSH1 0x60 DUP5 ADD PUSH2 0x4A92 JUMP JUMPDEST PUSH1 0x60 DUP3 ADD MSTORE PUSH2 0x4B40 PUSH1 0x80 DUP5 ADD PUSH2 0x4A92 JUMP JUMPDEST PUSH1 0x80 DUP3 ADD MSTORE PUSH2 0x4B51 PUSH1 0xA0 DUP5 ADD PUSH2 0x4A92 JUMP JUMPDEST PUSH1 0xA0 DUP3 ADD MSTORE PUSH2 0x4B62 PUSH1 0xC0 DUP5 ADD PUSH2 0x4AA9 JUMP JUMPDEST PUSH1 0xC0 DUP3 ADD MSTORE PUSH2 0x4B73 PUSH1 0xE0 DUP5 ADD PUSH2 0x4ABE JUMP JUMPDEST PUSH1 0xE0 DUP3 ADD MSTORE PUSH2 0x100 PUSH2 0x4B86 DUP2 DUP6 ADD PUSH2 0x4ABE JUMP JUMPDEST SWAP1 DUP3 ADD MSTORE PUSH2 0x120 PUSH2 0x4B98 DUP5 DUP3 ADD PUSH2 0x4ABE JUMP JUMPDEST SWAP1 DUP3 ADD MSTORE PUSH2 0x140 PUSH2 0x4BAA DUP5 DUP3 ADD PUSH2 0x4ABE JUMP JUMPDEST SWAP1 DUP3 ADD MSTORE PUSH2 0x160 PUSH2 0x4BBC DUP5 DUP3 ADD PUSH2 0x4AC9 JUMP JUMPDEST SWAP1 DUP3 ADD MSTORE SWAP4 SWAP3 POP POP POP JUMP JUMPDEST DUP2 DUP4 MSTORE DUP2 DUP2 PUSH1 0x20 DUP6 ADD CALLDATACOPY POP PUSH1 0x0 DUP3 DUP3 ADD PUSH1 0x20 SWAP1 DUP2 ADD SWAP2 SWAP1 SWAP2 MSTORE PUSH1 0x1F SWAP1 SWAP2 ADD PUSH1 0x1F NOT AND SWAP1 SWAP2 ADD ADD SWAP1 JUMP JUMPDEST PUSH2 0xFFFF DUP5 AND DUP2 MSTORE PUSH1 0x40 PUSH1 0x20 DUP3 ADD MSTORE PUSH1 0x0 PUSH2 0x318A PUSH1 0x40 DUP4 ADD DUP5 DUP7 PUSH2 0x4BC7 JUMP JUMPDEST DUP1 MLOAD PUSH2 0x417E DUP2 PUSH2 0x42DE JUMP JUMPDEST PUSH1 0x0 PUSH1 0x20 DUP3 DUP5 SUB SLT ISZERO PUSH2 0x4C2B JUMPI PUSH1 0x0 DUP1 REVERT JUMPDEST DUP2 MLOAD PUSH2 0x264F DUP2 PUSH2 0x42DE JUMP JUMPDEST PUSH1 0x20 DUP1 DUP3 MSTORE PUSH1 0x7 SWAP1 DUP3 ADD MSTORE PUSH7 0x636C6F73696E67 PUSH1 0xC8 SHL PUSH1 0x40 DUP3 ADD MSTORE PUSH1 0x60 ADD SWAP1 JUMP JUMPDEST PUSH4 0x4E487B71 PUSH1 0xE0 SHL PUSH1 0x0 MSTORE PUSH1 0x11 PUSH1 0x4 MSTORE PUSH1 0x24 PUSH1 0x0 REVERT JUMPDEST DUP2 DUP2 SUB DUP2 DUP2 GT ISZERO PUSH2 0x2774 JUMPI PUSH2 0x2774 PUSH2 0x4C57 JUMP JUMPDEST PUSH1 0x1 PUSH1 0x1 PUSH1 0xA0 SHL SUB SWAP3 SWAP1 SWAP3 AND DUP3 MSTORE PUSH1 0x20 DUP3 ADD MSTORE PUSH1 0x40 ADD SWAP1 JUMP JUMPDEST PUSH1 0x1 PUSH1 0x1 PUSH1 0xA0 SHL SUB SWAP4 DUP5 AND DUP2 MSTORE SWAP2 SWAP1 SWAP3 AND PUSH1 0x20 DUP3 ADD MSTORE PUSH1 0x40 DUP2 ADD SWAP2 SWAP1 SWAP2 MSTORE PUSH1 0x60 ADD SWAP1 JUMP JUMPDEST PUSH4 0x4E487B71 PUSH1 0xE0 SHL PUSH1 0x0 MSTORE PUSH1 0x32 PUSH1 0x4 MSTORE PUSH1 0x24 PUSH1 0x0 REVERT JUMPDEST PUSH1 0x20 DUP1 DUP3 MSTORE PUSH1 0x14 SWAP1 DUP3 ADD MSTORE PUSH20 0x10985B185B98D9481A5B9CDD59999A58DA595B9D PUSH1 0x62 SHL PUSH1 0x40 DUP3 ADD MSTORE PUSH1 0x60 ADD SWAP1 JUMP JUMPDEST PUSH1 0x0 PUSH1 0x1 DUP3 ADD PUSH2 0x4D13 JUMPI PUSH2 0x4D13 PUSH2 0x4C57 JUMP JUMPDEST POP PUSH1 0x1 ADD SWAP1 JUMP JUMPDEST PUSH1 0x60 DUP2 MSTORE PUSH1 0x0 PUSH2 0x4D2D PUSH1 0x60 DUP4 ADD DUP7 PUSH2 0x4947 JUMP JUMPDEST DUP3 DUP2 SUB PUSH1 0x20 DUP5 ADD MSTORE PUSH2 0x4D3F DUP2 DUP7 PUSH2 0x498B JUMP JUMPDEST SWAP2 POP POP PUSH1 0x1 DUP1 PUSH1 0xA0 SHL SUB DUP4 AND PUSH1 0x40 DUP4 ADD MSTORE SWAP5 SWAP4 POP POP POP POP JUMP JUMPDEST PUSH1 0x0 PUSH1 0x20 DUP3 DUP5 SUB SLT ISZERO PUSH2 0x4D6A JUMPI PUSH1 0x0 DUP1 REVERT JUMPDEST POP MLOAD SWAP2 SWAP1 POP JUMP JUMPDEST PUSH1 0x0 PUSH1 0x20 DUP3 DUP5 SUB SLT ISZERO PUSH2 0x4D83 JUMPI PUSH1 0x0 DUP1 REVERT JUMPDEST PUSH2 0x264F DUP3 PUSH2 0x4AA9 JUMP JUMPDEST PUSH1 0x1 PUSH1 0x1 PUSH1 0xA0 SHL SUB SWAP3 DUP4 AND DUP2 MSTORE SWAP2 AND PUSH1 0x20 DUP3 ADD MSTORE PUSH1 0x40 ADD SWAP1 JUMP JUMPDEST PUSH1 0x20 DUP1 DUP3 MSTORE PUSH1 0x10 SWAP1 DUP3 ADD MSTORE PUSH16 0x27379030BABA3437B934BD30BA34B7B7 PUSH1 0x81 SHL PUSH1 0x40 DUP3 ADD MSTORE PUSH1 0x60 ADD SWAP1 JUMP JUMPDEST PUSH1 0x20 DUP1 DUP3 MSTORE PUSH1 0x1A SWAP1 DUP3 ADD MSTORE PUSH26 0x6E6F7420656E6F756768206E617469766520666F722066656573 PUSH1 0x30 SHL PUSH1 0x40 DUP3 ADD MSTORE PUSH1 0x60 ADD SWAP1 JUMP JUMPDEST DUP1 DUP3 ADD DUP1 DUP3 GT ISZERO PUSH2 0x2774 JUMPI PUSH2 0x2774 PUSH2 0x4C57 JUMP JUMPDEST PUSH1 0x1 PUSH1 0x1 PUSH1 0xA0 SHL SUB DUP8 DUP2 AND DUP3 MSTORE DUP7 AND PUSH1 0x20 DUP3 ADD MSTORE PUSH1 0x40 DUP2 ADD DUP6 SWAP1 MSTORE DUP4 ISZERO ISZERO PUSH1 0x60 DUP3 ADD MSTORE PUSH1 0xC0 DUP2 ADD PUSH1 0x5 DUP5 LT PUSH2 0x4E5C JUMPI PUSH4 0x4E487B71 PUSH1 0xE0 SHL PUSH1 0x0 MSTORE PUSH1 0x21 PUSH1 0x4 MSTORE PUSH1 0x24 PUSH1 0x0 REVERT JUMPDEST PUSH1 0x80 DUP3 ADD SWAP4 SWAP1 SWAP4 MSTORE PUSH1 0xA0 ADD MSTORE SWAP5 SWAP4 POP POP POP POP JUMP JUMPDEST PUSH1 0x1 PUSH1 0x1 PUSH1 0xA0 SHL SUB SWAP4 DUP5 AND DUP2 MSTORE PUSH1 0x20 DUP2 ADD SWAP3 SWAP1 SWAP3 MSTORE SWAP1 SWAP2 AND PUSH1 0x40 DUP3 ADD MSTORE PUSH1 0x60 ADD SWAP1 JUMP JUMPDEST PUSH1 0x0 PUSH1 0x20 DUP3 DUP5 SUB SLT ISZERO PUSH2 0x4EA5 JUMPI PUSH1 0x0 DUP1 REVERT JUMPDEST DUP2 MLOAD PUSH2 0x264F DUP2 PUSH2 0x410F JUMP JUMPDEST PUSH1 0x0 PUSH2 0xFFFF DUP1 DUP8 AND DUP4 MSTORE DUP1 DUP7 AND PUSH1 0x20 DUP5 ADD MSTORE POP DUP4 PUSH1 0x40 DUP4 ADD MSTORE PUSH1 0x80 PUSH1 0x60 DUP4 ADD MSTORE PUSH2 0x4EDD PUSH1 0x80 DUP4 ADD DUP5 PUSH2 0x429F JUMP JUMPDEST SWAP7 SWAP6 POP POP POP POP POP POP JUMP JUMPDEST PUSH2 0xFFFF DUP7 AND DUP2 MSTORE PUSH1 0x0 PUSH1 0x20 PUSH1 0x1 DUP1 PUSH1 0xA0 SHL SUB DUP8 AND DUP2 DUP5 ADD MSTORE PUSH1 0xA0 PUSH1 0x40 DUP5 ADD MSTORE PUSH2 0x4F13 PUSH1 0xA0 DUP5 ADD DUP8 PUSH2 0x429F JUMP JUMPDEST DUP6 ISZERO ISZERO PUSH1 0x60 DUP6 ADD MSTORE DUP4 DUP2 SUB PUSH1 0x80 DUP6 ADD MSTORE PUSH1 0x0 DUP6 SLOAD PUSH2 0x4F30 DUP2 PUSH2 0x4A07 JUMP JUMPDEST DUP1 DUP5 MSTORE PUSH1 0x1 DUP3 DUP2 AND DUP1 ISZERO PUSH2 0x4F4B JUMPI PUSH1 0x1 DUP2 EQ PUSH2 0x4F65 JUMPI PUSH2 0x4F93 JUMP JUMPDEST PUSH1 0xFF NOT DUP5 AND DUP7 DUP9 ADD MSTORE DUP3 ISZERO ISZERO PUSH1 0x5 SHL DUP7 ADD DUP8 ADD SWAP5 POP PUSH2 0x4F93 JUMP JUMPDEST DUP10 PUSH1 0x0 MSTORE DUP7 PUSH1 0x0 KECCAK256 PUSH1 0x0 JUMPDEST DUP5 DUP2 LT ISZERO PUSH2 0x4F8B JUMPI DUP2 SLOAD DUP9 DUP3 ADD DUP11 ADD MSTORE SWAP1 DUP4 ADD SWAP1 DUP9 ADD PUSH2 0x4F70 JUMP JUMPDEST DUP8 ADD DUP9 ADD SWAP6 POP POP JUMPDEST POP SWAP3 SWAP13 SWAP12 POP POP POP POP POP POP POP POP POP POP POP POP JUMP JUMPDEST PUSH1 0x0 DUP1 PUSH1 0x40 DUP4 DUP6 SUB SLT ISZERO PUSH2 0x4FB8 JUMPI PUSH1 0x0 DUP1 REVERT JUMPDEST POP POP DUP1 MLOAD PUSH1 0x20 SWAP1 SWAP2 ADD MLOAD SWAP1 SWAP3 SWAP1 SWAP2 POP JUMP JUMPDEST PUSH1 0x1F DUP3 GT ISZERO PUSH2 0x130E JUMPI PUSH1 0x0 DUP2 DUP2 MSTORE PUSH1 0x20 DUP2 KECCAK256 PUSH1 0x1F DUP6 ADD PUSH1 0x5 SHR DUP2 ADD PUSH1 0x20 DUP7 LT ISZERO PUSH2 0x4FF0 JUMPI POP DUP1 JUMPDEST PUSH1 0x1F DUP6 ADD PUSH1 0x5 SHR DUP3 ADD SWAP2 POP JUMPDEST DUP2 DUP2 LT ISZERO PUSH2 0x255C JUMPI DUP3 DUP2 SSTORE PUSH1 0x1 ADD PUSH2 0x4FFC JUMP JUMPDEST PUSH1 0x0 NOT PUSH1 0x3 DUP4 SWAP1 SHL SHR NOT AND PUSH1 0x1 SWAP2 SWAP1 SWAP2 SHL OR SWAP1 JUMP JUMPDEST DUP2 MLOAD PUSH1 0x1 PUSH1 0x1 PUSH1 0x40 SHL SUB DUP2 GT ISZERO PUSH2 0x503D JUMPI PUSH2 0x503D PUSH2 0x438D JUMP JUMPDEST PUSH2 0x5051 DUP2 PUSH2 0x504B DUP5 SLOAD PUSH2 0x4A07 JUMP JUMPDEST DUP5 PUSH2 0x4FC9 JUMP JUMPDEST PUSH1 0x20 DUP1 PUSH1 0x1F DUP4 GT PUSH1 0x1 DUP2 EQ PUSH2 0x5080 JUMPI PUSH1 0x0 DUP5 ISZERO PUSH2 0x506E JUMPI POP DUP6 DUP4 ADD MLOAD JUMPDEST PUSH2 0x5078 DUP6 DUP3 PUSH2 0x500F JUMP JUMPDEST DUP7 SSTORE POP PUSH2 0x255C JUMP JUMPDEST PUSH1 0x0 DUP6 DUP2 MSTORE PUSH1 0x20 DUP2 KECCAK256 PUSH1 0x1F NOT DUP7 AND SWAP2 JUMPDEST DUP3 DUP2 LT ISZERO PUSH2 0x50AF JUMPI DUP9 DUP7 ADD MLOAD DUP3 SSTORE SWAP5 DUP5 ADD SWAP5 PUSH1 0x1 SWAP1 SWAP2 ADD SWAP1 DUP5 ADD PUSH2 0x5090 JUMP JUMPDEST POP DUP6 DUP3 LT ISZERO PUSH2 0x50CD JUMPI DUP8 DUP6 ADD MLOAD PUSH1 0x0 NOT PUSH1 0x3 DUP9 SWAP1 SHL PUSH1 0xF8 AND SHR NOT AND DUP2 SSTORE JUMPDEST POP POP POP POP POP PUSH1 0x1 SWAP1 DUP2 SHL ADD SWAP1 SSTORE POP JUMP JUMPDEST DUP3 DUP5 DUP3 CALLDATACOPY PUSH1 0x60 SWAP2 SWAP1 SWAP2 SHL PUSH1 0x1 PUSH1 0x1 PUSH1 0x60 SHL SUB NOT AND SWAP2 ADD SWAP1 DUP2 MSTORE PUSH1 0x14 ADD SWAP2 SWAP1 POP JUMP JUMPDEST PUSH2 0xFFFF DUP7 AND DUP2 MSTORE PUSH1 0x60 PUSH1 0x20 DUP3 ADD MSTORE PUSH1 0x0 PUSH2 0x511C PUSH1 0x60 DUP4 ADD DUP7 DUP9 PUSH2 0x4BC7 JUMP JUMPDEST DUP3 DUP2 SUB PUSH1 0x40 DUP5 ADD MSTORE PUSH2 0x512F DUP2 DUP6 DUP8 PUSH2 0x4BC7 JUMP JUMPDEST SWAP9 SWAP8 POP POP POP POP POP POP POP POP JUMP JUMPDEST PUSH1 0x0 PUSH2 0xFFFF DUP1 DUP9 AND DUP4 MSTORE DUP1 DUP8 AND PUSH1 0x20 DUP5 ADD MSTORE POP DUP5 PUSH1 0x40 DUP4 ADD MSTORE PUSH1 0x80 PUSH1 0x60 DUP4 ADD MSTORE PUSH2 0x5169 PUSH1 0x80 DUP4 ADD DUP5 DUP7 PUSH2 0x4BC7 JUMP JUMPDEST SWAP8 SWAP7 POP POP POP POP POP POP POP JUMP JUMPDEST PUSH2 0xFFFF DUP7 AND DUP2 MSTORE PUSH1 0x80 PUSH1 0x20 DUP3 ADD MSTORE PUSH1 0x0 PUSH2 0x5192 PUSH1 0x80 DUP4 ADD DUP7 DUP9 PUSH2 0x4BC7 JUMP JUMPDEST PUSH1 0x1 PUSH1 0x1 PUSH1 0x40 SHL SUB SWAP5 SWAP1 SWAP5 AND PUSH1 0x40 DUP4 ADD MSTORE POP PUSH1 0x60 ADD MSTORE SWAP4 SWAP3 POP POP POP JUMP JUMPDEST PUSH2 0xFFFF SWAP5 DUP6 AND DUP2 MSTORE SWAP3 SWAP1 SWAP4 AND PUSH1 0x20 DUP4 ADD MSTORE PUSH1 0x1 PUSH1 0x1 PUSH1 0xA0 SHL SUB AND PUSH1 0x40 DUP3 ADD MSTORE PUSH1 0x60 DUP2 ADD SWAP2 SWAP1 SWAP2 MSTORE PUSH1 0x80 ADD SWAP1 JUMP JUMPDEST PUSH1 0x0 DUP3 PUSH1 0x1F DUP4 ADD SLT PUSH2 0x51ED JUMPI PUSH1 0x0 DUP1 REVERT JUMPDEST DUP2 MLOAD PUSH2 0x51FB PUSH2 0x4463 DUP3 PUSH2 0x45FF JUMP JUMPDEST DUP2 DUP2 MSTORE DUP5 PUSH1 0x20 DUP4 DUP7 ADD ADD GT ISZERO PUSH2 0x5210 JUMPI PUSH1 0x0 DUP1 REVERT JUMPDEST PUSH2 0x35B0 DUP3 PUSH1 0x20 DUP4 ADD PUSH1 0x20 DUP8 ADD PUSH2 0x427B JUMP JUMPDEST PUSH1 0x0 PUSH1 0x20 DUP3 DUP5 SUB SLT ISZERO PUSH2 0x5233 JUMPI PUSH1 0x0 DUP1 REVERT JUMPDEST DUP2 MLOAD PUSH1 0x1 PUSH1 0x1 PUSH1 0x40 SHL SUB DUP2 GT ISZERO PUSH2 0x5249 JUMPI PUSH1 0x0 DUP1 REVERT JUMPDEST PUSH2 0x35B0 DUP5 DUP3 DUP6 ADD PUSH2 0x51DC JUMP JUMPDEST PUSH1 0x1 PUSH1 0x1 PUSH1 0x40 SHL SUB DUP4 GT ISZERO PUSH2 0x526C JUMPI PUSH2 0x526C PUSH2 0x438D JUMP JUMPDEST PUSH2 0x5280 DUP4 PUSH2 0x527A DUP4 SLOAD PUSH2 0x4A07 JUMP JUMPDEST DUP4 PUSH2 0x4FC9 JUMP JUMPDEST PUSH1 0x0 PUSH1 0x1F DUP5 GT PUSH1 0x1 DUP2 EQ PUSH2 0x52AE JUMPI PUSH1 0x0 DUP6 ISZERO PUSH2 0x529C JUMPI POP DUP4 DUP3 ADD CALLDATALOAD JUMPDEST PUSH2 0x52A6 DUP7 DUP3 PUSH2 0x500F JUMP JUMPDEST DUP5 SSTORE POP PUSH2 0xFE2 JUMP JUMPDEST PUSH1 0x0 DUP4 DUP2 MSTORE PUSH1 0x20 SWAP1 KECCAK256 PUSH1 0x1F NOT DUP7 AND SWAP1 DUP4 JUMPDEST DUP3 DUP2 LT ISZERO PUSH2 0x52DF JUMPI DUP7 DUP6 ADD CALLDATALOAD DUP3 SSTORE PUSH1 0x20 SWAP5 DUP6 ADD SWAP5 PUSH1 0x1 SWAP1 SWAP3 ADD SWAP2 ADD PUSH2 0x52BF JUMP JUMPDEST POP DUP7 DUP3 LT ISZERO PUSH2 0x52FC JUMPI PUSH1 0x0 NOT PUSH1 0xF8 DUP9 PUSH1 0x3 SHL AND SHR NOT DUP5 DUP8 ADD CALLDATALOAD AND DUP2 SSTORE JUMPDEST POP POP PUSH1 0x1 DUP6 PUSH1 0x1 SHL ADD DUP4 SSTORE POP POP POP POP POP JUMP JUMPDEST PUSH2 0xFFFF DUP6 AND DUP2 MSTORE PUSH1 0x80 PUSH1 0x20 DUP3 ADD MSTORE PUSH1 0x0 PUSH2 0x532B PUSH1 0x80 DUP4 ADD DUP7 PUSH2 0x429F JUMP JUMPDEST PUSH1 0x1 PUSH1 0x1 PUSH1 0x40 SHL SUB DUP6 AND PUSH1 0x40 DUP5 ADD MSTORE DUP3 DUP2 SUB PUSH1 0x60 DUP5 ADD MSTORE PUSH2 0x5169 DUP2 DUP6 PUSH2 0x429F JUMP JUMPDEST PUSH1 0x0 DUP3 PUSH1 0x1F DUP4 ADD SLT PUSH2 0x535D JUMPI PUSH1 0x0 DUP1 REVERT JUMPDEST DUP2 MLOAD PUSH1 0x20 PUSH2 0x536D PUSH2 0x4463 DUP4 PUSH2 0x441F JUMP JUMPDEST DUP3 DUP2 MSTORE PUSH1 0x5 SWAP3 SWAP1 SWAP3 SHL DUP5 ADD DUP2 ADD SWAP2 DUP2 DUP2 ADD SWAP1 DUP7 DUP5 GT ISZERO PUSH2 0x538C JUMPI PUSH1 0x0 DUP1 REVERT JUMPDEST DUP3 DUP7 ADD JUMPDEST DUP5 DUP2 LT ISZERO PUSH2 0x44AB JUMPI DUP1 MLOAD PUSH2 0x53A3 DUP2 PUSH2 0x4218 JUMP JUMPDEST DUP4 MSTORE SWAP2 DUP4 ADD SWAP2 DUP4 ADD PUSH2 0x5390 JUMP JUMPDEST PUSH1 0x0 DUP3 PUSH1 0x1F DUP4 ADD SLT PUSH2 0x53C1 JUMPI PUSH1 0x0 DUP1 REVERT JUMPDEST DUP2 MLOAD PUSH1 0x20 PUSH2 0x53D1 PUSH2 0x4463 DUP4 PUSH2 0x441F JUMP JUMPDEST DUP3 DUP2 MSTORE PUSH1 0x5 SWAP3 SWAP1 SWAP3 SHL DUP5 ADD DUP2 ADD SWAP2 DUP2 DUP2 ADD SWAP1 DUP7 DUP5 GT ISZERO PUSH2 0x53F0 JUMPI PUSH1 0x0 DUP1 REVERT JUMPDEST DUP3 DUP7 ADD JUMPDEST DUP5 DUP2 LT ISZERO PUSH2 0x44AB JUMPI DUP1 MLOAD DUP4 MSTORE SWAP2 DUP4 ADD SWAP2 DUP4 ADD PUSH2 0x53F4 JUMP JUMPDEST PUSH1 0x0 DUP1 PUSH1 0x0 PUSH1 0x60 DUP5 DUP7 SUB SLT ISZERO PUSH2 0x5420 JUMPI PUSH1 0x0 DUP1 REVERT JUMPDEST DUP4 MLOAD PUSH1 0x1 PUSH1 0x1 PUSH1 0x40 SHL SUB DUP1 DUP3 GT ISZERO PUSH2 0x5437 JUMPI PUSH1 0x0 DUP1 REVERT JUMPDEST SWAP1 DUP6 ADD SWAP1 PUSH2 0x100 DUP3 DUP9 SUB SLT ISZERO PUSH2 0x544C JUMPI PUSH1 0x0 DUP1 REVERT JUMPDEST PUSH2 0x5454 PUSH2 0x43CC JUMP JUMPDEST PUSH2 0x545D DUP4 PUSH2 0x4ABE JUMP JUMPDEST DUP2 MSTORE PUSH1 0x20 DUP4 ADD MLOAD PUSH1 0x20 DUP3 ADD MSTORE PUSH1 0x40 DUP4 ADD MLOAD DUP3 DUP2 GT ISZERO PUSH2 0x547B JUMPI PUSH1 0x0 DUP1 REVERT JUMPDEST PUSH2 0x5487 DUP10 DUP3 DUP7 ADD PUSH2 0x534C JUMP JUMPDEST PUSH1 0x40 DUP4 ADD MSTORE POP PUSH1 0x60 DUP4 ADD MLOAD DUP3 DUP2 GT ISZERO PUSH2 0x549F JUMPI PUSH1 0x0 DUP1 REVERT JUMPDEST PUSH2 0x54AB DUP10 DUP3 DUP7 ADD PUSH2 0x53B0 JUMP JUMPDEST PUSH1 0x60 DUP4 ADD MSTORE POP PUSH1 0x80 DUP4 ADD MLOAD PUSH1 0x80 DUP3 ADD MSTORE PUSH2 0x54C7 PUSH1 0xA0 DUP5 ADD PUSH2 0x4AC9 JUMP JUMPDEST PUSH1 0xA0 DUP3 ADD MSTORE PUSH1 0xC0 DUP4 ADD MLOAD PUSH1 0xC0 DUP3 ADD MSTORE PUSH1 0xE0 DUP4 ADD MLOAD DUP3 DUP2 GT ISZERO PUSH2 0x54E8 JUMPI PUSH1 0x0 DUP1 REVERT JUMPDEST PUSH2 0x54F4 DUP10 DUP3 DUP7 ADD PUSH2 0x51DC JUMP JUMPDEST PUSH1 0xE0 DUP4 ADD MSTORE POP DUP1 SWAP6 POP POP POP POP PUSH1 0x20 DUP5 ADD MLOAD SWAP2 POP PUSH2 0x46CD PUSH1 0x40 DUP6 ADD PUSH2 0x4C0E JUMP JUMPDEST DUP2 MLOAD PUSH1 0x0 SWAP1 DUP3 SWAP1 PUSH1 0x20 DUP1 DUP7 ADD DUP5 JUMPDEST DUP4 DUP2 LT ISZERO PUSH2 0x5546 JUMPI DUP2 MLOAD PUSH1 0x1 PUSH1 0x1 PUSH1 0xA0 SHL SUB AND DUP6 MSTORE SWAP4 DUP3 ADD SWAP4 SWAP1 DUP3 ADD SWAP1 PUSH1 0x1 ADD PUSH2 0x5521 JUMP JUMPDEST POP SWAP3 SWAP7 SWAP6 POP POP POP POP POP POP JUMP JUMPDEST DUP2 MLOAD PUSH1 0x0 SWAP1 DUP3 SWAP1 PUSH1 0x20 DUP1 DUP7 ADD DUP5 JUMPDEST DUP4 DUP2 LT ISZERO PUSH2 0x5546 JUMPI DUP2 MLOAD DUP6 MSTORE SWAP4 DUP3 ADD SWAP4 SWAP1 DUP3 ADD SWAP1 PUSH1 0x1 ADD PUSH2 0x5560 JUMP JUMPDEST PUSH1 0x60 DUP8 SWAP1 SHL PUSH1 0x1 PUSH1 0x1 PUSH1 0x60 SHL SUB NOT AND DUP2 MSTORE PUSH1 0x14 DUP2 ADD DUP7 SWAP1 MSTORE DUP5 MLOAD PUSH1 0x0 SWAP1 PUSH2 0x55AA DUP2 PUSH1 0x34 DUP6 ADD PUSH1 0x20 DUP11 ADD PUSH2 0x427B JUMP JUMPDEST DUP6 MLOAD SWAP1 DUP4 ADD SWAP1 PUSH2 0x55C1 DUP2 PUSH1 0x34 DUP5 ADD PUSH1 0x20 DUP11 ADD PUSH2 0x427B JUMP JUMPDEST PUSH1 0x34 SWAP2 ADD SWAP1 DUP2 ADD SWAP5 SWAP1 SWAP5 MSTORE POP POP PUSH1 0xF8 SHL PUSH1 0x1 PUSH1 0x1 PUSH1 0xF8 SHL SUB NOT AND PUSH1 0x54 DUP3 ADD MSTORE PUSH1 0x55 ADD SWAP5 SWAP4 POP POP POP POP JUMP JUMPDEST PUSH1 0x1 PUSH1 0x1 PUSH1 0xA0 SHL SUB DUP6 AND DUP2 MSTORE PUSH1 0x80 PUSH1 0x20 DUP3 ADD DUP2 SWAP1 MSTORE PUSH1 0x0 SWAP1 PUSH2 0x560F SWAP1 DUP4 ADD DUP7 PUSH2 0x4947 JUMP JUMPDEST DUP3 DUP2 SUB PUSH1 0x40 DUP5 ADD MSTORE PUSH2 0x5621 DUP2 DUP7 PUSH2 0x498B JUMP JUMPDEST SWAP2 POP POP PUSH1 0xFF DUP4 AND PUSH1 0x60 DUP4 ADD MSTORE SWAP6 SWAP5 POP POP POP POP POP JUMP JUMPDEST PUSH1 0x0 DUP3 MLOAD PUSH2 0x5648 DUP2 DUP5 PUSH1 0x20 DUP8 ADD PUSH2 0x427B JUMP JUMPDEST SWAP2 SWAP1 SWAP2 ADD SWAP3 SWAP2 POP POP JUMP JUMPDEST PUSH2 0xFFFF DUP7 AND DUP2 MSTORE PUSH1 0xA0 PUSH1 0x20 DUP3 ADD MSTORE PUSH1 0x0 PUSH2 0x566F PUSH1 0xA0 DUP4 ADD DUP8 PUSH2 0x429F JUMP JUMPDEST PUSH1 0x1 PUSH1 0x1 PUSH1 0x40 SHL SUB DUP7 AND PUSH1 0x40 DUP5 ADD MSTORE DUP3 DUP2 SUB PUSH1 0x60 DUP5 ADD MSTORE PUSH2 0x5690 DUP2 DUP7 PUSH2 0x429F JUMP JUMPDEST SWAP1 POP DUP3 DUP2 SUB PUSH1 0x80 DUP5 ADD MSTORE PUSH2 0x512F DUP2 DUP6 PUSH2 0x429F JUMP JUMPDEST PUSH2 0xFFFF DUP8 AND DUP2 MSTORE PUSH1 0xC0 PUSH1 0x20 DUP3 ADD MSTORE PUSH1 0x0 PUSH2 0x56C1 PUSH1 0xC0 DUP4 ADD DUP9 PUSH2 0x429F JUMP JUMPDEST DUP3 DUP2 SUB PUSH1 0x40 DUP5 ADD MSTORE PUSH2 0x56D3 DUP2 DUP9 PUSH2 0x429F JUMP JUMPDEST PUSH1 0x1 PUSH1 0x1 PUSH1 0xA0 SHL SUB DUP8 DUP2 AND PUSH1 0x60 DUP7 ADD MSTORE DUP7 AND PUSH1 0x80 DUP6 ADD MSTORE DUP4 DUP2 SUB PUSH1 0xA0 DUP6 ADD MSTORE SWAP1 POP PUSH2 0x56FE DUP2 DUP6 PUSH2 0x429F JUMP JUMPDEST SWAP10 SWAP9 POP POP POP POP POP POP POP POP POP JUMP INVALID JUMPI 0xC8 PUSH19 0x46F094B8A493EC5EB6EA374EAFBC3C05951E4 0xD 0xE3 0xC4 ADDRESS 0x2A COINBASE RETURN CALL 0x27 0xBA LOG2 PUSH5 0x6970667358 0x22 SLT KECCAK256 ORIGIN KECCAK256 SMOD 0xAE 0xEA 0xBC 0xCA 0xBB 0xCA LOG0 MSIZE 0x5C EXP GAS 0x4D 0x4C 0xA9 DUP2 EXTCODEHASH PUSH20 0x29B43D5484396EDD9B9E6F3E64736F6C63430008 GT STOP CALLER "},"gasEstimates":{"creation":{"codeDepositCost":"4473800","executionCost":"infinite","totalCost":"infinite"},"external":{"DEFAULT_ADMIN_ROLE()":"1075","NODE_ROLE()":"infinite","OWENER_ROLE()":"415","_roles(bytes32)":"2222","aave()":"1809","acceptOwnership()":"infinite","accounts(address)":"5985","adapterParams()":"infinite","deCoinList(address)":"1489","deposit(address,uint256)":"infinite","depositETH(uint256)":"infinite","dstChainId()":"1321","estimateFee(address)":"infinite","failedMessages(uint16,bytes,uint64)":"infinite","forceResumeReceive(uint16,bytes)":"infinite","getATokenWithToken(address)":"infinite","getBalance(address)":"infinite","getBalanceFromAAVE(address,address)":"infinite","getConfig(uint16,uint16,address,uint256)":"infinite","getInterest(address)":"1935","getNativeFee(address)":"1259","getOracle(uint16)":"infinite","getSize(address)":"infinite","getTotalValue(address)":"infinite","getTrustedRemoteAddress(uint16)":"infinite","getUserReserveData(address,address)":"infinite","hasRole(bytes32,address)":"2178","hasStoredPayload(uint16,bytes)":"infinite","hashMessage(bytes32)":"1484","interest()":"2172","interestAmount(address)":"2335","isOpen()":"1384","isSupDe(address)":"2611","isTrueForCoin(address)":"1643","isTrustedRemote(uint16,bytes)":"infinite","lzEndpoint()":"infinite","lzReceive(uint16,bytes,uint64,bytes)":"infinite","minDstGasLookup(uint16,uint16)":"infinite","nonblockingLzReceive(uint16,bytes,uint64,bytes)":"infinite","owner()":"1862","pendingOwner()":"2324","precrime()":"1897","renounceOwnership()":"infinite","retryMessage(uint16,bytes,uint64,bytes)":"infinite","retryPayload(uint16,bytes,bytes)":"infinite","setAdapterParams(uint16,uint256)":"infinite","setConfig(uint16,uint16,uint256,bytes)":"infinite","setDeCoinList(address[],bool)":"infinite","setIsOpen(bool)":"22120","setMinDstGas(uint16,uint16,uint256)":"infinite","setOracle(uint16,address)":"infinite","setPrecrime(address)":"24234","setReceiveVersion(uint16)":"infinite","setSendVersion(uint16)":"infinite","setSupDe(address,bool)":"infinite","setTrustedRemote(uint16,bytes)":"infinite","setTrustedRemoteAddress(uint16,bytes)":"infinite","setWhilLlist(address)":"infinite","transferOwnership(address)":"infinite","trustedRemoteLookup(uint16)":"infinite","usdt()":"1347","verifyEcrecover(bytes32,bytes)":"infinite","withdraw(uint256[],address[])":"infinite","withdrawInterest(uint256,address)":"infinite","withdrawTest(uint256,address)":"infinite"},"internal":{"_depositToAAVE(address,uint256)":"infinite","_grantRole(bytes32,address)":"22016","_nonblockingLzReceive(uint16,bytes memory,uint64,bytes memory)":"infinite","_sentToL1(uint16,bytes memory,uint256)":"infinite","_setupRole(bytes32,address)":"22050","_withdrawFromAAVE(address,uint256,address)":"infinite","isCoinList(address)":"63522","recover(bytes memory)":"infinite"}},"methodIdentifiers":{"DEFAULT_ADMIN_ROLE()":"a217fddf","NODE_ROLE()":"fb895733","OWENER_ROLE()":"19fc2e61","_roles(bytes32)":"bd99d7e1","aave()":"819faf7b","acceptOwnership()":"79ba5097","accounts(address)":"5e5c06e2","adapterParams()":"083118d5","deCoinList(address)":"29e26b10","deposit(address,uint256)":"47e7ef24","depositETH(uint256)":"5358fbda","dstChainId()":"30c593f7","estimateFee(address)":"57463d35","failedMessages(uint16,bytes,uint64)":"5b8c41e6","forceResumeReceive(uint16,bytes)":"42d65a8d","getATokenWithToken(address)":"021b9359","getBalance(address)":"f8b2cb4f","getBalanceFromAAVE(address,address)":"806b834d","getConfig(uint16,uint16,address,uint256)":"f5ecbdbc","getInterest(address)":"7aaa3470","getNativeFee(address)":"0707a0f0","getOracle(uint16)":"e2f28824","getSize(address)":"504f1671","getTotalValue(address)":"68637549","getTrustedRemoteAddress(uint16)":"9f38369a","getUserReserveData(address,address)":"28dd2d01","hasRole(bytes32,address)":"91d14854","hasStoredPayload(uint16,bytes)":"0eaf6ea6","hashMessage(bytes32)":"b3cb890f","interest()":"c392f766","interestAmount(address)":"c779c1c3","isOpen()":"47535d7b","isSupDe(address)":"ff464d3f","isTrueForCoin(address)":"4893c26a","isTrustedRemote(uint16,bytes)":"3d8b38f6","lzEndpoint()":"b353aaa7","lzReceive(uint16,bytes,uint64,bytes)":"001d3567","minDstGasLookup(uint16,uint16)":"8cfd8f5c","nonblockingLzReceive(uint16,bytes,uint64,bytes)":"66ad5c8a","owner()":"8da5cb5b","pendingOwner()":"e30c3978","precrime()":"950c8a74","renounceOwnership()":"715018a6","retryMessage(uint16,bytes,uint64,bytes)":"d1deba1f","retryPayload(uint16,bytes,bytes)":"aaff5f16","setAdapterParams(uint16,uint256)":"6d1daa28","setConfig(uint16,uint16,uint256,bytes)":"cbed8b9c","setDeCoinList(address[],bool)":"a4ca74db","setIsOpen(bool)":"085a10cf","setMinDstGas(uint16,uint16,uint256)":"df2a5b3b","setOracle(uint16,address)":"492e527e","setPrecrime(address)":"baf3292d","setReceiveVersion(uint16)":"10ddb137","setSendVersion(uint16)":"07e0db17","setSupDe(address,bool)":"a304dcf4","setTrustedRemote(uint16,bytes)":"eb8d72b7","setTrustedRemoteAddress(uint16,bytes)":"a6c3d165","setWhilLlist(address)":"e251e96d","transferOwnership(address)":"f2fde38b","trustedRemoteLookup(uint16)":"7533d788","usdt()":"2f48ab7d","verifyEcrecover(bytes32,bytes)":"b273f207","withdraw(uint256[],address[])":"16e57652","withdrawInterest(uint256,address)":"1210aac2","withdrawTest(uint256,address)":"1371e2e1"}},"storageLayout":{"storage":[{"astId":3657,"contract":"contracts/L1/Vault.sol:Vault","label":"dstChainId","offset":0,"slot":"0","type":"t_uint16"},{"astId":3659,"contract":"contracts/L1/Vault.sol:Vault","label":"interest","offset":2,"slot":"0","type":"t_address"},{"astId":3661,"contract":"contracts/L1/Vault.sol:Vault","label":"aave","offset":0,"slot":"1","type":"t_address"},{"astId":3663,"contract":"contracts/L1/Vault.sol:Vault","label":"adapterParams","offset":0,"slot":"2","type":"t_bytes_storage"},{"astId":3689,"contract":"contracts/L1/Vault.sol:Vault","label":"accounts","offset":0,"slot":"3","type":"t_mapping(t_address,t_struct(Account)3684_storage)"},{"astId":3693,"contract":"contracts/L1/Vault.sol:Vault","label":"isSupDe","offset":0,"slot":"4","type":"t_mapping(t_address,t_bool)"},{"astId":3697,"contract":"contracts/L1/Vault.sol:Vault","label":"latestShare","offset":0,"slot":"5","type":"t_mapping(t_address,t_uint256)"},{"astId":3699,"contract":"contracts/L1/Vault.sol:Vault","label":"isOpen","offset":0,"slot":"6","type":"t_bool"},{"astId":3730,"contract":"contracts/L1/Vault.sol:Vault","label":"_roles","offset":0,"slot":"7","type":"t_mapping(t_bytes32,t_struct(RoleData)3725_storage)"},{"astId":3736,"contract":"contracts/L1/Vault.sol:Vault","label":"coinList","offset":0,"slot":"8","type":"t_array(t_address)dyn_storage"},{"astId":3740,"contract":"contracts/L1/Vault.sol:Vault","label":"isTrueForCoin","offset":0,"slot":"9","type":"t_mapping(t_address,t_bool)"},{"astId":3742,"contract":"contracts/L1/Vault.sol:Vault","label":"usdt","offset":0,"slot":"10","type":"t_address"},{"astId":7,"contract":"contracts/L1/Vault.sol:Vault","label":"_owner","offset":0,"slot":"11","type":"t_address"},{"astId":120,"contract":"contracts/L1/Vault.sol:Vault","label":"_pendingOwner","offset":0,"slot":"12","type":"t_address"},{"astId":3842,"contract":"contracts/L1/Vault.sol:Vault","label":"trustedRemoteLookup","offset":0,"slot":"13","type":"t_mapping(t_uint16,t_bytes_storage)"},{"astId":3848,"contract":"contracts/L1/Vault.sol:Vault","label":"minDstGasLookup","offset":0,"slot":"14","type":"t_mapping(t_uint16,t_mapping(t_uint16,t_uint256))"},{"astId":3850,"contract":"contracts/L1/Vault.sol:Vault","label":"precrime","offset":0,"slot":"15","type":"t_address"},{"astId":4368,"contract":"contracts/L1/Vault.sol:Vault","label":"failedMessages","offset":0,"slot":"16","type":"t_mapping(t_uint16,t_mapping(t_bytes_memory_ptr,t_mapping(t_uint64,t_bytes32)))"},{"astId":2053,"contract":"contracts/L1/Vault.sol:Vault","label":"interestAmount","offset":0,"slot":"17","type":"t_mapping(t_address,t_uint256)"},{"astId":2057,"contract":"contracts/L1/Vault.sol:Vault","label":"deCoinList","offset":0,"slot":"18","type":"t_mapping(t_address,t_bool)"}],"types":{"t_address":{"encoding":"inplace","label":"address","numberOfBytes":"20"},"t_array(t_address)dyn_storage":{"base":"t_address","encoding":"dynamic_array","label":"address[]","numberOfBytes":"32"},"t_bool":{"encoding":"inplace","label":"bool","numberOfBytes":"1"},"t_bytes32":{"encoding":"inplace","label":"bytes32","numberOfBytes":"32"},"t_bytes_memory_ptr":{"encoding":"bytes","label":"bytes","numberOfBytes":"32"},"t_bytes_storage":{"encoding":"bytes","label":"bytes","numberOfBytes":"32"},"t_mapping(t_address,t_bool)":{"encoding":"mapping","key":"t_address","label":"mapping(address => bool)","numberOfBytes":"32","value":"t_bool"},"t_mapping(t_address,t_struct(Account)3684_storage)":{"encoding":"mapping","key":"t_address","label":"mapping(address => struct VaultData.Account)","numberOfBytes":"32","value":"t_struct(Account)3684_storage"},"t_mapping(t_address,t_uint256)":{"encoding":"mapping","key":"t_address","label":"mapping(address => uint256)","numberOfBytes":"32","value":"t_uint256"},"t_mapping(t_bytes32,t_struct(RoleData)3725_storage)":{"encoding":"mapping","key":"t_bytes32","label":"mapping(bytes32 => struct VaultData.RoleData)","numberOfBytes":"32","value":"t_struct(RoleData)3725_storage"},"t_mapping(t_bytes_memory_ptr,t_mapping(t_uint64,t_bytes32))":{"encoding":"mapping","key":"t_bytes_memory_ptr","label":"mapping(bytes => mapping(uint64 => bytes32))","numberOfBytes":"32","value":"t_mapping(t_uint64,t_bytes32)"},"t_mapping(t_uint16,t_bytes_storage)":{"encoding":"mapping","key":"t_uint16","label":"mapping(uint16 => bytes)","numberOfBytes":"32","value":"t_bytes_storage"},"t_mapping(t_uint16,t_mapping(t_bytes_memory_ptr,t_mapping(t_uint64,t_bytes32)))":{"encoding":"mapping","key":"t_uint16","label":"mapping(uint16 => mapping(bytes => mapping(uint64 => bytes32)))","numberOfBytes":"32","value":"t_mapping(t_bytes_memory_ptr,t_mapping(t_uint64,t_bytes32))"},"t_mapping(t_uint16,t_mapping(t_uint16,t_uint256))":{"encoding":"mapping","key":"t_uint16","label":"mapping(uint16 => mapping(uint16 => uint256))","numberOfBytes":"32","value":"t_mapping(t_uint16,t_uint256)"},"t_mapping(t_uint16,t_uint256)":{"encoding":"mapping","key":"t_uint16","label":"mapping(uint16 => uint256)","numberOfBytes":"32","value":"t_uint256"},"t_mapping(t_uint64,t_bytes32)":{"encoding":"mapping","key":"t_uint64","label":"mapping(uint64 => bytes32)","numberOfBytes":"32","value":"t_bytes32"},"t_struct(Account)3684_storage":{"encoding":"inplace","label":"struct VaultData.Account","members":[{"astId":3665,"contract":"contracts/L1/Vault.sol:Vault","label":"user","offset":0,"slot":"0","type":"t_address"},{"astId":3667,"contract":"contracts/L1/Vault.sol:Vault","label":"capitalMerkleRoot","offset":0,"slot":"1","type":"t_bytes32"},{"astId":3671,"contract":"contracts/L1/Vault.sol:Vault","label":"capitalBalance","offset":0,"slot":"2","type":"t_mapping(t_address,t_uint256)"},{"astId":3673,"contract":"contracts/L1/Vault.sol:Vault","label":"capitalNonce","offset":0,"slot":"3","type":"t_uint256"},{"astId":3675,"contract":"contracts/L1/Vault.sol:Vault","label":"tradingMerkleRoot","offset":0,"slot":"4","type":"t_bytes32"},{"astId":3679,"contract":"contracts/L1/Vault.sol:Vault","label":"tradingBalance","offset":0,"slot":"5","type":"t_mapping(t_address,t_uint256)"},{"astId":3681,"contract":"contracts/L1/Vault.sol:Vault","label":"tradingNonce","offset":0,"slot":"6","type":"t_uint256"},{"astId":3683,"contract":"contracts/L1/Vault.sol:Vault","label":"nativeFee","offset":0,"slot":"7","type":"t_uint256"}],"numberOfBytes":"256"},"t_struct(RoleData)3725_storage":{"encoding":"inplace","label":"struct VaultData.RoleData","members":[{"astId":3722,"contract":"contracts/L1/Vault.sol:Vault","label":"members","offset":0,"slot":"0","type":"t_mapping(t_address,t_bool)"},{"astId":3724,"contract":"contracts/L1/Vault.sol:Vault","label":"adminRole","offset":0,"slot":"1","type":"t_bytes32"}],"numberOfBytes":"64"},"t_uint16":{"encoding":"inplace","label":"uint16","numberOfBytes":"2"},"t_uint256":{"encoding":"inplace","label":"uint256","numberOfBytes":"32"},"t_uint64":{"encoding":"inplace","label":"uint64","numberOfBytes":"8"}}},"userdoc":{"kind":"user","methods":{},"version":1}}}}