{"contracts/L1/data/VaultData.sol":{"VaultData":{"abi":[{"inputs":[],"name":"DEFAULT_ADMIN_ROLE","outputs":[{"internalType":"bytes32","name":"","type":"bytes32"}],"stateMutability":"view","type":"function"},{"inputs":[],"name":"NODE_ROLE","outputs":[{"internalType":"bytes32","name":"","type":"bytes32"}],"stateMutability":"view","type":"function"},{"inputs":[],"name":"OWENER_ROLE","outputs":[{"internalType":"bytes32","name":"","type":"bytes32"}],"stateMutability":"view","type":"function"},{"inputs":[{"internalType":"bytes32","name":"","type":"bytes32"}],"name":"_roles","outputs":[{"internalType":"bytes32","name":"adminRole","type":"bytes32"}],"stateMutability":"view","type":"function"},{"inputs":[],"name":"aave","outputs":[{"internalType":"address","name":"","type":"address"}],"stateMutability":"view","type":"function"},{"inputs":[{"internalType":"address","name":"","type":"address"}],"name":"accounts","outputs":[{"internalType":"address","name":"user","type":"address"},{"internalType":"bytes32","name":"capitalMerkleRoot","type":"bytes32"},{"internalType":"uint256","name":"capitalNonce","type":"uint256"},{"internalType":"bytes32","name":"tradingMerkleRoot","type":"bytes32"},{"internalType":"uint256","name":"tradingNonce","type":"uint256"},{"internalType":"uint256","name":"nativeFee","type":"uint256"}],"stateMutability":"view","type":"function"},{"inputs":[],"name":"adapterParams","outputs":[{"internalType":"bytes","name":"","type":"bytes"}],"stateMutability":"view","type":"function"},{"inputs":[],"name":"dstChainId","outputs":[{"internalType":"uint16","name":"","type":"uint16"}],"stateMutability":"view","type":"function"},{"inputs":[],"name":"interest","outputs":[{"internalType":"address","name":"","type":"address"}],"stateMutability":"view","type":"function"},{"inputs":[],"name":"isOpen","outputs":[{"internalType":"bool","name":"","type":"bool"}],"stateMutability":"view","type":"function"},{"inputs":[{"internalType":"address","name":"","type":"address"}],"name":"isSupDe","outputs":[{"internalType":"bool","name":"","type":"bool"}],"stateMutability":"view","type":"function"},{"inputs":[{"internalType":"address","name":"","type":"address"}],"name":"isTrueForCoin","outputs":[{"internalType":"bool","name":"","type":"bool"}],"stateMutability":"view","type":"function"},{"inputs":[],"name":"usdt","outputs":[{"internalType":"address","name":"","type":"address"}],"stateMutability":"view","type":"function"}],"devdoc":{"kind":"dev","methods":{},"version":1},"evm":{"bytecode":{"linkReferences":{},"object":"608060405234801561001057600080fd5b5061044f806100206000396000f3fe608060405234801561001057600080fd5b50600436106100af5760003560e01c8063083118d5146100b457806319fc2e61146100d25780632f48ab7d1461010757806330c593f71461013257806347535d7b146101535780634893c26a146101705780635e5c06e214610193578063819faf7b14610219578063a217fddf1461022c578063bd99d7e114610234578063c392f76614610257578063fb89573314610270578063ff464d3f14610297575b600080fd5b6100bc6102ba565b6040516100c99190610348565b60405180910390f35b6100f97f52941335797217779ab62cf10a3ae2b6d453b5f3a1285e7a816eb9f63a58d66981565b6040519081526020016100c9565b600a5461011a906001600160a01b031681565b6040516001600160a01b0390911681526020016100c9565b6000546101409061ffff1681565b60405161ffff90911681526020016100c9565b6006546101609060ff1681565b60405190151581526020016100c9565b61016061017e366004610396565b60096020526000908152604090205460ff1681565b6101e26101a1366004610396565b60036020819052600091825260409091208054600182015492820154600483015460068401546007909401546001600160a01b039093169493919290919086565b604080516001600160a01b0390971687526020870195909552938501929092526060840152608083015260a082015260c0016100c9565b60015461011a906001600160a01b031681565b6100f9600081565b6100f96102423660046103c6565b60076020526000908152604090206001015481565b60005461011a906201000090046001600160a01b031681565b6100f97f57c872046f094b8a493ec5eb6ea374eafbc3c05951e40de3c4302a41f3f127ba81565b6101606102a5366004610396565b60046020526000908152604090205460ff1681565b600280546102c7906103df565b80601f01602080910402602001604051908101604052809291908181526020018280546102f3906103df565b80156103405780601f1061031557610100808354040283529160200191610340565b820191906000526020600020905b81548152906001019060200180831161032357829003601f168201915b505050505081565b600060208083528351808285015260005b8181101561037557858101830151858201604001528201610359565b506000604082860101526040601f19601f8301168501019250505092915050565b6000602082840312156103a857600080fd5b81356001600160a01b03811681146103bf57600080fd5b9392505050565b6000602082840312156103d857600080fd5b5035919050565b600181811c908216806103f357607f821691505b60208210810361041357634e487b7160e01b600052602260045260246000fd5b5091905056fea2646970667358221220c936cc395960ccda7893e6f95e1af93b8a7423b327f0aa833053ada8a83f0de864736f6c63430008110033","opcodes":"PUSH1 0x80 PUSH1 0x40 MSTORE CALLVALUE DUP1 ISZERO PUSH2 0x10 JUMPI PUSH1 0x0 DUP1 REVERT JUMPDEST POP PUSH2 0x44F DUP1 PUSH2 0x20 PUSH1 0x0 CODECOPY PUSH1 0x0 RETURN INVALID PUSH1 0x80 PUSH1 0x40 MSTORE CALLVALUE DUP1 ISZERO PUSH2 0x10 JUMPI PUSH1 0x0 DUP1 REVERT JUMPDEST POP PUSH1 0x4 CALLDATASIZE LT PUSH2 0xAF JUMPI PUSH1 0x0 CALLDATALOAD PUSH1 0xE0 SHR DUP1 PUSH4 0x83118D5 EQ PUSH2 0xB4 JUMPI DUP1 PUSH4 0x19FC2E61 EQ PUSH2 0xD2 JUMPI DUP1 PUSH4 0x2F48AB7D EQ PUSH2 0x107 JUMPI DUP1 PUSH4 0x30C593F7 EQ PUSH2 0x132 JUMPI DUP1 PUSH4 0x47535D7B EQ PUSH2 0x153 JUMPI DUP1 PUSH4 0x4893C26A EQ PUSH2 0x170 JUMPI DUP1 PUSH4 0x5E5C06E2 EQ PUSH2 0x193 JUMPI DUP1 PUSH4 0x819FAF7B EQ PUSH2 0x219 JUMPI DUP1 PUSH4 0xA217FDDF EQ PUSH2 0x22C JUMPI DUP1 PUSH4 0xBD99D7E1 EQ PUSH2 0x234 JUMPI DUP1 PUSH4 0xC392F766 EQ PUSH2 0x257 JUMPI DUP1 PUSH4 0xFB895733 EQ PUSH2 0x270 JUMPI DUP1 PUSH4 0xFF464D3F EQ PUSH2 0x297 JUMPI JUMPDEST PUSH1 0x0 DUP1 REVERT JUMPDEST PUSH2 0xBC PUSH2 0x2BA JUMP JUMPDEST PUSH1 0x40 MLOAD PUSH2 0xC9 SWAP2 SWAP1 PUSH2 0x348 JUMP JUMPDEST PUSH1 0x40 MLOAD DUP1 SWAP2 SUB SWAP1 RETURN JUMPDEST PUSH2 0xF9 PUSH32 0x52941335797217779AB62CF10A3AE2B6D453B5F3A1285E7A816EB9F63A58D669 DUP2 JUMP JUMPDEST PUSH1 0x40 MLOAD SWAP1 DUP2 MSTORE PUSH1 0x20 ADD PUSH2 0xC9 JUMP JUMPDEST PUSH1 0xA SLOAD PUSH2 0x11A SWAP1 PUSH1 0x1 PUSH1 0x1 PUSH1 0xA0 SHL SUB AND DUP2 JUMP JUMPDEST PUSH1 0x40 MLOAD PUSH1 0x1 PUSH1 0x1 PUSH1 0xA0 SHL SUB SWAP1 SWAP2 AND DUP2 MSTORE PUSH1 0x20 ADD PUSH2 0xC9 JUMP JUMPDEST PUSH1 0x0 SLOAD PUSH2 0x140 SWAP1 PUSH2 0xFFFF AND DUP2 JUMP JUMPDEST PUSH1 0x40 MLOAD PUSH2 0xFFFF SWAP1 SWAP2 AND DUP2 MSTORE PUSH1 0x20 ADD PUSH2 0xC9 JUMP JUMPDEST PUSH1 0x6 SLOAD PUSH2 0x160 SWAP1 PUSH1 0xFF AND DUP2 JUMP JUMPDEST PUSH1 0x40 MLOAD SWAP1 ISZERO ISZERO DUP2 MSTORE PUSH1 0x20 ADD PUSH2 0xC9 JUMP JUMPDEST PUSH2 0x160 PUSH2 0x17E CALLDATASIZE PUSH1 0x4 PUSH2 0x396 JUMP JUMPDEST PUSH1 0x9 PUSH1 0x20 MSTORE PUSH1 0x0 SWAP1 DUP2 MSTORE PUSH1 0x40 SWAP1 KECCAK256 SLOAD PUSH1 0xFF AND DUP2 JUMP JUMPDEST PUSH2 0x1E2 PUSH2 0x1A1 CALLDATASIZE PUSH1 0x4 PUSH2 0x396 JUMP JUMPDEST PUSH1 0x3 PUSH1 0x20 DUP2 SWAP1 MSTORE PUSH1 0x0 SWAP2 DUP3 MSTORE PUSH1 0x40 SWAP1 SWAP2 KECCAK256 DUP1 SLOAD PUSH1 0x1 DUP3 ADD SLOAD SWAP3 DUP3 ADD SLOAD PUSH1 0x4 DUP4 ADD SLOAD PUSH1 0x6 DUP5 ADD SLOAD PUSH1 0x7 SWAP1 SWAP5 ADD SLOAD PUSH1 0x1 PUSH1 0x1 PUSH1 0xA0 SHL SUB SWAP1 SWAP4 AND SWAP5 SWAP4 SWAP2 SWAP3 SWAP1 SWAP2 SWAP1 DUP7 JUMP JUMPDEST PUSH1 0x40 DUP1 MLOAD PUSH1 0x1 PUSH1 0x1 PUSH1 0xA0 SHL SUB SWAP1 SWAP8 AND DUP8 MSTORE PUSH1 0x20 DUP8 ADD SWAP6 SWAP1 SWAP6 MSTORE SWAP4 DUP6 ADD SWAP3 SWAP1 SWAP3 MSTORE PUSH1 0x60 DUP5 ADD MSTORE PUSH1 0x80 DUP4 ADD MSTORE PUSH1 0xA0 DUP3 ADD MSTORE PUSH1 0xC0 ADD PUSH2 0xC9 JUMP JUMPDEST PUSH1 0x1 SLOAD PUSH2 0x11A SWAP1 PUSH1 0x1 PUSH1 0x1 PUSH1 0xA0 SHL SUB AND DUP2 JUMP JUMPDEST PUSH2 0xF9 PUSH1 0x0 DUP2 JUMP JUMPDEST PUSH2 0xF9 PUSH2 0x242 CALLDATASIZE PUSH1 0x4 PUSH2 0x3C6 JUMP JUMPDEST PUSH1 0x7 PUSH1 0x20 MSTORE PUSH1 0x0 SWAP1 DUP2 MSTORE PUSH1 0x40 SWAP1 KECCAK256 PUSH1 0x1 ADD SLOAD DUP2 JUMP JUMPDEST PUSH1 0x0 SLOAD PUSH2 0x11A SWAP1 PUSH3 0x10000 SWAP1 DIV PUSH1 0x1 PUSH1 0x1 PUSH1 0xA0 SHL SUB AND DUP2 JUMP JUMPDEST PUSH2 0xF9 PUSH32 0x57C872046F094B8A493EC5EB6EA374EAFBC3C05951E40DE3C4302A41F3F127BA DUP2 JUMP JUMPDEST PUSH2 0x160 PUSH2 0x2A5 CALLDATASIZE PUSH1 0x4 PUSH2 0x396 JUMP JUMPDEST PUSH1 0x4 PUSH1 0x20 MSTORE PUSH1 0x0 SWAP1 DUP2 MSTORE PUSH1 0x40 SWAP1 KECCAK256 SLOAD PUSH1 0xFF AND DUP2 JUMP JUMPDEST PUSH1 0x2 DUP1 SLOAD PUSH2 0x2C7 SWAP1 PUSH2 0x3DF JUMP JUMPDEST DUP1 PUSH1 0x1F ADD PUSH1 0x20 DUP1 SWAP2 DIV MUL PUSH1 0x20 ADD PUSH1 0x40 MLOAD SWAP1 DUP2 ADD PUSH1 0x40 MSTORE DUP1 SWAP3 SWAP2 SWAP1 DUP2 DUP2 MSTORE PUSH1 0x20 ADD DUP3 DUP1 SLOAD PUSH2 0x2F3 SWAP1 PUSH2 0x3DF JUMP JUMPDEST DUP1 ISZERO PUSH2 0x340 JUMPI DUP1 PUSH1 0x1F LT PUSH2 0x315 JUMPI PUSH2 0x100 DUP1 DUP4 SLOAD DIV MUL DUP4 MSTORE SWAP2 PUSH1 0x20 ADD SWAP2 PUSH2 0x340 JUMP JUMPDEST DUP3 ADD SWAP2 SWAP1 PUSH1 0x0 MSTORE PUSH1 0x20 PUSH1 0x0 KECCAK256 SWAP1 JUMPDEST DUP2 SLOAD DUP2 MSTORE SWAP1 PUSH1 0x1 ADD SWAP1 PUSH1 0x20 ADD DUP1 DUP4 GT PUSH2 0x323 JUMPI DUP3 SWAP1 SUB PUSH1 0x1F AND DUP3 ADD SWAP2 JUMPDEST POP POP POP POP POP DUP2 JUMP JUMPDEST PUSH1 0x0 PUSH1 0x20 DUP1 DUP4 MSTORE DUP4 MLOAD DUP1 DUP3 DUP6 ADD MSTORE PUSH1 0x0 JUMPDEST DUP2 DUP2 LT ISZERO PUSH2 0x375 JUMPI DUP6 DUP2 ADD DUP4 ADD MLOAD DUP6 DUP3 ADD PUSH1 0x40 ADD MSTORE DUP3 ADD PUSH2 0x359 JUMP JUMPDEST POP PUSH1 0x0 PUSH1 0x40 DUP3 DUP7 ADD ADD MSTORE PUSH1 0x40 PUSH1 0x1F NOT PUSH1 0x1F DUP4 ADD AND DUP6 ADD ADD SWAP3 POP POP POP SWAP3 SWAP2 POP POP JUMP JUMPDEST PUSH1 0x0 PUSH1 0x20 DUP3 DUP5 SUB SLT ISZERO PUSH2 0x3A8 JUMPI PUSH1 0x0 DUP1 REVERT JUMPDEST DUP2 CALLDATALOAD PUSH1 0x1 PUSH1 0x1 PUSH1 0xA0 SHL SUB DUP2 AND DUP2 EQ PUSH2 0x3BF JUMPI PUSH1 0x0 DUP1 REVERT JUMPDEST SWAP4 SWAP3 POP POP POP JUMP JUMPDEST PUSH1 0x0 PUSH1 0x20 DUP3 DUP5 SUB SLT ISZERO PUSH2 0x3D8 JUMPI PUSH1 0x0 DUP1 REVERT JUMPDEST POP CALLDATALOAD SWAP2 SWAP1 POP JUMP JUMPDEST PUSH1 0x1 DUP2 DUP2 SHR SWAP1 DUP3 AND DUP1 PUSH2 0x3F3 JUMPI PUSH1 0x7F DUP3 AND SWAP2 POP JUMPDEST PUSH1 0x20 DUP3 LT DUP2 SUB PUSH2 0x413 JUMPI PUSH4 0x4E487B71 PUSH1 0xE0 SHL PUSH1 0x0 MSTORE PUSH1 0x22 PUSH1 0x4 MSTORE PUSH1 0x24 PUSH1 0x0 REVERT JUMPDEST POP SWAP2 SWAP1 POP JUMP INVALID LOG2 PUSH5 0x6970667358 0x22 SLT KECCAK256 0xC9 CALLDATASIZE 0xCC CODECOPY MSIZE PUSH1 0xCC 0xDA PUSH25 0x93E6F95E1AF93B8A7423B327F0AA833053ADA8A83F0DE86473 PUSH16 0x6C634300081100330000000000000000 "},"gasEstimates":{"creation":{"codeDepositCost":"220600","executionCost":"263","totalCost":"220863"},"external":{"DEFAULT_ADMIN_ROLE()":"349","NODE_ROLE()":"415","OWENER_ROLE()":"195","_roles(bytes32)":"1320","aave()":"1169","accounts(address)":"5516","adapterParams()":"infinite","dstChainId()":"1057","interest()":"1246","isOpen()":"1076","isSupDe(address)":"1438","isTrueForCoin(address)":"1284","usdt()":"1059"}},"methodIdentifiers":{"DEFAULT_ADMIN_ROLE()":"a217fddf","NODE_ROLE()":"fb895733","OWENER_ROLE()":"19fc2e61","_roles(bytes32)":"bd99d7e1","aave()":"819faf7b","accounts(address)":"5e5c06e2","adapterParams()":"083118d5","dstChainId()":"30c593f7","interest()":"c392f766","isOpen()":"47535d7b","isSupDe(address)":"ff464d3f","isTrueForCoin(address)":"4893c26a","usdt()":"2f48ab7d"}},"storageLayout":{"storage":[{"astId":3657,"contract":"contracts/L1/data/VaultData.sol:VaultData","label":"dstChainId","offset":0,"slot":"0","type":"t_uint16"},{"astId":3659,"contract":"contracts/L1/data/VaultData.sol:VaultData","label":"interest","offset":2,"slot":"0","type":"t_address"},{"astId":3661,"contract":"contracts/L1/data/VaultData.sol:VaultData","label":"aave","offset":0,"slot":"1","type":"t_address"},{"astId":3663,"contract":"contracts/L1/data/VaultData.sol:VaultData","label":"adapterParams","offset":0,"slot":"2","type":"t_bytes_storage"},{"astId":3689,"contract":"contracts/L1/data/VaultData.sol:VaultData","label":"accounts","offset":0,"slot":"3","type":"t_mapping(t_address,t_struct(Account)3684_storage)"},{"astId":3693,"contract":"contracts/L1/data/VaultData.sol:VaultData","label":"isSupDe","offset":0,"slot":"4","type":"t_mapping(t_address,t_bool)"},{"astId":3697,"contract":"contracts/L1/data/VaultData.sol:VaultData","label":"latestShare","offset":0,"slot":"5","type":"t_mapping(t_address,t_uint256)"},{"astId":3699,"contract":"contracts/L1/data/VaultData.sol:VaultData","label":"isOpen","offset":0,"slot":"6","type":"t_bool"},{"astId":3730,"contract":"contracts/L1/data/VaultData.sol:VaultData","label":"_roles","offset":0,"slot":"7","type":"t_mapping(t_bytes32,t_struct(RoleData)3725_storage)"},{"astId":3736,"contract":"contracts/L1/data/VaultData.sol:VaultData","label":"coinList","offset":0,"slot":"8","type":"t_array(t_address)dyn_storage"},{"astId":3740,"contract":"contracts/L1/data/VaultData.sol:VaultData","label":"isTrueForCoin","offset":0,"slot":"9","type":"t_mapping(t_address,t_bool)"},{"astId":3742,"contract":"contracts/L1/data/VaultData.sol:VaultData","label":"usdt","offset":0,"slot":"10","type":"t_address"}],"types":{"t_address":{"encoding":"inplace","label":"address","numberOfBytes":"20"},"t_array(t_address)dyn_storage":{"base":"t_address","encoding":"dynamic_array","label":"address[]","numberOfBytes":"32"},"t_bool":{"encoding":"inplace","label":"bool","numberOfBytes":"1"},"t_bytes32":{"encoding":"inplace","label":"bytes32","numberOfBytes":"32"},"t_bytes_storage":{"encoding":"bytes","label":"bytes","numberOfBytes":"32"},"t_mapping(t_address,t_bool)":{"encoding":"mapping","key":"t_address","label":"mapping(address => bool)","numberOfBytes":"32","value":"t_bool"},"t_mapping(t_address,t_struct(Account)3684_storage)":{"encoding":"mapping","key":"t_address","label":"mapping(address => struct VaultData.Account)","numberOfBytes":"32","value":"t_struct(Account)3684_storage"},"t_mapping(t_address,t_uint256)":{"encoding":"mapping","key":"t_address","label":"mapping(address => uint256)","numberOfBytes":"32","value":"t_uint256"},"t_mapping(t_bytes32,t_struct(RoleData)3725_storage)":{"encoding":"mapping","key":"t_bytes32","label":"mapping(bytes32 => struct VaultData.RoleData)","numberOfBytes":"32","value":"t_struct(RoleData)3725_storage"},"t_struct(Account)3684_storage":{"encoding":"inplace","label":"struct VaultData.Account","members":[{"astId":3665,"contract":"contracts/L1/data/VaultData.sol:VaultData","label":"user","offset":0,"slot":"0","type":"t_address"},{"astId":3667,"contract":"contracts/L1/data/VaultData.sol:VaultData","label":"capitalMerkleRoot","offset":0,"slot":"1","type":"t_bytes32"},{"astId":3671,"contract":"contracts/L1/data/VaultData.sol:VaultData","label":"capitalBalance","offset":0,"slot":"2","type":"t_mapping(t_address,t_uint256)"},{"astId":3673,"contract":"contracts/L1/data/VaultData.sol:VaultData","label":"capitalNonce","offset":0,"slot":"3","type":"t_uint256"},{"astId":3675,"contract":"contracts/L1/data/VaultData.sol:VaultData","label":"tradingMerkleRoot","offset":0,"slot":"4","type":"t_bytes32"},{"astId":3679,"contract":"contracts/L1/data/VaultData.sol:VaultData","label":"tradingBalance","offset":0,"slot":"5","type":"t_mapping(t_address,t_uint256)"},{"astId":3681,"contract":"contracts/L1/data/VaultData.sol:VaultData","label":"tradingNonce","offset":0,"slot":"6","type":"t_uint256"},{"astId":3683,"contract":"contracts/L1/data/VaultData.sol:VaultData","label":"nativeFee","offset":0,"slot":"7","type":"t_uint256"}],"numberOfBytes":"256"},"t_struct(RoleData)3725_storage":{"encoding":"inplace","label":"struct VaultData.RoleData","members":[{"astId":3722,"contract":"contracts/L1/data/VaultData.sol:VaultData","label":"members","offset":0,"slot":"0","type":"t_mapping(t_address,t_bool)"},{"astId":3724,"contract":"contracts/L1/data/VaultData.sol:VaultData","label":"adminRole","offset":0,"slot":"1","type":"t_bytes32"}],"numberOfBytes":"64"},"t_uint16":{"encoding":"inplace","label":"uint16","numberOfBytes":"2"},"t_uint256":{"encoding":"inplace","label":"uint256","numberOfBytes":"32"}}},"userdoc":{"kind":"user","methods":{},"version":1}}}}