{
  "_format": "hh-sol-artifact-1",
  "contractName": "Interests",
  "sourceName": "contracts/L2/Interests.sol",
  "abi": [
    {
      "inputs": [
        {
          "internalType": "address",
          "name": "smallSettlement_",
          "type": "address"
        },
        {
          "internalType": "address",
          "name": "largeSettlement_",
          "type": "address"
        }
      ],
      "stateMutability": "nonpayable",
      "type": "constructor"
    },
    {
      "anonymous": false,
      "inputs": [
        {
          "indexed": true,
          "internalType": "address",
          "name": "previousOwner",
          "type": "address"
        },
        {
          "indexed": true,
          "internalType": "address",
          "name": "newOwner",
          "type": "address"
        }
      ],
      "name": "OwnershipTransferStarted",
      "type": "event"
    },
    {
      "anonymous": false,
      "inputs": [
        {
          "indexed": true,
          "internalType": "address",
          "name": "previousOwner",
          "type": "address"
        },
        {
          "indexed": true,
          "internalType": "address",
          "name": "newOwner",
          "type": "address"
        }
      ],
      "name": "OwnershipTransferred",
      "type": "event"
    },
    {
      "anonymous": false,
      "inputs": [
        {
          "indexed": false,
          "internalType": "address",
          "name": "user",
          "type": "address"
        },
        {
          "indexed": false,
          "internalType": "uint256",
          "name": "amount",
          "type": "uint256"
        },
        {
          "indexed": false,
          "internalType": "uint256",
          "name": "userShare",
          "type": "uint256"
        },
        {
          "indexed": false,
          "internalType": "uint256",
          "name": "totalShares",
          "type": "uint256"
        },
        {
          "indexed": false,
          "internalType": "uint256",
          "name": "totalValue",
          "type": "uint256"
        },
        {
          "indexed": false,
          "internalType": "bool",
          "name": "isProfit_",
          "type": "bool"
        },
        {
          "indexed": false,
          "internalType": "address",
          "name": "coinType_",
          "type": "address"
        }
      ],
      "name": "ShareTransferAfter",
      "type": "event"
    },
    {
      "anonymous": false,
      "inputs": [
        {
          "indexed": false,
          "internalType": "address",
          "name": "user",
          "type": "address"
        },
        {
          "indexed": false,
          "internalType": "uint256",
          "name": "amount",
          "type": "uint256"
        },
        {
          "indexed": false,
          "internalType": "uint256",
          "name": "userShare",
          "type": "uint256"
        },
        {
          "indexed": false,
          "internalType": "uint256",
          "name": "totalShares",
          "type": "uint256"
        },
        {
          "indexed": false,
          "internalType": "uint256",
          "name": "totalValue",
          "type": "uint256"
        },
        {
          "indexed": false,
          "internalType": "bool",
          "name": "isProfit_",
          "type": "bool"
        },
        {
          "indexed": false,
          "internalType": "address",
          "name": "coinType_",
          "type": "address"
        }
      ],
      "name": "ShareTransferBefore",
      "type": "event"
    },
    {
      "anonymous": false,
      "inputs": [
        {
          "indexed": false,
          "internalType": "address",
          "name": "user",
          "type": "address"
        },
        {
          "indexed": false,
          "internalType": "uint256",
          "name": "amount",
          "type": "uint256"
        },
        {
          "indexed": false,
          "internalType": "uint256",
          "name": "userShare",
          "type": "uint256"
        },
        {
          "indexed": false,
          "internalType": "uint256",
          "name": "totalShares",
          "type": "uint256"
        },
        {
          "indexed": false,
          "internalType": "uint256",
          "name": "totalValue",
          "type": "uint256"
        }
      ],
      "name": "UpdateDepositAfter",
      "type": "event"
    },
    {
      "anonymous": false,
      "inputs": [
        {
          "indexed": false,
          "internalType": "address",
          "name": "user",
          "type": "address"
        },
        {
          "indexed": false,
          "internalType": "uint256",
          "name": "amount",
          "type": "uint256"
        },
        {
          "indexed": false,
          "internalType": "uint256",
          "name": "userShare",
          "type": "uint256"
        },
        {
          "indexed": false,
          "internalType": "uint256",
          "name": "totalShares",
          "type": "uint256"
        },
        {
          "indexed": false,
          "internalType": "uint256",
          "name": "totalValue",
          "type": "uint256"
        }
      ],
      "name": "UpdateDepositBefore",
      "type": "event"
    },
    {
      "anonymous": false,
      "inputs": [
        {
          "indexed": false,
          "internalType": "address",
          "name": "user",
          "type": "address"
        },
        {
          "indexed": false,
          "internalType": "uint256",
          "name": "amount",
          "type": "uint256"
        },
        {
          "indexed": false,
          "internalType": "uint256",
          "name": "userShare",
          "type": "uint256"
        },
        {
          "indexed": false,
          "internalType": "uint256",
          "name": "totalShares",
          "type": "uint256"
        },
        {
          "indexed": false,
          "internalType": "uint256",
          "name": "totalValue",
          "type": "uint256"
        }
      ],
      "name": "UpdateWithdrawAfter",
      "type": "event"
    },
    {
      "anonymous": false,
      "inputs": [
        {
          "indexed": false,
          "internalType": "address",
          "name": "user",
          "type": "address"
        },
        {
          "indexed": false,
          "internalType": "uint256",
          "name": "amount",
          "type": "uint256"
        },
        {
          "indexed": false,
          "internalType": "uint256",
          "name": "userShare",
          "type": "uint256"
        },
        {
          "indexed": false,
          "internalType": "uint256",
          "name": "totalShares",
          "type": "uint256"
        },
        {
          "indexed": false,
          "internalType": "uint256",
          "name": "totalValue",
          "type": "uint256"
        }
      ],
      "name": "UpdateWithdrawBefore",
      "type": "event"
    },
    {
      "anonymous": false,
      "inputs": [
        {
          "indexed": false,
          "internalType": "address",
          "name": "user",
          "type": "address"
        },
        {
          "indexed": false,
          "internalType": "uint256",
          "name": "amount",
          "type": "uint256"
        },
        {
          "indexed": false,
          "internalType": "uint256",
          "name": "userShare",
          "type": "uint256"
        },
        {
          "indexed": false,
          "internalType": "uint256",
          "name": "totalShares",
          "type": "uint256"
        },
        {
          "indexed": false,
          "internalType": "uint256",
          "name": "totalValue",
          "type": "uint256"
        }
      ],
      "name": "WithdrawInterestAfter",
      "type": "event"
    },
    {
      "anonymous": false,
      "inputs": [
        {
          "indexed": false,
          "internalType": "address",
          "name": "user",
          "type": "address"
        },
        {
          "indexed": false,
          "internalType": "uint256",
          "name": "amount",
          "type": "uint256"
        },
        {
          "indexed": false,
          "internalType": "uint256",
          "name": "userShare",
          "type": "uint256"
        },
        {
          "indexed": false,
          "internalType": "uint256",
          "name": "totalShares",
          "type": "uint256"
        },
        {
          "indexed": false,
          "internalType": "uint256",
          "name": "totalValue",
          "type": "uint256"
        }
      ],
      "name": "WithdrawInterestBefore",
      "type": "event"
    },
    {
      "inputs": [],
      "name": "acceptOwnership",
      "outputs": [],
      "stateMutability": "nonpayable",
      "type": "function"
    },
    {
      "inputs": [],
      "name": "currentPrice",
      "outputs": [
        {
          "internalType": "uint256",
          "name": "",
          "type": "uint256"
        }
      ],
      "stateMutability": "view",
      "type": "function"
    },
    {
      "inputs": [
        {
          "internalType": "address",
          "name": "user_",
          "type": "address"
        }
      ],
      "name": "getBalanceWithInterest",
      "outputs": [
        {
          "internalType": "uint256",
          "name": "",
          "type": "uint256"
        }
      ],
      "stateMutability": "view",
      "type": "function"
    },
    {
      "inputs": [
        {
          "internalType": "address",
          "name": "user_",
          "type": "address"
        }
      ],
      "name": "getPoolInfo",
      "outputs": [
        {
          "internalType": "uint256",
          "name": "userShare_",
          "type": "uint256"
        },
        {
          "internalType": "uint256",
          "name": "totalShare_",
          "type": "uint256"
        },
        {
          "internalType": "uint256",
          "name": "totalValue_",
          "type": "uint256"
        }
      ],
      "stateMutability": "view",
      "type": "function"
    },
    {
      "inputs": [],
      "name": "largeSettlement",
      "outputs": [
        {
          "internalType": "address",
          "name": "",
          "type": "address"
        }
      ],
      "stateMutability": "view",
      "type": "function"
    },
    {
      "inputs": [],
      "name": "owner",
      "outputs": [
        {
          "internalType": "address",
          "name": "",
          "type": "address"
        }
      ],
      "stateMutability": "view",
      "type": "function"
    },
    {
      "inputs": [],
      "name": "pendingOwner",
      "outputs": [
        {
          "internalType": "address",
          "name": "",
          "type": "address"
        }
      ],
      "stateMutability": "view",
      "type": "function"
    },
    {
      "inputs": [],
      "name": "renounceOwnership",
      "outputs": [],
      "stateMutability": "nonpayable",
      "type": "function"
    },
    {
      "inputs": [
        {
          "internalType": "address",
          "name": "largeSettlement_",
          "type": "address"
        }
      ],
      "name": "setLargeSettlement",
      "outputs": [],
      "stateMutability": "nonpayable",
      "type": "function"
    },
    {
      "inputs": [
        {
          "internalType": "address",
          "name": "_smallSettlement",
          "type": "address"
        }
      ],
      "name": "setSmallSettlement",
      "outputs": [],
      "stateMutability": "nonpayable",
      "type": "function"
    },
    {
      "inputs": [
        {
          "internalType": "address",
          "name": "user_",
          "type": "address"
        },
        {
          "internalType": "uint256",
          "name": "amount_",
          "type": "uint256"
        },
        {
          "internalType": "bool",
          "name": "isProfit_",
          "type": "bool"
        },
        {
          "internalType": "address",
          "name": "coinType_",
          "type": "address"
        }
      ],
      "name": "shareTransfer",
      "outputs": [],
      "stateMutability": "nonpayable",
      "type": "function"
    },
    {
      "inputs": [
        {
          "internalType": "address",
          "name": "",
          "type": "address"
        }
      ],
      "name": "shares",
      "outputs": [
        {
          "internalType": "uint256",
          "name": "",
          "type": "uint256"
        }
      ],
      "stateMutability": "view",
      "type": "function"
    },
    {
      "inputs": [],
      "name": "smallSettlement",
      "outputs": [
        {
          "internalType": "address",
          "name": "",
          "type": "address"
        }
      ],
      "stateMutability": "view",
      "type": "function"
    },
    {
      "inputs": [],
      "name": "totalShares",
      "outputs": [
        {
          "internalType": "uint256",
          "name": "",
          "type": "uint256"
        }
      ],
      "stateMutability": "view",
      "type": "function"
    },
    {
      "inputs": [
        {
          "internalType": "address",
          "name": "newOwner",
          "type": "address"
        }
      ],
      "name": "transferOwnership",
      "outputs": [],
      "stateMutability": "nonpayable",
      "type": "function"
    },
    {
      "inputs": [
        {
          "internalType": "uint256",
          "name": "amount_",
          "type": "uint256"
        },
        {
          "internalType": "address",
          "name": "user_",
          "type": "address"
        }
      ],
      "name": "update_deposit",
      "outputs": [],
      "stateMutability": "nonpayable",
      "type": "function"
    },
    {
      "inputs": [
        {
          "internalType": "uint256",
          "name": "amount_",
          "type": "uint256"
        },
        {
          "internalType": "address",
          "name": "user_",
          "type": "address"
        }
      ],
      "name": "update_withdraw",
      "outputs": [],
      "stateMutability": "nonpayable",
      "type": "function"
    },
    {
      "inputs": [
        {
          "internalType": "address",
          "name": "user_",
          "type": "address"
        }
      ],
      "name": "withdrawInterest",
      "outputs": [
        {
          "internalType": "uint256",
          "name": "",
          "type": "uint256"
        }
      ],
      "stateMutability": "nonpayable",
      "type": "function"
    }
  ],
  "bytecode": "0x608060405260016003553480156200001657600080fd5b50604051620019ad380380620019ad83398101604081905262000039916200010d565b620000443362000076565b600480546001600160a01b039384166001600160a01b0319918216179091556005805492909316911617905562000145565b600180546001600160a01b03191690556200009d81620000a0602090811b6200150517901c565b50565b600080546001600160a01b038381166001600160a01b0319831681178455604051919092169283917f8be0079c531659141344cd1fd0a4f28419497f9722a3daafe3b4186f6b6457e09190a35050565b80516001600160a01b03811681146200010857600080fd5b919050565b600080604083850312156200012157600080fd5b6200012c83620000f0565b91506200013c60208401620000f0565b90509250929050565b61185880620001556000396000f3fe608060405234801561001057600080fd5b50600436106100e65760003560e01c806305293251146100eb57806306bfa938146101005780630ae35e5c14610133578063231fccdf146101465780633a98ef391461016657806347e8ca4d1461017d578063715018a61461019057806379ba50971461019857806385cbb7cf146101a05780638da5cb5b146101b35780639d1b464a146101bb578063af45f322146101c4578063c13d2b9e146101d7578063c195898a146101ea578063c26a7be1146101fd578063ce7c2ac214610210578063e30c397814610230578063f2fde38b14610238575b600080fd5b6100fe6100f93660046115e2565b61024b565b005b61011361010e366004611612565b6105e2565b604080519384526020840192909252908201526060015b60405180910390f35b6100fe610141366004611612565b61066d565b600454610159906001600160a01b031681565b60405161012a9190611636565b61016f60025481565b60405190815260200161012a565b6100fe61018b36600461164a565b610697565b6100fe610c6c565b6100fe610c80565b61016f6101ae366004611612565b610cfe565b610159610ee2565b61016f60035481565b61016f6101d2366004611612565b610ef1565b600554610159906001600160a01b031681565b6100fe6101f83660046115e2565b61120e565b6100fe61020b366004611612565b611466565b61016f61021e366004611612565b60066020526000908152604090205481565b610159611490565b6100fe610246366004611612565b61149f565b6005546001600160a01b0316331461027e5760405162461bcd60e51b8152600401610275906116a2565b60405180910390fd5b6001600160a01b0381166000908152600660205260409020546002547f18ab87b6c2410b9f1ae543b2e89d1fc27358a160fb6b0ce46554ee27bb7007019183918591906102ca84610cfe565b6040516102db9594939291906116ce565b60405180910390a1600082116103445760405162461bcd60e51b815260206004820152602860248201527f4465706f73697420616d6f756e74206d7573742062652067726561746572207460448201526768616e207a65726f60c01b6064820152608401610275565b6002546000036103a95761035b620186a083611712565b6001600160a01b0382166000908152600660205260408120805490919061038390849061172f565b90915550506001600160a01b038116600090815260066020526040902054600255610579565b600554604080516332a9922d60e21b815290516000926001600160a01b03169163caa648b49160048083019260209291908290030181865afa1580156103f3573d6000803e3d6000fd5b505050506040513d601f19601f820116820180604052508101906104179190611742565b6002546104249085611712565b61042e919061175b565b60025461043b919061172f565b9050600560009054906101000a90046001600160a01b03166001600160a01b031663caa648b46040518163ffffffff1660e01b8152600401602060405180830381865afa158015610490573d6000803e3d6000fd5b505050506040513d601f19601f820116820180604052508101906104b49190611742565b6002546104c19085611712565b6104cb919061175b565b6001600160a01b038316600090815260066020526040812080549091906104f390849061172f565b90915550506002819055600554604080516332a9922d60e21b8152905183926001600160a01b03169163caa648b49160048083019260209291908290030181865afa158015610546573d6000803e3d6000fd5b505050506040513d601f19601f8201168201806040525081019061056a9190611742565b610574919061175b565b600355505b6001600160a01b0381166000908152600660205260409020546002547fd147ab1959b1a9b949ab6f265ce9b15fb8c706bbff324947c95063e4e63a7a159183918591906105c584610cfe565b6040516105d69594939291906116ce565b60405180910390a15050565b6001600160a01b0380821660009081526006602090815260408083205460025460055483516332a9922d60e21b81529351929691959491169263caa648b492600480830193928290030181865afa158015610641573d6000803e3d6000fd5b505050506040513d601f19601f820116820180604052508101906106659190611742565b929491935050565b610675611555565b600580546001600160a01b0319166001600160a01b0392909216919091179055565b6004546001600160a01b031633146106e65760405162461bcd60e51b81526020600482015260126024820152711b9bc81cdb585b1b14d95d1d1b195b595b9d60721b6044820152606401610275565b6001600160a01b038085166000908152600660209081526040918290205460025460055484516332a9922d60e21b815294517f9c56810b00d61dbcc8ac7316fed62293dddb9bfd9646605ec44ee2f6e8874eeb968b968b96939091169263caa648b4926004808401938290030181865afa158015610768573d6000803e3d6000fd5b505050506040513d601f19601f8201168201806040525081019061078c9190611742565b87876040516107a1979695949392919061177d565b60405180910390a1600080600560009054906101000a90046001600160a01b03166001600160a01b031663caa648b46040518163ffffffff1660e01b8152600401602060405180830381865afa1580156107ff573d6000803e3d6000fd5b505050506040513d601f19601f820116820180604052508101906108239190611742565b116108625760405162461bcd60e51b815260206004820152600f60248201526e0546f74616c56616c7565203d3d203608c1b6044820152606401610275565b6004805460405163fd59084760e01b81526001600160a01b038881169382019390935284831660248201526000929091169063fd5908479060440160c060405180830381865afa1580156108ba573d6000803e3d6000fd5b505050506040513d601f19601f820116820180604052508101906108de91906117bc565b955050505050506000600254600560009054906101000a90046001600160a01b03166001600160a01b031663caa648b46040518163ffffffff1660e01b8152600401602060405180830381865afa15801561093d573d6000803e3d6000fd5b505050506040513d601f19601f820116820180604052508101906109619190611742565b6001600160a01b0389166000908152600660205260409020546109849190611712565b61098e919061175b565b90508415610a3557600560009054906101000a90046001600160a01b03166001600160a01b031663caa648b46040518163ffffffff1660e01b8152600401602060405180830381865afa1580156109e9573d6000803e3d6000fd5b505050506040513d601f19601f82011682018060405250810190610a0d9190611742565b600254610a1a888461172f565b610a249190611712565b610a2e919061175b565b9250610b99565b858203610afe5785811015610a4d5760009250610b99565b600560009054906101000a90046001600160a01b03166001600160a01b031663caa648b46040518163ffffffff1660e01b8152600401602060405180830381865afa158015610aa0573d6000803e3d6000fd5b505050506040513d601f19601f82011682018060405250810190610ac49190611742565b600254610ad19088611712565b610adb919061175b565b6001600160a01b038816600090815260066020526040902054610a2e919061180f565b600560009054906101000a90046001600160a01b03166001600160a01b031663caa648b46040518163ffffffff1660e01b8152600401602060405180830381865afa158015610b51573d6000803e3d6000fd5b505050506040513d601f19601f82011682018060405250810190610b759190611742565b600254610b82888461180f565b610b8c9190611712565b610b96919061175b565b92505b6001600160a01b0380881660009081526006602090815260409182902086905560025460055483516332a9922d60e21b815293517f0c7cd19157ec91e8fd53d14428ee913190b739cece6b7707da9d2c64f1ccbca7958d958d958b95949092169263caa648b4926004808401939192918290030181865afa158015610c22573d6000803e3d6000fd5b505050506040513d601f19601f82011682018060405250810190610c469190611742565b8a8a604051610c5b979695949392919061177d565b60405180910390a150505050505050565b610c74611555565b610c7e60006115b4565b565b3380610c8a611490565b6001600160a01b031614610cf25760405162461bcd60e51b815260206004820152602960248201527f4f776e61626c6532537465703a2063616c6c6572206973206e6f7420746865206044820152683732bb9037bbb732b960b91b6064820152608401610275565b610cfb816115b4565b50565b6001600160a01b038116600090815260066020526040812054819081908103610d2b575060009392505050565b600254600560009054906101000a90046001600160a01b03166001600160a01b031663caa648b46040518163ffffffff1660e01b8152600401602060405180830381865afa158015610d81573d6000803e3d6000fd5b505050506040513d601f19601f82011682018060405250810190610da59190611742565b6001600160a01b038616600090815260066020526040902054610dc89190611712565b610dd2919061175b565b9150811580610e50575060055460405163d607a13960e01b81526001600160a01b039091169063d607a13990610e0c908790600401611636565b602060405180830381865afa158015610e29573d6000803e3d6000fd5b505050506040513d601f19601f82011682018060405250810190610e4d9190611742565b82105b15610e5f575060009392505050565b60055460405163d607a13960e01b81526001600160a01b039091169063d607a13990610e8f908790600401611636565b602060405180830381865afa158015610eac573d6000803e3d6000fd5b505050506040513d601f19601f82011682018060405250810190610ed09190611742565b610eda908361180f565b949350505050565b6000546001600160a01b031690565b6005546000906001600160a01b03163314610f1e5760405162461bcd60e51b8152600401610275906116a2565b6001600160a01b0380831660009081526006602090815260408083205460025460055483516332a9922d60e21b815293517f1ba26581b2b60b035eaa1dad62b3847f2082fdbfcf19ffcf60498d874550656e978a97969495939492169263caa648b49260048083019391928290030181865afa158015610fa2573d6000803e3d6000fd5b505050506040513d601f19601f82011682018060405250810190610fc69190611742565b604051610fd79594939291906116ce565b60405180910390a16000610fea83610cfe565b9050801561114957600560009054906101000a90046001600160a01b03166001600160a01b031663caa648b46040518163ffffffff1660e01b8152600401602060405180830381865afa158015611045573d6000803e3d6000fd5b505050506040513d601f19601f820116820180604052508101906110699190611742565b6002546110769083611712565b611080919061175b565b6001600160a01b038416600090815260066020526040812080549091906110a890849061180f565b9091555050600554604080516332a9922d60e21b815290516001600160a01b039092169163caa648b4916004808201926020929091908290030181865afa1580156110f7573d6000803e3d6000fd5b505050506040513d601f19601f8201168201806040525081019061111b9190611742565b6002546111289083611712565b611132919061175b565b60026000828254611143919061180f565b90915550505b6001600160a01b038084166000908152600660209081526040918290205460025460055484516332a9922d60e21b815294517f9ee69a8978e7a98c6d432059b0540493a9158eefe753ed4f4f4e36882b22c3e9968a968996939091169263caa648b4926004808401938290030181865afa1580156111cb573d6000803e3d6000fd5b505050506040513d601f19601f820116820180604052508101906111ef9190611742565b6040516112009594939291906116ce565b60405180910390a192915050565b6005546001600160a01b031633146112385760405162461bcd60e51b8152600401610275906116a2565b6001600160a01b0381166000908152600660205260409020546002547ff9eb0984b0fee98bfe423bb6b729187cd0691de335a20e72ca54736a91e8ca8291839185919061128484610cfe565b6040516112959594939291906116ce565b60405180910390a1811561141a576002546001600160a01b0380831660009081526006602090815260408083205460055482516332a9922d60e21b815292519195169263caa648b492600480820193918290030181865afa1580156112fe573d6000803e3d6000fd5b505050506040513d601f19601f820116820180604052508101906113229190611742565b60025461132f9087611712565b611339919061175b565b821015611348575060006113e3565b600560009054906101000a90046001600160a01b03166001600160a01b031663caa648b46040518163ffffffff1660e01b8152600401602060405180830381865afa15801561139b573d6000803e3d6000fd5b505050506040513d601f19601f820116820180604052508101906113bf9190611742565b6002546113cc9087611712565b6113d6919061175b565b6113e0908361180f565b90505b6000816113f0848661180f565b6113fa919061172f565b600255506001600160a01b03841660009081526006602052604090205550505b6001600160a01b0381166000908152600660205260409020546002547f235865585acd6b7eee12e17802cfcb7142bd7cbc5c14effbfdadcbacdf4353839183918591906105c584610cfe565b61146e611555565b600480546001600160a01b0319166001600160a01b0392909216919091179055565b6001546001600160a01b031690565b6114a7611555565b600180546001600160a01b0319166001600160a01b0383169081179091556114cd610ee2565b6001600160a01b03167f38d16b8cac22d99fc7c124b9cd0de2d3fa1faef420bfe791d8c362d765e2270060405160405180910390a350565b600080546001600160a01b038381166001600160a01b0319831681178455604051919092169283917f8be0079c531659141344cd1fd0a4f28419497f9722a3daafe3b4186f6b6457e09190a35050565b3361155e610ee2565b6001600160a01b031614610c7e5760405162461bcd60e51b815260206004820181905260248201527f4f776e61626c653a2063616c6c6572206973206e6f7420746865206f776e65726044820152606401610275565b600180546001600160a01b0319169055610cfb81611505565b6001600160a01b0381168114610cfb57600080fd5b600080604083850312156115f557600080fd5b823591506020830135611607816115cd565b809150509250929050565b60006020828403121561162457600080fd5b813561162f816115cd565b9392505050565b6001600160a01b0391909116815260200190565b6000806000806080858703121561166057600080fd5b843561166b816115cd565b9350602085013592506040850135801515811461168757600080fd5b91506060850135611697816115cd565b939692955090935050565b6020808252601290820152711b9bc81b185c99d954d95d1d1b195b595b9d60721b604082015260600190565b6001600160a01b03959095168552602085019390935260408401919091526060830152608082015260a00190565b634e487b7160e01b600052601160045260246000fd5b8082028115828204841417611729576117296116fc565b92915050565b80820180821115611729576117296116fc565b60006020828403121561175457600080fd5b5051919050565b60008261177857634e487b7160e01b600052601260045260246000fd5b500490565b6001600160a01b0397881681526020810196909652604086019490945260608501929092526080840152151560a083015290911660c082015260e00190565b60008060008060008060c087890312156117d557600080fd5b86516117e0816115cd565b6020880151604089015160608a015160808b015160a0909b0151939c929b509099909850965090945092505050565b81810381811115611729576117296116fc56fea26469706673582212203ebc685ea103fa82097a90fe981cbec2584942da9b3f070d5cd6f8b3377887e964736f6c63430008110033",
  "linkReferences": {},
  "deployedLinkReferences": {}
}