{
  "_format": "hh-sol-artifact-1",
  "contractName": "SmallSettlement",
  "sourceName": "contracts/L2/SmallSettlement.sol",
  "abi": [
    {
      "inputs": [],
      "stateMutability": "nonpayable",
      "type": "constructor"
    },
    {
      "anonymous": false,
      "inputs": [
        {
          "indexed": true,
          "internalType": "address",
          "name": "previousOwner",
          "type": "address"
        },
        {
          "indexed": true,
          "internalType": "address",
          "name": "newOwner",
          "type": "address"
        }
      ],
      "name": "OwnershipTransferStarted",
      "type": "event"
    },
    {
      "anonymous": false,
      "inputs": [
        {
          "indexed": true,
          "internalType": "address",
          "name": "previousOwner",
          "type": "address"
        },
        {
          "indexed": true,
          "internalType": "address",
          "name": "newOwner",
          "type": "address"
        }
      ],
      "name": "OwnershipTransferred",
      "type": "event"
    },
    {
      "anonymous": false,
      "inputs": [
        {
          "indexed": false,
          "internalType": "address",
          "name": "user_",
          "type": "address"
        },
        {
          "indexed": false,
          "internalType": "address[]",
          "name": "coinType_",
          "type": "address[]"
        },
        {
          "indexed": false,
          "internalType": "uint256[]",
          "name": "balance",
          "type": "uint256[]"
        }
      ],
      "name": "evenTransferOfFunds",
      "type": "event"
    },
    {
      "anonymous": false,
      "inputs": [
        {
          "indexed": false,
          "internalType": "address",
          "name": "whiteAddress_",
          "type": "address"
        }
      ],
      "name": "eventSetwhiteLlist",
      "type": "event"
    },
    {
      "anonymous": false,
      "inputs": [],
      "name": "eventVerificationBook",
      "type": "event"
    },
    {
      "anonymous": false,
      "inputs": [],
      "name": "eventVerificationBookFoTrade",
      "type": "event"
    },
    {
      "anonymous": false,
      "inputs": [
        {
          "indexed": false,
          "internalType": "address[]",
          "name": "addList",
          "type": "address[]"
        },
        {
          "indexed": false,
          "internalType": "uint256[]",
          "name": "amount",
          "type": "uint256[]"
        },
        {
          "indexed": false,
          "internalType": "bool",
          "name": "coinType",
          "type": "bool"
        },
        {
          "indexed": false,
          "internalType": "address",
          "name": "user",
          "type": "address"
        }
      ],
      "name": "eventWithholding",
      "type": "event"
    },
    {
      "inputs": [],
      "name": "NODE_ROLE",
      "outputs": [
        {
          "internalType": "bytes32",
          "name": "",
          "type": "bytes32"
        }
      ],
      "stateMutability": "view",
      "type": "function"
    },
    {
      "inputs": [],
      "name": "OWENER_ROLE",
      "outputs": [
        {
          "internalType": "bytes32",
          "name": "",
          "type": "bytes32"
        }
      ],
      "stateMutability": "view",
      "type": "function"
    },
    {
      "inputs": [
        {
          "internalType": "bytes32",
          "name": "left",
          "type": "bytes32"
        },
        {
          "internalType": "bytes32",
          "name": "right",
          "type": "bytes32"
        }
      ],
      "name": "_buildMerkleTree",
      "outputs": [
        {
          "internalType": "bytes32",
          "name": "",
          "type": "bytes32"
        }
      ],
      "stateMutability": "pure",
      "type": "function"
    },
    {
      "inputs": [
        {
          "internalType": "uint256",
          "name": "",
          "type": "uint256"
        }
      ],
      "name": "_coinList",
      "outputs": [
        {
          "internalType": "address",
          "name": "",
          "type": "address"
        }
      ],
      "stateMutability": "view",
      "type": "function"
    },
    {
      "inputs": [
        {
          "internalType": "bytes32",
          "name": "",
          "type": "bytes32"
        }
      ],
      "name": "_roles",
      "outputs": [
        {
          "internalType": "bytes32",
          "name": "adminRole",
          "type": "bytes32"
        }
      ],
      "stateMutability": "view",
      "type": "function"
    },
    {
      "inputs": [],
      "name": "acceptOwnership",
      "outputs": [],
      "stateMutability": "nonpayable",
      "type": "function"
    },
    {
      "inputs": [
        {
          "internalType": "address",
          "name": "",
          "type": "address"
        }
      ],
      "name": "accounts",
      "outputs": [
        {
          "internalType": "address",
          "name": "user",
          "type": "address"
        },
        {
          "internalType": "bytes32",
          "name": "capitalMerkleRoot",
          "type": "bytes32"
        },
        {
          "internalType": "uint256",
          "name": "capitalNonce",
          "type": "uint256"
        },
        {
          "internalType": "bytes32",
          "name": "tradingMerkleRoot",
          "type": "bytes32"
        },
        {
          "internalType": "uint256",
          "name": "tradingNonce",
          "type": "uint256"
        }
      ],
      "stateMutability": "view",
      "type": "function"
    },
    {
      "inputs": [
        {
          "internalType": "address",
          "name": "",
          "type": "address"
        },
        {
          "internalType": "address",
          "name": "",
          "type": "address"
        }
      ],
      "name": "auobject",
      "outputs": [
        {
          "internalType": "bool",
          "name": "",
          "type": "bool"
        }
      ],
      "stateMutability": "view",
      "type": "function"
    },
    {
      "inputs": [
        {
          "internalType": "address",
          "name": "",
          "type": "address"
        },
        {
          "internalType": "address",
          "name": "",
          "type": "address"
        }
      ],
      "name": "budgeCa",
      "outputs": [
        {
          "internalType": "uint256",
          "name": "",
          "type": "uint256"
        }
      ],
      "stateMutability": "view",
      "type": "function"
    },
    {
      "inputs": [
        {
          "internalType": "address",
          "name": "",
          "type": "address"
        },
        {
          "internalType": "address",
          "name": "",
          "type": "address"
        }
      ],
      "name": "budgetrd",
      "outputs": [
        {
          "internalType": "uint256",
          "name": "",
          "type": "uint256"
        }
      ],
      "stateMutability": "view",
      "type": "function"
    },
    {
      "inputs": [
        {
          "internalType": "address",
          "name": "",
          "type": "address"
        },
        {
          "internalType": "uint256",
          "name": "",
          "type": "uint256"
        }
      ],
      "name": "capitaMRoot",
      "outputs": [
        {
          "internalType": "bytes32",
          "name": "",
          "type": "bytes32"
        }
      ],
      "stateMutability": "view",
      "type": "function"
    },
    {
      "inputs": [
        {
          "internalType": "uint256",
          "name": "",
          "type": "uint256"
        }
      ],
      "name": "coinFeeAdd",
      "outputs": [
        {
          "internalType": "address",
          "name": "",
          "type": "address"
        }
      ],
      "stateMutability": "view",
      "type": "function"
    },
    {
      "inputs": [
        {
          "internalType": "address",
          "name": "",
          "type": "address"
        }
      ],
      "name": "coinFeeMa",
      "outputs": [
        {
          "internalType": "bool",
          "name": "",
          "type": "bool"
        }
      ],
      "stateMutability": "view",
      "type": "function"
    },
    {
      "inputs": [
        {
          "internalType": "uint256",
          "name": "index",
          "type": "uint256"
        }
      ],
      "name": "coinList",
      "outputs": [
        {
          "internalType": "address",
          "name": "",
          "type": "address"
        }
      ],
      "stateMutability": "view",
      "type": "function"
    },
    {
      "inputs": [],
      "name": "coinListLength",
      "outputs": [
        {
          "internalType": "uint256",
          "name": "",
          "type": "uint256"
        }
      ],
      "stateMutability": "view",
      "type": "function"
    },
    {
      "inputs": [
        {
          "internalType": "address",
          "name": "",
          "type": "address"
        },
        {
          "internalType": "address",
          "name": "",
          "type": "address"
        }
      ],
      "name": "deAmountL2",
      "outputs": [
        {
          "internalType": "uint256",
          "name": "",
          "type": "uint256"
        }
      ],
      "stateMutability": "view",
      "type": "function"
    },
    {
      "inputs": [
        {
          "internalType": "address",
          "name": "address_",
          "type": "address"
        },
        {
          "internalType": "address",
          "name": "type_",
          "type": "address"
        }
      ],
      "name": "getAccount",
      "outputs": [
        {
          "internalType": "address",
          "name": "",
          "type": "address"
        },
        {
          "internalType": "bytes32",
          "name": "",
          "type": "bytes32"
        },
        {
          "internalType": "bytes32",
          "name": "",
          "type": "bytes32"
        },
        {
          "internalType": "uint256",
          "name": "",
          "type": "uint256"
        },
        {
          "internalType": "uint256",
          "name": "",
          "type": "uint256"
        },
        {
          "internalType": "uint256",
          "name": "",
          "type": "uint256"
        }
      ],
      "stateMutability": "view",
      "type": "function"
    },
    {
      "inputs": [],
      "name": "getCoinFeeAdd",
      "outputs": [
        {
          "internalType": "address[]",
          "name": "",
          "type": "address[]"
        }
      ],
      "stateMutability": "view",
      "type": "function"
    },
    {
      "inputs": [],
      "name": "getCoinList",
      "outputs": [
        {
          "internalType": "address[]",
          "name": "",
          "type": "address[]"
        }
      ],
      "stateMutability": "view",
      "type": "function"
    },
    {
      "inputs": [
        {
          "internalType": "address",
          "name": "user_",
          "type": "address"
        }
      ],
      "name": "getData",
      "outputs": [
        {
          "components": [
            {
              "internalType": "address",
              "name": "user",
              "type": "address"
            },
            {
              "internalType": "bytes32",
              "name": "capitaMerkleRoot",
              "type": "bytes32"
            },
            {
              "internalType": "uint256",
              "name": "totalShares",
              "type": "uint256"
            },
            {
              "internalType": "uint256",
              "name": "shares",
              "type": "uint256"
            },
            {
              "internalType": "uint256",
              "name": "nativeFee",
              "type": "uint256"
            }
          ],
          "internalType": "struct SmallSettlementData.OutData",
          "name": "",
          "type": "tuple"
        }
      ],
      "stateMutability": "view",
      "type": "function"
    },
    {
      "inputs": [
        {
          "internalType": "address",
          "name": "address_",
          "type": "address"
        }
      ],
      "name": "getNonce",
      "outputs": [
        {
          "internalType": "uint256",
          "name": "",
          "type": "uint256"
        },
        {
          "internalType": "uint256",
          "name": "",
          "type": "uint256"
        }
      ],
      "stateMutability": "view",
      "type": "function"
    },
    {
      "inputs": [
        {
          "internalType": "address",
          "name": "add_",
          "type": "address"
        }
      ],
      "name": "getTotalFee",
      "outputs": [
        {
          "internalType": "uint256",
          "name": "",
          "type": "uint256"
        }
      ],
      "stateMutability": "view",
      "type": "function"
    },
    {
      "inputs": [
        {
          "internalType": "bytes32",
          "name": "role",
          "type": "bytes32"
        },
        {
          "internalType": "address",
          "name": "account",
          "type": "address"
        }
      ],
      "name": "hasRole",
      "outputs": [
        {
          "internalType": "bool",
          "name": "",
          "type": "bool"
        }
      ],
      "stateMutability": "view",
      "type": "function"
    },
    {
      "inputs": [
        {
          "internalType": "bytes32",
          "name": "message",
          "type": "bytes32"
        }
      ],
      "name": "hashMessage",
      "outputs": [
        {
          "internalType": "bytes32",
          "name": "messageHash",
          "type": "bytes32"
        }
      ],
      "stateMutability": "pure",
      "type": "function"
    },
    {
      "inputs": [
        {
          "internalType": "string",
          "name": "",
          "type": "string"
        }
      ],
      "name": "ids",
      "outputs": [
        {
          "internalType": "bool",
          "name": "",
          "type": "bool"
        }
      ],
      "stateMutability": "view",
      "type": "function"
    },
    {
      "inputs": [],
      "name": "interests",
      "outputs": [
        {
          "internalType": "address",
          "name": "",
          "type": "address"
        }
      ],
      "stateMutability": "view",
      "type": "function"
    },
    {
      "inputs": [],
      "name": "isOpen",
      "outputs": [
        {
          "internalType": "bool",
          "name": "",
          "type": "bool"
        }
      ],
      "stateMutability": "view",
      "type": "function"
    },
    {
      "inputs": [
        {
          "internalType": "address",
          "name": "",
          "type": "address"
        }
      ],
      "name": "isSupDe",
      "outputs": [
        {
          "internalType": "bool",
          "name": "",
          "type": "bool"
        }
      ],
      "stateMutability": "view",
      "type": "function"
    },
    {
      "inputs": [
        {
          "internalType": "address",
          "name": "",
          "type": "address"
        }
      ],
      "name": "isTrueForCoin",
      "outputs": [
        {
          "internalType": "bool",
          "name": "",
          "type": "bool"
        }
      ],
      "stateMutability": "view",
      "type": "function"
    },
    {
      "inputs": [],
      "name": "largeSettlement",
      "outputs": [
        {
          "internalType": "address",
          "name": "",
          "type": "address"
        }
      ],
      "stateMutability": "view",
      "type": "function"
    },
    {
      "inputs": [],
      "name": "owner",
      "outputs": [
        {
          "internalType": "address",
          "name": "",
          "type": "address"
        }
      ],
      "stateMutability": "view",
      "type": "function"
    },
    {
      "inputs": [],
      "name": "pendingOwner",
      "outputs": [
        {
          "internalType": "address",
          "name": "",
          "type": "address"
        }
      ],
      "stateMutability": "view",
      "type": "function"
    },
    {
      "inputs": [],
      "name": "renounceOwnership",
      "outputs": [],
      "stateMutability": "nonpayable",
      "type": "function"
    },
    {
      "inputs": [
        {
          "internalType": "address",
          "name": "user_",
          "type": "address"
        },
        {
          "internalType": "address",
          "name": "coinAdd_",
          "type": "address"
        },
        {
          "internalType": "uint256",
          "name": "amount_",
          "type": "uint256"
        },
        {
          "internalType": "uint256",
          "name": "amount2_",
          "type": "uint256"
        },
        {
          "internalType": "bool",
          "name": "re_",
          "type": "bool"
        }
      ],
      "name": "setAccount",
      "outputs": [],
      "stateMutability": "nonpayable",
      "type": "function"
    },
    {
      "inputs": [
        {
          "internalType": "address",
          "name": "user_",
          "type": "address"
        },
        {
          "internalType": "bool",
          "name": "re_",
          "type": "bool"
        },
        {
          "internalType": "address",
          "name": "auObject_",
          "type": "address"
        },
        {
          "internalType": "bytes32",
          "name": "messageHas_",
          "type": "bytes32"
        },
        {
          "internalType": "bytes",
          "name": "signature_",
          "type": "bytes"
        }
      ],
      "name": "setAuobject",
      "outputs": [],
      "stateMutability": "nonpayable",
      "type": "function"
    },
    {
      "inputs": [
        {
          "internalType": "address",
          "name": "re_",
          "type": "address"
        }
      ],
      "name": "setInterests",
      "outputs": [],
      "stateMutability": "nonpayable",
      "type": "function"
    },
    {
      "inputs": [
        {
          "internalType": "bool",
          "name": "re_",
          "type": "bool"
        }
      ],
      "name": "setIsOpen",
      "outputs": [],
      "stateMutability": "nonpayable",
      "type": "function"
    },
    {
      "inputs": [
        {
          "internalType": "address",
          "name": "largeSettlement_",
          "type": "address"
        }
      ],
      "name": "setLargeSettlement",
      "outputs": [],
      "stateMutability": "nonpayable",
      "type": "function"
    },
    {
      "inputs": [
        {
          "internalType": "address",
          "name": "add_",
          "type": "address"
        },
        {
          "internalType": "bool",
          "name": "re_",
          "type": "bool"
        }
      ],
      "name": "setSupDe",
      "outputs": [],
      "stateMutability": "nonpayable",
      "type": "function"
    },
    {
      "inputs": [
        {
          "internalType": "address",
          "name": "add_",
          "type": "address"
        }
      ],
      "name": "setTotalFee",
      "outputs": [],
      "stateMutability": "nonpayable",
      "type": "function"
    },
    {
      "inputs": [
        {
          "internalType": "address",
          "name": "add",
          "type": "address"
        }
      ],
      "name": "setWhilLlist",
      "outputs": [],
      "stateMutability": "nonpayable",
      "type": "function"
    },
    {
      "inputs": [
        {
          "internalType": "address",
          "name": "",
          "type": "address"
        }
      ],
      "name": "totalFee",
      "outputs": [
        {
          "internalType": "uint256",
          "name": "",
          "type": "uint256"
        }
      ],
      "stateMutability": "view",
      "type": "function"
    },
    {
      "inputs": [
        {
          "internalType": "address",
          "name": "",
          "type": "address"
        },
        {
          "internalType": "uint256",
          "name": "",
          "type": "uint256"
        }
      ],
      "name": "tradingMRoot",
      "outputs": [
        {
          "internalType": "bytes32",
          "name": "",
          "type": "bytes32"
        }
      ],
      "stateMutability": "view",
      "type": "function"
    },
    {
      "inputs": [
        {
          "internalType": "address",
          "name": "newOwner",
          "type": "address"
        }
      ],
      "name": "transferOwnership",
      "outputs": [],
      "stateMutability": "nonpayable",
      "type": "function"
    },
    {
      "inputs": [
        {
          "components": [
            {
              "internalType": "string",
              "name": "id",
              "type": "string"
            },
            {
              "internalType": "address",
              "name": "user",
              "type": "address"
            },
            {
              "internalType": "uint256[]",
              "name": "balance",
              "type": "uint256[]"
            },
            {
              "internalType": "address[]",
              "name": "coinType",
              "type": "address[]"
            },
            {
              "internalType": "bool",
              "name": "actionType",
              "type": "bool"
            },
            {
              "internalType": "uint256",
              "name": "coinAmount",
              "type": "uint256"
            },
            {
              "internalType": "address",
              "name": "coinAddress",
              "type": "address"
            },
            {
              "internalType": "bool",
              "name": "isNegative",
              "type": "bool"
            },
            {
              "internalType": "bool",
              "name": "isNegativeforTransfer",
              "type": "bool"
            },
            {
              "internalType": "uint256",
              "name": "nonce",
              "type": "uint256"
            },
            {
              "internalType": "uint16",
              "name": "orderType",
              "type": "uint16"
            },
            {
              "internalType": "bytes32",
              "name": "messageHash",
              "type": "bytes32"
            },
            {
              "internalType": "bytes",
              "name": "signature",
              "type": "bytes"
            }
          ],
          "internalType": "struct SmallSettlementData.Bill[]",
          "name": "bill_",
          "type": "tuple[]"
        },
        {
          "internalType": "address",
          "name": "user_",
          "type": "address"
        }
      ],
      "name": "verificationBook",
      "outputs": [],
      "stateMutability": "nonpayable",
      "type": "function"
    },
    {
      "inputs": [
        {
          "components": [
            {
              "components": [
                {
                  "internalType": "string",
                  "name": "id",
                  "type": "string"
                },
                {
                  "internalType": "address",
                  "name": "user",
                  "type": "address"
                },
                {
                  "internalType": "uint256",
                  "name": "goodsAmount",
                  "type": "uint256"
                },
                {
                  "internalType": "address",
                  "name": "goodsAddress",
                  "type": "address"
                },
                {
                  "internalType": "bool",
                  "name": "isNegativeforGoods",
                  "type": "bool"
                },
                {
                  "internalType": "uint256",
                  "name": "coinAmount",
                  "type": "uint256"
                },
                {
                  "internalType": "address",
                  "name": "coinAddress",
                  "type": "address"
                },
                {
                  "internalType": "bool",
                  "name": "isNegativeforCoin",
                  "type": "bool"
                },
                {
                  "internalType": "uint256",
                  "name": "fee",
                  "type": "uint256"
                },
                {
                  "internalType": "address",
                  "name": "feeCoin",
                  "type": "address"
                },
                {
                  "internalType": "uint256",
                  "name": "nonce",
                  "type": "uint256"
                },
                {
                  "internalType": "bytes32",
                  "name": "messageHash",
                  "type": "bytes32"
                },
                {
                  "internalType": "bytes",
                  "name": "signature",
                  "type": "bytes"
                }
              ],
              "internalType": "struct SmallSettlementData.TradeBill[]",
              "name": "bill",
              "type": "tuple[]"
            }
          ],
          "internalType": "struct SmallSettlementData.TradeBills[]",
          "name": "tradeBills",
          "type": "tuple[]"
        }
      ],
      "name": "verificationBookFoTrade",
      "outputs": [],
      "stateMutability": "nonpayable",
      "type": "function"
    },
    {
      "inputs": [
        {
          "internalType": "bytes32",
          "name": "messageHash",
          "type": "bytes32"
        },
        {
          "internalType": "bytes",
          "name": "signature",
          "type": "bytes"
        }
      ],
      "name": "verifyEcrecover",
      "outputs": [
        {
          "internalType": "address",
          "name": "",
          "type": "address"
        }
      ],
      "stateMutability": "pure",
      "type": "function"
    },
    {
      "inputs": [
        {
          "components": [
            {
              "internalType": "address[]",
              "name": "addList",
              "type": "address[]"
            },
            {
              "internalType": "uint256[]",
              "name": "amount",
              "type": "uint256[]"
            },
            {
              "internalType": "bool",
              "name": "coinType",
              "type": "bool"
            },
            {
              "internalType": "address",
              "name": "user",
              "type": "address"
            },
            {
              "internalType": "bytes32",
              "name": "messageHashUser",
              "type": "bytes32"
            },
            {
              "internalType": "bytes",
              "name": "signatureUser",
              "type": "bytes"
            },
            {
              "internalType": "bytes32",
              "name": "messageHashNode",
              "type": "bytes32"
            },
            {
              "internalType": "bytes",
              "name": "signatureNode",
              "type": "bytes"
            }
          ],
          "internalType": "struct SmallSettlementData.WithholdingData",
          "name": "data_",
          "type": "tuple"
        }
      ],
      "name": "withholding",
      "outputs": [],
      "stateMutability": "nonpayable",
      "type": "function"
    }
  ],
  "bytecode": "0x60806040523480156200001157600080fd5b506200001d3362000062565b620000497f52941335797217779ab62cf10a3ae2b6d453b5f3a1285e7a816eb9f63a58d669336200008c565b6001805460ff60a01b1916600160a01b17905562000148565b600180546001600160a01b031916905562000089816200009c602090811b62001ce117901c565b50565b620000988282620000ec565b5050565b600080546001600160a01b038381166001600160a01b0319831681178455604051919092169283917f8be0079c531659141344cd1fd0a4f28419497f9722a3daafe3b4186f6b6457e09190a35050565b60008281526005602090815260408083206001600160a01b038516845290915290205460ff16620000985760008281526005602090815260408083206001600160a01b03851684529091529020805460ff191660011790555050565b6155cb80620001586000396000f3fe608060405234801561001057600080fd5b50600436106102305760003560e01c8063085a10cf146102355780630ae35e5c1461024a5780630b857a471461025d57806314a3db2d146102705780631715fab014610299578063176060de146102ab57806319fc2e61146102be5780632428d38f146102e55780632d0335ab1461031857806331c329e6146103615780633657c2931461037657806338266b221461038957806339a6f16f146103e257806347535d7b146103f55780634893c26a146104075780634ab81ce91461042a5780634efa685a1461043d57806350414c35146104685780635e5c06e21461047b5780636cadcbd9146104f4578063715018a61461050757806379ba50971461050f5780637a4fda3d146105175780638a08677d146105375780638c232838146105655780638da5cb5b1461058e5780638dfad5971461059657806391d148541461059e57806398ea1f1f146105b15780639d3089f5146105c4578063a304dcf4146105ef578063a69e586214610602578063b273f20714610615578063b3cb890f14610628578063b886dbcd1461063b578063bbb9233714610666578063bd99d7e114610679578063bfef22ac1461069c578063c13d2b9e146106af578063ce5c8e14146106c2578063e251e96d146106d5578063e30c3978146106e8578063e3c808bc146106f0578063f2fde38b14610703578063f9cad2ac14610716578063fb89573314610744578063fd59084714610759578063ff464d3f146107ec575b600080fd5b6102486102433660046145bc565b61080f565b005b6102486102583660046145f7565b610835565b61024861026b366004614758565b61085f565b600454610283906001600160a01b031681565b60405161029091906149ee565b60405180910390f35b6002545b604051908152602001610290565b6102486102b9366004614a02565b610a7b565b61029d7f52941335797217779ab62cf10a3ae2b6d453b5f3a1285e7a816eb9f63a58d66981565b6103086102f33660046145f7565b60126020526000908152604090205460ff1681565b6040519015158152602001610290565b61034c6103263660046145f7565b6001600160a01b0316600090815260076020526040902060038101546006909101549091565b60408051928352602083019190915201610290565b610369610bb6565b6040516102909190614ac0565b610283610384366004614ad3565b610c18565b61039c6103973660046145f7565b610c42565b604051610290919081516001600160a01b031681526020808301519082015260408083015190820152606080830151908201526080918201519181019190915260a00190565b6102836103f0366004614ad3565b610dfe565b600154600160a01b900460ff16610308565b6103086104153660046145f7565b600e6020526000908152604090205460ff1681565b610248610438366004614bc6565b610e0e565b61029d61044b366004614dbf565b600960209081526000928352604080842090915290825290205481565b610283610476366004614ad3565b61117e565b6104c26104893660046145f7565b600760205260009081526040902080546001820154600383015460048401546006909401546001600160a01b0390931693919290919085565b604080516001600160a01b0390961686526020860194909452928401919091526060830152608082015260a001610290565b61029d610502366004614df2565b6111ae565b6102486111df565b6102486111f3565b61029d6105253660046145f7565b60116020526000908152604090205481565b610308610545366004614e1c565b8051602081830181018051600f8252928201919093012091525460ff1681565b61029d6105733660046145f7565b6001600160a01b031660009081526011602052604090205490565b610283611271565b610369611280565b6103086105ac366004614e58565b6112e0565b6102486105bf366004614e7b565b61130d565b61029d6105d2366004614dbf565b600c60209081526000928352604080842090915290825290205481565b6102486105fd366004614ed6565b6113f1565b6102486106103660046145f7565b611424565b610283610623366004614f0d565b61144e565b61029d610636366004614ad3565b6114db565b61029d610649366004614dbf565b600860209081526000928352604080842090915290825290205481565b6102486106743660046145f7565b61152d565b61029d610687366004614ad3565b60056020526000908152604090206001015481565b6102486106aa366004614f53565b611571565b600354610283906001600160a01b031681565b61029d6106d0366004614df2565b611b9d565b6102486106e33660046145f7565b611bb9565b610283611bd9565b61029d6106fe366004615062565b611be8565b6102486107113660046145f7565b611c7b565b610308610724366004614dbf565b600660209081526000928352604080842090915290825290205460ff1681565b61029d60008051602061557683398151915281565b6107b5610767366004614dbf565b6001600160a01b038281166000908152600760209081526040808320600181015460048201549690951684526002810183528184205460038201546005909201909352922054949592949092565b604080516001600160a01b0390971687526020870195909552938501929092526060840152608083015260a082015260c001610290565b6103086107fa3660046145f7565b600d6020526000908152604090205460ff1681565b610817611d31565b60018054911515600160a01b0260ff60a01b19909216919091179055565b61083d611d31565b600380546001600160a01b0319166001600160a01b0392909216919091179055565b610877600080516020615576833981519152336112e0565b61089c5760405162461bcd60e51b815260040161089390615084565b60405180910390fd5b60008151116108ea5760405162461bcd60e51b815260206004820152601a6024820152793a3930b232a134b63639903632b733ba341034b99032b93937b960311b6044820152606401610893565b600360009054906101000a90046001600160a01b03166001600160a01b031663d085835a6040518163ffffffff1660e01b8152600401602060405180830381865afa15801561093d573d6000803e3d6000fd5b505050506040513d601f19601f8201168201806040525081019061096191906150b6565b1561097e5760405162461bcd60e51b8152600401610893906150d3565b600360009054906101000a90046001600160a01b03166001600160a01b031663fe4388a86040518163ffffffff1660e01b8152600401600060405180830381600087803b1580156109ce57600080fd5b505af11580156109e2573d6000803e3d6000fd5b5050505060005b8151811015610a4e57610a14828281518110610a0757610a07615101565b6020026020010151611d90565b610a36828281518110610a2957610a29615101565b6020026020010151612331565b50505050508080610a469061512d565b9150506109e9565b506040517f87472b23cf6b5ba1dbc3e61886938b11a7b01f41b3810b40252f882a2a3d016990600090a150565b6040516001600160601b0319606087811b8216602084015286151560f81b603484015285901b16603582015282906049016040516020818303038152906040528051906020012014610b0f5760405162461bcd60e51b815260206004820152601f60248201527f73657441756f626a6563743a20757365722068617368206973206572726f72006044820152606401610893565b846001600160a01b0316610b23838361144e565b6001600160a01b031614610b795760405162461bcd60e51b815260206004820152601e60248201527f73657441756f626a6563743a206e6f2075736572207369676e617475726500006044820152606401610893565b50506001600160a01b0392831660009081526006602090815260408083209390951682529190915291909120805460ff1916911515919091179055565b60606010805480602002602001604051908101604052809291908181526020018280548015610c0e57602002820191906000526020600020905b81546001600160a01b03168152600190910190602001808311610bf0575b5050505050905090565b60108181548110610c2857600080fd5b6000918252602090912001546001600160a01b0316905081565b6040805160a0810182526000808252602082018190529181018290526060810182905260808101919091526003546040516357463d3560e01b81526000916001600160a01b0316906357463d3590610c9e9086906004016149ee565b6040805180830381865afa158015610cba573d6000803e3d6000fd5b505050506040513d601f19601f82011682018060405250810190610cde9190615146565b506040805160a0810182526001600160a01b03808716808352600090815260076020908152908490206001015481840152600480548551633a98ef3960e01b81528651979850949695870195931693633a98ef3993818301939290918290030181865afa158015610d53573d6000803e3d6000fd5b505050506040513d601f19601f82011682018060405250810190610d77919061516a565b81526004805460405163673e156160e11b81526020909301926001600160a01b039091169163ce7c2ac291610dae918991016149ee565b602060405180830381865afa158015610dcb573d6000803e3d6000fd5b505050506040513d601f19601f82011682018060405250810190610def919061516a565b81526020019190915292915050565b60028181548110610c2857600080fd5b610e26600080516020615576833981519152336112e0565b610e425760405162461bcd60e51b815260040161089390615084565b600360009054906101000a90046001600160a01b03166001600160a01b031663d085835a6040518163ffffffff1660e01b8152600401602060405180830381865afa158015610e95573d6000803e3d6000fd5b505050506040513d601f19601f82011682018060405250810190610eb991906150b6565b15610ed65760405162461bcd60e51b8152600401610893906150d3565b600360009054906101000a90046001600160a01b03166001600160a01b031663fe4388a86040518163ffffffff1660e01b8152600401600060405180830381600087803b158015610f2657600080fd5b505af1158015610f3a573d6000803e3d6000fd5b5050505060005b825181101561115057600f838281518110610f5e57610f5e615101565b602002602001015160000151604051610f7791906151b3565b9081526040519081900360200190205460ff1615610fe35760405162461bcd60e51b815260206004820152602360248201527f766572696669636174696f6e426f6f6b3a20696420616c72656164792065786960448201526273747360e81b6064820152608401610893565b6001600f848381518110610ff957610ff9615101565b60200260200101516000015160405161101291906151b3565b908152604051908190036020019020805491151560ff19909216919091179055825183908290811061104657611046615101565b6020026020010151610140015161ffff1660011480611087575082818151811061107257611072615101565b6020026020010151610140015161ffff166002145b156110dc576110af8382815181106110a1576110a1615101565b6020026020010151836134e6565b6110d28382815181106110c4576110c4615101565b6020026020010151836135de565b505050505061113e565b8281815181106110ee576110ee615101565b6020026020010151610140015161ffff1660030361113e5761111b8382815181106110a1576110a1615101565b61113e83828151811061113057611130615101565b6020026020010151836139bf565b806111488161512d565b915050610f41565b506040517f7220c34c380a75cb6f46e8c61894c0377724f395efb506f00f1f6dfcac516f9290600090a15050565b60006002828154811061119357611193615101565b6000918252602090912001546001600160a01b031692915050565b600a60205281600052604060002081815481106111ca57600080fd5b90600052602060002001600091509150505481565b6111e7611d31565b6111f16000614339565b565b33806111fd611bd9565b6001600160a01b0316146112655760405162461bcd60e51b815260206004820152602960248201527f4f776e61626c6532537465703a2063616c6c6572206973206e6f7420746865206044820152683732bb9037bbb732b960b91b6064820152608401610893565b61126e81614339565b50565b6000546001600160a01b031690565b60606002805480602002602001604051908101604052809291908181526020018280548015610c0e576020028201919060005260206000209081546001600160a01b03168152600190910190602001808311610bf0575050505050905090565b60008281526005602090815260408083206001600160a01b038516845290915290205460ff165b92915050565b6003546001600160a01b031633146113375760405162461bcd60e51b8152600401610893906151bf565b6001600160a01b038516600090815260076020526040902081156113b9576001600160a01b03851660009081526002820160205260408120805486929061137f9084906151eb565b90915550506001600160a01b0385166000908152600582016020526040812080548592906113ae9084906151eb565b909155506113e99050565b6001600160a01b0385166000908152600282016020526040812080548692906113e39084906151eb565b90915550505b505050505050565b6113f9611d31565b6001600160a01b03919091166000908152600d60205260409020805460ff1916911515919091179055565b61142c611d31565b600480546001600160a01b0319166001600160a01b0392909216919091179055565b60008061145a846114db565b9050600080600061146a86614352565b60408051600081526020810180835289905260ff8516918101919091526060810183905260808101829052929550909350915060019060a0016020604051602081039080840390855afa1580156114c5573d6000803e3d6000fd5b5050604051601f19015198975050505050505050565b6040517b0ca2ba3432b932bab69029b4b3b732b21026b2b9b9b0b3b29d05199960211b6020820152603c8101829052600090605c01604051602081830303815290604052805190602001209050919050565b6003546001600160a01b031633146115575760405162461bcd60e51b8152600401610893906151bf565b6001600160a01b0316600090815260116020526040812055565b6080810151815160208084015160408086015160608701519151611599959491929101615254565b60405160208183030381529060405280519060200120146115fc5760405162461bcd60e51b815260206004820152601f60248201527f77697468686f6c64696e673a20757365722068617368206973206572726f72006044820152606401610893565b60c0810151815160208084015160408086015160608701519151611624959491929101615254565b60405160208183030381529060405280519060200120146116875760405162461bcd60e51b815260206004820152601f60248201527f77697468686f6c64696e673a206e6f64652068617368206973206572726f72006044820152606401610893565b60608101516001600160a01b03166000908152600660205260408120608083015160a08401519192916116ba919061144e565b6001600160a01b0316815260208101919091526040016000205460ff1680611708575080606001516001600160a01b03166116fd82608001518360a0015161144e565b6001600160a01b0316145b6117245760405162461bcd60e51b81526004016108939061528e565b6117486000805160206155768339815191526105ac8360c001518460e0015161144e565b6117645760405162461bcd60e51b8152600401610893906152be565b60608101516001600160a01b03166000908152600760205260408120905b825151811015611b4b5782604001511561196b57816002016000846000015183815181106117b2576117b2615101565b60200260200101516001600160a01b03166001600160a01b0316815260200190815260200160002054836020015182815181106117f1576117f1615101565b60200260200101516009600086606001516001600160a01b03166001600160a01b0316815260200190815260200160002060008660000151858151811061183a5761183a615101565b60200260200101516001600160a01b03166001600160a01b031681526020019081526020016000205461186d91906152f0565b11156118ca5760405162461bcd60e51b815260206004820152603860248201526000805160206155168339815191526044820152771b191a5b99c81bd98818d85c1a5d185b081858d8dbdd5b9d60421b6064820152608401610893565b826020015181815181106118e0576118e0615101565b60200260200101516009600085606001516001600160a01b03166001600160a01b0316815260200190815260200160002060008560000151848151811061192957611929615101565b60200260200101516001600160a01b03166001600160a01b03168152602001908152602001600020600082825461196091906152f0565b90915550611b399050565b8160050160008460000151838151811061198757611987615101565b60200260200101516001600160a01b03166001600160a01b0316815260200190815260200160002054836020015182815181106119c6576119c6615101565b60200260200101516008600086606001516001600160a01b03166001600160a01b03168152602001908152602001600020600086600001518581518110611a0f57611a0f615101565b60200260200101516001600160a01b03166001600160a01b0316815260200190815260200160002054611a4291906152f0565b1115611a9d5760405162461bcd60e51b815260206004820152603660248201526000805160206155168339815191526044820152751b191a5b99c81bd9881d1c985919481858d8dbdd5b9d60521b6064820152608401610893565b82602001518181518110611ab357611ab3615101565b60200260200101516008600085606001516001600160a01b03166001600160a01b03168152602001908152602001600020600085600001518481518110611afc57611afc615101565b60200260200101516001600160a01b03166001600160a01b031681526020019081526020016000206000828254611b3391906152f0565b90915550505b80611b438161512d565b915050611782565b507f5d7461671a77efeecfbfc989455d1457392c775e662834b07d5d77adc7402f458260000151836020015184604001518560600151604051611b919493929190615303565b60405180910390a15050565b600b60205281600052604060002081815481106111ca57600080fd5b611bc1611d31565b61126e600080516020615576833981519152826143c4565b6001546001600160a01b031690565b600081604051602001611bfd91815260200190565b60408051601f19818403018152828252805160209182012090830186905291016040516020818303038152906040528051906020012003611c62576040805160208101859052015b604051602081830303815290604052805190602001209050611307565b6040805160208101859052908101839052606001611c45565b611c83611d31565b600180546001600160a01b0319166001600160a01b038316908117909155611ca9611271565b6001600160a01b03167f38d16b8cac22d99fc7c124b9cd0de2d3fa1faef420bfe791d8c362d765e2270060405160405180910390a350565b600080546001600160a01b038381166001600160a01b0319831681178455604051919092169283917f8be0079c531659141344cd1fd0a4f28419497f9722a3daafe3b4186f6b6457e09190a35050565b33611d3a611271565b6001600160a01b0316146111f15760405162461bcd60e51b815260206004820181905260248201527f4f776e61626c653a2063616c6c6572206973206e6f7420746865206f776e65726044820152606401610893565b805180516001908110611da557611da5615101565b602002602001015160c001516001600160a01b03168160000151600081518110611dd157611dd1615101565b602002602001015160c001516001600160a01b0316148015611e345750805180516001908110611e0357611e03615101565b602002602001015160a001518160000151600081518110611e2657611e26615101565b602002602001015160a00151145b8015611e5f575080518051600090611e4e57611e4e615101565b602090810291909101015160e00151155b8015611e8f5750805180516001908110611e7b57611e7b615101565b602002602001015160e00151151560011515145b611efc5760405162461bcd60e51b815260206004820152603860248201527f7665726966795369676e6174757265423a20636f696e206d69736d61746368206044820152773132ba3bb2b2b710313abcb2b91030b7321039b2b63632b960411b6064820152608401610893565b805180516001908110611f1157611f11615101565b6020026020010151606001516001600160a01b03168160000151600081518110611f3d57611f3d615101565b6020026020010151606001516001600160a01b0316148015611fa05750805180516001908110611f6f57611f6f615101565b6020026020010151604001518160000151600081518110611f9257611f92615101565b602002602001015160400151145b8015611fce575080518051600090611fba57611fba615101565b602002602001015160800151151560011515145b8015611ffb5750805180516001908110611fea57611fea615101565b602090810291909101015160800151155b6120695760405162461bcd60e51b815260206004820152603960248201527f7665726966795369676e6174757265423a20676f6f6473206d69736d61746368604482015278103132ba3bb2b2b710313abcb2b91030b7321039b2b63632b960391b6064820152608401610893565b8051805160009061207c5761207c615101565b6020026020010151606001516001600160a01b031681600001516000815181106120a8576120a8615101565b602002602001015161012001516001600160a01b031614801561211f57508051805160019081106120db576120db615101565b602002602001015160c001516001600160a01b0316816000015160018151811061210757612107615101565b602002602001015161012001516001600160a01b0316145b61218b5760405162461bcd60e51b815260206004820152603760248201527f7665726966795369676e6174757265423a20666565206d69736d61746368206260448201527632ba3bb2b2b710313abcb2b91030b7321039b2b63632b960491b6064820152608401610893565b60005b600281101561232d576000826000015182815181106121af576121af615101565b60200260200101519050806101600151816000015182602001518360400151846060015185608001518660a001518760c001518860e001518961010001518a610120015160405160200161220c9a99989796959493929190615372565b604051602081830303815290604052805190602001201461226f5760405162461bcd60e51b815260206004820152601f60248201527f7665726966795369676e6174757265423a2068617368206973206572726f72006044820152606401610893565b6006600082602001516001600160a01b03166001600160a01b0316815260200190815260200160002060006122ae83610160015184610180015161144e565b6001600160a01b0316815260208101919091526040016000205460ff16806122fe575080602001516001600160a01b03166122f382610160015183610180015161144e565b6001600160a01b0316145b61231a5760405162461bcd60e51b81526004016108939061528e565b50806123258161512d565b91505061218e565b5050565b600080808080805b60028110156134dc57600f8760000151828151811061235a5761235a615101565b60200260200101516000015160405161237391906151b3565b9081526040519081900360200190205460ff16156123d35760405162461bcd60e51b815260206004820152601e60248201527f5f74726164654275696c643a20696420616c72656164792065786973747300006044820152606401610893565b6001600f886000015183815181106123ed576123ed615101565b60200260200101516000015160405161240691906151b3565b908152602001604051809103902060006101000a81548160ff0219169083151502179055506000600760008960000151848151811061244757612447615101565b6020026020010151602001516001600160a01b03166001600160a01b0316815260200190815260200160002060060154600161248391906152f0565b885180518490811061249757612497615101565b60200260200101516101400151146124c15760405162461bcd60e51b8152600401610893906153e3565b600b6000896000015184815181106124db576124db615101565b6020026020010151602001516001600160a01b03166001600160a01b0316815260200190815260200160002080549050600014612605576000600b60008a60000151858151811061252e5761252e615101565b6020026020010151602001516001600160a01b03166001600160a01b031681526020019081526020016000208054806020026020016040519081016040528092919081815260200182805480156125a457602002820191906000526020600020905b815481526020019060010190808311612590575b505050505090506125fd81600183516125bd91906151eb565b815181106125cd576125cd615101565b60200260200101518a6000015185815181106125eb576125eb615101565b60200260200101516101600151611be8565b915050612644565b6126418860000151838151811061261e5761261e615101565b60200260200101516101600151896000015184815181106125eb576125eb615101565b90505b875180518390811061265857612658615101565b602002602001015160800151156128f157875180518390811061267d5761267d615101565b602002602001015160400151600760008a6000015185815181106126a3576126a3615101565b6020026020010151602001516001600160a01b03166001600160a01b0316815260200190815260200160002060050160008a6000015185815181106126ea576126ea615101565b6020026020010151606001516001600160a01b03166001600160a01b03168152602001908152602001600020600082825461272591906152f0565b909155505087518051600d916000918590811061274457612744615101565b602090810291909101810151606001516001600160a01b031682528101919091526040016000205460ff16156128ec57600454885180516001600160a01b03909216916347e8ca4d91908590811061279e5761279e615101565b6020026020010151602001518a6000015185815181106127c0576127c0615101565b60200260200101516040015160018c6000015187815181106127e4576127e4615101565b6020026020010151606001516040518563ffffffff1660e01b815260040161280f9493929190615411565b600060405180830381600087803b15801561282957600080fd5b505af115801561283d573d6000803e3d6000fd5b50506003548a5180516001600160a01b039092169350634d025bd59250908590811061286b5761286b615101565b6020026020010151602001518a60000151858151811061288d5761288d615101565b60200260200101516040015160016040518463ffffffff1660e01b81526004016128b99392919061543c565b600060405180830381600087803b1580156128d357600080fd5b505af11580156128e7573d6000803e3d6000fd5b505050505b612c7a565b875180518390811061290557612905615101565b602002602001015160400151600760008a60000151858151811061292b5761292b615101565b6020026020010151602001516001600160a01b03166001600160a01b0316815260200190815260200160002060050160008a60000151858151811061297257612972615101565b6020026020010151606001516001600160a01b03166001600160a01b031681526020019081526020016000205410156129f75760405162461bcd60e51b815260206004820152602160248201527f74726164696e6720676f6f64732062616c616e6365206973206e6567617469766044820152606560f81b6064820152608401610893565b8751805183908110612a0b57612a0b615101565b602002602001015160400151600760008a600001518581518110612a3157612a31615101565b6020026020010151602001516001600160a01b03166001600160a01b0316815260200190815260200160002060050160008a600001518581518110612a7857612a78615101565b6020026020010151606001516001600160a01b03166001600160a01b031681526020019081526020016000206000828254612ab391906151eb565b909155505087518051600d9160009185908110612ad257612ad2615101565b602090810291909101810151606001516001600160a01b031682528101919091526040016000205460ff1615612c7a57600454885180516001600160a01b03909216916347e8ca4d919085908110612b2c57612b2c615101565b6020026020010151602001518a600001518581518110612b4e57612b4e615101565b60200260200101516040015160008c600001518781518110612b7257612b72615101565b6020026020010151606001516040518563ffffffff1660e01b8152600401612b9d9493929190615411565b600060405180830381600087803b158015612bb757600080fd5b505af1158015612bcb573d6000803e3d6000fd5b50506003548a5180516001600160a01b039092169350634d025bd592509085908110612bf957612bf9615101565b6020026020010151602001518a600001518581518110612c1b57612c1b615101565b60200260200101516040015160006040518463ffffffff1660e01b8152600401612c479392919061543c565b600060405180830381600087803b158015612c6157600080fd5b505af1158015612c75573d6000803e3d6000fd5b505050505b8751805183908110612c8e57612c8e615101565b602002602001015160e0015115612f27578751805183908110612cb357612cb3615101565b602002602001015160a00151600760008a600001518581518110612cd957612cd9615101565b6020026020010151602001516001600160a01b03166001600160a01b0316815260200190815260200160002060050160008a600001518581518110612d2057612d20615101565b602002602001015160c001516001600160a01b03166001600160a01b031681526020019081526020016000206000828254612d5b91906152f0565b909155505087518051600d9160009185908110612d7a57612d7a615101565b60209081029190910181015160c001516001600160a01b031682528101919091526040016000205460ff1615612f2257600454885180516001600160a01b03909216916347e8ca4d919085908110612dd457612dd4615101565b6020026020010151602001518a600001518581518110612df657612df6615101565b602002602001015160a0015160018c600001518781518110612e1a57612e1a615101565b602002602001015160c001516040518563ffffffff1660e01b8152600401612e459493929190615411565b600060405180830381600087803b158015612e5f57600080fd5b505af1158015612e73573d6000803e3d6000fd5b50506003548a5180516001600160a01b039092169350634d025bd592509085908110612ea157612ea1615101565b6020026020010151602001518a600001518581518110612ec357612ec3615101565b602002602001015160a0015160016040518463ffffffff1660e01b8152600401612eef9392919061543c565b600060405180830381600087803b158015612f0957600080fd5b505af1158015612f1d573d6000803e3d6000fd5b505050505b6132a6565b8751805183908110612f3b57612f3b615101565b602002602001015160a00151600760008a600001518581518110612f6157612f61615101565b6020026020010151602001516001600160a01b03166001600160a01b0316815260200190815260200160002060050160008a600001518581518110612fa857612fa8615101565b602002602001015160c001516001600160a01b03166001600160a01b031681526020019081526020016000205410156130235760405162461bcd60e51b815260206004820181905260248201527f74726164696e6720636f696e2062616c616e6365206973206e656761746976656044820152606401610893565b875180518390811061303757613037615101565b602002602001015160a00151600760008a60000151858151811061305d5761305d615101565b6020026020010151602001516001600160a01b03166001600160a01b0316815260200190815260200160002060050160008a6000015185815181106130a4576130a4615101565b602002602001015160c001516001600160a01b03166001600160a01b0316815260200190815260200160002060008282546130df91906151eb565b909155505087518051600d91600091859081106130fe576130fe615101565b60209081029190910181015160c001516001600160a01b031682528101919091526040016000205460ff16156132a657600454885180516001600160a01b03909216916347e8ca4d91908590811061315857613158615101565b6020026020010151602001518a60000151858151811061317a5761317a615101565b602002602001015160a0015160008c60000151878151811061319e5761319e615101565b602002602001015160c001516040518563ffffffff1660e01b81526004016131c99493929190615411565b600060405180830381600087803b1580156131e357600080fd5b505af11580156131f7573d6000803e3d6000fd5b50506003548a5180516001600160a01b039092169350634d025bd59250908590811061322557613225615101565b6020026020010151602001518a60000151858151811061324757613247615101565b602002602001015160a0015160006040518463ffffffff1660e01b81526004016132739392919061543c565b600060405180830381600087803b15801561328d57600080fd5b505af11580156132a1573d6000803e3d6000fd5b505050505b87518051839081106132ba576132ba615101565b60200260200101516101000151600760008a6000015185815181106132e1576132e1615101565b6020026020010151602001516001600160a01b03166001600160a01b0316815260200190815260200160002060050160008a60000151858151811061332857613328615101565b602002602001015161012001516001600160a01b03166001600160a01b03168152602001908152602001600020600082825461336491906151eb565b9091555050875180516133b791908490811061338257613382615101565b60200260200101516101200151896000015184815181106133a5576133a5615101565b602002602001015161010001516143ce565b600b6000896000015184815181106133d1576133d1615101565b6020908102919091018101518101516001600160a01b03168252818101929092526040016000908120805460018101825590825291902001819055875180518390811061342057613420615101565b60200260200101516101400151600760008a60000151858151811061344757613447615101565b6020026020010151602001516001600160a01b03166001600160a01b031681526020019081526020016000206006018190555080600760008a60000151858151811061349557613495615101565b6020026020010151602001516001600160a01b03166001600160a01b03168152602001908152602001600020600401819055505080806134d49061512d565b915050612339565b5091939590929450565b816101600151826000015183602001518460400151856060015186608001518760a001518860c001518960e001518a61010001518b61014001516040516020016135399a9998979695949392919061545f565b604051602081830303815290604052805190602001201461359c5760405162461bcd60e51b815260206004820152601f60248201527f7665726966795369676e6174757265413a2068617368206973206572726f72006044820152606401610893565b6135c26000805160206155768339815191526105ac84610160015185610180015161144e565b61232d5760405162461bcd60e51b8152600401610893906152be565b6001600160a01b038116600090815260076020526040812060c08401518291829182918291829190613610908061446e565b60038101546136209060016152f0565b896101200151146136435760405162461bcd60e51b8152600401610893906154e7565b88610140015161ffff1660010361378f5760a08901516001600160a01b03808a166000908152600c6020908152604080832060c08f01519094168352929052205461368e91906152f0565b60035460c08b015160405163de45e98d60e01b81526001600160a01b038c81166004830152918216602482015291169063de45e98d90604401602060405180830381865afa1580156136e4573d6000803e3d6000fd5b505050506040513d601f19601f82011682018060405250810190613708919061516a565b10156137485760405162461bcd60e51b815260206004820152600f60248201526e4465706f736974206661696c75726560881b6044820152606401610893565b60a08901516001600160a01b03808a166000908152600c6020908152604080832060c08f0151909416835292905290812080549091906137899084906152f0565b90915550505b6020808a01516001600160a01b03166000908152600a909152604090205415613859576020808a01516001600160a01b03166000908152600a82526040808220805482518186028101860190935280835292939192909183018282801561381557602002820191906000526020600020905b815481526020019060010190808311613801575b50505050509050613851816001835161382e91906151eb565b8151811061383e5761383e615101565b60200260200101518b6101600151611be8565b92505061386c565b6101608901516138699080611be8565b91505b88610140015161ffff16600214613970578860e00151156138c55760a089015160c08a01516001600160a01b03166000908152600283016020526040812080549091906138ba9084906152f0565b909155506139709050565b60a089015160c08a01516001600160a01b0316600090815260028301602052604090205410156139375760405162461bcd60e51b815260206004820181905260248201527f6361706974616c20636f696e2062616c616e6365206973206e656761746976656044820152606401610893565b60a089015160c08a01516001600160a01b031660009081526002830160205260408120805490919061396a9084906151eb565b90915550505b6020808a01516001600160a01b03166000908152600a82526040812080546001818101835591835292909120909101839055610120909901516003820155909701969096559295919490935090565b60018054600091600160a01b90910460ff16151514613a0a5760405162461bcd60e51b8152602060048201526007602482015266636c6f73696e6760c81b6044820152606401610893565b6001600160a01b038216600090815260076020526040908190206060850151519185015151909114613a6d5760405162461bcd60e51b815260206004820152600c60248201526b13195b99dd1a0819985a5b1960a21b6044820152606401610893565b6001600160a01b0383166000908152600a6020908152604080832080548251818502810185019093528083529192909190830182828015613acd57602002820191906000526020600020905b815481526020019060010190808311613ab9575b505050506001600160a01b0386166000908152600b602090815260408083208054825181850281018501909352808352959650929490935090830182828015613b3557602002820191906000526020600020905b815481526020019060010190808311613b21575b5050505050905060005b8660400151518110156141b057866080015115613e985786610100015115613e275786604001518181518110613b7757613b77615101565b60200260200101516009600089602001516001600160a01b03166001600160a01b03168152602001908152602001600020600089606001518481518110613bc057613bc0615101565b60200260200101516001600160a01b03166001600160a01b03168152602001908152602001600020541015613c485760405162461bcd60e51b815260206004820152603a60248201526000805160206155568339815191526044820152791d1a1a1bdb191a5b99c81bd9881d1c985919481858d8dbdd5b9d60321b6064820152608401610893565b86604001518181518110613c5e57613c5e615101565b602002602001015184600201600089606001518481518110613c8257613c82615101565b60200260200101516001600160a01b03166001600160a01b03168152602001908152602001600020541015613d0f5760405162461bcd60e51b815260206004820152602d60248201527f7472616e736665724f6646756e64733a20496e73756666696369656e7420636160448201526c1c1a5d185b081858d8dbdd5b9d609a1b6064820152608401610893565b86604001518181518110613d2557613d25615101565b60200260200101516009600089602001516001600160a01b03166001600160a01b03168152602001908152602001600020600089606001518481518110613d6e57613d6e615101565b60200260200101516001600160a01b03166001600160a01b031681526020019081526020016000206000828254613da591906151eb565b90915550506040870151805182908110613dc157613dc1615101565b602002602001015184600201600089606001518481518110613de557613de5615101565b60200260200101516001600160a01b03166001600160a01b031681526020019081526020016000206000828254613e1c91906151eb565b9091555061419e9050565b86604001518181518110613e3d57613e3d615101565b602002602001015184600201600089606001518481518110613e6157613e61615101565b60200260200101516001600160a01b03166001600160a01b031681526020019081526020016000206000828254613e1c91906152f0565b866101000151156141275786604001518181518110613eb957613eb9615101565b60200260200101516008600089602001516001600160a01b03166001600160a01b03168152602001908152602001600020600089606001518481518110613f0257613f02615101565b60200260200101516001600160a01b03166001600160a01b03168152602001908152602001600020541015613f8c5760405162461bcd60e51b815260206004820152603c602482015260008051602061555683398151915260448201527b1d1a1a1bdb191a5b99c81bd98818d85c1a5d185b081858d8dbdd5b9d60221b6064820152608401610893565b86604001518181518110613fa257613fa2615101565b602002602001015184600501600089606001518481518110613fc657613fc6615101565b60200260200101516001600160a01b03166001600160a01b031681526020019081526020016000205410156140515760405162461bcd60e51b815260206004820152602b60248201527f7472616e736665724f6646756e64733a20496e73756666696369656e7420747260448201526a185919481858d8dbdd5b9d60aa1b6064820152608401610893565b8660400151818151811061406757614067615101565b60200260200101516008600089602001516001600160a01b03166001600160a01b031681526020019081526020016000206000896060015184815181106140b0576140b0615101565b60200260200101516001600160a01b03166001600160a01b0316815260200190815260200160002060008282546140e791906151eb565b9091555050604087015180518290811061410357614103615101565b602002602001015184600501600089606001518481518110613de557613de5615101565b8660400151818151811061413d5761413d615101565b60200260200101518460050160008960600151848151811061416157614161615101565b60200260200101516001600160a01b03166001600160a01b03168152602001908152602001600020600082825461419891906152f0565b90915550505b806141a88161512d565b915050613b3f565b5085608001511561428b5760038301546141cb9060016152f0565b866101200151146141ee5760405162461bcd60e51b8152600401610893906154e7565b8151156142315761422a826001845161420791906151eb565b8151811061421757614217615101565b6020026020010151876101600151611be8565b9350614244565b6101608601516142419080611be8565b93505b6020808701516001600160a01b03166000908152600a82526040812080546001818101835591835292909120909101859055610120870151600385015583018490556113e9565b600683015461429b9060016152f0565b866101200151146142be5760405162461bcd60e51b8152600401610893906153e3565b8051156142de576142d7816001835161420791906151eb565b93506142f1565b6101608601516142ee9080611be8565b93505b6020808701516001600160a01b03166000908152600b825260408120805460018101825590825291902001849055610120860151600684015560048301849055505050505050565b600180546001600160a01b031916905561126e81611ce1565b600080600083516041146143a85760405162461bcd60e51b815260206004820152601f60248201527f45434453413a20696e76616c6964207369676e6174757265206c656e677468006044820152606401610893565b5050506020810151604082015160609092015160001a92909190565b61232d828261455f565b6001600160a01b03821660009081526012602052604090205460ff16614452576010805460018082019092557f1b6847dc741a1b0cd08d278845f9d819d87b734759afb55fe2de5cb82a9ae6720180546001600160a01b0319166001600160a01b0385169081179091556000908152601260205260409020805460ff191690911790555b6001600160a01b03909116600090815260116020526040902055565b6001600160a01b0382166000908152600e602052604081205460ff16151590036144e6576001600160a01b0382166000818152600e60205260408120805460ff191660019081179091556002805491820181559091526000805160206155368339815191520180546001600160a01b03191690911790555b6001600160a01b0381166000908152600e602052604081205460ff161515900361232d576001600160a01b03166000818152600e60205260408120805460ff191660019081179091556002805491820181559091526000805160206155368339815191520180546001600160a01b031916909117905550565b61456982826112e0565b61232d5760008281526005602090815260408083206001600160a01b03851684529091529020805460ff191660011790555050565b801515811461126e57600080fd5b80356145b78161459e565b919050565b6000602082840312156145ce57600080fd5b81356145d98161459e565b9392505050565b80356001600160a01b03811681146145b757600080fd5b60006020828403121561460957600080fd5b6145d9826145e0565b634e487b7160e01b600052604160045260246000fd5b604051602081016001600160401b038111828210171561464a5761464a614612565b60405290565b6040516101a081016001600160401b038111828210171561464a5761464a614612565b60405161010081016001600160401b038111828210171561464a5761464a614612565b604051601f8201601f191681016001600160401b03811182821017156146be576146be614612565b604052919050565b60006001600160401b038211156146df576146df614612565b5060051b60200190565b600082601f8301126146fa57600080fd5b81356001600160401b0381111561471357614713614612565b614726601f8201601f1916602001614696565b81815284602083860101111561473b57600080fd5b816020850160208301376000918101602001919091529392505050565b60006020828403121561476a57600080fd5b6001600160401b038235111561477f57600080fd5b8135820183601f82011261479257600080fd5b6147a461479f82356146c6565b614696565b81358082526020808301929160051b8401018610156147c257600080fd5b602083015b6020843560051b8501018110156149e4576001600160401b03813511156147ed57600080fd5b6020813585018803601f1901121561480457600080fd5b61480c614628565b6001600160401b038235860160200135111561482757600080fd5b81358501602081013501603f8101891361484057600080fd5b61485061479f60208301356146c6565b602082810135808352908201919060051b83016040018b101561487257600080fd5b604083015b6040602085013560051b8501018110156149d1576001600160401b03813511156148a057600080fd5b803584016101a0818e03603f190112156148b957600080fd5b6148c1614650565b6001600160401b03604083013511156148d957600080fd5b6148eb8e6040808501358501016146e9565b81526148f9606083016145e0565b60208201526080820135604082015261491460a083016145e0565b606082015261492560c083016145ac565b608082015260e082013560a082015261494161010083016145e0565b60c082015261495361012083016145ac565b60e082015261014082013561010082015261497161016083016145e0565b6101208201526101808201356101408201526101a08201356101608201526001600160401b036101c083013511156149a857600080fd5b6149bc8e60406101c08501358501016146e9565b61018082015284525060209283019201614877565b50835250508352602092830192016147c7565b5095945050505050565b6001600160a01b0391909116815260200190565b600080600080600060a08688031215614a1a57600080fd5b614a23866145e0565b94506020860135614a338161459e565b9350614a41604087016145e0565b92506060860135915060808601356001600160401b03811115614a6357600080fd5b614a6f888289016146e9565b9150509295509295909350565b600081518084526020808501945080840160005b83811015614ab55781516001600160a01b031687529582019590820190600101614a90565b509495945050505050565b6020815260006145d96020830184614a7c565b600060208284031215614ae557600080fd5b5035919050565b600082601f830112614afd57600080fd5b81356020614b0d61479f836146c6565b82815260059290921b84018101918181019086841115614b2c57600080fd5b8286015b84811015614b475780358352918301918301614b30565b509695505050505050565b600082601f830112614b6357600080fd5b81356020614b7361479f836146c6565b82815260059290921b84018101918181019086841115614b9257600080fd5b8286015b84811015614b4757614ba7816145e0565b8352918301918301614b96565b803561ffff811681146145b757600080fd5b60008060408385031215614bd957600080fd5b82356001600160401b0380821115614bf057600080fd5b818501915085601f830112614c0457600080fd5b81356020614c1461479f836146c6565b82815260059290921b84018101918181019089841115614c3357600080fd5b8286015b84811015614da257803586811115614c4e57600080fd5b87016101a0818d03601f1901811315614c6657600080fd5b614c6e614650565b8683013589811115614c7f57600080fd5b614c8d8f89838701016146e9565b825250614c9c604084016145e0565b87820152606083013589811115614cb257600080fd5b614cc08f8983870101614aec565b604083015250608083013589811115614cd857600080fd5b614ce68f8983870101614b52565b606083015250614cf860a084016145ac565b608082015260c08084013560a083015260e0614d158186016145e0565b828401526101009150614d298286016145ac565b90830152610120614d3b8582016145ac565b828401526101409150818501358184015250610160614d5b818601614bb4565b82840152610180915081850135818401525082840135925089831115614d815760008081fd5b614d8f8f89858701016146e9565b9082015285525050918301918301614c37565b509650614db290508782016145e0565b9450505050509250929050565b60008060408385031215614dd257600080fd5b614ddb836145e0565b9150614de9602084016145e0565b90509250929050565b60008060408385031215614e0557600080fd5b614e0e836145e0565b946020939093013593505050565b600060208284031215614e2e57600080fd5b81356001600160401b03811115614e4457600080fd5b614e50848285016146e9565b949350505050565b60008060408385031215614e6b57600080fd5b82359150614de9602084016145e0565b600080600080600060a08688031215614e9357600080fd5b614e9c866145e0565b9450614eaa602087016145e0565b935060408601359250606086013591506080860135614ec88161459e565b809150509295509295909350565b60008060408385031215614ee957600080fd5b614ef2836145e0565b91506020830135614f028161459e565b809150509250929050565b60008060408385031215614f2057600080fd5b8235915060208301356001600160401b03811115614f3d57600080fd5b614f49858286016146e9565b9150509250929050565b600060208284031215614f6557600080fd5b81356001600160401b0380821115614f7c57600080fd5b908301906101008286031215614f9157600080fd5b614f99614673565b823582811115614fa857600080fd5b614fb487828601614b52565b825250602083013582811115614fc957600080fd5b614fd587828601614aec565b602083015250614fe7604084016145ac565b6040820152614ff8606084016145e0565b60608201526080830135608082015260a08301358281111561501957600080fd5b615025878286016146e9565b60a08301525060c083013560c082015260e08301358281111561504757600080fd5b615053878286016146e9565b60e08301525095945050505050565b6000806040838503121561507557600080fd5b50508035926020909101359150565b60208082526018908201527727b7363c903737b2329031b0b71031b0b636103a3434b99760411b604082015260600190565b6000602082840312156150c857600080fd5b81516145d98161459e565b602080825260149082015273131bd8dac81a185cc81899595b8818db1bdcd95960621b604082015260600190565b634e487b7160e01b600052603260045260246000fd5b634e487b7160e01b600052601160045260246000fd5b60006001820161513f5761513f615117565b5060010190565b6000806040838503121561515957600080fd5b505080516020909101519092909150565b60006020828403121561517c57600080fd5b5051919050565b6000815160005b818110156151a4576020818501810151868301520161518a565b50600093019283525090919050565b60006145d98284615183565b6020808252601290820152711b9bc81b185c99d954d95d1d1b195b595b9d60721b604082015260600190565b8181038181111561130757611307615117565b80516000906020808401838315614ab55781516001600160a01b031687529582019590820190600101614a90565b60008151602080840160005b83811015614ab557815187529582019590820190600101615238565b600061526961526383886151fe565b8661522c565b93151560f81b8452505060601b6001600160601b031916600182015260150192915050565b6020808252601690820152752a34329039b4b3b732b91034b9903737ba103ab9b2b960511b604082015260600190565b602080825260189082015277546865207369676e6572206973206e6f742061206e6f646560401b604082015260600190565b8082018082111561130757611307615117565b6080815260006153166080830187614a7c565b82810360208481019190915286518083528782019282019060005b8181101561534d57845183529383019391830191600101615331565b505095151560408501525050506001600160a01b039190911660609091015292915050565b600061537e828d615183565b6001600160601b031960609c8d1b81168252601482019b909b52988b1b8a1660348a0152505094151560f890811b6048880152604987019490945291871b86166069860152151590911b607d840152607e83015290921b16609e82015260b201919050565b6020808252601490820152731d1c98591a5b99c81b9bdb98d94819985a5b195960621b604082015260600190565b6001600160a01b03948516815260208101939093529015156040830152909116606082015260800190565b6001600160a01b0393909316835260208301919091521515604082015260600190565b600061546b828d615183565b6001600160601b031960608d901b8116825261549361548d601484018e61522c565b8c6151fe565b99151560f890811b8b5260018b019990995260609790971b90961660218901525050911515841b6035860152151590921b60368401525060f01b6001600160f01b0319166037820152603901949350505050565b60208082526014908201527318d85c1a5d185b081b9bdb98d94819985a5b195960621b60408201526060019056fe77697468686f6c64696e673a20496e73756666696369656e742077697468686f405787fa12a823e0f2b7631cc41b3ba8828b3321ca811111fa75cd3aa3bb5ace7472616e736665724f6646756e64733a20496e73756666696369656e7420776957c872046f094b8a493ec5eb6ea374eafbc3c05951e40de3c4302a41f3f127baa2646970667358221220e8a4ccba58ab9402073f5cb3d07026d66e9ebc239c7e83bbad5b5c0964b6292064736f6c63430008110033",
  "linkReferences": {},
  "deployedLinkReferences": {}
}