{
  "_format": "hh-sol-artifact-1",
  "contractName": "Vault",
  "sourceName": "contracts/L1/Vault.sol",
  "abi": [
    {
      "inputs": [
        {
          "internalType": "address",
          "name": "lendingPool_",
          "type": "address"
        },
        {
          "internalType": "address",
          "name": "lzEndpoint_",
          "type": "address"
        },
        {
          "internalType": "uint16",
          "name": "dstChainId_",
          "type": "uint16"
        },
        {
          "internalType": "address",
          "name": "usdt_",
          "type": "address"
        }
      ],
      "stateMutability": "nonpayable",
      "type": "constructor"
    },
    {
      "anonymous": false,
      "inputs": [
        {
          "indexed": false,
          "internalType": "uint16",
          "name": "_srcChainId",
          "type": "uint16"
        },
        {
          "indexed": false,
          "internalType": "bytes",
          "name": "_srcAddress",
          "type": "bytes"
        },
        {
          "indexed": false,
          "internalType": "uint64",
          "name": "_nonce",
          "type": "uint64"
        },
        {
          "indexed": false,
          "internalType": "bytes",
          "name": "_payload",
          "type": "bytes"
        },
        {
          "indexed": false,
          "internalType": "bytes",
          "name": "_reason",
          "type": "bytes"
        }
      ],
      "name": "MessageFailed",
      "type": "event"
    },
    {
      "anonymous": false,
      "inputs": [
        {
          "indexed": true,
          "internalType": "address",
          "name": "previousOwner",
          "type": "address"
        },
        {
          "indexed": true,
          "internalType": "address",
          "name": "newOwner",
          "type": "address"
        }
      ],
      "name": "OwnershipTransferStarted",
      "type": "event"
    },
    {
      "anonymous": false,
      "inputs": [
        {
          "indexed": true,
          "internalType": "address",
          "name": "previousOwner",
          "type": "address"
        },
        {
          "indexed": true,
          "internalType": "address",
          "name": "newOwner",
          "type": "address"
        }
      ],
      "name": "OwnershipTransferred",
      "type": "event"
    },
    {
      "anonymous": false,
      "inputs": [
        {
          "indexed": false,
          "internalType": "uint16",
          "name": "_srcChainId",
          "type": "uint16"
        },
        {
          "indexed": false,
          "internalType": "bytes",
          "name": "_srcAddress",
          "type": "bytes"
        },
        {
          "indexed": false,
          "internalType": "uint64",
          "name": "_nonce",
          "type": "uint64"
        },
        {
          "indexed": false,
          "internalType": "bytes32",
          "name": "_payloadHash",
          "type": "bytes32"
        }
      ],
      "name": "RetryMessageSuccess",
      "type": "event"
    },
    {
      "anonymous": false,
      "inputs": [
        {
          "indexed": false,
          "internalType": "uint16",
          "name": "_dstChainId",
          "type": "uint16"
        },
        {
          "indexed": false,
          "internalType": "uint16",
          "name": "_type",
          "type": "uint16"
        },
        {
          "indexed": false,
          "internalType": "uint256",
          "name": "_minDstGas",
          "type": "uint256"
        }
      ],
      "name": "SetMinDstGas",
      "type": "event"
    },
    {
      "anonymous": false,
      "inputs": [
        {
          "indexed": false,
          "internalType": "address",
          "name": "precrime",
          "type": "address"
        }
      ],
      "name": "SetPrecrime",
      "type": "event"
    },
    {
      "anonymous": false,
      "inputs": [
        {
          "indexed": false,
          "internalType": "uint16",
          "name": "_remoteChainId",
          "type": "uint16"
        },
        {
          "indexed": false,
          "internalType": "bytes",
          "name": "_path",
          "type": "bytes"
        }
      ],
      "name": "SetTrustedRemote",
      "type": "event"
    },
    {
      "anonymous": false,
      "inputs": [
        {
          "indexed": false,
          "internalType": "uint16",
          "name": "_remoteChainId",
          "type": "uint16"
        },
        {
          "indexed": false,
          "internalType": "bytes",
          "name": "_remoteAddress",
          "type": "bytes"
        }
      ],
      "name": "SetTrustedRemoteAddress",
      "type": "event"
    },
    {
      "anonymous": false,
      "inputs": [
        {
          "indexed": false,
          "internalType": "address",
          "name": "user_",
          "type": "address"
        },
        {
          "indexed": false,
          "internalType": "address",
          "name": "coin_",
          "type": "address"
        },
        {
          "indexed": false,
          "internalType": "uint256",
          "name": "interest_",
          "type": "uint256"
        }
      ],
      "name": "eventCheckOutInterest",
      "type": "event"
    },
    {
      "anonymous": false,
      "inputs": [
        {
          "indexed": false,
          "internalType": "address",
          "name": "type_",
          "type": "address"
        },
        {
          "indexed": false,
          "internalType": "uint256",
          "name": "amount_",
          "type": "uint256"
        },
        {
          "indexed": false,
          "internalType": "address",
          "name": "sender_",
          "type": "address"
        }
      ],
      "name": "eventDeposit",
      "type": "event"
    },
    {
      "anonymous": false,
      "inputs": [
        {
          "indexed": false,
          "internalType": "uint256",
          "name": "amount_",
          "type": "uint256"
        },
        {
          "indexed": false,
          "internalType": "address",
          "name": "sender_",
          "type": "address"
        }
      ],
      "name": "eventDepositETH",
      "type": "event"
    },
    {
      "anonymous": false,
      "inputs": [
        {
          "indexed": false,
          "internalType": "address",
          "name": "user",
          "type": "address"
        },
        {
          "indexed": false,
          "internalType": "address[]",
          "name": "coinAdd_",
          "type": "address[]"
        },
        {
          "indexed": false,
          "internalType": "uint256[]",
          "name": "capitalValues_",
          "type": "uint256[]"
        },
        {
          "indexed": false,
          "internalType": "uint8",
          "name": "checkOutType",
          "type": "uint8"
        }
      ],
      "name": "eventReceive",
      "type": "event"
    },
    {
      "anonymous": false,
      "inputs": [
        {
          "indexed": false,
          "internalType": "address",
          "name": "user",
          "type": "address"
        },
        {
          "indexed": false,
          "internalType": "address",
          "name": "coinAdd_",
          "type": "address"
        },
        {
          "indexed": false,
          "internalType": "uint256",
          "name": "capitalValues_",
          "type": "uint256"
        },
        {
          "indexed": false,
          "internalType": "uint8",
          "name": "checkOutType",
          "type": "uint8"
        }
      ],
      "name": "eventReceiveInterest",
      "type": "event"
    },
    {
      "anonymous": false,
      "inputs": [
        {
          "indexed": false,
          "internalType": "address",
          "name": "user_",
          "type": "address"
        },
        {
          "indexed": false,
          "internalType": "bool",
          "name": "re_",
          "type": "bool"
        }
      ],
      "name": "eventSetWhilLlist",
      "type": "event"
    },
    {
      "anonymous": false,
      "inputs": [
        {
          "indexed": false,
          "internalType": "address[]",
          "name": "type_",
          "type": "address[]"
        },
        {
          "indexed": false,
          "internalType": "uint256[]",
          "name": "amount_",
          "type": "uint256[]"
        },
        {
          "indexed": false,
          "internalType": "address",
          "name": "sender_",
          "type": "address"
        }
      ],
      "name": "eventWithdraw",
      "type": "event"
    },
    {
      "anonymous": false,
      "inputs": [
        {
          "indexed": false,
          "internalType": "address",
          "name": "user",
          "type": "address"
        },
        {
          "indexed": false,
          "internalType": "address",
          "name": "coin",
          "type": "address"
        },
        {
          "indexed": false,
          "internalType": "uint256",
          "name": "amount",
          "type": "uint256"
        }
      ],
      "name": "eventWithdrawFee",
      "type": "event"
    },
    {
      "anonymous": false,
      "inputs": [
        {
          "indexed": false,
          "internalType": "address",
          "name": "user",
          "type": "address"
        },
        {
          "indexed": false,
          "internalType": "address",
          "name": "coinType",
          "type": "address"
        },
        {
          "indexed": false,
          "internalType": "uint256",
          "name": "interestBalance",
          "type": "uint256"
        }
      ],
      "name": "eventWithdrawInterest",
      "type": "event"
    },
    {
      "inputs": [],
      "name": "DEFAULT_ADMIN_ROLE",
      "outputs": [
        {
          "internalType": "bytes32",
          "name": "",
          "type": "bytes32"
        }
      ],
      "stateMutability": "view",
      "type": "function"
    },
    {
      "inputs": [],
      "name": "FEE_ROLE",
      "outputs": [
        {
          "internalType": "bytes32",
          "name": "",
          "type": "bytes32"
        }
      ],
      "stateMutability": "view",
      "type": "function"
    },
    {
      "inputs": [],
      "name": "NODE_ROLE",
      "outputs": [
        {
          "internalType": "bytes32",
          "name": "",
          "type": "bytes32"
        }
      ],
      "stateMutability": "view",
      "type": "function"
    },
    {
      "inputs": [],
      "name": "OWENER_ROLE",
      "outputs": [
        {
          "internalType": "bytes32",
          "name": "",
          "type": "bytes32"
        }
      ],
      "stateMutability": "view",
      "type": "function"
    },
    {
      "inputs": [
        {
          "internalType": "bytes32",
          "name": "",
          "type": "bytes32"
        }
      ],
      "name": "_roles",
      "outputs": [
        {
          "internalType": "bytes32",
          "name": "adminRole",
          "type": "bytes32"
        }
      ],
      "stateMutability": "view",
      "type": "function"
    },
    {
      "inputs": [],
      "name": "aave",
      "outputs": [
        {
          "internalType": "address",
          "name": "",
          "type": "address"
        }
      ],
      "stateMutability": "view",
      "type": "function"
    },
    {
      "inputs": [],
      "name": "acceptOwnership",
      "outputs": [],
      "stateMutability": "nonpayable",
      "type": "function"
    },
    {
      "inputs": [
        {
          "internalType": "address",
          "name": "",
          "type": "address"
        }
      ],
      "name": "accounts",
      "outputs": [
        {
          "internalType": "address",
          "name": "user",
          "type": "address"
        },
        {
          "internalType": "bytes32",
          "name": "capitalMerkleRoot",
          "type": "bytes32"
        },
        {
          "internalType": "uint256",
          "name": "capitalNonce",
          "type": "uint256"
        },
        {
          "internalType": "bytes32",
          "name": "tradingMerkleRoot",
          "type": "bytes32"
        },
        {
          "internalType": "uint256",
          "name": "tradingNonce",
          "type": "uint256"
        },
        {
          "internalType": "uint256",
          "name": "nativeFee",
          "type": "uint256"
        }
      ],
      "stateMutability": "view",
      "type": "function"
    },
    {
      "inputs": [],
      "name": "adapterParams",
      "outputs": [
        {
          "internalType": "bytes",
          "name": "",
          "type": "bytes"
        }
      ],
      "stateMutability": "view",
      "type": "function"
    },
    {
      "inputs": [
        {
          "internalType": "address",
          "name": "",
          "type": "address"
        }
      ],
      "name": "deCoinList",
      "outputs": [
        {
          "internalType": "bool",
          "name": "",
          "type": "bool"
        }
      ],
      "stateMutability": "view",
      "type": "function"
    },
    {
      "inputs": [
        {
          "internalType": "address",
          "name": "type_",
          "type": "address"
        },
        {
          "internalType": "uint256",
          "name": "amount_",
          "type": "uint256"
        }
      ],
      "name": "deposit",
      "outputs": [],
      "stateMutability": "payable",
      "type": "function"
    },
    {
      "inputs": [
        {
          "internalType": "uint256",
          "name": "amount_",
          "type": "uint256"
        }
      ],
      "name": "depositETH",
      "outputs": [],
      "stateMutability": "payable",
      "type": "function"
    },
    {
      "inputs": [],
      "name": "dstChainId",
      "outputs": [
        {
          "internalType": "uint16",
          "name": "",
          "type": "uint16"
        }
      ],
      "stateMutability": "view",
      "type": "function"
    },
    {
      "inputs": [
        {
          "internalType": "address",
          "name": "user_",
          "type": "address"
        }
      ],
      "name": "estimateFee",
      "outputs": [
        {
          "internalType": "uint256",
          "name": "nativeFee",
          "type": "uint256"
        },
        {
          "internalType": "uint256",
          "name": "zroFee",
          "type": "uint256"
        }
      ],
      "stateMutability": "view",
      "type": "function"
    },
    {
      "inputs": [
        {
          "internalType": "uint16",
          "name": "",
          "type": "uint16"
        },
        {
          "internalType": "bytes",
          "name": "",
          "type": "bytes"
        },
        {
          "internalType": "uint64",
          "name": "",
          "type": "uint64"
        }
      ],
      "name": "failedMessages",
      "outputs": [
        {
          "internalType": "bytes32",
          "name": "",
          "type": "bytes32"
        }
      ],
      "stateMutability": "view",
      "type": "function"
    },
    {
      "inputs": [
        {
          "internalType": "uint16",
          "name": "_srcChainId",
          "type": "uint16"
        },
        {
          "internalType": "bytes",
          "name": "_srcAddress",
          "type": "bytes"
        }
      ],
      "name": "forceResumeReceive",
      "outputs": [],
      "stateMutability": "nonpayable",
      "type": "function"
    },
    {
      "inputs": [
        {
          "internalType": "address",
          "name": "add_",
          "type": "address"
        }
      ],
      "name": "getATokenWithToken",
      "outputs": [
        {
          "internalType": "address",
          "name": "",
          "type": "address"
        }
      ],
      "stateMutability": "view",
      "type": "function"
    },
    {
      "inputs": [],
      "name": "getAllFee",
      "outputs": [
        {
          "internalType": "address[]",
          "name": "coin",
          "type": "address[]"
        },
        {
          "internalType": "uint256[]",
          "name": "amount",
          "type": "uint256[]"
        }
      ],
      "stateMutability": "view",
      "type": "function"
    },
    {
      "inputs": [
        {
          "internalType": "address",
          "name": "address_",
          "type": "address"
        }
      ],
      "name": "getBalance",
      "outputs": [
        {
          "internalType": "address",
          "name": "",
          "type": "address"
        },
        {
          "internalType": "bytes32",
          "name": "",
          "type": "bytes32"
        },
        {
          "internalType": "address[]",
          "name": "",
          "type": "address[]"
        },
        {
          "internalType": "uint256[]",
          "name": "",
          "type": "uint256[]"
        },
        {
          "internalType": "uint256",
          "name": "",
          "type": "uint256"
        }
      ],
      "stateMutability": "view",
      "type": "function"
    },
    {
      "inputs": [
        {
          "internalType": "uint16",
          "name": "_version",
          "type": "uint16"
        },
        {
          "internalType": "uint16",
          "name": "_chainId",
          "type": "uint16"
        },
        {
          "internalType": "address",
          "name": "",
          "type": "address"
        },
        {
          "internalType": "uint256",
          "name": "_configType",
          "type": "uint256"
        }
      ],
      "name": "getConfig",
      "outputs": [
        {
          "internalType": "bytes",
          "name": "",
          "type": "bytes"
        }
      ],
      "stateMutability": "view",
      "type": "function"
    },
    {
      "inputs": [
        {
          "internalType": "uint16",
          "name": "remoteChainId",
          "type": "uint16"
        }
      ],
      "name": "getOracle",
      "outputs": [
        {
          "internalType": "address",
          "name": "_oracle",
          "type": "address"
        }
      ],
      "stateMutability": "view",
      "type": "function"
    },
    {
      "inputs": [
        {
          "internalType": "address",
          "name": "user_",
          "type": "address"
        }
      ],
      "name": "getSize",
      "outputs": [
        {
          "internalType": "bytes",
          "name": "encoded",
          "type": "bytes"
        }
      ],
      "stateMutability": "view",
      "type": "function"
    },
    {
      "inputs": [
        {
          "internalType": "address",
          "name": "asset",
          "type": "address"
        }
      ],
      "name": "getTotalValue",
      "outputs": [
        {
          "internalType": "uint256",
          "name": "currentATokenBalance",
          "type": "uint256"
        }
      ],
      "stateMutability": "view",
      "type": "function"
    },
    {
      "inputs": [
        {
          "internalType": "uint16",
          "name": "_remoteChainId",
          "type": "uint16"
        }
      ],
      "name": "getTrustedRemoteAddress",
      "outputs": [
        {
          "internalType": "bytes",
          "name": "",
          "type": "bytes"
        }
      ],
      "stateMutability": "view",
      "type": "function"
    },
    {
      "inputs": [
        {
          "internalType": "bytes32",
          "name": "role",
          "type": "bytes32"
        },
        {
          "internalType": "address",
          "name": "account",
          "type": "address"
        }
      ],
      "name": "hasRole",
      "outputs": [
        {
          "internalType": "bool",
          "name": "",
          "type": "bool"
        }
      ],
      "stateMutability": "view",
      "type": "function"
    },
    {
      "inputs": [
        {
          "internalType": "uint16",
          "name": "_srcChainId",
          "type": "uint16"
        },
        {
          "internalType": "bytes",
          "name": "_srcAddress",
          "type": "bytes"
        }
      ],
      "name": "hasStoredPayload",
      "outputs": [],
      "stateMutability": "nonpayable",
      "type": "function"
    },
    {
      "inputs": [
        {
          "internalType": "bytes32",
          "name": "message",
          "type": "bytes32"
        }
      ],
      "name": "hashMessage",
      "outputs": [
        {
          "internalType": "bytes32",
          "name": "messageHash",
          "type": "bytes32"
        }
      ],
      "stateMutability": "pure",
      "type": "function"
    },
    {
      "inputs": [],
      "name": "interest",
      "outputs": [
        {
          "internalType": "address",
          "name": "",
          "type": "address"
        }
      ],
      "stateMutability": "view",
      "type": "function"
    },
    {
      "inputs": [
        {
          "internalType": "address",
          "name": "",
          "type": "address"
        }
      ],
      "name": "interestAmount",
      "outputs": [
        {
          "internalType": "uint256",
          "name": "",
          "type": "uint256"
        }
      ],
      "stateMutability": "view",
      "type": "function"
    },
    {
      "inputs": [],
      "name": "isOpen",
      "outputs": [
        {
          "internalType": "bool",
          "name": "",
          "type": "bool"
        }
      ],
      "stateMutability": "view",
      "type": "function"
    },
    {
      "inputs": [
        {
          "internalType": "address",
          "name": "",
          "type": "address"
        }
      ],
      "name": "isSupDe",
      "outputs": [
        {
          "internalType": "bool",
          "name": "",
          "type": "bool"
        }
      ],
      "stateMutability": "view",
      "type": "function"
    },
    {
      "inputs": [
        {
          "internalType": "address",
          "name": "",
          "type": "address"
        }
      ],
      "name": "isTrueForCoin",
      "outputs": [
        {
          "internalType": "bool",
          "name": "",
          "type": "bool"
        }
      ],
      "stateMutability": "view",
      "type": "function"
    },
    {
      "inputs": [
        {
          "internalType": "uint16",
          "name": "_srcChainId",
          "type": "uint16"
        },
        {
          "internalType": "bytes",
          "name": "_srcAddress",
          "type": "bytes"
        }
      ],
      "name": "isTrustedRemote",
      "outputs": [
        {
          "internalType": "bool",
          "name": "",
          "type": "bool"
        }
      ],
      "stateMutability": "view",
      "type": "function"
    },
    {
      "inputs": [],
      "name": "lzEndpoint",
      "outputs": [
        {
          "internalType": "contract ILayerZeroEndpoint",
          "name": "",
          "type": "address"
        }
      ],
      "stateMutability": "view",
      "type": "function"
    },
    {
      "inputs": [
        {
          "internalType": "uint16",
          "name": "_srcChainId",
          "type": "uint16"
        },
        {
          "internalType": "bytes",
          "name": "_srcAddress",
          "type": "bytes"
        },
        {
          "internalType": "uint64",
          "name": "_nonce",
          "type": "uint64"
        },
        {
          "internalType": "bytes",
          "name": "_payload",
          "type": "bytes"
        }
      ],
      "name": "lzReceive",
      "outputs": [],
      "stateMutability": "nonpayable",
      "type": "function"
    },
    {
      "inputs": [
        {
          "internalType": "uint16",
          "name": "",
          "type": "uint16"
        },
        {
          "internalType": "uint16",
          "name": "",
          "type": "uint16"
        }
      ],
      "name": "minDstGasLookup",
      "outputs": [
        {
          "internalType": "uint256",
          "name": "",
          "type": "uint256"
        }
      ],
      "stateMutability": "view",
      "type": "function"
    },
    {
      "inputs": [
        {
          "internalType": "uint16",
          "name": "_srcChainId",
          "type": "uint16"
        },
        {
          "internalType": "bytes",
          "name": "_srcAddress",
          "type": "bytes"
        },
        {
          "internalType": "uint64",
          "name": "_nonce",
          "type": "uint64"
        },
        {
          "internalType": "bytes",
          "name": "_payload",
          "type": "bytes"
        }
      ],
      "name": "nonblockingLzReceive",
      "outputs": [],
      "stateMutability": "nonpayable",
      "type": "function"
    },
    {
      "inputs": [],
      "name": "owner",
      "outputs": [
        {
          "internalType": "address",
          "name": "",
          "type": "address"
        }
      ],
      "stateMutability": "view",
      "type": "function"
    },
    {
      "inputs": [],
      "name": "pendingOwner",
      "outputs": [
        {
          "internalType": "address",
          "name": "",
          "type": "address"
        }
      ],
      "stateMutability": "view",
      "type": "function"
    },
    {
      "inputs": [],
      "name": "precrime",
      "outputs": [
        {
          "internalType": "address",
          "name": "",
          "type": "address"
        }
      ],
      "stateMutability": "view",
      "type": "function"
    },
    {
      "inputs": [],
      "name": "renounceOwnership",
      "outputs": [],
      "stateMutability": "nonpayable",
      "type": "function"
    },
    {
      "inputs": [
        {
          "internalType": "uint16",
          "name": "_srcChainId",
          "type": "uint16"
        },
        {
          "internalType": "bytes",
          "name": "_srcAddress",
          "type": "bytes"
        },
        {
          "internalType": "uint64",
          "name": "_nonce",
          "type": "uint64"
        },
        {
          "internalType": "bytes",
          "name": "_payload",
          "type": "bytes"
        }
      ],
      "name": "retryMessage",
      "outputs": [],
      "stateMutability": "payable",
      "type": "function"
    },
    {
      "inputs": [
        {
          "internalType": "uint16",
          "name": "_srcChainId",
          "type": "uint16"
        },
        {
          "internalType": "bytes",
          "name": "_srcAddress",
          "type": "bytes"
        },
        {
          "internalType": "bytes",
          "name": "_payload",
          "type": "bytes"
        }
      ],
      "name": "retryPayload",
      "outputs": [],
      "stateMutability": "nonpayable",
      "type": "function"
    },
    {
      "inputs": [
        {
          "internalType": "uint16",
          "name": "version",
          "type": "uint16"
        },
        {
          "internalType": "uint256",
          "name": "gasForDestinationLzReceive",
          "type": "uint256"
        }
      ],
      "name": "setAdapterParams",
      "outputs": [],
      "stateMutability": "nonpayable",
      "type": "function"
    },
    {
      "inputs": [
        {
          "internalType": "uint16",
          "name": "_version",
          "type": "uint16"
        },
        {
          "internalType": "uint16",
          "name": "_chainId",
          "type": "uint16"
        },
        {
          "internalType": "uint256",
          "name": "_configType",
          "type": "uint256"
        },
        {
          "internalType": "bytes",
          "name": "_config",
          "type": "bytes"
        }
      ],
      "name": "setConfig",
      "outputs": [],
      "stateMutability": "nonpayable",
      "type": "function"
    },
    {
      "inputs": [
        {
          "internalType": "address[]",
          "name": "coin_",
          "type": "address[]"
        },
        {
          "internalType": "bool",
          "name": "re_",
          "type": "bool"
        }
      ],
      "name": "setDeCoinList",
      "outputs": [],
      "stateMutability": "nonpayable",
      "type": "function"
    },
    {
      "inputs": [
        {
          "internalType": "bool",
          "name": "re_",
          "type": "bool"
        }
      ],
      "name": "setIsOpen",
      "outputs": [],
      "stateMutability": "nonpayable",
      "type": "function"
    },
    {
      "inputs": [
        {
          "internalType": "uint16",
          "name": "_dstChainId",
          "type": "uint16"
        },
        {
          "internalType": "uint16",
          "name": "_packetType",
          "type": "uint16"
        },
        {
          "internalType": "uint256",
          "name": "_minGas",
          "type": "uint256"
        }
      ],
      "name": "setMinDstGas",
      "outputs": [],
      "stateMutability": "nonpayable",
      "type": "function"
    },
    {
      "inputs": [
        {
          "internalType": "uint16",
          "name": "dstChainId",
          "type": "uint16"
        },
        {
          "internalType": "address",
          "name": "oracle",
          "type": "address"
        }
      ],
      "name": "setOracle",
      "outputs": [],
      "stateMutability": "nonpayable",
      "type": "function"
    },
    {
      "inputs": [
        {
          "internalType": "address",
          "name": "_precrime",
          "type": "address"
        }
      ],
      "name": "setPrecrime",
      "outputs": [],
      "stateMutability": "nonpayable",
      "type": "function"
    },
    {
      "inputs": [
        {
          "internalType": "uint16",
          "name": "_version",
          "type": "uint16"
        }
      ],
      "name": "setReceiveVersion",
      "outputs": [],
      "stateMutability": "nonpayable",
      "type": "function"
    },
    {
      "inputs": [
        {
          "internalType": "uint16",
          "name": "_version",
          "type": "uint16"
        }
      ],
      "name": "setSendVersion",
      "outputs": [],
      "stateMutability": "nonpayable",
      "type": "function"
    },
    {
      "inputs": [
        {
          "internalType": "address",
          "name": "add_",
          "type": "address"
        },
        {
          "internalType": "bool",
          "name": "re",
          "type": "bool"
        }
      ],
      "name": "setSupDe",
      "outputs": [],
      "stateMutability": "nonpayable",
      "type": "function"
    },
    {
      "inputs": [
        {
          "internalType": "uint16",
          "name": "_srcChainId",
          "type": "uint16"
        },
        {
          "internalType": "bytes",
          "name": "_path",
          "type": "bytes"
        }
      ],
      "name": "setTrustedRemote",
      "outputs": [],
      "stateMutability": "nonpayable",
      "type": "function"
    },
    {
      "inputs": [
        {
          "internalType": "uint16",
          "name": "_remoteChainId",
          "type": "uint16"
        },
        {
          "internalType": "bytes",
          "name": "_remoteAddress",
          "type": "bytes"
        }
      ],
      "name": "setTrustedRemoteAddress",
      "outputs": [],
      "stateMutability": "nonpayable",
      "type": "function"
    },
    {
      "inputs": [
        {
          "internalType": "address",
          "name": "add",
          "type": "address"
        },
        {
          "internalType": "uint256",
          "name": "type_",
          "type": "uint256"
        }
      ],
      "name": "setWhilLlist",
      "outputs": [],
      "stateMutability": "nonpayable",
      "type": "function"
    },
    {
      "inputs": [
        {
          "internalType": "address",
          "name": "",
          "type": "address"
        }
      ],
      "name": "totalFee",
      "outputs": [
        {
          "internalType": "uint256",
          "name": "",
          "type": "uint256"
        }
      ],
      "stateMutability": "view",
      "type": "function"
    },
    {
      "inputs": [],
      "name": "totalPrincipal",
      "outputs": [
        {
          "internalType": "uint256",
          "name": "",
          "type": "uint256"
        }
      ],
      "stateMutability": "view",
      "type": "function"
    },
    {
      "inputs": [
        {
          "internalType": "address",
          "name": "newOwner",
          "type": "address"
        }
      ],
      "name": "transferOwnership",
      "outputs": [],
      "stateMutability": "nonpayable",
      "type": "function"
    },
    {
      "inputs": [
        {
          "internalType": "uint16",
          "name": "",
          "type": "uint16"
        }
      ],
      "name": "trustedRemoteLookup",
      "outputs": [
        {
          "internalType": "bytes",
          "name": "",
          "type": "bytes"
        }
      ],
      "stateMutability": "view",
      "type": "function"
    },
    {
      "inputs": [],
      "name": "usdt",
      "outputs": [
        {
          "internalType": "address",
          "name": "",
          "type": "address"
        }
      ],
      "stateMutability": "view",
      "type": "function"
    },
    {
      "inputs": [
        {
          "internalType": "bytes32",
          "name": "messageHash",
          "type": "bytes32"
        },
        {
          "internalType": "bytes",
          "name": "signature",
          "type": "bytes"
        }
      ],
      "name": "verifyEcrecover",
      "outputs": [
        {
          "internalType": "address",
          "name": "recoveredAddress",
          "type": "address"
        }
      ],
      "stateMutability": "pure",
      "type": "function"
    },
    {
      "inputs": [
        {
          "internalType": "address",
          "name": "",
          "type": "address"
        }
      ],
      "name": "whlieList",
      "outputs": [
        {
          "internalType": "bool",
          "name": "",
          "type": "bool"
        }
      ],
      "stateMutability": "view",
      "type": "function"
    },
    {
      "inputs": [
        {
          "internalType": "uint256[]",
          "name": "amount_",
          "type": "uint256[]"
        },
        {
          "internalType": "address[]",
          "name": "coinType_",
          "type": "address[]"
        }
      ],
      "name": "withdraw",
      "outputs": [],
      "stateMutability": "nonpayable",
      "type": "function"
    },
    {
      "inputs": [
        {
          "internalType": "address",
          "name": "add_",
          "type": "address"
        },
        {
          "internalType": "uint256",
          "name": "amount_",
          "type": "uint256"
        }
      ],
      "name": "withdrawFee",
      "outputs": [],
      "stateMutability": "nonpayable",
      "type": "function"
    },
    {
      "inputs": [
        {
          "internalType": "uint256",
          "name": "amount_",
          "type": "uint256"
        },
        {
          "internalType": "address",
          "name": "coinType_",
          "type": "address"
        }
      ],
      "name": "withdrawInterest",
      "outputs": [],
      "stateMutability": "nonpayable",
      "type": "function"
    }
  ],
  "bytecode": "0x60a06040523480156200001157600080fd5b5060405162005cff38038062005cff83398101604081905262000034916200013b565b82806200004133620000a2565b6001600160a01b03908116608052600180546001600160a01b03199081169783169790971781556000805461ffff191661ffff96909616959095179094556006805460ff191690941790935550600a805490941691161790915550620001a0565b600c80546001600160a01b0319169055620000c981620000cc602090811b620032c217901c565b50565b600b80546001600160a01b038381166001600160a01b0319831681179093556040519116919082907f8be0079c531659141344cd1fd0a4f28419497f9722a3daafe3b4186f6b6457e090600090a35050565b80516001600160a01b03811681146200013657600080fd5b919050565b600080600080608085870312156200015257600080fd5b6200015d856200011e565b93506200016d602086016200011e565b9250604085015161ffff811681146200018557600080fd5b915062000195606086016200011e565b905092959194509250565b608051615ae862000217600039600081816109a101528181610c8701528181610f530152818161107b0152818161111c0152818161169f01528181611c1601528181611eb9015281816124a20152818161267401528181612bb301528181612be201528181612e1501526141580152615ae86000f3fe6080604052600436106102e85760003560e01c80621d3567146102ed578063021b93591461030f57806307e0db1714610345578063083118d514610365578063085a10cf146103875780630eaf6ea6146103a757806310ddb137146103c75780631210aac2146103e757806316e576521461040757806319fc2e611461042757806329e26b10146104695780632a0276f8146104a95780632f48ab7d146104cb57806330c593f7146104eb5780633d8b38f61461051957806342d65a8d1461053957806347535d7b1461055957806347e7ef24146105735780634893c26a14610586578063492e527e146105b65780634b1533b2146105d6578063504f1671146105ec5780635358fbda1461060c57806357463d351461061f5780635b8c41e6146106545780635e5c06e2146106a357806366ad5c8a1461073657806368637549146107565780636d1daa2814610776578063715018a6146107965780637533d788146107ab57806379ba5097146107cb5780637a4fda3d146107e0578063819faf7b1461080d5780638cfd8f5c1461082d5780638da5cb5b1461086557806391d148541461087a578063950c8a741461089a5780639f38369a146108ba578063a217fddf146108da578063a304dcf4146108ef578063a4ca74db1461090f578063a6c3d1651461092f578063aaff5f161461094f578063b273f2071461096f578063b353aaa71461098f578063b3cb890f146109c3578063b7a745c6146109e3578063baf3292d14610a13578063bd99d7e114610a33578063c392f76614610a63578063c779c1c314610a89578063cbed8b9c14610ab6578063d1deba1f14610ad6578063d667a5da14610ae9578063df2a5b3b14610b0c578063e2f2882414610b2c578063e30c397814610b4c578063e52249e314610b61578063eb8d72b714610b81578063f2fde38b14610ba1578063f5ecbdbc14610bc1578063f8b2cb4f14610be1578063fb89573314610c12578063fd9be52214610c34578063ff464d3f14610c54575b600080fd5b3480156102f957600080fd5b5061030d610308366004614391565b610c84565b005b34801561031b57600080fd5b5061032f61032a36600461443b565b610eb5565b60405161033c9190614458565b60405180910390f35b34801561035157600080fd5b5061030d61036036600461446c565b610f32565b34801561037157600080fd5b5061037a610fbb565b60405161033c91906144d9565b34801561039357600080fd5b5061030d6103a23660046144fa565b611049565b3480156103b357600080fd5b5061030d6103c2366004614517565b611064565b3480156103d357600080fd5b5061030d6103e236600461446c565b6110fb565b3480156103f357600080fd5b5061030d61040236600461456b565b611153565b34801561041357600080fd5b5061030d6104223660046146c4565b61127e565b34801561043357600080fd5b5061045b7f52941335797217779ab62cf10a3ae2b6d453b5f3a1285e7a816eb9f63a58d66981565b60405190815260200161033c565b34801561047557600080fd5b5061049961048436600461443b565b60126020526000908152604090205460ff1681565b604051901515815260200161033c565b3480156104b557600080fd5b5061045b600080516020615a7383398151915281565b3480156104d757600080fd5b50600a5461032f906001600160a01b031681565b3480156104f757600080fd5b506000546105069061ffff1681565b60405161ffff909116815260200161033c565b34801561052557600080fd5b50610499610534366004614517565b6115b4565b34801561054557600080fd5b5061030d610554366004614517565b611680565b34801561056557600080fd5b506006546104999060ff1681565b61030d61058136600461477c565b611706565b34801561059257600080fd5b506104996105a136600461443b565b60096020526000908152604090205460ff1681565b3480156105c257600080fd5b5061030d6105d13660046147a8565b611bf4565b3480156105e257600080fd5b5061045b60155481565b3480156105f857600080fd5b5061037a61060736600461443b565b611cd5565b61030d61061a3660046147d6565b611d69565b34801561062b57600080fd5b5061063f61063a36600461443b565b611ea5565b6040805192835260208301919091520161033c565b34801561066057600080fd5b5061045b61066f366004614867565b6010602090815260009384526040808520845180860184018051928152908401958401959095209452929052825290205481565b3480156106af57600080fd5b506106ff6106be36600461443b565b60036020819052600091825260409091208054600182015492820154600483015460068401546007909401546001600160a01b039093169493919290919086565b604080516001600160a01b0390971687526020870195909552938501929092526060840152608083015260a082015260c00161033c565b34801561074257600080fd5b5061030d610751366004614391565b611f5e565b34801561076257600080fd5b5061045b61077136600461443b565b61203a565b34801561078257600080fd5b5061030d6107913660046148c6565b61212c565b3480156107a257600080fd5b5061030d612177565b3480156107b757600080fd5b5061037a6107c636600461446c565b61218b565b3480156107d757600080fd5b5061030d6121a4565b3480156107ec57600080fd5b5061045b6107fb36600461443b565b60136020526000908152604090205481565b34801561081957600080fd5b5060015461032f906001600160a01b031681565b34801561083957600080fd5b5061045b6108483660046148e4565b600e60209081526000928352604080842090915290825290205481565b34801561087157600080fd5b5061032f612222565b34801561088657600080fd5b5061049961089536600461456b565b612231565b3480156108a657600080fd5b50600f5461032f906001600160a01b031681565b3480156108c657600080fd5b5061037a6108d536600461446c565b61225e565b3480156108e657600080fd5b5061045b600081565b3480156108fb57600080fd5b5061030d61090a366004614912565b61236d565b34801561091b57600080fd5b5061030d61092a366004614940565b6123a0565b34801561093b57600080fd5b5061030d61094a366004614517565b61240f565b34801561095b57600080fd5b5061030d61096a366004614986565b61248b565b34801561097b57600080fd5b5061032f61098a366004614a08565b612518565b34801561099b57600080fd5b5061032f7f000000000000000000000000000000000000000000000000000000000000000081565b3480156109cf57600080fd5b5061045b6109de3660046147d6565b6125a5565b3480156109ef57600080fd5b506104996109fe36600461443b565b60146020526000908152604090205460ff1681565b348015610a1f57600080fd5b5061030d610a2e36600461443b565b6125f7565b348015610a3f57600080fd5b5061045b610a4e3660046147d6565b60076020526000908152604090206001015481565b348015610a6f57600080fd5b5060005461032f906201000090046001600160a01b031681565b348015610a9557600080fd5b5061045b610aa436600461443b565b60116020526000908152604090205481565b348015610ac257600080fd5b5061030d610ad1366004614a44565b612655565b61030d610ae4366004614391565b6126b1565b348015610af557600080fd5b50610afe6128c7565b60405161033c929190614b19565b348015610b1857600080fd5b5061030d610b27366004614b3e565b612afc565b348015610b3857600080fd5b5061032f610b4736600461446c565b612bae565b348015610b5857600080fd5b5061032f612ce0565b348015610b6d57600080fd5b5061030d610b7c36600461477c565b612cef565b348015610b8d57600080fd5b5061030d610b9c366004614517565b612d3b565b348015610bad57600080fd5b5061030d610bbc36600461443b565b612d95565b348015610bcd57600080fd5b5061037a610bdc366004614b7f565b612dfb565b348015610bed57600080fd5b50610c01610bfc36600461443b565b612e9e565b60405161033c959493929190614bd0565b348015610c1e57600080fd5b5061045b600080516020615a9383398151915281565b348015610c4057600080fd5b5061030d610c4f36600461477c565b613119565b348015610c6057600080fd5b50610499610c6f36600461443b565b60046020526000908152604090205460ff1681565b337f00000000000000000000000000000000000000000000000000000000000000006001600160a01b031614610d015760405162461bcd60e51b815260206004820152601e60248201527f4c7a4170703a20696e76616c696420656e64706f696e742063616c6c6572000060448201526064015b60405180910390fd5b61ffff86166000908152600d602052604081208054610d1f90614c1c565b80601f0160208091040260200160405190810160405280929190818152602001828054610d4b90614c1c565b8015610d985780601f10610d6d57610100808354040283529160200191610d98565b820191906000526020600020905b815481529060010190602001808311610d7b57829003601f168201915b50505050509050805186869050148015610db3575060008151115b8015610ddb575080516020820120604051610dd19088908890614c56565b6040518091039020145b610e365760405162461bcd60e51b815260206004820152602660248201527f4c7a4170703a20696e76616c696420736f757263652073656e64696e6720636f6044820152651b9d1c9858dd60d21b6064820152608401610cf8565b610eac8787878080601f01602080910402602001604051908101604052809392919081815260200183838082843760009201919091525050604080516020601f8a018190048102820181019092528881528a93509150889088908190840183828082843760009201919091525061331492505050565b50505050505050565b6001546040516335ea6a7560e01b81526000916001600160a01b0316906335ea6a7590610ee6908590600401614458565b61018060405180830381865afa158015610f04573d6000803e3d6000fd5b505050506040513d601f19601f82011682018060405250810190610f289190614cef565b60e0015192915050565b610f3a61338d565b6040516307e0db1760e01b815261ffff821660048201527f00000000000000000000000000000000000000000000000000000000000000006001600160a01b0316906307e0db17906024015b600060405180830381600087803b158015610fa057600080fd5b505af1158015610fb4573d6000803e3d6000fd5b5050505050565b60028054610fc890614c1c565b80601f0160208091040260200160405190810160405280929190818152602001828054610ff490614c1c565b80156110415780601f1061101657610100808354040283529160200191611041565b820191906000526020600020905b81548152906001019060200180831161102457829003601f168201915b505050505081565b61105161338d565b6006805460ff1916911515919091179055565b604051630757b75360e11b81526001600160a01b037f00000000000000000000000000000000000000000000000000000000000000001690630eaf6ea6906110b490869086908690600401614e05565b602060405180830381865afa1580156110d1573d6000803e3d6000fd5b505050506040513d601f19601f820116820180604052508101906110f59190614e23565b50505050565b61110361338d565b6040516310ddb13760e01b815261ffff821660048201527f00000000000000000000000000000000000000000000000000000000000000006001600160a01b0316906310ddb13790602401610f86565b60065460ff16151560011461117a5760405162461bcd60e51b8152600401610cf890614e40565b336000908152601160205260409020548211156111a95760405162461bcd60e51b8152600401610cf890614e61565b33600090815260116020526040812080548492906111c8908490614ea5565b909155505060405163a9059cbb60e01b81526001600160a01b0382169063a9059cbb906111fb9033908690600401614eb8565b6020604051808303816000875af115801561121a573d6000803e3d6000fd5b505050506040513d601f19601f8201168201806040525081019061123e9190614e23565b507fbb992170d0382feeb939a59875390a636bd942134e6e58925caf64c99432820a33828460405161127293929190614ed1565b60405180910390a15050565b60065460ff1615156001146112a55760405162461bcd60e51b8152600401610cf890614e40565b33600090815260036020526040902081518351146112f65760405162461bcd60e51b815260206004820152600e60248201526d082e4e4c2f240dad2e6dac2e8c6d60931b6044820152606401610cf8565b60005b835181101561157357600082600201600085848151811061131c5761131c614ef5565b60200260200101516001600160a01b03166001600160a01b0316815260200190815260200160002054905084828151811061135957611359614ef5565b60200260200101518110156113805760405162461bcd60e51b8152600401610cf890614f0b565b84828151811061139257611392614ef5565b60200260200101518360020160008685815181106113b2576113b2614ef5565b60200260200101516001600160a01b03166001600160a01b0316815260200190815260200160002060008282546113e99190614ea5565b9091555050835160009085908490811061140557611405614ef5565b60200260200101516001600160a01b03160361147357336001600160a01b03166108fc86848151811061143a5761143a614ef5565b60200260200101519081150290604051600060405180830381858888f1935050505015801561146d573d6000803e3d6000fd5b50611560565b600084838151811061148757611487614ef5565b60200260200101516001600160a01b031663a9059cbb338886815181106114b0576114b0614ef5565b60200260200101516040518363ffffffff1660e01b81526004016114d5929190614eb8565b6020604051808303816000875af11580156114f4573d6000803e3d6000fd5b505050506040513d601f19601f820116820180604052508101906115189190614e23565b905060018115151461155e5760405162461bcd60e51b815260206004820152600f60248201526e15da5d1a191c985dc819985a5b1959608a1b6044820152606401610cf8565b505b508061156b81614f39565b9150506112f9565b507fd4de851ae1bdf4ea540c1d68657b95bdc9710e532c03bf807c1a7107d238706b8284336040516115a793929190614f52565b60405180910390a1505050565b61ffff83166000908152600d6020526040812080548291906115d590614c1c565b80601f016020809104026020016040519081016040528092919081815260200182805461160190614c1c565b801561164e5780601f106116235761010080835404028352916020019161164e565b820191906000526020600020905b81548152906001019060200180831161163157829003601f168201915b505050505090508383604051611665929190614c56565b60405180910390208180519060200120149150509392505050565b61168861338d565b6040516342d65a8d60e01b81526001600160a01b037f000000000000000000000000000000000000000000000000000000000000000016906342d65a8d906116d890869086908690600401614e05565b600060405180830381600087803b1580156116f257600080fd5b505af1158015610eac573d6000803e3d6000fd5b600654600090819060ff16151560011461174c5760405162461bcd60e51b8152602060048201526007602482015266436c6f73696e6760c81b6044820152606401610cf8565b6001600160a01b03841660009081526012602052604090205460ff1615156001146117cc5760405162461bcd60e51b815260206004820152602a60248201527f526563686172676520696e20746869732063757272656e6379206973206e6f74604482015269081cdd5c1c1bdc9d195960b21b6064820152608401610cf8565b6040516370a0823160e01b815283906001600160a01b038616906370a08231906117fa903390600401614458565b602060405180830381865afa158015611817573d6000803e3d6000fd5b505050506040513d601f19601f8201168201806040525081019061183b9190614f90565b10156118595760405162461bcd60e51b8152600401610cf890614f0b565b604051636eb1769f60e11b815283906001600160a01b0386169063dd62ed3e906118899033903090600401614fa9565b602060405180830381865afa1580156118a6573d6000803e3d6000fd5b505050506040513d601f19601f820116820180604052508101906118ca9190614f90565b10156118e85760405162461bcd60e51b8152600401610cf890614fc3565b6040516370a0823160e01b81526000906001600160a01b038616906370a0823190611917903390600401614458565b602060405180830381865afa158015611934573d6000803e3d6000fd5b505050506040513d601f19601f820116820180604052508101906119589190614f90565b6040516323b872dd60e01b81529091506001600160a01b038616906323b872dd9061198b90339030908990600401614ed1565b6020604051808303816000875af11580156119aa573d6000803e3d6000fd5b505050506040513d601f19601f820116820180604052508101906119ce9190614e23565b506119d98482614ea5565b6040516370a0823160e01b81526001600160a01b038716906370a0823190611a05903390600401614458565b602060405180830381865afa158015611a22573d6000803e3d6000fd5b505050506040513d601f19601f82011682018060405250810190611a469190614f90565b14611a635760405162461bcd60e51b8152600401610cf890614f0b565b6000611a6e33611ea5565b50905034811115611a915760405162461bcd60e51b8152600401610cf890614fed565b6001600160a01b03861660009081526004602052604090205460ff161515600103611b4a57600a5460019450600090611ad2906001600160a01b031661203a565b9050611ade87876133ec565b8560156000828254611af09190615021565b9091555050600a54611b0a906001600160a01b031661203a565b611b148288615021565b611b1e9190614ea5565b600103611b4857600a54611b3a906001600160a01b031661203a565b611b45906001615021565b93505b505b600a54611b5f906001600160a01b031661203a565b9250611bb160008054906101000a900461ffff163388888860016015548a611b879190614ea5565b604051602001611b9c96959493929190615034565b60405160208183030381529060405234613567565b7f448d2b6792a74a21bfa5114f7cd01a036f36236f4e3687339032e97103e653ce868633604051611be49392919061508d565b60405180910390a1505050505050565b611bfc61338d565b6040516304b2b47b60e11b81526006906001600160a01b037f0000000000000000000000000000000000000000000000000000000000000000169063cbed8b9c90829063096568f690611c53903090600401614458565b602060405180830381865afa158015611c70573d6000803e3d6000fd5b505050506040513d601f19601f82011682018060405250810190611c9491906150b0565b858486604051602001611ca79190614458565b6040516020818303038152906040526040518563ffffffff1660e01b81526004016116d894939291906150cd565b6060816000806127106000600a611d00600a60009054906101000a90046001600160a01b031661203a565b604080516001600160a01b03909816602089015260ff96871690880152938516606087015261ffff9092166080860152831660a08501529190911660c083015260e0820152620f4240610100820152610120016040516020818303038152906040529050919050565b60065460ff161515600114611d905760405162461bcd60e51b8152600401610cf890614e40565b6000611d9b33611ea5565b50905034611da98284615021565b1115611de95760405162461bcd60e51b815260206004820152600f60248201526e0c2dadeeadce840dcde40dac2e8c6d608b1b6044820152606401610cf8565b34811115611e095760405162461bcd60e51b8152600401610cf890614fed565b60008054601554600a54611e709361ffff90931692339290918791839160029190611e3c906001600160a01b031661203a565b611e469190614ea5565b604051602001611e5b96959493929190615034565b60405160208183030381529060405283613567565b604080518381523360208201527f0f007803da765bf8bfb79898e5892989976c0f6b9f69dd946cb8b949c781587a9101611272565b600080548190819081906001600160a01b037f000000000000000000000000000000000000000000000000000000000000000016906340a7bb109061ffff1630611eee89611cd5565b600060026040518663ffffffff1660e01b8152600401611f12959493929190615104565b6040805180830381865afa158015611f2e573d6000803e3d6000fd5b505050506040513d601f19601f82011682018060405250810190611f5291906151c2565b90969095509350505050565b333014611fbc5760405162461bcd60e51b815260206004820152602660248201527f4e6f6e626c6f636b696e674c7a4170703a2063616c6c6572206d7573742062656044820152650204c7a4170760d41b6064820152608401610cf8565b6120328686868080601f01602080910402602001604051908101604052809392919081815260200183838082843760009201919091525050604080516020601f89018190048102820181019092528781528993509150879087908190840183828082843760009201919091525061360092505050565b505050505050565b6001546040516335ea6a7560e01b815260009182916001600160a01b03909116906335ea6a759061206f908690600401614458565b61018060405180830381865afa15801561208d573d6000803e3d6000fd5b505050506040513d601f19601f820116820180604052508101906120b19190614cef565b60e08101516040516370a0823160e01b81529192506001600160a01b0316906370a08231906120e4903090600401614458565b602060405180830381865afa158015612101573d6000803e3d6000fd5b505050506040513d601f19601f820116820180604052508101906121259190614f90565b9392505050565b61213461338d565b6040516001600160f01b031960f084901b16602082015260228101829052604201604051602081830303815290604052600290816121729190615241565b505050565b61217f61338d565b6121896000613d71565b565b600d6020526000908152604090208054610fc890614c1c565b33806121ae612ce0565b6001600160a01b0316146122165760405162461bcd60e51b815260206004820152602960248201527f4f776e61626c6532537465703a2063616c6c6572206973206e6f7420746865206044820152683732bb9037bbb732b960b91b6064820152608401610cf8565b61221f81613d71565b50565b600b546001600160a01b031690565b60008281526007602090815260408083206001600160a01b038516845290915290205460ff165b92915050565b61ffff81166000908152600d602052604081208054606092919061228190614c1c565b80601f01602080910402602001604051908101604052809291908181526020018280546122ad90614c1c565b80156122fa5780601f106122cf576101008083540402835291602001916122fa565b820191906000526020600020905b8154815290600101906020018083116122dd57829003601f168201915b5050505050905080516000036123525760405162461bcd60e51b815260206004820152601d60248201527f4c7a4170703a206e6f20747275737465642070617468207265636f72640000006044820152606401610cf8565b6121256000601483516123659190614ea5565b839190613d8a565b61237561338d565b6001600160a01b03919091166000908152600460205260409020805460ff1916911515919091179055565b6123a861338d565b60005b82518110156121725781601260008584815181106123cb576123cb614ef5565b6020908102919091018101516001600160a01b03168252810191909152604001600020805460ff19169115159190911790558061240781614f39565b9150506123ab565b61241761338d565b81813060405160200161242c939291906152fa565b60408051601f1981840301815291815261ffff85166000908152600d60205220906124579082615241565b507f8c0400cfe2d1199b1a725c78960bcc2a344d869b80590d0f2bd005db15a572ce8383836040516115a793929190614e05565b60405163557faf8b60e11b81526001600160a01b037f0000000000000000000000000000000000000000000000000000000000000000169063aaff5f16906124df908890889088908890889060040161531b565b600060405180830381600087803b1580156124f957600080fd5b505af115801561250d573d6000803e3d6000fd5b505050505050505050565b600080612524846125a5565b9050600080600061253486613e97565b60408051600081526020810180835289905260ff8516918101919091526060810183905260808101829052929550909350915060019060a0016020604051602081039080840390855afa15801561258f573d6000803e3d6000fd5b5050604051601f19015198975050505050505050565b6040517b0ca2ba3432b932bab69029b4b3b732b21026b2b9b9b0b3b29d05199960211b6020820152603c8101829052600090605c01604051602081830303815290604052805190602001209050919050565b6125ff61338d565b600f80546001600160a01b0319166001600160a01b0383161790556040517f5db758e995a17ec1ad84bdef7e8c3293a0bd6179bcce400dff5d4c3d87db726b9061264a908390614458565b60405180910390a150565b61265d61338d565b6040516332fb62e760e21b81526001600160a01b037f0000000000000000000000000000000000000000000000000000000000000000169063cbed8b9c906124df9088908890889088908890600401615358565b61ffff861660009081526010602052604080822090516126d49088908890614c56565b90815260408051602092819003830190206001600160401b038716600090815292529020549050806127545760405162461bcd60e51b815260206004820152602360248201527f4e6f6e626c6f636b696e674c7a4170703a206e6f2073746f726564206d65737360448201526261676560e81b6064820152608401610cf8565b808383604051612765929190614c56565b6040518091039020146127c45760405162461bcd60e51b815260206004820152602160248201527f4e6f6e626c6f636b696e674c7a4170703a20696e76616c6964207061796c6f616044820152601960fa1b6064820152608401610cf8565b61ffff871660009081526010602052604080822090516127e79089908990614c56565b90815260408051602092819003830181206001600160401b038916600090815290845282902093909355601f8801829004820283018201905286825261287f918991899089908190840183828082843760009201919091525050604080516020601f8a018190048102820181019092528881528a93509150889088908190840183828082843760009201919091525061360092505050565b7fc264d91f3adc5588250e1551f547752ca0cfa8f6b530d243b9f9f4cab10ea8e587878787856040516128b6959493929190615391565b60405180910390a150505050505050565b6060806000805b60085481101561293c57600060136000600884815481106128f1576128f1614ef5565b60009182526020808320909101546001600160a01b03168352820192909252604001902054111561292a578161292681614f39565b9250505b8061293481614f39565b9150506128ce565b50806001600160401b038111156129555761295561459b565b60405190808252806020026020018201604052801561297e578160200160208202803683370190505b509250806001600160401b038111156129995761299961459b565b6040519080825280602002602001820160405280156129c2578160200160208202803683370190505b5091506000805b600854811015612af557600060136000600884815481106129ec576129ec614ef5565b60009182526020808320909101546001600160a01b031683528201929092526040019020541115612ae35760088181548110612a2a57612a2a614ef5565b9060005260206000200160009054906101000a90046001600160a01b0316858381518110612a5a57612a5a614ef5565b60200260200101906001600160a01b031690816001600160a01b0316815250506013600060088381548110612a9157612a91614ef5565b60009182526020808320909101546001600160a01b031683528201929092526040019020548451859084908110612aca57612aca614ef5565b602090810291909101015281612adf81614f39565b9250505b80612aed81614f39565b9150506129c9565b5050509091565b612b0461338d565b60008111612b4c5760405162461bcd60e51b81526020600482015260156024820152744c7a4170703a20696e76616c6964206d696e47617360581b6044820152606401610cf8565b61ffff8381166000818152600e602090815260408083209487168084529482529182902085905581519283528201929092529081018290527f9d5c7c0b934da8fefa9c7760c98383778a12dfbfc0c3b3106518f43fb9508ac0906060016115a7565b6000807f00000000000000000000000000000000000000000000000000000000000000006001600160a01b031663f5ecbdbc7f00000000000000000000000000000000000000000000000000000000000000006001600160a01b031663096568f6306040518263ffffffff1660e01b8152600401612c2c9190614458565b602060405180830381865afa158015612c49573d6000803e3d6000fd5b505050506040513d601f19601f82011682018060405250810190612c6d91906150b0565b853060066040518563ffffffff1660e01b8152600401612c9094939291906153cc565b600060405180830381865afa158015612cad573d6000803e3d6000fd5b505050506040513d6000823e601f3d908101601f19168201604052612cd5919081019061543e565b602001519392505050565b600c546001600160a01b031690565b612cf761338d565b80600103612d1b57612d17600080516020615a9383398151915283613f09565b5050565b80600203612d1757612d17600080516020615a7383398151915283613f09565b612d4361338d565b61ffff83166000908152600d60205260409020612d61828483615472565b507ffa41487ad5d6728f0b19276fa1eddc16558578f5109fc39d2dc33c3230470dab8383836040516115a793929190614e05565b612d9d61338d565b600c80546001600160a01b0319166001600160a01b038316908117909155612dc3612222565b6001600160a01b03167f38d16b8cac22d99fc7c124b9cd0de2d3fa1faef420bfe791d8c362d765e2270060405160405180910390a350565b604051633d7b2f6f60e21b81526060906001600160a01b037f0000000000000000000000000000000000000000000000000000000000000000169063f5ecbdbc90612e509088908890309088906004016153cc565b600060405180830381865afa158015612e6d573d6000803e3d6000fd5b505050506040513d6000823e601f3d908101601f19168201604052612e95919081019061543e565b95945050505050565b6001600160a01b038116600090815260036020526040812081906060908190839081805b600854811015612f2f5782600201600060088381548110612ee557612ee5614ef5565b60009182526020808320909101546001600160a01b0316835282019290925260400190205415612f1d5781612f1981614f39565b9250505b80612f2781614f39565b915050612ec2565b506000816001600160401b03811115612f4a57612f4a61459b565b604051908082528060200260200182016040528015612f73578160200160208202803683370190505b5090506000826001600160401b03811115612f9057612f9061459b565b604051908082528060200260200182016040528015612fb9578160200160208202803683370190505b5090506000805b6008548110156130ed5785600201600060088381548110612fe357612fe3614ef5565b60009182526020808320909101546001600160a01b03168352820192909252604001902054156130db576008818154811061302057613020614ef5565b9060005260206000200160009054906101000a90046001600160a01b031684838151811061305057613050614ef5565b60200260200101906001600160a01b031690816001600160a01b0316815250508560020160006008838154811061308957613089614ef5565b60009182526020808320909101546001600160a01b0316835282019290925260400190205483518490849081106130c2576130c2614ef5565b6020908102919091010152816130d781614f39565b9250505b806130e581614f39565b915050612fc0565b5050835460018501546003909501546001600160a01b039091169b949a50919850965094509092505050565b6001600160a01b0382166000908152601360205260409020548111156131515760405162461bcd60e51b8152600401610cf890614e61565b613169600080516020615a7383398151915233612231565b15156001146131ae5760405162461bcd60e51b815260206004820152601160248201527014195c9b5a5cdcda5bdb8811195b9a5959607a1b6044820152606401610cf8565b6001600160a01b038216600090815260136020526040812080548392906131d6908490614ea5565b90915550506001600160a01b03821661321c57604051339082156108fc029083906000818181858888f19350505050158015613216573d6000803e3d6000fd5b5061328f565b60405163a9059cbb60e01b81526001600160a01b0383169063a9059cbb9061324a9033908590600401614eb8565b6020604051808303816000875af1158015613269573d6000803e3d6000fd5b505050506040513d601f19601f8201168201806040525081019061328d9190614e23565b505b7ffbbab8333d2e0055ae562039b78baae4ed45601dae6046203b368089b81e4d9b33838360405161127293929190614ed1565b600b80546001600160a01b038381166001600160a01b0319831681179093556040519116919082907f8be0079c531659141344cd1fd0a4f28419497f9722a3daafe3b4186f6b6457e090600090a35050565b6000806133775a60966366ad5c8a60e01b8989898960405160240161333c949392919061552b565b60408051601f198184030181529190526020810180516001600160e01b03166001600160e01b03199093169290921790915230929190613f13565b9150915081612032576120328686868685613f9d565b33613396612222565b6001600160a01b0316146121895760405162461bcd60e51b815260206004820181905260248201527f4f776e61626c653a2063616c6c6572206973206e6f7420746865206f776e65726044820152606401610cf8565b60015460405163095ea7b360e01b81526001600160a01b038481169263095ea7b39261342092909116908590600401614eb8565b6020604051808303816000875af115801561343f573d6000803e3d6000fd5b505050506040513d601f19601f820116820180604052508101906134639190614e23565b50600154604051636eb1769f60e11b815282916001600160a01b038086169263dd62ed3e92613499923092911690600401614fa9565b602060405180830381865afa1580156134b6573d6000803e3d6000fd5b505050506040513d601f19601f820116820180604052508101906134da9190614f90565b10156134f85760405162461bcd60e51b8152600401610cf890614fc3565b60015460405163e8eda9df60e01b81526001600160a01b03848116600483015260248201849052306044830152600060648301529091169063e8eda9df90608401600060405180830381600087803b15801561355357600080fd5b505af1158015612032573d6000803e3d6000fd5b61217283833360006002805461357c90614c1c565b80601f01602080910402602001604051908101604052809291908181526020018280546135a890614c1c565b80156135f55780601f106135ca576101008083540402835291602001916135f5565b820191906000526020600020905b8154815290600101906020018083116135d857829003601f168201915b50505050508661403a565b6000818060200190518101906136169190614f90565b9050806001036139a0576000828060200190518101906136369190615628565b915050600081600001518260200151836040015160405160200161365a919061572a565b604051602081830303815290604052846060015160405160200161367e9190615769565b60408051601f1981840301815290829052608087015160a08801516136a896959493602001615793565b60405160208183030381529060405290506136dd600080516020615a938339815191526108958460c001518560e00151612518565b15156001146137295760405162461bcd60e51b8152602060048201526018602482015277546865207369676e6572206973206e6f742061206e6f646560401b6044820152606401610cf8565b8051602082012060c083015181146137745760405162461bcd60e51b815260206004820152600e60248201526d496e636f7272656374206461746160901b6044820152606401610cf8565b82516001600160a01b0390811660009081526003602090815260408220865181546001600160a01b03191694169390931783558501516001830155608085015160078301555b84604001515181101561395e576137ed856040015182815181106137e0576137e0614ef5565b60200260200101516141d4565b8460600151818151811061380357613803614ef5565b60200260200101518260020160008760400151848151811061382757613827614ef5565b60200260200101516001600160a01b03166001600160a01b03168152602001908152602001600020600082825461385e9190615021565b92505081905550600460008660400151838151811061387f5761387f614ef5565b6020908102919091018101516001600160a01b031682528101919091526040016000205460ff161561394c576000856060015182815181106138c3576138c3614ef5565b6020026020010151111561394c57613916856040015182815181106138ea576138ea614ef5565b60200260200101518660600151838151811061390857613908614ef5565b60200260200101513061425e565b508460600151818151811061392d5761392d614ef5565b6020026020010151601560008282546139469190614ea5565b90915550505b8061395681614f39565b9150506137ba565b50600080516020615a53833981519152846000015185604001518660600151600160405161398f9493929190615802565b60405180910390a150505050610fb4565b80600203613a6e57600080838060200190518101906139bf919061584d565b9093509150508115613a11576001600160a01b038116600090815260116020526040812080548492906139f3908490615021565b9091555050600a54613a0f906001600160a01b0316833061425e565b505b600a54604080516001600160a01b03808516825290921660208301528101839052600260608201527f83299ec6f89ed62d2b791b4b0efea091ded9cd46c991505e817c3074c3a43927906080015b60405180910390a15050610fb4565b80600303613bc05760008083806020019051810190613a8d9190615886565b925092505060005b8251811015613b9a57818181518110613ab057613ab0614ef5565b602002602001015160136000858481518110613ace57613ace614ef5565b60200260200101516001600160a01b03166001600160a01b031681526020019081526020016000208190555060046000848381518110613b1057613b10614ef5565b6020908102919091018101516001600160a01b031682528101919091526040016000205460ff168015613b5c57506000828281518110613b5257613b52614ef5565b6020026020010151115b15613b8857600a548251613b86916001600160a01b03169084908490811061390857613908614ef5565b505b80613b9281614f39565b915050613a95565b50600080516020615a53833981519152600083836003604051613a5f9493929190615802565b80600403610fb457600080600084806020019051810190613be191906158f3565b506001600160a01b038316600081815260036020526040812080546001600160a01b0319169092178255939750919550935091505b8351811015613d3957828181518110613c3157613c31614ef5565b6020026020010151826002016000868481518110613c5157613c51614ef5565b60200260200101516001600160a01b03166001600160a01b031681526020019081526020016000206000828254613c889190615021565b9250508190555060046000858381518110613ca557613ca5614ef5565b6020908102919091018101516001600160a01b031682528101919091526040016000205460ff168015613cf157506000838281518110613ce757613ce7614ef5565b6020026020010151115b15613d2757613d25848281518110613d0b57613d0b614ef5565b602002602001015184838151811061390857613908614ef5565b505b80613d3181614f39565b915050613c16565b50600080516020615a538339815191528484846004604051613d5e9493929190615802565b60405180910390a1505050505050505050565b600c80546001600160a01b031916905561221f816132c2565b606081613d9881601f615021565b1015613dd75760405162461bcd60e51b815260206004820152600e60248201526d736c6963655f6f766572666c6f7760901b6044820152606401610cf8565b613de18284615021565b84511015613e255760405162461bcd60e51b8152602060048201526011602482015270736c6963655f6f75744f66426f756e647360781b6044820152606401610cf8565b606082158015613e445760405191506000825260208201604052613e8e565b6040519150601f8416801560200281840101858101878315602002848b0101015b81831015613e7d578051835260209283019201613e65565b5050858452601f01601f1916604052505b50949350505050565b60008060008351604114613eed5760405162461bcd60e51b815260206004820152601f60248201527f45434453413a20696e76616c6964207369676e6174757265206c656e677468006044820152606401610cf8565b5050506020810151604082015160609092015160001a92909190565b612d1782826142de565b6000606060008060008661ffff166001600160401b03811115613f3857613f3861459b565b6040519080825280601f01601f191660200182016040528015613f62576020820181803683370190505b50905060008087516020890160008d8df191503d925086831115613f84578692505b828152826000602083013e909890975095505050505050565b8180519060200120601060008761ffff1661ffff16815260200190815260200160002085604051613fce919061597d565b9081526040805191829003602090810183206001600160401b0388166000908152915220919091557fe183f33de2837795525b4792ca4cd60535bd77c53b7e7030060bfcf5734d6b0c9061402b9087908790879087908790615999565b60405180910390a15050505050565b61ffff86166000908152600d60205260408120805461405890614c1c565b80601f016020809104026020016040519081016040528092919081815260200182805461408490614c1c565b80156140d15780601f106140a6576101008083540402835291602001916140d1565b820191906000526020600020905b8154815290600101906020018083116140b457829003601f168201915b5050505050905080516000036141425760405162461bcd60e51b815260206004820152603060248201527f4c7a4170703a2064657374696e6174696f6e20636861696e206973206e6f742060448201526f61207472757374656420736f7572636560801b6064820152608401610cf8565b60405162c5803160e81b81526001600160a01b037f0000000000000000000000000000000000000000000000000000000000000000169063c5803100908490614199908b9086908c908c908c908c906004016159eb565b6000604051808303818588803b1580156141b257600080fd5b505af11580156141c6573d6000803e3d6000fd5b505050505050505050505050565b6001600160a01b03811660009081526009602052604081205460ff161515900361221f576001600160a01b03166000818152600960205260408120805460ff191660019081179091556008805491820181559091527ff3f7a9fe364faab93b216da50a3214154f22a0a2b415b23a84c8169e8b636ee30180546001600160a01b0319169091179055565b600154604051631a4ca37b60e21b81526000916001600160a01b0316906369328dec906142939087908790879060040161508d565b6020604051808303816000875af11580156142b2573d6000803e3d6000fd5b505050506040513d601f19601f820116820180604052508101906142d69190614f90565b949350505050565b6142e88282612231565b612d175760008281526007602090815260408083206001600160a01b03851684529091529020805460ff191660011790555050565b61ffff8116811461221f57600080fd5b60008083601f84011261433f57600080fd5b5081356001600160401b0381111561435657600080fd5b60208301915083602082850101111561436e57600080fd5b9250929050565b80356001600160401b038116811461438c57600080fd5b919050565b600080600080600080608087890312156143aa57600080fd5b86356143b58161431d565b955060208701356001600160401b03808211156143d157600080fd5b6143dd8a838b0161432d565b90975095508591506143f160408a01614375565b9450606089013591508082111561440757600080fd5b5061441489828a0161432d565b979a9699509497509295939492505050565b6001600160a01b038116811461221f57600080fd5b60006020828403121561444d57600080fd5b813561212581614426565b6001600160a01b0391909116815260200190565b60006020828403121561447e57600080fd5b81356121258161431d565b60005b838110156144a457818101518382015260200161448c565b50506000910152565b600081518084526144c5816020860160208601614489565b601f01601f19169290920160200192915050565b60208152600061212560208301846144ad565b801515811461221f57600080fd5b60006020828403121561450c57600080fd5b8135612125816144ec565b60008060006040848603121561452c57600080fd5b83356145378161431d565b925060208401356001600160401b0381111561455257600080fd5b61455e8682870161432d565b9497909650939450505050565b6000806040838503121561457e57600080fd5b82359150602083013561459081614426565b809150509250929050565b634e487b7160e01b600052604160045260246000fd5b60405161018081016001600160401b03811182821017156145d4576145d461459b565b60405290565b60405161010081016001600160401b03811182821017156145d4576145d461459b565b604051601f8201601f191681016001600160401b03811182821017156146255761462561459b565b604052919050565b60006001600160401b038211156146465761464661459b565b5060051b60200190565b600082601f83011261466157600080fd5b813560206146766146718361462d565b6145fd565b82815260059290921b8401810191818101908684111561469557600080fd5b8286015b848110156146b95780356146ac81614426565b8352918301918301614699565b509695505050505050565b600080604083850312156146d757600080fd5b82356001600160401b03808211156146ee57600080fd5b818501915085601f83011261470257600080fd5b813560206147126146718361462d565b82815260059290921b8401810191818101908984111561473157600080fd5b948201945b8386101561474f57853582529482019490820190614736565b9650508601359250508082111561476557600080fd5b5061477285828601614650565b9150509250929050565b6000806040838503121561478f57600080fd5b823561479a81614426565b946020939093013593505050565b600080604083850312156147bb57600080fd5b82356147c68161431d565b9150602083013561459081614426565b6000602082840312156147e857600080fd5b5035919050565b60006001600160401b038211156148085761480861459b565b50601f01601f191660200190565b600082601f83011261482757600080fd5b8135614835614671826147ef565b81815284602083860101111561484a57600080fd5b816020850160208301376000918101602001919091529392505050565b60008060006060848603121561487c57600080fd5b83356148878161431d565b925060208401356001600160401b038111156148a257600080fd5b6148ae86828701614816565b9250506148bd60408501614375565b90509250925092565b600080604083850312156148d957600080fd5b823561479a8161431d565b600080604083850312156148f757600080fd5b82356149028161431d565b915060208301356145908161431d565b6000806040838503121561492557600080fd5b823561493081614426565b91506020830135614590816144ec565b6000806040838503121561495357600080fd5b82356001600160401b0381111561496957600080fd5b61497585828601614650565b9250506020830135614590816144ec565b60008060008060006060868803121561499e57600080fd5b85356149a98161431d565b945060208601356001600160401b03808211156149c557600080fd5b6149d189838a0161432d565b909650945060408801359150808211156149ea57600080fd5b506149f78882890161432d565b969995985093965092949392505050565b60008060408385031215614a1b57600080fd5b8235915060208301356001600160401b03811115614a3857600080fd5b61477285828601614816565b600080600080600060808688031215614a5c57600080fd5b8535614a678161431d565b94506020860135614a778161431d565b93506040860135925060608601356001600160401b03811115614a9957600080fd5b6149f78882890161432d565b600081518084526020808501945080840160005b83811015614ade5781516001600160a01b031687529582019590820190600101614ab9565b509495945050505050565b600081518084526020808501945080840160005b83811015614ade57815187529582019590820190600101614afd565b604081526000614b2c6040830185614aa5565b8281036020840152612e958185614ae9565b600080600060608486031215614b5357600080fd5b8335614b5e8161431d565b92506020840135614b6e8161431d565b929592945050506040919091013590565b60008060008060808587031215614b9557600080fd5b8435614ba08161431d565b93506020850135614bb08161431d565b92506040850135614bc081614426565b9396929550929360600135925050565b60018060a01b038616815284602082015260a060408201526000614bf760a0830186614aa5565b8281036060840152614c098186614ae9565b9150508260808301529695505050505050565b600181811c90821680614c3057607f821691505b602082108103614c5057634e487b7160e01b600052602260045260246000fd5b50919050565b8183823760009101908152919050565b600060208284031215614c7857600080fd5b604051602081016001600160401b0381118282101715614c9a57614c9a61459b565b6040529151825250919050565b80516001600160801b038116811461438c57600080fd5b805164ffffffffff8116811461438c57600080fd5b805161438c81614426565b805160ff8116811461438c57600080fd5b60006101808284031215614d0257600080fd5b614d0a6145b1565b614d148484614c66565b8152614d2260208401614ca7565b6020820152614d3360408401614ca7565b6040820152614d4460608401614ca7565b6060820152614d5560808401614ca7565b6080820152614d6660a08401614ca7565b60a0820152614d7760c08401614cbe565b60c0820152614d8860e08401614cd3565b60e0820152610100614d9b818501614cd3565b90820152610120614dad848201614cd3565b90820152610140614dbf848201614cd3565b90820152610160614dd1848201614cde565b908201529392505050565b81835281816020850137506000828201602090810191909152601f909101601f19169091010190565b61ffff84168152604060208201526000612e95604083018486614ddc565b600060208284031215614e3557600080fd5b8151612125816144ec565b602080825260079082015266636c6f73696e6760c81b604082015260600190565b6020808252601490820152734e6f742073756666696369656e742066756e647360601b604082015260600190565b634e487b7160e01b600052601160045260246000fd5b8181038181111561225857612258614e8f565b6001600160a01b03929092168252602082015260400190565b6001600160a01b039384168152919092166020820152604081019190915260600190565b634e487b7160e01b600052603260045260246000fd5b60208082526014908201527310985b185b98d9481a5b9cdd59999a58da595b9d60621b604082015260600190565b600060018201614f4b57614f4b614e8f565b5060010190565b606081526000614f656060830186614aa5565b8281036020840152614f778186614ae9565b91505060018060a01b0383166040830152949350505050565b600060208284031215614fa257600080fd5b5051919050565b6001600160a01b0392831681529116602082015260400190565b60208082526010908201526f27379030baba3437b934bd30ba34b7b760811b604082015260600190565b6020808252601a90820152796e6f7420656e6f756768206e617469766520666f72206665657360301b604082015260600190565b8082018082111561225857612258614e8f565b6001600160a01b0387811682528616602082015260408101859052831515606082015260c081016005841061507957634e487b7160e01b600052602160045260246000fd5b608082019390935260a00152949350505050565b6001600160a01b0393841681526020810192909252909116604082015260600190565b6000602082840312156150c257600080fd5b81516121258161431d565b600061ffff8087168352808616602084015250836040830152608060608301526150fa60808301846144ad565b9695505050505050565b61ffff861681526000602060018060a01b0387168184015260a0604084015261513060a08401876144ad565b851515606085015283810360808501526000855461514d81614c1c565b808452600182811680156151685760018114615182576151b0565b60ff1984168688015282151560051b8601870194506151b0565b896000528660002060005b848110156151a85781548882018a015290830190880161518d565b870188019550505b50929c9b505050505050505050505050565b600080604083850312156151d557600080fd5b505080516020909101519092909150565b601f82111561217257600081815260208120601f850160051c8101602086101561520d5750805b601f850160051c820191505b8181101561203257828155600101615219565b600019600383901b1c191660019190911b1790565b81516001600160401b0381111561525a5761525a61459b565b61526e816152688454614c1c565b846151e6565b602080601f83116001811461529d576000841561528b5750858301515b615295858261522c565b865550612032565b600085815260208120601f198616915b828110156152cc578886015182559484019460019091019084016152ad565b50858210156152ea5787850151600019600388901b60f8161c191681555b5050505050600190811b01905550565b8284823760609190911b6001600160601b0319169101908152601401919050565b61ffff86168152606060208201526000615339606083018688614ddc565b828103604084015261534c818587614ddc565b98975050505050505050565b600061ffff808816835280871660208401525084604083015260806060830152615386608083018486614ddc565b979650505050505050565b61ffff861681526080602082015260006153af608083018688614ddc565b6001600160401b0394909416604083015250606001529392505050565b61ffff94851681529290931660208301526001600160a01b03166040820152606081019190915260800190565b600082601f83011261540a57600080fd5b8151615418614671826147ef565b81815284602083860101111561542d57600080fd5b6142d6826020830160208701614489565b60006020828403121561545057600080fd5b81516001600160401b0381111561546657600080fd5b6142d6848285016153f9565b6001600160401b038311156154895761548961459b565b61549d836154978354614c1c565b836151e6565b6000601f8411600181146154cb57600085156154b95750838201355b6154c3868261522c565b845550610fb4565b600083815260209020601f19861690835b828110156154fc57868501358255602094850194600190920191016154dc565b50868210156155195760001960f88860031b161c19848701351681555b505060018560011b0183555050505050565b61ffff8516815260806020820152600061554860808301866144ad565b6001600160401b0385166040840152828103606084015261538681856144ad565b600082601f83011261557a57600080fd5b8151602061558a6146718361462d565b82815260059290921b840181019181810190868411156155a957600080fd5b8286015b848110156146b95780516155c081614426565b83529183019183016155ad565b600082601f8301126155de57600080fd5b815160206155ee6146718361462d565b82815260059290921b8401810191818101908684111561560d57600080fd5b8286015b848110156146b95780518352918301918301615611565b6000806040838503121561563b57600080fd5b825160208401519092506001600160401b038082111561565a57600080fd5b90840190610100828703121561566f57600080fd5b6156776145da565b61568083614cd3565b81526020830151602082015260408301518281111561569e57600080fd5b6156aa88828601615569565b6040830152506060830151828111156156c257600080fd5b6156ce888286016155cd565b606083015250608083015160808201526156ea60a08401614cde565b60a082015260c083015160c082015260e08301518281111561570b57600080fd5b615717888286016153f9565b60e0830152508093505050509250929050565b815160009082906020808601845b8381101561575d5781516001600160a01b031685529382019390820190600101615738565b50929695505050505050565b815160009082906020808601845b8381101561575d57815185529382019390820190600101615777565b606087901b6001600160601b03191681526014810186905284516000906157c1816034850160208a01614489565b8551908301906157d8816034840160208a01614489565b6034910190810194909452505060f81b6001600160f81b0319166054820152605501949350505050565b6001600160a01b038516815260806020820181905260009061582690830186614aa5565b82810360408401526158388186614ae9565b91505060ff8316606083015295945050505050565b60008060006060848603121561586257600080fd5b8351925060208401519150604084015161587b81614426565b809150509250925092565b60008060006060848603121561589b57600080fd5b835160208501519093506001600160401b03808211156158ba57600080fd5b6158c687838801615569565b935060408601519150808211156158dc57600080fd5b506158e9868287016155cd565b9150509250925092565b600080600080600060a0868803121561590b57600080fd5b85519450602086015161591d81614426565b60408701519094506001600160401b038082111561593a57600080fd5b61594689838a01615569565b9450606088015191508082111561595c57600080fd5b50615969888289016155cd565b925050608086015190509295509295909350565b6000825161598f818460208701614489565b9190910192915050565b61ffff8616815260a0602082015260006159b660a08301876144ad565b6001600160401b038616604084015282810360608401526159d781866144ad565b9050828103608084015261534c81856144ad565b61ffff8716815260c060208201526000615a0860c08301886144ad565b8281036040840152615a1a81886144ad565b6001600160a01b0387811660608601528616608085015283810360a08501529050615a4581856144ad565b999850505050505050505056fec53f0aae5ad30d5251e6054a1874116c45eaf54274cdb1940ee106d67c10b3a5f33fe78eb7c840e8bf68670029904b6f0da8e79346941c278a4e7676d473df1557c872046f094b8a493ec5eb6ea374eafbc3c05951e40de3c4302a41f3f127baa2646970667358221220ff6402304ca6c8ab1c04a40a06491c428ecad6978bc98ebe5fc8fab50deeb9f764736f6c63430008110033",
  "linkReferences": {},
  "deployedLinkReferences": {}
}