{
  "_format": "hh-sol-artifact-1",
  "contractName": "LargeSettlementData",
  "sourceName": "contracts/L2/data/LargeSettlementData.sol",
  "abi": [
    {
      "inputs": [],
      "name": "NODE_ROLE",
      "outputs": [
        {
          "internalType": "bytes32",
          "name": "",
          "type": "bytes32"
        }
      ],
      "stateMutability": "view",
      "type": "function"
    },
    {
      "inputs": [],
      "name": "adapterParams",
      "outputs": [
        {
          "internalType": "bytes",
          "name": "",
          "type": "bytes"
        }
      ],
      "stateMutability": "view",
      "type": "function"
    },
    {
      "inputs": [],
      "name": "apy",
      "outputs": [
        {
          "internalType": "uint256",
          "name": "",
          "type": "uint256"
        }
      ],
      "stateMutability": "view",
      "type": "function"
    },
    {
      "inputs": [],
      "name": "dstChainId",
      "outputs": [
        {
          "internalType": "uint16",
          "name": "",
          "type": "uint16"
        }
      ],
      "stateMutability": "view",
      "type": "function"
    },
    {
      "inputs": [],
      "name": "interests",
      "outputs": [
        {
          "internalType": "address",
          "name": "",
          "type": "address"
        }
      ],
      "stateMutability": "view",
      "type": "function"
    },
    {
      "inputs": [],
      "name": "lastSmallsettlement",
      "outputs": [
        {
          "internalType": "uint256",
          "name": "",
          "type": "uint256"
        }
      ],
      "stateMutability": "view",
      "type": "function"
    },
    {
      "inputs": [],
      "name": "smallSettlement",
      "outputs": [
        {
          "internalType": "address",
          "name": "",
          "type": "address"
        }
      ],
      "stateMutability": "view",
      "type": "function"
    },
    {
      "inputs": [],
      "name": "totalValue",
      "outputs": [
        {
          "internalType": "uint256",
          "name": "",
          "type": "uint256"
        }
      ],
      "stateMutability": "view",
      "type": "function"
    },
    {
      "inputs": [],
      "name": "usdt",
      "outputs": [
        {
          "internalType": "address",
          "name": "",
          "type": "address"
        }
      ],
      "stateMutability": "view",
      "type": "function"
    },
    {
      "inputs": [],
      "name": "withdrawalTime",
      "outputs": [
        {
          "internalType": "uint256",
          "name": "",
          "type": "uint256"
        }
      ],
      "stateMutability": "view",
      "type": "function"
    }
  ],
  "bytecode": "0x608060405234801561001057600080fd5b506102ce806100206000396000f3fe608060405234801561001057600080fd5b506004361061008e5760003560e01c8063083118d51461009357806314a3db2d146100b1578063231fccdf146100dc5780632f48ab7d146100f557806330c593f714610108578063389eb9f9146101295780633bcfc4b814610140578063bd40ecab14610149578063d4c3eea014610152578063fb8957331461015b575b600080fd5b61009b610182565b6040516100a89190610210565b60405180910390f35b6001546100c4906001600160a01b031681565b6040516001600160a01b0390911681526020016100a8565b6000546100c4906201000090046001600160a01b031681565b6005546100c4906001600160a01b031681565b6000546101169061ffff1681565b60405161ffff90911681526020016100a8565b61013260065481565b6040519081526020016100a8565b61013260085481565b61013260075481565b61013260045481565b6101327f57c872046f094b8a493ec5eb6ea374eafbc3c05951e40de3c4302a41f3f127ba81565b6002805461018f9061025e565b80601f01602080910402602001604051908101604052809291908181526020018280546101bb9061025e565b80156102085780601f106101dd57610100808354040283529160200191610208565b820191906000526020600020905b8154815290600101906020018083116101eb57829003601f168201915b505050505081565b600060208083528351808285015260005b8181101561023d57858101830151858201604001528201610221565b506000604082860101526040601f19601f8301168501019250505092915050565b600181811c9082168061027257607f821691505b60208210810361029257634e487b7160e01b600052602260045260246000fd5b5091905056fea264697066735822122032f2043b604d7f0948177b99c601de173f345a1f00e031541697b89b631bbbbb64736f6c63430008110033",
  "linkReferences": {},
  "deployedLinkReferences": {}
}